:020000021000EC
:10C0000000000220AD0B0200D50B0200D70B02008E
:10C01000D90B0200DB0B0200DD0B02000000000068
:10C02000000000000000000000000000DF0B020024
:10C03000E10B020000000000E30B0200E50B020030
:10C04000E70B0200E70B0200791502000DD7010093
:10C0500001D70100E70B0200250E0200E70B0200EA
:10C06000E70B0200E70B0200E70B0200E70B020000
:10C07000E70B0200E70B0200E70B0200E70B0200F0
:10C08000E70B0200CD0E0200E70B0200E70B0200F7
:10C09000E70B0200E70B0200E70B0200E70B0200D0
:10C0A000E70B0200E70B0200E70B0200E70B0200C0
:10C0B000E70B0200E70B0200000000000000000098
:10C0C000E70B0200E70B0200E70B0200E70B0200A0
:10C0D000E70B0200E70B0200E70B02000000000084
:10C0E0000000000000000000000000000000000050
:10C0F0000000000000000000000000000000000040
:10C10000000000000000000000000000000000002F
:10C11000000000000000000000000000000000001F
:10C12000000000000000000000000000000000000F
:10C1300000000000000000000000000000000000FF
:10C1400000000000000000000000000000000000EF
:10C1500000000000000000000000000000000000DF
:10C1600000000000000000000000000000000000CF
:10C1700000000000000000000000000000000000BF
:10C1800000000000000000000000000000000000AF
:10C19000000000000000000000000000000000009F
:10C1A000000000000000000000000000000000008F
:10C1B000000000000000000000000000000000007F
:10C1C000000000000000000000000000000000006F
:10C1D000000000000000000000000000000000005F
:10C1E000000000000000000000000000000000004F
:10C1F000000000000000000000000000000000003F
:10C20000044B05481B1A062B02D9044B03B11847EF
:10C21000704700BF5B210020582100200000000073
:10C2200005490648091A891001EBD171491002D05D
:10C23000034B03B1184770475821002058210020B4
:10C240000000000010B5064C237843B9FFF7D8FF73
:10C25000044B13B10448AFF300800123237010BDD9
:10C260005821002000000000A852020008B5084B29
:10C270001BB108490848AFF300800848036813B9A8
:10C28000BDE80840CCE7064B002BF9D09847F7E70C
:10C29000000000005C210020A85202005421002070
:10C2A00000000000154B002B08BF134B9D46A3F563
:10C2B000803A00218B460F461348144A121A06F0A2
:10C2C00075F90F4B002B00D098470E4B002B00D078
:10C2D00098470020002104000D000D48002802D0DE
:10C2E0000C48AFF3008006F005F92000290005F0A6
:10C2F00011FA06F0EBF800BF000008000000022071
:10C3000000000000000000005821002058270020F5
:10C310000000000000000000024A136843F0080318
:10C3200013607047A8210020024A136843F01003ED
:10C3300013607047A821002010B50E4B1B78012B0D
:10C34000044607D0022B14D10146BDE810400A482C
:10C3500003F00EBF094804F0F7F8084804F012F89B
:10C360002060064804F011F86060044804F010F8FA
:10C37000A06010BD74210020B02100207821002091
:10C3800010B5022004F0F2FE0446012004F0EEFE97
:10C39000400040EA8404002004F0E8FE0A492043FB
:10C3A0000B680A4C80F0070020EA0302236808604B
:10C3B000134323600A24064800F0E0F9012004F04A
:10C3C00077FD013CF7D110BDA4210020A821002059
:10C3D000AC2100201FB5014601A805F025F99622E1
:10C3E00001A9044800F088FA01A805F0DBF805B0BF
:10C3F0005DF804FBAC21002007B518B90B4800F02C
:10C4000009FA0FE0002303EB830220FA02F202F0A4
:10C410001F020DF803200133052BF4D169460348B0
:10C4200000F056FA03B05DF804FB00BFAC21002019
:10C4300010B586B00023044603A803930493059324
:10C44000FFF77AFF0598012CC0F1000016D105F026
:10C45000EDFACDE90001049805F0E8FA9DED001B26
:10C4600041EC100B04F0B4F853EC102B10EE100A52
:10C4700003F100410EA3D3E9002311E005F0D6FA41
:10C48000CDE90001039805F0D1FA9DED001B41ECC8
:10C49000100B04F09DF806A3D3E9002351EC100B18
:10C4A00005F02AFB05F0C2FD06B010BDAFF3008019
:10C4B0003B597E90A9E781402DE9F04188B005AD58
:10C4C0000024284605946C60AC60FFF735FF0798A0
:10C4D000404205F0ABFACDE90001059805F0A6FA57
:10C4E0009DED001B41EC100B04F072F840A3D3E962
:10C4F000002351EC100B05F0FFFA05F097FD86B212
:10C500000798404205F092FACDE90001069805F03F
:10C510008DFA9DED001B41EC100B04F059F853EC23
:10C52000102B10EE100A03F1004131A3D3E90023D0
:10C5300005F0E2FA05F07AFD234621462A4C87B23F
:10C5400055F8232054F82300DFF89CE0101A80EA05
:10C55000E0720133A2EBE072032B1144F0D1B1F58C
:10C56000C87F224C08D32368B1F5FA6F34BF43F07B
:10C57000200343F06003236095E8070023684FF031
:10C5800000088EE80700CDF80C8005208DF80C30EF
:10C590001B0A8DF80D30CDF8108004F0E7FD05463C
:10C5A0000B2004F0E3FD400080F0020085F001055F
:10C5B00005438DF810608DF8127046F3072647F397
:10C5C0000727082103A88DF80E508DF80F808DF8ED
:10C5D00011608DF8137000F0A7FBC4F8008008B05C
:10C5E000BDE8F081AFF3008098210020A821002051
:10C5F0003B597E90A9E7814008B50549054803F0FD
:10C60000B1FD1D210448BDE8084003F0B5BE00BFE0
:10C6100004250020B02100207821002010B54FF41F
:10C6200096412B482B4C04F070FE2B4800F0E4FEA2
:10C630002A4800F0E1FE0221002004F051FD022111
:10C64000012004F04DFD0221084604F049FD0021BF
:10C65000052004F045FD00210B2004F041FD0322DC
:10C660001F49052004F072FB03221E490B2004F031
:10C670006DFB1D491D4800F02BF94FF4967004F036
:10C6800017FC1921144800F07DFF134800F0E1FF6A
:10C6900048B902231648237003F0F2FD1448BDE8A0
:10C6A000104003F0BBBD1D210B4800F06BFF0A4892
:10C6B00000F0CFFF014638B90123237002220D4854
:10C6C000BDE8104003F0FEBE0223237010BD00BF82
:10C6D000E42600207421002004250020C02500202D
:10C6E00019C3010029C301006C470200AC210020DE
:10C6F000B0210020782100202DE9F8431C4E1D4F69
:10C7000089460025002416F81420DFF8688006EB1F
:10C710004403FF2A597806D019F802300B41DB0791
:10C7200001D5002100E00121385D013404F002FD53
:10C73000052CE8D1104BEC5C0121204604F0FAFCFA
:10C74000012004F0B5FB01350021204604F0F2FC85
:10C75000052D06F10A06D5D1002418F804000121A0
:10C76000013404F0E7FC052CF7D1BDE8F88300BFE5
:10C770007B47020071470200764702002DE9F8432B
:10C780001E4B1B78002B36D01D4C1E4D23781E4EA1
:10C79000E85C1E4FDFF87880002104F0CBFC2378A2
:10C7A0000133DBB2042B88BF002323704FF0000954
:10C7B000237803EB83034B4406EB430116F8132065
:10C7C0004B78FF2A06D018F803301341DB0701D558
:10C7D000002100E0012117F8090009F1010904F026
:10C7E000A9FCB9F1050FE3D123780121E85CBDE88C
:10C7F000F84304F09FBCBDE8F88300BFBD210020D2
:10C80000BC210020764702007B47020071470200EE
:10C81000BE21002038B50B4D0024285D00210134D5
:10C8200004F05EFC052CF8D1074D0024285D0021A2
:10C83000013404F055FC052CF8D1044B00221A7089
:10C8400038BD00BF7147020076470200BD210020BD
:10C8500038B50B4D0024285D0121013404F06AFC39
:10C86000052CF8D1074D0024285D0021013404F087
:10C8700061FC052CF8D1044B00221A601A7138BDF6
:10C880007147020076470200BE21002070B50D4EB0
:10C8900005460024305D0121013404F021FC052C03
:10C8A000F8D1094E0024305D0121013404F018FC58
:10C8B000052CF8D12846FFF7CBFF044B00221A7055
:10C8C00070BD00BF7147020076470200BC21002006
:10C8D00010B5074B1A780C461AB901221A70FFF7E7
:10C8E000D5FF044B22681A6022791A7110BD00BF6F
:10C8F000BD210020BE2100202DE9F04F4D4B924676
:10C900001A7889B080460C461AB901221A70FFF7CE
:10C91000BDFF4046FFF79CFF474902A804F084FE94
:10C92000A36823B9454902A804F0B0FE18E0012B22
:10C9300004D1214602A804F089FE11E03F4905A870
:10C9400004F072FE214605A804F0B9FE3B4904F04C
:10C95000C2FE014602A804F079FE05A804F022FEFA
:10C96000DDF81090062606FB09F6701E04F0E8FEBE
:10C970000024334B05462746A346049A019394426C
:10C980001FD2214602A804F0C1FE2038602828BF2B
:10C990000020019B00EB800018440022E91910F8E8
:10C9A00002E001F802E00132052AF8D104997A1D6B
:10C9B00001398C423CBF05F802B0BA1D013417465C
:10C9C000DBE70024073E04F05BFA05EB040B0746A7
:10C9D00059464046FFF790FE04F052FAC01B5045FE
:10C9E000F6D30134B44203D2B9F1010FEBD102E026
:10C9F000B9F1010F11D1134C0023681D002110F86B
:10CA0000012D1A4102F00102854242EA4101F6D1AC
:10CA100019550133052BF0D102E04046FFF718FF0E
:10CA2000284604F091FE02A804F0BCFD09B0BDE860
:10CA3000F08F00BFBD210020694B02009852020018
:10CA4000AD470200BE2100207047000001490248A6
:10CA500004F0E2BBAD4A0200E4260020034B044987
:10CA6000044800221A8004F0D7BB00BFC421002074
:10CA7000BA4A0200E426002002781AB9C9B2044872
:10CA800000F080BD406808B102F0FBBD704700BFF8
:10CA9000C0250020037813B9034800F0DABD4068D0
:10CAA00008B102F001BE7047C0250020054B064AC0
:10CAB0001B5C0433DBB2D118D35C487843EA002016
:10CAC00000B27047D92300200424002010B5084B81
:10CAD000084C1B5C0433DBB2E1188A7848781204F6
:10CAE00042EA0022E05C0243C87842EA006010BDDE
:10CAF000D92300200424002070B51F4D1F4C204E68
:10CB0000FF231A461946284601F0C2F922461D495C
:10CB1000284605F0C7FC1C4D1C481D490023224631
:10CB20004360037005F0BEFC1A4A1B49284600F01A
:10CB3000FDFE224619492846194D05F0B3FC194956
:10CB4000194801F06FFA14230C221849284600F006
:10CB5000A1FE2846164D2246314605F0A3FC1222BE
:10CB600014492846142300F095FE224631462846F3
:10CB7000BDE8704005F096BCEC210020702000203C
:10CB800041D8010009DE0100EC230020A42300208D
:10CB900049CA0100414B0200C44A02000FD90100FA
:10CBA000B4230020C94A0200AC230020EE4A020050
:10CBB000C8210020134B0200F8B5214D214C224E14
:10CBC000224F28464FF4964104F09FFB3146204601
:10CBD00000F0CFFF3946204601F013F91C492046EA
:10CBE00001F00FF9384600F0BAFD1A4F0146204611
:10CBF00000F0BCFF2046184901F003F9391D20461A
:10CC000001F0FFF83846154A002100F078FE204672
:10CC1000134A002100F0CAFF0121124A204600F009
:10CC2000C5FF204600F0E5FF0F4B304601221A7089
:10CC3000FFF7F4FC28460D49BDE8F84004F0ECBAD3
:10CC4000E4260020EC210020414B0200AC23002010
:10CC5000F0230020B4230020CC210020B1D101001A
:10CC60005DCA01004DCA0100D8230020384B0200E4
:10CC7000037813B9044800F065BB406810B103683D
:10CC80005B681847704700BFC0250020064B1B7823
:10CC9000032B0A4604D1054B1860054B19807047D9
:10CCA0000146044804F07CBAC3210020742000200F
:10CCB00078200020E4260020064BFF221A7055221F
:10CCC0005A7002229A7001221871DA7005211846F2
:10CCD000FFF7DCBF04240020074BFF221A70552207
:10CCE0005A7003229A701871022200125871DA7079
:10CCF00006211846FFF7CABF0424002010B50446D9
:10CD000006F09EF901462046BDE81040FFF7BEBF81
:10CD10000448FF23037055234370002383700321CD
:10CD2000FFF7B4BF0424002038B50B4C0D460A466B
:10CD30000146601D05F01FFCFF232370552363701F
:10CD4000AB1CA3700723E3702571691D2046BDE865
:10CD50003840FFF79BBF00BF042400202DE9F843B3
:10CD6000214C23780D462BB90A46C1B21F4800F06A
:10CD700006FC06E0636823B10A460146184602F045
:10CD8000FFFC23781BB9194800F0F7FA05E0164BB1
:10CD9000586818B103689B6898470646B54205DC99
:10CDA0000026DFF84490DFF848800CE0BDE8F84347
:10CDB000FFF7AEBF23784BB90C4800F0F3FA0746F3
:10CDC00006F808700136AE42F4DB07E0D9F804003B
:10CDD0000028F5D00368DB689847F0E7E9B204481B
:10CDE000BDE8F843FFF7A0BFA4230020C025002022
:10CDF000042400202DE9F047AB4D6B78542B01D172
:10CE00002E795BE0552B59D1EE78042E03D8A74F2D
:10CE100007EB061710E0802E0DD98D2E03D8A6F152
:10CE20008107A34B04E0FA2E05D9A24BA6F1FB071C
:10CE300003EB071700E00027102200219E4805F0B1
:10CE4000B5FBDFB39D4BDFF870A2B3F800904FF055
:10CE50000008444617F8083083B34C2B08F80A4002
:10CE600010D007D8442B0FD0462B0BD0422B1CD10F
:10CE7000013419E0622B12D0732B07D0532B14D13D
:10CE8000023411E004340FE008340DE0201D284482
:10CE900006F0D6F8013410FA84F084B205E02B19BC
:10CEA0000134187910FA84F4A4B2E31C4B4580F2E3
:10CEB000798108F10108B8F1100FCBD1852E00F06F
:10CEC000C88021D8042E53D00DD8022E46D04BD87E
:10CED000012E40F06381784B1878043055FA80F0C9
:10CEE000FFF778FA5AE1822E7BD002D8812E47D004
:10CEF00054E1832E00F08880842E40F04F816E4BE9
:10CF00005A781B782A449DE08A2E00F0018119D8B6
:10CF1000872E00F0D980C0F0B180882E40F03E818D
:10CF20000120FFF7C3FD644B1B781D4486B22F79A7
:10CF30000021384604F0D4F80024002E08BF012652
:10CF40002546D2E08D2E00F0F78040F22781FE2E9C
:10CF500000F01F81FF2E00F025811FE10020FFF768
:10CF6000B5FDFFF749FA19E1BDE8F047FFF7A4BAAC
:10CF7000514B1B781D442879FFF75AFA80B2C3E061
:10CF80004F4E33781BB94F4800F09CFA05E07068AB
:10CF900018B104F0D7FB00237360474A13782B4481
:10CFA0001C7953781D44142C2D7902D1132D07D1EF
:10CFB00001E02CB925B9434800F01EFA00230EE029
:10CFC000706808B104F0BEFB382004F0B7FB012301
:10CFD00007462A46214602F025FB7760012333707D
:10CFE000DCE0354C364823782B441979FFF744FDB3
:10CFF000617833486B1805311A792944FFF738FEF8
:10D000002F48FFF747FD6CE02B4C2D4E23782B4427
:10D0100030461979FFF730FD61786B1805312944E6
:10D020001A793046FFF724FE317819B9254800F007
:10D03000B3FA04E0706810B1002102F025FBA27879
:10D0400023782A441D4411792879BDE8F047FFF779
:10D0500085BE002426461A483146FFF70DFD1848C4
:10D06000FFF718FD08B92E55013401367F2EF2D195
:10D07000E1B20D48BDE8F047FFF756BE0E4B1B78F6
:10D080005E1D2E441D4400242D79AC4280F2868022
:10D09000305D012104F024F83319305D597804F033
:10D0A00049F80234F1E700BF042400208D49020052
:10D0B000DD4902006A4B0200D923002078200020BD
:10D0C000A4230020C0250020374C23782B440021C6
:10D0D000187904F005F823781D44287904F046F8FF
:10D0E000C0B2BDE8F047FFF7E7BDAE4205DD384608
:10D0F00003F002FF01350444F7E740F23930B4FB96
:10D10000F6F46043C0F30F20BDE8F047FFF7E4BD3D
:10D11000254B1B78EA1805331D4416792C46631BF2
:10D120009E423BDDA178637814F8030B43EA0121AA
:10D13000090903F085FFF2E70020FFF7B7FC1A4A60
:10D1400053782B4407461E7993785C1D2C441D446C
:10D1500095F8048025462B1B984509DDA9786B7846
:10D1600015F8030B43EA0121090903F069FFF2E70F
:10D17000A7B1384603F09CFE012E0CBF13260026F3
:10D180000025A8450ADD605D314603F059FF0335EF
:10D19000F7E70648BDE8F047FFF7B0BDBDE8F04748
:10D1A000FFF7B6BDBDE8F087D9230020504B020041
:10D1B0002DE9F341284E294800F01AFBB6F800800B
:10D1C00000EB0803FF2B0446374602DD00233B80BB
:10D1D0003EE02248224D00F009FB2246014605EBC5
:10D1E000080005F0BDF93288A2B92B78FF2BEDD1EC
:10D1F0006B78542B04D0552B0AD1AB78033304E061
:10D20000AB78E978043303EB012316490B8001E086
:10D2100032801DE0144B134D0321197014442B88E8
:10D22000A4B2A3423C800BD8FFF7E4FD0F4B2A7851
:10D2300019680F4800F019FB074B00221A8007E01D
:10D2400002A9002301F8043D0122094800F00DFB6A
:10D2500002B0BDE8F08100BFC4210020B42300204B
:10D260000424002078200020C32100207420002006
:10D27000C821002008B5084804F080F8002807DD20
:10D28000064B054801221A7004F07EF880B201E0D6
:10D290004FF6FF7000B208BDE4260020C321002035
:10D2A00070B5234E3546234CFFF7E4FF002834DBEE
:10D2B00032882049A054531C9BB23380013B1E4A44
:10D2C000032B1CD8DFE803F002090E130423FF2808
:10D2D00013801CD000232B8011E0543880B2012829
:10D2E000F8D80CE04B78552B09D1033006E04B7889
:10D2F000542B04D1A378043303EB00201080298839
:10D300001388994203D3FFF775FD002333802B88E0
:10D31000FF2BC9D900232B80C5E7084B1B7813B11D
:10D32000074800F01BFCBDE87040FFF729B800BFBC
:10D33000C42100200424002078200020D8230020CD
:10D34000EC2100202DE9F84380460D46174601EBFD
:10D3500002090C464C45A4EB050609D0D8F800306C
:10D3600014F8011B1B68404698470028F2D100E0E2
:10D370003E463046BDE8F8837047203003F0ACBF2E
:10D3800038B5437F0D462BB100F16804204603F009
:10D39000B1FF08B1002038BD2046294603F07FFFC9
:10D3A000012038BD203003F089BF203003F09ABF40
:10D3B0002DE9F0411E464FF47A73002583600D4B32
:10D3C0004560044640F8203B8846174603F05CFF62
:10D3D00004F1680003F058FF9DF8183063769DF85B
:10D3E0001C30A376C4F810806761267665772046E6
:10D3F000BDE8F081C44B0200F0B5837E2D4C2E4D6C
:10D4000054F82320437E54F8233012F0200F14BF29
:10D410002F464FF0A04702F01F0213F0200F03F039
:10D420001F0308BF4FF0A04502F5E07203F5E0735B
:10D43000012140F20C66C17647F8226045F823606E
:10D4400003694FF0CC72C3F824250622C3F80025E7
:10D45000827E54F82220C3F80825427E54F8222008
:10D46000C3F80C25027E53B2D2B202F01F055C094C
:10D47000A9406034114D002B45F8241006DA104BFA
:10D4800002F00F02134440221A7606E003F16043D3
:10D4900003F56143402283F80023037E01215AB241
:10D4A00003F01F0301FA03F35209044941F8223043
:10D4B000F0BD00BF304F02000003005000E100E06B
:10D4C000FCEC00E0C37E23B103690022C3F8002511
:10D4D00070474269C2F8003570472DE9F8430646A7
:10D4E000894698461546B2B100F12007384603F048
:10D4F000E1FE34690122C4F888952262C4F83475CB
:10D50000C4F838552260D4F84C313BB9D4F82431F2
:10D51000002BF8D002E01046BDE8F8830023C4F8E1
:10D520004C31D4F85C311BB9D4F82431002BF8D03D
:10D530000023C4F85C310122B8F1000F02D1D4F805
:10D54000243143B16261D4F80431002BFBD00023B5
:10D55000C4F8043107E0E261D4F84831002BFBD075
:10D560000023C4F84831D4F8243113B10023C4F89F
:10D570002431D4F83C053066C0B2BDE8F8830123FD
:10D58000FFF7ABBF10B5044680F8B010683003F069
:10D5900091FE0123637710BD2DE9F0410023056959
:10D5A0004377012790F8B030C5F8883500F1680658
:10D5B00004462F623046C5F84465884603F08CFE69
:10D5C0002369C5F848059F60D3F850211AB9D3F8EC
:10D5D0002421002AF8D00022C3F85021304603F05D
:10D5E0007BFE236930B1D3F860211AB9D3F8242126
:10D5F000002AF8D00022C3F860210122B8F1000F00
:10D6000002D1D3F8241141B15A61D3F80421002A80
:10D61000FBD00022C3F8042107E0DA61D3F84821E7
:10D62000002AFBD00022C3F84821D3F8240170B1AE
:10D630000022C3F82421D3F8C404C3F8C404022888
:10D6400005D0042814BF04200320BDE8F081BDE804
:10D65000F0810121FFF7A0BF4369D3F8642170B5C1
:10D66000044682B10022012500F12006C3F864219E
:10D670000577304603F01EFE63694022C3F8346527
:10D68000C3F838251D636369D3F86821D2B100253A
:10D69000C3F8685104F168060123637725773046A3
:10D6A00003F008FED4F8B43003B198476577656994
:10D6B0003046C5F8446503F00FFE6369C5F84805B8
:10D6C00001225A636369D3F804215AB10022C3F8D6
:10D6D0000421227F32B1D3F83C05D4F8B83020665B
:10D6E00003B198476369D3F8242142B10022C3F8FB
:10D6F0002421D3F8D024C3F8D02401225A6170BD6C
:10D700000148FFF7A9BF00BFC02500200148FFF76F
:10D71000A3BF00BF0425002007B5132314228DE802
:10D720000C004FF04022114604230848FFF740FE4A
:10D73000074A08481E211F238DE80A0003231146CB
:10D74000FFF736FE03B05DF804FB00BFC0250020E4
:10D75000003000400425002001608280704700688E
:10D7600070478088704729DF704728DF704703685B
:10D770001868013018BF0120704708B54FF080537A
:10D780001A690368B3FBF2F31846FFF7EEFF11289E
:10D79000FAD008BD38B504460D461946FFF7EDFF2F
:10D7A0008B081A4629462068FFF7DDFF1128F8D0BC
:10D7B00038BD10B502680846043A441AA34204D999
:10D7C00052F8044F40F8044BF7E710BD0B68436074
:10D7D0008B8803817047002343600381704708B53D
:10D7E0000160FFF7F8FF08BD807A7047C068704796
:10D7F000007C704700207047C368585C704770B564
:10D800000D46114602680446D6691A46B047012300
:10D81000A374A36923B121462846BDE87040184788
:10D8200070BD70B5044608460D4605F009FC236836
:10D83000C2B229462046DB69BDE8704018470000A7
:10D84000044B10B504460360C06808B104F080FEC4
:10D85000204610BDE44B020010B50446FFF7F0FF70
:10D86000204603F06FFF204610BD10B5837A9A4220
:10D87000044628BF1A460274C06804F071FE60694D
:10D8800028B1036821461B68BDE8104018470120F5
:10D8900010BD000070B504461D461646043042F621
:10D8A000030200F095F8142D4FF0000228460A4BB1
:10D8B000236028BF1420A072E26022746674A274F0
:10D8C000E2746261A261E261226215B104F038FE85
:10D8D000E060204670BD00BFE44B0200407C704712
:10D8E000C07C70470346002ADA7414BF072208225E
:10D8F000084653F822200AB11946104770470B29F1
:10D900009CBF063140F82120704741617047704745
:10D9100000697047007D70470369585C704710B517
:10D92000044603F00FFF204610BD000038B5044642
:10D93000154604304FF4245200F04AF8044B23609B
:10D940002561284605F07CFB2075204638BD00BFC8
:10D95000144C020070477047704700207047002049
:10D9600070470020704770477047002070470020C4
:10D97000704700207047002070470020704700204B
:10D98000704700207047002070470020704700203B
:10D9900070470020704700207047704770477047FD
:10D9A0007047704710B5044603F0CCFE204610BD0A
:10D9B000054A02606422828001210022C280028125
:10D9C0008172C26002617047304C02000161704791
:10D9D00010B50446FFF7C0FE024A137801331370F6
:10D9E000204610BD7C260020014B1878704700BFF0
:10D9F0007C260020C06803689B6A1847A0F10400D9
:10DA0000FFF7F8BFC0680368DB6A1847A0F104009D
:10DA1000FFF7F8BFC06803681B6B1847A0F104004C
:10DA2000FFF7F8BFC06803685B6B1847A0F10400FC
:10DA3000FFF7F8BFC06803689B6B1847A0F10800A8
:10DA4000FFF7F8BFC0680368DB6B1847A0F1080058
:10DA5000FFF7F8BFC06803681B6C1847A0F1080007
:10DA6000FFF7F8BFC06810B40468646CA4465DF8A2
:10DA7000044B6047A0F10800FFF7F4BFC0680368DB
:10DA80009B6C1847A0F10800FFF7F8BFC068036857
:10DA9000DB6C1847A0F10800FFF7F8BFC068036807
:10DAA0001B6D1847A0F10800FFF7F8BFC0680368B6
:10DAB0005B6D1847A0F10800FFF7F8BFD0F8B03150
:10DAC00013B100F5CE7018477047D0F8B43113B1D8
:10DAD00000F5CE701847704730B414461A462368D4
:10DAE0005D6A9DF8083000F5CE71AC46204630BC2A
:10DAF00060477047704770B5054600F5CE74114613
:10DB00002046FFF763FED5F8A8311BB12046BDE8DB
:10DB10007040184770BDD0F8AC3110B500F5CE7428
:10DB20000BB1204698472046BDE81040FFF753BE92
:10DB300010B4144600F5CE711A4620465DF8044B29
:10DB4000FFF7D0BE10B4144600F5CE711A46204639
:10DB50009DF804305DF8044B00F046BAC0680368D5
:10DB6000DB681847C06803681B691847C0F8C8100D
:10DB70007047C0F8D810704738B5D0F8E430044684
:10DB80000D463BB900F00CFA00B2800004F0D8FC5E
:10DB9000C4F8E40094F8E820D4F8E43043F82250C4
:10DBA00094F8E830013384F8E83038BD0F299CBF81
:10DBB0006A3140F82120704710B50446FFF714FF82
:10DBC00000B2800004F0BCFC04F1EC03036004F13B
:10DBD000F803436004F58E73836004F59E73C3609D
:10DBE00004F5A4730361052384F8E030C4F8DC0075
:10DBF00010BD2DE9F043D0F8CC10ADB000230446A1
:10DC00008DF83030E1B106A800F014FA06A800F053
:10DC100043FA022805468CBF152314238DF85000C3
:10DC200006A88DF8513000F035FA2A460146C5F1B4
:10DC30001D050DF1520004F093FCEDB2012601E048
:10DC40001F250E46D4F8C81031B306A800F0F2F92B
:10DC500006A800F021FA431CAB4207461CDAC6EBCB
:10DC600046182CAB434402288CBF0622022203F83C
:10DC7000600C03F85F2C06A800F00CFA2CAB98445B
:10DC800001463A46A8F15E00023D04F069FC013607
:10DC9000ED1BF6B205F0FF05D4F8D010C9B194F829
:10DCA000D420B2B1022D14D9531CAB42C6EB46109E
:10DCB0002CAB0344A4BF023DEAB2FF2503F8602C5D
:10DCC00003F85F5C2CAB18445E3804F049FC013665
:10DCD000F6B2D4F8D850BDB1284605F0B1F9C0B2BB
:10DCE0001D288ABF1D238DF830008DF830309DF837
:10DCF000302090428CBF092008208DF83100294641
:10DD00000DF1320004F02CFCD4F8DC3013B92046BD
:10DD1000FFF752FF002742F6030804F1040994F8C4
:10DD2000E0309F4205DB002742F6030804F10809B2
:10DD30001BE0D4F8DC3053F827502846FFF711FDDC
:10DD4000404506D10DB1281F00E028464946FFF79F
:10DD5000DCFD0137E3E7D4F8E43053F827502846D8
:10DD6000FFF7FFFC404505D0013794F8E8309F42AB
:10DD7000F1DB07E00DB1281F00E02846494600F01E
:10DD800047F9F1E74BB104F5B4712046FFF7F4FE13
:10DD900004F5BA712046FFF7EFFEE06894F8E8104A
:10DDA00002680491D4F8E410039194F8E010029111
:10DDB0009DF83030D4F8DC1001910CA900330091AB
:10DDC00018BF01239568314614AAA847E068036884
:10DDD0009B6D98472DB0BDE8F08338B5D0F8DC30A6
:10DDE00004460D460BB9FFF7E7FE94F8E020D4F89F
:10DDF000DC3043F8225094F8E030013384F8E0300E
:10DE000038BDFFF7EABF0000154B10B503F16802FB
:10DE100003600446803342608360FFF7A3FED4F8BA
:10DE2000E40008B104F094FBD4F8DC0008B104F07D
:10DE30008FFB04F5B87000F0B9F804F5A270FFF795
:10DE4000FFFC04F58C70FFF7FBFC04F1F400FFF716
:10DE5000F7FC04F1100000F019FE204610BD00BFD1
:10DE6000C44C020010B50446FFF7CEFF204603F075
:10DE700069FC204610BD07B502AB022223F8021D43
:10DE800000F58C701946FFF7F0FC03B05DF804FB59
:10DE90002DE9F843354BDFF8E890DFF8E88003F12F
:10DEA00008020446026000F1100703F17002883393
:10DEB000002542608360384601F008FB04F1F40657
:10DEC000C4F8C850C4F8CC50C4F8D05084F8D4502A
:10DED000C4F8D850C4F8DC5084F8E050C4F8E450DA
:10DEE00084F8E850224904F1EC0000F09BF8132379
:10DEF000022220493046FFF7CDFC02231A461E4974
:10DF000004F58C70FFF7C6FC494604F59E7000F0DE
:10DF100089F804232022414604F5A270FFF7BAFCD9
:10DF2000494604F5B47000F075F82022414604F526
:10DF3000B87000F043F8214604F5CE70FFF74FFCAF
:10DF400010222946E76004F5D47004F02FFB0B493A
:10DF50003046FFF766FC29462046FFF78CFFE06855
:10DF60002146FFF733FD2046BDE8F883BC4C020094
:10DF7000984C02009D4C0200A24C0200B14C0200E1
:10DF8000A74C0200AC4C020010B50446FFF7E4FBBE
:10DF9000024A137801331370204610BD7D260020FD
:10DFA000014B1878704700BF7D260020704710B5E0
:10DFB000044603F0C7FB204610BD000038B50446F8
:10DFC0001546043042F60302FFF7DEFF054B2360DF
:10DFD0000023A572E372A36284F8223063622046B4
:10DFE00038BD00BF6C4D020070B50446C3720D46CB
:10DFF0000C3011461A4604F0B3FA012384F822309B
:10E00000A36A23B121462846BDE87040184770BD79
:10E010004162704710B54FF420520446FFF7B4FF39
:10E02000204610BD10B54FF420520446FFF7D0FC37
:10E03000204610BDF7B5044600232160037508464D
:10E040000E468DF804308DF805308DF8063004F05A
:10E05000F7FF451E002D1ADB277D0F2F17D8735DA4
:10E060002D2B01D1013510E07219002112F8012C7D
:10E070008DF8042001A810228DF8053005F066F80F
:10E0800027443871237D01332375023DE2E72046A2
:10E0900003B0F0BD04307047007D70476DDF7047FE
:10E0A00072DF704773DF704775DF704776DF704748
:10E0B00077DF704778DF70477ADF70477CDF704723
:10E0C0007EDF70477FDF704786DF7047A8DF7047CD
:10E0D000AADF7047ABDF7047ACDF7047AEDF704739
:10E0E000B1DF7047B5DF70479BDF70479DDF70473A
:10E0F000A1DF7047A3DF7047A4DF70474CDF704794
:10E1000060DF704769DF704761DF704762DF70472B
:10E1100010DF704711DF704790F89C00003018BF87
:10E120000120704770B590F8AD600023B34215DA56
:10E130001A01D0F8B050AC18AA588A420CD1E38921
:10E1400073B1227B02F0020202F0FF0342B190F8A9
:10E15000B40080F0010070BD0133E7E7002070BD1E
:10E16000184670BD70B590F8AD600023B3421CDA5C
:10E170001A01D0F8B050AC18AA588A4213D1E189DC
:10E18000A9B1227B02F0020202F0FF038AB101234F
:10E1900080F8B4300022B0F87800FFF7A9FFB0FA99
:10E1A00080F0400970BD0133E0E7002070BD0846F3
:10E1B00070BD184670BD70B590F8AD600023B342D5
:10E1C0001DDA1A01D0F8B050AC18AA588A4214D1FE
:10E1D000E389B3B1227B130704D590F8B40080F033
:10E1E000010070BD02F0040202F0FF034AB190F892
:10E1F0009C00003018BF012070BD0133DFE7002014
:10E2000070BD184670BDF0B590F8ADE085B0002443
:10E21000744531DA2501D0F8B0707E197D598D42F0
:10E2200028D1F48954B3357B15F00C0128D090F82F
:10E230009C1029B315F0080F14BF01250225ADF875
:10E240000A300139012380F89C108DF8045080F8C1
:10E25000B430002501A9B0F878008DF80550ADF86C
:10E260000640ADF808500392FFF744FFB0FA80F083
:10E27000400906E00134CBE7002002E0204600E040
:10E28000084605B0F0BD70B590F8AD600023B3420C
:10E2900011DA1A01D0F8B050AC18AA588A4208D145
:10E2A000E08948B1237B13F0300F14BF0120002018
:10E2B00070BD0133EBE7002070BD7FB590F8AD6015
:10E2C0000023B34230DA1A01D0F8B050AC18AA5883
:10E2D0008A4227D1E2894AB3217B11F0300327D04B
:10E2E000012311F0100F14BF194602211A44ADF892
:10E2F0000210ADF80620002102228DF80510ADF8BD
:10E300000810ADF80A2080F8B4306A4401A9B0F8CA
:10E3100078008DF804300392FFF7ECFEB0FA80F03D
:10E32000400906E00133CCE7002002E0104600E09F
:10E33000184604B070BD03689B6C18477FB590F811
:10E34000AD600023B3422CDA1A01D0F8B050AC18FB
:10E35000AA588A4223D1E2892AB3237B13F03003DF
:10E360004FF0000121D001231A44ADF8062002220B
:10E37000ADF802108DF80510ADF80810ADF80A20C0
:10E3800080F8B4306A4401A9B0F878008DF8043000
:10E390000392FFF7AFFEB0FA80F0400906E00133C8
:10E3A000D0E7002002E0104600E0184604B070BD3F
:10E3B00010B5036890F9B5109B690446984794F826
:10E3C00052000121BDE81040FFF76CBE1321B0F8E8
:10E3D0007800FFF76BBE07B501466846FFF75EFEA3
:10E3E000086920B103680DF10102DB69984703B0A9
:10E3F0005DF804FB13B5044602A8002340F8043D71
:10E40000FFF77CFE019803F011FB084B002203F09C
:10E4100073FB03F033FE236933B11A6800EE100A70
:10E42000126A21461846904702B010BD0000D03F46
:10E43000704700002DE9F043054690F89D008FB02D
:10E440000C4600231426834269DA06FB03F2D5F852
:10E45000A0108F188A58A24207D12046FFF73EFA33
:10E46000C1075CD57B6813B959E00133EBE795F838
:10E4700070600DF11808324605F11401404604F0B1
:10E480006FF8236820461B69984704300644F6B2AB
:10E490001F2E44D87868FFF762F901466846FFF7F7
:10E4A000C9FD236895F870701B69204698470EAB2C
:10E4B0001F44033007F8200C95F870703B44162277
:10E4C000684603F81F2CFFF7E5FD0237038828F89C
:10E4D0000730236895F87070DB68204698472368FA
:10E4E00081461B69204698470437474402464946FF
:10E4F000384604F035F80C4B1A68D20705D40B4A9D
:10E50000C2F80080968001221A6005F15402074982
:10E5100005F15200FFF7C4FD6C67012000E0002008
:10E520000FB0BDE8F08300BF9026002098260020A1
:10E530002DE9F047D0B04FF4867304460DF10A017F
:10E540000DA8ADF80A30FFF7DFFD0346002840F0C4
:10E550007E82BDF83420322A00F0A98116D8142A10
:10E5600000F0F18008D8112A6FD0132A00F0C18082
:10E57000102A40F06C8234E0262A00F00681302A0E
:10E5800000F05181192A40F06282EAE03C2A23D04F
:10E5900009D8382A00F00982392A00F02C82362A5C
:10E5A00040F05582E0E1522A00F0368108D8502A26
:10E5B00040F04D82BDF83A8006464FF01409F8E06D
:10E5C000552A03D0572A00F0E08040E21721BDF819
:10E5D0003800FFF787FD3AE294F89C209DF83E3022
:10E5E000D7E0BDF83830A4F87830012384F89C30A7
:10E5F000236894F9B510DB6920469847206928B153
:10E6000003680DF13D021B6821469847E288052A00
:10E6100013D92389B3F5486F0FD8ADF8163000230E
:10E62000ADF8183005A94FF4C873B4F87800ADF808
:10E630001420ADF81A30FFF737FD94F8A430002B02
:10E6400000F00582002201211BE14FF6FF72A4F8C1
:10E65000782084F89C0005464FF01409804694F811
:10E660009D309D4217DAD4F8A07009FB05F6BB195E
:10E67000B85983F8108083F81180FFF731F940B161
:10E68000206930B10368BA59D3F814A02146002399
:10E69000D0470135E3E7206918B1036821465B687C
:10E6A000984700230C20194694F8A420934202DBDB
:10E6B0000023184606E0D4F8A82000FB032201330B
:10E6C0009160F1E794F8AD2093420ADAD4F8B010E3
:10E6D0001A01114401330873D4F8B0100A44D081F0
:10E6E000F0E7002384F8B430236820461B6A98477B
:10E6F000ADE1E068002800F0A381FFF738F801469B
:10E70000002840F09D81030E43F001038DF80F3087
:10E71000C3B2032243F0010362F306138DF80C30F9
:10E7200007238DF80D3010238DF80E30D4F8983073
:10E7300005938DF8100009900A900B9006900790B1
:10E7400005AB03AA7FE1D4F89810BDF84420488AAD
:10E75000904218BF1946B4F878001A46FFF7B4FC87
:10E7600075E19DF83C30002B40F07181E06828B1E4
:10E770001C23002204F17C01FFF70CF8206900281B
:10E7800000F0658103689B68EBE094F89C209DF89D
:10E790003A30134484F89C3059E1D4F8A01009FBB6
:10E7A00006F3CF183A89424508D0BA89424512D0BB
:10E7B000013694F89D309E42EFDB48E12069002845
:10E7C00000F0458103689DF8442000921D693A6875
:10E7D0000DF146032FE19DF847009DF8462042EADF
:10E7E000002295B202F001023A74C5F340027A7435
:10E7F00015F00305C85818BF0125FFF771F8A842A6
:10E80000D6D02069002800F0228103683A685E694A
:10E8100021462B46B0471AE102460146B4F878007B
:10E82000FFF75EFC13E1BDF83A207ABBBDF83E501D
:10E830000DA913460C26AB421CDA94F8A4700020F4
:10E84000B84214DAD4F8A82091F80EC006FB0022D2
:10E8500092F806E0F44508D1B1F80CC0B2F804E033
:10E86000F44502D10869906001E00130E8E7013326
:10E870000831E0E70DAB03EBC505002269890131E2
:10E8800089B2B4F87800FFF72FFCE0E094F8A420F8
:10E890000C20934280F2DB80D4F8A81000FB031117
:10E8A0000D8915B14D89002D4FD10133F1E7BDF828
:10E8B0003A2094F8AC30002A39D1D4F8A86003EBA0
:10E8C000430306EB83030A259B6805930DAB5A8926
:10E8D00005FB02359D4224D0002194F8AD209142E1
:10E8E0001ADAD4F8B02094F8AC0002EB011200EB75
:10E8F000400056F82070506887420BD19F7B907A79
:10E90000874207D110899F89874201BF187C107305
:10E91000988AD0810131E0E79A8AADF814200A3351
:10E92000D8E705A9B4F87800FFF7E0FB8FE00133E2
:10E930000C2294F8A4005A4383420DDAD4F8A810AC
:10E9400011440D892DB14D891DB184F8AC300831C9
:10E95000E8E701330C32EFE72069002877D003683D
:10E96000DB682146984772E0BDF83A2084F8B4008D
:10E9700040F205139A4208D1E36833B100238DF8C1
:10E98000183001238DF8173024E0BDF83E1094F8BC
:10E99000AD00002383425ADAD4F8B02002EB031210
:10E9A000D5898D423ED00133F4E7BDF83A1084F8A2
:10E9B000B40040F20512914249D1E268002A46D0E3
:10E9C000020E42F00102C3B28DF818008DF8172034
:10E9D00043F00103032262F306138DF8143007237A
:10E9E0008DF8153005A91023B4F878008DF816308D
:10E9F000FFF766FB2BE09DF84030BDF83E50022B40
:10EA000004D12946B4F87800FFF776FB94F8AD10EE
:10EA100000238B421BDAD4F8B02002EB0312D0891A
:10EA2000A8420BD1206990B19DF842100368009173
:10EA300012689D6911AB2146A84708E00133E8E759
:10EA400000231A468521B4F87800FFF73BFB50B04D
:10EA5000BDE8F08710B50446FFF75CFBD4F8B000C2
:10EA600008B103F075FDD4F8A80008B103F070FDFB
:10EA7000D4F8A00008B103F06BFD002384F89D30AA
:10EA800084F8A43084F8AD3010BD000010B5054BFB
:10EA900003600446FFF7DEFF2046FEF782FF2046B4
:10EAA00010BD00BF344E020010B50446FFF7EEFF64
:10EAB000204602F047FE204610BD000000B58DB094
:10EAC0000B4600920A49024602A804F083FA09495B
:10EAD000094802F097FBBFF34F8F0849084BCA68FB
:10EAE00002F4E0621343CB60BFF34F8F00BFFDE73A
:10EAF000744D0200804D0200E426002000ED00E08D
:10EB00000400FA0507B51288ADF80020ADF8021030
:10EB10006A4601464FF6FF700193FFF7DDFA03B036
:10EB20005DF804FB2DE9F04FE3B01F469DF8C031BE
:10EB3000019302238DF8203004460023894608A85B
:10EB4000BA498DF821308DF822308DF823301646E1
:10EB50006C9D9DF8B881FFF7DBFA0A210D93B44A4A
:10EB60008DF8341001200DA90E930F930992FFF731
:10EB7000C9FA4FF0010A099A0D930DA940200E938E
:10EB80000F938DF835A0FFF7BDFA4FF4FA620D929E
:10EB90000DA9099A0E93A1200F93FFF7B3FA06224D
:10EBA0000E930DA9ADF838202020099A0D930F93EC
:10EBB0008DF834A08DF836A0FFF7A4FA17220D9334
:10EBC0000DA9ADF836202320099A0E930F938DF8E6
:10EBD00034A0FFF797FA099A0D930DA9A0200E9380
:10EBE0000F93FFF78FFA09A8DDF824A0FFF788FA42
:10EBF000099B9A4526D28F498F4802F003FB8F4923
:10EC00008D4802F0F3FA102251468B4802F025FBA2
:10EC10008B49894802F0EAFA10220999864802F0E5
:10EC200029FB8849844802F0E1FA4FF080530999A2
:10EC3000D3F80C31804803F500231022C1EB832167
:10EC400002F018FB2823ADF82C3050234FF0000BB6
:10EC5000ADF82E300BA84FF4C873CDF830B004F1E6
:10EC6000540AADF83230FFF727FAFF2384F8523008
:10EC700018225946504603F099FCA37AC4F858B0BC
:10EC80005B450CBF0423012384F85430A38884F827
:10EC900068B00A221B0193FBF2F394F86B20E36542
:10ECA00001236BF3041284F8693084F86A306375C9
:10ECB000062384F86B20A37502220323A4F860B016
:10ECC00084F871B0227584F87030B9F1000F23D048
:10ECD00016B31644CB451FDA94F8700016F8023CC0
:10ECE000221801331375023016F8013C5375C0B277
:10ECF00084F87000204416F8022C3146143003F0DA
:10ED00002FFC16F8023C94F87020134484F87030FD
:10ED10000BF1010B1F36DDE72FB325B302350026BB
:10ED2000BE4220DA94F8710015F8023C2218013333
:10ED300082F83330023015F8013C82F83430C0B22A
:10ED400084F87100204415F8022C2946333003F072
:10ED500007FC15F8023C94F87120134484F87130D4
:10ED600001361F35DCE7384A136813F0010F374BC3
:10ED70000DD104F11401196094F87010998004F118
:10ED80003301996094F87110998101211160E36653
:10ED900052462E4904F15200FFF782F90020FFF796
:10EDA00089F9002542F6030645450DDA6D9B53F8B7
:10EDB0002500FEF7D6FCB04202BF94F89D30013327
:10EDC00084F89D300135EFE794F89D000338C0B218
:10EDD00084F89D0000EB8000800003F0B1FB00266A
:10EDE000C4F8A000ADF814600296B146464580F222
:10EDF000D9816D9B53F826502846FEF7B0FC01469A
:10EE000015A8FFF717F915A8FFF744F9074615A845
:10EE1000FFF742F902281BD17A783B7843EA0223B4
:10EE2000ADF8283001238DF82A302EE0BDEA01002C
:10EE3000702000209A4D0200E4260020C84D0200F8
:10EE4000EE4D0200F54D02009426002080260020A1
:10EE50003B460DF1880E07F1100C18685968724690
:10EE600003C2083363459646F7D17A7B3B7B43EA7E
:10EE70000223ADF828300DF12A01002322A88DF8D5
:10EE800095308DF89430FFF741F92846FEF769FC7C
:10EE9000B0F5205F284611D1FEF761FCB84904F0B7
:10EEA000BDF8002800F06A812846FEF758FCB549F5
:10EEB00004F0B4F8002800F0618136E2FEF751FC5E
:10EEC00042F60303984240F02C8105B1043D2F1D0A
:10EED0003846FEF744FCAC4904F0A0F8B8B99DF8F8
:10EEE0008830012262F3030362F307138DF8883040
:10EEF0002B682846DB6898472B6807461B6928461D
:10EF00009847394682B222A8FFF7D8F836E138464A
:10EF1000FEF725FC9D4904F081F838B92B68284696
:10EF2000DB6898470088FFF7C5F827E13846FEF709
:10EF300016FC974904F072F8002800F01F8128465B
:10EF4000FEF7CCFC2B6882461B6928469847D4F80C
:10EF5000A020ADF8160009EB89014FEA810B02EB06
:10EF60000B0342F821500027029A5A601F745F7405
:10EF70001C2239461BA803F019FB2AF001031AF0E2
:10EF8000300F8DF86C3010D00123194663F3071150
:10EF90008DF81810194606AA63F3071163F34207A8
:10EFA0008DF819108DF81A70209200231AF0320F84
:10EFB000ADF81C308DF81E300BD09DF81C30E16888
:10EFC000012262F3030301B1022262F307138DF8F9
:10EFD0001C301AF00C0F10D0E36801222BB19DF801
:10EFE0001D3062F30303022203E09DF81D3062F33B
:10EFF000030362F307138DF81D309DF81E300122C4
:10F0000062F342038DF81E302B6828469B699847AF
:10F010009DF81E3080F0010060F300038DF81E3073
:10F02000771C47453CDA6D9B53F827A05046FEF706
:10F0300098FBB0F5245F33D1BAF1000F01D0AAF1EB
:10F04000040A0AF1040318460393FEF788FB5149AA
:10F0500003F0E4FF039BA0B9DAF8003050469B6848
:10F0600098471C90DAF800305046DB689847DAF889
:10F070000030ADF87400DB6850469847ADF8760074
:10F080000CE01846FEF76BFB434903F0C7FF28B9B5
:10F09000DAF8003050469B6898471E900137C0E769
:10F0A0001422002110A803F081FA0DF1160A0AAB10
:10F0B000109307AB1193BAF80030ADF848302B68C5
:10F0C00028469B689847D4F8A030ADF84C0000273C
:10F0D0005B44083310AA1BA938461497FEF7F8FFC3
:10F0E000BAF80030C3B122ABBAF8002003939742BC
:10F0F00008DA2A683946526928469047039BD85552
:10F100000137F1E7D4F8A0309B44524622AB0021EE
:10F11000BBF80800FFF7F6FC09F101095FFA89F96D
:10F120002CE02846FEF71DFBB0F5245F26D105B183
:10F13000043D2F1D3846FEF712FB164903F06EFF03
:10F14000E0B13846FEF70BFB144903F067FFA8B1A6
:10F150003846FEF704FB124903F060FF70B13846F1
:10F16000FEF7FDFA0C4903F059FF38B1E4E022AB99
:10F1700052460021BDF81400FFF7C4FC013635E605
:10F18000984C0200A74C02009D4C0200A24C0200C9
:10F19000AC4C0200C44A02001C4E0200214E020088
:10F1A000264E0200019B23B3A3F102085FFA88F602
:10F1B000002542F60307B542B0461CDA6F9B53F8B0
:10F1C00025804046FEF7CDFAB0F5205F05D194F8D2
:10F1D000A430013384F8A43009E04046FEF7C1FAB8
:10F1E000B84202BF94F8AD30013384F8AD30013538
:10F1F000E1E7DDF8048094F8A40000EB4000800013
:10F2000003F09EF9C4F8A80094F8AD00000103F0E3
:10F2100097F9DDF8BC91C4F8B000002609EB880826
:10F220003746B246C14573D059F8045B2846FEF70D
:10F2300096FA014622A8FEF7FDFE22A8FEF72AFF55
:10F24000834622A8FEF728FF02280BD19BF8012055
:10F250009BF8003043EA0223ADF8543001238DF8C7
:10F2600056301EE05B460DF16C0E0BF1100C186869
:10F270005968724603C2083363459646F7D19BF836
:10F280000D209BF80C3043EA0223ADF854300DF109
:10F29000560100231BA88DF879308DF87830FEF7E1
:10F2A00035FF2846FEF75DFAB0F5205F12D1D4F89D
:10F2B000A82007EB47018B00D01842F82150159A7F
:10F2C0004260D4F8A8201344013700229A60FFB2AC
:10F2D000AA46A7E72846FEF744FA42F603039842F7
:10F2E000A0D1D4F8B0103301CA1805B1043DCD50F7
:10F2F000C2F804A015999160D4F8B0201A440021F6
:10F300001173D4F8B02013440136D981F6B289E7DD
:10F31000E06818B1FEF72BFA002865D12368204673
:10F320001B6A984763B0BDE8F08F05AA0AA90120BF
:10F33000FEF7CCFE029521E72B682846DB6898474C
:10F3400010AF14220021ADF81C001BA803F02EF909
:10F350004FF0010A00233B806AF34203BB702B6825
:10F360002846DB689847BDF81C10BB78E26880B27D
:10F37000401A18BF012060F30003BB703B782AB12C
:10F380006AF30303022262F3071303E06AF3030341
:10F390006AF307133B700AAB1C971B932B68ADF8FD
:10F3A0007410DB682846984700270DF11C0AADF859
:10F3B000780005AA1BA938461F97FEF78BFEBAF8FE
:10F3C0000030002B3FF4DAAE0DF1880BBAF80030B4
:10F3D0009F42BFF6CCAE2B6839461B69284698473A
:10F3E0000BF807000137F1E71C23002204F17C0130
:10F3F000E068FEF7DEF991E72DE9F04F87B00446AB
:10F400000D46002601274FF014090DF1060894F867
:10F410009D309E4255DA09FB06F3D4F8A02002EB9A
:10F42000030AD358AB424AD1636F9D4204D123688B
:10F430002946DB6A204698472B6828461B6998476F
:10F440002B68ADF80600DB68BAF808B02846984784
:10F450004246034600215846FFF754FB1022002184
:10F4600002A803F0A3F8BAF80830ADF808309AF80B
:10F470001030CDF810807BB194F89C305BB1013B2B
:10F4800084F89C3002A90123B4F878008DF80A3082
:10F49000FEF724FE00E01F469AF811307BB194F885
:10F4A0009C305BB1013B84F89C3002A90223B4F884
:10F4B00078008DF80A30FEF711FE00E01F46013695
:10F4C000A5E7384607B0BDE8F08F000010B5044648
:10F4D000FEF76EFA134B23604FF6FF730021A4F87A
:10F4E000783004F17C00042384F87010616784F89C
:10F4F0009C1084F89D10C4F8A01084F8A410C4F8DF
:10F50000A81084F8AC1084F8AD10C4F8B01084F8DA
:10F51000B41084F8B530C4F898001C2203F046F803
:10F52000204610BD344E0200054A00239956814200
:10F5300004D001330E2BF9D1002070470120704711
:10F540009C4E020038B5054608460C46FFF7ECFF16
:10F5500008B185F8B54038BD38B5054608460C46B3
:10F56000FFF7E2FF40B1224695F852100120FEF766
:10F570009FFDB0FA80F0400938BD38B50546084611
:10F580000C46FFF7D1FF40B12246B5F878100320B2
:10F59000FEF78EFDB0FA80F0400938BDF8B506469A
:10F5A0000C468F180025BC4207D0336814F8011BA5
:10F5B0001B68304698470544F5E72846F8BD90F8A3
:10F5C000312090F83000101A704790F8303090F8E1
:10F5D00031109942024681BFC1180133087C82F87C
:10F5E000303098BF4FF0FF30704790F8303090F8CF
:10F5F00031209A4286BF1B18187C4FF0FF307047AD
:10F60000704710B50446343000F0A4F938B994F8C6
:10F6100033302BB9032284F83320184610BD012063
:10F6200010BD000038B50446002060604FF47A70C9
:10F63000A0602046034D40F8345B00F0A6F8204659
:10F6400038BD00BFB44E020038B590F832504900C2
:10F65000044601F0FE01343045B100F0B1FA002853
:10F6600014BF0023022384F8333006E000F05CFA74
:10F67000002808BF022584F83350012384F8323073
:10F6800038BDC9B2FFF7E0BF38B5044690F8335033
:10F6900029B1343000F098F8002384F83230002388
:10F6A00084F83330284638BD38B5044690F83350D6
:10F6B000343000F089F8002384F8323084F8333095
:10F6C000284638BD2DE9F8439DF8205004460F46E2
:10F6D00016469846A5B1FFF7B7FF032D28BF0325AF
:10F6E000013DEDB2FF2D08D0E900236828FA01F1B1
:10F6F0001B68C9B220469847F2E7002384F83330EC
:10F70000790004F1340841F00101202EC9B24046CD
:10F71000354628BF202500F053FA94F833301BB942
:10F7200010B9022384F8333004F10F07002605F1E5
:10F73000FF39F3B29D420AD9C6EB09035942594138
:10F74000404600F089FA013607F8010FF1E79DF80D
:10F75000242084F83150002384F8303022B184F81A
:10F760003230404600F030F82846BDE8F88307B54F
:10F77000019300230093FFF7A5FF03B05DF804FB9E
:10F780000123D2B2C9B2FFF7F2BF10B54170827047
:10F79000C37010BD10B50C4672B6C3781BB1002102
:10F7A000204601F0C7FC0121204601F099FC62B619
:10F7B00010BD08B50346084672B6D97801B10221DA
:10F7C00001F08EFC62B608BD38B5042541780446C8
:10F7D000FFF7E0FF2846013800BF00BF00BF00BFB1
:10F7E00000BF00BF00BF00BF00BF00BF00BF00BF21
:10F7F00000BF00BF00BF00BF00BF00BF00BF00BF11
:10F8000000BF00BF00BF00BF00BF00BF00BF00BF00
:10F8100000BF00BF00BF00BF00BF00BF00BF00BFF0
:10F8200000BF00BF00BF00BF00BF00BF00BF00BFE0
:10F8300000BF00BF00BF00BF00BF00BF00BF00BFD0
:10F8400000BF00BF00BF00BF00BF00BFC3D1204644
:10F85000A178FFF7AEFF2846013800BF00BF00BF08
:10F8600000BF00BF00BF00BF00BF00BF00BF00BFA0
:10F8700000BF00BF00BF00BF00BF00BF00BF00BF90
:10F8800000BF00BF00BF00BF00BF00BF00BF00BF80
:10F8900000BF00BF00BF00BF00BF00BF00BF00BF70
:10F8A00000BF00BF00BF00BF00BF00BF00BF00BF60
:10F8B00000BF00BF00BF00BF00BF00BF00BF00BF50
:10F8C00000BF00BF00BF00BF00BF00BF00BFC3D16B
:10F8D00020466178FFF76DFF2846013800BF00BF62
:10F8E00000BF00BF00BF00BF00BF00BF00BF00BF20
:10F8F00000BF00BF00BF00BF00BF00BF00BF00BF10
:10F9000000BF00BF00BF00BF00BF00BF00BF00BFFF
:10F9100000BF00BF00BF00BF00BF00BF00BF00BFEF
:10F9200000BF00BF00BF00BF00BF00BF00BF00BFDF
:10F9300000BF00BF00BF00BF00BF00BF00BF00BFCF
:10F9400000BF00BF00BF00BF00BF00BF00BF00BFBF
:10F95000C3D138BDF8B504460F4608258026374286
:10F960002046617802D0FFF724FF01E0FFF712FF85
:10F970002046A178FFF71DFF0420013800BF00BF1B
:10F9800000BF00BF00BF00BF00BF00BF00BF00BF7F
:10F9900000BF00BF00BF00BF00BF00BF00BF00BF6F
:10F9A00000BF00BF00BF00BF00BF00BF00BF00BF5F
:10F9B00000BF00BF00BF00BF00BF00BF00BF00BF4F
:10F9C00000BF00BF00BF00BF00BF00BF00BF00BF3F
:10F9D00000BF00BF00BF00BF00BF00BF00BF00BF2F
:10F9E00000BF00BF00BF00BF00BF00BF00BF00BF1F
:10F9F000C3D1A1782046FFF7CDFE013D4FEA560660
:10FA0000ADD161782046FFF7D4FE2046A178FFF7FC
:10FA1000D0FE0220013800BF00BF00BF00BF00BF02
:10FA200000BF00BF00BF00BF00BF00BF00BF00BFDE
:10FA300000BF00BF00BF00BF00BF00BF00BF00BFCE
:10FA400000BF00BF00BF00BF00BF00BF00BF00BFBE
:10FA500000BF00BF00BF00BF00BF00BF00BF00BFAE
:10FA600000BF00BF00BF00BF00BF00BF00BF00BF9E
:10FA700000BF00BF00BF00BF00BF00BF00BF00BF8E
:10FA800000BF00BF00BF00BF00BFC3D1607801F05E
:10FA90006DFBA17805462046FFF77CFE0220013869
:10FAA00000BF00BF00BF00BF00BF00BF00BF00BF5E
:10FAB00000BF00BF00BF00BF00BF00BF00BF00BF4E
:10FAC00000BF00BF00BF00BF00BF00BF00BF00BF3E
:10FAD00000BF00BF00BF00BF00BF00BF00BF00BF2E
:10FAE00000BF00BF00BF00BF00BF00BF00BF00BF1E
:10FAF00000BF00BF00BF00BF00BF00BF00BF00BF0E
:10FB000000BF00BF00BF00BF00BF00BF00BF00BFFD
:10FB100000BF00BFC3D120466178FFF73BFEE8B2CB
:10FB2000B0FA80F04009F8BD38B50D46417804467A
:10FB3000FFF730FE0420013800BF00BF00BF00BF48
:10FB400000BF00BF00BF00BF00BF00BF00BF00BFBD
:10FB500000BF00BF00BF00BF00BF00BF00BF00BFAD
:10FB600000BF00BF00BF00BF00BF00BF00BF00BF9D
:10FB700000BF00BF00BF00BF00BF00BF00BF00BF8D
:10FB800000BF00BF00BF00BF00BF00BF00BF00BF7D
:10FB900000BF00BF00BF00BF00BF00BF00BF00BF6D
:10FBA00000BF00BF00BF00BF00BF00BFC3D1A1782E
:10FBB0002046FFF7EFFD29462046FFF7CBFE38BD74
:10FBC00038B504460D464178FFF7F3FD2046A1788D
:10FBD000FFF7EFFD0420013800BF00BF00BF00BFEA
:10FBE00000BF00BF00BF00BF00BF00BF00BF00BF1D
:10FBF00000BF00BF00BF00BF00BF00BF00BF00BF0D
:10FC000000BF00BF00BF00BF00BF00BF00BF00BFFC
:10FC100000BF00BF00BF00BF00BF00BF00BF00BFEC
:10FC200000BF00BF00BF00BF00BF00BF00BF00BFDC
:10FC300000BF00BF00BF00BF00BF00BF00BF00BFCC
:10FC400000BF00BF00BF00BF00BF00BFC3D1294637
:10FC50002046FFF769FF38BDF8B50F4641780446E6
:10FC6000FFF7A7FD082600256D00EDB2042001383E
:10FC700000BF00BF00BF00BF00BF00BF00BF00BF8C
:10FC800000BF00BF00BF00BF00BF00BF00BF00BF7C
:10FC900000BF00BF00BF00BF00BF00BF00BF00BF6C
:10FCA00000BF00BF00BF00BF00BF00BF00BF00BF5C
:10FCB00000BF00BF00BF00BF00BF00BF00BF00BF4C
:10FCC00000BF00BF00BF00BF00BF00BF00BF00BF3C
:10FCD00000BF00BF00BF00BF00BF00BF00BF00BF2C
:10FCE00000BF00BFC3D12046A178FFF762FD607856
:10FCF00001F03CFA08B145F00105A1782046013E2B
:10FD0000FFF748FD16F0FF06AED16178204617B127
:10FD1000FFF74FFD01E0FFF73DFD2046A178FFF71B
:10FD200048FD0220013800BF00BF00BF00BF00BF78
:10FD300000BF00BF00BF00BF00BF00BF00BF00BFCB
:10FD400000BF00BF00BF00BF00BF00BF00BF00BFBB
:10FD500000BF00BF00BF00BF00BF00BF00BF00BFAB
:10FD600000BF00BF00BF00BF00BF00BF00BF00BF9B
:10FD700000BF00BF00BF00BF00BF00BF00BF00BF8B
:10FD800000BF00BF00BF00BF00BF00BF00BF00BF7B
:10FD900000BF00BF00BF00BF00BFC3D12046A17895
:10FDA000FFF7F8FC0220013800BF00BF00BF00BF12
:10FDB00000BF00BF00BF00BF00BF00BF00BF00BF4B
:10FDC00000BF00BF00BF00BF00BF00BF00BF00BF3B
:10FDD00000BF00BF00BF00BF00BF00BF00BF00BF2B
:10FDE00000BF00BF00BF00BF00BF00BF00BF00BF1B
:10FDF00000BF00BF00BF00BF00BF00BF00BF00BF0B
:10FE000000BF00BF00BF00BF00BF00BF00BF00BFFA
:10FE100000BF00BF00BF00BF00BF00BFC3D120466E
:10FE20006178FFF7B7FC2846F8BD08B5012300F05C
:10FE30007BFAB0FA80F0400908BD13B502AC01238B
:10FE400004F8012D224600F04FFAB0FA80F0400984
:10FE500002B010BD37B50D460DF107022021044652
:10FE6000FFF7E3FF68B19DF8072022F001022A4363
:10FE7000202120468DF80720FFF7DFFF003018BF54
:10FE8000012003B030BD37B50D460DF1070220212A
:10FE90000446FFF7CAFF68B19DF8072022F002026E
:10FEA0002A43202120468DF80720FFF7C6FF0030A7
:10FEB00018BF012003B030BD37B50D460DF1070264
:10FEC00020210446FFF7B1FF68B19DF8072022F01A
:10FED00004022A43202120468DF80720FFF7ADFFBA
:10FEE000003018BF012003B030BD10B50A460C46E3
:10FEF0002021FFF79AFF20B1237803F00803237035
:10FF0000012010BD37B50D460DF107022021044632
:10FF1000FFF78BFF68B19DF8072002F00F022A431C
:10FF2000202120468DF80720FFF787FF003018BFFB
:10FF3000012003B030BD10B50A460C462321FFF75F
:10FF400074FF20B1237803F008032370012010BD53
:10FF500037B50D460DF1070223210446FFF765FF73
:10FF600068B19DF8072022F030022A432321204661
:10FF70008DF80720FFF761FF003018BF012003B0A4
:10FF800030BD10B50A460C462321FFF74EFF20B1C5
:10FF9000237803F030032370012010BD37B50D46E0
:10FFA0000DF1070223210446FFF73FFF68B19DF8DA
:10FFB000072002F07F022A43232120468DF80720E4
:10FFC000FFF73BFF003018BF012003B030BD37B54D
:10FFD0000D460DF107022E210446FFF726FF68B1FA
:10FFE0009DF8072002F03F022A432E2120468DF87B
:10FFF0000720FFF722FF003018BF012003B030BDFB
:020000022000DC
:1000000070B506464D1C28246A1E21463046FFF76F
:100010000CFF78B1611C2A46C9B23046FFF705FFD4
:1000200038B10234E4B22E2C05F10205ECD10120E6
:1000300000E070BD70BD00002DE9F04385B00D46B5
:100040000DF106018046FFF776FF08B9002084E035
:100050000DF105014046FFF748FF0028F6D09DF856
:100060000540082C06D19DF80630002BEED126461F
:1000700002270BE0002CE9D19DF8063023B1082BB4
:10008000E4D10426274601E0062601270DF10701E9
:100090004046FFF776FF0028D8D09DF80740202C77
:1000A00006D0302C06D0A4F110035C425C4102E083
:1000B000022400E0032402A94046FFF7A1FF002824
:1000C000C4D0274BBDF9080004EB870403EBC4023E
:1000D00053F83470546830414FEAE07900FB04F380
:1000E00007FB0933A0FB070110F5FA7019444FF420
:1000F0007A724FF0000341F1000102F00FF828601E
:10010000BDF90A00304100FB04F34FEAE07907FB38
:100110000933A0FB070110F5FA7019444FF47A7205
:100120004FF0000341F1000101F0F8FF6860BDF9F4
:100130000C003041C317444307FB0344A0FB0701F5
:1001400010F5FA7021444FF47A724FF0000341F138
:10015000000101F0E3FFA860012005B0BDE8F083D5
:10016000D04E0200322202710022016042717047BB
:100170001FB50C4601A9FFF75FFF38B1019B236053
:10018000029B6360039BA360002000E0012004B099
:1001900010BD0000F7EE007AB4EEE70AF1EE10FAB7
:1001A00008B525D9F2EE047AB4EEE70AF1EE10FABA
:1001B00020D9F3EE097AB4EEE70AF1EE10FA1BD972
:1001C000DFED137AB4EEE70AF1EE10FA16D9DFED9F
:1001D000117AB4EEE70AF1EE10FA11D9DFED0E7ADA
:1001E000B4EEE70AF1EE10FA94BF6021702108E046
:1001F000102106E0202104E0302102E0402100E04F
:100200005021FFF77FFEB0FA80F0400908BD00BF23
:10021000000048420000C8420000484310B543793E
:10022000012B044607D090ED020AFFF7B3FF012827
:1002300002D001236371002010BDF0EE007AB4EE0D
:10024000E70AF1EE10FA08B510D9F1EE007AB4EE33
:10025000E70AF1EE10FA0BD9F2EE007AB4EEE70AF3
:10026000F1EE10FA94BF2021302102E0002100E0DD
:100270001021FFF76DFEB0FA80F0400908BD0000C4
:1002800010B580210446FFF789FE08B9012010BD92
:1002900000212046FFF79BFE0028F7D000212046D2
:1002A000FFF730FE0028F1D0B0EE000A2046FFF73D
:1002B000C4FF0128EAD001212046FFF7CBFD00282A
:1002C000E4D002212046FFF7DEFD0028DED0042125
:1002D0002046FFF7F1FD0028D8D00020014B6071C7
:1002E000A36010BD0000C842F8B50D460179044670
:1002F0004908006816461F46FDF744F92068036860
:1003000029461B6898473546AB1B9F4206DD20688F
:1003100015F8011B03681B689847F5E70121206861
:10032000FDF73AF90020F8BDF8B50F46017904460B
:100330004908006815461E46FDF724F92068036841
:1003400039461B68984700212068FDF725F9217977
:100350002068F2B24908FDF712F9013D20680368F0
:100360009B68984730B120680368DB68984705F8B8
:10037000010FF3E7F8BD0000014A0170C261704748
:10038000E12E654290F90300704790F90400704730
:1003900090F905007047000038B504460D46017815
:1003A0000C48FDF7EFF829460A48FCF7E9FF002161
:1003B0000848FDF7F1F8012221780648FDF7DFF83B
:1003C0000448FCF7DAFF18B10248FCF7EBFFC0B2B3
:1003D00038BD00BFC025002038B505460178154856
:1003E000FDF7D0F82A211348FCF7CAFF1148FDF7A2
:1003F00030F9012229780F48FDF7C1F80D48FCF7C4
:10040000BCFF20B10B48FCF7CDFFC4B200E00446AE
:1004100029780848FDF7B6F82A210648FCF7B0FF0E
:1004200004F0FE010348FCF7ABFF0248BDE838408A
:10043000FDF70FB9C025002038B5054601782048E2
:10044000FDF7A0F82A211E48FCF79AFF1C48FDF78B
:1004500000F9012229781A48FDF791F81848FCF7AD
:100460008CFF20B11648FCF79DFFC4B200E00446A3
:1004700029781348FDF786F82B211148FCF780FFF7
:1004800009210F48FCF77CFF0D48FDF7E2F82978B9
:100490000B48FDF777F82A210948FCF771FF2B7B01
:1004A0000748002B14BF0021022144F031042143EE
:1004B000C9B2FCF765FF0248BDE83840FDF7C9B88E
:1004C000C025002070B5044615460E461D48FCF7B1
:1004D00093FF0D212673A5702046FFF75DFF21785D
:1004E0001848FDF74FF82B211648FCF749FF40212B
:1004F0001448FCF745FF1348FDF7ABF80A2000F05D
:10050000D7FC2046FFF768FF21780E48FDF73AF840
:100510000E210C48FCF734FFA378042B03D0082BE2
:1005200003D1022102E0012100E000210548FCF78F
:1005300027FF0448FDF78DF82046BDE87040FFF71F
:100540007BBF00BFC025002038B5044601781F4896
:10055000FDF718F800211D48FCF712FF00211B4889
:10056000FDF71AF8237B2178002B14BF0722042201
:1005700005461648FDF703F81448FCF7FEFE10B3D5
:100580001248FCF70FFF237B6070104883B1FCF723
:1005900009FF0E48FCF706FFE0700C48FCF702FF6D
:1005A0000A48FCF7FFFE20710848FCF7FBFE06E056
:1005B000FCF7F8FEE0700548FCF7F4FE20710348F4
:1005C000FCF7F0FE6071284638BD00BFC025002052
:1005D00000F002B80000000051EC110B43422DE97D
:1005E000F047034321F00048754F48EAD373BB42FC
:1005F00055EC104B49D86342234325F0004A4AEAA0
:10060000D373BB42A94640D801F1404303F58013A0
:1006100003438E4650D08E1706F0020654EA0A03B2
:1006200046EAD57639D050EA08033ED0B84555D0D1
:10063000BA453AD0C8EB0A084FEA2858B8F13C0F3F
:1006400040DC002970DB02460B462046294601F0BB
:100650007DFB41EC100B00F073FA00F0B5F851ECA3
:10066000100B012E5AD0022E48D0002E42D03EA3AD
:10067000D3E9002301F08CF83DA3D3E9002301F076
:1006800087F841EC100BBDE8F08722462B4601F0BD
:1006900081F841EC100BBDE8F087022E16D0032E36
:1006A0000ED19FED350BBDE8F087B9F1000F11DBDE
:1006B0009FED330BBDE8F087BDE8F04700F084B84C
:1006C000BDE8F0872EA1D1E90001CAE79FED280B14
:1006D000BDE8F0879FED2C0BBDE8F087C24529D01F
:1006E000022EF3D0032EDCD0012E2DD09FED280B4F
:1006F000BDE8F08741EC100BBDE8F0871AA3D3E901
:10070000002301F045F802460B4619A1D1E900018A
:1007100001F03EF841EC100BBDE8F08701F100411B
:1007200041EC100BBDE8F08718F13C0F8BDA00208C
:10073000002196E7022E13D0032E0DD0012E07D0F4
:100740009FED150BBDE8F0879FED150BBDE8F08719
:100750009FED150BBDE8F0879FED150BBDE8F08709
:100760009FED150BBDE8F087075C143326A6A13C6E
:10077000182D4454FB210940182D4454FB2109C075
:10078000182D4454FB21F93F182D4454FB21F9BF87
:100790000000000000000000182D4454FB21E93F38
:1007A0000000000000000080182D4454FB21E9BF28
:1007B000D221337F7CD902C0D221337F7CD9024041
:1007C0000000F07F000000002DE9F84F55EC104BC1
:1007D000D14B25F000469E42AB4610DDCF4B9E42EA
:1007E00000F3B28000F0AD80BBF1000F40F3FD805C
:1007F000ADA5D5E9004545EC104BBDE8F88FC84BD9
:100800009E4200F3C080A3F1DE739E4240F3A880B5
:100810004FF0FF3A22462B462046294601F06CF95C
:1008200002460B468046894601F066F9A0A3D3E94B
:10083000002306460F4601F05FF99FA3D3E900238A
:1008400000F0A8FF32463B4601F056F99CA3D3E9DD
:10085000002300F09FFF32463B4601F04DF99AA37A
:10086000D3E9002300F096FF32463B4601F044F9FD
:1008700097A3D3E9002300F08DFF32463B4601F0F9
:100880003BF995A3D3E9002300F084FF42464B4691
:1008900001F032F992A3D3E900238046894630461D
:1008A000394601F029F990A3D3E9002300F070FF45
:1008B00032463B4601F020F98DA3D3E9002300F036
:1008C00067FF32463B4601F017F98BA3D3E90023BB
:1008D00000F05EFF32463B4601F00EF988A3D3E9F3
:1008E000002300F055FF32463B4601F005F9BAF10E
:1008F000FF3F02460B467CD04046494600F04AFF87
:1009000022462B4601F0F8F8864E874B4FEACA0A7A
:1009100056449A44DAE9002300F03AFF22462B4677
:1009200000F036FF02460B46D6E9000100F030FF2A
:10093000BBF1000F52DB04460D4645EC104BBDE801
:10094000F88F002C3FF450AF22462B462046294614
:1009500000F020FF04460D4645EC104BBDE8F88F33
:1009600069A3D3E9002310EE100A294600F012FF14
:1009700000226E4B01F050FB00283FF449AF45ECDC
:10098000104BBDE8F88F00F0DBF8694B9E4255EC48
:10099000104B3FDCA3F550239E4268DC10EE102A7A
:1009A00010EE100A2B46294600F0F4FE00225F4BA1
:1009B00000F0EEFE002206460F464FF08043204630
:1009C000294600F0E7FE02460B463046394601F064
:1009D000BDF94FF0000A04460D461BE7044601F13D
:1009E000004545EC104BBDE8F88F49A5D5E9004519
:1009F000B2E74046494600F0CDFE22462B4601F0C4
:100A00007BF802460B462046294600F0C1FE04460C
:100A10000D46A1E7474B9E421DDC10EE100A002256
:100A2000454B294600F0B4FE002206460F46424BD5
:100A30002046294601F060F800223C4B00F0AAFE57
:100A400002460B463046394601F080F94FF0020A63
:100A500004460D46DEE62B4610EE102A00203749EC
:100A600001F074F94FF0030A04460D46D2E610EE89
:100A7000100A00222D4B294600F08AFE002206466D
:100A80000F462A4B2046294600F084FE02460B46BC
:100A90003046394601F05AF94FF0010A04460D4636
:100AA000B8E600BFAFF30080182D4454FB21F93F96
:100AB00011DA22E33AAD903FEB0D76244B7BA93F50
:100AC000513DD0A0660DB13F6E204CC5CD45B73F1E
:100AD000FF8300922449C23F0D5555555555D53FCA
:100AE0002F6C6A2C44B4A2BF9AFDDE522DDEAD3FBE
:100AF0006D9A74AFF2B0B33F711623FEC671BC3F5E
:100B0000C4EB98999999C93F9C7500883CE4377E5D
:100B1000182D4454FB21F9BFFFFF0F440000F07F64
:100B2000FFFFDB3FE04F0200C04F02000000F03F3C
:100B3000FFFFF23FFF7F03400000F83F0000F0BFDF
:100B400053EC102B23F0004343EC102B704700BFF5
:100B500053EC102B33F0004110B408D01148A3F52A
:100B60008014844208D804205DF8044B70471AB9F9
:100B700002205DF8044B704703F1FF43094803F579
:100B8000E0038342EFD9B1F5801F01D20320EBE7E8
:100B9000054B994201D00020E6E7B2FA82F0400905
:100BA000E2E700BFFFFFDF7F0000F07F0649074A52
:100BB000074B9B1A03DD043BC858D050FBDC00F008
:100BC0001BF8FBF76FFB0000B452020070200020FE
:100BD00058210020FEE7FEE7FEE7FEE7FEE7FEE71E
:100BE000FEE7FEE7FEE7FEE7024AD2F80034002BFC
:100BF000FBD0704700E001404D4B1A680D2A10B53C
:100C000044D01B680D2B4BD0494B1B680D2B09D1D1
:100C10004FF08043D3F80024D20703D56FF00102D0
:100C2000C3F800244349D1F8883043F47003C1F875
:100C30008830BFF34F8FBFF36F8F4FF01020D0F885
:100C40000C32DC071ED53C4C0123C4F80435FFF7F9
:100C5000CBFFD0F80C3223F00103C0F80C32FFF7C1
:100C6000C3FF0023C4F80435FFF7BEFFBFF34F8F67
:100C7000CA68324B02F4E0621343CB60BFF34F8F7C
:100C800000BFFDE72E4B2F4A1A6010BD4FF0804287
:100C90000021C2F80C11C2F81011C2F83815B0E7E3
:100CA0004FF08052284BD2F80414C3F82015D2F824
:100CB0000814C3F82415D2F80C14C3F82815D2F878
:100CC0001014C3F82C15D2F81414C3F83015D2F848
:100CD0001814C3F83415D2F81C14C3F84015D2F810
:100CE0002014C3F84415D2F82414C3F84815D2F8D8
:100CF0002814C3F84C15D2F82C14C3F85015D2F8A8
:100D00003014C3F85415D2F83414C3F86015D2F86F
:100D10003814C3F86415D2F83C14C3F86815D2F837
:100D20004014C3F86C15D2F84424C3F870256BE75F
:100D30003001001000ED00E000E001400400FA0581
:100D40007C2000200090D00300C00040F8B52F4F59
:100D50000E4639680546144699B920222C4801F000
:100D600025FC2C4B4FF0FF321A605A602A4B402270
:100D7000C3F88020C3F8802183F806231A6001237A
:100D80003B60222D40D8032C05D0042C05D0022C2A
:100D90003AD1032402E0022400E001241F4B1D4944
:100DA00053F8252000200B565D1C28D1194B1A54EE
:100DB000174B43F82060830003F1804303F5C043E1
:100DC0001202D3F8101521F4473121F44071C3F811
:100DD0001015D3F8105502F4F85141EA04422A43A1
:100DE000C3F81025D3F8102542F00102C3F81025EE
:100DF000012303FA00F00A4BC3F80403F8BD9A423A
:100E0000D4D001300828CED1F8BD00BFB0260020D4
:100E1000B4260020A826002000E100E0304F0200A8
:100E2000006000402DE9F743114D124E124FDFF8DC
:100E30004C800024A94655F8043B012B12D1D6F86A
:100E40000423A34013420DD0E357013303D058F8D5
:100E5000243003B19847002345F8043CD9F800300A
:100E60000193019B0134082CE4D103B0BDE8F08369
:100E70000061004000600040A8260020B426002049
:100E8000094B1968094B30B5D3F804050A060B0A5B
:100E900002434FF47A71A2FB014501FB0355E00BBD
:100EA00040EA454030BD00BFD4260020001001407C
:100EB00038B5044648B1FFF7E3FF054600F01AF8DD
:100EC000FFF7DEFF401B8442F8D838BD074B0022F5
:100ED000C3F8042182B0D3F80431054A0193019B81
:100EE00013680133DBB2136002B070470010014099
:100EF000D426002070470000222837B500F29380E6
:100F00004A4B53F82030052B19D007D8032B12D0A9
:100F100013D8022B40F08780012215E01D2B10D042
:100F200003D81C2B7FD105220EE01E2B0BD01F2BCC
:100F300079D1082208E0022206E0032204E004221C
:100F400002E0062200E00722394B1968082908DD73
:100F50000A2909DD0D29B5BF0C240E240223032321
:100F600004E00824002301E00A2401233148C0F8EA
:100F7000F0350123C0F8003500200546030103F1D8
:100F8000804303F5E04301300828C3F81455C3F843
:100F90001055F3D1284B1868284B1B6800021B031F
:100FA00003F4805300F4E0601843224BC3F81805A3
:100FB000C3F81425C3F810250DF10602C3F82C263A
:100FC0000122C3F830261A60D3F80001194A00281C
:100FD000FAD00023C2F8003101235360D2F8040193
:100FE000144B0028FAD00022C3F8042101229A6091
:100FF000D3F81421002AFBD00E4A0023C2F8143182
:10100000BDF906209A420B4AB8BFADF806308C42B3
:10101000C2F80035BDF9060006D08BBF611A091B66
:10102000C840884000E0002003B030BD304F0200CF
:10103000982000200070004094200020E02600202E
:10104000222830B541D8214B214C53F820000022F2
:1010500054F822305D1C33D11D4B1E4C43F8220046
:101060001D4D1E4B246853F822306FEA41416FEA50
:10107000514125F81210012101FA04F4C3F860056A
:10108000013CC3F8640505EB4202C3F86805C3F8E8
:101090006C050020C3F80015C3F80C05C3F804055F
:1010A000C3F80845C3F81405C3F81005C3F8202594
:1010B000C3F82415C3F82815C3F82C05996030BD72
:1010C0009842C9D00132042AC2D130BD304F02004B
:1010D0008020002090200020D82600200050020010
:1010E000222821D8114B124A53F8203013F0200F38
:1010F00008BF4FF0A04203F01F03032914D8DFE814
:1011000001F0020E060A03F5E07300210AE003F580
:10111000E0730C2106E003F5E073042102E003F51F
:10112000E073032142F82310704700BF304F0200E4
:1011300000030050222813D80A4B53F820200A4BF2
:1011400012F0200F02F01F004FF0010208BF4FF015
:10115000A043824011B9C3F80C257047C3F8082595
:10116000704700BF304F020000030050222811D802
:10117000094B53F82000094B10F0200F08BF4FF027
:10118000A04300F01F00D3F8103523FA00F000F060
:101190000100704700207047304F020000030050EC
:1011A0002DE9F04106460D4601EB02080C46444588
:1011B000A4EB050707D0336814F8011B1B68304601
:1011C00098470028F3D13846BDE8F08170B5054650
:1011D0000C46084649B101F033FF2B680246214610
:1011E00028465B68BDE87040184770BD08B5FFF73A
:1011F000EDFF08BD08B50249FFF7E8FF08BD00BFD5
:10120000674B020038B50546FFF7E0FF0446284665
:10121000FFF7F0FF204438BDFFF7F4BFF0B58BB007
:1012200000238DF82430012A98BF0A220DF12305EE
:10123000B1FBF2F402FB1416F3B2092E94BF303363
:101240003733DBB22F46214605F80139002CEFD1A8
:101250003946FFF7BBFF0BB0F0BD10B42AB90368E5
:101260005DF8044B1B68C9B21847D2B25DF8044B55
:10127000FFF7D4BF38B50546FFF7EFFF0446284611
:10128000FFF7B8FF204438BD10B5402204460021C6
:1012900001F08CF9002323646364204610BD026CC6
:1012A00010B5531C446C03F03F039C421CBF815497
:1012B000036410BD0023036443647047436C026CF5
:1012C00093421FBFC25C013303F03F03436414BF6A
:1012D00010464FF0FF307047036C406C181A48BF3F
:1012E00040307047436C026C934214BFC05C4FF0B7
:1012F000FF307047036C406C013303F03F031B1A4F
:101300005842584170470120704703681322DB6937
:10131000184770470369C3F81C15D3F81C21002A2D
:10132000FBD00022C3F81C210120704790F85C30EC
:101330005AB2520910B4012120320F4C03F01F039E
:1013400001FA03F344F8223003695DF8044B0422E8
:10135000C3F8082300225960D960C3F800254FF074
:10136000FF32C3F80C251430C3F81425C3F8082540
:10137000C3F81025FFF79EBF00E100E01430FFF72F
:10138000ABBF1430FFF7AEBF1430FFF797BF0000BC
:10139000026990F85E3030B5C2F80C3590F85D30D7
:1013A000C2F8143590F86130012B01BF90F85F400E
:1013B000C2F8104590F86040C2F8084518BF0023F5
:1013C000B1F5966FC2F86C352ED9B1F5166F2ED9DE
:1013D000B1F5965F2ED9B1F5165F2DD9B1F5615FE4
:1013E0002CD9B1F5964F2BD9B1F5E14F2AD9B1F5EA
:1013F000164F29D9B1F5614F29D9B1F5963F29D9B1
:10140000B1F5E13F28D9B1F5613F28D9344B994274
:1014100028D9B1F5E12F28D9B1F5612F8CBF4FF054
:1014200080534FF0706322E04FF49E231FE04FF48F
:101430001D231CE02B4B1AE02B4B18E02B4B16E026
:101440002B4B14E02B4B12E04FF41D030FE04FF435
:101450006B030CE0284B0AE04FF0EB7307E04FF012
:101460006C7304E04FF0806301E04FF0E863C2F872
:10147000243500210423C2F80035C2F80811C2F84F
:101480001C11012111609160C2F8043390F85C20B6
:1014900053B2D2B202F01F055C09A9406034174D67
:1014A000002B45F8241006DA154B02F00F02134406
:1014B00060221A7606E003F1604303F5614360227F
:1014C00083F8002390F85C3001215AB203F01F0327
:1014D00001FA03F35209094941F8223030BD00BF37
:1014E00090D0030000B013000050270000F03A0035
:1014F00000A04E0000C0750000903A0100E100E03D
:10150000FCEC00E02DE9F0411E464FF47A73002513
:1015100083600E4B4560044640F8143B17468846EE
:10152000FFF7B2FE0A4AC4F8108052F8263084F859
:101530005D309DF8183084F85C7052F8233084F8E0
:101540005E3084F861502046BDE8F08128500200EA
:10155000304F02000369D3F8082110B504464AB1A0
:10156000D3F818151430C9B2FFF799FE2369002289
:10157000C3F8082110BD00000148FFF7EBBF00BF12
:10158000E426002007B522230093022221230349E9
:101590000348FFF7B7FF03B05DF804FB00200040ED
:1015A000E426002010B50446006800F0D1FF204674
:1015B00010BD10B50446006808B100F0C9FF002353
:1015C0002360A360636010BD38B504460D46006813
:1015D000013101F0E7FC10B184E82100012038BDA1
:1015E000036810B5044613B143688B4207D2204606
:1015F000FFF7EAFF20B1A3680BB92268137001203E
:1016000010BD70B50E46114604461546FFF7E8FFBB
:1016100018B92046FFF7CDFF04E0A56031462068E9
:1016200001F006FD204670BD38B500230446036076
:10163000436083600D4639B1084601F001FD29463B
:1016400002462046FFF7DDFF204638BD884210B530
:101650000B46044607D0096819B19A68FFF7D1FF15
:1016600001E0FFF7A6FF204610BD38B505460C4641
:1016700041B1084601F0E4FC214602462846FFF746
:10168000C0FF01E0FFF795FF284638BDFFF7EDBF2B
:1016900070B504460E4609B9002070BD6AB1836872
:1016A000D5182946FFF79CFF0028F5D02068A368CD
:1016B0003146184401F0BCFCA560012070BD10B596
:1016C0008A6809680446FFF7E3FF10B92046FFF770
:1016D00070FF204610BD38B504460D4641B108469E
:1016E00001F0AEFC294602462046FFF7D1FF10B9B3
:1016F0002046FFF75EFF204638BD83688B4203D942
:10170000006810B1405C704700207047FFF7F5BFDC
:101710007047000008B500F019F8FFF7F9FF012045
:10172000FFF7C6FBFBF748FA034CFBF7B9FD002CAB
:10173000FBD0AFF30080F8E70000000000F000BF2E
:1017400000F0FEBE00F004BF00F002BF0D4BE0222F
:1017500083F811234FF40032C3F880211A604FF050
:10176000804302220121C3F81825996003F58833CC
:101770000020C3F80805C3F80423C3F84423196004
:10178000704700BF00E100E081F0004102E000BFCF
:1017900083F0004330B54FEA41044FEA430594EA31
:1017A000050F08BF90EA020F1FBF54EA000C55EA6C
:1017B000020C7FEA645C7FEA655C00F0E2804FEA3D
:1017C0005454D4EB5555B8BF6D420CDD2C4480EA1F
:1017D000020281EA030382EA000083EA010180EA4F
:1017E000020281EA0303362D88BF30BD11F0004F9D
:1017F0004FEA01314FF4801C4CEA113102D04042D3
:1018000061EB410113F0004F4FEA03334CEA13330D
:1018100002D0524263EB430394EA050F00F0A78025
:10182000A4F10104D5F1200E0DDB02FA0EFC22FA20
:1018300005F2801841F1000103FA0EF2801843FA14
:1018400005F359410EE0A5F120050EF1200E012A05
:1018500003FA0EFC28BF4CF0020C43FA05F3C01843
:1018600051EBE37101F0004507D54FF0000EDCF1BC
:10187000000C7EEB00006EEB0101B1F5801F1BD365
:10188000B1F5001F0CD349085FEA30004FEA3C0C69
:1018900004F101044FEA445212F5800F80F09A805F
:1018A000BCF1004F08BF5FEA500C50F1000041EB63
:1018B000045141EA050130BD5FEA4C0C404141EB67
:1018C000010111F4801FA4F10104E9D191F0000F8E
:1018D00004BF01460020B1FA81F308BF2033A3F111
:1018E0000B03B3F120020CDA0C3208DD02F1140C08
:1018F000C2F10C0201FA0CF021FA02F10CE002F143
:101900001402D8BFC2F1200C01FA02F120FA0CFC3B
:10191000DCBF41EA0C019040E41AA2BF01EB045184
:10192000294330BD6FEA04041F3C1CDA0C340EDC82
:1019300004F11404C4F1200220FA04F001FA02F3C5
:1019400040EA030021FA04F345EA030130BDC4F183
:101950000C04C4F1200220FA02F001FA04F340EA78
:101960000300294630BD21FA04F0294630BD94F029
:10197000000F83F4801306BF81F480110134013D10
:101980004EE77FEA645C18BF7FEA655C29D094EA81
:10199000050F08BF90EA020F05D054EA000C04BFFF
:1019A0001946104630BD91EA030F1EBF00210020EA
:1019B00030BD5FEA545C05D14000494128BF41F089
:1019C000004130BD14F580043CBF01F5801130BDED
:1019D00001F0004545F0FE4141F470014FF0000078
:1019E00030BD7FEA645C1ABF194610467FEA655C29
:1019F0001CBF0B46024650EA013406BF52EA0335CB
:101A000091EA030F41F4002130BD00BF90F0000FB8
:101A100004BF0021704730B54FF4806404F13204F4
:101A20004FF000054FF0000150E700BF90F0000FAD
:101A300004BF0021704730B54FF4806404F13204D4
:101A400010F0004548BF40424FF000013EE700BFA4
:101A500042004FEAE2014FEA31014FEA02701FBF34
:101A600012F07F4393F07F4F81F06051704792F006
:101A7000000F14BF93F07F4F704730B54FF4607480
:101A800001F0004521F0004120E700BF50EA0102CB
:101A900008BF704730B54FF000050AE050EA010278
:101AA00008BF704730B511F0004502D5404261EBE8
:101AB00041014FF4806404F132045FEA915C3FF429
:101AC000DCAE4FF003025FEADC0C18BF03325FEAC2
