:100000000C9463000C948B000C948B000C948B006C
:100010000C948B000C948B000C948B000C9430058A
:100020000C948B000C948B000C948B000C948B0024
:100030000C948B000C948B000C948B000C948B0014
:100040000C940A060C948B000C94D8050C94B20501
:100050000C948B000C948B000C948B000C948B00F4
:100060000C948B000C948B000000000024002700EF
:100070002A000000000023002600290000000008DC
:10008000000201000003040700000000000000005F
:10009000010204081020408001020408102001021F
:1000A0000408102000000000250028002B00040494
:1000B0000404040404040202020202020303030310
:1000C00003030200B30811241FBECFEFD8E0DEBF48
:1000D000CDBF11E0A0E0B1E0E6E8F2E102C005909A
:1000E0000D92A639B107D9F723E0A6E9B1E001C026
:1000F0001D92AE35B207E1F710E0C3E6D0E004C0D0
:100100002197FE010E942C09C236D107C9F70E942F
:1001100054060C9441090C940000AF92BF92CF9208
:10012000DF92EF92FF920F931F93CF93DF936C01B7
:100130007B018B01040F151FEB015E01AE18BF0898
:10014000C017D10759F06991D601ED91FC9101904A
:10015000F081E02DC6010995892B79F7C501DF9162
:10016000CF911F910F91FF90EF90DF90CF90BF90B4
:10017000AF900895FC01538D448D252F30E0842FDE
:1001800090E0821B930B541710F0CF9608950197BF
:100190000895FC01918D828D981761F0A28DAE0FAC
:1001A000BF2FB11D5D968C91928D9F5F9F73928F33
:1001B00090E008958FEF9FEF0895FC01918D828D5F
:1001C000981731F0828DE80FF11D858D90E008952C
:1001D0008FEF9FEF0895FC01918D228D892F90E084
:1001E000805C9F4F821B91098F739927089580EB44
:1001F00092E00E94EB0021E0892B09F420E0822F9D
:10020000089580E090E0892B29F00E94F700811189
:100210000C9400000895FC01A48DA80FB92FB11D06
:10022000A35ABF4F2C91848D90E001968F7399272C
:10023000848FA689B7892C93A089B1898C9183700A
:1002400080648C93938D848D981306C00288F38903
:10025000E02D80818F7D80830895EF92FF920F9330
:100260001F93CF93DF93EC0181E0888F9B8D8C8D62
:1002700098131AC0E889F989808185FF15C09FB756
:10028000F894EE89FF896083E889F9898081837019
:10029000806480839FBF81E090E0DF91CF911F91C8
:1002A0000F91FF90EF900895F62E0B8D10E00F5FE9
:1002B0001F4F0F731127E02E8C8D8E110CC00FB6BF
:1002C00007FCFACFE889F989808185FFF5CFCE0157
:1002D0000E940B01F1CFEB8DEC0FFD2FF11DE35AC6
:1002E000FF4FF0829FB7F8940B8FEA89FB898081DA
:1002F0008062CFCFCF93DF93EC01888D8823B9F054
:10030000AA89BB89E889F9898C9185FD03C0808120
:1003100086FD0DC00FB607FCF7CF8C9185FFF2CF9D
:10032000808185FFEDCFCE010E940B01E9CFDF91E7
:10033000CF910895833081F028F4813099F0823094
:10034000A9F008958730A9F08830C9F08430B1F45D
:10035000809180008F7D03C0809180008F77809393
:100360008000089584B58F7784BD089584B58F7D0E
:10037000FBCF8091B0008F778093B000089580917B
:10038000B0008F7DF9CF1F93CF93DF93282F30E0FC
:10039000F901E458FF4F8491F901E057FF4FD491E0
:1003A000F901E255FF4FC491CC23A9F0162F81111A
:1003B0000E949A01EC2FF0E0EE0FFF1FEC55FF4F6B
:1003C000A591B4918FB7F894EC91111108C0D09514
:1003D000DE23DC938FBFDF91CF911F910895DE2B39
:1003E000F8CFCF93DF9390E0FC01E057FF4F2491CB
:1003F00082559F4FFC0184918823D1F090E0880FB3
:10040000991FFC01E859FF4FA591B491FC01EC55EF
:10041000FF4FC591D491623071F49FB7F8943C912D
:10042000822F809583238C93E8812E2B28839FBF76
:10043000DF91CF9108958FB7F894EC912E2B2C93E8
:100440008FBFF6CF4F925F926F927F928F929F9263
:10045000AF92BF92CF92DF92EF92FF920F931F93D2
:10046000CF93DF9300D000D01F92CDB7DEB78C01C1
:100470002A013B01809101018C30C9F08F3F09F4C2
:100480007FC00F900F900F900F900F90DF91CF9142
:100490001F910F91FF90EF90DF90CF90BF90AF90A2
:1004A0009F908F907F906F905F904F900895E2ECB7
:1004B000F0E084918D8387FDE4CF61E08CE00E94C1
:1004C000F1018D81882321F09D81923009F05CC17A
:1004D0004801B12CA12C60E072E18AE790E0A5010F
:1004E00098010E94020929833A834B835C83690146
:1004F0007A0181E0C81AD108E108F1089FEFC91616
:10050000D104E104F10409F00CF413C160E472E4D5
:100510008FE090E0A50198010E94020969017A012B
:1005200081E0C81AD108E108F1089D81923009F0F4
:1005300098C08FEFC816D104E104F10409F00CF45F
:10054000DDC160E970ED83E090E0A50198010E94B3
:10055000020969017A0191E0C91AD108E108F1089C
:100560008FEFC816D104E104F10411F00CF0A3C11F
:1005700083E09091B100987F892B8093B100E1C016
:100580008CE080930101E2ECF0E094919D839F3F29
:1005900009F477CF913029F158F0923009F43FC037
:1005A0008D8187FD6ECF61E08CE00E94F1018CCFE0
:1005B00014BC15BC84B5826084BD85B5816085BDE1
:1005C000EAEBF0E0E491F0E0EE0FFF1FEC55FF4F97
:1005D00085919491ECE9F0E0E491E09351031D8260
:1005E0006CCF109280001092810080918100886011
:1005F0008093810080918100816080938100EAEB8B
:10060000F0E0E491F0E0EE0FFF1FEC55FF4F859115
:100610009491ECE9F0E0E491E09350034ECF109216
:10062000B0001092B1008091B00082608093B00061
:100630008091B10081608093B100EAEBF0E0E49139
:10064000F0E0EE0FFF1FEC55FF4F859194919093D2
:100650004F0380934E03ECE9F0E0E491E0934D0307
:100660002CCF9FEFC916D104E104F10409F00CF47A
:1006700089C068E478EE81E090E0A50198010E94CD
:10068000020969017A0181E0C81AD108E108F1087C
:100690009D81992309F428C19FEFC916D104E10473
:1006A000F10409F00CF41EC162E17AE780E090E009
:1006B000A50194010E94020969017A0181E0C81A2A
:1006C000D108E108F1089D81992309F4EBC08FEF6F
:1006D000C816D104E104F10411F008F0BFC086E0AF
:1006E00048CF64E274EF80E090E0A50194010E949D
:1006F000020969017A0181E0C81AD108E108F1080C
:1007000085E09FEFC916D104E104F10409F008F473
:1007100030CF62E17AE780E090E0A50194010E9489
:10072000020969017A0191E0C91AD108E108F108CA
:10073000CECF81E09D8191111CCF95B5987F892BFB
:1007400085BD2FEF3FEFA9014114510461047104ED
:1007500009F043C09D81913009F45EC0923009F4E4
:100760006DC091118ECEC7BC20935A0330935B03AA
:1007700040935C0350935D0380916E008260809390
:100780006E007FCE82E0D6CFB12CA12C60E072E16A
:100790008AE790E0A50198010E94020969017A01A7
:1007A00081E0C81AD108E108F108C114D10491E030
:1007B000E906F10404F591E08D81813011F6809114
:1007C0008100887F892B809381002FEF3FEFA90163
:1007D0004114510461047104F9F0D801AA0FBB1F40
:1007E000A30192010E94210928EE33E040E050E08D
:1007F0000E94E008AFCF68E478EE81E090E0A501C8
:1008000098010E94020969017A0181E0C81AD108A1
:10081000E108F10893E0D0CFD0928900C09288001F
:100820002093560330935703409358035093590332
:1008300080916F00826080936F0023CEC092B300DE
:100840002093520330935303409354035093550322
:100850008091700082608093700013CEC980DA802E
:10086000EB80FC809AE0F594E794D794C7949A952E
:10087000D1F791E0C91AD108E108F10887E079CEF3
:10088000C980DA80EB80FC808AE0F594E794D79405
:10089000C7948A95D1F791E0C91AD108E108F10807
:1008A00085E04BCF8FEFC816D104E104F10409F0C5
:1008B00038F784E042CF68E478EE81E090E0A5016B
:1008C00098010E94020969017A0191E0C91AD108D0
:1008D000E108F1088FEFC816D104E104F10411F02A
:1008E0000CF0FFCE84E045CE8FEFC816D104E104B2
:1008F000F10411F00CF0D8CE83E01FCF82E039CEA6
:100900003FB7F89480919B0190919C01A0919D012B
:10091000B0919E0126B5A89B05C02F3F19F0019606
:10092000A11DB11D3FBFBA2FA92F982F8827BC0149
:10093000CD01620F711D811D911D42E0660F771F71
:10094000881F991F4A95D1F708958F929F92AF9271
:10095000BF92CF92DF92EF92FF926B017C010E94D7
:1009600080044B015C01C114D104E104F104B9F02D
:100970000E948004681979098A099B09683E7340BE
:100980008105910580F321E0C21AD108E108F10840
:1009900088EE880E83E0981EA11CB11CE4CFFF9066
:1009A000EF90DF90CF90BF90AF909F908F90089581
:1009B000EFEAF1E08FEF808385E58183128243E0E7
:1009C00050E0BF0180EB92E00C948D00E82FF0E046
:1009D000E156FE4FE081EC5FF0E0E155FE4F918182
:1009E000808108951F93CF93DF9381508630E0F488
:1009F000C82FD0E0CC0FDD1FCE5FDE4F1881812FD6
:100A00000E94C30161E0812F0E94F101C981CC23C2
:100A100059F060E08C2F0E94C30161E08C2FDF91C0
:100A2000CF911F910C94F101DF91CF911F91089507
:100A3000CF93DF9348E150E06AE771E080EB92E00A
:100A40000E948D00EC0142E050E063E971E080EB30
:100A500092E00E948D008C0F9D1FDF91CF91089531
:100A60001F920F920FB60F9211242F933F934F9323
:100A70005F936F937F938F939F93AF93BF93EF9306
:100A8000FF938091520390915303A0915403B0912E
:100A90005503892B8A2B8B2BD1F190914D03E0913B
:100AA0004E03F0914F038081892780838091520308
:100AB00090915303A0915403B09155031816190651
:100AC0001A061B069CF48091520390915303A09147
:100AD0005403B09155030197A109B10980935203C2
:100AE00090935303A0935403B0935503FF91EF9158
:100AF000BF91AF919F918F917F916F915F914F9136
:100B00003F912F910F900FBE0F901F9018958091DD
:100B10000101E2ECF0E0E4919FEF90930101E130FC
:100B200051F030F0E23069F060E00E94C301DECFA6
:100B300010926E00F9CF90916F009D7F90936F009F
:100B4000F3CF909170009D7F9093700091E090930F
:100B5000B0009091B100987F94609093B100109292
:100B6000B300E2CF1F920F920FB60F9211242F9372
:100B70003F934F935F936F937F938F939F93AF9325
:100B8000BF93EF93FF9380EB92E00E940B01FF91E4
:100B9000EF91BF91AF919F918F917F916F915F91F5
:100BA0004F913F912F910F900FBE0F901F9018956E
:100BB0001F920F920FB60F9211242F938F939F9332
:100BC000EF93FF93E091C002F091C1028081E09128
:100BD000C602F091C70282FD1BC090818091C902BC
:100BE0008F5F8F732091CA02821741F0E091C90292
:100BF000F0E0E055FD4F958F8093C902FF91EF9192
:100C00009F918F912F910F900FBE0F901F9018956D
:100C10008081F4CF1F920F920FB60F9211242F9361
:100C20003F938F939F93AF93BF9380919701909140
:100C30009801A0919901B0919A013091960123E019
:100C4000230F2D3758F50196A11DB11D2093960154
:100C50008093970190939801A0939901B0939A0182
:100C600080919B0190919C01A0919D01B0919E016A
:100C70000196A11DB11D80939B0190939C01A093AF
:100C80009D01B0939E01BF91AF919F918F913F9134
:100C90002F910F900FBE0F901F90189526E8230FED
:100CA0000296A11DB11DD2CF789484B5826084BD17
:100CB00084B5816084BD85B5826085BD85B5816060
:100CC00085BD80916E00816080936E0010928100DE
:100CD0008091810082608093810080918100816099
:100CE000809381008091800081608093800080915A
:100CF000B10084608093B1008091B00081608093E6
:100D0000B00080917A00846080937A0080917A00AC
:100D1000826080937A0080917A00816080937A006B
:100D200080917A00806880937A001092C10014BE8E
:100D30000FB6F894A8958091600088618093600058
:100D4000109260000FBE60E081E00E94F20461E05A
:100D50008FE00E94F10160E08FE00E94C30161E03A
:100D60008CE00E94F10144E650E060E070E08BE02E
:100D700092E00E94220264E670E080E090E00E942F
:100D8000A504E091C002F091C10282E08083E0916D
:100D9000BC02F091BD021082E091BE02F091BF0250
:100DA00080E180831092C802E091C402F091C502F4
:100DB00086E08083E091C202F091C302808180616D
:100DC0008083E091C202F091C302808188608083B9
:100DD000E091C202F091C302808180688083E0913B
:100DE000C202F091C30280818F7D80830E9418052A
:100DF0000FE911E0BB24BA9464E0662E70E0E72EA0
:100E000070E0F72E43E0742ED2E054E6852E80EB9E
:100E100092E00E94EB00181619060CF098C180EBC6
:100E200092E00E94C90097FD92C1E091AF0221E0DB
:100E30002E0F2093AF02F0E0E155FE4F8083223069
:100E400009F451C0233009F453C0213039F46092C1
:100E500000018F3F9105D9F21092AF02209100015D
:100E60008091AF02821798F2D801E0E11D92EA95D5
:100E7000E9F7C091B201C53048F580E1C89FF001A3
:100E80001124E65DFE4F3FE9432E31E0532EBF01B2
:100E9000605F7F4F90E080E030E041914423B1F00B
:100EA000D2018D932D014C3479F134F5443471F134
:100EB000463451F1423409F40196AC014C5F5F4F66
:100EC0002417350768F06E177F0739F7C33009F428
:100ED000BCC0A0F5C13009F492C0C23009F4A1C071
:100EE0001092AF0294CF8535910509F0B5CFB6CFFA
:100EF0008D5F80930001B2CF4236B1F0433741F0AD
:100F00004335D9F60296D9CF0496D7CF0896D5CFD8
:100F1000AC014D545E4FDA010D900020E9F7841BBF
:100F2000950B8A0F9B1FC9CFAC0141555E4FDA016B
:100F300014964C910196840F911DBFCFCE3F09F4BA
:100F4000F8C008F0F9C0C43059F6E0919F01F0E014
:100F5000E155FE4FC480CA94E2E0EC1508F4E7C006
:100F6000D12CCC0CDD1CC6018C5D9E4F6C01DC01CC
:100F70009C9062E0892D0E94F101F601D18060E031
:100F80008D2D0E94C301DD2059F161E08D2D0E945D
:100F9000F101292D30E0F901E458FF4F8491F90166
:100FA000E057FF4FD490F901E255FF4FC490CC2099
:100FB00009F4BAC081110E949A01EC2DF0E0EE0F05
:100FC000FF1FEE58FF4FA591B491EC91DE2231E066
:100FD00020E009F430E0832F922FF1E08F27A82E34
:100FE000B092AF0125E52093B001D093B10181E02B
:100FF0008093B201A092B30145E050E08BC0A09174
:10100000A001B0E0A155BE4FE0919F01F0E0E15595
:10101000FE4F14966C9184810E94F2040E94D804C1
:101020005FCF81E00E94E6041C0180E00E94E6049C
:10103000032C000C44085508B201A1010E942202B1
:10104000C201B1010E94A504E9CF81E00E94E6043B
:10105000E0919F01F0E0E155FE4FE481E150E43082
:1010600008F05FC0009711F481E090E0889EA00135
:10107000899E500D112430E020E0212C312C2101DB
:10108000F0E0E05EFE4F2417350701F180818E30DD
:1010900008F08E508770806480937C0080917A0085
:1010A000806480937A0080917A0086FDFCCF8091E5
:1010B000780090917900092E000CAA0BBB0B280E2A
:1010C000391E4A1E5B1E2F5F3F4FDDCF50E040E0D0
:1010D000C201B1010E94E008A1E7B2E00E9421092B
:1010E000DC01CB0127E0B695A795979587952A95C2
:1010F000D1F7282F892FB092AF01B5E5B093B00199
:101100007092B101D093B2012093B3018093B401E6
:1011100046E050E06FEA71E080EB92E00E948D00C3
:10112000DFCE20E080E0E7CF90E080E056CFA12C3A
:1011300057CF0E941805D4CE88E198E00FB6F894F6
:10114000A895809360000FBE90936000FFCFE114DC
:10115000F10409F457CE0E94F700882309F452CE17
:101160000E9400004FCEE0EBF2E01382128288EE84
:1011700093E0A0E0B0E084839583A683B78382E107
:1011800091E09183808385EC90E09587848784EC5F
:1011900090E09787868780EC90E0918B808B81EC44
:1011A00090E0938B828B82EC90E0958B848B86EC25
:1011B00090E0978B868B118E128E138E148E08956D
:1011C000A1E21A2EAA1BBB1BFD010DC0AA1FBB1F4B
:1011D000EE1FFF1FA217B307E407F50720F0A21BBD
:1011E000B30BE40BF50B661F771F881F991F1A942A
:1011F00069F760957095809590959B01AC01BD0154
:10120000CF010895052E97FB1EF400940E94190942
:1012100057FD07D00E94E00807FC03D04EF40C9461
:10122000190950954095309521953F4F4F4F5F4F8D
:10123000089590958095709561957F4F8F4F9F4F42
:1012400008950E943209A59F900DB49F900DA49F10
:10125000800D911D11240895EE0FFF1F0590F4914C
:10126000E02D0994A29FB001B39FC001A39F700D10
:10127000811D1124911DB29F700D811D1124911D9E
:061280000895F894FFCF71
:1012860004FF0D0002030405060708090A0B000007
:1012960000002D018D00BA007A01EB00C900DD00C7
:1012A6001011121302040507080A000000000000CE
:1012B60000000000000000000000424200000000A4
:1012C6000000000000000000000053530000000072
:1012D6000000000000000000000042530000000073
:1012E60000000000000000000000420000000000B6
:1012F600000000000000000000005043206D6F64F5
:10130600653A2054756B75426F617264555342316C
:061316002E30000D0A005C
:00000001FF
