:100000000C9463000C94C40A0C949D0A0C948B000D
:100010000C948B000C948B000C948B000C9479093D
:100020000C948B000C948B000C948B000C94EB0ABA
:100030000C948B000C948B000C948B000C948B0014
:100040000C94530A0C948B000C94210A0C94FB0919
:100050000C948B000C948B000C948B000C948B00F4
:100060000C948B000C948B000000000024002700EF
:100070002A000000000023002600290000000008DC
:10008000000201000003040700000000000000005F
:100090000200000000250028002B000404040404D2
:1000A0000404040202020202020303030303030125
:1000B00002040810204080010204081020010204FC
:1000C00008102000A70B11241FBECFEFD8E0DEBF21
:1000D000CDBF13E0A0E0B1E0ECEFF4E202C0059088
:1000E0000D92A037B107D9F724E0A0E7B3E001C033
:1000F0001D92A73CB207E1F710E0C3E6D0E004C0D0
:100100002197FE010E946F12C236D107C9F70E94E3
:100110005A0C0C947C120C9400008230F8F4E82FF6
:10012000F0E0EE0FFF1FEE5FFE4F2CE333E0318374
:100130002083813041F0809169008C7F682B60932F
:100140006900E89A089580916900837F660F771FA0
:10015000660F771F682B60936900E99A0895AF9244
:10016000BF92CF92DF92EF92FF920F931F93CF93A4
:10017000DF936C017B018B01040F151FEB015E0106
:10018000AE18BF08C017D10759F06991D601ED919B
:10019000FC910190F081E02DC6010995892B79F73A
:1001A000C501DF91CF911F910F91FF90EF90DF90EC
:1001B000CF90BF90AF900895FC01538D448D252FB3
:1001C00030E0842F90E0821B930B541710F0CF96F1
:1001D000089501970895FC01918D828D981761F023
:1001E000A28DAE0FBF2FB11D5D968C91928D9F5F3A
:1001F0009F73928F90E008958FEF9FEF0895FC0119
:10020000918D828D981731F0828DE80FF11D858DCB
:1002100090E008958FEF9FEF0895FC01918D228D5E
:10022000892F90E0805C9F4F821B91098F739927E3
:10023000089587EE93E00E940D0121E0892B09F4D7
:1002400020E0822F089580E090E0892B29F00E9421
:10025000190181110C9400000895FC01A48DA80FD0
:10026000B92FB11DA35ABF4F2C91848D90E00196F8
:100270008F739927848FA689B7892C93A089B18918
:100280008C91837080648C93938D848D981306C0B9
:100290000288F389E02D80818F7D80830895EF921D
:1002A000FF920F931F93CF93DF93EC0181E0888F30
:1002B0009B8D8C8D98131AC0E889F989808185FF00
:1002C00015C09FB7F894EE89FF896083E889F989A2
:1002D00080818370806480839FBF81E090E0DF91A4
:1002E000CF911F910F91FF90EF900895F62E0B8DF7
:1002F00010E00F5F1F4F0F731127E02E8C8D8E11B2
:100300000CC00FB607FCFACFE889F989808185FF18
:10031000F5CFCE010E942D01F1CFEB8DEC0FFD2F1B
:10032000F11DE35AFF4FF0829FB7F8940B8FEA89D3
:10033000FB8980818062CFCF682F87EE93E00C9499
:100340004F01682F87EE93E00C944F01CF93DF931A
:10035000EC01888D8823B9F0AA89BB89E889F989DD
:100360008C9185FD03C0808186FD0DC00FB607FC12
:10037000F7CF8C9185FFF2CF808185FFEDCFCE0145
:100380000E942D01E9CFDF91CF910895833081F054
:1003900028F4813099F08230A9F008958730A9F0CF
:1003A0008830C9F08430B1F4809180008F7D03C023
:1003B000809180008F7780938000089584B58F7737
:1003C00084BD089584B58F7DFBCF8091B0008F7779
:1003D0008093B00008958091B0008F7DF9CFCF93C6
:1003E000DF93282F30E0F901E458FF4F8491F901A1
:1003F000E155FF4FD491F901E556FF4FC491CC234D
:10040000A1F081110E94C601EC2FF0E0EE0FFF1F5A
:10041000EE58FF4FA591B491EC91ED2381E090E06F
:1004200009F480E0DF91CF91089580E090E0FACF69
:100430001F93CF93DF93282F30E0F901E458FF4F4B
:100440008491F901E155FF4FD491F901E556FF4F31
:10045000C491CC23A9F0162F81110E94C601EC2F64
:10046000F0E0EE0FFF1FEF56FF4FA591B4918FB74D
:10047000F894EC91111108C0D095DE23DC938FBF66
:10048000DF91CF911F910895DE2BF8CF682F8DE07B
:100490000C941802CF93DF9390E0FC01E155FF4FDD
:1004A000249185569F4FFC0184918823D1F090E0E0
:1004B000880F991FFC01E859FF4FA591B491FC01E9
:1004C000EF56FF4FC591D49161110EC09FB7F894BC
:1004D0008C91E22FE0958E238C932881E223E88390
:1004E0009FBFDF91CF9108958FB7F894EC91E22BE5
:1004F000EC938FBFF6CF1F93CF93DF93182FEB01B1
:1005000061E00E944A02209739F460E0812FDF9178
:10051000CF911F910C941802CF3FD10511F461E0E7
:10052000F5CFE12FF0E0E458FF4FE491E33031F1F3
:1005300040F4E130B1F0E230E1F0C038D1057CF7B1
:10054000E4CFE73029F1E83059F1E430B1F7809198
:100550008000806280938000D0938B00C0938A00DB
:1005600004C084B5806884BDC7BDDF91CF911F9161
:10057000089584B5806284BDC8BDF7CF80918000A6
:10058000806880938000D0938900C0938800EDCF6D
:100590008091B00080688093B000C093B300E5CF35
:1005A0008091B00080628093B000C093B400DDCF32
:1005B0003FB7F89480918B0390918C03A0918D03A9
:1005C000B0918E0326B5A89B05C02F3F19F0019668
:1005D000A11DB11D3FBFBA2FA92F982F8827BC019D
:1005E000CD01620F711D811D911D42E0660F771FC5
:1005F000881F991F4A95D1F708958F929F92AF92C5
:10060000BF92CF92DF92EF92FF926B017C010E942A
:10061000D8024B015C01C114D104E104F104B9F02A
:100620000E94D802681979098A099B09683E7340BB
:100630008105910580F321E0C21AD108E108F10893
:1006400088EE880E83E0981EA11CB11CE4CFFF90B9
:10065000EF90DF90CF90BF90AF909F908F900895D4
:100660002FB7F89460918703709188038091890374
:1006700090918A032FBF08950F931F930E94D80271
:10068000AB01BC018091820390918303A09184030C
:10069000B09185038A019B01081B190B2A0B3B0BA8
:1006A000D901C8010097A140B10520F580918203CE
:1006B00090918303A0918403B09185039A01281B34
:1006C000390BC901409382035093830360938403E1
:1006D00070938503E091B204E73090F4F0E0ED58B8
:1006E000FC4F0C946F127D03AF0326046304950343
:1006F000D40363048FEF9FEFE5CF84E08093B204CF
:100700008091B20462E070E0843010F063E070E049
:100710008091B504823009F461C1833009F460C16D
:100720008FEF1F910F910C948D009C0127553A413A
:100730002339314110F481E0E1CF8B5693408F355E
:10074000914008F0BDC010927E0310927F0310927A
:1007500080031092810310927D0383E0CFCF10922B
:10076000B2049C012B523D402B3C384060F4109267
:100770007E0310927F0310928003109281031092E7
:100780007D0385E0BBCF855996408736944008F0BD
:10079000B7CF0E94300360939C0370939D038093B6
:1007A0009E0390939F03ACCF1092B204855A914060
:1007B0008B31914008F0A4CF80917D03803210F4FA
:1007C00082E09CCF80917E0390917F03A091800373
:1007D000B091810340917E0350917F03609180032B
:1007E00070918103892F9A2FAB2FBB2784279527E0
:1007F000A627B7279927BB278F3F9105AF4FB10594
:1008000009F07ECF80917E0390917F03A0918003B9
:10081000B09181038A2F90E09093B1048093B0044B
:100820000E94300360939C0370939D0380939E030A
:1008300090939F0381E08093A003E091B304F09133
:10084000B404309709F45CCF09955ACF25E0209382
:10085000B20440917E0350917F03609180037091B8
:100860008103769567955795479540937E035093FE
:100870007F03609380037093810320917D032F5F3A
:1008800020937D039C01205F34402D34334090F44D
:1008900080917E0390917F03A0918003B0918103AA
:1008A000B06880937E0390937F03A0938003B093FE
:1008B000810326CF855A91408B31914008F420CF97
:1008C0001092B2041DCF9C012F5A31092F353140AF
:1008D00048F580917D0380FD15C080917E03909145
:1008E0007F03A0918003B0918103880F991FAA1FF5
:1008F000BB1F816080937E0390937F03A09380034E
:10090000B093810380917D038F5F80937D038091FD
:100910007D038E3120F58091B204863009F41DCF1D
:1009200086E0ECCE8D5092408F35914048F6809114
:100930007E0390917F03A0918003B0918103880F83
:10094000991FAA1FBB1F80937E0390937F03A093E0
:100950008003B093810380917D038E5FD6CF409159
:100960007E0350917F036091800370918103909189
:100970007C03852F829586958770911104C08370C2
:1009800080937C039DCF20917C03837030E082179D
:10099000130609F095CF80917E0390917F03A0917B
:1009A0008003B09181039093B1048093B0040E94BE
:1009B000300360939C0370939D0380939E039093F8
:1009C0009F0382E08093A003E091B304F091B4040C
:1009D000309709F475CF81E0099572CF80E0A1CE00
:1009E00081E09FCE0895CF92DF92EF92FF929B011C
:1009F000672B11F421E030E092EF980F8E3008F071
:100A0000892F8770582F5064F0E0E0E060E070E0DC
:100A1000CB0150937C0040917A00406440937A006F
:100A200040917A0046FDFCCFA0917800409179007A
:100A3000D42ECA2E0D2C000CEE08FF086C0D7D1D67
:100A40008E1D9F1D31962E173F0719F750E040E08D
:100A50000E943212A1E7B2E00E941F12DC01CB011A
:100A600027E0B695A795979587952A95D1F7FF909A
:100A7000EF90DF90CF9008950F931F93CF93DF9364
:100A80008B018330910511F580917B0381110BC09F
:100A900081E080937B0361E089E00E944A0261E08B
:100AA0008AE00E944A0261E0101611060CF060E034
:100AB00089E00E941802612F661F6627661F8AE080
:100AC000DF91CF911F910F910C941802EC01CC0F84
:100AD000DD1F6F3F710509F0A4F461308FEF7807D7
:100AE0009CF077FD13C0CD5DDE4F61E089810E94EF
:100AF0001802B8018881DF91CF911F910F910C945A
:100B00007B020FEF10E0EFCF01E01FEFCD5DDE4F76
:100B100060E089810E94180266277727601B710BAD
:100B2000E9CFCF93DF93880F991F880F991FDC01BE
:100B3000A55FBE4F12968D919C911397689FF0010F
:100B4000699FF00D789FF00D11248D919C91689F05
:100B5000E001699FD00D789FD00D112480919603FC
:100B60009091970397FD29C08091960390919703E8
:100B7000092E000CAA0BBB0B20E031E040E050E056
:100B8000281B390B4A0B5B0BDF010E942A12672FCF
:100B9000782F892F992787FD9A95FB01BF0190E057
:100BA00080E00E943C05662777276C1B7D0B81E067
:100BB00090E0DF91CF910C943C0520919603309109
:100BC0009703032E000C440B550B3F5F4F4F5F4FB5
:100BD000DE010E942A12672F782F892F992787FD1F
:100BE0009A95EB01DBCF2F923F924F925F926F92DB
:100BF0007F928F929F92AF92BF92CF92DF92EF92AD
:100C0000FF920F931F93CF93DF93CDB7DEB7289753
:100C10000FB6F894DEBF0FBECDBF8C011B018091D3
:100C2000B0008D839091B1009E838091B30088873E
:100C30002B01770F6608770880910001883049F111
:100C40008F3F09F4A2C0C301B2010E94FD028D8151
:100C50008093B0009E819093B10088858093B3000B
:100C600028960FB6F894DEBF0FBECDBFDF91CF91AF
:100C70001F910F91FF90EF90DF90CF90BF90AF90BA
:100C80009F908F907F906F905F904F903F902F90AC
:100C90000895E0E9F0E094919F8397FDD4CF61E05F
:100CA00088E00E944A029F81992321F08F8182303F
:100CB00009F04AC14801B12CA12C60E072E18AE739
:100CC00090E0A50198010E94001229833A834B838A
:100CD0005C8369017A0191E0C91AD108E108F10841
:100CE0008FEFC816D104E104F10409F00CF401C13E
:100CF00060E472E48FE090E0A50198010E94001288
:100D000069017A0191E0C91AD108E108F1088F81DF
:100D1000823009F0ABC082E09FEFC916D104E10434
:100D2000F10409F00CF4DEC060E970ED83E090E0BE
:100D3000A50198010E94001269017A0181E0C81A98
:100D4000D108E108F10883E09FEFC916D104E1045E
:100D5000F10409F00CF4C6C068E478EE81E090E09C
:100D6000A50198010E94001269017A0181E0C81A68
:100D7000D108E108F1089FEFC916D104E104F1049C
:100D800011F00CF097C084E0ADC088E080930001C2
:100D9000E0E9F0E084918F838F3F09F454CF8130F4
:100DA00029F158F0823009F43FC09F8197FD4BCF65
:100DB00061E088E00E944A0279CF14BC15BC84B57A
:100DC000826084BD85B5816085BDE3EAF0E0E49191
:100DD000F0E0EE0FFF1FEF56FF4F85919491E7EB88
:100DE000F0E0E491E09372031F8259CF10928000EB
:100DF00010928100809181008860809381008091B1
:100E00008100816080938100E3EAF0E0E491F0E00A
:100E1000EE0FFF1FEF56FF4F85919491E7EBF0E047
:100E2000E491E09371033BCF1092B0001092B100B7
:100E30008091B00082608093B0008091B1008160A9
:100E40008093B100E3EAF0E0E491F0E0EE0FFF1FE1
:100E5000EF56FF4F859194919093900380938F0369
:100E6000E7EBF0E0E491E093910319CF8FEFC81620
:100E7000D104E104F10409F00CF464C068E478EEF4
:100E800081E090E0A50198010E94001269017A01B9
:100E900091E0C91AD108E108F1088F81882309F48B
:100EA000E7C08FEFC816D104E104F10411F00CF093
:100EB000E8C069CF64E274EF80E090E0A50194019E
:100EC0000E94001269017A0191E0C91AD108E10873
:100ED000F1088FEFC816D104E104F10411F008F015
:100EE000B7C085E09091B100987F892B8093B100C5
:100EF00008C081E09F819111F5CF95B5987F892B2E
:100F000085BD2FEF3FEFA901411451046104710425
:100F100009F043C09F81913009F45DC0923009F41B
:100F20006CC0911190CEC7BC2093770330937803A7
:100F30004093790350937A0380916E00826080938E
:100F40006E0081CE82E0D6CFB12CA12C60E072E1A0
:100F50008AE790E0A50198010E94001269017A01D8
:100F600081E0C81AD108E108F108C114D10491E068
:100F7000E906F104FCF491E08F81813011F6809153
:100F80008100887F892B809381002FEF3FEFA9019B
:100F90004114510461047104F1F09801220F331FD0
:100FA000D1010E94751228EE33E040E050E00E942B
:100FB0003212B0CF68E478EE81E090E0A5019801AC
:100FC0000E94001269017A0181E0C81AD108E10883
:100FD000F10893E0D1CFD0928900C092880020938D
:100FE0007303309374034093750350937603809199
:100FF0006F00826080936F0026CEC092B300209372
:1010000092033093930340939403509395038091FC
:10101000700082608093700016CE84E09FEFC91646
:10102000D104E104F10409F008F467CFC980DA8043
:10103000EB80FC808AE0F594E794D794C7948A9576
:10104000D1F781E0C81AD108E108F10885E055CF51
:1010500062E17AE780E090E0A50194010E9400122D
:1010600069017A0181E0C81AD108E108F1081CC0C1
:1010700083E09FEFC916D104E104F10409F00CF4F8
:101080003CCF62E17AE780E090E0A50194010E9404
:10109000001269017A0191E0C91AD108E108F1084A
:1010A0008F81882309F4B9CF86E09FEFC916D10458
:1010B000E104F10409F008F415CFC980DA80EB806F
:1010C000FC809AE0F594E794D794C7949A95D1F769
:1010D00081E0C81AD108E108F10887E003CFFC01DC
:1010E00085819681892B71F1A381B4813FB7F894F2
:1010F0009C918281809589238C938581968101972B
:10110000F1F728E0462F50E082819C9160FF17C0E4
:10111000892B8C93858196810197F1F7BA0175959A
:101120006795215079F78C919281892B8C933FBFE1
:10113000858196810197F1F781E090E0089580958F
:101140008923E7CF90E080E00895EF92FF920F931C
:101150001F93CF93DF937C018B016EE784E894E0CB
:101160000E946F0861E0600F84E894E00E946F08BD
:10117000E7010E0D1F1D699184E894E00E946F083D
:10118000C017D107C1F76FEE84E894E00E946F08A2
:1011900068EC70E080E090E0DF91CF911F910F91BB
:1011A000FF90EF900C94FD02CF93DF93EC018FEF53
:1011B00090E00E94A10185E590E00E94A10183E0FA
:1011C00090E00E949C0182E090E00E94A101CE018B
:1011D00099270E949C018D2F90E0DF91CF910C9474
:1011E0009C01CF93C82F8FEF90E00E94A10185E56D
:1011F00090E00E94A10182E090E00E949C0181E0C9
:1012000090E00E94A1016C2F87EE93E0CF910C94A7
:101210004F018FEF90E00E94A10185E590E00E94D0
:10122000A10160E087EE93E00C944F01E82FF0E01D
:10123000EE55FC4FE081EC5FF0E0EE54FC4F918105
:1012400080810895CF93DF9347E150E064E573E038
:1012500087EE93E00E94AF00EC0142E050E06CE6C4
:1012600073E087EE93E00E94AF008C0F9D1FDF912B
:10127000CF910895FF920F931F93CF93DF93909395
:101280009703809396038091960390919703D0E003
:10129000C0E08038910544F08FE790E09093970389
:1012A00080939603CFEFDFEF8091960390919703A1
:1012B00080389F4F44F480E89FEF9093970380938A
:1012C0009603CFEFDFEF009196031091970390E024
:1012D00080E00E94EA11081729F0602F90E080E07A
:1012E0000E94F211CE01DF91CF911F910F91FF90DB
:1012F00008951F920F920FB60F9211242F933F93D0
:101300004F935F936F937F938F939F93AF93BF930D
:10131000EF93FF938091920390919303A091940394
:10132000B0919503892B8A2B8B2BD1F1909191034E
:10133000E0918F03F09190038081892780838091D1
:10134000920390919303A0919403B0919503181682
:1013500019061A061B069CF4809192039091930340
:10136000A0919403B09195030197A109B1098093CD
:10137000920390939303A0939403B0939503FF91EA
:10138000EF91BF91AF919F918F917F916F915F91FD
:101390004F913F912F910F900FBE0F901F90189576
:1013A00080910001E0E9F0E0E4919FEF909300016B
:1013B000E13051F030F0E23069F060E00E94180254
:1013C000DECF10926E00F9CF90916F009D7F9093C9
:1013D0006F00F3CF909170009D7F9093700091E02B
:1013E0009093B0009091B100987F94609093B10079
:1013F0001092B300E2CF1F920F920FB60F921124FA
:101400002F933F934F935F936F937F938F939F930C
:10141000AF93BF93EF93FF9387EE93E00E942D016C
:10142000FF91EF91BF91AF919F918F917F916F91BC
:101430005F914F913F912F910F900FBE0F901F9092
:1014400018951F920F920FB60F9211242F938F931E
:101450009F93EF93FF93E091F703F091F80380815E
:10146000E091FD03F091FE0382FD1BC0908180910D
:1014700000048F5F8F7320910104821741F0E09187
:101480000004F0E0E951FC4F958F80930004FF9138
:10149000EF919F918F912F910F900FBE0F901F9002
:1014A00018958081F4CF1F920F920FB60F921124DE
:1014B0002F933F938F939F93AF93BF938091870315
:1014C00090918803A0918903B0918A03309186039B
:1014D00023E0230F2D3758F50196A11DB11D209350
:1014E00086038093870390938803A0938903B09326
:1014F0008A0380918B0390918C03A0918D03B0910E
:101500008E030196A11DB11D80938B0390938C03D4
:10151000A0938D03B0938E03BF91AF919F918F9154
:101520003F912F910F900FBE0F901F90189526E8B6
:10153000230F0296A11DB11DD2CF1F920F920FB69D
:101540000F9211242F933F934F935F936F937F9349
:101550008F939F93AF93BF93EF93FF93E091040119
:10156000F09105010995FF91EF91BF91AF919F9186
:101570008F917F916F915F914F913F912F910F903C
:101580000FBE0F901F9018951F920F920FB60F92DB
:1015900011242F933F934F935F936F937F938F9378
:1015A0009F93AF93BF93EF93FF93E0910201F0916C
:1015B00003010995FF91EF91BF91AF919F918F9199
:1015C0007F916F915F914F913F912F910F900FBE3F
:1015D0000F901F9018951F920F920FB60F92112423
:1015E0002F933F934F935F936F937F938F939F932B
:1015F000AF93BF93CF93DF93EF93FF9380917003EB
:10160000C091AF04D0E087FF24C0109285001092F3
:101610008400809170038F5F8093700380917003CA
:10162000082E000C990B8C179D0724F480917003F1
:101630008C30C4F1809184009091850004968034B0
:101640009C4908F47AC080918400909185000496AA
:1016500076C080917003082E000C990B8C179D07A3
:10166000C4F6E09170038E2FEE0F990BFC01EE0F84
:10167000FF1FE80FF91FE557FB4F808186FFC9CF99
:10168000E09170038E2FEE0F990BFC01EE0FFF1F00
:10169000E80FF91FE557FB4F808160E08F730E94D0
:1016A0001802B7CF2091840030918500E09170033B
:1016B0008E2FEE0F990BFC01EE0FFF1FE80FF91FA5
:1016C000E557FB4F81819281820F931F9093890090
:1016D00080938800E09170038E2FEE0F990BFC0130
:1016E000EE0FFF1FE80FF91FE557FB4F808186FFC4
:1016F00011C0E09170038E2FEE0F990BFC01EE0FDD
:10170000FF1FE80FF91FE557FB4F808161E08F73E2
:101710000E941802FF91EF91DF91CF91BF91AF919D
:101720009F918F917F916F915F914F913F912F91F9
:101730000F900FBE0F901F90189580E49CE9909336
:101740008900809388008FEF80937003E3CF10921D
:10175000EA031092E90388EE93E0A0E0B0E0809302
:10176000EB039093EC03A093ED03B093EE0380E4BE
:1017700093E09093E8038093E70385EC90E09093E7
:10178000F4038093F30384EC90E09093F60380934A
:10179000F50380EC90E09093F8038093F70381ECDD
:1017A00090E09093FA038093F90382EC90E0909399
:1017B000FC038093FB0386EC90E09093FE03809300
:1017C000FD03109200041092010410920204109282
:1017D000030482E593E0909385048093840461E0A0
:1017E00088E00E94180261E088E00E944A02E7EB6C
:1017F000F0E0E491E0938604E3EAF0E0E491F0E0C5
:10180000EE0FFF1FEF56FF4F859194919093880440
:10181000809387048DE991E090938A0480938904F2
:101820001092C60482E08093B50486E492E090931F
:10183000B4048093B30460E082E00E944A0262E054
:1018400070E080E00E948D001092B2041092B1040A
:101850001092B0048091C604811127C08EE690E0FA
:101860009093070180930601E6EBF4E02FEB34E060
:101870004FEF68EB7BE08091AF048C30C8F491E0CF
:10188000980F9093AF04808390E0DC01AA0FBB1FF8
:10189000A80FB91FA557BB4F12967C936E93119753
:1018A00033962E173F0739F708958CE291E0D8CF91
:1018B0004083F6CFCF93DF9300D000D01F92CDB7F7
:1018C000DEB7789484B5826084BD84B5816084BDC0
:1018D00085B5826085BD85B5816085BD80916E00CE
:1018E000816080936E0010928100809181008260FF
:1018F000809381008091810081608093810080913C
:1019000080008160809380008091B100846080932A
:10191000B1008091B00081608093B00080917A0026
:10192000846080937A0080917A00826080937A004C
:1019300080917A00816080937A0080917A0080683B
:1019400080937A001092C10014BE0FB6F894A89547
:1019500080916000886180936000109260000FBEEB
:1019600061E08DE00E944A0260E08DE00E94180272
:1019700061E084E00E944A0261E087E00E944A023E
:1019800061E08CE00E944A0261E088E00E944A0225
:1019900083E084BD85BD91E0909380009BE09093AF
:1019A00081008093B00084E08093B10090E080E0FB
:1019B0000E94EA1190E090939703809396038091A0
:1019C000960390919703803891054CF0809196038F
:1019D000909197039A95909397038093960362E36F
:1019E00070E084EF91E00E94F305E091F703F0913D
:1019F000F80382E08083E091F303F091F403108216
:101A0000E091F503F091F60380E180831092FF03EB
:101A1000E091FB03F091FC0386E08083E091F90301
:101A2000F091FA03808180618083E091F903F09165
:101A3000FA03808188608083E091F903F091FA03D2
:101A4000808180688083E091F903F091FA038081BE
:101A50008F7D80830E9422096090080170900901A7
:101A600080900A0187EE93E00E940D011816190676
:101A70000CF077C087EE93E00E94EB00E091E60364
:101A800091E09E0F9093E603F0E0EE54FC4F8083CC
:101A9000923009F473C0933009F474C0913041F46A
:101AA00094E0909301018F3F09F455C01092E60332
:101AB000209101018091E603821708F44CC0A2EA4C
:101AC000B3E0E0E11D92EA95E9F71091B503103219
:101AD00068F530E1139FF0011124E45CFE4F32EA17
:101AE000C32E33E0D32EBF01605F7F4F90E080E0D4
:101AF00030E041914423D1F0D6018D936D014C34F7
:101B000009F44CC00CF042C0443409F449C04634D6
:101B100009F444C0423409F40196AC014C5F5F4FB4
:101B200024173507B0F06E177F0719F7133109F442
:101B300029C108F075C0163009F4FBC008F048C090
:101B4000153008F0E5C0123008F0D5C0113009F4A6
:101B5000C4C01092E6038091E603843310F0109223
:101B6000E603A0E0B0E0AB2B09F47CCF0E941901A2
:101B7000882309F477CF0E94000074CF853509F0DF
:101B800095CF96CF8D5F8093010192CF4236B1F011
:101B9000433741F0433509F60296BFCF0496BDCFD7
:101BA0000896BBCFAC014A545C4FDA010D9000207F
:101BB000E9F7841B950B8A0F9B1FAFCFAC014E54E6
:101BC0005C4FDA0114964C910196840F911DA5CFBC
:101BD000193009F4C2C0D0F4173009F4AFC018307E
:101BE00009F0B7CF80E00E9416092091960330914A
:101BF0009703820F931F909397038093960380918E
:101C00009603909197030E943A097FC01A3009F415
:101C1000B2C01B3009F09DCF80E00E941609F3CFBF
:101C20001A3109F407C1C8F5163109F4DBC0D0F444
:101C3000143109F4BEC0153109F08BCFE091A20335
:101C4000F0E0EE54FC4F60E084810E944A02E09193
:101C5000A203F0E0EE54FC4F84810E94EF010E9449
:101C6000F10877CF173109F4CFC0183109F071CFDF
:101C7000E091A203F0E0EE54FC4F848160E0825FCB
:101C80000E944A0281E00E941609BC01E091A20371
:101C9000F0E0EE54FC4F8481C9C0103809F4F7C15C
:101CA00058F41B3109F4B1C11C3109F052CF8AE05C
:101CB000898361E070E0E0C11E3F09F4E5C11F3F88
:101CC00009F047CF88E198E00FB6F894A895809383
:101CD00060000FBE90936000FFCF61E08DE00E9436
:101CE0004A02E091A203F0E0EE54FC4F64818DE0E3
:101CF0000E9418020AC081E00E9416098C0180E04F
:101D00000E941609B8010E94F3050E94090921CF1B
:101D1000E091A303F0E0EE54FC4F648170E0E091A9
:101D2000A203F0E0EE54FC4F848190E00E94910504
:101D3000ECCF70E060E090E080E0F8CF81E00E94BE
:101D40001609BC01E091A203F0E0EE54FC4F84813F
:101D50008150990B0E943C05D8CF80E00E94160963
:101D60002091960330919703281B390B30939703EA
:101D70002093960344CF80919603909197030E94FD
:101D8000D408E7CEE091A203F0E0EE54FC4F61E00E
:101D900084810E944A02A091A303B0E0AE54BC4FDC
:101DA000E091A203F0E0EE54FC4F14966C91848114
:101DB0009FCFE091A203F0E0EE54FC4F848161E0FC
:101DC000825F0E944A02E091A303F0E0EE54FC4FD0
:101DD000A091A203B0E0AE54BC4F14968C916481E4
:101DE000825F86CFE091A203F0E0EE54FC4F848145
:101DF00060E0825F0E944A02E091A203F0E0EE54AC
:101E0000FC4F8481825F29CFE091A203F0E0EE5481
:101E1000FC4F848160E0825F0E944A02E091A2034D
:101E2000F0E0EE54FC4F848161E070E0825F0E943C
:101E3000F304A5CFE091A203F0E0EE54FC4F04813F
:101E400010E06801CC0CDD1CC601800F911FFC0165
:101E5000EA54FB4F7F018081282F30E0F901EE0F1B
:101E6000FF1FE20FF31FE557FB4F908196FD5DC00A
:101E7000F801E75CFE4F90808C3008F056C061E0BE
:101E8000892D0E944A02D7018C91282F30E0F90158
:101E9000EE0FFF1FE20FF31FE557FB4FB92DBF7386
:101EA0009B2E9081907C992A9082F7011182128258
:101EB0006CE00E946312869FA001112430E020E0B4
:101EC000BA01620F731FFB01EE0FFF1FE60FF71F32
:101ED000E557FB4F908196FD16C02F5F3F4F2C308A
:101EE000310571F781110FC010928000F2E0F0937C
:101EF00081001092850010928400B19A80916F0049
:101F0000826080936F000C0D1D1DF801EA54FB4F99
:101F1000E0818E2F90E0FC01EE0FFF1FE80FF91F0C
:101F2000E557FB4F808180648083E091A203F0E05D
:101F3000EE54FC4FE480F12C6701CC0CDD1CF60163
:101F4000EE0DFF1DEA54FB4F828108E5A02E02E052
:101F5000B02EA81AB10887FDB394AA0CBB1CAA0C1A
:101F6000BB1C818108E810E0081B110987FD13954F
:101F7000000F111F000F111F1801012E000C440843
:101F80005508E091A303F0E0EE54FC4FA481B0E0CB
:101F9000A53BB10514F0A4EBB0E095010B2C000CAF
:101FA000440B550B22193309440955090E942A1282
:101FB00024EB30E040E050E00E940012220E331E7D
:101FC000441E551EF601EE0DFF1DEA54FB4F8081A5
:101FD0008C3008F09ACE201631062CF085012A1498
:101FE0003B040CF4810102501109000F111F2FB79F
:101FF000F89490E0FC01EE0FFF1FE80FF91FE55782
:10200000FB4F128301832FBF80CE8091A1038111EA
:1020100012C086E089838EE18A8362E070E0CE019F
:1020200001960E94A5088AE08C8361E070E0CE01F1
:1020300004960E94A50881E08093A103E091A30388
:10204000F0E0EE54FC4F8481E091A203F0E0EE5406
:10205000FC4F148191E19C83882399F022E02D8329
:1020600062E070E0CE0104960E94A50869827A823F
:102070008B821B8363E070E0CE0101960E94A5086D
:1020800044CE84E08D83ECCF0E94220962CD8FEF95
:1020900090E00E94A10185E590E00E94A10186E008
:1020A00090E00E94A10180E890E00E94A101F894D4
:1020B0009090A0031092A0030091B0041091B1047D
:1020C00020909C0330909D0340909E0350909F036E
:1020D0007894211431044104510409F42EC132E0F2
:1020E000FCE2CF2EDD24D394E12CF12C931631F0B9
:1020F000C0900601D0900701F12CE12C0E94300322
:1021000062197309840995092091C3046C157D0532
:102110008E059F0508F0E6C021110EC001151105BE
:1021200059F0E091B304F091B404309711F081E0DC
:1021300009959924939402C0992041F11092C50405
:102140001092C40482E098127FC0802F8770805A5A
:102150008093C304802F8695869586958051990B30
:1021600074E0880F991F7A95E1F79093C0048093EB
:10217000BF04812F8F718051990BE4E0880F991F64
:10218000EA95E1F79093C2048093C1041091C604CC
:10219000112309F47DC092E099127AC04091BF04E6
:1021A0005091C0042091C1043091C204BA0157FF7C
:1021B00004C066277727641B750BC90137FF04C06D
:1021C00088279927821B930B860F971F88329105CA
:1021D0000CF483C0DA0157FD1196B595A795E1E09F
:1021E000A217B3070CF0E0E0B90137FF02C06F5F40
:1021F0007F4F75956795461757070CF4EE5FB90149
:1022000037FF02C06F5F7F4F759567957195619538
:102210007109461757070CF4EC5F66277727621B96
:10222000730BA617B7070CF4E85FF0E0E75DFE4F0D
:10223000E081E093C404E337C1F088F4E13709F4A6
:102240004AC09695879512C00093C3041092C204A9
:102250001092C1041092C0041092BF0497CFE437CB
:10226000A9F1E63771F7CB0101C0CA018F3F910593
:1022700019F010F08FEF90E08093C5048091C304B3
:10228000123031F4803621F48091C4048093C30469
:102290008091C30490E00E94A1010091BF041091BD
:1022A000C004C80199270E949C01812F90E00E94E0
:1022B0009C010091C1041091C204C80199270E9499
:1022C0009C01812F90E00E949C0143CC8827992794
:1022D000841B950BCBCFC901C9CF1092C4041092B7
:1022E000C504CCCF2223A1F21092C5041092C404DD
:1022F0001092C2041092C1041092C0041092BF0444
:102300001092C30410929C0310929D0310929E039E
:1023100010929F03E091B304F091B404309711F050
:1023200080E009950E9430036093980370939903AD
:1023300080939A0390939B03ABCF0E943003C0908D
:102340009803D0909903E0909A03F0909B03DC01EE
:10235000CB018C199D09AE09BF09012B79F0409181
:1023600006015091070170E060E0481759076A07BD
:102370007B0720F41092B1041092B00427E0B695C8
:10238000A795979587952A95D1F70097A105B1054F
:1023900009F47ECF8F709927AA27BB270097A10544
:1023A000B10551F4E091B304F091B40481E03097A9
:1023B00009F46ECF09956CCF0197A105B10509F01D
:1023C00067CFE091B304F091B404309709F460CF83
:1023D00080E0F0CFF999FECF92BD81BDF89A9927A0
:1023E00080B50895262FF999FECF1FBA92BD81BD01
:1023F00020BD0FB6F894FA9AF99A0FBE0196089587
:10240000052E97FB1EF400940E94171257FD07D06B
:102410000E94321207FC03D04EF40C941712509510
:102420004095309521953F4F4F4F5F4F08959095C0
:102430008095709561957F4F8F4F9F4F08950E94B3
:102440005412A59F900DB49F900DA49F800D911DD7
:1024500011240895B7FF0C941F120E941F12821BB3
:10246000930B0895A1E21A2EAA1BBB1BFD010DC000
:10247000AA1FBB1FEE1FFF1FA217B307E407F50734
:1024800020F0A21BB30BE40BF50B661F771F881F10
:10249000991F1A9469F760957095809590959B01A6
:1024A000AC01BD01CF010895A29FB001B39FC0014F
:1024B000A39F700D811D1124911DB29F700D811D70
:1024C0001124911D0895991B79E004C0991F961756
:1024D00008F0961B881F7A95C9F780950895EE0F2E
:1024E000FF1F0590F491E02D09940E945412B7FF4C
:0C24F0000895821B930B0895F894FFCF11
:1024FC00FF04F204F2046E0003000101000100006D
:10250C0000010001000000FFFFFFFFFFFF010001C1
:10251C0000FFFF050406070B0C7370007100000030
:10252C0072750000007600777403090A0000000041
:10253C00000000000000000000000000420000004D
:10254C0000000000000000000000000053530000D9
:10255C0000000000000000000000000053530000C9
:10256C0000000000000000000000000053530000B9
:10257C0000000000000000000000000042420000CB
:10258C00000000000000000000000000000000003F
:10259C00000000000000000000000000425300009A
:1025AC0000000000000000000000000053000000CC
:1025BC0000000000000000000000000053000000BC
:1025CC0000000000000000000000000000000000FF
:1025DC00000000000000000000000000530000009C
:1025EC0000000000000000000000000000000000DF
:1025FC0000000000000000000000000000000000CF
:10260C0000000000000000000000000000000000BE
:10261C0000000000000000000000000000000000AE
:10262C00000000000000000000000000000000009E
:10263C00000000000000000000000000000000008E
:10264C00000000000000000000000000000000007E
:10265C0000000000000000000000000042420000EA
:10266C0000000000000000000000000042420000DA
:10267C00000000000000000000000000420000000C
:10268C0000000000000000000000000042000000FC
:10269C0000000000000000000000000042000000EC
:1026AC000000000000000000000000004253000089
:1026BC00000000000000000000000000000000000E
:1026CC00000000000000000000000000424200007A
:1026DC00000000000000000000000000424200006A
:1026EC0000000000000000000000000000000000DE
:1026FC0000000000000000000000000000000000CE
:10270C0000000000000000000000000000000000BD
:10271C0000000000000000000000000000000000AD
:10272C00000000000000000000000000000000009D
:10273C004F01AF00DC00A6010D01EB00FF00000013
:10274C0000006F085043206D6F64653A2052656D30
:10275C006F636F6E526F626F312E31000D0A000085
:00000001FF
