:100000000C9463000C94AF0A0C94880A0C948B0037
:100010000C948B000C948B000C948B000C94640952
:100020000C948B000C948B000C948B000C94D60ACF
:100030000C948B000C948B000C948B000C948B0014
:100040000C943E0A0C948B000C940C0A0C94E60958
:100050000C948B000C948B000C948B000C948B00F4
:100060000C948B000C948B000000000024002700EF
:100070002A000000000023002600290000000008DC
:10008000000201000003040700000000000000005F
:100090000200000000250028002B000404040404D2
:1000A0000404040202020202020303030303030125
:1000B00002040810204080010204081020010204FC
:1000C00008102000920B11241FBECFEFD8E0DEBF36
:1000D000CDBF13E0A0E0B1E0E2EDF4E202C0059094
:1000E0000D92A037B107D9F724E0A0E7B3E001C033
:1000F0001D92A83CB207E1F710E0C3E6D0E004C0CF
:100100002197FE010E945A12C236D107C9F70E94F8
:10011000450C0C9467120C9400008230F8F4E82F20
:10012000F0E0EE0FFF1FEE5FFE4F2CE333E0318374
:100130002083813041F0809169008C7F682B60932F
:100140006900E89A089580916900837F660F771FA0
:10015000660F771F682B60936900E99A0895AF9244
:10016000BF92CF92DF92EF92FF920F931F93CF93A4
:10017000DF936C017B018B01040F151FEB015E0106
:10018000AE18BF08C017D10759F06991D601ED919B
:10019000FC910190F081E02DC6010995892B79F73A
:1001A000C501DF91CF911F910F91FF90EF90DF90EC
:1001B000CF90BF90AF900895FC01538D448D252FB3
:1001C00030E0842F90E0821B930B541710F0CF96F1
:1001D000089501970895FC01918D828D981761F023
:1001E000A28DAE0FBF2FB11D5D968C91928D9F5F3A
:1001F0009F73928F90E008958FEF9FEF0895FC0119
:10020000918D828D981731F0828DE80FF11D858DCB
:1002100090E008958FEF9FEF0895FC01918D228D5E
:10022000892F90E0805C9F4F821B91098F739927E3
:10023000089588EE93E00E940D0121E0892B09F4D6
:1002400020E0822F089580E090E0892B29F00E9421
:10025000190181110C9400000895FC01A48DA80FD0
:10026000B92FB11DA35ABF4F2C91848D90E00196F8
:100270008F739927848FA689B7892C93A089B18918
:100280008C91837080648C93938D848D981306C0B9
:100290000288F389E02D80818F7D80830895EF921D
:1002A000FF920F931F93CF93DF93EC0181E0888F30
:1002B0009B8D8C8D98131AC0E889F989808185FF00
:1002C00015C09FB7F894EE89FF896083E889F989A2
:1002D00080818370806480839FBF81E090E0DF91A4
:1002E000CF911F910F91FF90EF900895F62E0B8DF7
:1002F00010E00F5F1F4F0F731127E02E8C8D8E11B2
:100300000CC00FB607FCFACFE889F989808185FF18
:10031000F5CFCE010E942D01F1CFEB8DEC0FFD2F1B
:10032000F11DE35AFF4FF0829FB7F8940B8FEA89D3
:10033000FB8980818062CFCF682F88EE93E00C9498
:100340004F01682F88EE93E00C944F01CF93DF9319
:10035000EC01888D8823B9F0AA89BB89E889F989DD
:100360008C9185FD03C0808186FD0DC00FB607FC12
:10037000F7CF8C9185FFF2CF808185FFEDCFCE0145
:100380000E942D01E9CFDF91CF910895833081F054
:1003900028F4813099F08230A9F008958730A9F0CF
:1003A0008830C9F08430B1F4809180008F7D03C023
:1003B000809180008F7780938000089584B58F7737
:1003C00084BD089584B58F7DFBCF8091B0008F7779
:1003D0008093B00008958091B0008F7DF9CFCF93C6
:1003E000DF93282F30E0F901E458FF4F8491F901A1
:1003F000E155FF4FD491F901E556FF4FC491CC234D
:10040000A1F081110E94C601EC2FF0E0EE0FFF1F5A
:10041000EE58FF4FA591B491EC91ED2381E090E06F
:1004200009F480E0DF91CF91089580E090E0FACF69
:100430001F93CF93DF93282F30E0F901E458FF4F4B
:100440008491F901E155FF4FD491F901E556FF4F31
:10045000C491CC23A9F0162F81110E94C601EC2F64
:10046000F0E0EE0FFF1FEF56FF4FA591B4918FB74D
:10047000F894EC91111108C0D095DE23DC938FBF66
:10048000DF91CF911F910895DE2BF8CF682F8DE07B
:100490000C941802CF93DF9390E0FC01E155FF4FDD
:1004A000249185569F4FFC0184918823D1F090E0E0
:1004B000880F991FFC01E859FF4FA591B491FC01E9
:1004C000EF56FF4FC591D49161110EC09FB7F894BC
:1004D0008C91E22FE0958E238C932881E223E88390
:1004E0009FBFDF91CF9108958FB7F894EC91E22BE5
:1004F000EC938FBFF6CF1F93CF93DF93182FEB01B1
:1005000061E00E944A02209739F460E0812FDF9178
:10051000CF911F910C941802CF3FD10511F461E0E7
:10052000F5CFE12FF0E0E458FF4FE491E33031F1F3
:1005300040F4E130B1F0E230E1F0C038D1057CF7B1
:10054000E4CFE73029F1E83059F1E430B1F7809198
:100550008000806280938000D0938B00C0938A00DB
:1005600004C084B5806884BDC7BDDF91CF911F9161
:10057000089584B5806284BDC8BDF7CF80918000A6
:10058000806880938000D0938900C0938800EDCF6D
:100590008091B00080688093B000C093B300E5CF35
:1005A0008091B00080628093B000C093B400DDCF32
:1005B0003FB7F89480918B0390918C03A0918D03A9
:1005C000B0918E0326B5A89B05C02F3F19F0019668
:1005D000A11DB11D3FBFBA2FA92F982F8827BC019D
:1005E000CD01620F711D811D911D42E0660F771FC5
:1005F000881F991F4A95D1F708958F929F92AF92C5
:10060000BF92CF92DF92EF92FF926B017C010E942A
:10061000D8024B015C01C114D104E104F104B9F02A
:100620000E94D802681979098A099B09683E7340BB
:100630008105910580F321E0C21AD108E108F10893
:1006400088EE880E83E0981EA11CB11CE4CFFF90B9
:10065000EF90DF90CF90BF90AF909F908F900895D4
:100660002FB7F89460918703709188038091890374
:1006700090918A032FBF08950F931F930E94D80271
:10068000AB01BC018091820390918303A09184030C
:10069000B09185038A019B01081B190B2A0B3B0BA8
:1006A000D901C8010097A140B10520F580918203CE
:1006B00090918303A0918403B09185039A01281B34
:1006C000390BC901409382035093830360938403E1
:1006D00070938503E091B304E73090F4F0E0ED58B7
:1006E000FC4F0C945A127D03AF0326046304950358
:1006F000E90363048FEF9FEFE5CF84E08093B304B9
:100700008091B30462E070E0843010F063E070E048
:100710008091B604823009F464C1833009F463C166
:100720008FEF1F910F910C948D009C0127553A413A
:100730002339314110F481E0E1CF8B5693408F355E
:10074000914008F0BDC010927E0310927F0310927A
:1007500080031092810310927D0383E0CFCF10922B
:10076000B3049C012B523D402B3C384060F4109266
:100770007E0310927F0310928003109281031092E7
:100780007D0385E0BBCF855996408736944008F0BD
:10079000B7CF8091B1049091B204892B09F4B0CF06
:1007A0000E94300360939E0370939F038093A00385
:1007B0009093A10381E090E090939D0380939C032C
:1007C000E091B404F091B504309709F499CF0995FC
:1007D00097CF1092B304855A91408B31914008F025
:1007E0008FCF80917D03803210F482E087CF80919B
:1007F0007E0390917F03A0918003B091810340918B
:100800007E0350917F036091800370918103892F53
:100810009A2FAB2FBB2784279527A627B727992781
:10082000BB278F3F9105AF4FB10509F069CF80918C
:100830007E0390917F03A0918003B09181038A2F62
:1008400090E09093B2048093B104AACF25E0209366
:10085000B30440917E0350917F03609180037091B7
:100860008103769567955795479540937E035093FE
:100870007F03609380037093810320917D032F5F3A
:1008800020937D039C01205F34402D34334090F44D
:1008900080917E0390917F03A0918003B0918103AA
:1008A000B06880937E0390937F03A0938003B093FE
:1008B000810326CF855A91408B31914008F420CF97
:1008C0001092B3041DCF9C012F5A31092F353140AE
:1008D00048F580917D0380FD15C080917E03909145
:1008E0007F03A0918003B0918103880F991FAA1FF5
:1008F000BB1F816080937E0390937F03A09380034E
:10090000B093810380917D038F5F80937D038091FD
:100910007D038E3120F58091B304863009F41DCF1C
:1009200086E0ECCE8D5092408F35914048F6809114
:100930007E0390917F03A0918003B0918103880F83
:10094000991FAA1FBB1F80937E0390937F03A093E0
:100950008003B093810380917D038E5FD6CF409159
:100960007E0350917F036091800370918103909189
:100970007C03852F829586958770911104C08370C2
:1009800080937C039DCF20917C03837030E082179D
:10099000130609F095CF80917E0390917F03A0917B
:1009A0008003B09181039093B2048093B1040E94BC
:1009B000300360939E0370939F038093A0039093F2
:1009C000A10382E090E090939D0380939C03E091CB
:1009D000B404F091B504309709F472CF81E0099521
:1009E0006FCF80E09ECE81E09CCE0895CF92DF92C3
:1009F000EF92FF929B01672B11F421E030E092EF20
:100A0000980F8E3008F0892F8770582F5064F0E0CF
:100A1000E0E060E070E0CB0150937C0040917A0010
:100A2000406440937A0040917A0046FDFCCFA0914B
:100A3000780040917900D42ECA2E0D2C000CEE08BF
:100A4000FF086C0D7D1D8E1D9F1D31962E173F07D3
:100A500019F750E040E00E941D12A1E7B2E00E94A9
:100A60000A12DC01CB0127E0B695A79597958795EB
:100A70002A95D1F7FF90EF90DF90CF9008950F93D4
:100A80001F93CF93DF938B018330910511F58091F4
:100A90007B0381110BC081E080937B0361E089E0DF
:100AA0000E944A0261E08AE00E944A0261E0101658
:100AB00011060CF060E089E00E941802612F661FA9
:100AC0006627661F8AE0DF91CF911F910F910C94EA
:100AD0001802EC01CC0FDD1F6F3F710509F0A4F483
:100AE00061308FEF78079CF077FD13C0CD5DDE4F4E
:100AF00061E089810E941802B8018881DF91CF915D
:100B00001F910F910C947B020FEF10E0EFCF01E0EB
:100B10001FEFCD5DDE4F60E089810E9418026627DD
:100B20007727601B710BE9CFCF93DF93880F991F55
:100B3000880F991FDC01A55FBE4F12968D919C9185
:100B40001397689FF001699FF00D789FF00D1124B5
:100B50008D919C91689FE001699FD00D789FD00D89
:100B60001124809196039091970397FD29C080915D
:100B7000960390919703092E000CAA0BBB0B20E063
:100B800031E040E050E0281B390B4A0B5B0BDF01E2
:100B90000E941512672F782F892F992787FD9A9524
:100BA000FB01BF0190E080E00E943F0566277727A8
:100BB0006C1B7D0B81E090E0DF91CF910C943F05A1
:100BC0002091960330919703032E000C440B550B94
:100BD0003F5F4F4F5F4FDE010E941512672F782F46
:100BE000892F992787FD9A95EB01DBCF2F923F92B2
:100BF0004F925F926F927F928F929F92AF92BF922D
:100C0000CF92DF92EF92FF920F931F93CF93DF93D8
:100C1000CDB7DEB728970FB6F894DEBF0FBECDBFB5
:100C20008C011B018091B0008D839091B1009E8357
:100C30008091B30088872B01770F66087708809131
:100C40000001883049F18F3F09F4A2C0C301B2010D
:100C50000E94FD028D818093B0009E819093B1002F
:100C600088858093B30028960FB6F894DEBF0FBE38
:100C7000CDBFDF91CF911F910F91FF90EF90DF904B
:100C8000CF90BF90AF909F908F907F906F905F902C
:100C90004F903F902F900895E0E9F0E094919F836A
:100CA00097FDD4CF61E088E00E944A029F8199239A
:100CB00021F08F81823009F04AC14801B12CA12C6A
:100CC00060E072E18AE790E0A50198010E94EB11D3
:100CD00029833A834B835C8369017A0191E0C91AC5
:100CE000D108E108F1088FEFC816D104E104F1043E
:100CF00009F00CF401C160E472E48FE090E0A5011A
:100D000098010E94EB1169017A0191E0C91AD1089A
:100D1000E108F1088F81823009F0ABC082E09FEFDB
:100D2000C916D104E104F10409F00CF4DEC060E955
:100D300070ED83E090E0A50198010E94EB1169013C
:100D40007A0181E0C81AD108E108F10883E09FEF39
:100D5000C916D104E104F10409F00CF4C6C068E43A
:100D600078EE81E090E0A50198010E94EB11690105
:100D70007A0181E0C81AD108E108F1089FEFC9168D
:100D8000D104E104F10411F00CF097C084E0ADC08F
:100D900088E080930001E0E9F0E084918F838F3F49
:100DA00009F454CF813029F158F0823009F43FC062
:100DB0009F8197FD4BCF61E088E00E944A0279CF86
:100DC00014BC15BC84B5826084BD85B5816085BDC9
:100DD000E3EAF0E0E491F0E0EE0FFF1FEF56FF4F83
:100DE00085919491E7EBF0E0E491E09372031F8228
:100DF00059CF10928000109281008091810088600C
:100E00008093810080918100816080938100E3EA7A
:100E1000F0E0E491F0E0EE0FFF1FEF56FF4F8591F9
:100E20009491E7EBF0E0E491E09371033BCF1092F3
:100E3000B0001092B1008091B00082608093B00049
:100E40008091B10081608093B100E3EAF0E0E49129
:100E5000F0E0EE0FFF1FEF56FF4F859194919093B6
:100E6000900380938F03E7EBF0E0E491E09391032C
:100E700019CF8FEFC816D104E104F10409F00CF486
:100E800064C068E478EE81E090E0A50198010E94DA
:100E9000EB1169017A0191E0C91AD108E108F10862
:100EA0008F81882309F4E7C08FEFC816D104E104CD
:100EB000F10411F00CF0E8C069CF64E274EF80E057
:100EC00090E0A50194010E94EB1169017A0191E083
:100ED000C91AD108E108F1088FEFC816D104E1045E
:100EE000F10411F008F0B7C085E09091B100987F4F
:100EF000892B8093B10008C081E09F819111F5CFCB
:100F000095B5987F892B85BD2FEF3FEFA90141143F
:100F100051046104710409F043C09F81913009F4C8
:100F20005DC0923009F46CC0911190CEC7BC209383
:100F30007703309378034093790350937A03809139
:100F40006E00826080936E0081CE82E0D6CFB12C9D
:100F5000A12C60E072E18AE790E0A50198010E946F
:100F6000EB1169017A0181E0C81AD108E108F108A2
:100F7000C114D10491E0E906F104FCF491E08F8101
:100F8000813011F680918100887F892B80938100C8
:100F90002FEF3FEFA9014114510461047104F1F0F6
:100FA0009801220F331FD1010E94601228EE33E016
:100FB00040E050E00E941D12B0CF68E478EE81E07E
:100FC00090E0A50198010E94EB1169017A0181E08E
:100FD000C81AD108E108F10893E0D1CFD092890076
:100FE000C092880020937303309374034093750379
:100FF0005093760380916F00826080936F0026CEBD
:10100000C092B300209392033093930340939403D0
:10101000509395038091700082608093700016CE8B
:1010200084E09FEFC916D104E104F10409F008F44B
:1010300067CFC980DA80EB80FC808AE0F594E79482
:10104000D794C7948A95D1F781E0C81AD108E108EE
:10105000F10885E055CF62E17AE780E090E0A501F4
:1010600094010E94EB1169017A0181E0C81AD1084C
:10107000E108F1081CC083E09FEFC916D104E10428
:10108000F10409F00CF43CCF62E17AE780E090E0F3
:10109000A50194010E94EB1169017A0191E0C91A3E
:1010A000D108E108F1088F81882309F4B9CF86E0DF
:1010B0009FEFC916D104E104F10409F008F415CF3B
:1010C000C980DA80EB80FC809AE0F594E794D794AD
:1010D000C7949A95D1F781E0C81AD108E108F108C0
:1010E00087E003CFFC0185819681892B71F1A38173
:1010F000B4813FB7F8949C918281809589238C9329
:10110000858196810197F1F728E0462F50E0828192
:101110009C9160FF17C0892B8C93858196810197E4
:10112000F1F7BA0175956795215079F78C91928105
:10113000892B8C933FBF858196810197F1F781E0E0
:1011400090E0089580958923E7CF90E080E00895AE
:10115000EF92FF920F931F93CF93DF937C018B014C
:101160006EE785E894E00E94720861E0600F85E810
:1011700094E00E947208E7010E0D1F1D699185E839
:1011800094E00E947208C017D107C1F76FEE85E89E
:1011900094E00E94720868EC70E080E090E0DF91DB
:1011A000CF911F910F91FF90EF900C94FD02CF9380
:1011B000DF93EC018FEF90E00E94A10185E590E0C4
:1011C0000E94A10183E090E00E949C0182E090E0F7
:1011D0000E94A101CE0199270E949C018D2F90E0D1
:1011E000DF91CF910C949C01CF93C82F8FEF90E0AB
:1011F0000E94A10185E590E00E94A10182E090E0BB
:101200000E949C0181E090E00E94A1016C2F88EE79
:1012100093E0CF910C944F018FEF90E00E94A101D9
:1012200085E590E00E94A10160E088EE93E00C94D7
:101230004F01E82FF0E0ED55FC4FE081EC5FF0E06E
:10124000ED54FC4F918180810895FF920F931F937D
:10125000CF93DF93909397038093960380919603A7
:1012600090919703D0E0C0E08038910544F08FE77B
:1012700090E09093970380939603CFEFDFEF8091F8
:1012800096039091970380389F4F44F480E89FEF36
:101290009093970380939603CFEFDFEF009196032F
:1012A0001091970390E080E00E94D511081729F073
:1012B000602F90E080E00E94DD11CE01DF91CF91A0
:1012C0001F910F91FF9008951F920F920FB60F92EA
:1012D00011242F933F934F935F936F937F938F933B
:1012E0009F93AF93BF93EF93FF938091920390915D
:1012F0009303A0919403B0919503892B8A2B8B2B98
:10130000D1F190919103E0918F03F091900380814E
:10131000892780838091920390919303A0919403F5
:10132000B0919503181619061A061B069CF48091B5
:10133000920390919303A0919403B0919503019728
:10134000A109B1098093920390939303A09394030E
:10135000B0939503FF91EF91BF91AF919F918F91C2
:101360007F916F915F914F913F912F910F900FBEA1
:101370000F901F90189580910001E0E9F0E0E49152
:101380009FEF90930001E13051F030F0E23069F0CE
:1013900060E00E941802DECF10926E00F9CF9091AB
:1013A0006F009D7F90936F00F3CF909170009D7FB1
:1013B0009093700091E09093B0009091B100987F6D
:1013C00094609093B1001092B300E2CF1F920F92FD
:1013D0000FB60F9211242F933F934F935F936F9308
:1013E0007F938F939F93AF93BF93EF93FF9388EE79
:1013F00093E00E942D01FF91EF91BF91AF919F91DA
:101400008F917F916F915F914F913F912F910F90AD
:101410000FBE0F901F9018951F920F920FB60F924C
:1014200011242F938F939F93EF93FF93E091F803F1
:10143000F091F9038081E091FE03F091FF0382FDBA
:101440001BC09081809101048F5F8F7320910204F3
:10145000821741F0E0910104F0E0E851FC4F958FD4
:1014600080930104FF91EF919F918F912F910F90A5
:101470000FBE0F901F9018958081F4CF1F920F928E
:101480000FB60F9211242F933F938F939F93AF9397
:10149000BF938091870390918803A0918903B091B5
:1014A0008A033091860323E0230F2D3758F50196E8
:1014B000A11DB11D20938603809387039093880319
:1014C000A0938903B0938A0380918B0390918C033E
:1014D000A0918D03B0918E030196A11DB11D809343
:1014E0008B0390938C03A0938D03B0938E03BF91D5
:1014F000AF919F918F913F912F910F900FBE0F90C1
:101500001F90189526E8230F0296A11DB11DD2CF7A
:101510001F920F920FB60F9211242F933F934F9368
:101520005F936F937F938F939F93AF93BF93EF934B
:10153000FF93E0910401F09105010995FF91EF916E
:10154000BF91AF919F918F917F916F915F914F91DB
:101550003F912F910F900FBE0F901F9018951F92E3
:101560000F920FB60F9211242F933F934F935F93D7
:101570006F937F938F939F93AF93BF93EF93FF935B
:10158000E0910201F09103010995FF91EF91BF9164
:10159000AF919F918F917F916F915F914F913F910B
:1015A0002F910F900FBE0F901F9018951F920F92C2
:1015B0000FB60F9211242F933F934F935F936F9326
:1015C0007F938F939F93AF93BF93CF93DF93EF93CB
:1015D000FF9380917003C091B004D0E087FF24C0D6
:1015E0001092850010928400809170038F5F809329
:1015F000700380917003082E000C990B8C179D07C7
:1016000024F4809170038C30C4F180918400909117
:101610008500049680349C4908F47AC08091840047
:1016200090918500049676C080917003082E000C7E
:10163000990B8C179D07C4F6E09170038E2FEE0F67
:10164000990BFC01EE0FFF1FE80FF91FE457FB4F4A
:10165000808186FFC9CFE09170038E2FEE0F990B2A
:10166000FC01EE0FFF1FE80FF91FE457FB4F8081CD
:1016700060E08F730E941802B7CF209184003091F0
:101680008500E09170038E2FEE0F990BFC01EE0F99
:10169000FF1FE80FF91FE457FB4F81819281820FF2
:1016A000931F9093890080938800E09170038E2FA0
:1016B000EE0F990BFC01EE0FFF1FE80FF91FE45727
:1016C000FB4F808186FF11C0E09170038E2FEE0FDB
:1016D000990BFC01EE0FFF1FE80FF91FE457FB4FBA
:1016E000808161E08F730E941802FF91EF91DF917A
:1016F000CF91BF91AF919F918F917F916F915F91AA
:101700004F913F912F910F900FBE0F901F90189502
:1017100080E49CE990938900809388008FEF809308
:101720007003E3CF1092EB031092EA0388EE93E08C
:10173000A0E0B0E08093EC039093ED03A093EE0360
:10174000B093EF0380E493E09093E9038093E80380
:1017500085EC90E09093F5038093F40384EC90E0A3
:101760009093F7038093F60380EC90E09093F90355
:101770008093F80381EC90E09093FB038093FA034D
:1017800082EC90E09093FD038093FC0386EC90E064
:101790009093FF038093FE031092010410920204C1
:1017A000109203041092040482E593E0909386045F
:1017B0008093850461E088E00E94180261E088E07F
:1017C0000E944A02E7EBF0E0E491E0938704E3EA49
:1017D000F0E0E491F0E0EE0FFF1FEF56FF4F859130
:1017E000949190938904809388048DE991E090937B
:1017F0008B0480938A041092C70482E08093B6041D
:1018000086E492E09093B5048093B40460E082E0B3
:101810000E944A0262E070E080E00E948D00109217
:10182000B3041092B2041092B1048091C7048111E4
:1018300027C08EE690E09093070180930601E7EBC6
:10184000F4E020EC34E04FEF68EB7BE08091B004F3
:101850008C30C8F491E0980F9093B004808390E0AE
:10186000DC01AA0FBB1FA80FB91FA457BB4F1296CC
:101870007C936E93119733962E173F0739F708958F
:101880008CE291E0D8CF4083F6CFCF93DF9300D0A6
:1018900000D000D01F92CDB7DEB7789484B58260B7
:1018A00084BD84B5816084BD85B5826085BD85B504
:1018B000816085BD80916E00816080936E00109282
:1018C00081008091810082608093810080918100FD
:1018D000816080938100809180008160809380008E
:1018E0008091B10084608093B1008091B0008160EC
:1018F0008093B00080917A00846080937A00809118
:101900007A00826080937A0080917A00816080936F
:101910007A0080917A00806880937A001092C100EA
:1019200061E08DE00E944A0260E08DE00E941802B2
:1019300061E084E00E944A0261E087E00E944A027E
:1019400061E08CE00E944A0261E088E00E944A0265
:1019500083E084BD85BD91E0909380009BE09093EF
:1019600081008093B00084E08093B10090E080E03B
:101970000E94D51190E090939703809396038091F5
:10198000960390919703803891054CF080919603CF
:10199000909197039A95909397038093960362E3AF
:1019A00070E084EF91E00E94F605E091F803F09179
:1019B000F90382E08083E091F403F091F503108253
:1019C000E091F603F091F70380E180831092000428
:1019D000E091FC03F091FD0386E08083E091FA033F
:1019E000F091FB03808180618083E091FA03F091A4
:1019F000FB03808188608083E091FA03F091FB0310
:101A0000808180688083E091FA03F091FB038081FC
:101A10008F7D808347E150E064E573E088EE93E0DA
:101A20000E94AF0042E050E06CE673E088EE93E085
:101A30000E94AF00C0900801D0900901E0900A0117
:101A400064EB462E512C612C712C50E0252E50E079
:101A5000352E88EE93E00E940D01181619060CF041
:101A600076C088EE93E00E94EB00E091E70391E0FE
:101A70009E0F9093E703F0E0ED54FC4F808392308B
:101A800009F471C0933009F472C0913041F494E0CC
:101A9000909301018F3F09F454C01092E703209105
:101AA00001018091E703821708F44BC0A3EAB3E079
:101AB000E0E11D92EA95E9F70091B603003260F586
:101AC00030E1039FF0011124E45CFE4F43EA53E050
:101AD000BF01605F7F4F90E080E0A22FB0E0BF8346
:101AE000AE8311911123C1F0DA018D93AD0116344B
:101AF00009F450C00CF03FC0123409F447C014344C
:101B000009F44AC0DC0114962E813F812A173B0755
:101B1000B0F06E177F0729F70B3009F4CFC208F039
:101B20005BC0063009F494C208F044C0053008F0E8
:101B30007EC2023008F06EC2013009F45DC210921C
:101B4000E7038091E703843310F01092E703211438
:101B5000310409F47ECF0E941901882309F475CF5E
:101B60000E94000072CF853509F097CF98CF8D5F26
:101B70008093010194CF133559F0DC01149613378B
:101B800069F01C3409F0BECFCD01BCCF0196BACFAD
:101B90000296B8CF0496B6CF0896B4CF9D012D54C7
:101BA0003C4FD9010D900020E9F7821B930B8A0F5F
:101BB0009B1FA8CF083009F45FC208F44EC2093059
:101BC00009F46EC20A3009F0BACF80919603909161
:101BD00097030E94D708B3CF073109F4A0C2B0F52C
:101BE000043109F46FC2D0F4033109F0A8CFE091B9
:101BF000A303F0E0ED54FC4F61E084810E944A02AF
:101C0000A091A403B0E0AD54BC4FE091A303F0E079
:101C1000ED54FC4F14966C918481F9C1053109F49F
:101C20006AC2063109F08BCFE091A303F0E0ED54D6
:101C3000FC4F848160E0825F0E944A02E091A3032E
:101C4000F0E0ED54FC4F8481825F64C20B3109F4F3
:101C500091C208F0F8C0083109F477C20A3109F0DE
:101C60006ECFE091A303F0E0ED54FC4F048110E04F
:101C70005801AA0CBB1CF501E00FF11FE954FB4F02
:101C80008081282F30E0F901EE0FFF1FE20FF31FD4
:101C9000E457FB4F908196FD64C08C3008F061C022
:101CA000F801E75CFE4FF08061E08F2D0E944A0250
:101CB000D501A00FB11FA954BB4F8C91282F30E044
:101CC000F901EE0FFF1FE20FF31FE457FB4F3F2D0B
:101CD0003F73F32E9081907CF92AF08211961C922A
:101CE000119712961C922CE0622F0E944E12829F36
:101CF000B001112430E020E0AB01420F531FFA0184
:101D0000EE0FFF1FE40FF51FE457FB4F908196FD88
:101D100016C02F5F3F4F2C30310571F781110FC076
:101D20001092800082E080938100109285001092D2
:101D30008400B19A80916F00826080936F000A0DD9
:101D40001B1DF801E954FB4FE0818E2F90E0FC0150
:101D5000EE0FFF1FE80FF91FE457FB4F80818064EF
:101D60008083E091A303F0E0ED54FC4FE4818E2FDB
:101D700090E0FC01EE0FFF1FE80FF91FE954FB4F45
:101D8000F0808BE08F1508F44FC1828178E5A72E93
:101D900072E0B72EA81AB10887FDB394D501AA0F37
:101DA000BB1FAA0FBB1FBF83AE83818108E810E071
:101DB000081B110987FD1395000F111F000F111F3C
:101DC0004801012E000CAA08BB08E091A403F0E032
:101DD000ED54FC4FA481B0E0A53BB10514F0A4EB99
:101DE000B0E0EE81FF819F01FF0F440B550B2819D6
:101DF00039094A095B090E941512A30192010E9448
:101E0000EB11BA01A901480D591D6A1D7B1D401730
:101E1000510734F00E811F81401751070CF48A01DD
:101E200002501109000F111F2FB7F8948F2D90E069
:101E3000FC01EE0FFF1FE80FF91FE457FB4F128361
:101E400001832FBFF1C00C3109F4D2C1003809F071
:101E500076CE8FEF90E00E94A10185E590E00E9490
:101E6000A10186E090E00E94A10180E890E00E943C
:101E7000A10180919E0390919F03A091A003B09136
:101E8000A103892B8A2B8B2B09F43EC200919C0362
:101E900010919D034CE2842E99249394A12CB12C93
:101EA0000230110531F08090060190900701B12CAD
:101EB000A12C0E94300320919E0330919F034091FA
:101EC000A0035091A103621B730B840B950B681543
:101ED00079058A059B0508F0E4C10115110559F142
:101EE0001092C6041092C5048091B104023011050D
:101EF00009F083C1982F9770905A9093C4048695E7
:101F0000869586958051990B24E0880F991F2A9514
:101F1000E1F79093C1048093C0048091B2048F7163
:101F20008051990B34E0880F991F3A95E1F790930F
:101F3000C3048093C204B090C704BB2009F483C1DA
:101F40000230110509F07FC14091C0045091C104D5
:101F50002091C2043091C304BA0157FF04C0662720
:101F60007727641B750BC90137FF04C088279927A1
:101F7000821B930B860F971F883291050CF48CC13E
:101F8000DA0157FD1196B595A795E1E0A217B307C1
:101F90000CF0E0E0B90137FF02C06F5F7F4F75952D
:101FA0006795461757070CF4EE5FB90137FF02C07B
:101FB0006F5F7F4F759567957195619571094617AC
:101FC00057070CF4EC5F66277727621B730BA61785
:101FD000B7070CF4E85FF0E0E75DFE4FE081E093C7
:101FE000C504E33709F41BC108F012C1E13709F455
:101FF00051C19695879514C161E08DE00E944A0217
:10200000E091A303F0E0ED54FC4F64818DE00E9469
:1020100018020AC081E00E9419098C0180E00E9428
:102020001909B8010E94F6050E940C0988CDE091BB
:10203000A403F0E0ED54FC4F648170E0E091A30351
:10204000F0E0ED54FC4F848190E00E949405ECCFC9
:1020500070E060E090E080E0F8CF81E00E94190934
:10206000BC01E091A303F0E0ED54FC4F848181506A
:10207000990B0E943F05D8CF80E00E94190920915A
:10208000960330919703820F931F90939703809349
:10209000960380919603909197030E942509C4CFDF
:1020A00080E00E9419092091960330919703281B24
:1020B000390B3093970320939603EBCF80E00E9477
:1020C0001909EBCFE091A303F0E0ED54FC4F8481BC
:1020D00061E0825F0E944A02E091A403F0E0ED54C7
:1020E000FC4FA091A303B0E0AD54BC4F14968C916B
:1020F0006481825F8CCFE091A303F0E0ED54FC4F4C
:1021000060E084810E944A02E091A303F0E0ED5474
:10211000FC4F84810E94EF010E94F40810CDE091F1
:10212000A303F0E0ED54FC4F848160E0825F0E94E5
:102130004A02E091A303F0E0ED54FC4F848161E09A
:1021400070E0825F0E94F60444CDE091A303F0E0CA
:10215000ED54FC4F848160E0825F0E944A0281E07E
:102160000E941909BC01E091A303F0E0ED54FC4F7B
:102170008481E7CF8091A203811112C086E0898318
:102180008EE18A8362E070E0CE0101960E94A80889
:102190008AE08C8361E070E0CE0104960E94A8087A
:1021A000F1E0F093A203E091A403F0E0ED54FC4FC2
:1021B0008481E091A303F0E0ED54FC4F148121E110
:1021C0002C83882399F082E08D8362E070E0CE0159
:1021D00004960E94A808C982DA82EB821B8363E01E
:1021E00070E0CE0101960E94A8081ECF84E0ECCFDB
:1021F0008AE0898361E070E0F4CF8093C404109298
:10220000C3041092C2041092C1041092C00493CE71
:10221000E437D9F1E63709F0ECCECB0101C0CA01B1
:102220008F3F910519F010F08FEF90E08093C60476
:1022300032E0B31208C08091C404803621F480914A
:10224000C5048093C40410929D0310929C03809156
:10225000C40490E00E94A1010091C0041091C10447
:10226000C80199270E949C01812F90E00E949C0147
:102270000091C2041091C304C80199270E949C01D7
:10228000812F90E00E949C015ACC88279927841BBB
:10229000950BC6CFC901C4CF1092C5041092C604D5
:1022A000C7CF8091C404882371F21092C6041092A3
:1022B000C5041092C3041092C2041092C10410927B
:1022C000C0041092C40481E090E090939D03809339
:1022D0009C03E091B404F091B504309711F080E0D4
:1022E000099510929E0310929F031092A0031092E2
:1022F000A1030E9430036093980370939903809325
:102300009A0390939B039FCF0E9430030091980300
:102310001091990320919A0330919B03DC01CB012A
:10232000801B910BA20BB30B2091B1043091B2042E
:10233000232B79F0409106015091070170E060E095
:10234000481759076A077B0720F41092B2041092CD
:10235000B10427E0B695A795979587952A95D1F76B
:102360000097A105B10509F46ECF8F709927AA27B0
:10237000BB270097A105B10551F4E091B404F09199
:10238000B50481E0309709F45ECF09955CCF0197E1
:10239000A105B10509F057CFE091B404F091B5045F
:1023A000309709F450CF80E0F0CFF999FECF92BD7D
:1023B00081BDF89A992780B50895262FF999FECF07
:1023C0001FBA92BD81BD20BD0FB6F894FA9AF99A52
:1023D0000FBE01960895052E97FB1EF400940E94EF
:1023E000021257FD07D00E941D1207FC03D04EF4C5
:1023F0000C94021250954095309521953F4F4F4FC8
:102400005F4F089590958095709561957F4F8F4FA0
:102410009F4F08950E943F12A59F900DB49F900D6D
:10242000A49F800D911D11240895B7FF0C940A12EA
:102430000E940A12821B930B0895A1E21A2EAA1B76
:10244000BB1BFD010DC0AA1FBB1FEE1FFF1FA21764
:10245000B307E407F50720F0A21BB30BE40BF50B61
:10246000661F771F881F991F1A9469F760957095EA
:10247000809590959B01AC01BD01CF010895A29F6D
:10248000B001B39FC001A39F700D811D1124911D48
:10249000B29F700D811D1124911D0895991B79E043
:1024A00004C0991F961708F0961B881F7A95C9F7E4
:1024B00080950895EE0FFF1F0590F491E02D09948B
:1024C0000E943F12B7FF0895821B930B0895F89462
:0224D000FFCF3C
:1024D200FF04F504F5046E00030001010001000091
:1024E20000010001000000FFFFFFFFFFFF010001EC
:1024F20000FFFF050406070B0C737000710000005B
:1025020072750000007600777403090A000000006B
:102512000000000000000000000000004200000077
:102522000000000000000000000000005353000003
:1025320000000000000000000000000053530000F3
:1025420000000000000000000000000053530000E3
:1025520000000000000000000000000042420000F5
:102562000000000000000000000000000000000069
:1025720000000000000000000000000042530000C4
:1025820000000000000000000000000053000000F6
:1025920000000000000000000000000053000000E6
:1025A2000000000000000000000000000000000029
:1025B20000000000000000000000000053000000C6
:1025C2000000000000000000000000000000000009
:1025D20000000000000000000000000000000000F9
:1025E20000000000000000000000000000000000E9
:1025F20000000000000000000000000000000000D9
:1026020000000000000000000000000000000000C8
:1026120000000000000000000000000000000000B8
:1026220000000000000000000000000000000000A8
:102632000000000000000000000000004242000014
:102642000000000000000000000000004242000004
:102652000000000000000000000000004200000036
:102662000000000000000000000000004200000026
:102672000000000000000000000000004200000016
:1026820000000000000000000000000042530000B3
:102692000000000000000000000000000000000038
:1026A20000000000000000000000000042420000A4
:1026B2000000000000000000000000004242000094
:1026C2000000000000000000000000000000000008
:1026D20000000000000000000000000000000000F8
:1026E20000000000000000000000000000000000E8
:1026F20000000000000000000000000000000000D8
:1027020000000000000000000000000000000000C7
:102712004F01AF00DC00A6010D01EB00FF0000003D
:10272200000072085043206D6F64653A2052656D57
:102732006F636F6E526F626F312E31000D0A0000AF
:00000001FF
