:100000000C946E000C94CD0C0C94FA0C0C9496008D
:100010000C9496000C9496000C9496000C94D213B9
:100020000C9496000C9496000C9496000C94EB02A1
:100030000C9496000C9496000C9496000C949600E8
:100040000C94270D0C9496000C9485100C94B7100A
:100050000C9496000C9496000C9496000C949600C8
:100060000C94B2050C949600230727072307270753
:10007000230727072A0700000008000201000003E9
:100080000407000000000000000001020408102026
:10009000408001020408102001020408102004041A
:1000A0000404040404040202020202020303030320
:1000B00003030000000023002600290000000000C8
:1000C000250028002B0000000000240027002A0043
:1000D000020006018505940BE7109D0B11241FBE3D
:1000E000CFEFD8E0DEBFCDBF11E0A0E0B1E0ECE3A0
:1000F000FAE202C005900D92A237B107D9F723E0CA
:10010000A2E7B1E001C01D92AE37B207E1F710E0FF
:10011000CAEDD0E004C02297FE010E94D514C23D72
:10012000D107C9F70E942B110C9411150C940000F3
:10013000DC01ED91FC910190F081E02D0994DC014E
:10014000ED91FC910190F081E02D0994CF93DF9324
:10015000EC016FEF70E08CEC92E00E949F0065E58F
:1001600070E08CEC92E00E949F0063E070E08CEC09
:1001700092E00E94980062E070E08CEC92E00E94B5
:100180009F00BE0177278CEC92E00E9498006D2FB3
:1001900070E08CEC92E0DF91CF910C9498006FEFBF
:1001A00070E08CEC92E00E949F0065E570E08CECC2
:1001B00092E00E949F0060E070E08CEC92E00C9472
:1001C0009F000E94EC0961E08DE00E94E10E26E0B4
:1001D00040E052EC61E070E08CEC92E00E94231071
:1001E00064EF71E080E090E00E94A00D60E08DE09F
:1001F0000E94E10E62E370E084EF91E00E94B10999
:1002000068E071E08CEC92E00C947C1187EA91E05C
:100210000E94A7038AEA91E00E94A7038DEA91E079
:100220000C94A703CF93C82F6FEF70E08CEC92E093
:100230000E949F0065E570E08CEC92E00E949F00B8
:1002400062E070E08CEC92E00E94980061E070E067
:100250008CEC92E00E949F006C2F8CEC92E0CF918E
:100260000C94BE0FCF93DF938CEC92E00E94400F72
:10027000181619060CF0ACC18CEC92E00E94590FD4
:10028000E091720191E09E0F90937201F0E0ED58C1
:10029000FE4F8083923051F0933069F0913071F4C9
:1002A00094E0909304018F3F19F408C0853531F034
:1002B0001092720103C08D5F8093040190917201CE
:1002C00080910401981708F47DC1809176018B30EC
:1002D00009F4E9C0E0F5853009F4C0C0B0F482301B
:1002E00009F4A9C058F4813009F06AC161E08DE0D9
:1002F0000E94A80E609177018DE0EBC0833009F475
:100300009AC0843009F497C05BC1883009F4B4C046
:10031000A8F4863009F4A9C0873009F051C1609172
:10032000790170E0762F662780917801682B8091A3
:10033000770190E001970E94440A40C1893009F496
:10034000A4C08A3009F03CC10E94FC0AEFC087318A
:1003500009F4CEC008F5843109F4B0C068F48331E3
:1003600009F02EC161E0809177010E94A80E609192
:10037000780180917701ADC0853109F4ADC0863137
:1003800009F01EC18091770160E0825F0E94A80E93
:1003900080917701825FA7C08B3109F4F9C038F4EE
:1003A000883109F4B0C08A3109F4C3C009C18C3165
:1003B00009F402C1803809F003C16FEF70E08CECE2
:1003C00092E00E949F0065E570E08CEC92E00E9454
:1003D0009F0066E070E08CEC92E00E949F0060E875
:1003E00070E08CEC92E00E949F000E94A109BC0189
:1003F0008CEC92E00E949F000E94A709EC01BC01D6
:1004000077278CEC92E00E9498006D2F70E08CECC6
:1004100092E00E9498000E94AC09EC01BC01772791
:100420008CEC92E00E9498006D2F70E08CEC92E0D2
:100430000E949800C5C060917A0170E0762F66270F
:1004400080917901682B8091780190E0982F88271E
:1004500020917701822B0E94B109B0C06091780190
:1004600070E08091770190E004C060E070E080E08F
:1004700090E00E94DF0AA2C08091780190E0982F5E
:10048000882720917701822B0BC08091780190E022
:10049000982F882720917701822B9195819591093A
:1004A0000E94410B8BC08091780190E0982F8827A3
:1004B00020917701822B0E94010B80C080917701EF
:1004C00061E0825F0E94A80E8091770160917801BF
:1004D000825F0E94E10E72C060E0809177010E940D
:1004E000A80E809177010E94170F0E94120168C028
:1004F0008091770160E0825F0E94A80E8091770171
:1005000061E070E010C08091770160E0825F0E943E
:10051000A80E6091790170E0762F662780917801AE
:10052000682B80917701825F0E94510B0E94A60088
:1005300047C02091770130E0C901880F991F820FD1
:10054000931F89559E4F0E94DF04811111C0209195
:10055000770130E0F901E75EFE4F608170E0C9018C
:10056000880F991F820F931F89559E4F0E94410447
:100570006091780170E02091770130E0C901880F27
:10058000991F820F931F89559E4F0E947A0416C0AF
:100590008091B001811104C08EE190E00E94110CA5
:1005A00081E08093B0016091780170E080917701E3
:1005B00090E00E94D20B02C00E94FE0B0E94CF006E
:1005C0001092720180917201843310F010927201C6
:1005D000DF91CF9108951F920F920FB60F921124C1
:1005E0002F933F934F935F936F937F938F939F933B
:1005F000AF93BF93EF93FF938091B20187FF05C044
:1006000010928500109284001AC02091B201332705
:1006100027FD30958091B10190E0281739077CF4CF
:100620008091B201992787FD9095FC01EE0FFF1F85
:10063000E80FF91FED54FE4F808186FD15C08091B3
:10064000B2018F5F8093B2012091B201332727FD61
:1006500030958091B10190E028173907BCF4809162
:10066000B2018C305CF112C08091B201992787FDF4
:100670009095FC01EE0FFF1FE80FF91FED54FE4FA0
:10068000808160E08F730E94E10ED9CF8091840059
:1006900090918500049680349C4918F480E49CE98C
:1006A00005C0809184009091850004969093890004
:1006B000809388008FEF8093B20138C0209184002E
:1006C000309185008091B201992787FD9095FC01BA
:1006D000EE0FFF1FE80FF91FED54FE4F818192814D
:1006E000820F931F90938900809388008091B201BC
:1006F000992787FD9095FC01EE0FFF1FE80FF91F6A
:10070000ED54FE4F808186FF11C08091B201992780
:1007100087FD9095FC01EE0FFF1FE80FF91FED54C8
:10072000FE4F808161E08F730E94E10EFF91EF9197
:10073000BF91AF919F918F917F916F915F914F91F9
:100740003F912F910F900FBE0F901F901895209101
:10075000B1012C30A0F431E0320F3093B101FC0133
:100760002083822F90E0FC01EE0FFF1FE80FF91F9E
:10077000ED54FE4F88EB9BE09283818308952FEF29
:10078000FC0120830895DF92EF92FF920F931F9355
:10079000CF93DF93EC01D62E7A01890188818C30CA
:1007A00008F066C061E08D2D0E94A80E8881A82FF8
:1007B000B0E0FD01EE0FFF1FEA0FFB1FED54FE4FEF
:1007C0002D2D2F739081907C922B908360E272E0AC
:1007D0006E197F0977FF02C06D5F7F4F7595679532
:1007E00075956795698340E659E0401B510B57FFAB
:1007F00002C04D5F5F4F55954795559547954A8384
:100800006CE00E9486149CE0899FB001112420E0D6
:1008100030E0A901460F571FFA01EE0FFF1FE40F4A
:10082000F51FED54FE4F908196FD16C02F5F3F4F90
:100830002C30310571F781110FC01092800082E0D9
:10084000809381001092850010928400B19A80916B
:100850006F00826080936F00888190E0FC01EE0F52
:10086000FF1FE80FF91FED54FE4F808180648083E5
:100870008881DF91CF911F910F91FF90EF90DF90D2
:10088000089520E639E040E252E00C94C303FC01F5
:1008900080818C3070F5918128E830E0291B310986
:1008A00097FD3395220F331F220F331F62177307F3
:1008B0007CF0928128E532E0291B310997FD3395C0
:1008C000220F331F220F331F621773070CF49B0193
:1008D00022503109220F331F4FB7F89490E0FC01EA
:1008E000EE0FFF1FE80FF91FED54FE4F32832183F7
:1008F0004FBF08954F925F926F927F92AF92BF92D7
:10090000CF92DF92EF92FF920F931F93CF93DF93DB
:10091000EC01603282E078070CF040C077FD06C041
:10092000653B71052CF064EB70E002C060E070E0A4
:10093000898128E830E0281B310987FD3395220F93
:10094000331F220F331F5901CC24B7FCC094DC2C79
:10095000882777FD8095982F2A8148E552E0421B31
:10096000510927FD5395440F551F440F551F2A0168
:10097000662457FC6094762C7F926F925F924F9220
:1009800014EBE12EF12C00E010E020E030E0A901B2
:100990000E942E140F900F900F900F90CE01DF91B8
:1009A000CF911F910F91FF90EF90DF90CF90BF906C
:1009B000AF907F906F905F904F900C944704FC0134
:1009C000808190E0FC01EE0FFF1FE80FF91FED544E
:1009D000FE4F808186FB882780F90895809106026A
:1009E00090E020910702821B91090895209107024F
:1009F00080910602281750F4E22FF0E0E85FFD4FE7
:100A0000808190E02F5F2093070208958FEF9FEF82
:100A10000895E091070280910602E81730F4F0E0B3
:100A2000E85FFD4F808190E008958FEF9FEF08957C
:100A30000895CF92DF92EF92FF920F931F93CF937F
:100A4000DF937C01CB018A012091E301222389F00D
:100A5000EB016B01C40ED51ECC15DD0569F0699163
:100A6000D701ED91FC910190F081E02DC70109952E
:100A7000F3CF642F0E948905C801DF91CF911F91A8
:100A80000F91FF90EF90DF90CF900895CF93DF9379
:100A90001F92CDB7DEB769832091E3012223D1F005
:100AA0002091E401203240F021E030E0FC0133836A
:100AB000228380E090E015C08091E501E82FF0E00E
:100AC000EA51FE4F998190838F5F8093E501809377
:100AD000E40105C061E0CE0101960E94890581E034
:100AE00090E00F90DF91CF910895FC011382128264
:100AF00048EE53E060E070E044835583668377837B
:100B000080E291E091838083089587ED91E00C94D9
:100B10007505613298F420919502243089F4609330
:100B20004A02FC018CE492E0DC012A2F281B2617E4
:100B300018F421912D93F9CF80E0089581E0089574
:100B400082E0089585ED8093BC008091BC0084FD17
:100B5000FCCF10929502089585EC8093BC00109212
:100B6000950208951F920F920FB60F9211242F93A2
:100B70003F934F935F936F937F938F939F93AF9325
:100B8000BF93EF93FF938091B900887F803609F47B
:100B90009CC068F5883209F45BC090F4803109F498
:100BA00054C038F4882309F4F5C0883009F44DC0E6
:100BB000F5C0883109F44CC0803209F45DC0EEC044
:100BC000803409F468C048F4803309F455C0883390
:100BD00009F0E4C080932802A8C0803509F44FC012
:100BE000883509F45DC0883409F0D8C0D5C088398B
:100BF00009F4C6C0A8F4883709F467C038F4883609
:100C000009F463C0803709F460C0C8C0883809F4AB
:100C1000B7C0803909F45FC0803809F0BFC05BC03D
:100C2000803B09F485C038F4803A09F466C0883AFC
:100C300009F47EC0B3C0803C09F4A6C0883C09F426
:100C4000A3C0883B09F489C0A9C08091940210C058
:100C500090916D0280916C02981770F5E0916D0291
:100C600081E08E0F80936D02F0E0E259FD4F8081AC
:100C70008093BB0085EC85C0809328028DC0E091F5
:100C80006D0281E08E0F80936D028091BB00F0E0D9
:100C9000E259FD4F808390916D0280916C026DC08E
:100CA000E0916D0281E08E0F80936D028091BB0018
:100CB000F0E0E259FD4F80838091930281116CC076
:100CC00081E08093920284EA60C083E08093950281
:100CD00010922902CFCF80912902803208F050C0B3
:100CE000E091290281E08E0F809329028091BB0060
:100CF000F0E0E65DFD4F8083BDCF80912902803218
:100D000030F4E0912902F0E0E65DFD4F10820E9490
:100D1000A2056091290270E0E0918E02F0918F02AD
:100D20008AE292E00995109229020E94AC0536C031
:100D300084E08093950210924B0210924A02E09157
:100D40009002F0919102099580914A02811105C0AB
:100D500081E080934A0210924C02E0914B0281E0C4
:100D60008E0F80934B02F0E0E45BFD4F8081809317
:100D7000BB0090914B0280914A02981708F47ACFF9
:100D800085E88093BC000AC085EC8093BC0010927B
:100D9000950204C0109228020E94A205FF91EF91D3
:100DA000BF91AF919F918F917F916F915F914F9183
:100DB0003F912F910F900FBE0F901F901895CF92DB
:100DC000DF92EF92FF920F931F93CF93DF9382E016
:100DD0000E94170FC82F0E947D0D0091B302109141
:100DE000B4022091B5023091B6026B017C01C01AA9
:100DF000D10AE20AF30AC114D10441E0E406F10485
:100E000060F40091B3021091B4022091B5023091C8
:100E1000B6029B01201B310B02C02FEF3FEF609306
:100E2000B3027093B4028093B5029093B6024091DE
:100E3000BC0250E04730510508F0B9C0FA01EC5C43
:100E4000FF4F0C94D314C13009F0B1C094C1C1114B
:100E5000AEC08DC1C9018F5A91098F359140E8F418
:100E60008091BB0280FD15C08091B7029091B802BD
:100E7000A091B902B091BA02880F991FAA1FBB1F97
:100E800081608093B7029093B802A093B902B093A7
:100E9000BA028091BB028F5F1CC02D5032402F35AB
:100EA0003140F0F48091B7029091B802A091B9025C
:100EB000B091BA02880F991FAA1FBB1F8093B70277
:100EC0009093B802A093B902B093BA028091BB028A
:100ED0008E5F8093BB028091BB028E3120F44DC1A6
:100EE000C11149C177C01092BC028091B7029091A4
:100EF000B802A091B902B091BA0220919E02492F86
:100F0000429546954770211104C0437040939E025C
:100F100034C120919E02437050E030E042175307E5
:100F200009F02BC125E0E6EAF2E0EF0119922A95DB
:100F3000E9F7282F2770205A2093AA02282F2695F8
:100F40002695269530E020513109F4E0220F331F19
:100F5000FA95E1F73093A7022093A602892F8F71AB
:100F600090E04097A4E0880F991FAA95E1F790932D
:100F7000A9028093A8020E94710D6093AF02709342
:100F8000B0028093B1029093B20282E090E090931D
:100F9000A00280939F0261E08DE0DF91CF911F91CD
:100FA0000F91FF90EF90DF90CF900C94E10E809125
:100FB000BC02823069F128F4882361F0813061F04D
:100FC000DCC0843009F49AC008F445C0853009F4C7
:100FD000D2C0D3C081E0CCC0C90187559A418339C2
:100FE000914110F482E0C4C02B5633402F3531407C
:100FF00008F0C1C086E08093BC021092B702109244
:10100000B8021092B9021092BA021092BB02B5C097
:10101000C9018B529D408B3C984060F41092B702FE
:101020001092B8021092B9021092BA021092BB024A
:1010300083E09EC0255936402736344008F097C0DB
:101040000E94710D6093AF027093B0028093B10261
:101050009093B2028CC0255A31402B31314008F0B8
:101060008AC08091BB02803208F446C08091B702EA
:101070009091B802A091B902B091BA024091B70222
:101080005091B8026091B9027091BA02892F9A2FDB
:10109000AB2FBB2784279527A627B7279927BB27E0
:1010A0008F3F9105AF4FB10509F065C085E0E6EAD5
:1010B000F2E0DF011D928A95E9F78091B7029091E5
:1010C000B802A091B902B091BA02A093AA020E94FC
:1010D000710D6093AF027093B0028093B102909350
:1010E000B20281E090E09093A00280939F0261E0C1
:1010F0008DE00E94E10E3FC084E03AC083E080931F
:10110000BC028091B7029091B802A091B902B0914F
:10111000BA02B695A795979587958093B702909355
:10112000B802A093B902B093BA028091BB028F5F5C
:101130008093BB02C901805F94408D34934090F44A
:101140008091B7029091B802A091B902B091BA0211
:10115000B0688093B7029093B802A093B902B0939D
:10116000BA020BC0255A31402B31314030F085E0B6
:101170008093BC0202C01092BC02DF91CF911F91FC
:101180000F91FF90EF90DF90CF900895CF92DF9274
:10119000EF92FF920F931F938091AF029091B00254
:1011A000A091B102B091B202892B8A2B8B2B09F44A
:1011B00066C08091AA02803638F08CE2C82EDD2409
:1011C000D394E12CF12C05C00EE6C02ED12CE12CDD
:1011D000F12C0E94710D0091AF021091B00220918C
:1011E000B1023091B202601B710B820B930B209104
:1011F000A5026C157D058E059F05D0F421110EC04A
:101200008091AA02882351F081E090E09093A0029F
:1012100080939F0261E08DE00E94E10E85E0E6EAA6
:10122000F2E0A1EAB2E001900D928A95E1F77AC06E
:10123000222309F477C085E0E1EAF2E0DF011D92A4
:101240008A95E9F781E090E09093A00280939F0255
:1012500060E08DE00E94E10E1092AF021092B002A9
:101260001092B1021092B2020E94710D6093AB0213
:101270007093AC028093AD029093AE0253C0809104
:10128000AB029091AC02A091AD02B091AE02892B5D
:101290008A2B8B2B51F40E94710D6093AB027093DB
:1012A000AC028093AD029093AE020E94710DC0908B
:1012B000AB02D090AC02E090AD02F090AE026C199F
:1012C0007D098E099F092091AA02222361F06F36C1
:1012D00071058105910538F025E0E6EAF2E0DF01CD
:1012E0001D922A95E9F7DC01CB0117E0B695A79589
:1012F000979587951A95D1F70097A105B10591F0BB
:101300008F709927AA27BB270097A105B10511F473
:1013100061E005C00197A105B10521F460E08DE011
:101320000E94E10E80919F029091A0021092A00273
:1013300010929F021F910F91FF90EF90DF90CF903E
:1013400008950E94C6088091A50290E008958091BA
:10135000A1029091A20208958091A3029091A4020B
:1013600008957F928F929F92AF92BF92CF92DF9219
:10137000EF92FF920F931F93CF93DF9320EBA22E58
:10138000B12CF501708001EB10E0F8018080C3EB17
:10139000D0E098806B01EE24D7FCE094FE2CA701EE
:1013A0009601BC0188E00E948E11C701B6010E941F
:1013B000A00DF5017082F80180829882DF91CF91B3
:1013C0001F910F91FF90EF90DF90CF90BF90AF9063
:1013D0009F908F907F90089561E084E00E94A80E16
:1013E00061E087E00E94A80E61E08CE00E94A80EF8
:1013F00061E088E00E94A80E61E08DE00E94A80EE6
:1014000083E084BD85BD91E0909380009BE0909344
:1014100081008093B00084E08093B10060E082E0BE
:101420000E94A80E41E050E06FED76E080E00E945F
:10143000AD0C1092BC0285E0E6EAF2E0DF011D92FD
:101440008A95E9F780E090E00E94FB1490E0909389
:10145000BE028093BD028091BD029091BE02803891
:1014600091054CF08091BD029091BE029A959093A7
:10147000BE028093BD02089561E089E00E94A80E3B
:1014800061E08AE00C94A80E0F931F93CF93DF9333
:10149000EB0183309105E1F480919D02811105C03B
:1014A00081E080939D020E943C0A61E01C161D06AB
:1014B0000CF060E089E00E94E10E6D2F661F662748
:1014C000661F8AE0DF91CF911F910F910C94E10E7E
:1014D0008C01000F111F6F3F710509F03CF4613062
:1014E0008FEF780774F077FF03C00DC0CFEFD0E027
:1014F0000C5B1E4F61E0F80181810E94E10EBE018C
:101500000DC0C1E0DFEF0C5B1E4F60E0F801818190
:101510000E94E10E662777276C1B7D0BF801808106
:10152000DF91CF911F910F910C94200ECF93DF93F9
:10153000EC01FB018091BD029091BE0297FD1BC0A2
:101540008091BD029091BE02AA2797FDA095BA2F67
:1015500020E031E040E050E0281B390B4A0B5B0BE8
:10156000DB010E94E414BB2797FDBA95A92F982FA1
:10157000872FFC0115C02091BD023091BE02442787
:1015800037FD4095542F3F5F4F4F5F4FDE010E9464
:10159000E414BB2797FDBA95A92F982F872FEC014C
:1015A000BF0180E090E00E94440A662777276C1B09
:1015B0007D0B81E090E0DF91CF910C94440A9B0178
:1015C000FC01EE0FFF1FEE0FFF1FE45DFE4F828157
:1015D0009381289FB001299F700D389F700D1124B1
:1015E00080819181AC01249FC001259F900D349F83
:1015F000900D11240C94960A8091BD029091BE0228
:101600000895FF920F931F93CF93DF939093BE02A1
:101610008093BD028091BD029091BE0280389105F9
:101620004CF08FE790E09093BE028093BD02CFEF25
:10163000DFEF02C0C0E0D0E08091BD029091BE0219
:1016400080389F4F44F480E89FEF9093BE028093D0
:10165000BD02CFEFDFEF0091BD021091BE0280E02E
:1016600090E00E94FB14081729F0602F80E090E0C2
:101670000E940315CE01DF91CF911F910F91FF9032
:1016800008952091BD023091BE02280F391F30937A
:10169000BE022093BD028091BD029091BE020C94C7
:1016A000010BAF92BF92CF92DF92EF92FF921F9306
:1016B000CF93DF93182FEB01209711F4C1E0D0E016
:1016C000A12CB12CC12CD12C7601812F0E94030EAC
:1016D000AC01662757FD6095762FC40ED51EE61E19
:1016E000F71E8FEFA81AB80AAC16BD0671F7950160
:1016F00040E050E0C701B6010E949214A1E7B2E0B9
:101700000E94D914E7E09695879577956795EA95B5
:10171000D1F7CB01DF91CF911F91FF90EF90DF9038
:10172000CF90BF90AF90089520E835E240E050E0C0
:1017300068E086E992E00C94590C86E992E00C94FA
:10174000A70CEF92FF920F931F93CF93DF938C011F
:101750007B016EE786E992E00E94260C61E06E0D47
:1017600086E992E00E94260CE801CE01801B910BD5
:101770008E159F0534F4699186E992E00E94260C4B
:10178000F4CF6FEE86E992E00E94260C68EC70E0E0
:1017900080E090E0DF91CF911F910F91FF90EF904B
:1017A0000C94A00D1F93CF93DF9300D000D01F9215
:1017B000CDB7DEB7182F6093050181E18C83672BCD
:1017C00011F082E001C084E08D8362E070E0CE0120
:1017D00004960E94A10B83E089831A821B8363E035
:1017E00070E0CE0101960E94A10B0F900F900F9018
:1017F0000F900F90DF91CF911F910895CF93DF93BA
:101800001F92CDB7DEB7109205018AE0898361E0AF
:1018100070E0CE0101960E94A10B0F90DF91CF9155
:101820000895CF93DF9300D0CDB7DEB796E09983CC
:101830008A8362E070E0CE0101960E94A10B0E94B3
:10184000FE0B0F900F90DF91CF910895FC018581E1
:101850009681892B59F1A381B4813FB7F8949C916B
:101860008281809589238C93858196810197F1F7F8
:1018700028E082819C9160FF03C0982B9C9303C059
:10188000809589238C93858196810197F1F76695E0
:10189000215079F78C919281892B8C933FBF858160
:1018A00096810197F1F781E090E0089580E090E063
:1018B0000895EF92FF921F93CF93DF9300D000D053
:1018C000CDB7DEB77C01162FAEE4B1E0FC01B183E9
:1018D000A08361E0812F29833A834B835C830E943C
:1018E000E10E61E0812F0E94A80E812F90E0FC01A3
:1018F000E657FF4FE491D7011296EC93FC01E256B4
:10190000FF4FE491F0E0EE0FFF1FE454FF4F85918D
:101910009491F7019483838360E079E08DE390E014
:1019200029813A814B815C810E94B4142350310992
:10193000D70116963C932E9315970F900F900F900A
:101940000F90DF91CF911F91FF90EF9008952EE4BB
:1019500031E0FC013183208308958230E8F4E82FE0
:10196000F0E0EE0FFF1FE154FD4F71836083813083
:1019700041F0809169008C7F842B80936900E89A04
:10198000089580916900440F551F440F551F837FB0
:10199000842B80936900E99A08951F920F920FB6E5
:1019A0000F9211242F933F934F935F936F937F93E5
:1019B0008F939F93AF93BF93EF93FF938091BF0259
:1019C0009091C002892B29F0E091BF02F091C002F2
:1019D0000995FF91EF91BF91AF919F918F917F9169
:1019E0006F915F914F913F912F910F900FBE0F908C
:1019F0001F9018951F920F920FB60F9211242F93DC
:101A00003F934F935F936F937F938F939F93AF9386
:101A1000BF93EF93FF938091C1029091C202892BF3
:101A200029F0E091C102F091C2020995FF91EF9176
:101A3000BF91AF919F918F917F916F915F914F91E6
:101A40003F912F910F900FBE0F901F9018951F92EE
:101A50000F920FB60F9211242F933F938F939F9362
:101A6000AF93BF938091C4029091C502A091C6022A
:101A7000B091C7023091C30223E0230F2D3720F429
:101A80000196A11DB11D05C026E8230F0296A11DD8
:101A9000B11D2093C3028093C4029093C502A0930A
:101AA000C602B093C7028091C8029091C902A0916A
:101AB000CA02B091CB020196A11DB11D8093C8024C
:101AC0009093C902A093CA02B093CB02BF91AF9189
:101AD0009F918F913F912F910F900FBE0F901F906C
:101AE00018952FB7F8946091C4027091C502809147
:101AF000C6029091C7022FBF08953FB7F894809116
:101B0000C8029091C902A091CA02B091CB0226B539
:101B1000A89B05C02F3F19F00196A11DB11D3FBF25
:101B20006627782F892F9A2F620F711D811D911DB5
:101B300042E0660F771F881F991F4A95D1F70895D5
:101B4000CF92DF92EF92FF92CF93DF936B017C01F4
:101B50000E947D0DEB01C114D104E104F10489F070
:101B60000E9475140E947D0D6C1B7D0B683E7340B6
:101B700090F381E0C81AD108E108F108C851DC4FA0
:101B8000EACFDF91CF91FF90EF90DF90CF90089553
:101B9000789484B5826084BD84B5816084BD85B548
:101BA000826085BD85B5816085BDEEE6F0E080810F
:101BB00081608083E1E8F0E0108280818260808330
:101BC000808181608083E0E8F0E0808181608083B3
:101BD000E1EBF0E0808184608083E0EBF0E08081E5
:101BE00081608083EAE7F0E0808184608083808187
:101BF000826080838081816080838081806880832F
:101C00001092C10008958E3008F08E508770209198
:101C1000060190E4299F90011124822B80937C007F
:101C200080917A00806480937A0080917A0086FDAA
:101C3000FCCF809178002091790090E0922B08955C
:101C40001F93CF93DF93182FEB0161E00E94A80E42
:101C5000209711F460E004C0CF3FD10539F461E072
:101C6000812FDF91CF911F910C94E10EE12FF0E0D5
:101C7000EA58FF4FE491E330F9F048F4E130B9F06D
:101C8000E230A1F584B5806284BDC8BD34C0E730C0
:101C9000E9F0E83019F1E43049F580918000806284
:101CA00080938000D0938B00C0938A0024C084B5B9
:101CB000806884BDC7BD1FC080918000806880930C
:101CC0008000D0938900C093880015C08091B00037
:101CD00080688093B000C093B3000DC08091B000C5
:101CE00080628093B000C093B40005C0C038D105B5
:101CF0000CF0B5CFAFCFDF91CF911F910895833016
:101D000081F028F4813099F08230A1F00895873075
:101D1000A9F08830B9F08430D1F4809180008F7DB3
:101D200003C0809180008F7780938000089584B5F0
:101D30008F7702C084B58F7D84BD08958091B000F7
:101D40008F7703C08091B0008F7D8093B00008959D
:101D5000CF93DF9390E0FC01E657FF4F2491FC0105
:101D6000E256FF4F8491882349F190E0880F991F34
:101D7000FC01EA53FF4FA591B49184549F4FFC019D
:101D8000C591D4919FB7611108C0F8948C912095AA
:101D900082238C93888182230AC0623051F4F894A4
:101DA0008C91322F309583238C938881822B88836A
:101DB00004C0F8948C91822B8C939FBFDF91CF91BC
:101DC00008950F931F93CF93DF931F92CDB7DEB784
:101DD000282F30E0F901EA58FF4F8491F901E657C6
:101DE000FF4F1491F901E256FF4F04910023C9F00F
:101DF000882321F069830E947F0E6981E02FF0E043
:101E0000EE0FFF1FE454FF4FA591B4919FB7F894D4
:101E10008C91611103C01095812301C0812B8C939B
:101E20009FBF0F90DF91CF911F910F910895CF9396
:101E3000DF93282F30E0F901EA58FF4F8491F90130
:101E4000E657FF4FD491F901E256FF4FC491CC23DE
:101E500091F081110E947F0EEC2FF0E0EE0FFF1F3A
:101E6000EE54FF4FA591B4912C912D2381E090E089
:101E700021F480E002C080E090E0DF91CF910895EE
:101E8000FC01818D228D90E0805C9F4F821B910927
:101E90008F7399270895FC01918D828D981731F0E9
:101EA000828DE80FF11D858D90E008958FEF9FEFF3
:101EB0000895FC01918D828D981761F0828DDF016C
:101EC000A80FB11D5D968C91928D9F5F9F73928F2D
:101ED00090E008958FEF9FEF08958DED90E1892BAD
:101EE00049F080E090E0892B29F00E94DD108111FB
:101EF0000C9400000895FC01848DDF01A80FB11D32
:101F0000A35ABF4F2C91848D90E001968F7399272F
:101F1000848FA689B7892C93A089B1898C9180641C
:101F20008C93938D848D981306C00288F389E02DDD
:101F300080818F7D80830895CF93DF93EC01888D1E
:101F40008823C9F0EA89FB89808185FD05C0A889BD
:101F5000B9898C9186FD0FC00FB607FCF5CF808143
:101F600085FFF2CFA889B9898C9185FFEDCFCE018D
:101F70000E947B0FE7CFDF91CF910895CF92DF9240
:101F8000FF920F931F93CF93DF931F92CDB7DEB7CE
:101F90006C0181E0D60158968C9358975B969C9182
:101FA0005B975C968C915C97981307C05096ED9167
:101FB000FC915197808185FD2EC0F601038D10E0C4
:101FC0000F5F1F4F0F731127F02EF601848DF8124B
:101FD00011C00FB607FCF9CFD6015096ED91FC91D8
:101FE0005197808185FFF1CFC60169830E947B0FE5
:101FF0006981EBCF838DE80FF11DE35AFF4F6083BA
:10200000D6015B960C935B975296ED91FC9153979A
:10201000808180620CC0D6015696ED91FC91579755
:1020200060835096ED91FC9151978081806480830C
:1020300081E090E00F90DF91CF911F910F91FF9081
:10204000DF90CF900895BF92CF92DF92EF92FF92F0
:10205000CF93DF93EC016A017B01B22EE889F98905
:1020600082E08083411581EE580761057105A1F07A
:1020700060E079E08DE390E0A70196010E94921460
:1020800021503109410951095695479537952795B2
:10209000211580E1380798F0E889F989108260E815
:1020A00074E88EE190E0A70196010E9492142150FD
:1020B0003109410951095695479537952795EC8582
:1020C000FD853083EE85FF852083188EEC89FD89A0
:1020D000B082EA89FB89808180618083EA89FB89FB
:1020E000808188608083EA89FB8980818068808321
:1020F000EA89FB8980818F7D8083DF91CF91FF907A
:10210000EF90DF90CF90BF9008951F920F920FB67F
:102110000F9211242F938F939F93EF93FF93E0914E
:10212000DC02F091DD028081E091E202F091E302B5
:1021300082FD12C090818091E5028F5F8F732091A4
:10214000E602821751F0E091E502F0E0E453FD4F22
:10215000958F8093E50201C08081FF91EF919F915F
:102160008F912F910F900FBE0F901F9018951F9277
:102170000F920FB60F9211242F933F934F935F93BB
:102180006F937F938F939F93AF93BF93EF93FF933F
:102190008CEC92E00E947B0FFF91EF91BF91AF9189
:1021A0009F918F917F916F915F914F913F912F916F
:1021B0000F900FBE0F901F9018958CEC92E00E942C
:1021C000400F21E0892B09F420E0822F089510921E
:1021D000CF021092CE0288EE93E0A0E0B0E08093B0
:1021E000D0029093D102A093D202B093D30284E59F
:1021F00091E09093CD028093CC0285EC90E0909397
:10220000D9028093D80284EC90E09093DB02809313
:10221000DA0280EC90E09093DD028093DC0281ECA6
:1022200090E09093DF028093DE0282EC90E0909346
:10223000E1028093E00286EC90E09093E3028093C9
:10224000E2021092E5021092E6021092E70210926A
:10225000E802089508950E94C80D0E942A110E9464
:10226000E100CDE6DFE00E9432012097E1F30E9419
:102270006D0FF9CFCF92DF92EF92FF920F931F93E2
:10228000CF93DF936C017A01EB01E60EF71E00E0BD
:1022900010E0CE15DF0561F06991D601ED91FC915A
:1022A0000190F081E02DC6010995080F191FF1CFAB
:1022B000C801DF91CF911F910F91FF90EF90DF90B8
:1022C000CF9008956115710581F0DB010D9000201C
:1022D000E9F7AD0141505109461B570BDC01ED9167
:1022E000FC910280F381E02D099480E090E0089554
:1022F00060E671E00C9462110F931F93CF93DF930C
:10230000EC010E9462118C01CE010E947811800FB5
:10231000911FDF91CF911F910F9108953F924F929E
:102320005F926F927F928F929F92AF92BF92CF9265
:10233000DF92EF92FF920F931F93CF93DF9300D022
:1023400000D0CDB7DEB78B0129013A01909107018A
:10235000981721F09F3F09F0DAC104C0E0EDF0E0EA
:10236000349081C080930701E0EDF0E0E491EF3F0D
:1023700009F4CDC1E13031F1E23009F44BC0E11193
:1023800071C014BC15BC94B5926094BD95B59160B4
:1023900095BD282F30E0F901E256FF4FE491F0E0BF
:1023A000EE0FFF1FE454FF4F459154915093790372
:1023B00040937803F901E657FF4F24912093770368
:1023C000312C53C0109280001092810090918100B6
:1023D000986090938100909181009160909381002A
:1023E000282F30E0F901E256FF4FE491F0E0EE0FC4
:1023F000FF1FE454FF4F4591549150937203409353
:102400007103F901E657FF4F2491209370033324A1
:1024100033942BC01092B0001092B1009091B00094
:1024200092609093B0009091B10091609093B10050
:10243000282F30E0F901E256FF4FE491F0E0EE0F73
:10244000FF1FE454FF4F4591549150936B03409309
:102450006A03F901E657FF4F24912093690352E084
:10246000352E03C03E2E37FC52C161E00E94A80EFB
:102470004801A12CB12C832D8D7F09F0C7C060E0ED
:1024800072E18AE790E0A50194010E94B4142983C7
:102490003A834B835C8369017A0181E0C81AD108D1
:1024A000E108F1089FEFC916D104E104F10409F035
:1024B00008F49AC060E472E48FE090E0A501940112
:1024C0000E94B41469017A01E1E0CE1AD108E10852
:1024D000F108F2E03F1219C08FEFC816D104E104F1
:1024E000F10409F008F48AC060E970ED83E090E03F
:1024F000A50194010E94B41469017A0191E0C91AFE
:10250000D108E108F10883E001C082E0EFEFCE16C8
:10251000D104E104F10409F008F467C068E478EE3E
:1025200081E090E0A50194010E94B41469017A0150
:10253000F1E0CF1AD108E108F1083320E1F082E0A0
:1025400038121BC09FEFC916D104E104F10409F051
:1025500008F4DBC064E274EF80E090E0A501940130
:102560000E94B41469017A01E1E0CE1AD108E108B1
:10257000F10885E003C083E001C084E0FFEFCF16DF
:10258000D104E104F10489F180F162E17AE780E0AD
:1025900090E0A50194010E94B41469017A0181E0E0
:1025A000C81AD108E108F108311002C084E001C066
:1025B00086E09FEFC916D104E104F104B1F0A8F060
:1025C000C980DA80EB80FC809AE0F594E794D79498
:1025D000C7949A95D1F7E1E0CE1AD108E108F10845
:1025E000332031F087E00BC081E0332011F007C0C9
:1025F00085E095B5987F982B95BD38C082E0909185
:10260000B100987F982B9093B10030C060E072E1E8
:102610008AE790E0A50194010E94B41469017A014F
:10262000F1E0CF1AD108E108F108C114D10481E02A
:10263000E806F10488F068E478EE81E090E0A50116
:1026400094010E94B41469017A0191E0C91AD10879
:10265000E108F10893E001C091E0E1E03E1206C01C
:1026600080918100887F892B8093810041145104DF
:102670006104710471F0D801AA0FBB1FA30192017C
:102680000E94D91428EE33E040E050E00E949214FA
:1026900003C02FEF3FEFA901F1E03F16A1F082E068
:1026A000381619F1311033C0C7BC20937A03309328
:1026B0007B0340937C0350937D0380916E00826086
:1026C00080936E0024C0D0928900C092880020932D
:1026D0007303309374034093750350937603809192
:1026E0006F00826080936F0012C0C092B30020938D
:1026F0006C0330936D0340936E0350936F0380918E
:10270000700082608093700002C084E078CF0F90E8
:102710000F900F900F90DF91CF911F910F91FF902D
:10272000EF90DF90CF90BF90AF909F908F907F9071
:102730006F905F904F903F900895813039F018F07E
:10274000823051F0089510926E00089580916F00CC
:102750008D7F80936F000895809170008D7F8093AE
:10276000700081E08093B0008091B100887F846028
:102770008093B1001092B3000895CF93C82F809139
:1027800007018C1307C0E0EDF0E084919FEF909378
:10279000070101C08FEF0E949D1360E08C2FCF9145
:1027A0000C94E10E1F920F920FB60F9211242F93EB
:1027B0003F934F935F936F937F938F939F93AF93C9
:1027C000BF93EF93FF9380916C0390916D03A09161
:1027D0006E03B0916F03892B8A2B8B2B51F1909153
:1027E0006903E0916A03F0916B03808189278083FC
:1027F00080916C0390916D03A0916E03B0916F0373
:10280000181619061A061B06C4F480916C039091E1
:102810006D03A0916E03B0916F030197A109B109F7
:1028200080936C0390936D03A0936E03B0936F033A
:1028300004C0809107010E94BD13FF91EF91BF91E9
:10284000AF919F918F917F916F915F914F913F9148
:102850002F910F900FBE0F901F9018954F925F927F
:102860006F927F92AF92BF92CF92DF92EF92FF92E0
:102870000F931F93CF93DF93CDB7DEB729013A01B2
:10288000621B730B840B950B29893A894B895C89F0
:102890002A193B094C095D09298B3A8B4B8B5C8BC0
:1028A0009B01AC0169897A898B899C890E94761485
:1028B000E418F50806091709A80197010E94B41445
:1028C0002A0D3B1D4C1D5D1DCA01B901DF91CF9141
:1028D0001F910F91FF90EF90DF90CF90BF90AF903E
:1028E0007F906F905F904F9008950895DB018F93D4
:1028F0009F930E94D914BF91AF91A29F800D911D0B
:10290000A39F900DB29F900D11240895991B79E01B
:1029100004C0991F961708F0961B881F7A95C9F76F
:1029200080950895A1E21A2EAA1BBB1BFD010DC0C4
:10293000AA1FBB1FEE1FFF1FA217B307E407F5076F
:1029400020F0A21BB30BE40BF50B661F771F881F4B
:10295000991F1A9469F760957095809590959B01E1
:10296000AC01BD01CF010895052E97FB1EF4009424
:102970000E94CB1457FD07D00E94921407FC03D08D
:102980004EF40C94CB1450954095309521953F4FC3
:102990004F4F5F4F089590958095709561957F4F4B
:1029A0008F4F9F4F0895EE0FFF1F0590F491E02D7C
:1029B00009940E94EC14A59F900DB49F900DA49FC4
:1029C000800D911D11240895B7FF0C94D9140E9415
:1029D000D914821B930B0895A29FB001B39FC0012D
:1029E000A39F700D811D1124911DB29F700D811D3B
:1029F0001124911D0895F999FECF92BD81BDF89AD9
:102A0000992780B50895262FF999FECF1FBA92BD58
:102A100081BD20BD0FB6F894FA9AF99A0FBE0196BF
:102A2000089510E0CAEDD0E004C0FE010E94D51464
:0C2A30002296CC3DD107C9F7F894FFCFE7
:102A3C0001000000040101FF5043206D6F64653AF2
:102A4C00206D426F74312E300003090A0000000023
:102A5C0046051905EE04F6040905180501000100E8
:102A6C000000010001000000FFFFFFFFFFFF01005D
:102A7C000100FFFF050406070B0C00000000260CEC
:102A8C0000000000BE0F3A11400F590F4B0F9C0F66
:102A9C000D0A006E616E00696E66006F7666002E20
:022AAC00000028
:00000001FF
