:100000000C946E000C94C40A0C94F10A0C949600A3
:100010000C9496000C9496000C9496000C94C911C4
:100020000C9496000C9496000C9496000C949202FA
:100030000C9496000C9496000C9496000C949600E8
:100040000C941E0B0C9496000C947C0E0C94AE0E2B
:100050000C9496000C9496000C9496000C949600C8
:100060000C942E040C9496009F05A3059F05A305F0
:100070009F05A305A605000000080002010000037B
:100080000407000000000000000001020408102026
:10009000408001020408102001020408102004041A
:1000A0000404040404040202020202020303030320
:1000B00003030000000023002600290000000000C8
:1000C000250028002B0000000000240027002A0043
:1000D000020006010104100ADE0E190A11241FBED7
:1000E000CFEFD8E0DEBFCDBF11E0A0E0B1E0E4E6A5
:1000F000F5E202C005900D92AE36B107D9F723E0C4
:10010000AEE6B1E001C01D92A937B207E1F710E0F9
:10011000CAEDD0E004C02297FE010E946912C23DE0
:10012000D107C9F70E94220F0C94A5120C9400006D
:10013000DC01ED91FC910190F081E02D0994DC014E
:10014000ED91FC910190F081E02D09946FEF70E04A
:1001500087EC92E00E949F0065E570E087EC92E0FA
:100160000E949F0060E070E087EC92E00C949F009A
:10017000CF93DF93EC016FEF70E087EC92E00E9489
:100180009F0065E570E087EC92E00E949F0063E0CD
:1001900070E087EC92E00E94980062E070E087ECEB
:1001A00092E00E949F00BE01772787EC92E00E94B8
:1001B00098006D2F70E087EC92E0DF91CF910C9466
:1001C00098000E94680861E08DE00E94D80C26E04B
:1001D00040E052EC61E070E087EC92E00E941A0E81
:1001E00064EF71E080E090E00E94970B60E08DE0AA
:1001F0000E94D80C62E370E084EF91E00E942D0829
:1002000067E071E087EC92E00C94730F83EA91E071
:100210000E944E0386EA91E00E944E0389EA91E033
:100220000C944E03CF93C82F6FEF70E087EC92E0F1
:100230000E949F0065E570E087EC92E00E949F00BD
:1002400062E070E087EC92E00E94980061E070E06C
:1002500087EC92E00E949F006C2F87EC92E0CF9198
:100260000C94B50DCF93DF9387EC92E00E94370D8D
:10027000181619060CF053C187EC92E00E94500D3D
:10028000E0916E0191E09E0F90936E01F0E0E159D4
:10029000FE4F8083923051F0933069F0913071F4C9
:1002A00094E0909304018F3F19F408C0853531F034
:1002B00010926E0103C08D5F8093040190916E01D6
:1002C00080910401981708F424C18091720189304B
:1002D00009F4BDC040F5843009F489C080F482304F
:1002E00009F485C008F083C0813009F010C161E0D5
:1002F0008DE00E949F0C609173018DE0CDC086302F
:1003000009F48FC008F486C0873009F491C08830A2
:1003100009F0FDC08091740190E0982F882720910A
:100320007301822B9FC0853109F4BBC0B8F48B30B8
:1003300009F49EC008F499C0833109F4A4C0843143
:1003400009F0E5C08091730161E0825F0E949F0C1B
:100350008091730160917401825F9EC0873109F4BE
:10036000B6C008F4A6C0883109F4BCC0803809F0D2
:10037000CEC06FEF70E087EC92E00E949F0065E5D1
:1003800070E087EC92E00E949F0066E070E087ECEE
:1003900092E00E949F0060E870E087EC92E00E948B
:1003A0009F000E941D08BC0187EC92E00E949F0004
:1003B0000E942308EC01BC01772787EC92E00E94A1
:1003C00098006D2F70E087EC92E00E9498000E94E8
:1003D0002808EC01BC01772787EC92E00E94980086
:1003E0006D2F70E087EC92E00E94980090C06091C1
:1003F000760170E0762F662780917501682B8091D9
:10040000740190E0982F882720917301822B0E941D
:100410002D0844C06091740170E08091730190E0F8
:1004200004C060E070E080E090E00E945B0936C0AC
:100430006091750170E0762F662780917401682BBA
:100440008091730190E001970E94C00827C08091BD
:10045000740190E0982F882720917301822B919549
:10046000819591090E94BD0919C00E9478094DC06B
:100470008091740190E0982F882720917301822B3E
:100480000E947D090BC061E0809173010E949F0C66
:1004900060917401809173010E94D80C0E94A600A3
:1004A00036C060E0809173010E949F0C80917301BF
:1004B00009C08091730160E0825F0E949F0C80916F
:1004C0007301825F0E940E0D0E94120120C0809174
:1004D000730160E0825F0E949F0C8091730161E074
:1004E00070E010C08091730160E0825F0E949F0CF9
:1004F0006091750170E0762F662780917401682BFA
:1005000080917301825F0E94CD090E94B800109211
:100510006E0180916E01843310F010926E01DF91B4
:10052000CF9108951F920F920FB60F9211242F931F
:100530003F934F935F936F937F938F939F93AF936B
:10054000BF93EF93FF938091AD0187FF05C0109299
:100550008500109284001AC02091AD01332727FD39
:1005600030958091AC0190E0281739077CF4809198
:10057000AD01992787FD9095FC01EE0FFF1FE80F55
:10058000F91FE255FE4F808186FD15C08091AD01B7
:100590008F5F8093AD012091AD01332727FD30950A
:1005A0008091AC0190E028173907BCF48091AD012F
:1005B0008C305CF112C08091AD01992787FD909538
:1005C000FC01EE0FFF1FE80FF91FE255FE4F80817F
:1005D00060E08F730E94D80CD9CF809184009091F5
:1005E0008500049680349C4918F480E49CE905C099
:1005F0008091840090918500049690938900809367
:1006000088008FEF8093AD0138C020918400309135
:1006100085008091AD01992787FD9095FC01EE0F33
:10062000FF1FE80FF91FE255FE4F81819281820F73
:10063000931F90938900809388008091AD01992742
:1006400087FD9095FC01EE0FFF1FE80FF91FE255A3
:10065000FE4F808186FF11C08091AD01992787FDF3
:100660009095FC01EE0FFF1FE80FF91FE255FE4FBA
:10067000808161E08F730E94D80CFF91EF91BF9150
:10068000AF919F918F917F916F915F914F913F912A
:100690002F910F900FBE0F901F9018952091AC01D5
:1006A0002C30A0F431E0320F3093AC01FC012083F8
:1006B000822F90E0FC01EE0FFF1FE80FF91FE255BB
:1006C000FE4F88EB9BE09283818308952FEFFC011E
:1006D000208308958091010290E020910202821B04
:1006E000910908952091020280910102281750F487
:1006F000E22FF0E0ED5FFD4F808190E02F5F2093CF
:10070000020208958FEF9FEF0895E0910202809119
:100710000102E81730F4F0E0ED5FFD4F808190E0DA
:1007200008958FEF9FEF08950895CF92DF92EF9293
:10073000FF920F931F93CF93DF937C01CB018A012C
:100740002091DE01222389F0EB016B01C40ED51E3E
:10075000CC15DD0569F06991D701ED91FC9101900F
:10076000F081E02DC7010995F3CF642F0E940504A5
:10077000C801DF91CF911F910F91FF90EF90DF9013
:10078000CF900895CF93DF931F92CDB7DEB76983E3
:100790002091DE012223D1F02091DF01203240F0B0
:1007A00021E030E0FC013383228380E090E015C03B
:1007B0008091E001E82FF0E0EF51FE4F99819083A6
:1007C0008F5F8093E0018093DF0105C061E0CE017F
:1007D00001960E94050481E090E00F90DF91CF9197
:1007E0000895FC011382128248EE53E060E070E04D
:1007F00044835583668377838CE191E09183808382
:10080000089582ED91E00C94F103613298F4209107
:100810009002243089F460934502FC0187E492E061
:10082000DC012A2F281B261718F421912D93F9CFCC
:1008300080E0089581E0089582E0089585ED809339
:10084000BC008091BC0084FDFCCF10929002089502
:1008500085EC8093BC001092900208951F920F9235
:100860000FB60F9211242F933F934F935F936F9383
:100870007F938F939F93AF93BF93EF93FF93809159
:10088000B900887F803609F49CC068F5883209F485
:100890005BC090F4803109F454C038F4882309F423
:1008A000F5C0883009F44DC0F5C0883109F44CC05A
:1008B000803209F45DC0EEC0803409F468C048F4A9
:1008C000803309F455C0883309F0E4C080932302D3
:1008D000A8C0803509F44FC0883509F45DC088345C
:1008E00009F0D8C0D5C0883909F4C6C0A8F4883743
:1008F00009F467C038F4883609F463C0803709F416
:1009000060C0C8C0883809F4B7C0803909F45FC036
:10091000803809F0BFC05BC0803B09F485C038F463
:10092000803A09F466C0883A09F47EC0B3C0803CBE
:1009300009F4A6C0883C09F4A3C0883B09F489C027
:10094000A9C080918F0210C09091680280916702C7
:10095000981770F5E091680281E08E0F809368022D
:10096000F0E0E759FD4F80818093BB0085EC85C0A6
:10097000809323028DC0E091680281E08E0F809306
:1009800068028091BB00F0E0E759FD4F80839091B1
:100990006802809167026DC0E091680281E08E0F6D
:1009A000809368028091BB00F0E0E759FD4F80839F
:1009B00080918E0281116CC081E080938D0284EA67
:1009C00060C083E08093900210922402CFCF809188
:1009D0002402803208F050C0E091240281E08E0FA2
:1009E000809324028091BB00F0E0EB5DFD4F80839B
:1009F000BDCF80912402803230F4E0912402F0E0F7
:100A0000EB5DFD4F10820E941E046091240270E095
:100A1000E0918902F0918A0285E292E009951092B4
:100A200024020E94280436C084E080939002109231
:100A3000460210924502E0918B02F0918C020995DA
:100A400080914502811105C081E08093450210929A
:100A50004702E091460281E08E0F80934602F0E06B
:100A6000E95BFD4F80818093BB00909146028091AD
:100A70004502981708F47ACF85E88093BC000AC035
:100A800085EC8093BC001092900204C01092230267
:100A90000E941E04FF91EF91BF91AF919F918F91A2
:100AA0007F916F915F914F913F912F910F900FBE6A
:100AB0000F901F901895CF92DF92EF92FF920F93B5
:100AC0001F93CF93DF9382E00E940E0DC82F0E94E8
:100AD000740B0091AE021091AF022091B0023091E0
:100AE000B1026B017C01C01AD10AE20AF30AC114F7
:100AF000D10441E0E406F10460F40091AE021091EB
:100B0000AF022091B0023091B1029B01201B310B4A
:100B100002C02FEF3FEF6093AE027093AF0280935D
:100B2000B0029093B1024091B70250E047305105B6
:100B300008F0B9C0FA01EC5CFF4F0C946712C130A9
:100B400009F0B1C094C1C111AEC08DC1C9018F5AA5
:100B500091098F359140E8F48091B60280FD15C06F
:100B60008091B2029091B302A091B402B091B5020B
:100B7000880F991FAA1FBB1F81608093B2029093B8
:100B8000B302A093B402B093B5028091B6028F5F16
:100B90001CC02D5032402F353140F0F48091B2020C
:100BA0009091B302A091B402B091B502880F991F41
:100BB000AA1FBB1F8093B2029093B302A093B4020A
:100BC000B093B5028091B6028E5F8093B602809199
:100BD000B6028E3120F44DC1C11149C177C01092C7
:100BE000B7028091B2029091B302A091B402B09189
:100BF000B50220919902492F4295469547702111DF
:100C000004C043704093990234C12091990243700B
:100C100050E030E04217530709F02BC125E0E1EA2C
:100C2000F2E0EF0119922A95E9F7282F2770205A50
:100C30002093A502282F26952695269530E0205151
:100C40003109F4E0220F331FFA95E1F73093A20245
:100C50002093A102892F8F7190E04097A4E0880F24
:100C6000991FAA95E1F79093A4028093A3020E9492
:100C7000680B6093AA027093AB028093AC029093CE
:100C8000AD0282E090E090939B0280939A0261E033
:100C90008DE0DF91CF911F910F91FF90EF90DF904A
:100CA000CF900C94D80C8091B702823069F128F46F
:100CB000882361F0813061F0DCC0843009F49AC08F
:100CC00008F445C0853009F4D2C0D3C081E0CCC05F
:100CD000C90187559A418339914110F482E0C4C01B
:100CE0002B5633402F35314008F0C1C086E0809349
:100CF000B7021092B2021092B3021092B402109294
:100D0000B5021092B602B5C0C9018B529D408B3C12
:100D1000984060F41092B2021092B3021092B402A2
:100D20001092B5021092B60283E09EC0255936405B
:100D30002736344008F097C00E94680B6093AA02DF
:100D40007093AB028093AC029093AD028CC0255A95
:100D500031402B31314008F08AC08091B602803298
:100D600008F446C08091B2029091B302A091B402FF
:100D7000B091B5024091B2025091B3026091B402B9
:100D80007091B502892F9A2FAB2FBB278427952707
:100D9000A627B7279927BB278F3F9105AF4FB105EE
:100DA00009F065C085E0E1EAF2E0DF011D928A9575
:100DB000E9F78091B2029091B302A091B402B09190
:100DC000B502A093A5020E94680B6093AA027093DB
:100DD000AB028093AC029093AD0281E090E09093DF
:100DE0009B0280939A0261E08DE00E94D80C3FC084
:100DF00084E03AC083E08093B7028091B202909180
:100E0000B302A091B402B091B502B695A79597959B
:100E100087958093B2029093B302A093B402B093EB
:100E2000B5028091B6028F5F8093B602C901805FE0
:100E300094408D34934090F48091B2029091B3022B
:100E4000A091B402B091B502B0688093B2029093C1
:100E5000B302A093B402B093B5020BC0255A31403F
:100E60002B31314030F085E08093B70202C0109200
:100E7000B702DF91CF911F910F91FF90EF90DF901C
:100E8000CF900895CF92DF92EF92FF920F931F932E
:100E90008091AA029091AB02A091AC02B091AD02F8
:100EA000892B8A2B8B2B09F466C08091A502803692
:100EB00038F08CE2C82EDD24D394E12CF12C05C04F
:100EC0000EE6C02ED12CE12CF12C0E94680B009173
:100ED000AA021091AB022091AC023091AD02601BCE
:100EE000710B820B930B2091A0026C157D058E0572
:100EF0009F05D0F421110EC08091A502882351F0E6
:100F000081E090E090939B0280939A0261E08DE0F3
:100F10000E94D80C85E0E1EAF2E0ACE9B2E0019091
:100F20000D928A95E1F77AC0222309F477C085E013
:100F3000ECE9F2E0DF011D928A95E9F781E090E0AB
:100F400090939B0280939A0260E08DE00E94D80CFF
:100F50001092AA021092AB021092AC021092AD0253
:100F60000E94680B6093A6027093A7028093A80268
:100F70009093A90253C08091A6029091A702A091DC
:100F8000A802B091A902892B8A2B8B2B51F40E94C5
:100F9000680B6093A6027093A7028093A8029093B7
:100FA000A9020E94680BC090A602D090A702E09010
:100FB000A802F090A9026C197D098E099F09209161
:100FC000A502222361F06F3671058105910538F085
:100FD00025E0E1EAF2E0DF011D922A95E9F7DC0164
:100FE000CB0117E0B695A795979587951A95D1F7F8
:100FF0000097A105B10591F08F709927AA27BB270B
:101000000097A105B10511F461E005C00197A105A4
:10101000B10521F460E08DE00E94D80C80919A0225
:1010200090919B0210929B0210929A021F910F9135
:10103000FF90EF90DF90CF9008950E94420780913B
:10104000A00290E0089580919C0290919D020895E5
:1010500080919E0290919F0208957F928F929F921D
:10106000AF92BF92CF92DF92EF92FF920F931F93B6
:10107000CF93DF9320EBA22EB12CF501708001EB12
:1010800010E0F8018080C3EBD0E098806B01EE2483
:10109000D7FCE094FE2CA7019601BC0188E00E94D9
:1010A000850FC701B6010E94970BF5017082F80108
:1010B00080829882DF91CF911F910F91FF90EF90E6
:1010C000DF90CF90BF90AF909F908F907F900895CA
:1010D00061E084E00E949F0C61E087E00E949F0C29
:1010E00061E08CE00E949F0C61E088E00E949F0C10
:1010F00061E08DE00E949F0C83E084BD85BD91E09E
:10110000909380009BE0909381008093B00084E0F6
:101110008093B10060E082E00E949F0C41E050E0CB
:101120006BE575E080E00E94A40A1092B70285E0AA
:10113000E1EAF2E0DF011D928A95E9F780E090E0B4
:101140000E948F1290E09093B9028093B802809130
:10115000B8029091B902803891054CF08091B802A4
:101160009091B9029A959093B9028093B80208952C
:1011700061E089E00E949F0C61E08AE00C949F0C82
:101180000F931F93CF93DF93EB0183309105E1F42D
:1011900080919802811105C081E0809398020E949D
:1011A000B80861E01C161D060CF060E089E00E94A2
:1011B000D80C6D2F661F6627661F8AE0DF91CF91DE
:1011C0001F910F910C94D80C8C01000F111F6F3FD1
:1011D000710509F03CF461308FEF780774F077FF08
:1011E00003C00DC0CFEFD0E0005C1E4F61E0F801FE
:1011F00081810E94D80CBE010DC0C1E0DFEF005C10
:101200001E4F60E0F80181810E94D80C6627772785
:101210006C1B7D0BF8018081DF91CF911F910F91A5
:101220000C94170CCF93DF93EC01FB018091B80273
:101230009091B90297FD1BC08091B8029091B902BC
:10124000AA2797FDA095BA2F20E031E040E050E0BA
:10125000281B390B4A0B5B0BDB010E947812BB2762
:1012600097FDBA95A92F982F872FFC0115C02091C3
:10127000B8023091B902442737FD4095542F3F5FA3
:101280004F4F5F4FDE010E947812BB2797FDBA9542
:10129000A92F982F872FEC01BF0180E090E00E94DA
:1012A000C008662777276C1B7D0B81E090E0DF91FB
:1012B000CF910C94C0089B01FC01EE0FFF1FEE0FB5
:1012C000FF1FE85DFE4F82819381289FB001299F17
:1012D000700D389F700D112480819181AC01249F85
:1012E000C001259F900D349F900D11240C9412097C
:1012F0008091B8029091B9020895FF920F931F93C5
:10130000CF93DF939093B9028093B8028091B80293
:101310009091B902803891054CF08FE790E090935E
:10132000B9028093B802CFEFDFEF02C0C0E0D0E097
:101330008091B8029091B90280389F4F44F480E8C0
:101340009FEF9093B9028093B802CFEFDFEF009147
:10135000B8021091B90280E090E00E948F12081745
:1013600029F0602F80E090E00E949712CE01DF917B
:10137000CF911F910F91FF9008952091B802309165
:10138000B902280F391F3093B9022093B802809117
:10139000B8029091B9020C947D09AF92BF92CF929E
:1013A000DF92EF92FF921F93CF93DF93182FEB0101
:1013B000209711F4C1E0D0E0A12CB12CC12CD12C8C
:1013C0007601812F0E94FA0BAC01662757FD6095CC
:1013D000762FC40ED51EE61EF71E8FEFA81AB80A88
:1013E000AC16BD0671F7950140E050E0C701B601AB
:1013F0000E942612A1E7B2E00E946D12E7E09695E6
:10140000879577956795EA95D1F7CB01DF91CF91D5
:101410001F91FF90EF90DF90CF90BF90AF90089515
:1014200020E835E240E050E068E081E992E00C9489
:10143000500A81E992E00C949E0AFC018581968114
:10144000892B59F1A381B4813FB7F8949C91828193
:10145000809589238C93858196810197F1F728E007
:1014600082819C9160FF03C0982B9C9303C0809560
:1014700089238C93858196810197F1F76695215098
:1014800079F78C919281892B8C933FBF85819681CE
:101490000197F1F781E090E0089580E090E00895F1
:1014A000EF92FF921F93CF93DF9300D000D0CDB780
:1014B000DEB77C01162FAAE4B1E0FC01B183A08362
:1014C00061E0812F29833A834B835C830E94D80C8F
:1014D00061E0812F0E949F0C812F90E0FC01E65774
:1014E000FF4FE491D7011296EC93FC01E256FF4FB7
:1014F000E491F0E0EE0FFF1FE454FF4F85919491CB
:10150000F7019483838360E079E08DE390E02981A3
:101510003A814B815C810E94481223503109D701E6
:1015200016963C932E9315970F900F900F900F9057
:10153000DF91CF911F91FF90EF9008952AE431E061
:10154000FC013183208308958230E8F4E82FF0E035
:10155000EE0FFF1FE654FD4F71836083813041F031
:10156000809169008C7F842B80936900E89A0895AC
:1015700080916900440F551F440F551F837F842BB2
:1015800080936900E99A08951F920F920FB60F9207
:1015900011242F933F934F935F936F937F938F9378
:1015A0009F93AF93BF93EF93FF938091BA02909173
:1015B000BB02892B29F0E091BA02F091BB02099598
:1015C000FF91EF91BF91AF919F918F917F916F911B
:1015D0005F914F913F912F910F900FBE0F901F90F1
:1015E00018951F920F920FB60F9211242F933F93CD
:1015F0004F935F936F937F938F939F93AF93BF931B
:10160000EF93FF938091BC029091BD02892B29F04A
:10161000E091BC02F091BD020995FF91EF91BF915D
:10162000AF919F918F917F916F915F914F913F917A
:101630002F910F900FBE0F901F9018951F920F9231
:101640000FB60F9211242F933F938F939F93AF93D5
:10165000BF938091BF029091C002A091C102B0914E
:10166000C2023091BE0223E0230F2D3720F40196F1
:10167000A11DB11D05C026E8230F0296A11DB11DB5
:101680002093BE028093BF029093C002A093C10238
:10169000B093C2028091C3029091C402A091C5028E
:1016A000B091C6020196A11DB11D8093C302909313
:1016B000C402A093C502B093C602BF91AF919F919F
:1016C0008F913F912F910F900FBE0F901F90189503
:1016D0002FB7F8946091BF027091C0028091C1024F
:1016E0009091C2022FBF08953FB7F8948091C30232
:1016F0009091C402A091C502B091C60226B5A89BE4
:1017000005C02F3F19F00196A11DB11D3FBF6627EF
:10171000782F892F9A2F620F711D811D911D42E034
:10172000660F771F881F991F4A95D1F70895CF92AA
:10173000DF92EF92FF92CF93DF936B017C010E94C7
:10174000740BEB01C114D104E104F10489F00E948F
:1017500025120E94740B6C1B7D0B683E734090F346
:1017600081E0C81AD108E108F108C851DC4FEACF7E
:10177000DF91CF91FF90EF90DF90CF900895789414
:1017800084B5826084BD84B5816084BD85B5826086
:1017900085BD85B5816085BDEEE6F0E08081816024
:1017A0008083E1E8F0E01082808182608083808124
:1017B00081608083E0E8F0E0808181608083E1EBFC
:1017C000F0E0808184608083E0EBF0E080818160E4
:1017D0008083EAE7F0E0808184608083808182609A
:1017E0008083808181608083808180688083109283
:1017F000C10008958E3008F08E5087702091050149
:1018000090E4299F90011124822B80937C00809189
:101810007A00806480937A0080917A0086FDFCCF04
:10182000809178002091790090E0922B08951F9389
:10183000CF93DF93182FEB0161E00E949F0C20975C
:1018400011F460E004C0CF3FD10539F461E0812F8D
:10185000DF91CF911F910C94D80CE12FF0E0EA5862
:10186000FF4FE491E330F9F048F4E130B9F0E230B1
:10187000A1F584B5806284BDC8BD34C0E730E9F00D
:10188000E83019F1E43049F580918000806280935E
:101890008000D0938B00C0938A0024C084B58068F8
:1018A00084BDC7BD1FC08091800080688093800088
:1018B000D0938900C093880015C08091B0008068E3
:1018C0008093B000C093B3000DC08091B0008062DF
:1018D0008093B000C093B40005C0C038D1050CF0AF
:1018E000B5CFAFCFDF91CF911F910895833081F0B5
:1018F00028F4813099F08230A1F008958730A9F062
:101900008830B9F08430D1F4809180008F7D03C09D
:10191000809180008F7780938000089584B58F77C1
:1019200002C084B58F7D84BD08958091B0008F770B
:1019300003C08091B0008F7D8093B0000895CF9355
:10194000DF9390E0FC01E657FF4F2491FC01E25643
:10195000FF4F8491882349F190E0880F991FFC0183
:10196000EA53FF4FA591B49184549F4FFC01C59158
:10197000D4919FB7611108C0F8948C91209582236F
:101980008C93888182230AC0623051F4F8948C9140
:10199000322F309583238C938881822B888304C0D7
:1019A000F8948C91822B8C939FBFDF91CF910895F7
:1019B0000F931F93CF93DF931F92CDB7DEB7282FDE
:1019C00030E0F901EA58FF4F8491F901E657FF4FE3
:1019D0001491F901E256FF4F04910023C9F08823C6
:1019E00021F069830E94760C6981E02FF0E0EE0F10
:1019F000FF1FE454FF4FA591B4919FB7F8948C91C9
:101A0000611103C01095812301C0812B8C939FBF6E
:101A10000F90DF91CF911F910F910895CF93DF9396
:101A2000282F30E0F901EA58FF4F8491F901E65779
:101A3000FF4FD491F901E256FF4FC491CC2391F0AE
:101A400081110E94760CEC2FF0E0EE0FFF1FEE5498
:101A5000FF4FA591B4912C912D2381E090E021F4CA
:101A600080E002C080E090E0DF91CF910895FC011A
:101A7000818D228D90E0805C9F4F821B91098F7336
:101A800099270895FC01918D828D981731F0828DF0
:101A9000E80FF11D858D90E008958FEF9FEF089579
:101AA000FC01918D828D981761F0828DDF01A80F66
:101AB000B11D5D968C91928D9F5F9F73928F90E088
:101AC00008958FEF9FEF089584ED9EE0892B49F0F4
:101AD00080E090E0892B29F00E94D40E81110C94B3
:101AE00000000895FC01848DDF01A80FB11DA35AE9
:101AF000BF4F2C91848D90E001968F739927848F2E
:101B0000A689B7892C93A089B1898C9180648C9324
:101B1000938D848D981306C00288F389E02D80810F
:101B20008F7D80830895CF93DF93EC01888D882388
:101B3000C9F0EA89FB89808185FD05C0A889B9893A
:101B40008C9186FD0FC00FB607FCF5CF808185FF15
:101B5000F2CFA889B9898C9185FFEDCFCE010E9483
:101B6000720DE7CFDF91CF910895CF92DF92FF9270
:101B70000F931F93CF93DF931F92CDB7DEB76C0106
:101B800081E0D60158968C9358975B969C915B9711
:101B90005C968C915C97981307C05096ED91FC91E0
:101BA0005197808185FD2EC0F601038D10E00F5FF7
:101BB0001F4F0F731127F02EF601848DF81211C0FC
:101BC0000FB607FCF9CFD6015096ED91FC915197D5
:101BD000808185FFF1CFC60169830E94720D698102
:101BE000EBCF838DE80FF11DE35AFF4F6083D601E1
:101BF0005B960C935B975296ED91FC915397808185
:101C000080620CC0D6015696ED91FC915797608387
:101C10005096ED91FC91519780818064808381E0A2
:101C200090E00F90DF91CF911F910F91FF90DF9087
:101C3000CF900895BF92CF92DF92EF92FF92CF9311
:101C4000DF93EC016A017B01B22EE889F98982E019
:101C50008083411581EE580761057105A1F060E0B0
:101C600079E08DE390E0A70196010E9426122150B1
:101C70003109410951095695479537952795211501
:101C800080E1380798F0E889F989108260E874E803
:101C90008EE190E0A70196010E94261221503109A1
:101CA000410951095695479537952795EC85FD854E
:101CB0003083EE85FF852083188EEC89FD89B08204
:101CC000EA89FB89808180618083EA89FB89808140
:101CD00088608083EA89FB89808180688083EA89C3
:101CE000FB8980818F7D8083DF91CF91FF90EF9082
:101CF000DF90CF90BF9008951F920F920FB60F9272
:101D000011242F938F939F93EF93FF93E091D7022A
:101D1000F091D8028081E091DD02F091DE0282FD37
:101D200012C090818091E0028F5F8F732091E10259
:101D3000821751F0E091E002F0E0E953FD4F958FFA
:101D40008093E00201C08081FF91EF919F918F917C
:101D50002F910F900FBE0F901F9018951F920F920A
:101D60000FB60F9211242F933F934F935F936F936E
:101D70007F938F939F93AF93BF93EF93FF9387ECE2
:101D800092E00E94720DFF91EF91BF91AF919F91F0
:101D90008F917F916F915F914F913F912F910F9014
:101DA0000FBE0F901F90189587EC92E00E94370DA0
:101DB00021E0892B09F420E0822F08951092CA02B5
:101DC0001092C90288EE93E0A0E0B0E08093CB02CD
:101DD0009093CC02A093CD02B093CE0280E591E027
:101DE0009093C8028093C70285EC90E09093D40250
:101DF0008093D30284EC90E09093D6028093D50236
:101E000080EC90E09093D8028093D70281EC90E030
:101E10009093DA028093D90282EC90E09093DC02F6
:101E20008093DB0286EC90E09093DE028093DD02EB
:101E30001092E0021092E1021092E2021092E3028C
:101E4000089508950E94BF0B0E94210F0E94E10097
:101E5000C4E6DDE00E9432012097E1F30E94640DA8
:101E6000F9CFCF92DF92EF92FF920F931F93CF9310
:101E7000DF936C017A01EB01E60EF71E00E010E043
:101E8000CE15DF0561F06991D601ED91FC910190CD
:101E9000F081E02DC6010995080F191FF1CFC80187
:101EA000DF91CF911F910F91FF90EF90DF90CF9036
:101EB00008956115710581F0DB010D900020E9F7AF
:101EC000AD0141505109461B570BDC01ED91FC91CE
:101ED0000280F381E02D099480E090E008956CE5A4
:101EE00071E00C94590F0F931F93CF93DF93EC0184
:101EF0000E94590F8C01CE010E946F0F800F911F1D
:101F0000DF91CF911F910F9108953F924F925F9271
:101F10006F927F928F929F92AF92BF92CF92DF92F9
:101F2000EF92FF920F931F93CF93DF9300D000D0D7
:101F3000CDB7DEB78B0129013A01909106019817C0
:101F400021F09F3F09F0DAC104C0E0EDF0E03490E9
:101F500081C080930601E0EDF0E0E491EF3F09F4E9
:101F6000CDC1E13031F1E23009F44BC0E11171C073
:101F700014BC15BC94B5926094BD95B5916095BDA7
:101F8000282F30E0F901E256FF4FE491F0E0EE0F28
:101F9000FF1FE454FF4F45915491509374034093B5
:101FA0007303F901E657FF4F249120937203312CFC
:101FB00053C010928000109281009091810098602F
:101FC0009093810090918100916090938100282FDF
:101FD00030E0F901E256FF4FE491F0E0EE0FFF1F11
:101FE000E454FF4F4591549150936D0340936C031B
:101FF000F901E657FF4F249120936B033324339468
:102000002BC01092B0001092B1009091B00092607D
:102010009093B0009091B10091609093B100282FFF
:1020200030E0F901E256FF4FE491F0E0EE0FFF1FC0
:10203000E454FF4F459154915093660340936503D8
:10204000F901E657FF4F24912093640352E0352EA7
:1020500003C03E2E37FC52C161E00E949F0C480134
:10206000A12CB12C832D8D7F09F0C7C060E072E1F7
:102070008AE790E0A50194010E94481229833A83DF
:102080004B835C8369017A0181E0C81AD108E108B9
:10209000F1089FEFC916D104E104F10409F008F436
:1020A0009AC060E472E48FE090E0A50194010E9480
:1020B000481269017A01E1E0CE1AD108E108F1087D
:1020C000F2E03F1219C08FEFC816D104E104F10409
:1020D00009F008F48AC060E970ED83E090E0A501A2
:1020E00094010E94481269017A0191E0C91AD1084D
:1020F000E108F10883E001C082E0EFEFCE16D104E1
:10210000E104F10409F008F467C068E478EE81E0C6
:1021100090E0A50194010E94481269017A01F1E062
:10212000CF1AD108E108F1083320E1F082E038123B
:102130001BC09FEFC916D104E104F10409F008F4B3
:10214000DBC064E274EF80E090E0A50194010E949E
:10215000481269017A01E1E0CE1AD108E108F108DC
:1021600085E003C083E001C084E0FFEFCF16D10417
:10217000E104F10489F180F162E17AE780E090E026
:10218000A50194010E94481269017A0181E0C81AF0
:10219000D108E108F108311002C084E001C086E0F6
:1021A0009FEFC916D104E104F104B1F0A8F0C98091
:1021B000DA80EB80FC809AE0F594E794D794C7949A
:1021C0009A95D1F7E1E0CE1AD108E108F108332061
:1021D00031F087E00BC081E0332011F007C085E0CB
:1021E00095B5987F982B95BD38C082E09091B1004D
:1021F000987F982B9093B10030C060E072E18AE73D
:1022000090E0A50194010E94481269017A01F1E071
:10221000CF1AD108E108F108C114D10481E0E80621
:10222000F10488F068E478EE81E090E0A501940183
:102230000E94481269017A0191E0C91AD108E108A7
:10224000F10893E001C091E0E1E03E1206C0809108
:102250008100887F892B809381004114510461049F
:10226000710471F0D801AA0FBB1FA30192010E9453
:102270006D1228EE33E040E050E00E94261203C0C9
:102280002FEF3FEFA901F1E03F16A1F082E03816F1
:1022900019F1311033C0C7BC209375033093760316
:1022A000409377035093780380916E00826080930F
:1022B0006E0024C0D0928900C092880020936E03E3
:1022C00030936F03409370035093710380916F00BC
:1022D000826080936F0012C0C092B30020936703A6
:1022E000309368034093690350936A0380917000B0
:1022F00082608093700002C084E078CF0F900F90CE
:102300000F900F90DF91CF911F910F91FF90EF9061
:10231000DF90CF90BF90AF909F908F907F906F9005
:102320005F904F903F900895813039F018F08230DF
:1023300051F0089510926E00089580916F008D7F86
:1023400080936F000895809170008D7F809370005E
:1023500081E08093B0008091B100887F8460809399
:10236000B1001092B3000895CF93C82F8091060159
:102370008C1307C0E0EDF0E084919FEF909306018D
:1023800001C08FEF0E94941160E08C2FCF910C94CC
:10239000D80C1F920F920FB60F9211242F933F93D8
:1023A0004F935F936F937F938F939F93AF93BF935D
:1023B000EF93FF938091670390916803A091690365
:1023C000B0916A03892B8A2B8B2B51F19091640376
:1023D000E0916503F0916603808189278083809175
:1023E000670390916803A0916903B0916A0318167E
:1023F00019061A061B06C4F48091670390916803BE
:10240000A0916903B0916A030197A109B109809372
:10241000670390936803A0936903B0936A0304C0B1
:10242000809106010E94B411FF91EF91BF91AF918D
:102430009F918F917F916F915F914F913F912F91DC
:102440000F900FBE0F901F9018950895A1E21A2EBD
:10245000AA1BBB1BFD010DC0AA1FBB1FEE1FFF1F48
:10246000A217B307E407F50720F0A21BB30BE40B98
:10247000F50B661F771F881F991F1A9469F76095DF
:102480007095809590959B01AC01BD01CF01089599
:10249000052E97FB1EF400940E945F1257FD07D093
:1024A0000E94261207FC03D04EF40C945F12509544
:1024B0004095309521953F4F4F4F5F4F0895909530
:1024C0008095709561957F4F8F4F9F4F0895EE0FC8
:1024D000FF1F0590F491E02D09940E948012A59FA2
:1024E000900DB49F900DA49F800D911D112408950F
:1024F000B7FF0C946D120E946D12821B930B08950E
:10250000A29FB001B39FC001A39F700D811D112434
:10251000911DB29F700D811D1124911D0895F9998F
:10252000FECF92BD81BDF89A992780B50895262FD8
:10253000F999FECF1FBA92BD81BD20BD0FB6F894A8
:10254000FA9AF99A0FBE0196089510E0CAEDD0E00C
:1025500004C0FE010E9469122296CC3DD107C9F742
:04256000F894FFCF1D
:10256400010000000401FF5043206D6F64653A20B0
:102574006D426F74312E300000000000C2039503D9
:102584006A03720385039403010001000000010043
:1025940001000000FFFFFFFFFFFF01000100FFFF3C
:1025A400050406070B0C000000001D0A00000000D3
:1025B400B50D310F370D500D420D930D0D0A006E00
:0E25C400616E00696E66006F7666002E000084
:00000001FF
