:100000000C946C000C941B120C9448120C949400E9
:100010000C9494000C9494000C9494000C94940010
:100020000C9494000C9494000C9494000C94940000
:100030000C9494000C9494000C9494000C949400F0
:100040000C9475120C9494000C948E150C94C0159D
:100050000C9494000C9494000C9494000C949400D0
:100060000C94840C0C949400A507A907A507A90774
:10007000A507A907AC070000000800020100000363
:100080000407000000000000000001020408102026
:10009000408001020408102001020408102004041A
:1000A0000404040404040202020202020303030320
:1000B00003030000000023002600290000000000C8
:1000C000250028002B0000000000240027002A0043
:1000D0004F07A20BF0155D0711241FBECFEFD8E02C
:1000E000DEBFCDBF13E0A0E0B1E0ECE1F5E302C07C
:1000F00005900D92A630B107D9F724E0A6E0B3E051
:1001000001C01D92A43CB207E1F710E0C6EDD0E0BB
:1001100004C02297FE010E942D19C03DD107C9F7E6
:100120000E9434160C94811A0C940000CF92DF9236
:10013000EF92FF920F931F93E82FF92F05C0015004
:1001400011092109310961F1908196239417B9F3BE
:1001500005C0015011092109310911F1908196233F
:100160009413F7CFC12CD12CE12CF12C0AC08FEFC6
:10017000C81AD80AE80AF80A0C151D052E053F050D
:1001800079F080818623841791F36C2D7D2D8E2D3F
:100190009F2D1F910F91FF90EF90DF90CF900895CA
:1001A00060E070E080E090E01F910F91FF90EF9091
:1001B000DF90CF9008950E94B50A0E94EF0685E077
:1001C0000E94D70584E690E00E94CE0626E040E03B
:1001D00052EC61E070E083E294E00E942C1565E649
:1001E00071E083E294E00C948516AF92CF92DF9297
:1001F000EF92FF920F931F93CF93DF93CDB7DEB7AC
:1002000027970FB6F894DEBF0FBECDBF80E090E019
:100210000E9448090E94910AF82E29833A834B8351
:100220005C836D837E838F83162F603659F065362D
:1002300051F410E1170F64E170E080E090E00E945B
:10024000EE1201C0172F80910B03181709F4E8C0B4
:1002500010930B03123509F4D1C0E8F5193109F4F4
:100260009BC0E8F41C3009F4A6C050F4183009F41F
:10027000B1C0193009F48BC0173009F0C9C082C071
:10028000153109F4CDC020F41D3009F4C9C0C0C037
:10029000163109F465C0183109F492C0B9C014349C
:1002A00009F484C078F4103409F467C020F41C31D8
:1002B00009F495C0ADC0123409F49BC0133409F49D
:1002C00070C0A6C0173409F446C008F4A9C01A3497
:1002D00009F499C09DC0133709F459C008F51336C5
:1002E00009F491C078F41E3509F46FC020F41A3572
:1002F00009F47AC08DC0113609F462C0123609F4CF
:1003000078C086C0103709F44CC020F4143609F4C4
:1003100075C07EC0113789F1123709F447C078C023
:10032000103809F448C048F4153709F43FC050F1BB
:10033000163791F11737A9F16BC0133809F454C07F
:1003400020F4113809F446C063C0143809F447C0DA
:100350001638D9F15DC088EB9BE00E94CE0660C0E4
:1003600082E390E00E94CE0605E010E085E00E9466
:10037000030601501109D1F753C083E00E94D7054D
:1003800061E04AC086E00E94D70566E045C086E08D
:100390000E94D70565E040C081E00E94D70564E077
:1003A0003BC082E00E94D70562E036C082E00E9436
:1003B000D70563E031C086E00E94D70567E02CC016
:1003C00086E00E94D70568E027C086E00E94D70536
:1003D00069E022C086E00E94D7056AE01DC086E081
:1003E0000E94D7056BE018C086E00E94D7056CE03C
:1003F00013C086E00E94D7056DE00EC086E00E9423
:10040000D7056EE009C086E00E94D7056FE004C002
:1004100085E00E94D70560E088EC90E00E944405EA
:1004200086E00E94F413182F9091060180910A0330
:10043000911729F1111123C0811111C081E00E948F
:10044000D705AA24A394CC24C394EE24E39401E01A
:1004500021E041E061E081E00E94C40308C085E042
:100460000E94D70560E088EC90E00E94440581E09E
:1004700090910A03911180E080930A0307C08823BA
:1004800029F00E942A04882309F468C01093060109
:1004900089E08F1548F46F2D70E088EA91E60E949C
:1004A000D618CB010E941D050E94310480911B04C7
:1004B00090911C04A0911D04B0911E04209106038C
:1004C00030910703821B930B8436910508F450C0CA
:1004D00080911B0490911C04A0911D04B0911E04F6
:1004E0008093060390930703A0930803B093090336
:1004F0000E9488066B017C0120E030E040E051E47E
:100500000E94FC1687FF34C020E030E040E251E456
:10051000C701B6010E944F180E946817CB010E94C4
:10052000CE0680910B03813711F0803409F585E008
:100530000E94D70560E088EC90E027960FB6F8940B
:10054000DEBF0FBECDBFDF91CF911F910F91FF9006
:10055000EF90DF90CF90AF900C94440585E00E941F
:10056000D70582E390E00E94CE0610920A038ECF58
:1005700027960FB6F894DEBF0FBECDBFDF91CF91A7
:100580001F910F91FF90EF90DF90CF90AF90089563
:10059000CF93DF93CDB7DEB728970FB6F894DEBFC1
:1005A0000FBECDBF98E0EDE1F1E0DE0111960190C4
:1005B0000D929A95E1F7E1E0F0E0EC0FFD1FE80FF6
:1005C000F11DE08148EC469FC001479F900D11242A
:1005D000805A9F406EE670E00E94C2189B0128532B
:1005E0003F4F213981E0380778F440E050E06E2F2A
:1005F0008CE293E028960FB6F894DEBF0FBECDBF15
:10060000DF91CF910C94C00D28960FB6F894DEBF01
:100610000FBECDBFDF91CF910895AF92BF92DF9211
:10062000EF92FF920F931F93CF93DF931F92CDB75B
:10063000DEB7D62E27E0A22E21E0B22E7C0100E00C
:1006400010E09DEF960F9983802F9981943018F0D8
:10065000E1E0DE1210C0F501608170E00E94C80286
:10066000F5018081F801E15FFE4F8083F701808111
:100670008F3F59F40CC0F70160816F3F41F070E08B
:10068000802F0E94C802F7018081F50180830F5FEF
:100690001F4FFFEFAF1ABF0A8FEFE81AF80A0830B2
:1006A000110591F6D0922B0380911B0490911C04AC
:1006B000A0911D04B0911E048093270390932803FA
:1006C000A0932903B0932A030F90DF91CF911F913C
:1006D0000F91FF90EF90DF90BF90AF9008959093AF
:1006E0002403809323030C940D03CF92DF92EF92A7
:1006F000FF92CF93DF936B017C01C0E0D0E080914B
:100700000E0390910F03C817D90798F4A70196011B
:10071000BE018CE093E00E9495118CE093E00E9472
:1007200078106AE070E080E090E00E94EE1221967E
:10073000E6CFDF91CF91FF90EF90DF90CF900895BB
:10074000CF93C0E020E030E040E050E06C2F8CE23E
:1007500093E00E94C00DCF5FC830A1F710922B0329
:1007600080911B0490911C04A0911D04B0911E0463
:100770008093270390932803A0932903B0932A031F
:1007800010922203CF910895AF92CF92EF920F93E0
:10079000CF93DF93CDB7DEB728970FB6F894DEBFBF
:1007A0000FBECDBF98E0899FD0011124A456BD4F44
:1007B0008C91898388E0689FF0011124E456FD4FF5
:1007C00081818A8398E0499FD0011124A456BD4FAE
:1007D00012968C918B8388E0289FF0011124E456B7
:1007E000FD4F83818C8398E0099FD0011124A4568A
:1007F000BD4F14968C918D8388E0E89EF001112402
:10080000E456FD4F85818E8398E0C99ED001112466
:10081000A456BD4F16968C918F8388E0A89EF00158
:100820001124E456FD4F8781888767E0CE01019649
:100830000E946F0380E18093220328960FB6F894FC
:10084000DEBF0FBECDBFDF91CF910F91EF90CF9064
:10085000AF90089581E090912B03911101C080E049
:100860000895BF92CF92DF92EF92FF920F931F9362
:10087000CF93DF9300911B0410911C0420911D0461
:1008800030911E048091270390912803A0912903A1
:10089000B0912A03081B190B2A0B3B0BC901B801A5
:1008A0009F77A0912B03A23029F0A73019F0A11156
:1008B0001AC0B9C060327F4B8240910518F00E9487
:1008C000A0030FC010FF0DC061E08DE0DF91CF915C
:1008D0001F910F91FF90EF90DF90CF90BF900C94FD
:1008E000BE1360E0F2CF40911B0150911C010091BA
:1008F000250310912603F801F695E7956F01C40EC4
:10090000D51EE12CF12C6C157D058E059F050CF094
:100910004FC020E030E06017710782079307A4F40E
:100920009B01AC010E94B218E7E0660F771F881F99
:10093000991FEA95D1F72091170130911801409144
:10094000190150911A010DC0DC01CB018E1B9F0BC8
:10095000A109B1096627782F892F9A2F9A0140E0C3
:1009600050E00E940C1969017A01C7E0D1E00FE064
:1009700011E0B12CA991F80181918F01A81799F08C
:10098000B0E0E82FF0E0AE1BBF0BA70196010E947C
:100990004B19472F582F692F7727BF01640F751FF9
:1009A0008B2D0E94C802B394F8E0BF12E3CF3BC086
:1009B000A430B1F058F4A13059F1A330A1F58091E1
:1009C00023039091240364E0089617C0A53079F0C2
:1009D000A63049F563E080912303909124030DC074
:1009E000809123039091240365E0409606C0809196
:1009F00023039091240366E04896DF91CF911F91E5
:100A00000F91FF90EF90DF90CF90BF900C940D036B
:100A1000DF91CF911F910F91FF90EF90DF90CF90DA
:100A2000BF900C94A003DF91CF911F910F91FF9085
:100A3000EF90DF90CF90BF900895CF93DF93EC01BC
:100A400090931C0180931B01BC0180E090E00E9408
:100A500099172AE939E949E15FE30E944F180E949A
:100A60006D1770932603609325039B01DE010E949E
:100A700031196093170170931801809319019093B5
:100A80001A01DF91CF910895CF93DF93CDB7DEB7F1
:100A900029970FB6F894DEBF0FBECDBF69870E94BD
:100AA0001D05809122036985861709F477C060933C
:100AB0002203611110C088E0EDE2F1E0DE01119641
:100AC00001900D928A95E1F780912B03823008F412
:100AD00065C061E04DC0613021F463E08CE792E0D5
:100AE0005BC0643021F463E08CE592E055C0623075
:100AF00021F463E08CE392E04FC0633019F48CE1A1
:100B000092E04AC0653021F463E08CEF91E044C08C
:100B1000663021F463E08CED91E03EC0673021F453
:100B200088E0E5E3F1E01DC0683021F488E0EDE302
:100B3000F1E017C0693021F488E0E5E4F1E011C08C
:100B40006A3021F488E0EDE4F1E00BC06B3021F471
:100B500088E0E5E5F1E005C06C3069F488E0EDE59A
:100B6000F1E0DE01119601900D928A95E1F762E0C5
:100B7000CE01019611C06D3021F463E08CEB91E061
:100B80000BC06E3021F463E08CE991E005C06F305A
:100B900029F463E08CE791E00E946F0329960FB679
:100BA000F894DEBF0FBECDBFDF91CF9108958330A3
:100BB000B1F028F4813049F0823061F00895853039
:100BC000C1F090F08630C9F0089560E070E08FEFDA
:100BD00090E017C060E07FEF80E090E012C06FEF20
:100BE00070E080E090E00DC060E070E880E890E0A8
:100BF00008C060E870E0CB0104C060E870E880E005
:100C000090E00C9475035F926F927F928F929F9207
:100C1000AF92BF92CF92DF92EF92FF920F931F930A
:100C2000CF93DF93B12C00E010E0C82ED12CE12C43
:100C3000F12CA12CC0E0D0E0502E602E60947724DF
:100C40007A947B0C8EEF882E8B0C9DEF992E9B0C4B
:100C500080910E0390910F03C817D907C0F58C2F10
:100C6000962D9C1B953580F4800F282F220F280F7E
:100C70002E5F822F90E0A0E0B0E0AC013327222766
:100C8000892D8A19282B1AC0850D9A3A58F4282FD5
:100C9000220F280F2F5F30E040E050E0882D8A19A6
:100CA000382B0CC0982F990F980F272D2A19422FF7
:100CB00050E060E070E033272227392BBE018CE042
:100CC00093E00E949511219683E0A80EC1CF8CE09D
:100CD00093E00E947810C701B6010E94EE120F5FE8
:100CE0001F4F2DEFB20E011581E0180709F0A1CFBB
:100CF000DF91CF911F910F91FF90EF90DF90CF90F8
:100D0000BF90AF909F908F907F906F905F9008956D
:100D1000CF92DF92EF92FF928EE00E94F413019740
:100D200081F160E08FE00E94BE1382E090E00E94BB
:100D3000161361E08FE00E94BE138AE090E00E94EB
:100D4000161360E08FE00E94BE1320E432E44FE00F
:100D500050E061E08EE00E941D140E9499176B0123
:100D60007C0120E030E0A9010E944B18181674F4B1
:100D700026E933E44BE85CE3C701B6010E944F1853
:100D800008C060E070E088EC92E403C060E070E0CE
:100D9000CB01FF90EF90DF90CF9008950F931F93BA
:100DA000CF93DF938C01C0E0D0E0C017D10794F45B
:100DB00061E088E00E94BE1380E991E00E94161372
:100DC00060E088E00E94BE1380E991E00E94161363
:100DD0002196EBCFDF91CF911F910F910895CF9383
:100DE000DF93CDB7DEB728970FB6F894DEBF0FBEFE
:100DF000CDBF61E081E10E94851361E081E10E9445
:100E0000BE1362E08EE00E94851361E08FE00E94D5
:100E1000851361E088E00E94851362E083E00E9410
:100E2000851362E084E00E94851362E085E00E9401
:100E3000851362E086E00E9485138CE093E00E94B7
:100E4000F50F8CE093E00E94781060E08CE293E074
:100E50000E94520F40E050E068E472E48CE293E0BC
:100E60000E94AF0E0E94FA1160E081E10E94BE1361
:100E700088E0EDE2F1E0DE01119601900D928A9595
:100E8000E1F761E0CE0101960E946F0328960FB64C
:100E9000F894DEBF0FBECDBFDF91CF9108958CE2F5
:100EA00093E00E94B80D22E530E040E150E068E0B8
:100EB00070E08CE093E00C9473118CE093E00C9460
:100EC000E20FCF92DF92EF92FF920F931F93CF9397
:100ED000DF9382E00E94F413C82F0E94CB1200918E
:100EE0004C0310914D0320914E0330914F036B0141
:100EF0007C01C01AD10AE20AF30AC114D10441E00C
:100F0000E406F10460F400914C0310914D0320912C
:100F10004E0330914F039B01201B310B02C02FEF7A
:100F20003FEF60934C0370934D0380934E03909377
:100F30004F034091550350E04730510508F0B9C0C8
:100F4000FA01EC5CFF4F0C942B19C13009F0B1C0D1
:100F500094C1C111AEC08DC1C9018F5A91098F359D
:100F60009140E8F48091540380FD15C080915003B6
:100F700090915103A0915203B0915303880F991F90
:100F8000AA1FBB1F81608093500390935103A093CD
:100F90005203B0935303809154038F5F1CC02D50B4
:100FA00032402F353140F0F480915003909151033D
:100FB000A0915203B0915303880F991FAA1FBB1F22
:100FC0008093500390935103A0935203B093530323
:100FD000809154038E5F80935403809154038E312B
:100FE00020F44DC1C11149C177C0109255038091C1
:100FF000500390915103A0915203B091530320915B
:101000003303492F429546954770211104C0437020
:101010004093330334C120913303437050E030E0F8
:101020004217530709F02BC127E0EDE3F3E0EF018E
:1010300019922A95E9F7282F2770205A2093410307
:10104000282F26952695269530E020513109F4E089
:10105000220F331FFA95E1F730933E0320933D03AF
:10106000892F8F7190E04097A4E0880F991FAA956F
:10107000E1F79093400380933F030E94BF12609377
:1010800048037093490380934A0390934B0382E093
:1010900090E0909335038093340361E08DE0DF911D
:1010A000CF911F910F91FF90EF90DF90CF900C9414
:1010B000BE1380915503823069F128F4882361F0D2
:1010C000813061F0DCC0843009F49AC008F445C076
:1010D000853009F4D2C0D3C081E0CCC0C9018755A6
:1010E0009A418339914110F482E0C4C02B563340B9
:1010F0002F35314008F0C1C086E08093550310922F
:101100005003109251031092520310925303109205
:101110005403B5C0C9018B529D408B3C984060F48C
:1011200010925003109251031092520310925303E5
:101130001092540383E09EC0255936402736344030
:1011400008F097C00E94BF12609348037093490350
:1011500080934A0390934B038CC0255A31402B3126
:10116000314008F08AC080915403803208F446C0B0
:101170008091500390915103A0915203B091530379
:101180004091500350915103609152037091530369
:10119000892F9A2FAB2FBB2784279527A627B72700
:1011A0009927BB278F3F9105AF4FB10509F065C067
:1011B00087E0EDE3F3E0DF011D928A95E9F7809186
:1011C000500390915103A0915203B0915303A09307
:1011D00041030E94BF1260934803709349038093B8
:1011E0004A0390934B0381E090E090933503809302
:1011F000340361E08DE00E94BE133FC084E03AC03A
:1012000083E0809355038091500390915103A09106
:101210005203B0915303B695A79597958795809300
:10122000500390935103A0935203B09353038091C2
:1012300054038F5F80935403C901805F94408D34C1
:10124000934090F48091500390915103A0915203E8
:10125000B0915303B0688093500390935103A093CF
:101260005203B09353030BC0255A31402B31314008
:1012700030F085E08093550302C010925503DF9152
:10128000CF911F910F91FF90EF90DF90CF90089535
:101290000F931F93CF93DF93EC01809148039091BC
:1012A0004903A0914A03B0914B03892B8A2B8B2BC6
:1012B00009F4D6C00E94BF1200914803109149035F
:1012C00020914A0330914B03601B710B820B930BEF
:1012D00010913A036C3271408105910508F099C074
:1012E0008091340390913503029709F078C02091E2
:1012F0003D0330913E0380913F0390914003B9013B
:1013000037FF04C066277727621B730BAC0197FF7A
:1013100004C044275527481B590B640F751F6832BA
:10132000710508F44EC0D90137FD1196B595A79502
:10133000E1E0A817B9070CF0E0E0AC0197FF02C0AC
:101340004F5F5F4F55954795241735070CF4EE5FB7
:10135000AC0197FF02C04F5F5F4F55954795519580
:1013600041955109241735070CF4EC5F44275527A4
:10137000481B590BA417B5070CF4E85FF0E0EC53D9
:10138000FD4FE081E0934203E33791F020F4E13731
:1013900061F49C010DC0E43721F0E63731F49A0185
:1013A00007C031952195310903C09B0136952795DA
:1013B0002F3F310519F010F02FEF30E02093430359
:1013C00004C01092420310924303CD2B41F0809150
:1013D0004103803621F4809142038093410311112F
:1013E0000EC080914103882351F081E090E09093FA
:1013F00035038093340361E08DE00E94BE1387E0E3
:10140000EDE3F3E0A6E3B3E001900D928A95E1F7F6
:101410007BC0112309F478C087E0E6E3F3E0DF0145
:101420001D928A95E9F781E090E0909335038093CF
:10143000340360E08DE00E94BE13109248031092C6
:10144000490310924A0310924B030E94BF1260930B
:10145000440370934503809346039093470354C01D
:101460008091440390914503A0914603B0914703B6
:10147000892B8A2B8B2B51F40E94BF12609344035B
:101480007093450380934603909347030E94BF12D5
:101490000091440310914503209146033091470386
:1014A000601B710B820B930B20914103222369F087
:1014B0006D32B1E07B078105910538F027E0EDE35F
:1014C000F3E0DF011D922A95E9F7DC01CB0117E07B
:1014D000B695A795979587951A95D1F70097A10589
:1014E000B10591F08F709927AA27BB270097A10516
:1014F000B10511F461E005C00197A105B10521F422
:1015000060E08DE00E94BE1380913403909135031A
:101510001092350310923403DF91CF911F910F91F8
:101520000895CF93DF93CDB7DEB727970FB6F89422
:10153000DEBF0FBECDBF87E0E6E3F3E0DE0111962C
:1015400001900D928A95E1F729813A814B815C8166
:101550006D817E818F8190E027960FB6F894DEBF73
:101560000FBECDBFDF91CF91089561E08DE00E9465
:10157000851383E084BD85BD60E082E00E94851311
:1015800041E050E061E677E080E00E94FB111092BC
:10159000550387E0EDE3F3E0DF011D928A95E9F75B
:1015A00008958091860390E020918703821B910922
:1015B00008952091870380918603281750F4E22F25
:1015C000F0E0E857FC4F808190E02F5F2093870385
:1015D00008958FEF9FEF0895E09187038091860330
:1015E000E81730F4F0E0E857FC4F808190E0089570
:1015F0008FEF9FEF08950895CF92DF92EF92FF92C1
:101600000F931F93CF93DF937C01CB018A0120912D
:101610006203222389F0EB016B01C40ED51ECC15A9
:10162000DD0569F06991D701ED91FC910190F081A0
:10163000E02DC7010995F3CF642F0E945B0CC80110
:10164000DF91CF911F910F91FF90EF90DF90CF909E
:101650000895CF93DF931F92CDB7DEB769832091B2
:1016600062032223D1F020916303203240F021E075
:1016700030E0FC013383228380E090E015C080914C
:101680006403E82FF0E0EB59FC4F998190838F5F62
:10169000809364038093630305C061E0CE010196EB
:1016A0000E945B0C81E090E00F90DF91CF91089554
:1016B000FC011382128248EE53E060E070E0448344
:1016C00055836683778388ED92E0918380830895C4
:1016D00010928703109286031092640310926303A2
:1016E0000C94A60B862F413208F040E268E873E0C4
:1016F0000E94C40B1092870380938603089521E013
:101700000C94720B81E080936203609385031092C6
:1017100064031092630308950F93062F21E0409114
:10172000630365E673E0809185030E94080C1092C4
:10173000640310926303109262030F91089561E0B5
:101740000C948C0B86E593E00C94580B10921504C6
:1017500081E0809313041092120461E082E10E9400
:10176000BE1361E083E10E94BE13E9EBF0E08081EB
:101770008E7F808380818D7F808388E48093B80012
:1017800085E48093BC000895413208F03FC09091F9
:1017900015049111FCCF91E090931504209313044C
:1017A0002FEF2093A8031092ED03240F2093EC0356
:1017B0009093140490911404880F892B809314043F
:1017C00080911204813041F410921204809114042B
:1017D0008093BB0085EC01C085EE8093BC008091B6
:1017E00015048130E1F38091ED03841710F44091EA
:1017F000ED032EEE33E0FB01D9018A2F821B841703
:1018000018F48D918193F9CF842F089580E0089585
:101810000F93413208F046C0909115049111FCCF0E
:1018200092E090931504009313049FEF9093A80304
:101830001092ED034093EC03FB016EEE73E0DB01CD
:101840009A2F961B941718F491919D93F9CF1092AB
:10185000140490911404880F892B809314048091B0
:101860001204813041F41092120480911404809388
:10187000BB0085EC01C085EE8093BC00222321F0E3
:10188000809115048230E1F38091A8038F3F61F0CD
:101890008091A803803251F08091A803803341F4F5
:1018A00083E007C081E005C080E003C082E001C0A2
:1018B00084E00F910895613298F42091150424304A
:1018C00089F46093CA03FC018CEC93E0DC012A2FBD
:1018D000281B261718F421912D93F9CF80E0089545
:1018E00081E0089582E0089585ED8093BC008091A9
:1018F000BC0084FDFCCF10921504089585EC809304
:10190000BC001092150408951F920F920FB60F920B
:1019100011242F933F934F935F936F937F938F93F4
:101920009F93AF93BF93EF93FF938091B900887F0C
:10193000803609F49CC068F5883209F45BC090F4E5
:10194000803109F454C038F4882309F4F5C0883094
:1019500009F44DC0F5C0883109F44CC0803209F457
:101960005DC0EEC0803409F468C048F4803309F4E7
:1019700055C0883309F0E4C08093A803A8C080351F
:1019800009F44FC0883509F45DC0883409F0D8C027
:10199000D5C0883909F4C6C0A8F4883709F467C0EF
:1019A00038F4883609F463C0803709F460C0C8C0D1
:1019B000883809F4B7C0803909F45FC0803809F06D
:1019C000BFC05BC0803B09F485C038F4803A09F49D
:1019D00066C0883A09F47EC0B3C0803C09F4A6C052
:1019E000883C09F4A3C0883B09F489C0A9C0809150
:1019F000140410C09091ED038091EC03981770F5DA
:101A0000E091ED0381E08E0F8093ED03F0E0E25171
:101A1000FC4F80818093BB0085EC85C08093A80338
:101A20008DC0E091ED0381E08E0F8093ED038091F6
:101A3000BB00F0E0E251FC4F80839091ED03809178
:101A4000EC036DC0E091ED0381E08E0F8093ED0318
:101A50008091BB00F0E0E251FC4F80838091130441
:101A600081116CC081E08093120484EA60C083E03D
:101A7000809315041092A903CFCF8091A9038032DF
:101A800008F050C0E091A90381E08E0F8093A90374
:101A90008091BB00F0E0E655FC4F8083BDCF809184
:101AA000A903803230F4E091A903F0E0E655FC4F41
:101AB00010820E94740C6091A90370E0E0910E0402
:101AC000F0910F048AEA93E009951092A9030E940D
:101AD0007E0C36C084E0809315041092CB031092E4
:101AE000CA03E0911004F091110409958091CA0392
:101AF000811105C081E08093CA031092CC03E0916C
:101B0000CB0381E08E0F8093CB03F0E0E453FC4FD6
:101B100080818093BB009091CB038091CA0398177A
:101B200008F47ACF85E88093BC000AC085EC8093E6
:101B3000BC001092150404C01092A8030E94740CFB
:101B4000FF91EF91BF91AF919F918F917F916F9195
:101B50005F914F913F912F910F900FBE0F901F906B
:101B60001895DC01ED91FC910190F081E02D099434
:101B700020E4FC01208326E533E0328321830895AD
:101B8000CF92DF92FF920F931F93CF93DF9300D0FA
:101B9000CDB7DEB76C01F62E052F132FDC016C914B
:101BA00011968D919C9112972A8349830E94820BF2
:101BB000F60181819281DC01ED91FC91B4E0FB9E04
:101BC000B00111246A5F7F4F0190F081E02D0995EB
:101BD0004981642F702FF601818192810E94B10D9D
:101BE000602F70E0D60111968D919C9112970E9402
:101BF000B10D2A81622F712FF601818192810E949D
:101C0000B10D612F70E0D60111968D919C911297C4
:101C10000E94B10DF601818192810F900F90DF91AA
:101C2000CF911F910F91FF90DF90CF900C949F0B5D
:101C30001F93CF93DF93EC01162F688189819A81DE
:101C40000E94820B89819A81DC01ED91FC910190C7
:101C5000F081E02D612F099589819A810E949F0B67
:101C600041E0688189819A810E947F0B89819A81F4
:101C7000DC01ED91FC910680F781E02D0995DF9163
:101C8000CF911F910895EF92FF921F93CF93DF930F
:101C90001F92CDB7DEB77C01162FDC016C91119637
:101CA0008D919C91129749830E94820BF70181814B
:101CB0009281DC01ED91FC910190F081E02D612F8A
:101CC0000995F70181819281DC01ED91FC910190F0
:101CD000F081E02D4981642F0995F701818192817E
:101CE0000F90DF91CF911F91FF90EF900C949F0B7D
:101CF00040E860E00E94430E6AE070E080E090E01F
:101D00000C94EE120F931F93CF93DF93EC01062FE9
:101D100060E00E94180E182F1F76412F406160E08E
:101D2000CE010E94430E1065412F60E0CE010E945B
:101D3000430E402F6EEFCE010E94430E65E070E02F
:101D400080E090E00E94EE12412F4F74406A60E004
:101D5000CE01DF91CF911F910F910C94430E8F9282
:101D60009F92AF92BF92CF92DF92EF92FF921F931A
:101D7000CF93DF93EC016A017B0120E030E040E883
:101D80005FE3C701B6010E94FC1687FD12C020E088
:101D900030EC4AE555E4C701B6010E944B1818160D
:101DA00074F4C12C20ECD22E2AE5E22E25E4F22E8A
:101DB00006C0C12CD12C30E8E32E3FE3F32E6B811B
:101DC0007C818D819E810E9499174B015C0120E0EE
:101DD00030E040E855E4C701B6010E944F189B016E
:101DE000AC01C501B4010E94001720E030E040E0E2
:101DF0005FE30E94981620E030E040E85FE30E9435
:101E000097166B017C0120E030E040E450E40E9432
:101E1000FC1687FD11C020E030E04FE753E4C70116
:101E2000B6010E944B18181664F4C12CD12C8FE710
:101E3000E82E83E4F82E05C0C12CD12C90E4E92EC5
:101E4000FE2C60E0CE010E94180E182F482F4F760E
:101E5000406160E0CE010E94430EC701B6010E94BE
:101E60006D17462F6EEFCE010E94430E412F60E0AA
:101E7000CE010E94430E65E070E080E090E00E9499
:101E8000EE12412F406A60E0CE01DF91CF911F91A9
:101E9000FF90EF90DF90CF90BF90AF909F908F908A
:101EA0000C94430EAF92BF92CF92DF92EF92FF92CB
:101EB0001F93CF93DF931F92CDB7DEB75C01FC0178
:101EC0008181928169830E94680BC5010E94780E0E
:101ED0006981662321F0C5010E94820E5FC0F50171
:101EE00063817481858196810E94991720E030E09A
:101EF0004AE75AE40E94001720E030E040E05FE348
:101F00000E94981620E030E040E85FE30E949716B8
:101F10006B017C0120E030E040E450E40E94FC16BC
:101F200087FD11C020E030E04FE753E4C701B60160
:101F30000E944B18181664F4C12CD12C4FE7E42EE4
:101F400043E4F42E05C0C12CD12C50E4E52EFE2C28
:101F500060E0C5010E94180E182F482F4F7640618F
:101F600060E0C5010E94430EC701B6010E946D17D3
:101F7000462F6EEFC5010E94430E412F60E0C50160
:101F80000E94430E65E070E080E090E00E94EE1257
:101F9000412F406A60E0C5010E94430E80E498E74B
:101FA000ADE7B1E0F50183839483A583B6830F90F9
:101FB000DF91CF911F91FF90EF90DF90CF90BF9076
:101FC000AF900895CF93DF93EC0189859A850E94A5
:101FD000EB198E819F8197FD05C060E0DF91CF9165
:101FE0000C948513DF91CF910895CF93DF93EC018B
:101FF0008E819F8197FD07C061E00E94851360E09C
:102000008E810E94BE1381E08983DF91CF91089574
:10201000EF92FF920F931F93CF93DF93EC017B011D
:1020200089859A850E94EB199E858B85981303C03C
:1020300083E090E002C084E090E08E9D80018F9D5F
:10204000100D9E9D100D11241D830C83C8010E944C
:1020500053199A878987009741F0A80160E070E0E2
:102060000E947A1AFB82EA8204C01D821C821B82B3
:102070001A82DF91CF911F910F91FF90EF900895F9
:10208000FC0121E096858385981320E0CB0136E0A2
:10209000969587953A95E1F7482F43704687CB018F
:1020A00054E0969587955A95E1F7382F337033872A
:1020B000CB01969587959695879583708487862F13
:1020C0008370858781E06F3F710511F008F080E033
:1020D000808381859285892B51F091E0431390E0B4
:1020E000921729F062817381CF010C940810089532
:1020F000CF92DF92EF92FF920F931F93CF93DF93D4
:10210000CDB7DEB729970FB6F894DEBF0FBECDBFAF
:102110008C01DC0119968D919C911A97892B09F4F9
:102120009FC00E94CB12F801C784D088E188F28852
:102130006C197D098E099F096C32714081059105EA
:1021400080F3F894D80114968D919C9115979A83F9
:10215000898319960D90BC91A02D7D01EFEFEE1AA9
:10216000FE0A8C918987D8019C9153960D90BC9161
:10217000A02DF8018589992309F42EC09C91982BF4
:1021800098879C91809589238F838F818E8388E0A7
:102190008D8358856F8149853D812E8189819A8102
:1021A000F7015C9347FD252F3A952C93262F39F0A4
:1021B000441F00C000006C93000000C0F2CF38E064
:1021C00041916C930000019761F7F801B48BA38BE8
:1021D00049873D832E8338C09C91982B98879C918A
:1021E000809589238F838F818C8388E08B835885AA
:1021F0006F8149853B812C8189819A81F7015C93AC
:1022000047FD252F00C000C02C9300C000C000C0B7
:1022100000C000C06C930000262F3A9541F0441F87
:10222000000000C000C000C000C000C0E8CF38E01F
:10223000419100C06C9300C0019709F7F801B48B7D
:10224000A38B49873B832C839A83898378940E944C
:10225000CB12D8011F966D937D938D939C935297CB
:1022600029960FB6F894DEBF0FBECDBFDF91CF9198
:102270001F910F91FF90EF90DF90CF9008950F93F3
:102280001F93CF93DF93EC018B018981882339F071
:102290008E819F8197FD03C060E00E9485131F839C
:1022A0000E838981882341F061E0802F0E9485138D
:1022B00060E0802F0E94BE13F801E256FF4FE491C8
:1022C000F0E0EE0FFF1FE454FF4F859194919C8B3B
:1022D0008B8BF801E657FF4F04910D8BDF91CF9167
:1022E0001F910F910895EF92FF920F931F93CF9339
:1022F000DF93EC018B017A01198218861A86198600
:102300001F86188A198A1A8AB9010E944010B801DA
:10231000CE010E940810B701CE01DF91CF911F912D
:102320000F91FF90EF900C943F11CF92DF92EF92BC
:10233000FF920F931F93CF93DF93FC0182819381D0
:102340006817790708F04DC0CA01AA27BB27182FC4
:10235000C32ED42EE52EFF24DC2DC22F00850023B2
:1023600061F0809FC0011124192FC09E60011124CB
:10237000DD2D209FC0011124C92FF6848385A185FE
:10238000B285F81208C0CB01880F991F860F971FDE
:102390008A0F9B1F17C0CB01880F991F880F991FA9
:1023A0008A0F9B1F452F552766277727DC01AF0D26
:1023B000B11D002329F0409F90011124232F01C05B
:1023C000242F2C932385DC01A20FB11D1C9324859F
:1023D000DC01A20FB11DDC932585FC01E20FF11D8C
:1023E000C083DF91CF911F910F91FF90EF90DF900D
:1023F000CF90089508958230E8F4E82FF0E0EE0FD2
:10240000FF1FEA5EFB4F71836083813041F0809152
:1024100069008C7F842B80936900E89A08958091ED
:102420006900440F551F440F551F837F842B8093F1
:102430006900E99A08951F920F920FB60F92112426
:102440002F933F934F935F936F937F938F939F93BC
:10245000AF93BF93EF93FF9380911604909117046D
:10246000892B29F0E0911604F09117040995FF914A
:10247000EF91BF91AF919F918F917F916F915F91FC
:102480004F913F912F910F900FBE0F901F90189575
:102490001F920F920FB60F9211242F933F934F93D9
:1024A0005F936F937F938F939F93AF93BF93EF93BC
:1024B000FF938091180490911904892B29F0E091E1
:1024C0001804F09119040995FF91EF91BF91AF9114
:1024D0009F918F917F916F915F914F913F912F913C
:1024E0000F900FBE0F901F9018951F920F920FB66E
:1024F0000F9211242F933F938F939F93AF93BF938A
:1025000080911B0490911C04A0911D04B0911E04A5
:1025100030911A0423E0230F2D3720F40196A11DDA
:10252000B11D05C026E8230F0296A11DB11D209301
:102530001A0480931B0490931C04A0931D04B09371
:102540001E0480911F0490912004A0912104B09159
:1025500022040196A11DB11D80931F0490932004B5
:10256000A0932104B0932204BF91AF919F918F91CA
:102570003F912F910F900FBE0F901F9018952FB77E
:10258000F89460911B0470911C0480911D0490913B
:102590001E042FBF08953FB7F89480911F049091B7
:1025A0002004A0912104B091220426B5A89B05C067
:1025B0002F3F19F00196A11DB11D3FBF6627782F4F
:1025C000892F9A2F620F711D811D911D42E0660FA8
:1025D000771F881F991F4A95D1F70895CF92DF92F0
:1025E000EF92FF92CF93DF936B017C010E94CB129D
:1025F000EB01C114D104E104F10489F00E94FA1145
:102600000E94CB126C1B7D0B683E734090F381E0FF
:10261000C81AD108E108F108C851DC4FEACFDF91B0
:10262000CF91FF90EF90DF90CF9008958230910589
:1026300038F0880F991F880F991F05970197F1F7B8
:102640000895789484B5826084BD84B5816084BD2A
:1026500085B5826085BD85B5816085BDEEE6F0E01B
:10266000808181608083E1E8F0E010828081826077
:102670008083808181608083E0E8F0E080818160F8
:102680008083E1EBF0E0808184608083E0EBF0E028
:10269000808181608083EAE7F0E0808184608083CC
:1026A0008081826080838081816080838081806876
:1026B00080831092C1000895833081F028F4813026
:1026C00099F08230A1F008958730A9F08830B9F0F0
:1026D0008430D1F4809180008F7D03C08091800090
:1026E0008F7780938000089584B58F7702C084B57A
:1026F0008F7D84BD08958091B0008F7703C0809155
:10270000B0008F7D8093B0000895CF93DF9390E069
:10271000FC01E657FF4F2491FC01E256FF4F8491E4
:10272000882349F190E0880F991FFC01EA53FF4F7D
:10273000A591B49184549F4FFC01C591D4919FB74A
:10274000611108C0F8948C91209582238C93888124
:1027500082230AC0623051F4F8948C91322F309564
:1027600083238C938881822B888304C0F8948C9176
:10277000822B8C939FBFDF91CF9108950F931F936E
:10278000CF93DF931F92CDB7DEB7282F30E0F9014A
:10279000EA58FF4F8491F901E657FF4F1491F90170
:1027A000E256FF4F04910023C9F0882321F069838A
:1027B0000E945C136981E02FF0E0EE0FFF1FE454EC
:1027C000FF4FA591B4919FB7F8948C91611103C00C
:1027D0001095812301C0812B8C939FBF0F90DF91B7
:1027E000CF911F910F910895CF93DF93282F30E061
:1027F000F901EA58FF4F8491F901E657FF4FD49150
:10280000F901E256FF4FC491CC2391F081110E944F
:102810005C13EC2FF0E0EE0FFF1FEE54FF4FA5917D
:10282000B4912C912D2381E090E021F480E002C04E
:1028300080E090E0DF91CF9108950F931F93762F62
:1028400090E0FC01E657FF4F6491FC01E256FF4F18
:10285000E4917111762FF0E0EE0FFF1FEE54FF4F61
:102860008591949189019A013F70472F0E949600AB
:10287000611571058105910531F06F5F7F4F8F4FB5
:102880009F4F9F7003C060E070E0CB011F910F91DC
:102890000895FC01818D228D90E0805C9F4F821B0A
:1028A00091098F7399270895FC01918D828D981756
:1028B00031F0828DE80FF11D858D90E008958FEF46
:1028C0009FEF0895FC01918D828D981761F0828DA4
:1028D000DF01A80FB11D5D968C91928D9F5F9F7354
:1028E000928F90E008958FEF9FEF089586EE95E127
:1028F000892B49F080E090E0892B29F00E94E615B1
:1029000081110C9400000895FC01848DDF01A80F53
:10291000B11DA35ABF4F2C91848D90E001968F7307
:102920009927848FA689B7892C93A089B1898C9126
:1029300080648C93938D848D981306C00288F389EC
:10294000E02D80818F7D80830895CF93DF93EC010C
:10295000888D8823C9F0EA89FB89808185FD05C0BF
:10296000A889B9898C9186FD0FC00FB607FCF5CFF9
:10297000808185FFF2CFA889B9898C9185FFEDCF41
:10298000CE010E948414E7CFDF91CF910895CF92BA
:10299000DF92FF920F931F93CF93DF931F92CDB7D8
:1029A000DEB76C0181E0D60158968C9358975B9600
:1029B0009C915B975C968C915C97981307C050969E
:1029C000ED91FC915197808185FD2EC0F601038D1C
:1029D00010E00F5F1F4F0F731127F02EF601848D4B
:1029E000F81211C00FB607FCF9CFD6015096ED9141
:1029F000FC915197808185FFF1CFC60169830E94C8
:102A000084146981EBCF838DE80FF11DE35AFF4FEA
:102A10006083D6015B960C935B975296ED91FC9187
:102A20005397808180620CC0D6015696ED91FC913F
:102A3000579760835096ED91FC9151978081806407
:102A4000808381E090E00F90DF91CF911F910F91F3
:102A5000FF90DF90CF900895BF92CF92DF92EF92D8
:102A6000FF92CF93DF93EC016A017B01B22EE889DC
:102A7000F98982E08083411581EE5807610571056F
:102A8000A1F060E079E08DE390E0A70196010E945B
:102A9000EA18215031094109510956954795379552
:102AA0002795211580E1380798F0E889F989108287
:102AB00060E874E88EE190E0A70196010E94EA18B0
:102AC0002150310941095109569547953795279568
:102AD000EC85FD853083EE85FF852083188EEC899B
:102AE000FD89B082EA89FB89808180618083EA89DF
:102AF000FB89808188608083EA89FB898081806886
:102B00008083EA89FB8980818F7D8083DF91CF91EB
:102B1000FF90EF90DF90CF90BF9008951F920F929B
:102B20000FB60F9211242F938F939F93EF93FF93E0
:102B3000E0913304F09134048081E0913904F09104
:102B40003A0482FD12C0908180913C048F5F8F73A4
:102B500020913D04821751F0E0913C04F0E0ED5DDE
:102B6000FB4F958F80933C0401C08081FF91EF91D2
:102B70009F918F912F910F900FBE0F901F901895DE
:102B80001F920F920FB60F9211242F933F934F93E2
:102B90005F936F937F938F939F93AF93BF93EF93C5
:102BA000FF9383E294E00E948414FF91EF91BF9120
:102BB000AF919F918F917F916F915F914F913F91D5
:102BC0002F910F900FBE0F901F90189583E294E005
:102BD0000E94491421E0892B09F420E0822F0895F6
:102BE000109226041092250488EE93E0A0E0B0E055
:102BF0008093270490932804A0932904B0932A0477
:102C000088EE92E0909324048093230485EC90E076
:102C10009093300480932F0484EC90E090933204DE
:102C20008093310480EC90E09093340480933304DB
:102C300081EC90E0909336048093350482EC90E030
:102C4000909338048093370486EC90E090933A0494
:102C50008093390410923C0410923D0410923E047B
:102C600010923F04089508950E9421130E94331684
:102C70000E94DB00C6E7D4E10E94F5002097E1F353
:102C80000E947614F9CFCF92DF92EF92FF920F93CA
:102C90001F93CF93DF936C017A01EB01E60EF71ED1
:102CA00000E010E0CE15DF0561F06991D601ED91ED
:102CB000FC910190F081E02DC6010995080F191FC4
:102CC000F1CFC801DF91CF911F910F91FF90EF904D
:102CD000DF90CF9008956115710581F0DB010D90B3
:102CE0000020E9F7AD0141505109461B570BDC01AB
:102CF000ED91FC910280F381E02D099480E090E059
:102D0000089564EF72E00C946B160F931F93CF93AA
:102D1000DF93EC010E946B168C01CE010E9481169C
:102D2000800F911FDF91CF911F910F9108955058FF
:102D3000BB27AA270ED075C166D130F06BD120F029
:102D400031F49F3F11F41EF45BC10EF4E095E7FBF4
:102D500051C1E92F77D180F3BA176207730784074F
:102D6000950718F071F49EF58FC10EF4E0950B2EC7
:102D7000BA2FA02D0B01B90190010C01CA01A001CD
:102D80001124FF27591B99F0593F50F4503E68F128
:102D90001A16F040A22F232F342F4427585FF3CF69
:102DA000469537952795A795F0405395C9F77EF43A
:102DB0001F16BA0B620B730B840BBAF09150A1F083
:102DC000FF0FBB1F661F771F881FC2F70EC0BA0F09
:102DD000621F731F841F48F4879577956795B79591
:102DE000F7959E3F08F0B3CF9395880F08F0992789
:102DF000EE0F979587950895D9D008F481E008954E
:102E00000CD00FC107D140F0FED030F021F45F3F6D
:102E100019F0F0C0511139C1F3C014D198F39923BE
:102E2000C9F35523B1F3951B550BBB27AA2762178E
:102E30007307840738F09F5F5F4F220F331F441FD3
:102E4000AA1FA9F333D00E2E3AF0E0E830D091500B
:102E50005040E695001CCAF729D0FE2F27D0660FF8
:102E6000771F881FBB1F261737074807AB07B0E837
:102E700009F0BB0B802DBF01FF2793585F4F2AF04D
:102E80009E3F510568F0B6C000C15F3FECF3983E2D
:102E9000DCF3869577956795B795F7959F5FC9F7AA
:102EA000880F911D9695879597F90895E1E0660F33
:102EB000771F881FBB1F621773078407BA0720F0AC
:102EC000621B730B840BBA0BEE1F88F7E095089515
:102ED00004D06894B111D9C00895BCD088F09F5730
:102EE00090F0B92F9927B751A0F0D1F0660F771F56
:102EF000881F991F1AF0BA95C9F712C0B13081F036
:102F0000C3D0B1E00895C0C0672F782F8827B85F7D
:102F100039F0B93FCCF3869577956795B395D9F796
:102F20003EF490958095709561957F4F8F4F9F4FA0
:102F30000895E89409C097FB3EF4909580957095AC
:102F400061957F4F8F4F9F4F9923A9F0F92F96E9F5
:102F5000BB279395F695879577956795B795F1116A
:102F6000F8CFFAF4BB0F11F460FF1BC06F5F7F4F07
:102F70008F4F9F4F16C0882311F096E911C0772319
:102F800021F09EE8872F762F05C0662371F096E822
:102F9000862F70E060E02AF09A95660F771F881FF1
:102FA000DAF7880F9695879597F90895990F000895
:102FB000550FAA0BE0E8FEEF16161706E807F9070B
:102FC000C0F012161306E407F50798F0621B730BA6
:102FD000840B950B39F40A2661F0232B242B252B27
:102FE00021F408950A2609F4A140A6958FEF811DCA
:102FF000811D089597F99F6780E870E060E008956B
:103000009FEF80EC089500240A9416161706180600
:103010000906089500240A941216130614060506DC
:103020000895092E0394000C11F4882352F0BB0F6D
:1030300040F4BF2B11F460FF04C06F5F7F4F8F4FD0
:103040009F4F089557FD9058440F551F59F05F3F0B
:1030500071F04795880F97FB991F61F09F3F79F0BA
:1030600087950895121613061406551FF2CF46953C
:10307000F1DF08C0161617061806991FF1CF8695BE
:103080007105610508940895E894BB2766277727A2
:10309000CB0197F908958ADF08F48FEF08950BD0DC
:1030A000C0CFB1DF28F0B6DF18F0952309F0A2CF2A
:1030B000A7CF1124EACFC6DFA0F3959FD1F3950FD8
:1030C00050E0551F629FF001729FBB27F00DB11DAC
:1030D000639FAA27F00DB11DAA1F649F6627B00D3C
:1030E000A11D661F829F2227B00DA11D621F739F25
:1030F000B00DA11D621F839FA00D611D221F749F33
:103100003327A00D611D231F849F600D211D822F79
:10311000762F6A2F11249F5750408AF0E1F08823C0
:103120004AF0EE0FFF1FBB1F661F771F881F9150CD
:103130005040A9F79E3F510570F05CCFA6CF5F3F8E
:10314000ECF3983EDCF3869577956795B795F79500
:10315000E7959F5FC1F7FE2B880F911D9695879588
:1031600097F90895DB018F939F930E944019BF91B7
:10317000AF91A29F800D911DA39F900DB29F900DC6
:1031800011240895AA1BBB1B51E107C0AA1FBB1F36
:10319000A617B70710F0A61BB70B881F991F5A95E3
:1031A000A9F780959095BC01CD01089597FB072E56
:1031B00016F4009407D077FD09D00E94C21807FCCE
:1031C00005D03EF4909581959F4F08957095619537
:1031D0007F4F0895A1E21A2EAA1BBB1BFD010DC053
:1031E000AA1FBB1FEE1FFF1FA217B307E407F507B7
:1031F00020F0A21BB30BE40BF50B661F771F881F93
:10320000991F1A9469F760957095809590959B0128
:10321000AC01BD01CF010895052E97FB1EF400946B
:103220000E94231957FD07D00E94EA1807FC03D01B
:103230004EF40C94231950954095309521953F4FAD
:103240004F4F5F4F089590958095709561957F4F92
:103250008F4F9F4F0895EE0FFF1F0590F491E02DC3
:103260000994A29FB001B39FC001A39F700D811D5F
:103270001124911DB29F700D811D1124911D08957F
:103280000E943119A59F900DB49F900DA49F800DB1
:10329000911D11240895B7FF0C9440190E94401904
:1032A000821B930B0895CF93DF938230910510F426
:1032B00082E090E0E091C204F091C30420E030E0AD
:1032C000A0E0B0E0309739F14081518148175907AB
:1032D000B8F04817590771F482819381109729F04B
:1032E00013969C938E9312972CC09093C304809353
:1032F000C20427C02115310531F04217530718F0D9
:10330000A901DB0101C0EF019A01BD01DF010280CB
:10331000F381E02DD7CF21153105F9F0281B390BAA
:103320002430310580F48A819B816115710521F07B
:10333000FB019383828304C09093C3048093C204EF
:10334000FE01329644C0FE01E20FF31F8193919378
:1033500022503109398328833AC02091C00430912A
:10336000C104232B41F420910201309103013093D9
:10337000C1042093C0042091000130910101211566
:10338000310541F42DB73EB740910401509105013C
:10339000241B350BE091C004F091C104E217F30740
:1033A000A0F42E1B3F0B2817390778F0AC014E5FB5
:1033B0005F4F2417350748F04E0F5F1F5093C1042D
:1033C0004093C0048193919302C0E0E0F0E0CF010C
:1033D000DF91CF910895CF93DF93009709F487C0D1
:1033E000FC01329713821282C091C204D091C304AF
:1033F000209781F420813181280F391F8091C004EA
:103400009091C1048217930779F5F093C104E0937A
:10341000C0046DC0DE0120E030E0AE17BF0750F4FD
:1034200012964D915C9113979D014115510509F13B
:10343000DA01F3CFB383A28340815181840F951FBA
:103440008A179B0771F48D919C911197840F951F9A
:1034500002969183808312968D919C91139793830A
:1034600082832115310529F4F093C304E093C2044B
:103470003EC0D9011396FC93EE9312974D915D9146
:10348000A40FB51FEA17FB0779F480819181840F9F
:10349000951F0296D90111969C938E9382819381F8
:1034A00013969C938E931297E0E0F0E08A819B81C3
:1034B000009719F0FE01EC01F9CFCE0102962881A8
:1034C0003981820F931F2091C0043091C1042817C5
:1034D000390769F4309729F41092C3041092C2049A
:1034E00002C013821282D093C104C093C004DF9142
:1034F000CF910895DC0101C06D9341505040E0F739
:10350000089510E0C6EDD0E004C0FE010E942D1920
:0C3510002296C83DD107C9F7F894FFCF00
:10351C000000C4048000014655445A5A5A5A5A466F
:10352C0055445A5A5A5A5A01000000C80001000565
:10353C000403020706FFFFFFFFFFFFFFFF46554492
:10354C005A5A5A5A5A3AFF37FF69FF67FF82FF826D
:10355C00FF14FF14FF3AFF82FF69FF14FF82FF374D
:10356C00FF14FF67FF3AFF37FF14FF14FF82FF823F
:10357C00FF69FF67FF4E6F726D616C3A2051756188
:10358C0064437261776C6572312E31003AFF37FFFC
:10359C0069FF67FF82FF82FF14FF14FF3AFF37FFBA
:1035AC0069FF67FF82FF82FF14FF14FF82FF82FF17
:1035BC0069FF67FF3AFF37FF14FF14FF82FF82FF9A
:1035CC0069FF67FF3AFF37FF14FF14FF3AFF37FF1D
:1035DC0069FF67FF3AFF82FF69FF14FF3AFF37FF6D
:1035EC0069FF67FF3AFF82FF69FF14FFFF5AFF6E06
:1035FC00FF50FF3C50FF37FF69FF50FFFF3CFF506F
:10360C00FF6EFF5A3AFF4BFF50FF67FFFF5AFF6EEA
:10361C00FF50FF3C3AFF4BFF50FF67FFFF3CFF5052
:10362C00FF6EFF5A50FF37FF69FF50FFFF5AFF50E4
:10363C00FF50FF5A50FF37FF69FF50FFFF3CFF6EF2
:10364C00FF6EFF3C3AFF4BFF50FF67FFFF5AFF50E6
:10365C00FF50FF5A3AFF4BFF50FF67FFFF3CFF6ED6
:10366C00FF6EFF3C50FF37FF69FF50FFFF5AFF50C2
:10367C00FF6EFF3C3AFF4BFF50FF67FFFF3CFF6EB6
:10368C00FF50FF5A50FF37FF69FF50FFFF5AFF50A2
:10369C00FF6EFF3C50FF37FF69FF50FFFF3CFF6E92
:1036AC00FF50FF5A3AFF4BFF50FF67FFFFFFFFFF32
:1036BC00FFFFFFFF4655445A5A5A5A5A3A3C375064
:1036CC00696E675A505A4B6E5050503C8255825A14
:1036DC00145A145A737000710000007275000000C7
:1036EC007600777400000000290BFC0AD10AD90A75
:1036FC00EC0AFB0A00000000C714431649146214BC
:10370C005414A5140D0A006E616E00696E66006F8C
:06371C007666002E00009D
:00000001FF
