:100000000C946C000C94F2100C941F110C9494003E
:100010000C9494000C9494000C9494000C94940010
:100020000C9494000C9494000C9494000C94940000
:100030000C9494000C9494000C9494000C949400F0
:100040000C944C110C9494000C9465140C9497141B
:100050000C9494000C9494000C9494000C949400D0
:100060000C945B0B0C9494007C0680067C06800646
:100070007C068006830600000008000201000003E1
:100080000407000000000000000001020408102026
:10009000408001020408102001020408102004041A
:1000A0000404040404040202020202020303030320
:1000B00003030000000023002600290000000000C8
:1000C000250028002B0000000000240027002A0043
:1000D0002606790AC714340611241FBECFEFD8E0D4
:1000E000DEBFCDBF12E0A0E0B1E0E8E2F2E302C083
:1000F00005900D92A03FB107D9F724E0A0EFB2E040
:1001000001C01D92A83AB207E1F710E0C6EDD0E0B9
:1001100004C02297FE010E94D517C03DD107C9F740
:100120000E940B150C9407190C940000CF92DF92DB
:10013000EF92FF920F931F93E82FF92F05C0015004
:1001400011092109310961F1908196239417B9F3BE
:1001500005C0015011092109310911F1908196233F
:100160009413F7CFC12CD12CE12CF12C0AC08FEFC6
:10017000C81AD80AE80AF80A0C151D052E053F050D
:1001800079F080818623841791F36C2D7D2D8E2D3F
:100190009F2D1F910F91FF90EF90DF90CF900895CA
:1001A00060E070E080E090E01F910F91FF90EF9091
:1001B000DF90CF9008950E948C090E94C60585E0CB
:1001C0000E94B80484E690E00E94A50526E040E085
:1001D00052EC61E070E087E094E00E94031460E577
:1001E00071E087E094E00C945C15AF92CF92DF92BF
:1001F000EF92FF920F931F93CF93DF93CDB7DEB7AC
:1002000027970FB6F894DEBF0FBECDBF80E090E019
:100210000E941F080E946809F82E603629F0653692
:1002200021F460E1670F01C0672F8091F102681728
:1002300009F4E8C06093F102623509F4D1C0E8F531
:10024000693109F49BC0E8F46C3009F4A6C050F49D
:10025000683009F4B1C0693009F48BC0673009F027
:10026000C9C082C0653109F4CDC020F46D3009F4F5
:10027000C9C0C0C0663109F465C0683109F492C0D4
:10028000B9C0643409F484C078F4603409F467C0F8
:1002900020F46C3109F495C0ADC0623409F49BC000
:1002A000633409F470C0A6C0673409F446C008F48A
:1002B000A9C06A3409F499C09DC0633709F459C0D4
:1002C00008F5633609F491C078F46E3509F46FC00F
:1002D00020F46A3509F47AC08DC0613609F462C031
:1002E000623609F478C086C0603709F44CC020F447
:1002F000643609F475C07EC0613789F1623709F44C
:1003000047C078C0603809F448C048F4653709F43C
:100310003FC050F1663791F16737A9F16BC0633880
:1003200009F454C020F4613809F446C063C064384D
:1003300009F447C06638D9F15DC088EB9BE00E94A4
:10034000A50560C082E390E00E94A50505E010E0ED
:1003500085E00E94E40401501109D1F753C083E005
:100360000E94B80461E04AC086E00E94B80466E0DA
:1003700045C086E00E94B80465E040C081E00E946C
:10038000B80464E03BC082E00E94B80462E036C07A
:1003900082E00E94B80463E031C086E00E94B804A5
:1003A00067E02CC086E00E94B80468E027C086E0C1
:1003B0000E94B80469E022C086E00E94B8046AE0A6
:1003C0001DC086E00E94B8046BE018C086E00E9461
:1003D000B8046CE013C086E00E94B8046DE00EC063
:1003E00086E00E94B8046EE009C086E00E94B8046E
:1003F0006FE004C085E00E94B80460E088EC90E003
:100400000E94250486E00E94CB122091F002892BE5
:1004100019F5211111C081E00E94B804AA24A39407
:10042000CC24C394EE24E39401E021E041E061E0B8
:1004300081E00E944D0308C085E00E94B80460E09E
:1004400088EC90E00E94250481E09091F0029111E7
:1004500080E08093F00207C0222329F00E94B303BA
:10046000882309F443C00E94BA0389E08F1548F439
:100470006F2D70E080E197E20E949D17CB010E94F2
:1004800020040E9469056B017C0120E030E040E01F
:1004900051E40E94D31587FF14C020E030E040E211
:1004A00051E4C701B6010E9426176B017C010E942E
:1004B0003F16CB010E94A505C701B6010E94441654
:1004C00004C062E370E080E090E027960FB6F894F5
:1004D000DEBF0FBECDBFDF91CF911F910F91FF9077
:1004E000EF90DF90CF90AF900C94C51185E00E9403
:1004F000B8041092F002B7CF6F927F928F929F92C2
:10050000AF92BF92CF92DF92EF92FF920F931F9321
:10051000CF93DF93CDB7DEB728970FB6F894DEBF41
:100520000FBECDBF962E7C018E010F5F1F4F6E0157
:1005300029E0C20ED11C702E612E88E0882E9EE626
:10054000A92EB12CD7018D917D01E8E0F1E0A72D16
:10055000B62D982D01900D929A95E1F7D801ED9165
:100560008D01B8EC8B9FC0011124805A9F40B501CA
:100570000E9489179B0128533F4F2139F1E03F0723
:1005800068F440E050E06E2F80E193E00E94970C09
:1005900064E170E080E090E00E94C5110C151D053B
:1005A00089F690920F038091FF0390910004A0912F
:1005B0000104B091020480930B0390930C03A09369
:1005C0000D03B0930E0328960FB6F894DEBF0FBE4E
:1005D000CDBFDF91CF911F910F91FF90EF90DF90F2
:1005E000CF90BF90AF909F908F907F906F90089525
:1005F00090930A03809309030C947C02CF92DF92BC
:10060000EF92FF92CF93DF936B017C01C0E0D0E0CB
:100610008091F4029091F502C817D90798F4A701C8
:100620009601BE0182EF92E00E946C1082EF92E090
:100630000E944F0F6AE070E080E090E00E94C511D8
:100640002196E6CFDF91CF91FF90EF90DF90CF9092
:100650000895CF93C0E020E030E040E050E06C2F00
:1006600080E193E00E94970CCF5FC830A1F7109211
:100670000F038091FF0390910004A0910104B091B9
:10068000020480930B0390930C03A0930D03B0938B
:100690000E0310920803CF910895AF92CF92EF927C
:1006A0000F93CF93DF93CDB7DEB728970FB6F894AB
:1006B000DEBF0FBECDBF98E0899FD0011124A9579E
:1006C000BD4F8C91898388E0689FF0011124E95720
:1006D000FD4F81818A8398E0499FD0011124A95759
:1006E000BD4F12968C918B8388E0289FF0011124D6
:1006F000E957FD4F83818C8398E0099FD001112435
:10070000A957BD4F14968C918D8388E0E89EF00127
:100710001124E957FD4F85818E8398E0C99ED00151
:100720001124A957BD4F16968C918F8388E0A89EFF
:10073000F0011124E957FD4F8781888767E0CE01DA
:1007400001960E94F80280E18093080328960FB674
:10075000F894DEBF0FBECDBFDF91CF910F91EF9028
:10076000CF90AF90089581E090910F03911101C057
:1007700080E008958091FF0390910004A09101040E
:10078000B091020440910B0350910C0360910D0352
:1007900070910E03841B950BA60BB70B20910F03D2
:1007A000223029F0273019F0211113C0089580322A
:1007B0002FEB920722E0A207B10518F00E9429034F
:1007C00006C090FF04C061E08DE00C94951260E0DB
:1007D000FBCF409106015091070160E070E0841763
:1007E0009507A607B70758F1243091F028F4213077
:1007F00021F1233031F00895253091F02630B9F001
:1008000008958091090390910A0364E0089606C058
:100810008091090390910A0365E040960C947C0254
:100820008091090390910A0366E04896F7CF63E050
:100830008091090390910A03F1CF0C942903089544
:1008400090930701809306010895CF93DF93CDB76E
:10085000DEB728970FB6F894DEBF0FBECDBF9093DA
:1008600007018093060180910803861709F477C079
:1008700060930803611110C088E0E8E1F1E0DE0157
:10088000119601900D928A95E1F780910F038230C5
:1008900008F465C061E04DC0613021F463E087E693
:1008A00092E05BC0643021F463E087E492E055C0DD
:1008B000623021F463E087E292E04FC0633019F4C4
:1008C00087E092E04AC0653021F463E087EE91E072
:1008D00044C0663021F463E087EC91E03EC06730AD
:1008E00021F488E0E0E2F1E01DC0683021F488E006
:1008F000E8E2F1E017C0693021F488E0E0E3F1E0DC
:1009000011C06A3021F488E0E8E3F1E00BC06B30FD
:1009100021F488E0E0E4F1E005C06C3069F488E09F
:10092000E8E4F1E0DE01119601900D928A95E1F77D
:1009300062E0CE01019611C06D3021F463E087EAD8
:1009400091E00BC06E3021F463E087E891E005C0D0
:100950006F3029F463E087E691E00E94F802289660
:100960000FB6F894DEBF0FBECDBFDF91CF910895D3
:100970008330B1F028F4813049F0823061F008957D
:100980008530C1F090F08630C9F0089560E070E0E5
:100990008FEF90E017C060E07FEF80E090E012C042
:1009A0006FEF70E080E090E00DC060E070E880E8FC
:1009B00090E008C060E870E0CB0104C060E870E837
:1009C00080E090E00C94FE025F926F927F928F9293
:1009D0009F92AF92BF92CF92DF92EF92FF920F93CE
:1009E0001F93CF93DF93B12C00E010E0C82ED12CE1
:1009F000E12CF12CA12CC0E0D0E0502E602E6094B0
:100A000077247A947B0C3EEF832E8B0C4DEF942E43
:100A10009B0C8091F4029091F502C817D907C0F59C
:100A20008C2F962D9C1B953580F4800F282F220F3C
:100A3000280F2E5F822F90E0A0E0B0E0AC013327BA
:100A40002227892D8A19282B1AC0850D9A3A58F425
:100A5000282F220F280F2F5F30E040E050E0882D34
:100A60008A19382B0CC0982F990F980F272D2A1907
:100A7000422F50E060E070E033272227392BBE017F
:100A800082EF92E00E946C10219683E0A80EC1CF05
:100A900082EF92E00E944F0FC701B6010E94C5117C
:100AA0000F5F1F4F2DEFB20E011581E0180709F0FF
:100AB000A1CFDF91CF911F910F91FF90EF90DF9029
:100AC000CF90BF90AF909F908F907F906F905F90EE
:100AD0000895CF92DF92EF92FF9260E08FE00E9444
:100AE000951282E090E00E94ED1161E08FE00E949B
:100AF00095128AE090E00E94ED1160E08FE00E9484
:100B0000951220E432E44FE050E061E08EE00E9474
:100B1000F4120E9470166B017C0120E030E0A90104
:100B20000E94221718164CF426E933E44BE85CE3E4
:100B3000C701B6010E94261703C060E070E0CB0138
:100B4000FF90EF90DF90CF9008950F931F93CF9376
:100B5000DF938C01C0E0D0E0C017D10794F461E0CE
:100B600088E00E94951280E991E00E94ED1160E01A
:100B700088E00E94951280E991E00E94ED11219693
:100B8000EBCFDF91CF911F910F910895CF93DF931A
:100B9000CDB7DEB728970FB6F894DEBF0FBECDBF36
:100BA00061E081E10E945C1261E081E10E949512A6
:100BB00060E08EE00E945C1261E08FE00E945C12B7
:100BC00061E088E00E945C1262E083E00E945C12B7
:100BD00062E084E00E945C1262E085E00E945C12A8
:100BE00062E086E00E945C1282EF92E00E94CC0EEE
:100BF00082EF92E00E944F0F60E080E193E00E945C
:100C0000290E40E050E068E472E480E193E00E9445
:100C1000860D0E94D11060E081E10E94951288E06B
:100C2000E8E1F1E0DE01119601900D928A95E1F77D
:100C300061E0CE0101960E94F80228960FB6F89462
:100C4000DEBF0FBECDBFDF91CF91089580E193E06D
:100C50000E948F0C22E530E040E150E068E070E057
:100C600082EF92E00C944A1082EF92E00C94B90E5D
:100C7000CF92DF92EF92FF920F931F93CF93DF9368
:100C800082E00E94CB12C82F0E94A2110091300373
:100C90001091310320913203309133036B017C01B9
:100CA000C01AD10AE20AF30AC114D10441E0E406F1
:100CB000F10460F40091300310913103209132036C
:100CC000309133039B01201B310B02C02FEF3FEF0C
:100CD0006093300370933103809332039093330316
:100CE0004091390350E04730510508F0B9C0FA018E
:100CF000EC5CFF4F0C94D317C13009F0B1C094C124
:100D0000C111AEC08DC1C9018F5A91098F35914073
:100D1000E8F48091380380FD15C0809134039091F0
:100D20003503A0913603B0913703880F991FAA1F8E
:100D3000BB1F81608093340390933503A0933603E7
:100D4000B0933703809138038F5F1CC02D50324021
:100D50002F353140F0F48091340390913503A09108
:100D60003603B0913703880F991FAA1FBB1F8093CA
:100D7000340390933503A0933603B09337038091E7
:100D800038038E5F80933803809138038E3120F4CE
:100D90004DC1C11149C177C010923903809134030C
:100DA00090913503A0913603B0913703209117033A
:100DB000492F429546954770211104C043704093D6
:100DC000170334C120911703437050E030E04217FD
:100DD000530709F02BC127E0E1E2F3E0EF0119929C
:100DE0002A95E9F7282F2770205A20932503282FCA
:100DF00026952695269530E020513109F4E0220F02
:100E0000331FFA95E1F73093220320932103892FB2
:100E10008F7190E04097A4E0880F991FAA95E1F7A1
:100E200090932403809323030E94961160932C03D4
:100E300070932D0380932E0390932F0382E090E014
:100E4000909319038093180361E08DE0DF91CF91B7
:100E50001F910F91FF90EF90DF90CF900C9495121F
:100E600080913903823069F128F4882361F0813060
:100E700061F0DCC0843009F49AC008F445C08530C4
:100E800009F4D2C0D3C081E0CCC0C90187559A41D2
:100E90008339914110F482E0C4C02B5633402F3582
:100EA000314008F0C1C086E08093390310923403CA
:100EB00010923503109236031092370310923803C4
:100EC000B5C0C9018B529D408B3C984060F4109294
:100ED00034031092350310923603109237031092A8
:100EE000380383E09EC0255936402736344008F049
:100EF00097C00E94961160932C0370932D038093EA
:100F00002E0390932F038CC0255A31402B31314052
:100F100008F08AC080913803803208F446C080917E
:100F2000340390913503A0913603B091370340917B
:100F30003403509135036091360370913703892F44
:100F40009A2FAB2FBB2784279527A627B72799274A
:100F5000BB278F3F9105AF4FB10509F065C087E012
:100F6000E1E2F3E0DF011D928A95E9F78091340315
:100F700090913503A0913603B0913703A0932503D8
:100F80000E94961160932C0370932D0380932E037F
:100F900090932F0381E090E09093190380931803BE
:100FA00061E08DE00E9495123FC084E03AC083E08A
:100FB000809339038091340390913503A0913603D7
:100FC000B0913703B695A79597958795809334038D
:100FD00090933503A0933603B09337038091380381
:100FE0008F5F80933803C901805F94408D349340B4
:100FF00090F48091340390913503A0913603B09121
:101000003703B0688093340390933503A09336037D
:10101000B09337030BC0255A31402B31314030F0AB
:1010200085E08093390302C010923903DF91CF919C
:101030001F910F91FF90EF90DF90CF9008950F9345
:101040001F93CF93DF93EC0180912C0390912D039C
:10105000A0912E03B0912F03892B8A2B8B2B09F49F
:10106000D6C00E94961100912C0310912D0320915F
:101070002E0330912F03601B710B820B930B109189
:101080001E036C3271408105910508F099C0809172
:10109000180390911903029709F078C02091210359
:1010A000309122038091230390912403B90137FFEB
:1010B00004C066277727621B730BAC0197FF04C03F
:1010C00044275527481B590B640F751F683271055B
:1010D00008F44EC0D90137FD1196B595A795E1E00A
:1010E000A817B9070CF0E0E0AC0197FF02C04F5F12
:1010F0005F4F55954795241735070CF4EE5FAC010B
:1011000097FF02C04F5F5F4F5595479551954195A9
:101110005109241735070CF4EC5F44275527481B69
:10112000590BA417B5070CF4E85FF0E0E155FD4F4B
:10113000E081E0932603E33791F020F4E13761F496
:101140009C010DC0E43721F0E63731F49A0107C065
:1011500031952195310903C09B01369527952130A2
:1011600081E0380710F02FEF30E02093270304C010
:101170001092260310922703CD2B41F08091250376
:10118000803621F4809126038093250311110EC02F
:1011900080912503882351F081E090E0909319031A
:1011A0008093180361E08DE00E94951287E0E1E2F0
:1011B000F3E0AAE1B3E001900D928A95E1F77BC0DC
:1011C000112309F478C087E0EAE1F3E0DF011D9222
:1011D0008A95E9F781E090E09093190380931803D2
:1011E00060E08DE00E94951210922C0310922D0366
:1011F00010922E0310922F030E94961160932803E1
:101200007093290380932A0390932B0354C08091F9
:10121000280390912903A0912A03B0912B03892BD5
:101220008A2B8B2B51F40E949611609328037093A4
:10123000290380932A0390932B030E949611009117
:1012400028031091290320912A0330912B03601B5E
:10125000710B820B930B20912503222369F06D32D1
:10126000B1E07B078105910538F027E0E1E2F3E08A
:10127000DF011D922A95E9F7DC01CB0117E0B69555
:10128000A795979587951A95D1F70097A105B10570
:1012900091F08F709927AA27BB270097A105B10568
:1012A00011F461E005C00197A105B10521F460E0EA
:1012B0008DE00E949512809118039091190310926D
:1012C000190310921803DF91CF911F910F91089588
:1012D000CF93DF93CDB7DEB727970FB6F894DEBF75
:1012E0000FBECDBF87E0EAE1F3E0DE011196019089
:1012F0000D928A95E1F729813A814B815C816D815C
:101300007E818F8190E027960FB6F894DEBF0FBEE6
:10131000CDBFDF91CF91089561E08DE00E945C1216
:1013200083E084BD85BD60E082E00E945C1241E004
:1013300050E068E376E080E00E94D210109239031A
:1013400087E0E1E2F3E0DF011D928A95E9F7089575
:1013500080916A0390E020916B03821B91090895AC
:1013600020916B0380916A03281750F4E22FF0E07C
:10137000E459FC4F808190E02F5F20936B03089528
:101380008FEF9FEF0895E0916B0380916A03E81758
:1013900030F4F0E0E459FC4F808190E008958FEF45
:1013A0009FEF08950895CF92DF92EF92FF920F93EF
:1013B0001F93CF93DF937C01CB018A0120914603D9
:1013C000222389F0EB016B01C40ED51ECC15DD057F
:1013D00069F06991D701ED91FC910190F081E02DC8
:1013E000C7010995F3CF642F0E94320BC801DF912A
:1013F000CF911F910F91FF90EF90DF90CF900895C4
:10140000CF93DF931F92CDB7DEB769832091460358
:101410002223D1F020914703203240F021E030E038
:10142000FC013383228380E090E015C08091480363
:10143000E82FF0E0E75BFC4F998190838F5F80930A
:1014400048038093470305C061E0CE0101960E94E6
:10145000320B81E090E00F90DF91CF910895FC0175
:101460001382128248EE53E060E070E044835583BB
:101470006683778383EC92E0918380830895109252
:101480006B0310926A0310924803109247030C9466
:101490007D0A862F413208F040E26CE673E00E943C
:1014A0009B0A10926B0380936A03089521E00C94C9
:1014B000490A81E0809346036093690310924803D0
:1014C0001092470308950F93062F21E040914703A0
:1014D00069E473E0809169030E94DF0A1092480377
:1014E00010924703109246030F91089561E00C9407
:1014F000630A8AE393E00C942F0A1092F90381E0C7
:101500008093F7031092F60361E082E10E94951246
:1015100061E083E10E949512E9EBF0E080818E7F2B
:10152000808380818D7F808388E48093B80085E408
:101530008093BC000895413208F03FC09091F903B8
:101540009111FCCF91E09093F9032093F7032FEFD3
:1015500020938C031092D103240F2093D0039093F7
:10156000F8039091F803880F892B8093F8038091FA
:10157000F603813041F41092F6038091F8038093D2
:10158000BB0085EC01C085EE8093BC008091F9031F
:101590008130E1F38091D103841710F44091D1039D
:1015A00022ED33E0FB01D9018A2F821B841718F446
:1015B0008D918193F9CF842F089580E008950F9342
:1015C000413208F046C09091F9039111FCCF92E0AE
:1015D0009093F9030093F7039FEF90938C0310927D
:1015E000D1034093D003FB0162ED73E0DB019A2F3E
:1015F000961B941718F491919D93F9CF1092F803CC
:101600009091F803880F892B8093F8038091F6035B
:10161000813041F41092F6038091F8038093BB006F
:1016200085EC01C085EE8093BC00222321F08091DF
:10163000F9038230E1F380918C038F3F61F0809158
:101640008C03803251F080918C03803341F483E02D
:1016500007C081E005C080E003C082E001C084E0F3
:101660000F910895613298F42091F903243089F4A0
:101670006093AE03FC0180EB93E0DC012A2F281B72
:10168000261718F421912D93F9CF80E0089581E079
:10169000089582E0089585ED8093BC008091BC00A0
:1016A00084FDFCCF1092F903089585EC8093BC0073
:1016B0001092F90308951F920F920FB60F92112402
:1016C0002F933F934F935F936F937F938F939F934A
:1016D000AF93BF93EF93FF938091B900887F8036DB
:1016E00009F49CC068F5883209F45BC090F480313D
:1016F00009F454C038F4882309F4F5C0883009F49B
:101700004DC0F5C0883109F44CC0803209F45DC089
:10171000EEC0803409F468C048F4803309F455C041
:10172000883309F0E4C080938C03A8C0803509F4A5
:101730004FC0883509F45DC0883409F0D8C0D5C0E1
:10174000883909F4C6C0A8F4883709F467C038F4AA
:10175000883609F463C0803709F460C0C8C088388F
:1017600009F4B7C0803909F45FC0803809F0BFC000
:101770005BC0803B09F485C038F4803A09F466C048
:10178000883A09F47EC0B3C0803C09F4A6C0883C06
:1017900009F4A3C0883B09F489C0A9C08091F8036B
:1017A00010C09091D1038091D003981770F5E0910B
:1017B000D10381E08E0F8093D103F0E0EE52FC4F15
:1017C00080818093BB0085EC85C080938C038DC0A5
:1017D000E091D10381E08E0F8093D1038091BB0013
:1017E000F0E0EE52FC4F80839091D1038091D003C2
:1017F0006DC0E091D10381E08E0F8093D103809181
:10180000BB00F0E0EE52FC4F80838091F703811122
:101810006CC081E08093F60384EA60C083E080932B
:10182000F90310928D03CFCF80918D03803208F0A1
:1018300050C0E0918D0381E08E0F80938D038091E5
:10184000BB00F0E0E257FC4F8083BDCF80918D0359
:10185000803230F4E0918D03F0E0E257FC4F1082CB
:101860000E944B0B60918D0370E0E091F203F091C8
:10187000F3038EE893E0099510928D030E94550BB7
:1018800036C084E08093F9031092AF031092AE0348
:10189000E091F403F091F50309958091AE03811175
:1018A00005C081E08093AE031092B003E091AF03D6
:1018B00081E08E0F8093AF03F0E0E055FC4F808114
:1018C0008093BB009091AF038091AE03981708F40A
:1018D0007ACF85E88093BC000AC085EC8093BC0079
:1018E0001092F90304C010928C030E944B0BFF91DD
:1018F000EF91BF91AF919F918F917F916F915F9188
:101900004F913F912F910F900FBE0F901F90189500
:10191000DC01ED91FC910190F081E02D099420E42F
:10192000FC0120832AE333E0328321830895CF92A0
:10193000DF92FF920F931F93CF93DF9300D0CDB729
:10194000DEB76C01F62E052F132FDC016C9111967A
:101950008D919C9112972A8349830E94590AF6011E
:1019600081819281DC01ED91FC91B4E0FB9EB0019C
:1019700011246A5F7F4F0190F081E02D0995498124
:10198000642F702FF601818192810E94880C602F54
:1019900070E0D60111968D919C9112970E94880C4F
:1019A0002A81622F712FF601818192810E94880C19
:1019B000612F70E0D60111968D919C9112970E9433
:1019C000880CF601818192810F900F90DF91CF9169
:1019D0001F910F91FF90DF90CF900C94760A1F9388
:1019E000CF93DF93EC01162F688189819A810E9441
:1019F000590A89819A81DC01ED91FC910190F08175
:101A0000E02D612F099589819A810E94760A41E033
:101A1000688189819A810E94560A89819A81DC01B4
:101A2000ED91FC910680F781E02D0995DF91CF9132
:101A30001F910895EF92FF921F93CF93DF931F9210
:101A4000CDB7DEB77C01162FDC016C9111968D911C
:101A50009C91129749830E94590AF70181819281D2
:101A6000DC01ED91FC910190F081E02D612F099551
:101A7000F70181819281DC01ED91FC910190F0816F
:101A8000E02D4981642F0995F701818192810F90A2
:101A9000DF91CF911F91FF90EF900C94760A40E870
:101AA00060E00E941A0D6AE070E080E090E00C9423
:101AB000C5110F931F93CF93DF93EC01062F60E0C6
:101AC0000E94EF0C182F1F76412F406160E0CE017D
:101AD0000E941A0D1065412F60E0CE010E941A0D80
:101AE000402F6EEFCE010E941A0D65E070E080E09D
:101AF00090E00E94C511412F4F74406A60E0CE0112
:101B0000DF91CF911F910F910C941A0D8F929F929C
:101B1000AF92BF92CF92DF92EF92FF921F93CF933B
:101B2000DF93EC016A017B0120E030E040E85FE3F5
:101B3000C701B6010E94D31587FD12C020E030EC2A
:101B40004AE555E4C701B6010E942217181674F43D
:101B5000C12C20ECD22E2AE5E22E25E4F22E06C07E
:101B6000C12CD12C30E8E32E3FE3F32E6B817C8136
:101B70008D819E810E9470164B015C0120E030E057
:101B800040E855E4C701B6010E9426179B01AC014D
:101B9000C501B4010E94D71520E030E040E05FE3CA
:101BA0000E946F1520E030E040E85FE30E946E1570
:101BB0006B017C0120E030E040E450E40E94D3154A
:101BC00087FD11C020E030E04FE753E4C701B601C4
:101BD0000E942217181664F4C12CD12C8FE7E82E2E
:101BE00083E4F82E05C0C12CD12C90E4E92EFE2C04
:101BF00060E0CE010E94EF0C182F482F4F76406115
:101C000060E0CE010E941A0DC701B6010E94441681
:101C1000462F6EEFCE010E941A0D412F60E0CE01DB
:101C20000E941A0D65E070E080E090E00E94C5110E
:101C3000412F406A60E0CE01DF91CF911F91FF906C
:101C4000EF90DF90CF90BF90AF909F908F900C94CB
:101C50001A0DAF92BF92CF92DF92EF92FF921F9335
:101C6000CF93DF931F92CDB7DEB75C01FC0181817A
:101C7000928169830E943F0AC5010E944F0D6981CC
:101C8000662321F0C5010E94590D5FC0F5016381F3
:101C90007481858196810E94701620E030E04AE7C9
:101CA0005AE40E94D71520E030E040E05FE30E9454
:101CB0006F1520E030E040E85FE30E946E156B0195
:101CC0007C0120E030E040E450E40E94D31587FD21
:101CD00011C020E030E04FE753E4C701B6010E9495
:101CE0002217181664F4C12CD12C4FE7E42E43E4DC
:101CF000F42E05C0C12CD12C50E4E52EFE2C60E062
:101D0000C5010E94EF0C182F482F4F76406160E00C
:101D1000C5010E941A0DC701B6010E944416462F44
:101D20006EEFC5010E941A0D412F60E0C5010E94AF
:101D30001A0D65E070E080E090E00E94C511412F2F
:101D4000406A60E0C5010E941A0D80E498E7ADE7A3
:101D5000B1E0F50183839483A583B6830F90DF916F
:101D6000CF911F91FF90EF90DF90CF90BF90AF90F9
:101D70000895CF93DF93EC0189859A850E947118AD
:101D80008E819F8197FD05C060E0DF91CF910C941B
:101D90005C12DF91CF910895CF93DF93EC018E8198
:101DA0009F8197FD07C061E00E945C1260E08E8118
:101DB0000E94951281E08983DF91CF910895EF927F
:101DC000FF920F931F93CF93DF93EC017B018985E3
:101DD0009A850E9471189E858B85981303C083E0B5
:101DE00090E002C084E090E08E9D80018F9D100DF8
:101DF0009E9D100D11241D830C83C8010E94D917CC
:101E00009A878987009741F0A80160E070E00E94FE
:101E10000019FB82EA8204C01D821C821B821A8286
:101E2000DF91CF911F910F91FF90EF900895FC01EA
:101E300021E096858385981320E0CB0136E09695C6
:101E400087953A95E1F7482F43704687CB0154E0D8
:101E5000969587955A95E1F7382F33703387CB01E4
:101E6000969587959695879583708487862F83703E
:101E7000858781E06F3F710511F008F080E0808375
:101E800081859285892B51F091E0431390E0921760
:101E900029F062817381CF010C94DF0E0895CF92F7
:101EA000DF92EF92FF920F931F93CF93DF93CDB703
:101EB000DEB729970FB6F894DEBF0FBECDBF8C01F9
:101EC000DC0119968D919C911A97892B09F49FC07A
:101ED0000E94A211F801C784D088E188F2886C19A9
:101EE0007D098E099F096C3271408105910580F34F
:101EF000F894D80114968D919C9115979A838983B3
:101F000019960D90BC91A02D7D01EFEFEE1AFE0AFF
:101F10008C918987D8019C9153960D90BC91A02DEE
:101F2000F8018589992309F42EC09C91982B9887F4
:101F30009C91809589238F838F818E8388E08D8308
:101F400058856F8149853D812E8189819A81F7016C
:101F50005C9347FD252F3A952C93262F39F0441F8B
:101F600000C000006C93000000C0F2CF38E0419147
:101F70006C930000019761F7F801B48BA38B49873C
:101F80003D832E8338C09C91982B98879C91809597
:101F900089238F838F818C8388E08B8358856F8121
:101FA00049853B812C8189819A81F7015C9347FDAA
:101FB000252F00C000C02C9300C000C000C000C08E
:101FC00000C06C930000262F3A9541F0441F00009A
:101FD00000C000C000C000C000C0E8CF38E04191A0
:101FE00000C06C9300C0019709F7F801B48BA38B74
:101FF00049873B832C839A83898378940E94A2111A
:10200000D8011F966D937D938D939C93529729963B
:102010000FB6F894DEBF0FBECDBFDF91CF911F91F9
:102020000F91FF90EF90DF90CF9008950F931F9343
:10203000CF93DF93EC018B018981882339F08E8166
:102040009F8197FD03C060E00E945C121F830E8396
:102050008981882341F061E0802F0E945C1260E05A
:10206000802F0E949512F801E256FF4FE491F0E0B4
:10207000EE0FFF1FE454FF4F859194919C8B8B8B47
:10208000F801E657FF4F04910D8BDF91CF911F911F
:102090000F910895EF92FF920F931F93CF93DF93C9
:1020A000EC018B017A01198218861A8619861F861F
:1020B000188A198A1A8AB9010E94170FB801CE012D
:1020C0000E94DF0EB701CE01DF91CF911F910F91DA
:1020D000FF90EF900C941610CF92DF92EF92FF9248
:1020E0000F931F93CF93DF93FC0182819381681735
:1020F000790708F04DC0CA01AA27BB27182FC32EA5
:10210000D42EE52EFF24DC2DC22F0085002361F0A4
:10211000809FC0011124192FC09E60011124DD2D64
:10212000209FC0011124C92FF6848385A185B28523
:10213000F81208C0CB01880F991F860F971F8A0FCE
:102140009B1F17C0CB01880F991F880F991F8A0FFB
:102150009B1F452F552766277727DC01AF0DB11D43
:10216000002329F0409F90011124232F01C0242F28
:102170002C932385DC01A20FB11D1C932485DC0167
:10218000A20FB11DDC932585FC01E20FF11DC08378
:10219000DF91CF911F910F91FF90EF90DF90CF9043
:1021A000089508958230E8F4E82FF0E0EE0FFF1F65
:1021B000E650FC4F71836083813041F0809169006B
:1021C0008C7F842B80936900E89A08958091690040
:1021D000440F551F440F551F837F842B8093690044
:1021E000E99A08951F920F920FB60F9211242F9320
:1021F0003F934F935F936F937F938F939F93AF938F
:10220000BF93EF93FF938091FA039091FB03892B87
:1022100029F0E091FA03F091FB030995FF91EF910A
:10222000BF91AF919F918F917F916F915F914F91EE
:102230003F912F910F900FBE0F901F9018951F92F6
:102240000F920FB60F9211242F933F934F935F93EA
:102250006F937F938F939F93AF93BF93EF93FF936E
:102260008091FC039091FD03892B29F0E091FC0300
:10227000F091FD030995FF91EF91BF91AF919F916F
:102280008F917F916F915F914F913F912F910F901F
:102290000FBE0F901F9018951F920F920FB60F92BE
:1022A00011242F933F938F939F93AF93BF9380916C
:1022B000FF0390910004A0910104B09102043091B9
:1022C000FE0323E0230F2D3720F40196A11DB11D3D
:1022D00005C026E8230F0296A11DB11D2093FE0321
:1022E0008093FF0390930004A0930104B093020431
:1022F0008091030490910404A0910504B091060418
:102300000196A11DB11D8093030490930404A09332
:102310000504B0930604BF91AF919F918F913F91B7
:102320002F910F900FBE0F901F9018952FB7F89414
:102330006091FF0370910004809101049091020468
:102340002FBF08953FB7F89480910304909104043F
:10235000A0910504B091060426B5A89B05C02F3FA7
:1023600019F00196A11DB11D3FBF6627782F892F57
:102370009A2F620F711D811D911D42E0660F771F1C
:10238000881F991F4A95D1F70895CF92DF92EF9257
:10239000FF92CF93DF936B017C010E94A211EB01AE
:1023A000C114D104E104F10489F00E94D1100E940B
:1023B000A2116C1B7D0B683E734090F381E0C81A3C
:1023C000D108E108F108C851DC4FEACFDF91CF9185
:1023D000FF90EF90DF90CF9008958230910538F014
:1023E000880F991F880F991F05970197F1F7089596
:1023F000789484B5826084BD84B5816084BD85B5E0
:10240000826085BD85B5816085BDEEE6F0E08081A6
:1024100081608083E1E8F0E01082808182608083C7
:10242000808181608083E0E8F0E08081816080834A
:10243000E1EBF0E0808184608083E0EBF0E080817C
:1024400081608083EAE7F0E080818460808380811E
:1024500082608083808181608083808180688083C6
:102460001092C1000895833081F028F4813099F0F2
:102470008230A1F008958730A9F08830B9F0843017
:10248000D1F4809180008F7D03C0809180008F7790
:1024900080938000089584B58F7702C084B58F7DC6
:1024A00084BD08958091B0008F7703C08091B00003
:1024B0008F7D8093B0000895CF93DF9390E0FC016F
:1024C000E657FF4F2491FC01E256FF4F8491882389
:1024D00049F190E0880F991FFC01EA53FF4FA59145
:1024E000B49184549F4FFC01C591D4919FB7611161
:1024F00008C0F8948C91209582238C938881822344
:102500000AC0623051F4F8948C91322F30958323B5
:102510008C938881822B888304C0F8948C91822BC1
:102520008C939FBFDF91CF9108950F931F93CF930B
:10253000DF931F92CDB7DEB7282F30E0F901EA58BC
:10254000FF4F8491F901E657FF4F1491F901E256CC
:10255000FF4F04910023C9F0882321F069830E9472
:1025600033126981E02FF0E0EE0FFF1FE454FF4FBC
:10257000A591B4919FB7F8948C91611103C0109507
:10258000812301C0812B8C939FBF0F90DF91CF914E
:102590001F910F910895CF93DF93282F30E0F90119
:1025A000EA58FF4F8491F901E657FF4FD491F901A2
:1025B000E256FF4FC491CC2391F081110E94331257
:1025C000EC2FF0E0EE0FFF1FEE54FF4FA591B491FA
:1025D0002C912D2381E090E021F480E002C080E086
:1025E00090E0DF91CF9108950F931F93762F90E0A5
:1025F000FC01E657FF4F6491FC01E256FF4FE49166
:102600007111762FF0E0EE0FFF1FEE54FF4F859112
:10261000949189019A013F70472F0E94960061159D
:1026200071058105910531F06F5F7F4F8F4F9F4F8F
:102630009F7003C060E070E0CB011F910F9108957F
:10264000FC01818D228D90E0805C9F4F821B91095F
:102650008F7399270895FC01918D828D981731F021
:10266000828DE80FF11D858D90E008958FEF9FEF2B
:102670000895FC01918D828D981761F0828DDF01A4
:10268000A80FB11D5D968C91928D9F5F9F73928F65
:1026900090E008958FEF9FEF08958DEB94E1892BE3
:1026A00049F080E090E0892B29F00E94BD1481114F
:1026B0000C9400000895FC01848DDF01A80FB11D6A
:1026C000A35ABF4F2C91848D90E001968F73992768
:1026D000848FA689B7892C93A089B1898C91806455
:1026E0008C93938D848D981306C00288F389E02D16
:1026F00080818F7D80830895CF93DF93EC01888D57
:102700008823C9F0EA89FB89808185FD05C0A889F5
:10271000B9898C9186FD0FC00FB607FCF5CF80817B
:1027200085FFF2CFA889B9898C9185FFEDCFCE01C5
:102730000E945B13E7CFDF91CF910895CF92DF9294
:10274000FF920F931F93CF93DF931F92CDB7DEB706
:102750006C0181E0D60158968C9358975B969C91BA
:102760005B975C968C915C97981307C05096ED919F
:10277000FC915197808185FD2EC0F601038D10E0FC
:102780000F5F1F4F0F731127F02EF601848DF81283
:1027900011C00FB607FCF9CFD6015096ED91FC9110
:1027A0005197808185FFF1CFC60169830E945B1339
:1027B0006981EBCF838DE80FF11DE35AFF4F6083F2
:1027C000D6015B960C935B975296ED91FC915397D3
:1027D000808180620CC0D6015696ED91FC9157978E
:1027E00060835096ED91FC91519780818064808345
:1027F00081E090E00F90DF91CF911F910F91FF90BA
:10280000DF90CF900895BF92CF92DF92EF92FF9228
:10281000CF93DF93EC016A017B01B22EE889F9893D
:1028200082E08083411581EE580761057105A1F0B2
:1028300060E079E08DE390E0A70196010E94B11776
:1028400021503109410951095695479537952795EA
:10285000211580E1380798F0E889F989108260E84D
:1028600074E88EE190E0A70196010E94B117215013
:102870003109410951095695479537952795EC85BA
:10288000FD853083EE85FF852083188EEC89FD89D8
:10289000B082EA89FB89808180618083EA89FB8933
:1028A000808188608083EA89FB8980818068808359
:1028B000EA89FB8980818F7D8083DF91CF91FF90B2
:1028C000EF90DF90CF90BF9008951F920F920FB6B8
:1028D0000F9211242F938F939F93EF93FF93E09187
:1028E0001704F09118048081E0911D04F0911E04FA
:1028F00082FD12C09081809120048F5F8F732091A0
:102900002104821751F0E0912004F0E0E95FFB4FD1
:10291000958F8093200401C08081FF91EF919F915A
:102920008F912F910F900FBE0F901F9018951F92AF
:102930000F920FB60F9211242F933F934F935F93F3
:102940006F937F938F939F93AF93BF93EF93FF9377
:1029500087E094E00E945B13FF91EF91BF91AF91EC
:102960009F918F917F916F915F914F913F912F91A7
:102970000F900FBE0F901F90189587E094E00E9473
:10298000201321E0892B09F420E0822F0895109272
:102990000A041092090488EE93E0A0E0B0E080936E
:1029A0000B0490930C04A0930D04B0930E0483EDDC
:1029B00092E0909308048093070485EC90E0909354
:1029C00014048093130484EC90E090931604809395
:1029D000150480EC90E0909318048093170481EC28
:1029E00090E090931A048093190482EC90E0909305
:1029F0001C0480931B0486EC90E090931E0480934B
:102A00001D041092200410922104109222041092AE
:102A10002304089508950E94F8110E940A150E9447
:102A2000DB00CDE4D3E10E94F5002097E1F30E94A2
:102A30004D13F9CFCF92DF92EF92FF920F931F9336
:102A4000CF93DF936C017A01EB01E60EF71E00E0F5
:102A500010E0CE15DF0561F06991D601ED91FC9192
:102A60000190F081E02DC6010995080F191FF1CFE3
:102A7000C801DF91CF911F910F91FF90EF90DF90F0
:102A8000CF9008956115710581F0DB010D90002054
:102A9000E9F7AD0141505109461B570BDC01ED919F
:102AA000FC910280F381E02D099480E090E008958C
:102AB0006FED72E00C9442150F931F93CF93DF9349
:102AC000EC010E9442158C01CE010E945815800F26
:102AD000911FDF91CF911F910F9108955058BB27FF
:102AE000AA270ED075C166D130F06BD120F031F439
:102AF0009F3F11F41EF45BC10EF4E095E7FB51C15A
:102B0000E92F77D180F3BA17620773078407950717
:102B100018F071F49EF58FC10EF4E0950B2EBA2FCC
:102B2000A02D0B01B90190010C01CA01A0011124D3
:102B3000FF27591B99F0593F50F4503E68F11A167F
:102B4000F040A22F232F342F4427585FF3CF469510
:102B500037952795A795F0405395C9F77EF41F1632
:102B6000BA0B620B730B840BBAF09150A1F0FF0FFC
:102B7000BB1F661F771F881FC2F70EC0BA0F621FE8
:102B8000731F841F48F4879577956795B795F795D8
:102B90009E3F08F0B3CF9395880F08F09927EE0F6A
:102BA000979587950895D9D008F481E008950CD0C1
:102BB0000FC107D140F0FED030F021F45F3F19F093
:102BC000F0C0511139C1F3C014D198F39923C9F35E
:102BD0005523B1F3951B550BBB27AA276217730723
:102BE000840738F09F5F5F4F220F331F441FAA1FD7
:102BF000A9F333D00E2E3AF0E0E830D09150504097
:102C0000E695001CCAF729D0FE2F27D0660F771F44
:102C1000881FBB1F261737074807AB07B0E809F026
:102C2000BB0B802DBF01FF2793585F4F2AF09E3FBB
:102C3000510568F0B6C000C15F3FECF3983EDCF38D
:102C4000869577956795B795F7959F5FC9F7880F34
:102C5000911D9695879597F90895E1E0660F771F86
:102C6000881FBB1F621773078407BA0720F0621B17
:102C7000730B840BBA0BEE1F88F7E095089504D010
:102C80006894B111D9C00895BCD088F09F5790F0D6
:102C9000B92F9927B751A0F0D1F0660F771F881F81
:102CA000991F1AF0BA95C9F712C0B13081F0C3D09C
:102CB000B1E00895C0C0672F782F8827B85F39F03A
:102CC000B93FCCF3869577956795B395D9F73EF4E0
:102CD00090958095709561957F4F8F4F9F4F089588
:102CE000E89409C097FB3EF49095809570956195A6
:102CF0007F4F8F4F9F4F9923A9F0F92F96E9BB275C
:102D00009395F695879577956795B795F111F8CFD7
:102D1000FAF4BB0F11F460FF1BC06F5F7F4F8F4F42
:102D20009F4F16C0882311F096E911C0772321F038
:102D30009EE8872F762F05C0662371F096E8862FD0
:102D400070E060E02AF09A95660F771F881FDAF727
:102D5000880F9695879597F90895990F0008550F54
:102D6000AA0BE0E8FEEF16161706E807F907C0F011
:102D700012161306E407F50798F0621B730B840B19
:102D8000950B39F40A2661F0232B242B252B21F4F3
:102D900008950A2609F4A140A6958FEF811D811D93
:102DA000089597F99F6780E870E060E008959FEFCD
:102DB00080EC089500240A941616170618060906D2
:102DC000089500240A9412161306140605060895A1
:102DD000092E0394000C11F4882352F0BB0F40F429
:102DE000BF2B11F460FF04C06F5F7F4F8F4F9F4F69
:102DF000089557FD9058440F551F59F05F3F71F0EB
:102E00004795880F97FB991F61F09F3F79F0879551
:102E10000895121613061406551FF2CF4695F1DFDA
:102E200008C0161617061806991FF1CF869571056A
:102E3000610508940895E894BB2766277727CB019E
:102E400097F908958ADF08F48FEF08950BD0C0CF6B
:102E5000B1DF28F0B6DF18F0952309F0A2CFA7CF95
:102E60001124EACFC6DFA0F3959FD1F3950F50E070
:102E7000551F629FF001729FBB27F00DB11D639F2C
:102E8000AA27F00DB11DAA1F649F6627B00DA11DD2
:102E9000661F829F2227B00DA11D621F739FB00D78
:102EA000A11D621F839FA00D611D221F749F3327E8
:102EB000A00D611D231F849F600D211D822F762F81
:102EC0006A2F11249F5750408AF0E1F088234AF07E
:102ED000EE0FFF1FBB1F661F771F881F91505040CA
:102EE000A9F79E3F510570F05CCFA6CF5F3FECF392
:102EF000983EDCF3869577956795B795F795E795B6
:102F00009F5FC1F7FE2B880F911D9695879597F9C6
:102F10000895AA1BBB1B51E107C0AA1FBB1FA61720
:102F2000B70710F0A61BB70B881F991F5A95A9F772
:102F300080959095BC01CD01089597FB072E16F45E
:102F4000009407D077FD09D00E94891707FC05D0AF
:102F50003EF4909581959F4F0895709561957F4FB0
:102F60000895A1E21A2EAA1BBB1BFD010DC0AA1FCA
:102F7000BB1FEE1FFF1FA217B307E407F50720F0E2
:102F8000A21BB30BE40BF50B661F771F881F991F5D
:102F90001A9469F760957095809590959B01AC01A6
:102FA000BD01CF010895EE0FFF1F0590F491E02DB4
:102FB0000994CF93DF938230910510F482E090E082
:102FC000E091A604F091A70420E030E0A0E0B0E09A
:102FD000309739F14081518148175907B8F04817A7
:102FE000590771F482819381109729F013969C936D
:102FF0008E9312972CC09093A7048093A60427C0A9
:103000002115310531F04217530718F0A901DB01F2
:1030100001C0EF019A01BD01DF010280F381E02DC3
:10302000D7CF21153105F9F0281B390B2430310594
:1030300080F48A819B816115710521F0FB019383E6
:10304000828304C09093A7048093A604FE01329665
:1030500044C0FE01E20FF31F819391932250310986
:10306000398328833AC02091A4043091A504232BEE
:1030700041F420910201309103013093A504209383
:10308000A40420910001309101012115310541F482
:103090002DB73EB74091040150910501241B350B1B
:1030A000E091A404F091A504E217F307A0F42E1B0D
:1030B0003F0B2817390778F0AC014E5F5F4F24179C
:1030C000350748F04E0F5F1F5093A5044093A404AA
:1030D0008193919302C0E0E0F0E0CF01DF91CF91C6
:1030E0000895CF93DF93009709F487C0FC013297CE
:1030F00013821282C091A604D091A704209781F474
:1031000020813181280F391F8091A4049091A5045A
:103110008217930779F5F093A504E093A4046DC09A
:10312000DE0120E030E0AE17BF0750F412964D915B
:103130005C9113979D014115510509F1DA01F3CF17
:10314000B383A28340815181840F951F8A179B0707
:1031500071F48D919C911197840F951F0296918324
:10316000808312968D919C9113979383828321156E
:10317000310529F4F093A704E093A6043EC0D901D9
:103180001396FC93EE9312974D915D91A40FB51F8A
:10319000EA17FB0779F480819181840F951F0296CD
:1031A000D90111969C938E938281938113969C935F
:1031B0008E931297E0E0F0E08A819B81009719F0EE
:1031C000FE01EC01F9CFCE01029628813981820FF0
:1031D000931F2091A4043091A5042817390769F49E
:1031E000309729F41092A7041092A60402C013820B
:1031F0001282D093A504C093A404DF91CF910895C7
:10320000DC0101C06D9341505040E0F7089510E09B
:10321000C6EDD0E004C0FE010E94D5172296C83D3D
:08322000D107C9F7F894FFCFB4
:103228000000A8048000C800010005040302070686
:10323800FFFFFFFFFFFFFFFF4655445A5A5A5A5AED
:103248003AFF37FF69FF67FF82FF82FF14FF14FF11
:103258003AFF82FF69FF14FF82FF37FF14FF67FF01
:103268003AFF37FF14FF14FF82FF82FF69FF67FFF1
:103278004E6F726D616C3A2051756164437261776B
:103288006C6572312E30003AFF37FF69FF67FF82A5
:10329800FF82FF14FF14FF3AFF37FF69FF67FF82C1
:1032A800FF82FF14FF14FF82FF82FF69FF67FF3A66
:1032B800FF37FF14FF14FF82FF82FF69FF67FF3AA1
:1032C800FF37FF14FF14FF3AFF37FF69FF67FF3A24
:1032D800FF82FF69FF14FF3AFF37FF69FF67FF3A74
:1032E800FF82FF69FF14FFFF5AFF6EFF50FF3C503B
:1032F800FF37FF69FF50FFFF3CFF50FF6EFF5A3A50
:10330800FF4BFF50FF67FFFF5AFF6EFF50FF3C3A2D
:10331800FF4BFF50FF67FFFF3CFF50FF6EFF5A5007
:10332800FF37FF69FF50FFFF5AFF50FF50FF5A5009
:10333800FF37FF69FF50FFFF3CFF6EFF6EFF3C3A0F
:10334800FF4BFF50FF67FFFF5AFF50FF50FF5A3AED
:10335800FF4BFF50FF67FFFF3CFF6EFF6EFF3C50C7
:10336800FF37FF69FF50FFFF5AFF50FF6EFF3C3ADF
:10337800FF4BFF50FF67FFFF3CFF6EFF50FF5A50A7
:10338800FF37FF69FF50FFFF5AFF50FF6EFF3C50A9
:10339800FF37FF69FF50FFFF3CFF6EFF50FF5A3AAF
:1033A800FF4BFF50FF67FFFFFFFFFFFFFFFFFF46D9
:1033B80055445A5A5A5A5A3A3C3750696E675A50C5
:1033C8005A4B6E5050503C8255825A145A145A73B4
:1033D80070007100000072750000007600777400BC
:1033E800000000000AD309A809B009C309D20900DE
:1033F8000000009E131A15201339132B137C130D8C
:103408000A006E616E00696E66006F7666002E00B7
:00000001FF
