:2040000000800020C1A5000023A4000023A40000000000000000000000000000000000000C
:2040200000000000000000000000000023A40000000000000000000023A400008DA20000C3
:2040400023A4000023A4000023A4000023A4000023A4000023A4000023A4000025A4000026
:2040600023A40000BDB5000023A4000023A400009D9D000023A40000CDB5000023A400002F
:2040800023A4000023A4000023A4000023A4000001B4000023A4000023A4000023A40000FA
:2040A00023A4000023A4000023A4000023A4000010B5064C2378002B07D1054B002B02D0E2
:2040C000044800E000BF0123237010BDE4010020000000006C33010008B5084B002B03D0BE
:2040E0000748084900E000BF07480368002B03D0064B002B00D0984708BDC04600000000D3
:204100006C330100E8010020E001002000000000084B1A68002A01D1074A1A601A68074987
:204120001018884202DC1860101C01E0012040427047C04600020020600E0020602E00206C
:20414000002070470120404270470120404270477047002070470000064A936811689942A7
:2041600005D851688B4202D2590849000880023393607047B004002038B5134A0121D37B69
:20418000141C0D1C0B4207D0002801D0F72000E07F20AB43E37306E09D0704D47F2802D1F3
:2041A0000B43D3730FE0A37BA2899840104380B2A081002B02D10823A37304E0FFF7CCFFD1
:2041C0000023A373A38138BDB00400200F4B70B5041E9C4219D38C420FD20D4B20251E8B59
:2041E000FF3535431D836508DD610A4D1D801D7DEE07FCD50134FF34EDE7074B596000210C
:20420000186098609973DA73998170BD003601000040004102A5FFFFB004002010B50A4B43
:204220009A7B1C1C002A02D0FF20FFF7A5FF237A002B03D00548FFF78FFFF8E7044B1B7D4A
:20424000DA07FBD510BDC046B0040020FFFF00000040004110B507490222041C0648FFF7EA
:20426000B5FFE0B2FFF788FF200AFFF785FFFFF7D5FF10BD0037010000360100024B5878B4
:204280001B780002184370470036010010B5041C216800690AF022FF6368C900C85E10BDC7
:2042A00010B5041C216800690AF018FF6368C90059180223C85E10BD70470000014B186876
:2042C0007047C046C8040020014A024B1A607047BD42000058030020014A024B1A60704729
:2042E000714B000058030020014A024B1A6070474D4B000058030020436810B5041C994240
:204300000ADA081C03210AF049FF206801230841184003D0642001E00120404210BD00003A
:2043200008B5024B1B68984708BDC0461C020020F0B50D1C85B0002901D04A4B00E04A4B01
:20434000111C02930BF030FB4849041C0AF082FF00280CD0FE22291C92054448FFF7E8FFE0
:20436000211C0BF021FB41490BF03AF978E0201C3F490AF083FF00281CD1201C3B490AF0CA
:2043800069FF002814D1201C39490AF077FF002810D1201C35490BF031FC36490BF004FB16
:2043A00035490BF01DF935490AF0B6FF041C02E0324C00E0324C029F002208370192029B31
:2043C000019A211C9B185E680393301C0AF04CFF00283ED07D68201C291C0AF045FF002863
:2043E00037D0039B38681B68C01A01930BF096FD211C071C281C0AF02DFF291C002800D1F1
:20440000211C301C0AF03AFF331C002807D1281C211C0AF01FFF2B1C002800D1231C181C45
:20442000311C0BF0EBFB011C381C0BF0BDFA311C041C281C0BF0E2FB011C201C0BF0D0F886
:20444000041C01980BF06AFD011C201C0AF064FF06E0019A083708320192502AAFD10020E4
:2044600005B0F0BD54240100C0230100000020410000C842000020420000B4420000A041D9
:20448000000070424368994202DA0368585C01E00120404270470CC80320012B07D9D31ABE
:2044A00058781A780002031C13430B6000207047426810B5002A03DD0468A31A1B7800E0CC
:2044C00000230324002900D00124121BD11742608A1AD2171340181C10BD37B50D1C01A91D
:2044E000041CFFF7D8FF011E11D1019B6268092093420CD80320012B09D920689A1A82187F
:204500002A609A1E6A606268081CD31A63603EBD411A88784978138800020843181A43423B
:204520005841704710B518C81B1B052906D006290AD00320002911D008200FE00320002CB0
:204540000CDD1B785BB207E00320012C06DD59781B7809020B431BB21360002010BD08B511
:204560000AF0DAFE08BD08B50BF048FB08BD08B50BF01AFA08BD08B50BF032F808BD08B5EF
:204580000AF062FE002802D0FE20800500E0002008BD08B50AF05EFE002802D0FE208005AF
:2045A00000E0002008BD08B50AF068FE002802D0FE20800500E0002008BD08B50AF054FEAE
:2045C000002802D0FE20800500E0002008BD08B50AF05EFE002802D0FE20800500E00020C9
:2045E00008BD000038B5051C081C0BF077FC041E09D0281C0BF072FC211C0AF0CFFD081C87
:204600000BF08CFC00E0014838BDC0460000C07F10B50C1C00210AF017FE002806D1201C5C
:2046200000210AF011FE4342584100E000200BF0D1FC10BD10B50C1C00210AF005FE01236E
:20464000002805D0201C00210AF0FEFD43424341181C0BF0BFFC10BD08B500210AF0F4FD82
:20466000002802D0FE20800500E0002008BD000010B50021041C0AF00BFE002807D0201C94
:204680000DF0DEFA094B084A0BF0F4FC06E0201C0DF0D6FA054B044A0CF002FF0DF02AFA09
:2046A0000BF03CFC10BDC046000000000000E03F10B500230649DA00545A844202D18A18DB
:2046C000506803E00133162BF4D1002010BDC046D02201000020704700207047002070479A
:2046E00010207047112070470020704708B50D20012106F04FF90C20012106F04BF90A2018
:20470000012106F047F91220012106F043F90D20012106F0DDF90C20012106F0D9F90A2060
:20472000012106F0D5F91220012106F0D1F908BD10B50A4B0124201C211C1C7006F02AF95D
:20474000201C211C06F0C4F9211C002006F022F90020011C06F0BCF910BDC04620020020C2
:20476000F8B5051C0E1C171C041C631BB34206DA20787942794106F0ABF90134F5E7F8BD2E
:2047800008B5034802210022FFF7EAFF08BDC0463C24010070B5FFF783FD0D4C051CC6B234
:2047A0006B425D41321CEDB2201C0121FFF7D8FF2A1C601C0121FFF7D3FF321CA01C0121BE
:2047C000FFF7CEFF2A1CE01C0121FFF7C9FF70BD6826010038B51220012106F0DBF81220FC
:2047E000012106F075F90024064B0121E55C0134281C06F0CFF8281C012106F069F9032C38
:20480000F2D138BDFC24010038B5FFF749FD0A4B051C18600024094B0121E05C2B1C234127
:204820009943013406F054F9032CF4D169426941122006F04DF938BDC4040020FC2401006F
:20484000F8B51423584341490A184558107B536894681669032877D80AF0E8FB0234676E6D
:20486000181C002106F034F9002C28DD201C0BF055FB321C0121FFF75BFD3549061C0AF0B0
:20488000FDFCFF24071E1AD1301C00210AF0E2FC3C1C002813D1301C2D490AF0EFFCFF2479
:2048A00000280CD12B49301C0BF07EF828490AF097FE00210AF030FD0BF010FB041C281C10
:2048C000211C3FE0181C012106F002F9002C28DD201C0BF023FB321C0021FFF729FD1C49BF
:2048E000061C0AF0CBFCFF24071E1AD1301C00210AF0B0FC3C1C002813D1301C14490AF088
:20490000BDFCFF2400280CD11249301C0BF04CF80F490AF065FE00210AF0FEFC0BF0DEFA33
:20492000041CFF21091B281C0CE0181C002106F0CFF8281C002105E0181C012106F0C8F87B
:20494000281CFF2105F04EFFF8BDC046400000200000C84200007F4308B501280CD8642973
:2049600000DD642114234343044AD318CA43D21711409960FFF764FF08BDC046400000201B
:2049800008B50520012106F0A3F80420FF2105F029FF0A20012106F09BF80C20FF2105F00B
:2049A00021FF08BD10B50121041C052006F090F8FF231C1B211C042005F014FF0A2001215A
:2049C00006F086F80C20211C05F00CFF10BD08B50520002106F07CF80420002105F002FF85
:2049E0000A20002106F074F80C20002105F0FAFE08BD10B50021041C052006F069F8211C4C
:204A0000042005F0EFFE0A20002106F061F80C20211C05F0E7FE10BD08B50B4B1818037A26
:204A2000072B0FDC094A980082588918B42900DDB421032043430648C018CB43DB1719403C
:204A400004F0EAFD08BDC04629030020880400205C04002038B50C1C05F086FE0BF0BAFAFB
:204A6000051C201C0BF05AFA291C041C0AF0F2FB002807D0201C00210AF0ECFB002806D102
:204A8000201C00E0281C04490AF08EFF00E00020211C0AF0A5FD38BD0000C84208B5FFF757
:204AA000FFFB0022011C082006F05EFB08BD08B5082006F005FB08BD08B52B20012105F0C2
:204AC00069FF00212B2006F003F8FA20800005F0CDFB2B20012105F0FBFF0A2005F0C6FB7E
:204AE000014B00221A7008BDA003002010B5041CFF20FFF757FF142005F0B8FB201CFFF7D8
:204B0000CFFBFFF74FFF10BD10B5041CFF20FFF770FF142005F0AAFB201CFFF7C1FBFFF79F
:204B200068FF10BD70B58668051C0024B44209D0211C281C07F09DFC011C034805F06AFA48
:204B40000134F3E770BDC046F805002038B5041C05F086FB051C201CFFF798FB011CE06828
:204B6000B4242D1A201C68430AF074FA201A38BD38B5041C05F074FB051C201CFFF786FB53
:204B8000011CE0682D1AB42068430AF063FA38BD70B5041C05F064FB237A051C002B13D039
:204BA000E368C61A201CFFF771FB86420CD92069E5600130206121680AF090FA6368C9005E
:204BC00059184B68201C984770BD38B5012303725B420361041C05F043FB051C201CFFF73C
:204BE00055FB2D1AE56038BD08B505F039FB024B1860002008BDC046C004002010B5046839
:204C000005F02EFB054B1B68C01A0BF0E3F904490AF0E6FCA060002010BDC046C0040020F2
:204C200000007A44F7B50D1C141C642801DD642002E0C343DB1718400021FF27009764222D
:204C40000B1C07F07DFB061C6420642D02DCE843C01728400021009764220B1C07F070FB78
:204C6000051C6420642C02DCE043C01720400021FF240B1C0094642207F062FB2B1C334331
:204C8000071C034310D10D20012105F021FF0C20012105F01DFF0A20012105F019FF12207C
:204CA000012105F015FF0FE01220002105F010FFA11B0D2005F096FD611B0C2005F092FDE6
:204CC000E11B0A2005F08EFDF7BD000013B50221041C05F05FFE002005F0C8FA201C05F015
:204CE00043FDFF2300210093044A0B1C07F028FB01233F2800DC0023D8B216BDFF03000026
:204D000070B5041C05F0ACFA234B1A681E1C801A102805D81123181A05F0A8FA05F0A0FA4E
:204D2000201C012105F036FE201C002105F0D0FE0A2005F0B5FA201C012105F0C9FE1420B0
:204D400005F0AEFA201C002105F0C2FE642005F0A7FA201C002105F01DFE104A201C012165
:204D600007F08AFA0121051C201C05F013FE201C002105F0ADFE05F073FA3060281C0CF004
:204D80002BFF044B024A0BF091FC0CF0ABFF70BD0000000000004D40A403002030750000FA
:204DA00008B5002105F0F6FD002005F0A3FC08BD30B5831C85B0051C0C1C029302A802234E
:204DC00001A90393FFF767FB00281AD1019A0E4B09209A4215D8AB1819780D204B2910D16C
:204DE00059784F290DD199784F290AD1D978562907D102930320012A03DD023A02A8039242
:204E0000A04705B030BDC046FFFF0000F0B585B00191052800D991E0421CD200D2B2131C3F
:204E2000282A00D92823C400DBB2E4B20393251C00260127039B9D4230D2052D0BD92B1C14
:204E4000083B0D2B07D91A2D05D0143B012B02D90A3B012B1DD83A4B5B5D012B19D8019A2A
:204E60003A40511E8A41D2B20292012B01D13E430BE00299002908D0324AAB00D358012BE2
:204E800003D0281C022105F085FD029A2D49AB00CA507F000135FFB2EDB2CBE70199CDB2BA
:204EA00001210E4207D0201C0838052C00D82030294005F00DFEB20707D5E01F042C00DCCB
:204EC0002030A907C90F05F003FE730707D5A01F032C00DC20306907C90F05F0F9FD310729
:204EE00007D5601F022C00DC20302907C90F05F0EFFDF20607D5201F012C00DC2030E906B9
:204F0000C90F05F0E5FDB30608D5002C01D0E01E00E01D20A906C90F05F0DAFD710604D591
:204F20006D06A01EE90F05F0D3FD76B2002E05DA019A601E51B2C90F05F0CAFD05B0F0BD3C
:204F4000720300206802002008B5031E272B1BD805280BD9021C083A0D2A07D91A2805D070
:204F6000143A012A02D90A3A012A0DD8074AD25C012A09D106489A001150181C0838052B18
:204F800000D8203005F0A4FD08BDC0467203002068020020F7B5142747430F4E051CF4196D
:204FA00001916068012105F0F5FCB859012105F0F1FC022323731E23A360019B1220236129
:204FC000012105F0E7FC0121122005F081FD281CFFF736FCF7BDC0464000002070B5041C45
:204FE0000D1C27284ED8284B1B5C032B19D0042B48D105280BD9031C083B0D2B07D91A28FD
:2050000005D0143B012B02D90A3B012B37D81F4B03201B5D291C58431D4B181804F0FCFA7E
:205020002DE0011E05290DD90839CBB20D2B0AD91A2808D0031C1C3B012B04D90A3B012B4D
:205040001DD800E0183118235943124A51181226885F191C01300AD1231C083B052C00D8AB
:2050600063184B43D2181421535E013307D0201C0838052C00D82030291C05F0B3FB064B3E
:20508000A400E55070BDC04672030020290300205C040020B82801006802002010B5041E51
:2050A000052C18D801220C4B8240002904D1141C1A68A2431A600EE019680A431A60074BFC
:2050C0001B78002B07D1183005F04EFB211C021C034804F048FF10BD7C04002068030020DB
:2050E000F805002070B50D281CD80F4D84000023012913D12F2A04DD303A3C233B2A00D8F4
:20510000D3B20A4A9B009E582B599E420AD0C0B2311C002206F028F82E5103E0C0B22B51A0
:2051200005F0CEFF70BDC046240200200025010070B50E1C051C05F093F8104B002419681E
:20514000421AB24217D90E4A186016680124734273411360002D0ED0281C211C002B04D035
:2051600005F018FC281C311C03E005F013FC281C211C05F0ADFC201C70BDC0466403002099
:205180009C03002010B51020012105F003FC1120012105F0FFFB1020002105F099FC002107
:2051A000112005F095FC0A2005F060F81020002105F0F0FB0021112005F0ECFB102005F03D
:2051C000AFFC041C112005F0ABFC094B002C01D0002802D100221A7009E0012205481A705C
:2051E00004F0CEFC04480021022204F077FB10BD6003002044050020AC030020F0B585B098
:205200000D1C141C061C05F02BF8214FFA2339680390421ADB009A4203D9FFF7B3FF039B05
:205220003B601C4B1B78002B10D01B4F381C04F0BBFB381C04F0BCFA3060381C04F0BBFADB
:205240002860381C04F0BAFA206002E023602B603360642780217B420097306849427F2283
:2052600007F06EF8802130607B420097286849427F2207F065F88021286000972068494269
:205280007F227B4207F05CF8206005B0F0BDC0466402002060030020AC0300201FB5041CB1
:2052A00002A901A803AAFFF7A9FF022C06D0032C06D00020012C04D1019802E0029800E02F
:2052C000039804B010BD000010B51020012105F061FB1120012105F05DFB1020002105F064
:2052E000F7FB0021112005F0F3FB0A2004F0BEFF1020002105F04EFB0021112005F04AFB91
:20530000102005F00DFC041C112005F009FC094B002C01D0002802D100221A7009E0012210
:2053200005481A7004F02CFC04480021022204F0D5FA10BD6002002044050020D00400207A
:2053400008B5FFF7C1FF08BDF0B599B0029103901421632A04D80521101C09F0C9FEC1B2DE
:205360001423581A0193984204D0C343DB171840C0B201900024039D0094029B9C422ADA18
:20538000424A2B780320D3181B7A6F785843404BB426181804F094F9182212196B46D05469
:2053A000B74202DCFE43F6173E40C0B2361A08AA301CE700D7190CF0D1FBF317009AF61839
:2053C000386079605E40964200DA161CF6B2009601340235D1E7019A0024002A11D1039C0E
:2053E000019D029B9D4206DA20786178FFF714FB01350234F5E7009A0320504304F036FF7C
:2054000042E0029A94420FDA08ABE50000985D190CF0E2FB021C0B1C286869680BF046F9B0
:20542000013428606960ECE70125009B9D422BDC0024029A944222DA039A6300D75C18236C
:205440001B196A46985C0CF089FBE60008AB049005919E19281C0CF081FB326873680BF04E
:205460008FFD021C0B1C049805990AF003FE0CF041FB011C381CFFF7CFFA0134D9E7019830
:2054800004F0F4FE0135D0E719B0F0BD290300205C04002037B51A4C201CFFF779FB201CC3
:2054A0001430FFF775FB201C2830FFF771FB04F0D7FEE268851A201CFEF7E8FEC20F121888
:2054C0005210954205D9FF2300210093A81A0B1C03E000210091281CFF2306F031FF0024B1
:2054E000051C084B1B682341DA0704D5064B291CE05C05F077F90134032CF2D137BDC0463F
:2055000068000020C4040020FC24010010B50121041C007805F03EFA6078012105F03AFA2B
:20552000201C02210022FFF71BF910BD30B585B06D4606352A800B1C0C1C06C806C36168B2
:2055400000292BDD20682A1CFEF7E2FF011E21D1201CFEF7ADFFC0B206281DD809F066FD97
:205560000406170909131700032018E06368043B0BE0201C03A9FEF78EFF00280FD1616883
:20558000039A8B1A01E06368013B6360D7E76368023BFAE7002002E0052000E0042005B097
:2055A00030BD000070B50D1C86B0111C141C2A1C1E1CFFF7BBFF051E08D1201C291CFEF77B
:2055C00077FFC3B20820042B2BD109E0042828D1154B00200233306023600223636020E0CF
:2055E00002A8031C06CC06C3356004A9FEF775FF002816D10598002812DB12D0012104A82B
:20560000FEF756FF336804A80133336001A9FEF742FF002805D10599019A8B1A0593E9E70E
:20562000072006B070BDC0461824010037B50B1C151C69461A1CFFF779FF011C041E12D164
:205640006846FEF735FFC0B2082102280BD1019B0321002B07DD009A211CD31A5A781B78DA
:20566000120213432B80081C3EBD30B585B002A9141CFEF732FF002813D16D46063502A837
:205680000D212A1CFFF7D2FF00280AD12B882C2B03D0302B05D1636800E023681A680132D3
:2056A0001A6005B030BDF7B5041C80CC01AD00236E46201C0E212A1CF3802B800636FFF730
:2056C000B5FF00281DD1201C0F21321CFFF7AEFF002816D133882888282B06D1FEF7E8FF23
:2056E00005F01EFA002809D105E0FEF7E1FF05F017FA002802D0FE239B0500E00023BB6002
:205700000020FEBD08B5FFF7CEFF08BD08B5FFF7CAFF08BDF7B500236C46E38006340E1CE0
:2057200020C80E21221CFFF781FF071E06D12088FEF7BEFF311CFFF78DF9A860381CFEBD68
:2057400008B50249FFF7E6FF08BDC0462E02000008B50249FFF7DEFF08BDC046FF030000C3
:2057600008B50249FFF7D6FF08BDC046FF03000073B5041C20CC00236E4601AA201C0E2168
:20578000F38013800636FFF751FF002818D1201C1821321CFFF74AFF002811D13388222B5C
:2057A00007D00220232B05D00120242B02D1032000E00120FFF772FD0AF0B0FBA860002034
:2057C00076BD73B500236C46E380063440C80E21221CFFF72BFF051E05D12088FEF768FF6A
:2057E000FFF78EFAB060281C76BD13B50B1C141C69461A1CFFF79AFE011E08D16846FEF777
:2058000057FE221CC1B26846FEF78CFE011C081C16BD38B50D1C10C80B212A1CFFF7E5FF07
:20582000011E0AD1626A2B6812680A205242934203DB6269934200DA081C38BD13B501A91F
:205840000468FFF7E6FF00280CD1019B002B05DADB43626A9B00D3185B6802E0E2699B005B
:205860009B58A36016BD30B585B002A9141CFEF734FE00281ED16D46023502A80D212A1C24
:20588000FFF7D4FE002815D12A88A3889A4201D000200FE0E18802A801AAFFF7A6FF002818
:2058A00008D1019A23689A42F2D1029A039BE2602361012005B030BD37B508C801AA0C1CF8
:2058C0000C219D69FFF791FF021E07D1019B0A20002B03DBAB4201D22360101C3EBD37B5F2
:2058E00001A90568FFF7E8FF041E0BD1019B9C002B6A1C192468002C01D00130FAE70AF01F
:205900000DFBA860201C3EBD37B500236D46EB80063504300E212A1CFFF788FE041E06D1BA
:205920002888FEF7C5FE211C221CFFF7DBFB201C3EBD0000534B544A1B6970B593420BD0EC
:2059400052498B4208D052490978002904D064211520FFF7EDFB93E04E490C78002C41D08B
:205960004D4D2B78002B12D14C4B1E78002E0ED12209013252002A700F221440013464003A
:205980001C7004F06DFC464B1860464B1E602B78002B11D01420012104F0FCFF14200121BC
:2059A00005F096F81520FA21FFF7C2FB002867D02B78013B2B7063E0384C2378002B5FD0CC
:2059C0001520012104F0E6FF1520012105F080F81420FA21FFF7ACFB002851D02378013BC7
:2059E00023704DE0934218D0284A934206D01420012104F0CFFF1420012105E01420012164
:205A000004F0C8FF1420211C05F062F81520012104F0C0FF152001210DE01420012104F073
:205A2000B9FF1420012105F053F81520012104F0B1FF1520211C05F04BF81B4B1C78002C4D
:205A40000ED00020012104F0A5FF0020011C05F03FF80120011C04F09DFF0120011C0DE02C
:205A6000201C012104F096FF201C012105F030F80120011C04F08EFF0120211C05F028F892
:205A800070BDC04634040020B0060020A4080020A00300200402002080040020CC0400205C
:205AA000640300209C0300202002002008B5034802210122FEF754FE08BDC0463C2401009D
:205AC0000D4B012010B5011C00241C7004F062FF211C012004F0FCFF201C012104F05AFF6E
:205AE000201C012104F0F4FF04F0BAFB034B1860034B1C6010BDC04620020020640300208C
:205B00009C03002010B5454C201CFFF7FFFCA01CFFF7FCFC424CFA22201C02215200414BB2
:205B200003F066FBFA22E01C062152003D4B03F05FFBFA223B4B07215200A01D03F058FB8C
:205B4000394C201CFFF7E2FCFEF744FE0122201C0221FEF705FE0320012104F01BFF032089
:205B6000002104F0B5FF1C20002104F013FF00211D2004F00FFF002004F0BCFD1920012171
:205B800004F008FF1920002104F0A2FF0420012104F000FF0520012104F0FCFE0A20012161
:205BA00004F0F8FE01210C2004F0F4FE1F48FFF70CF81F48FFF709F81E4B00221A601E4B9A
:205BC0001E4A1F481A60FFF700F81E48FEF7FDFF1D48FEF7FAFF1D48FEF7F7FFFFF774FB2F
:205BE0001B4B1B78002B0FD01A4C201C03F0E0FD194B1880201C03F0DEFD184B1880201CF3
:205C000003F0DCFD164B1880E1211648090205F0E9FD154A154B1A6010BDC04668260100DE
:205C20005C040020C40900003C240100B800002018000020C804002058030020BD42000040
:205C4000000000202C000020A4000020CC00002060020020D004002016020020D003002087
:205C600070030020A40800200D9000001C020020F0B50C1C85B0191C642B00D96421CFB245
:205C8000131CA24200D9231C18225043DBB201933F4B0125C65C1818436800210B980A9AD6
:205CA0009D409047002800DA70E0A04200DD201C019B211C5843784309F01AFA642109F029
:205CC00017FA3449F601344A7118C0B20291B61872B680230121029A1560C046C046C04655
:205CE000C046C046C046C046C046184215D0C046C046C046C046C046C046C046C046C04611
:205D0000C046C046C046C046C046C046C046C046C046C046C046356014E03560C046C04617
:205D2000C046C046C046C046C046C046C046C046C046C046C046C046C046C046C046C04603
:205D4000C046C0465B0809D0C046C046C046C046C046C046C046C046C046BCE74B1C039325
:205D60000B980A9A904700280FDBA04200DD201C019B211C5843784309F0BAF9642109F09F
:205D8000B7F90399C0B28023A5E762B605B0F0BDB828010018440041144400411FB5FEF7BC
:205DA0007FFA4B220392064A02AB642102900092019303203C220B1CFFF75AFF05B000BDC5
:205DC000F9420000F8B5131C1B4A041C10780F1C1A4E111C072802D93278002A2BD032785C
:205DE000174D002A07D01749891801390978013A2955327002E0285501300870124A002F94
:205E00000EDD002B0CDD295D03204843211C10180839052C00D820313A1C03F0E9F90AE03A
:205E20002B5D03205843211C10180839052C00D8203103F027FBF8BD2803002021020020C4
:205E400029030020740400205C04002038B5104D041C2B5C032058430E4B181803F03AFB7E
:205E60000D492B5D0A78934204D1002B0DD0013B0B700AE0002A08D008490A780132D2B2E3
:205E80000A7007498A18013A1370FF232B5538BD290300205C0400202803002021020020E7
:205EA0007404002010B5084B041C1B5C072B0AD8032043430548C01803F06AFC002802D066
:205EC000201CFFF7C3FF10BD290300205C04002038B50023124A00249C500433202BF9D16D
:205EE000FE21201C8905FFF755F8FE2101208905FFF750F80B4BE55C0134281C0830C0B2B0
:205F0000FFF7D0FF281C012104F044FD281C002104F0DEFD082CEDD1FEF7E8FB38BDC04628
:205F2000880400203E24010070B5084B041C1D5C074E0D40002A02D1335CAB4205D0054804
:205F4000211C2A1C04F01FF8355570BDA804002010020020F8050020F8B5071E052F00D902
:205F6000A6E0544B1954002900D1A1E0524BC400E4B21E5C052C04D9231C083BDBB20D2B4E
:205F80007FD8F3077DD5201C0838052C00D8203004F0C6FD002874D00125042C02DDE31F2F
:205FA0000D2B09D8B30707D5E01F042C00DC203004F0B6FD002866D1032C05DDA31FDBB271
:205FC0000D2B01D9182C09D1730707D5A01F032C00DC203004F0A4FD002857D1022C02DD2F
:205FE000631F0D2B09D8330707D5601F022C00DC203004F095FD00284BD1012C05DD231FFC
:20600000DBB20D2B01D9182C09D1F30607D5201F012C00DC203004F083FD00283CD1002C81
:2060200004D0E31E0D2B01D9182C0AD1B30608D5002C01D0E01E00E01D2004F071FD002822
:206040002DD1A01EC3B20D2B01D9202C06D140231E4203D004F064FD002823D1601EC3B2E0
:206060000D2B01D9202C06D176B2002E03DA04F057FD002819D1381C291C0122FFF754FF59
:2060800016E0002589E702231D4395E704231D43A4E708231D43B0E710231D43BFE72023C4
:2060A0001D43CEE740231D43D8E780231D43E2E7F8BDC04605020020A8040020F8B5A64D2F
:2060C0002B78002B3DD0A54B01241E78264200D10DE1182004F024FD002800D107E10227BC
:2060E0003E4205D0192004F01BFD002800D000E104273E4205D01A2004F012FD002800D078
:20610000F9E008273E4205D01B2004F009FD002800D0F2E010273E4205D01C2004F000FD6A
:20612000002800D0EBE020273E4205D01D2004F0F7FC002800D0E4E00020211C021CFFF7AF
:20614000F3FE6B78002B4FD0844B01245E78264200D1D8E0002004F0E3FC002800D1D2E0C8
:2061600002273E4205D0012004F0DAFC002800D0CBE004273E4205D0022004F0D1FC002888
:2061800000D0C4E008273E4205D0032004F0C8FC002800D0BDE010273E4205D0042004F0F3
:2061A000BFFC002800D0B6E020273E4205D0052004F0B6FC002800D0AFE040273E4205D0EC
:2061C000062004F0ADFC002800D0A8E076B2002E05DA072004F0A4FC002800D0A1E00120F2
:2061E000211C0022FFF7A0FEAB78002B3AD05B4B01249E78264200D196E0082004F090FC1C
:20620000002800D190E002273E4205D0092004F087FC002800D089E004273E4205D00A20EC
:2062200004F07EFC002800D082E008273E4204D00B2004F075FC00287CD110273E4204D083
:206240000C2004F06DFC002876D120273E4204D00D2004F065FC002870D10220211C00223F
:20626000FFF762FEEB78002B1ED03C4B0424DE78264265D0122004F053FC002860D01027A6
:206280003E4204D0142004F04BFC00285AD120273E4204D0152004F043FC002854D1032075
:2062A000211C0022FFF740FE2B79002B16D02B4B40241E79264249D01E2004F031FC00281D
:2062C00044D076B2002E04DA1F2004F029FC00283ED10420211C0022FFF726FE6B79002B3B
:2062E00039D0002105200A1CFFF71EFE33E00024F5E63C43FCE63C4303E73C430AE73C434C
:2063000011E73C4318E700242AE73C4331E73C4338E73C433FE73C4346E73C434DE73C431A
:2063200054E780231C435AE700246CE73C4373E73C437AE73C4380E73C4386E73C438CE7EB
:2063400000249CE73C43A2E73C43A8E70024B8E780231C43BDE7F8BD05020020A80400206F
:20636000034B00221A70034BFF221A707047C046A8030020E0000020F8B59D4E041C335C5B
:206380000D1C7F2B00D132E1062B07D1994B1B78002B03D0062901D0FFF7E2FF052C0BD9DC
:2063A000231C083B0D2B07D91A2C05D0143B012B02D90A3B012B19D8042D0CD08E4B1B5D12
:2063C000072B08D8032043438C48C01803F0E0F9002800D0F7E0052C08D8201CA91E18305F
:2063E000C0B24B425941FEF759FE06E0231C083B0D2B02D91A2C00D0E9E0E208804BD2B225
:20640000002D01D00B2D07D10721214001208840011C985C014306E0072020400121814057
:20642000081C995C81439954764BA7000022FA500B2D00D9C2E0281C08F0F8FD104406641C
:206440009CC0B9C0C0C0C028052C00D9CFE0201C1830002104F09EFA0223ADE0201E0528F8
:206460000ED90838C3B20D2B0BD91A2C09D0231C1C3B012B05D90A3B012B00D9B7E000E0E4
:206480001830002104F086FA002395E0201E05280ED90838C3B20D2B0BD91A2C09D0231C06
:2064A0001C3B012B05D90A3B012B00D99FE000E01830022104F06EFA0B23524D3355012392
:2064C000EB5194E0201E05280ED90838C3B20D2B0BD91A2C09D0231C1C3B012B05D90A3BE5
:2064E000012B00D983E000E01830002104F0F0FA201C0838052C00D82030012104F04AFADE
:20650000012359E0211E05290DD90839CBB20D2B0AD91A2C08D0231C1C3B012B04D90A3BF0
:20652000012B64D800E0183118235943364A51181225485F191C01300AD1231C083B052C38
:2065400000D863184B43D2181421535E01334ED0201C0838052C00D82030012104F01AFA39
:20656000201C0838052C00D82030002104F03AF9032321E0052C0BD9231C083B0D2B07D928
:206580001A2C05D0143B012B02D90A3B012B2ED804233355184B1B5DFF2B22D003204343C4
:2065A0001648C01803F0F4F8002820D119E0231C183B012B1BD80623335518E013481449A2
:2065C00003F022FD13E0201CFFF740FC03E7231C1C3B012B00D810E70A3B012B00D923E779
:2065E0000BE701214942201C0A1CFFF7EBFBF8BD72030020A8030020290300205C040020DD
:20660000A804002068020020B8280100F8050020C426010010B50024231C183B012B03D8B9
:20662000201C0621FFF7A8FE0134E4B2282CF3D1034B012203481A7003F0A2FA10BDC046D0
:20664000A80300204405002038B5214D01232B70002304333C2B05D01E4A0021D218043AA5
:206660001160F6E71C4B1B78002B01D0FFF778FE00231A4A00249C54194A9C54194A9C5429
:206680000133062BF5D1E0B2022105280CD9031C083B0D2B07D91A2805D0143B012B02D921
:2066A0000A3B012B02D80121FFF766FE0E4BFF22E2540134282CE6D10C4B00241C600C4BD5
:2066C0001C700C4B1C70FFF703FC2C7038BDC0466803002024020020A803002005020020FC
:2066E000A804002010020020290300207C040020210200202803002010B51C4C0123201C95
:206700001B49032203F0B2FB201CE021194A03F087FC201C9021184A03F082FC201CC0215D
:20672000164A03F07DFC201CD021154A03F078FC201CF421134A03F073FC201CF521124ADC
:2067400003F06EFC201CF021104A03F088FC104A201CFF2103F07EFC201C0E4903F062FBB8
:20676000FFF772FF002003F0C5FF10BDF8050020D5260100DD4F00000D4E00009D50000081
:20678000595F000079630000494F00005D780000496600003404002010B51820022104F0DD
:2067A000F9F81920022104F0F5F81A20022104F0F1F802211B2004F0EDF80E4C201CFEF7AF
:2067C000A5FEA01CFEF7A2FEFEF704F80A4C201CFEF7FBF9201C1430FEF7F7F9201C283060
:2067E000FEF7F3F90548FDF735FD054A054B1A6010BDC0466826010068000020FFFF000044
:20680000955400001C02002008B5024B1B68984708BDC04614000020F7B50D1C01900F2150
:2068200008981E1C171C08F0B9FC0324664308988E190F2108F05CFC3B1C43436343AB4297
:2068400009DA7C430020A64207DA9E19AE4204DA019B985D01E001204042FEBD13B5031C71
:206860000C1C9A6859680068DB680094FFF7D4FF16BD08B54B1E994104F02AF908BDF7B5CA
:20688000071D01AE00236D46381C0E21321CEB803380FEF7CBFE0635041E0FD1381C0F21E1
:2068A0002A1CFEF7C3FE041E08D13088FDF700FF298828394B425941FFF7DBFF201CFEBD36
:2068C00008B5021C032915D8081C08F0AFFB06080204022304E0032302E0002300E00123B2
:2068E000012A07D814215143034841180B73101CFDF7A6FF08BDC0464000002073B5041D6A
:2069000001AE00236D46201C0E21321CEB8033800635FEF78BFE00281DD1201C0F212A1C9A
:20692000FEF784FE041C002C15D13088FDF7C0FE2B882A2B09D02B2B09D002212C2B07D0E3
:20694000211C2D2B04D1032102E0211C00E00121FFF7B6FF002076BD73B5041D01AE00236F
:206960006D46201C0E21321CEB8033800635FEF75DFE00281DD1201C18212A1CFEF756FEE8
:20698000041C002C15D13088FDF792FE2B882A2B09D02B2B09D002212C2B07D0211C2D2B93
:2069A00004D1032102E0211C00E00121FFF788FF002076BDF7B5041C462902D1FDF796FE57
:2069C0006EE0452901D1012168E0622953D0482905D11168012863D8FEF7DCFA60E0492970
:2069E00032D1071C08371368FDB2281C01935668FFF758FA00210A1C281CFFF7E3F9281C89
:206A00000421FFF7B9FC1220012103F0C3FF1220012104F05DF8234BDB5D072B40DC019873
:206A20009D0009F05BFA204BE850301C0BF008F905F0E2FD002833D0301C09F04FFA011CD6
:206A4000201CFDF7E9FF2BE0472904D100210A1CFEF748FB24E04C2907D04F2905D04B293E
:206A600001D100211AE04D2903D1201CFEF798F916E0642908D1201C012103F08BFF201CAA
:206A8000002104F025F80BE04E2902D1FEF77AFB06E06329FAD04A2902D1022103F07AFF14
:206AA0000020FEBD2903002088040020054A064B1A60064A00231360054A1360054A064BA1
:206AC0001A607047602E00205C0300206C0300205C020020FF7F0020840400200A4B002888
:206AE00003D01968884200D21860084A0849126809680132D2008A1806491B685218D80FD6
:206B0000D1179A4248417047840400206C0300205C030020FF03000007B5026801AB019353
:206B20009A4200D903600068FFF7D8FF002800D00E200EBD30B585B0051C0190081C02A97C
:206B4000FDF7CBFC002816D16C46023402A80D21221CFEF76BFD00280DD1281DFFF7DCFFF4
:206B6000002808D1238805203F2B04D8034A9B009B5801A8984705B030BDC0468C2701003F
:206B80007FB50468051C201D0E1CFFF7C5FF00283AD102A9281D321CFEF7C8FC011C0029A3
:206BA00032D102A8FDF784FC011CC0B206282AD808F03CFA040B2906291C1C00032023E002
:206BC000201C02A9FFF7B6FF1EE0039A02990920032A19D90023881AC55C01A81D54013371
:206BE000042BF8D1019B0020A3600DE0C9B202A801AAFDF797FC051E03D1019809F08EF98A
:206C0000A060281C00E0082004B070BD08B51321FFF7B6FF002800D10F2008BDF7B501A968
:206C2000061C0468FEF748FE002825D1301C1321FFF7A6FF00281FD1301C1921A568FFF7B1
:206C40009FFF002818D1FE218905A068266A019F08F0D4FF09F042F900280ADBBF00F619C6
:206C60003668002E05D0002801D1756002E00138F6E70220014B1856FEBDC046F4250100F5
:206C800073B501A9051C0468FEF716FE002820D1281C1921FFF774FF00281AD1FE218905CC
:206CA000A068256A019E08F0A9FF09F017F900280ADBB300EB181B68002B05D0002801D1B5
:206CC0005B6803E00138F6E702200023A360014B185676BDF425010073B501A9041C05684A
:206CE000FEF7EAFD00281AD1201C1321FFF748FF002814D1019BAE689C002B6A1C19246847
:206D0000002C07D0301C616808F09EFA0028F6D0012000E0201C09F001F9A860002076BD52
:206D200073B501A9061C0568FEF773FD041E1AD1301C1321FFF724FF041E14D1019B002B19
:206D400009DA6A6ADE43B60096197068A96808F0E3FA706007E0EA699B00D6183068A968FC
:206D600008F0DAFA3060201C76BD37B501A9051C0468FEF74EFD002812D1281C1321FFF76C
:206D8000FFFE00280CD1019BA268002B05DA616ADB439B00CB185A6002E0E1699B005A50AF
:206DA0003EBD37B50468051C23780020834214D1281C01A9FEF72DFD00280ED1019A052026
:206DC000002A0ADB281C1321FFF7DAFE002804D1A168E369019CA200D1503EBD70B5151C5B
:206DE00088B01E1C002901D1002037E00290081C03A9FDF772FB002830D1049B002B2ADB34
:206E0000F2D003A80121FDF753FBC0B2032824D1029C03A806A90594FDF75FFB0028EAD14D
:206E200006A80B2101AAFEF7E0FC0028E3D105A81321FFF7A5FE0028DDD1019AD343B3422A
:206E400007D30C9A934204D29B00A468EB185C60D3E70A2002E0072000E0082008B070BDC7
:206E6000F8B51E21061C0568FFF78AFE041E18D1301C1F21AF68FFF783FE041E11D1381C9C
:206E800009F02CF8FE218905061CA86808F044FA09F024F8011C301C05F048FA09F03EF8DC
:206EA000A860201CF8BDF7B52521051C0668FFF767FE041E1ED1281C2621B768FFF760FEEE
:206EC000041E17D1B368281C27210193FFF758FE041E0FD1381C09F001F8051C019808F027
:206EE000FDFF071CB06808F0F9FF391C021C281CFDF798FE201CFEBDF7B500236D46EB8046
:206F00000635061C0E2180C82A1CFEF78FFB041E10D1301C1721FFF733FE041E0AD128887D
:206F2000FDF7C6FB051CB86808F0D8FF011C281CFDF712FD201CFEBDF7B500236D46EB8044
:206F40000635061C0E2180C82A1CFEF76FFB041E10D1301C1621FFF713FE041E0AD128887E
:206F6000FDF7A6FB051CB86808F0B8FF011C281CFDF752FD201CFEBDF7B500236D46EB8004
:206F80000635061C0E2180C82A1CFEF74FFB041E11D1301C1421FFF7F3FD041E0BD128887F
:206FA000FDF786FB051CB86808F098FF0121021C281CFEF797F8201CFEBD0000000000008D
:206FC000F7B56E460636071C1D2110C8321CFEF72DFB051E00D0ABE0381C2221FFF7D0FD99
:206FE000051E00D0A4E03388072B00D175E01ED8032B36D008D8012B2ED0022B00D096E060
:20700000A06806F049F890E0052B3AD061D8A0680AF016FE494B484A09F048FB484A494BB0
:2070200009F0AEFF0AF05EFE05F084FC7DE0512B64D008D8092B5CD059D3502B77D1A0689B
:2070400005F0BAFC71E0532B60D05BD3542B6ED1A06805F001FB5CE0A26853005B08A360A2
:2070600066E0A0680AF0ECFD344B334A09F01EFB334A344B09F084FF0AF034FE05F0E8FC54
:2070800053E0A0680AF0DCFD2C4B2B4A09F00EFB2B4A2C4B09F074FF0AF024FE071C05F068
:2070A00049FC061C381C05F0D3FC0021071C301C08F0CAF8002807D0FF23DB05002F00DAFD
:2070C000234BA360002533E0381C311C08F088FA2BE0A06805F09CFD27E0A06805F098FDB2
:2070E0000AF0AEFD184A194B09F0E0FA1BE0194800E01948A16805F003FE16E0A06805F0C3
:20710000CDFB12E0A06805F033FD02E0A06805F0DFFC0AF095FD0A4A0A4B09F0C7FA074B8D
:20712000054A09F02DFF0AF0DDFDA06000E00525281CFEBDC046C0460000000000806640CC
:20714000182D4454FB2109401655B5BBB16B0240000080FF54F82D4000002041C046C0460F
:20716000F8B50568061C281D0F1CFFF7D5FC041E08D1301C2221FFF703FD041E02D1A86817
:20718000B847A860201CF8BD08B50249FFF7E8FF08BDC0467146000008B50249FFF7E0FFB3
:2071A00008BDC04659460000F7B50568061C281D0191FFF7B1FC041E11D1301C2221FFF727
:2071C000DFFC041E0BD1301C2321AF68FFF7D8FC041E04D1381CA968019B9847A860201C4A
:2071E000FEBD000008B50249FFF7DEFF08BDC046CF45000008B50249FFF7D6FF08BDC0467C
:20720000BB45000008B50249FFF7CEFF08BDC046A745000008B50249FFF7C6FF08BDC0465E
:207220009345000008B50249FFF7BEFF08BDC0467F45000008B50249FFF7B6FF08BDC046AE
:207240003546000008B50249FFF7AEFF08BDC0461146000008B50249FFF7A6FF08BDC04678
:20726000E545000008B50249FFF79EFF08BDC0467745000008B50249FFF796FF08BDC04664
:207280006F45000008B50249FFF78EFF08BDC0466745000008B50249FFF786FF08BDC046EA
:2072A0005F45000008B50C4B021C1868082A01D0002010E0002802D002681A600BE0FFF7A6
:2072C0000DFC0028F4D1054B054A18681368591CDB001160C01808BD5C0200205C030020C3
:2072E0006C030020F7B501A9061C0468FEF7E4FA002836D1301C1321FFF742FC002830D13C
:20730000301C1921A568FFF73BFC002829D1FE218905A068266A019F08F070FC08F0DEFD6F
:20732000002819DBBF00F6193368002B10D000280BD10820FFF7B6FF00280FD00023036059
:20734000326845600260306009E01E1C0138EBE70223002803D1ECE7022300E00123014A66
:20736000D056FEBDF425010073B501A9041C0668FEF7A2FA00281CD1201C1321FFF700FCAA
:20738000051C002D15D1019B08209C00336AB6681C19FFF787FF002808D005604660226858
:2073A000002A01D0141CFAE7206000E00122014B985676BDF4250100024B1A68186002600E
:2073C0007047C0465C020020F7B501A9041C0568FEF772FA002822D1201C1921FFF7D0FBDC
:2073E00000281CD1FE218905A86808F007FC08F075FD2E6A019F041E0EDBBB00F3181868CD
:20740000002809D0002C04D102681A60FFF7D4FF03E0031C013CF2E70224014B1857FEBD09
:20742000F425010038B511481D2102F0BBF9104B1D1CDC1C1B35E01E033401F0CDFEAC424D
:20744000F9D10C4B0C48FA21002289005A60996018600A4B0A4899600A495A6019601D2162
:207460001A615A6102F09EF938BDC046AC0300205C0400204C040020982201003404002080
:20748000D0040020B822010008B5011C014802F03BFB08BD4405002008B5024802F025FB8B
:2074A000C0B208BD44050020F8B5071C0E1C151C224C4B1C10D0391C201C02F0C0FBF0B26C
:2074C000FFF7E2FF201C02F0F8FB1D4B1868002803D002F0E5FE00E00026201C391C2A1C1F
:2074E00002F0A8FB201C02F005FB854202DA1548154906E0201C02F0FDFA854203DD114860
:20750000124902F081FD124B1F705E701F1C0026AE4207DB0235EAB23B1C0A48772102F0AD
:207520004AFDF8BD201C02F0E5FA0028F2D0FFF7B3FFBB1998700136EAE7C046440500205D
:2075400018020020F8050020E1260100FE2601000803002070B5FEF7B1FD254C201C02F015
:20756000BDFC261C002803D0201C02F09BFDF4E702F076FE1F4B20491860204B09681A6865
:20758000801A884233D98A181A601824E5B22B1C183B052B13D81A4B1B19183B1B78022B2B
:2075A0000DD1184B1B682341DA0708D5201C183003F0DAF8291C021C301C02F0D4FC0134F6
:2075C000402CE3D1104D2B787F2B10D800240023EB56A3420BDB0C2363430C4A0134985C52
:2075E000D31859681A7AFFF75FFFE4B2EFE770BDF805002054030020E40000200C02002098
:20760000720300207C040020E0000020D4030020F0B587B00392071C0291FDF7B3FD02F081
:207620001FFE2D4C051C2368C21AFA23DB009A4202D9FDF7A7FD2560284B05AC1B78002683
:2076400026706670A670B3420ED166782078A4780194019B8419E418002C27D1029B3C601B
:207660001C60039B1C6035E01D4D3621281C02F0E6FA6321281C02F047FA311C281C02F00A
:20768000E9FA322002F00CFE281C3621032202F0D1FA281C02F02EFA002803D0281C02F0AD
:2076A00024FAA0550136032EF3D1CEE76425211C684307F01DFD3860281C211C704307F091
:2076C00017FD029B211C18600198684307F010FD039B186007B0F0BD640200206003002079
:2076E000440500201FB5041C02A901A803AAFFF78FFF022C06D0032C06D00020012C04D17D
:20770000019802E0029800E0039804B010BD73B5041C20CC00236E4601AA201C0E21F380C4
:2077200013800636FDF782FF002818D1201C6521321CFDF77BFF002811D13388252B07D08A
:207740000220262B05D00120272B02D1032000E00120FFF7C7FF08F0E1FBA860002076BD8C
:20776000F0B58BB0061C0591039202F079FD0490314C2368201C9B689847051E04D0236838
:20778000201CDB689847F3E7201C311C03F01BFA019507A8284903F07FFC039A002A02D063
:2077A00007A8002190470025244BAA00D2580026101C02920AF0CAFC071C099AD31B9E4280
:2077C00010D20024BC4207D0A11907A804F051FE029A135D834203D0BC4220D00136ECE786
:2077E0000134EFE70135032DDED102F039FD049A059B801A984203D907A804F0ACFD17E070
:207800000A2002F033FD002407A804F0A4FD002C0ED1094803F023FE002809D0B9E701237F
:20782000022D02D1064A1370002301930124EBE701980BB0F0BDC046B0060020482401007B
:20784000A003002008B5034803490022FFF788FF08BDC0461A27010088130000F0B50D1CFC
:207860008BB0141C6D2800D1C9E11AD80F2800D113E204D80E2800D113E200F099FD6928AF
:2078800000D1F2E16B2801D000F092FDBD4DF021281C02F0BFFB281C6C2102F0BBFB0026B7
:2078A00048E1762810D007D86F2800D1F7E0702800D1BAE000F07CFD782800D1A3E07A2801
:2078C00000D1DDE000F074FD5378202118221A400B4002D0AB48AC4946E02678082A26D028
:2078E0000AD8002A01D000F063FDA84F311C381C02F0A5F9022605E0102A2ED0182A55D087
:2079000000F056FDAE420AD2A3195878A35DC001C018C0B20236FFF7B7FDF6B2F2E7381C0A
:2079200002F0CBF9462002F0BBFC00F041FDA378E178062D07D1C901627959182379D20150
:20794000D218D2B204E0CA01D2180121D2B24942301CFFF7A9FD00F02BFD8D4F3B785AB254
:20796000062A05DD87488B4902F04EFB00F020FDA078E178062D07D1C901627941182079F7
:20798000D2011218D2B204E0CA0112180121D2B249420133DBB23B700C245BB263437E4847
:2079A0001E54C31859601A7200F002FD784A107841B200290BDCFF23137000F0F9FC0C243F
:2079C0005C43754AA25CB24216D00133DBB29942F5DA002310E05C1C072B0CD80C252E1CEA
:2079E00066436D4A6B43B75C96199F547768D2185760337A1372E3B29942ECDA64490138F6
:207A0000087000F0D5FC63781278DB01D318002B01D0624A1360624B1B78002B01D000F0BA
:207A2000C7FCFEF7F7FD00F0C3FC042901D800F0BFFC96785378F60114799E191578D3784E
:207A4000E4011C19052D0DD92B1C083B0D2B09D91A2D07D0143B012B04D90A3B012B01D98F
:207A600000F0A6FC281CFEF71DFA281C311C221CFEF7A8F9281C0421FEF77EFC00F098FC63
:207A8000012901D800F094FC13785278D2019A18444B002A00D101221A6000F089FC0129C3
:207AA00001D800F085FC5178022D07D09378DB011943032D02D0D3789B0319432078FDF797
:207AC0008DFA00F075FC231C083B0D2B35D91A2C33D0143B012B30D90A3B012B2DD9231C73
:207AE000083B0D2B60D91A2C5ED0231C1C3B012B5AD90A3B012B57D9231C083B0D2B74D8C2
:207B0000281C042102F086FA281C0E2102F082FA183C012C07D8281C062102F07BFA281C33
:207B2000012102F077FA281C7F21013602F072FA282E77D0F4B2052CC5D8281C002102F0DF
:207B400069FA281C012102F065FA281C0B2102F061FA281C012102F05DFA281C012102F047
:207B600059FA281C012102F055FA052CB7D8281C022102F04FFA0A21281C02F04BFA311CB6
:207B8000183113E0F80500202227010044050020E000002042270100D4030020180200203E
:207BA000A8030020E4000020311C083918235943C34A51181227C85F191C01300AD1331C2B
:207BC000083B052C00D873184B43D2181420135E013307D0281C032102F01CFA281C0821C9
:207BE00002F018FA052C87D88AE71A2C88D0231C1C3B012B84D90A3B012B89D880E7002961
:207C000000D1D5E3AF4C1578201CF02102F002FA201C6E2102F0FEF9201C291C02F0FAF9FE
:207C2000272D01D9A748C0E3A74B201C595D02F0F1F9A64EAD00A9597F273940201C02F0D4
:207C4000E9F9A959A24B194204D0C9113940201C02F0E0F9C02371591B021942E2D0C90228
:207C6000490E201C02F0D6F9DCE7964DF021281C02F0D0F9281C6A2102F0CCF900247F21B0
:207C8000052C02D8211C1831C9B20134281CE4B202F0C0F9282CF2D1C4E710785178927801
:207CA000F4E0002900D183E31378012B02D0022B33D07DE3012900D87AE304A805A906AA0E
:207CC000FDF79CFA6378022B06D0032B06D00026012B04D1049E02E0059E00E0069E794DA0
:207CE000F021281C02F096F9281C0E2102F092F9281C012102F08EF96178281C02F08AF94D
:207D00007F24311C2140281C02F084F9F111281C214002F07FF9281C47E3012900D847E3B4
:207D2000507801380E2800D942E307F089F90F006C009F00A900DD00170152015B017101BC
:207D4000A801C70147029702DA02130300260396032904D99278E378D201D31803935D4BB5
:207D60005D4A1B69934204D05C4A9B1A5A42534100E00223534E023B5A425341DBB2301CB8
:207D8000F021029302F046F9301C0E2102F042F9301C022102F03EF9301C012102F03AF939
:207DA000301CF72102F036F9029F002F03D0FA20400002F05BFAFCF77FFEFA20400002F03E
:207DC00055FA06A8464904F00DFB261D331BAB4213DA37780A2F0ED006A8391C04F03FFBB9
:207DE0000D2F08D1039906980022FFF7B9FC06A83B4904F00AFB0136E8E7029D002D31D069
:207E0000FFF720FD2EE0032900D8D1E29678D378F60106A83249F61804F0E4FA271D3B1B97
:207E2000AB4205DA397806A804F019FB0137F6E7244CF021201C02F0EDF8201C0E2102F009
:207E4000E9F8201C022102F0E5F8201C022102F0E1F8311C0698234AFFF782FC201CF721C9
:207E600002F0D8F806A804F076FAA1E2022900D19EE29078D378C001C01802F0BBFE97E21F
:207E8000042900D894E29078D178127905280DD9031C083B0D2B09D91A280BD0143B012B64
:207EA00008D90A3B012B00D982E203E0052801DC183000E008384B1E9941FDF713F977E242
:207EC000B8280100F8050020720300206802002080FF000034040020B0060020A40800200C
:207EE00081270100254B0000052900D860E2E37808269278B34200D81E1C043D6D10AE42D9
:207F000000DA2E1C06A904340025081C2378052B0BD91F1C083F0D2F07D91A2B05D0143F53
:207F2000012F02D90A3F012F0DD8C04FFF5C042F09D1052B01DC183300E0083BDBB20B70DE
:207F400063784B70023101350234B542DEDB091A491000D12CE2FDF7F7F929E2042900D8ED
:207F600026E293781A1C083A052B02D9D1B20D2907D8191C18310292052B00D80291E61C24
:207F800022E01A2BF5D0191C1C390129F1D90A39012900D90CE2ECE7337800225906890E8D
:207FA000914201D00A1C2F32012770783B401F0207430A235F4302984B1E9941FDF792F876
:207FC000381C02F053F902366A1E331B9342E3DBEEE1042900D8EBE19078D1781279FCF7FF
:207FE00021FEE5E1802100229148C902FCF7EEF8904CF021201C02F00DF8201C0E2102F0DF
:2080000009F8201C022102F005F8201C082150E04B20FCF7B1F84F20FCF7AEF84F20FCF70B
:20802000ABF85620FCF7A8F8FCF7F8F8814CF021201C01F0EFFF201C0E2101F0EBFF201C36
:20804000022101F0E7FF201C092101F0E3FF201C002101F0DFFF201CF72101F0DBFFFDF7AE
:208060002FFD754B0022C8201A7002F0FFF8BFF34F8F724A724BDA60BFF34F8FFEE79678D1
:20808000D51CB31C2A1B934204DB2878FCF774F80135F6E7674CF021201C01F0BBFF201C2E
:2080A0000E2101F0B7FF201C022101F0B3FF201C0A2101F0AFFF201C002173E190787F2684
:2080C000032857D806F0B2FF021B2B337E26032950D91279E5787F231A401D40594BD20173
:2080E000154301269D4245D8FCF7C8F8564B022698423FD1281CFCF7ADF800263AE07E26DF
:20810000032937D9FCF7BAF822797F23E6781A40D20133401343C61A73425E4105E0FCF7E1
:20812000ADF8484B002683427641F6B222E0FCF7A5F8444A002690421CD80226032D19D967
:2081400025797F21E3780D40ED010B402B43934203D81B1A581E83410BE03C4A934209D153
:208160003B4B3C4A1B69934204D03B4E9B1B5E1EB3415E002F4DF021281C01F04BFF281C69
:208180000E2101F047FF281C022101F043FF281C0B2101F03FFFA178281C01F03BFF281C74
:2081A000311C01F037FFA378032B00D03AE5002E00D037E5281C01F03AFE33E5961C042995
:2081C00000D8F5E06A1E331B934200DBF0E07078002241063378890E914201D00A1C2F32DE
:2081E00001273840B778000207430A204743181E05280FD908380290C0B20D280CD91A2BC2
:208200000AD01C204042C018012805D9263B012B0AD801E0183000E002984B1E9941FCF79F
:2082200061FF381C02F022F80336CBE77203002000370100F8050020040200200400FA0580
:2082400000ED00E00F270000FFFF0000FE3F000034040020B0060020A4080020032900D8E2
:20826000A6E0D678937802961E1E052E0ED9083EF6B20D2E0CD91A2B0AD01A1C1C3A012A4D
:2082800006D9263B012B03D9012516E01836F6B2281F03210434069406F02AFF0323584367
:2082A000444B06AFC0B27860642100930197301C3C22029BFDF7DCFC00253F4CF021201C70
:2082C00001F0A8FE201C0E2101F0A4FE201C022101F0A0FE201C0D2101F09CFE201C291CA5
:2082E00060E0022964D09078052805D81830FCF707FD0026051C01E0002501262E4CF0218F
:20830000201C01F087FE201C0E2101F083FE201C022101F07FFE201C0E2101F07BFE311CDF
:20832000201C7F2601F076FE311C2940201C01F071FEE9093140201C01F06CFEA90B314086
:20834000201C01F067FE690D3140201C01F062FE290F26E006AA04A805A9FFF759F9164C25
:20836000F021201C01F056FE201C0E2101F052FE201C022101F04EFE201C0F2101F04AFE7E
:20838000201C002101F046FE04997F252940201C01F040FE0599201C294001F03BFE06992A
:2083A0002940201C01F036FE201CF72101F032FE0BB0F0BD85440000F805002038B50369D7
:2083C000041C002B0CD1094D281C03F048F8002805D1074D281C03F08DF9002800D025611B
:2083E0002069002800D1034838BDC046B0060020A40800204C04002038B5041CFFF7DEFFC3
:2084000003689B689847051E03D001F029FF606107E001F025FF6369C01A034B984200D99C
:208420002561281C38BDC0461027000010B50648FFF7E2FF041E03D0FCF77AF9012002E0F8
:20844000FDF778FA201C10BD34040020F0B595B008A95822051CFDF769F8011E02D00021B8
:2084600002910EE008A8FCF723F8C0B20328F6D108A80AA9FCF731F8041E00D0CAE00AAA8A
:20848000029208A9281C2022FDF750F8011E05D00024042800D1BDE0041CBBE008A8FCF7C5
:2084A00007F8C0B20824032800D0B3E008A906A8221C09F001FD06A808A9FCF70EF8041E83
:2084C00000D0A7E0FFF7B2FF061E00D09FE0099C002C00DA9DE000D19CE008A8311C089D14
:2084E000FBF7E6FFC0B2022800D08EE02C1BA37862781B021A430899099B0392CA1A51788E
:20850000127809020A430192029A023B0993002A18D0101C0EA9039AFDF708F8041E02D0F7
:20852000042811D067E00EA8211CFBF7C1FFC0B203286AD10EA810A9FBF7CFFF10AE002855
:2085400002D057E0029E002400230D930C93019B482B0AD0492B50D157236A4613822F4B35
:2085600002250D931623538206E0FE239B050C93694656230B820125002E3ED06F1EBF007D
:208580000CAAD719013D6B1C002B34DD6B00103369465A5A301C12A9FCF7C8FF041E22D14D
:2085A00012A8211CFBF784FFC3B2012B0FD1139B129A032B09D9D11A085D05A9605401347D
:2085C000042CF8D1059A3A6011E0092413E0C1B205AA12A8FBF7A6FF041E04D1059807F05A
:2085E0009DFC386003E0042C01D0002C03D1043F0024C7E7041C002C0CD10398FCF758F84A
:2086000001990CAAFEF7D6F959E7082402E0022400E00724201C15B0F0BDC0460000C07FD4
:2086200008B5FFF713FF08BD37B5041C04300D1CFEF772FA00281ED1281C6946FBF74DFF9E
:20864000002818D1FFF7F2FE00280FD1019800280EDB10D068460121FBF72AFFC0B2032809
:2086600008D1201C6946FEF765FAE9E7022002E0072000E008203EBD37B5041C00680D1C47
:208680000430FEF749FA011E12D16946201D2A1CFCF74CFF011E0BD16846FBF709FFC0B2E7
:2086A0000821042804D169462068FFF7BDFF011C081C3EBDF0B5446A8BB002AFFC60BC6BA9
:2086C000061C1519A8001230C008C0008C466946091A3A603A1C8D461832BB6002AC7E617F
:2086E0007A60634603CB03C225600020A84205DA8100611800224A600130F7E73868221C43
:208700000090B968301C0023FEF768FB00281CD17D6974626C6A281D2168B960FEF7FCF969
:20872000002810D12168BA68B86B0091131AF96B281C221CFEF752FB002804D1381C1430E7
:208740001A21FFF799FFFC687462BD4609B0F0BD70B5036886B01A78041C0023012A12D104
:20876000051D04AE03AB281C5A21321CFCF71AFF031E08D1039A2068009201961A1C291C9B
:20878000FFF798FF031C181C06B070BD38B51021041C0568FEF7F4F900280CD1A868002153
:2087A00006F052FD002802D1201C1B2101E0201C1C21FFF761FF38BD70B51021051C066877
:2087C000FEF7DEF9041E0AD1B068002106F03CFD002804D1281C1A21FFF74EFF041C201C4D
:2087E00070BD38B50568041CFFF720FE002818D1201C1021FEF7C4F9002813D1A868002151
:2088000006F022FD002801D100200BE0201C1A21FFF732FF1028F7D01128E5D00028E3D0D8
:2088200000E0022038BD38B5051CFFF7FFFD041E0AD1281C1A21FFF71FFF102806D011286A
:20884000F3D00028F1D002E0022000E0201C38BD38B51221051C0468FEF792F9002818D119
:20886000A06807F03BFB041C002C09DDFFF7DEFD00280DD1281C1A21FFF7FEFE102801D13F
:20888000002006E0112801D0002802D1013CEBE7022038BDF0B5152193B0051C0668FEF705
:2088A0006FF9041E00D08DE0B668281C039606A940C81A22FCF73AFE011C041E00D081E068
:2088C00006A8FBF7F5FDC0B20824042800D079E006A809A90896FBF700FE041E72D1051C9F
:2088E000FFF7A4FD071E5BD10A9C002C5ADB5FD009A80121FBF7DCFDC0B2032854D1082DC5
:2089000054D0089A05AE09A80CA9029237800B92FBF7E3FD041E3FD16F4616370CA80D21A8
:208920003A1CFCF783FE002835D13B881E2B3BD10CA80E21321CFCF779FE041E2CD10BA8BA
:208940001621FEF71DF9002825D13088FBF7B0FE029A6B0094680EAE98551C49201C01937E
:2089600006F08CFCB423071E11D1201C002106F071FC3B1C00280AD1201C144906F07EFC78
:20898000B423002803D1201C06F08CFCC3B2019AB618737002E0041C002C13D101359FE7BB
:2089A00002240FE007240DE008240BE00B2409E0002D07D0039807F091FA291CC2B20EA8CB
:2089C000FCF7C2FC201C13B0F0BDC04600003443F0B585B0151C6A460C1C82C882C268469E
:2089E000111C1E1CFBF779FD00281AD1FFF71EFD071E0FD1039B002B0EDB0FD002A8012122
:208A0000FBF756FDC0B203280AD102A8391C321CA847E9E7022004E0072002E0201C00E062
:208A2000082005B0F0BD000030B587B001AD0191AA80EB80039004AB0C3004AC06C806C3F6
:208A4000201C0421054A2B1CFFF7C2FF012803D10A9B002006CC06C307B030BD67580000A8
:208A6000F0B5051C80CD8FB0281C0A2107AAFCF7BCFE041E2DD1079B381D0393FEF74CF8F1
:208A8000041E26D10CAE0096381C03992A220A23FFF7CAFF041E1CD1281C592108AA05AB16
:208AA000FCF780FD002813D10AAD301C5A212A1C06ABFCF777FD00280AD1069B0195009391
:208AC000381C311C059A08ABFFF7F4FD0F2800D0041C201C0FB0F0BDF0B5051C95B040CDD5
:208AE0006F46029000231A37281C5B2107AA3B80FCF77BFE041E00D0E4E0079B301D0393E8
:208B0000FEF70AF8041E00D0DCE00AAB0093301C03993C225B23FFF787FF041E00D0D1E085
:208B20000AA80CA96122FCF701FD002815D10CA8211CFBF7BDFCC0B2082801D00824C1E070
:208B40000CA80EA9FBF7C9FC002806D10AA8602108AAFCF74AFE002801D0041CB2E00AA877
:208B60005F2109AAFCF741FE0028F6D1089B002B00DAA6E0099A002A00DAA2E0534303228F
:208B800053430F9A9A4200D09BE0281C0E213A1CFCF74CFD0028E0D102982221FDF7F0FFD1
:208BA0000028DAD1B5680021281C06F053FB002800D0002502982321FDF7E2FF0028CCD187
:208BC000B3680021181C039306F044FB002801D00023039302985E21FDF7D2FF0028BCD115
:208BE000B0683A4906F0E0FE3849061C06F046FB00280BD1301C002106F02CFB002807D19E
:208C0000301C324906F03AFB002804D02F4B00E00023029300E002960F9E301C07F07EF975
:208C2000089B0490D843C0171840059307F076F9011C281C06F0B8FE254906F0B5FE051C70
:208C4000291C049806F006FB002801D0049800E0281C06F027FB0E9B351A9E1B361800214B
:208C6000039806F0F1FA00280FD0059B052B0CD13888FBF71DFD1195C5B20298109607F0A4
:208C80002DF910AFC3B2134A13E03888FBF710FD059B0490039811951293109607F01EF99D
:208CA00010AF049BF8600298DDB207F017F90A4AC3B200920197281C64213C22FCF7D8FFEA
:208CC00000E00524201C15B0F0BDC0460000C84200004040854400005D680000F0B593B0D7
:208CE00000AF051CFFF7B2FB00286FD13C1C1834281C211C2122FCF719FC051C002D65D1A5
:208D0000201C291CFBF7D4FBC3B20820042B5DD13B1C0C333B6204337B62201C291C2D4AD8
:208D200010333D61FD60FFF753FE00284ED108222021D2193B1CC8557A622C33221C22CA38
:208D400022C3FB686D4699000E31C908C9006D1AAD463A693D1C69462C357B63BA63F963C9
:208D60007D60984204D0850000264E510130F8E793000E33DB08DB006846C01A854638648D
:208D800000230021934204D03D6C980041510133F7E73B1C143379617B64FDF787FE381CDD
:208DA0002030211CBE69FD69FFF73EFC00280DD101232020C3557B68BE61FD61221C381CF5
:208DC00022CA22C32030211CFFF72EFCBD4613B0F0BDC0466B56000038B50C4906F0E4FDC2
:208DE00006F060FA041C002C0CD0251E0A2D00D90A25281C01F03AFAFFF718FB002803D10B
:208E0000641BF0E7201C00E0022038BD00007A4438B50568041CFFF709FB002811D1201C51
:208E20001021FDF7ADFE00280CD1A868002106F00BFA002806D00448FFF7CEFF0028EAD042
:208E400000E0022038BDC0460AD7A33C10B511210468FDF795FE00280AD1A4680021201CFF
:208E600006F0F8F9002800D00024201CFFF7B4FF10BD000070B52348FFF7BEFA002809D0FE
:208E8000FBF756FC204C2378002B03D0FDF734FC00232370FCF74EFD1C4B1A781C1C002A16
:208EA00001D0FEF757FB2378002B29D1184D2878002825D108240601002001F055FC80069C
:208EC000C00E013C7040002CF5D103F01DFAFCF7FFFF104C1049201CFBF76AFF00280CD199
:208EE000FCF7F6FF201C0D49FBF762FF002804D1FFF79CFA0028FBD002E0022800D02870B5
:208F000070BDC04634040020E8000020200200200402002000370100DD8C0000218600000E
:208F200008B5FFF74BFA0368DB68984708BD08B5FFF744FA03681B69984708BD08B5FFF7B0
:208F40003DFA03685B69984708BD38B5051C05200C1C01F08BF9281CFFF730FA0368211C2B
:208F60001B68984738BD000010B5FBF7A5FD124C9621201C090202F01BFB201C322102F05C
:208F800088F8E12109020D4C0D4802F02BFC0A2001F06CF9211C00220A48FEF7E1FB211C3E
:208FA00000220948FEF7DCFBFEF74CFCFCF788FDFDF74AFB10BDC046B00600208813000040
:208FC000A4080020532701005B27010008B51920022101F0DFFC1B20022101F0DBFC192083
:208FE00001F09EFD002804D11B2001F099FD002802D0FFF7B9FF04E0FDF7CEFB014A024B45
:209000001A6008BD2143000014000020F0B5604C85B0201C02F06EFB00280BD0201C02F02B
:209020002FFB201C02F066FB0028F7D1201C594901F0D6FD182001F073FD012800D198E0DA
:209040001520002101F044FD1C20FBF73FFE051C1D20FBF73BFE0124002802D06C426C411A
:20906000E4B21920FBF74CFE4B49051C06F010F9002806D0281C494906F0F6F8002800D081
:209080000124474B1A78002A2CD0464F381C00F08BFC381C00F08CFB061C381C00F08BFB4A
:2090A000051C381C00F08AFB3F4A404B1788BF1B39B28C463E491F880B887F1B191A634645
:2090C0005B433FB209B27F4349439C4667447F18FA2337499B009F4200DD01241680334AA6
:2090E000088015802E490B78002B0DD003AA01A802A9FEF78DFA019A222A07DC029B222B20
:2091000004DC0399222901DC002C02D00020011C01E0201C012101F0DBFC2648FBF738FDD4
:20912000254C201CFBF734FD244B201C1B689847234D2B68834210D12248FBF729FD2248BD
:20914000FBF726FD2148FBF723FD2148FBF720FD142001F08BF805B0F0BD1E4C2860261CC9
:209160000936B442E8D0201C296800F055FA0334F7E71A2001F0D4FC012800D060E71B206B
:2091800001F0CEFC011C1520012900D058E759E7A4080020D52601000000A0410000484216
:2091A00060020020D004002016020020D003002070030020B80000201800002058030020F0
:2091C000C8040020000000202C000020A4000020CC0000205C040020044A1378072B02D822
:2091E000591C117000E0FF2303707047F8040020F7B51E1C037801900C1C151C072B00D9DB
:209200000EE1081C012101F0C5FB0198864B02783F21D200D75C201C8F430840391C014330
:20922000D154221C0C3A51424A41211C0A39484241410A4306D1231F012B03D9FA227B4B8B
:20924000520001E07A4B7B4AAA4200DD2A1C01994A70B34200DD331C019AA01E9370764FAC
:209260000B286CD8754B764E764D05F0DFFE060D141619222B343B48505C38215956201C14
:2092800001F0C4FB704B23E050215956201C01F0BDFB6D4B4EE0683325E08021595639E06C
:2092A00098215956201C01F0B1FB674B3B60022342E0B0215956201C01F0A8FB624B3B6041
:2092C000032339E0C8215956201C01F09FFB5F4B3B60002325E0E0215956201C01F096FB15
:2092E0005A4B27E0F83300215956201C01F08EFB574B584A1A600023337001231EE0FF3339
:2093000011215956201C01F081FB534BE0E7942252009956201C01F079FB4D4B4D4A1A601D
:20932000012333700AE0A02252009956201C01F06DFB494B3B600123337000232B703B688D
:2093400046481A18002A03D045495A18002A01D144490AE03E4A444812681218002A03D028
:2093600042495A18002A02D14149424A518001982D490278D2008A5C500651D4314A12784B
:20938000002A22D0324B02211B683B4C1A888A431A801A8892B21A801888802252000243A5
:2093A0001A801888402210431880254800780C304000C45218880143198001991A480B78B3
:2093C000DB00C15C0A43C2542AE01A6802218A431A6099688907C90FFBD11868274A0240D4
:2093E000C020800002431A60D86B0722904302221043D863124800781030904018184160AA
:209400001F490948196419680A4301991A600B784021DB00C25C0A43C254174AC3185A60FE
:2094200001990878FEBDC046FC040020C4090000F0230000A40600003C050020B828010065
:2094400040050020F90400200020004200240042F4040020002C00420028004200DCFFBD3A
:2094600000E0FFBD1A43000000D4FFBD00D8FFBD1B430000000C0040DC050000FFF8FFFF4F
:20948000204E000038B502780E4BD200D35C9B069B0E1A1C0C3A544262411C1C0A3C654279
:2094A0006C41224304D13C333F221340012B02D8054A064B02E0FA22054B5200FFF798FED0
:2094C00038BDC046FC040020A4060000F0230000C409000010B501781A4AC9008B5C402035
:2094E00083438B549B069B0E3B2119403E313F221140012901D8144B05E0191C3831114071
:20950000012905D8114B1A6802218A431A6018E00D2B01D00B2B01D10D4BF4E7191C0C3946
:2095200048424141181C0A3844426041014303D13C331A40012A04D8064B02211A888A43B7
:209540001A8010BDFC040020002000420024004200280042002C004270B50278072A4AD8F2
:209560002548D200135C9B069B0E1C1C0C3C65426C411D1C0A3D6E4275412C4304D13C3386
:209580003F242340012B02D81C4C1D4B02E0FA231C4C5B00994203DB231E8B4200DD0B1CA2
:2095A00081184B60805C8006800E02380B2822D805F03CFD0608141B0A0D101214181B1F06
:2095C000114A10E0104A15E00F4AD36413E00E4A136510E00D4A06E00C4A0BE00C4A9BB28D
:2095E000138308E00B4A536405E0094A9BB2538301E0084A936470BDFC040020F0230000FC
:20960000A4060000C40900000020004200240042002C00420028004237B502781D4BD20093
:20962000D35C041C9B069B0E1A1C0C3A50424241181C0A3845426841024304D13C333F2270
:209640001340012B0ED8144B99421EDCB420B42902DCC843C0170840104B00210093B422D3
:209660000F4B0FE0F423FF3399420EDCB420B42902DCC843C01708400A4B00210093FA23B4
:20968000B4225B0002F05CFE011C201CFFF764FF37BDC046FC040020A3060000F0230000C5
:2096A000A4060000C40900000378FF2B04D0034ADB00D318586800E000207047FC04002010
:2096C000F8B502782E4BD200D35C9B069B0E1A1C0C3A51424A41191C0A394C4261410A4310
:2096E00004D13C333F221340012B02D8254F264E02E0FA26254F7600FFF7D6FF08F02EFAAD
:20970000041C301C0D1C08F029FA021C0B1C201C291C07F0C5FE041CB81B0D1C08F01EFAED
:20972000021C0B1C201C291C06F0C0FF0F4B0E4A07F026FC0E4A0F4B041C0D1C05F06EFD88
:20974000002806D0201C291C0B4A0C4B06F092FC05E0201C291C084A084B07F0A1FE08F0C1
:20976000C9F9F8BDC046C04600000000008066400000000000000000000000000000E03F21
:20978000FC040020F0230000A4060000C40900000278034BD200D05C4006C00F7047C04687
:2097A000FC040020014B017003627047E12E65420423C05E70470623C05E70470823C05EB7
:2097C0007047000070B5104C051C0E1C0178201C00F035FA311C201C00F096F90021201CCD
:2097E00000F038FA29780122201C00F023FA201C00F080F9031C0020834203D0201C00F092
:2098000074F9C0B270BDC0464405002070B5174C0178051C201C00F012FA2A21201C00F0FC
:2098200073F9201C00F049FA29780122201C00F001FA201C00F05EF90026B04203D0201CB8
:2098400000F053F9C6B22978201C00F0F8F9201C2A2100F059F90123311C9943201C00F054
:2098600053F9201C00F029FA70BDC0464405002070B5194C0178051C201C00F0E0F92A213D
:20988000201C00F041F9201C00F017FA29780122201C00F0CFF9201C00F02CF90026B04204
:2098A00003D0201C00F021F9C6B22978201C00F0C6F9201C2A2100F027F9297C201C4B4286
:2098C000594119231E434900314300F01DF9201C00F0F3F970BDC0464405002038B5041CCD
:2098E00001748270002901D02C4900E02C49042A03D1081C05F010FD08E0082A01D0E160E9
:2099000005E0081C8121C90506F04EF8E0600D21201CFFF757FF234D2178281C00F08FF9D7
:209920002B21281C00F0F0F84021281C00F0ECF8281C00F0C2F90A2000F098FC201CFFF777
:2099400065FF2178281C00F07AF91121281C00F0DBF8C021281C00F0D7F8281C00F0ADF96C
:209960002178281C00F06BF9281C0E2100F0CCF8A378042B03D00221082B03D100E0012146
:20998000281C01E0281C002100F0BEF8281C00F094F9201CFFF76CFF38BDC04624977F3BC9
:2099A00024977F3C4405002070B5454D041C0178281C00F044F90021281C00F0A5F80021F4
:2099C000281C00F047F9237C21780422002B00D00722281C00F02EF9281C00F08BF8002857
:2099E0006DD0281C00F081F8237C6070281C002B3ED000F07AF8061C281C00F076F8360233
:209A0000301880B2A08000B2C3179B0E1818801106F084FAE16805F0C7FF6061281C00F049
:209A200064F8061C281C00F060F83602301880B2E08000B2C3179B0E1818801106F06EFAB6
:209A4000E16805F0B1FFA061281C00F04EF8061C281C00F04AF83602301880B2208100B200
:209A6000C3179B0E1818801106F058FAE16823E000F03BF840B2A080281C00F036F840B285
:209A8000E080281C00F031F846B2E568B6B226810423E05E06F042FA291C05F085FF60619F
:209AA0000623E05E06F03AFA291C05F07DFFA06130B206F033FA291C05F076FFE06170BD3C
:209AC00044050020F8B5051C0F1C161C0024B44208D02B68395D1B68281C9847002801D038
:209AE0000134F4E7201CF8BD704708B5183001F0ADF808BD08B5183001F0B6F808BD08B528
:209B0000183001F0B7F808BD38B5041C00690D1C01F0CAF900280ED0A37D002B10D0603480
:209B2000201C01F0B0F800280AD1201C291C01F07EF8012005E02069291C01F0A9F900E01E
:209B4000002038BDF7B50193FA239B0083600B4B00250833041C4560036018300F1C161C92
:209B600001F05AF8201C603001F056F8019B27612675A575201C6375FEBDC0469028010030
:209B800070B50D49041C006901F052FA206901F003F91826207D331C4343084D0821EB18DD
:209BA000595600F033FF607D08214643AD19695600F02CFF70BDC046A0860100B82801006A
:209BC000F7B5041C0020151C0193824231D02069012201F01DF9061C2069002E24D001F09E
:209BE0008EF9271C1837011C381C01F020F801262069AE420ED001F0EBF80221206901F0E3
:209C0000F1F8206901F07BF9011C381C01F00FF80136EDE701F0D4F8019B002B08D0206914
:209C2000032101F0DFF803E0032101F0DBF8351CE8B2FEBD08B50123FFF7C2FF08BD10B5A5
:209C4000031CA833041C1970603000F0FBFF0123A37510BDF8B50022031C8275A833041CFE
:209C60000F1C0069197801F0D3F8002805D12069032101F0B7F802251DE0261C6036301C70
:209C800000F0F2FF00280FD0301C256900F0DEFFC1B2281C01F0EBF80028EED12069032116
:209CA00001F0A0F8032506E0051C002F03D02069032101F097F8281CF8BD08B50121FFF7EF
:209CC000C9FF08BD38B5041C006901F0F6F8002863D0206901F0FFF800280ED1206901F055
:209CE00004F900281FD0206901F0FAF800281AD0206901F0FFF8002815D1206901F068F879
:209D00002069032101F06EF8231CB0331D68002D04D02368201C9B689847A847201C18307B
:209D200000F090FF39E0206901F0DFF8031C2069002B15D001F04CF82069032101F052F865
:209D4000206901F0D7F8002827D0206901F0BEF80028FAD0AC342368002B1ED098471CE01A
:209D600001F0B4F8002818D0251C1835281C00F08AFF031C2069002B02D001F021F808E054
:209D800001F0BDF8011C281C00F051FF206901F01FF82069032101F025F838BD08B5024834
:209DA000FFF790FF08BDC0464405002008B50348034910221123FFF7C5FE08BD4405002049
:209DC0007007002070B5061C00687F2403680D1C1B68214098473068E911036821401B6862
:209DE000984770BD08B50068F02103681B68984708BD08B50068F72103681B68984708BDC0
:209E000010B5041C0068F92103681B6898472068032103681B6898472068012103681B68FD
:209E2000984710BD08B50160FFF7EAFF08BD38B50379041C002B17D00068A26803681178B3
:209E40001B6898472068A268036851781B68984702252379AB4207D9A368201C595D0135B5
:209E6000FFF7B0FFEDB2F4E738BD0000F7B50C1C051C081C1849171C019308F093F92F21B9
:209E8000061C201C08F07DF9002805D1201C5C2108F077F9002800D0441C002E05D1201C3F
:209EA00008F054F90230287102E0361B02362E71A86807F0F7FF2E79701C07F0E9FF002356
:209EC000A8608355019B077043702A79211C023A023008F042F9F7BDB028010008B50068A9
:209EE00003689B68984708BDF8B5C37B712B02D0792B37D02AE0031CB0331968002931D095
:209F0000203B1C68013CE30F1C196410E7B20023DAB255000135EDB2BA420DD245190132AC
:209F2000EE7B5200C518D2B2EE738218D27B0133D201B618EE73EBE7E3B2C3189A7B002A06
:209F400001D00022DA730F3088470BE0021CB4321468002C06D090300168A43A0139C9B28A
:209F6000181CA047F8BD38B5041C0068151C03680F221140E02211431B689847291C201C45
:209F8000FFF720FF38BD38B5041C0068151C03680F221140902211431B68984720687F2194
:209FA000036829401B6898472068ED110368E9B21B68984738BDF8B5041C0D1C1E1C171C25
:209FC000FFF710FF2068291C0368351C1B689847AB1BDBB2BB4205D22978201CFFF7F2FEA7
:209FE0000135F5E7201CFFF704FFF8BD70B5061C101C0D1C141C08F0A9F8291CC2B2231C08
:20A00000301CFFF7D8FF70BD08B50A1C7121FFF7EDFF08BD08B5006803681B68984708BD27
:20A02000D02910D005D890290BD09C30C0290FD00FE0F42909D0F52909D09430E02908D1C0
:20A0400006E0983004E0A03002E0A43000E0A83002607047FF2901D1AC3002607047B43044
:20A060000260704708B5002303734373837301330022812B02D0C1188A73F8E7031C8F335B
:20A080001A70AC3001331A600368934200D0984708BD10B50023041C03718360FFF7E2FFC2
:20A0A000201C10BD10B5041C00680368DB689847231C8F331A78002A0FD0F72805D100220A
:20A0C0001A70201CFFF710FF7BE0231C90331A68A4180132E0731A6073E0227B002A3ED0F2
:20A0E0007F283CDC531EDBB2E2182373D073002B67D1637B002B64D0D02B25D006D8902BA7
:20A100000DD0C02B28D1231C9C331FE0F42B11D0F52B12D0E02B1FD1231C943301E0231C4E
:20A1200098331B68002B17D0E17B227CC901A07B891810E0231CA43301E0231CA8331B68BB
:20A14000002B09D0207C05E0231CA0331B68002B02D0A07BE17B98470023637331E0EF2871
:20A1600004DC0F220240A273F0221040F0281FD00ADCC02818D002DC902813D021E0D028E6
:20A1800012D0E0280ED01CE0F92817D004DC031CF43B012B06D914E0FF2812D1201CFFF78A
:20A1A00061FF0EE0022300E001232373607308E001221A7090340023236002E00148FFF79F
:20A1C0001FFE10BDF805002008B50248FFF761FF08BDC046F805002038B5134D1349281C46
:20A1E00000F05BFD1249134800F057FD1249134800F053FD1249134800F04FFD124913487F
:20A2000000F04BFD124C1349201C00F046FD291C24222323104801F037F9211C0022012310
:20A220000E4801F031F938BD74070020001C0042000C004278070020001000427C070020DD
:20A24000001400427007002000180042800700208407002000080042B0060020100700200E
:20A26000014B18687047C0468807002070B5041E09D0054B1D681E1C00F0D2F83268631EA2
:20A28000521B9A42F8D970BD88070020024B1A6801321A607047C0468807002000000000E0
:20A2A00010B5041E00D18AE014281BD801280AD002280AD003280AD004280AD005280AD034
:20A2C0000B235C4308E0022406E00C2404E0182402E0242400E02D2400230133A342FCD901
:20A2E000C0466CE007F078FC3F4B9C420BD8354B334A06F045FE04F0EFFF153C80B2272C68
:20A3000059D83A4B58E03A4BE2183A4B9A420CD82C4B2B4A06F034FE2B4A2C4B06F030FE67
:20A3200004F0DAFF802280B210E0334BE218334B9A420DD8234B224A06F022FE244A254B07
:20A3400006F01EFE04F0C8FFC02280B292001EE02B4BE4182B4B9C420CD81A4B184A06F025
:20A360000FFE1D4A1D4B06F00BFE04F0B5FF802280B20BE0134B124A06F002FE184A194B25
:20A3800006F0FEFD04F0A8FFA02280B2D2001E491E4B59801E4B02211C888C431C801C8883
:20A3A00022431A801B4A5A801A88114319801A8A8242FCD303E0184BC0180022E7E710BDBE
:20A3C0000000000000004840000000000000D03F000000000000C03F000000000000B03FF8
:20A3E000000000000000903F5305000077FCFFFFACFAFFFF01100000AAEAFFFF5415000015
:20A4000055D5FFFFAA2A00001C400000000C0040003000420240000067FCFFFFC046C04677
:20A420007047FEE708B5034B1B68002B00D0984708BDC0468C0700205149F8B508230B60BD
:20A440005049514A0B6080210905916091614F491E2248684E4D9043022210434860A969A4
:20A460004C4C0B43AB614C4B0120A382A38A011C1A43A282002600F08DFA301CE36899076E
:20A480000ED4FA218900471C04F028FE002905D1311C012000F01CFB01235E40381CEDE75B
:20A4A0000120011C00F014FB3C4B01221A701A78D00704D5394A527852B2002AF7DB012279
:20A4C0009A605A7852B2002AFBDB3549334A51605A7852B2002AFBDB8221304AC901518072
:20A4E0005A7852B2002AFBDBA28C80218A43A284E268D106FCD52B49264AD162E168254A03
:20A50000C806FBD5918C284801439184E168214AC806FBD5918C022001439184E26811066C
:20A52000FCD51C4AD2685006F8D5E268D106FCD500229A605A7852B2002AFBDB1B49174ADE
:20A5400051605978154A49B20029FADB206A184901402162216A80208143216203219160EB
:20A56000144951605A7852B2002AFBDB00232B72114A6B72AB72EB72104B1A60F8BDC046F5
:20A580008844004198440041004400410040004100040040000800400C040000000C0040A3
:20A5A00001050100B805FF7D040A000000070300FFFCFFFF03060100006CDC02EC000020EA
:20A5C00038B51049104CA14206D107F03BFCFFF733FF00F0BDFA0BE00C4D8D42F5D0002327
:20A5E000CA18E818A24204D2006804331060F7E7FEE79042E9D0064B064A9342E5D2002213
:20A6000004C3F9E700000020E40100208C330100E4010020600E0020014B18607047C0469A
:20A620008C070020274BFA21186810B5890004F011FD254B013898421DD8244B244A5860FD
:20A64000106AC0210002000A090601431162002407229C601A601F4BFC211A6A0A431A6236
:20A66000196AFF2212020A431A62196AA022D2020A431A6200E0FEE7201C0021013400F030
:20A6800089F9132CF8D1144B144AA4215380144BC900998013491961112199703F21D970E0
:20A6A00002215970187801431970597EC9090129FBD00D4B53800D4B41225A700C4A1A8112
:20A6C00010BDC046EC000020FFFFFF0010E000E000ED00E0000400401E400000000C004013
:20A6E000004000420018000F2140000000480042FF0300001A4A022113788B431370517E92
:20A70000174BC9090129FAD0012816D000280AD002281CD1186913490140196159780F2051
:20A720008143032011E01869F02109050143196159780F208143022007E018690949014002
:20A74000196159780F20814300E001435970137802210B431370537EDB09012BFBD07047EC
:20A7600000400042FFFFFFF038B5182343431A4D0821EB185956041C00F048F9182C04D110
:20A78000164B02211A788A431A7018235C43144B2D1918691F22297C90431140021C0A43D7
:20A7A0001A611A7B02210A431A73187E01210C4A0842FAD0507EC0098842F6D0508B147ED6
:20A7C00080B2214311765A7ED209012AFBD0044A127BD107F7D438BDB828010000480042D5
:20A7E0000040004218234343F7B55D4A061CD318DB680F1C980719D5182E17D1594B1B6866
:20A800000A2B06D002D90A3BDF4002E00A22D31A9F40BB059A0D544B02211A811A780A4371
:20A820001A70DA79D209012AFBD098E008221340019300D188E018237343494AD318197AA6
:20A840000B1F012B03D849B2301C00F0DFF818235E43434B9E191222B05E072833D00EDC3A
:20A8600004282CD004DC002829D0012829D033E0052826D006282FD13C4C02252CE08023CB
:20A880009B00984224D009DC80235B0098421DD00223FF3398421FD1354C1CE0C0239B0089
:20A8A000984207D0334B984207D0334B984213D1324C10E0002501230FE00125FBE72B4C57
:20A8C00007E02A4C07E0294C032505E0284C00E02A4C002500E001250023001205280BD878
:20A8E000274A04F0A3FB030305050707254902E0254900E0254951800222002B14D0244BB8
:20A9000004201988ED18914319801988014319801988402001431980F9B22976FF211975AC
:20A9200019880A431A801AE02368103593432360E36BAD001343E3636519FF236F602364DF
