:1040000000800020994A0000814A0000814A000097
:1040100000000000000000000000000000000000A0
:10402000000000000000000000000000814A0000C5
:104030000000000000000000814A0000ED4A00007E
:10404000814A0000814A0000814A0000814A000044
:10405000814A0000814A0000814A0000854A000030
:10406000814A0000CD490000814A0000814A0000D9
:10407000814A0000814A0000DD490000814A0000B9
:10408000814A0000814A0000814A00003547000053
:1040900029580000814A0000814A0000814A00003E
:1040A000814A0000814A0000814A0000814A0000E4
:1040B0000000000010B5064C2378002B07D1054BFB
:1040C000002B02D0044800E000BF0123237010BD84
:1040D000C800002000000000007F0000044B10B565
:1040E000002B03D00349044800E000BF10BDC046C8
:1040F00000000000CC000020007F000010B504008C
:1041000000210C2001F05EF800210A2001F05AF88D
:1041100000210D2001F056F82100122001F052F884
:1041200010BD70B50C00002813D0012810D1FFF786
:10413000E5FF0A250C260121280000F0F7FF211ECB
:104140000ADB300000F008FF0021280001F03AF8F7
:1041500070BD05250426EEE7FF31300000F0FCFEBF
:104160000121F2E770B5084D46008CB2715D012067
:104170006143AD1909B2FFF7D4FF697800206143AC
:1041800009B2FFF7CEFF70BD5C790000F8B50500FD
:104190000F0016000D2802D10120FFF7AFFF032406
:1041A0006C43094B1C19200000F006FC002802D0CB
:1041B000200000F097FB32003900280001F06CFA73
:1041C000300000F0D1FCF8BD19010020054B064974
:1041D0001B5C0433DBB2CA185278C85C120210436D
:1041E00000B2704743010020E500002010B5002414
:1041F00003480019033400F0A7FA2A2CF8D110BDA7
:104200001901002010B50121122000F08FFF0121BB
:10421000122000F0D7FFE1210448490202F0D2FD4C
:104220000349044801F0A4F810BDC046B8010020BD
:10423000687900007406002070B505000A4CFF2163
:10424000200001F06AFB5521200001F066FB0221ED
:10425000200001F062FB0121200001F05EFB29003B
:10426000200001F05AFB70BD7406002010B5074C09
:10427000FF21200001F051FB5521200001F04DFBF2
:104280000021200001F049FB10BDC046740600204B
:10429000F0B5B84F85B0380001F03CFC002800DCD8
:1042A0005AE1380001F072FCB34BB3491A78B34DB0
:1042B000531CC0B2DBB2A8540B70B14A022B59D0C8
:1042C000032B5AD0012B07D103331370FF2800D1E1
:1042D0003BE10023A8490B7013780293A64B029A86
:1042E0001B78934200D230E1EB780193172B00D971
:1042F00028E1A44E10220021300003F088F9019B30
:104300001A01A14BD318039300231C000093039BB5
:10431000009A9B5C002B13D09A4A00998C54462B30
:1043200034D02DD8422B33D0442B36D0029AE31C04
:10433000934200DB06E1009B01330093102BE6D192
:1043400001980138122800D9FCE002F09FFF3000EC
:104350003B004600FB005C008100810081004701BA
:10436000FB009100BC00D300FB00EA000701210123
:10437000470154015528ACD1AEE703301070ABE7CC
:10438000532B08D0732B0AD04C2BCFD1043400E030
:104390000134A4B2CAE70234FBE70834F9E7774BEB
:1043A000201D181803F0F6F901342418F1E773788A
:1043B000EB1819793378ED182879FFF7D3FEFFF75A
:1043C00055FFBFE00120FFF701FF6E4B01001B7896
:1043D000ED182879FFF7A5FEF1E700210800FFF7A7
:1043E000C1FE0024032633006343684DED18280006
:1043F00000F0E2FA002802D0280000F073FA01343D
:104400000E2CF0D1DBE75F495C4B0A789A181579DE
:104410000D2DD4D803244A786C439B181E795B4B2E
:104420001C19200000F0C8FA002807D1012128003B
:1044300000F07CFE2900200000F04CFA0D2D02D186
:104440000120FFF75BFE3100200000F093FAB6E791
:104450000120FFF7BBFE04000220FFF7B7FE494B27
:1044600082B21B78A1B2ED182879FFF78FFEA6E77C
:1044700033780121ED180A202C7900F057FE012134
:104480000C2000F053FE01210D2000F04FFE002C07
:1044900015D00020FFF732FE07214C4001252100F6
:1044A0000A20294000F08EFE611029400C2000F007
:1044B00089FE0D20A110294000F084FE7FE7012035
:1044C000FFF71CFE7BE7032433781520ED182979CC
:1044D00001254C40012100F029FE0121142000F0AB
:1044E00025FE21001520294000F06CFE61102940B6
:1044F0001420E1E705243378ED18297901254C4093
:104500000121080000F012FE0121002000F00EFE43
:1045100021002800294000F055FEA110294000206C
:10452000CAE733780221EB18187900F0FFFD3378E1
:10453000ED18287900F072FE030001205840C0B247
:10454000FFF77AFE00230C4A13700B4B1B78332BBA
:1045500002D90023084A137005B0F0BD337800215A
:10456000EB18187900F0E2FD3378ED18287900F0A7
:1045700055FEE4E774060020E4000020E50000207A
:104580000000002043010020DC770000190100201A
:1045900033780021EB18187900F0C8FD3378ED1856
:1045A000287900F06DFC0400FF21380001F0B5F916
:1045B0005521380001F0B1F90321380001F0ADF9BF
:1045C0000221380001F0A9F9E1B23800241201F00B
:1045D000A4F9E1B2380001F0A0F9B3E73378012182
:1045E000EB18187900F0A2FD7378EB18197933787D
:1045F000ED18287960E733780121EB18187900F07D
:1046000095FD7378EB1819793378ED18287900F057
:10461000A3FCD4E6F7B50C27404E0193335C0400AD
:104620005BB20D0000924743002B2EDA00230B8271
:10463000EB7BDB09FCD1335D394A01335BB2335587
:10464000335D12785BB2DB19934203DA335D5BB200
:104650000B2B34DD2F8ABFB2EB7BDB09FCD1314B56
:104660003149186802F01CFE304B04375843009B58
:1046700000090C3387424DD280B25B005853EB7B6C
:10468000DB09FCD1FF33335540E0335C244A5BB295
:104690001278DB199342CEDA335C254A5BB2DB1920
:1046A000DB009B5C5B06C6D5335C00215BB2DB198B
:1046B000DB00985C8006800E00F084FDBBE7335D74
:1046C0001B4A5BB2DB19DB009B5C5B0609D5335DE3
:1046D00001215BB2DB19DB00985C8006800E00F0E4
:1046E00071FD2A8A92B2EB7BDB09FCD1335D5BB2B0
:1046F000DF190F4BFF00DF197B68D318009A9BB2BC
:104700000C3252005353EB7BDB09FCD16B461B7917
:10471000AB73F7BDBFB25B005F53B0E7540100203D
:10472000530100201C00002040420F00204E0000DA
:1047300058010020002210B5102302491000FFF795
:1047400069FF10BD0030004270B50C4B05001C78AD
:104750000B2C10D8621C1A70094B04701868094998
:1047600002F09EFD084BE4005843084B00091C1959
:104770006060280070BDFF230370FAE7530100203A
:104780001C00002040420F00DC0500005801002002
:10479000F7B50193037804000E0017000B2B00D926
:1047A00086E03000012100F0C1FC3F21320020787A
:1047B000404DC3005E5D0A408E4316435E5588231C
:1047C000032296219B00DB1BDF171740FF18019B7C
:1047D0000901C91ACB1713405B189B10BF10A370B7
:1047E00067700C2102F05CFD0C23C0B243431A0039
:1047F0000C32D900695C490654D401339342F8D194
:1048000000284FD12C4B2D4A5A805A78D209FCD11E
:104810002B4E0232338893433380F37BDB09FCD188
:1048200001333380F37BDB09FCD13388DB07FCD415
:1048300033889BB2338040233288134333808023F4
:104840003288DB0013433380012332791343337101
:10485000F37BDB09FCD11B4B1B49186802F020FDE0
:104860000300FA2080005843000980B23083F37BB4
:10487000DB09FCD18021154B0903D967C023C42073
:10488000134A5B00D150800013581B021B0A1350BF
:1048900010231160737332880E3B13433380F37B14
:1048A000DB09FCD140222378DB00E95C0A43EA54AF
:1048B0002078FEBD58010020000C00401C40000084
:1048C000003000421C00002040420F0004E100E0E4
:1048D00000E100E09623882210B51B019200FFF74B
:1048E00057FF10BD4021007810B50C4CC200135D7D
:1048F0008B431355343902F0D3FCC3B20C20584318
:1049000003000C33C200A25C520605D40130984269
:10491000F8D11022024B1A7310BDC0465801002076
:104920000030004270B505780B2D1BD80123882478
:10493000C356E41AA4008C4208DC96248078A400B4
:1049400040B2241AA4008C4200DD0C00064B07493B
:10495000186802F0A5FC053C6043054BED0000091A
:104960005D19686070BDC0461C00002040420F0009
:10497000580100200F4B13B50400994216DCB420F7
:10498000B42902DCC843C017084001228823A2567C
:1049900002219B1A962261569200521A92000092AE
:1049A00000219B00B42202F033FC01002000FFF73D
:1049B000B9FF13BD1F0200000378034ADB00985CB7
:1049C0004006C00F7047C0465801002010B502488D
:1049D00002F037FB10BDC046F403002010B50248BA
:1049E00002F02FFB10BDC046B8010020F7B501242E
:1049F0000326154F1549380000F012FD14491548DB
:104A000000F00EFD1449154800F00AFD1449154840
:104A100000F006FD1449154800F002FD144D15493B
:104A2000280000F0FDFC39000096230001940022CC
:104A3000114802F09BFA00962900019423232422B6
:104A40000E4802F093FAF7BD30060020000800423D
:104A5000000C0042340600200010004238060020FE
:104A6000001400423C0600200018004240060020CE
:104A700044060020001C0042F4030020B80100207E
:104A8000FEE70000034B10B51B68002B00D09847D1
:104A900010BDC0464806002070B50F490F4CA1421A
:104AA00004D100F089F802F0BFFBFEE70C4D0023B3
:104AB0008D42F6D0CA18E818A24205D3094B8242AB
:104AC000EFD00949002204E0006804331060F1E7E8
:104AD00004C38B42FCD3E4E700000020C4000020A4
:104AE000047F0000C8000020A80C002010B500F0D2
:104AF00060F8002801D100F051F810BD014B18609A
:104B00007047C04648060020F7B513480122844686
:104B10001249134C8E68636805689B0E134001921E
:104B200088686268019F920E3A4067463F689342E8
:104B30000ED1BD420CD186420AD35B19FA254868D2
:104B4000AD00861B07486B437043000DC018FEBDC7
:104B50003D0013000600E3E74C06002010E000E0F3
:104B600000ED00E05555000070B5041E10D0FFF7B1
:104B7000CBFF050000F01CF8FFF7C6FF054B401BFC
:104B80009842F7D9FA23013C9B00ED18002CF3D191
:104B900070BDC046E70300007047000010B5034A2F
:104BA00013680133136000F0FFFB10BD4C060020BA
:104BB00070470020704700001E2270B546484749E4
:104BC000436893431C3A1343436008238C6923438F
:104BD0008B61434C434B9C829C8A14439C82DC68CF
:104BE0001442FCD00124404A14701578254203D0A9
:104BF00055786DB2002DF8DB01249460547864B2CE
:104C0000002CFBDB394C5460547864B2002CFBDB85
:104C10008224E4015480547864B2002CFBDB02242B
:104C20009C840E34DD682542FCD0314CDC621024BB
:104C3000DD682542FCD09D8C2E4C2C439C84102496
:104C4000DD682542FCD002249D8C80262C439C8468
:104C50004024DD683542FCD0DD682542F9D01024BF
:104C6000DD682542FCD000249460547864B2002CA6
:104C7000FBDB214C5460547864B2002CFBDB1C6AD3
:104C80001E4D2C4080251C621C6AAC431C62032311
:104C900093601B4B536053785BB2002BFBDB00230C
:104CA000FF240B72174A4B728B72CB72164B1A6031
:104CB000164B174A1B6811689A065B01C90E234000
:104CC000520F12020B431343124A1385802342688A
:104CD0001343436070BDC0460040004100040040E3
:104CE0000C06000000080040000C00400105010017
:104CF000B905FF7D040A000000070300FFFCFFFF69
:104D000003060100006CDC021C000020246080000F
:104D10002060800000400042FA21314B10B5186835
:104D2000890002F0BDFA2F4B0138984256D82E491F
:104D30002E4A4860C020136A00061B021B0A034368
:104D40001362002407238C600B608021136A09061C
:104D50001B021B0A0B431362FC22254B196A0A43F0
:104D60001A62FC22196A92010A431A62A022196A85
:104D7000D2020A431A6220000021013400F0D6F961
:104D8000132CF8D11B4B1C005A7852B2002AFBDBC3
:104D9000194A5A80194B1A00597EC9090129FBD0BA
:104DA000E421C90099803F21D970537EDB09012B92
:104DB000FBD0C02300205B011361907000F02EF83F
:104DC00063785BB2002BFBDB0D4B0E4A6380D3791B
:104DD000DB09012BFBD04123537010BDFEE7C04619
:104DE0001C000020FFFFFF0010E000E000ED00E0ED
:104DF00000040040000C00401E4000000040004243
:104E00002140000000480042914202D002D98A1A93
:104E1000D0407047521A9040FBE70000164A00B598
:104E20001300517EC9090129FBD00138042816D886
:104E30001969124A0A400F211A615A788A4302F00E
:104E40001BFA0308060B0300110001220A435A70E3
:104E500000BD11000322F9E711000222F6E7F0235A
:104E600011691B050B430F21136153788B43190004
:104E700002230B435370EBE700400042FFFFFFF0BB
:104E800010B50400172800D818340121200000F0C4
:104E9000DDF91823102163432A4CE41861560029D8
:104EA00001D014290DD1284B1800DA79D209012A32
:104EB000FBD002241A78A2431A70C379DB09012BB4
:104EC000FBD022480300427ED209012AFBD01F24D6
:104ED00002692140A2430A4302615A7ED209012A93
:104EE000FBD0022219780A431A705A7ED209012A8D
:104EF000FBD00222197B0A431A731A7ED207FCD513
:104F000001221A765A7ED209012AFBD00222197B8D
:104F10000A431A731A7ED207FCD5588B80B25A7E88
:104F2000D209012AFBD002211A788A431A705A7ECC
:104F3000D209012AFBD0064B1A68064B1968FFF705
:104F400063FF10BD7C790000004800420040004231
:104F5000240000202000002018234343F0B56A4AB3
:104F600087B09B18DA6806000C000092920722D5E1
:104F70001B7C5BB2002B01D0142B1AD1634B0A228D
:104F800019682000FFF740FF614A1300D179C90971
:104F90000129FBD08005800D1081DA79D209012A20
:104FA000FBD0022219780A431A70DA79D209012A51
:104FB000FBD007B0F0BD0827009A544D3A4001924B
:104FC00000D191E012229B5E2968200010220193FB
:104FD000FFF71AFF019B05001F126B461C79009B0F
:104FE0000421DB0600D40521300000F02FF9494BE5
:104FF000BA00D658484BDA5D002A54D10132DA554E
:1050000046490F3202A802F0F9FA02AA7B009B5A25
:105010008022D2011A43424B5A805A78D209012A7F
:10502000FBD0022297421BD9338893433380F37B12
:10503000DB09FCD13288403313433380F37BDB0937
:10504000FCD10C34ADB26400A553F37BDB09FCD179
:105050003288023313433380F37BDB09FCD1A8E7AA
:10506000336893432F4A33601300B1681142FCD177
:105070000222F16B0A43F263B2681A42FCD1103487
:10508000A40034196560B2681A42FCD1264A326421
:10509000B2681A42FCD1022231680A433260B26817
:1050A0001A42FCD185E7022F07D90C34ADB2640057
:1050B000A553F37BDB09FCD17BE702237279134311
:1050C0007371184B1A00B1681942FCD11C34A4004A
:1050D000A551B3681342FCD1022331790B433371DC
:1050E000B3681342FCD164E7012100F01FF829687E
:1050F0003A002000FFF788FE01997F2800D901219E
:10510000300000F05FF854E77C79000028000020B0
:10511000004800420400002050060020FC7D0000F2
:10512000000C0040FF0F7F00FFFF0000182330B588
:105130001D00040045430820204A55192856013017
:1051400014D0032912D808006343D156D31802F0B3
:1051500093F802280E1B5868CB010221184A9B18AD
:105160001A1840321170012282405A6030BD5868CE
:10517000CB010621124A9B181A18403211700122E5
:1051800082405A609A61F1E75868CB0106210C4AC7
:105190009B181A1840321170012282405A605A61DD
:1051A000E4E75868CB010221054A9B181A184032DF
:1051B0001170012282409A60D8E7C0467C790000D5
:1051C000004400411823F0B508245843114A13182D
:1051D0001C5701341BD0012635005F688356BD4043
:1051E0000D4ADB019A18906805420BD10C00601E35
:1051F0008441D2194032107834400336A400B043C1
:1052000020431070044A9B18002901D15D61F0BD54
:105210009D61FCE77C79000000440041182310B533
:105220000824434307490020CA181457013408D002
:105230005B560549DB015B18186A5368D8400123A7
:10524000184010BD7C790000004400411822424300
:10525000F8B52C4E0300B218127A52B21400013283
:105260000ED0481C00240C280AD802F005F8071FAD
:105270001F1F1F1F1F1F1F0B0B0B0B00012464425E
:105280002000F8BD092905D100211800FFF74EFFC5
:105290000024F5E70A2901D10839F6E700240B2993
:1052A000EED10A391800FFF741FFE9E7182253430E
:1052B000F218556801202C00F356134ADB016E08E2
:1052C0009B18C9B204409E19002C0DD00F24303613
:1052D0003278090122401143C9B25B193170403361
:1052E0001A7810431870D3E732000F27303216783F
:1052F0005B19BE433143117040331A781043187064
:10530000BEE7C0467C79000000440041F7B50600C6
:105310000D000C008B180193019B671B9C4207D06A
:10532000336821781B683000984701340028F3D196
:105330003800FEBD70B5040008000D0002F02AFA26
:105340002368020029005B682000984770BD10B5F3
:105350000B1E02D0FFF7EEFF0300180010BD000087
:1053600010B50249FFF7E6FF10BDC0460C7E0000F5
:1053700070B50400FFF7EBFF05002000FFF7F0FF1A
:10538000401970BD10B50400FFF706FC014B1C600E
:1053900010BDC0462C0000200122024B52421A6070
:1053A0007047C0462C000020164A10B51368591CDF
:1053B00026D0013B1360002B22D172B6124B134A48
:1053C0000433934213D9124A01211000147D0C4278
:1053D000FCD02021148BFF319B085B0021431183FB
:1053E000D3610C4B13800123027D1A42FCD0BFF322
:1053F0004F8F094B094ADA60BFF34F8FC046FDE774
:1054000010BDC0462C000020004000000302000038
:105410000040004102A5FFFF00ED00E00400FA0596
:10542000016070479446F0B59E1E721E964162461A
:10543000056892072F6836063A4332432A600725EB
:1054400005AC24780068A401294021434268002467
:10545000022B00D05C03114321434160F0BD30B505
:10546000C0250368AD031C6812052A402243C024EE
:105470000904A40221401143196003685A681443C7
:105480005C6030BD0123026811680B431360036840
:105490001A68D207FCD4DA69D207F9D4704702231C
:1054A000026811680B4313600268D3699B07FCD440
:1054B000704703681A7ED20702D41A7E9207FCD581
:1054C0007047002203685A8370470368187E4007BC
:1054D000C00F70470368187EC009704780230268B8
:1054E0005B42117E0B43137670470368588B80072D
:1054F000C00F704702230268518B0B4353837047E0
:105500000368187EC007C00F70470368188DC0B2CB
:10551000704703681A7ED207FCD589B2012019852D
:105520007047012203689A757047012203681A7553
:10553000704700000368214A30B593422FD0204ABB
:1055400093422FD01F4A93422FD01F4A93422FD00D
:105550001E4A93422FD01E4A93421FD10E23192276
:105560000121032599401B48C024016099082B4064
:10557000AB40FC359D4089000918A4000859A84398
:10558000C0259D402B0003430B518023DB011A43B0
:10559000114B5A805A7852B2002AFBDB30BD0923E6
:1055A0001422DDE70A231522DAE70B231622D7E7B8
:1055B0000C231722D4E70D231822D1E7000800425C
:1055C000000C00420010004200140042001800428B
:1055D000001C004200E100E0000C0040F8B50400AF
:1055E0000F0016001D00FFF7A5FF2000FFF74AFF80
:1055F0001C21BB000B4071072268090C0B43136090
:10560000842322689375012F1AD11021012E00D016
:1056100008390C4B69431868C00001F041FE0722AD
:10562000216802408B895203DB04DB0C13438B811E
:10563000226803049089DB0C400B400318439081DF
:10564000F8BDC0461C0000200221084B1A888A437E
:105650001A80DA7BD209FCD101321A80DA7BD209B6
:10566000FCD11A88D207FCD47047C04600340042EF
:10567000074B10B51B780400002B08D0FFF7E4FFA0
:1056800000212000FFF79EFD0022024B1A7010BD82
:1056900056060020700600208023F7B50192504A7C
:1056A0005B030091D367C0224E4D5200AB504E4B6E
:1056B00006001A78002A0DD101321A70C522FF2186
:1056C0009200AB588B43AB50484B494A5A805A78AA
:1056D000D209FCD1474B1B78002B05D0464B1868EC
:1056E000B04201D0FFF7C4FF444B0099186801F0A5
:1056F000D7FD434A002394460427441E64450FD92E
:10570000040019005A1CD440B943C9B2013C032912
:1057100002D0D2B2062A01D10233DAB21300EDE789
:10572000013B0027092B02D8364A5B009F5A019B98
:10573000002B51D0FA215800009B890043431800E8
:1057400001F0AEFD002302002F490A604B60FFF715
:105750007BFF20232D4A11880B431F43178017001E
:10576000FB7BDB09FCD1A4B23C83F97BC909FCD1EA
:105770001820274C7043A446264B274CC356DB0108
:105780009C4462462260254A254C9B1823600124D4
:10579000204B1A18536822009A40224B1A6010239B
:1057A0007A7B13437B73144B1A68B24209D03000E2
:1057B0001E60FFF707FD21003000FFF7B7FC0D4B1F
:1057C0001C7002233A8813433B80FB7BDB09FCD12E
:1057D00080235B032B60F7BD01225242D317B3E74E
:1057E00004E100E000E100E056060020000C00406B
:1057F0001C40000070060020300000203400002013
:10580000FFFF0000107E0000680600200034004208
:105810001C4400417C7900006006002014440041D3
:105820005C06002058060020154B70B518685968B2
:105830000500144C0D4319D0134A216812681160F9
:1058400018685968002902DC0AD1002808D01868B5
:10585000596801246442E5170019694118605960CC
:1058600010230A4A917B0B43937370BDFFF7ECFE44
:10587000074B22681B681A60064B1D70F5E7C0468F
:105880006806002058060020600600200034004210
:105890005C060020700600200020704770B50F26BF
:1058A000CB1D013902003240D5B22C000009303442
:1058B000092A00DD07341C70013B8B42F2D170BD18
:1058C00010B50C000B4B1868FFF7E8FF21000A4BDE
:1058D00008311868FFF7E2FF2100084B1031186803
:1058E000FFF7DCFF2100064B18311868FFF7D6FFE1
:1058F000202010BD0CA0800040A0800044A08000AB
:1059000048A0800008B4024B9C46103808BC604791
:10591000C158000070473F20704713B56B460268BE
:10592000D9710733546819000122A04716BD000041
:1059300070B50A260B7892B06E44023305000B70E6
:105940003C220021300001F062FE394801AC069093
:10595000384824210790062020776846364AA174EB
:105960002281364A364BA281FD3AFF3A8018C17730
:10597000684623390630C17768460730C17702A8E8
:10598000C1770720F277032608316944C87703A955
:10599000CE7710212B366E443170092621851F31B8
:1059A00069440E700CA9053E0E703321238002233A
:1059B00069440B7006360DA90E7022493536A18652
:1059C0003B216E44307010A86274E27702703D3261
:1059D00069446A440B70137040210022E370237104
:1059E0006371A37341336B44218719705A702B7D07
:1059F000C039A370A37263770133DBB2A3776A7DEA
:105A00000B200D0068441543C577312068440370AE
:105A10003A23501C6B441870412302320A436B44F2
:105A20001A7021004222084800F082FF12B070BDB7
:105A300010010424020605240904000001020000EC
:105A4000080B000007050000DC06002008B4024B2C
:105A50009C46103808BC60473159000070B5027D83
:105A60000B790C0000259A420BD10B784E78A12BB4
:105A700009D1212E05D107221F49204800F058FFE7
:105A80000135280070BD212BFBD1202E2BD1072200
:105A900019491A4800F082FE174B1A785978090202
:105AA00011439A7812041143DA7812060A439621B8
:105AB000C9008A421DD1DB79DB071AD4FA20FFF72F
:105AC00061FC00210D4801F03FF80125232ED8D1BB
:105AD000E378A2781B021343094A002107481360A8
:105AE00001F032F8CDE7222EEFD18A78024BDA713D
:105AF000D2E7FFF751FCE4E73C000020DC06002081
:105B00003800002008B4024B9C46103808BC60479F
:105B10005D5A000010B5417D006A013100F068FD5A
:105B2000034B1B6801335A1E9341181810BDC04621
:105B30004400002010B5417D006A023100F06EFD86
:105B400010BD10B5417D006A023100F035FD10BD79
:105B500070B50D00417D0400130002312A00006A77
:105B600000F030FE002801D10123636070BD000009
:105B700010B5054C23685A1C04D103685B6998472B
:105B800003002060180010BD44000020074A0300F5
:105B9000106810B5411C03D001235B42136010BD97
:105BA000597D186A013100F0BDFDF8E7440000207E
:105BB0007047002070470000FA239B0010B58360F7
:105BC0000F4B0022C3820300283383610D4B040076
:105BD0004260C2611800443323610830631D2162B2
:105BE0002060DA778323A362813BE36280332363FF
:105BF00000F0AEF82100103100F07EF8200010BD5A
:105C000003020000247E0000022110B5094B1A682F
:105C1000437D5B01D318FF339C7A21439972437D06
:105C20000133DBB25B01D3180122FF33997A0A43B7
:105C30009A7210BD940B00207047000010B5024905
:105C40000248FFF7B9FF10BDDC06002074060020F3
:105C500070B50E0000254468002C0BD0236831007D
:105C60005B6820009847002802DB2D18E468F3E702
:105C700001256D42280070BD70B50D004468002CF0
:105C800008D0236829009B6820009847002802D18B
:105C9000E468F4E7200070BD70B50D00002644688C
:105CA000002C09D02368290020001B69984736186A
:105CB0002D18F6B2E468F3E730002C7070BD70B5B3
:105CC0000D004468002C08D0236829001B682000C0
:105CD0009847002802D1E468F4E7200070BD70B551
:105CE0000D004468002C06D023682000DB682900E2
:105CF0009847E468F6E770BDF0B58C794578030005
:105D00002A190020072A1FDC5A68824216D15960DE
:105D10001A78C8790A7112184D711A7000220B4D49
:105D2000D0B284420FD98F6858789600F759860010
:105D30000130775101325870F2E70200D068002834
:105D4000FBD1D160E4E70120F0BDC046B4060020DD
:105D50000121064A10B5136805480B4004D1802480
:105D6000640004804360116010BDC046A806002096
:105D7000AC060020704710B5040001F079FA20004D
:105D800010BD0000F0B5822919D1C3B2294D5A01C6
:105D9000AA189169284C80010C40C0218905214333
:105DA00091612649083340187021506128685B01D1
:105DB0001A5C8A43110030220A431A54F0BD0029AC
:105DC000FCD1C026C1B21B4C4B01E3189A681A4D96
:105DD000B6052A4032439A60194A800182185A60F7
:105DE0000A000727246808325201115DB9430F00E9
:105DF0000121394311559F6910493D4040182E43F8
:105E00009E6158617020115D81430800102101439B
:105E1000115599680B48A218084080214903014395
:105E200099609968890B89039960402311790B4324
:105E30001371C3E7940B0020FFFFFF8F08070020BA
:105E4000C8080020FF3F00F0EFF310830360012338
:105E5000436072B670470368002B02D162B6BFF38D
:105E60006F8F7047F7B50600FC36B3690400002B4E
:105E700018D1B2277F00C55D6846FFF7E5FF019B9B
:105E8000EDB2013B02D3E55DEDB2FAE7684601935E
:105E9000FFF7E1FF002D01D10020FEBD706E336ED3
:105EA000C01AFAE76846FFF7CFFFD8220025019B0A
:105EB0005200013B02D3A55CEDB2FAE768460193BC
:105EC000FFF7C9FF002DE7D0D6235B00E058043B65
:105ED000E358E5E710B54468FC3043690B48DBB292
:105EE0005A01A218916808330840802149030143F0
:105EF000916091685B01890B890391602268D318D6
:105F0000402219790A431A7110BDC046FF3F00F0C4
:105F1000F7B50500FC356B694268DBB21900040077
:105F20000831106849014118C979C90711D55B01C9
:105F3000D21893689B049B0C0CD12000FFF7CAFF7A
:105F400063681A686B69DBB208335B01D3187F2280
:105F5000DA71F7BDE969002923D16B6623000126B8
:105F60006933FF33EE6168465360B227FFF76CFF79
:105F70007F00B221019BFF31013B5A1C38D0D8224F
:105F8000E6555200A25C581ED2B26254625C84464E
:105F9000002A04D120000193FFF79CFFE9E7634644
:105FA000EBE7D621490063500023EB6123001D334A
:105FB000FF3353606846D826FFF746FF0127760077
:105FC000B221019BFF31013B5A1C11D0B222A755CF
:105FD0005200A25C581ED2B26254625C8446002A0F
:105FE00004D120000193FFF775FFE9E76346EBE773
:105FF00068460193FFF72FFFA2E7F7B50600684652
:106000003400FFF721FF0027FF22019BFC34013BF6
:106010000DD3E0682169884204DBE7682069D71B5B
:106020003F18F4E72769E1687F1A013FEFE7684608
:106030000193FFF710FFA3696846002B52D1FFF7C9
:1060400003FFB221019B4900013B5A1C0CD0755C37
:106050005A1EEDB2002D05D168460193FFF7FBFEF5
:106060002800FEBD1300F0E7684601930025FFF706
:10607000F2FEFF22236EBD4214D0616E994211D907
:10608000591CF3182166FF33587FE36821690133F7
:10609000C0B213408B4203D0E16871180872E3600C
:1060A0000135E7E7626E9A42DAD1002323660133B5
:1060B000A3616846B224FFF7C7FE6400B222002144
:1060C000019BFF32013B581CC6D03155B05C5F1EAE
:1060D000002805D0B15430000193FFF7FBFEEDE737
:1060E0003B00F0E7FFF7B0FED821019B4900013BE0
:1060F0005A1C06D0755C5A1EEDB2002DACD01300B0
:10610000F6E768460193FFF7A6FED623D4225B008C
:1061100000259C465200B358BD4203D061467158D9
:10612000994220D86246B2589A4299D1D42200238B
:106130005200B3506846A361D824FFF785FE64007F
:10614000B2220021019BFF32013B581C00D183E7A2
:106150003155B05C5F1E002819D0B1543000019356
:10616000FFF7B8FEECE7591CB150FF21F318693373
:10617000FF331878E368C0B201330B4021698B42CA
:1061800003D0E16871180872E3600135C3E73B0092
:10619000DBE710B50400FFF730FF2300FC3319697B
:1061A000DA68914203D01B69E418207A10BD0120FF
:1061B0004042FBE710B50400FC34FFF71EFFE06827
:1061C0002369C01A01D50130FF3010BDF0B585B08C
:1061D000019200910500FFF710FF02A8FFF734FEBF
:1061E00001200024FF26039B40425A1E531C1FD04F
:1061F0002B00FC3301998C4218D2D9681F69C91B46
:1062000001D50131FF31002910D01969DF688C46B2
:106210000100BC4506D019691F696918013737406C
:10622000097A1F61009F39550134E3E7013ADDE740
:1062300002A80392FFF70FFE200005B0F0BD37B5AE
:106240006B46DC1D00230D002370FFF781FD21004C
:10625000FFF7FEFC2B681818286020783EBD000070
:10626000F7B500244B4B012105001F201C70FEF7E1
:106270005DFF01211F20FEF7A5FF474B01211E20D6
:106280001C70FEF753FF01211E20FEF79BFF202309
:10629000424A0F20D1690B43D361012240490B7858
:1062A00013430B703F4B19788143197006211C78FA
:1062B000214319703C490C7822430A701A78024035
:1062C0001A70602219780A431A70384B384A5A807B
:1062D0005F78FF09FCD13748FEF710FC0123364CEC
:1062E000364E2268300011780B431370802239003B
:1062F000520001F08CF922689378DB07FCD45662D7
:106300001F262F4B1B68590B980C9B0131403040C6
:106310005B0FB14200D105211F2800D10238072BA5
:1063200000D1043B31408901178D0191254930404E
:106330000F40019939431185118D0700B1430800C1
:1063400038431085118D18031F4B0B407F210343E9
:1063500013851378C1200B4013700423226880003A
:1063600011780B430C211370226813898B43174952
:1063700013810B581B021B0A0B5080230B601178F2
:106380007E3B0B431370012300212B701048FFF755
:1063900053FCF7BDFD060020FC0600200004004071
:1063A000584400413C44004159440041000C004025
:1063B00006400000A16D0000940B0020980B002007
:1063C000246080003FF8FFFFFF8FFFFF00E100E047
:1063D000740600200078002810D00121084B1B68AB
:1063E0001A898A431A810822198B0A431A830422C4
:1063F000198B0A431A830022024B1A607047C04669
:10640000940B00208C0B002010B50F4A93699B0B56
:106410009B03936113680222FF331A729879823AC0
:1064200002439A711A7A9207FCD57F24074A2140C9
:10643000937A0800A3431900802301439172917A53
:106440005B420B43937210BD940B0020005000413F
:1064500010B50C00FFF77CFC2100FFF730FC002892
:1064600004D1034A93699B0B9B03936110BDC04603
:10647000940B0020F7B50D00832A19D1CBB2404C04
:106480005A01A21891693F48AD010840C021890511
:10649000014391613C4920686D18702108335561B2
:1064A0005B011A5C8A43110040220A431A54F7BD6B
:1064B000022A5FD1354B8A00D058002802D00368E9
:1064C0005B699847DA20400000F0CEFE802204008D
:1064D0002B4E2F4B4660036052000021083001F024
:1064E00096F82200B2210023FC324900D3605561A6
:1064F000136113669361D3615366635444316350EF
:106500000431635004316354B221FF316354FF20DE
:106510002B0003405901019371188F68194BAD008E
:106520003B40C027BF051F438F600727019B36688C
:1065300008335B01995DB9430F0003213943995535
:1065400023005169666801401D334901FF3371180A
:106550004B60636852691B68024052019B1801221C
:106560001B18997A20000A439A72FFF7B3FC074B75
:10657000EC509CE711002800FFF704FC97E7C046A9
:10658000940B0020FFFFFF8F08070020E00600208B
:10659000847E000070B505000124064BA200D2588D
:1065A000002A06D0210028000134FFF763FF0A2CDF
:1065B000F3D170BDB40600200B4BCAB20B48890161
:1065C000C9185301C318596199690832890B8903A5
:1065D0009961036852019A180223D3715179823B61
:1065E0000B4353717047C04608070020940B0020EE
:1065F000084B8A00D05810B5002803D003689B6868
:10660000984710BDC9B2044B4901591888688004E5
:10661000800CF6E7E0060020940B002010B50C007B
:10662000FFF7E6FF00280CD0064BE4B21B680834E5
:1066300064011C19802362795B4213436371022356
:10664000E37110BD940B0020F0B51C00304B85B0F9
:106650001B6807000D000292002B55D02D4E31789B
:10666000C9B2002902D11E20FEF7ACFD64233370AD
:10667000294BAA00D058002808D0036822005B6884
:10668000029998470400200005B0F0BD29003800A9
:10669000FFF7AEFF844204D929003800FFF7A8FFB6
:1066A00004000121EBB21D4E03935B010193F2182C
:1066B00093689B0B9B039360019A336802989B1825
:1066C000FF335A7A0A435A72154BA901C91822009E
:1066D00000F094FF002CD6D029003800FFF788FF87
:1066E0000028D0D14021039B326808335B01D318C6
:1066F0001879014319710121D971019BD318FF3316
:106700009A7A0A439A72BEE701246442BBE7C04604
:106710008C0B0020FC060020E0060020940B0020DB
:10672000C808002013B56B46DC1D22000123FFF7CB
:106730008BFF012801D1207816BD01204042FBE7E4
:1067400070B5CBB2124A13485C018901891802194D
:1067500051609168104D08330D4080214903294351
:10676000402591609168890B8903916001685A0105
:106770008A1816793543157195796D06FCD55B013C
:10678000C918CB79DB07FCD500198068C0B270BD91
:10679000C8080020940B0020FF3F00F070B50D00EA
:1067A00000211400FFF7CCFFA04200D920000023F5
:1067B0000349A34203D0CA5CEA540133F9E770BD30
:1067C000C8080020F0B51E003F4B85B01B680F00C5
:1067D0000192002B3FD08023DB019E423BD83B4CF3
:1067E0002178C9B2002902D11F20FEF7EBFC6423F7
:1067F00000252370364BBA01D3180293002E2CD0FB
:10680000344B1B680393FF233B401C000093083468
:10681000039B64011C19A379DB0921D02E4B2F495E
:10682000186800F03DFD2E4B1721584300F038FD4D
:106830002C4BE279920713D4DA5D002A01D101389A
:10684000F7D20122DA55009B5A01224B9B189A6914
:10685000920B92039A6101256D42280005B0F0BDAC
:106860000022204B3400DA553F2E09D9009B4024EA
:106870005A01184B9B188022996912060A439A61A3
:1068800022000199029800F0B9FE009BA1045A0170
:10689000104B890C9B18029A2D195A619A69361B64
:1068A000920B92030A439A61009B039A08335B019F
:1068B000D3180222DA715979823A0A435A71019B3C
:1068C0001B1901939AE7C0468C0B0020FD0600209F
:1068D00008070020940B00201C00002040420F00FD
:1068E00070110100FF06002070B50D001C000D4B5B
:1068F000AE01F61811003000220000F07FFEEDB26C
:1069000009496D014D196E61AB69084A20001340B9
:10691000AB61AB69A2049B0B920C9B031343AB616D
:1069200070BDC04608070020940B0020FF3F00F018
:10693000F7B5104B01901B780F001500002B0CD100
:106940000D4B16001C78002C09D00C4E0C483488D6
:106950002018641900F052FE34802800FEBD002E7D
:10696000FBD03A19330000210198FFF7BDFF24182E
:10697000361AF4E7880A0020890B00208A0B0020D1
:10698000890A0020F8B50F0016000024012A26D934
:10699000100000F01FFE0500380000F0FBFE03238E
:1069A00002220130400028706B7096420DD9397870
:1069B00000290AD0531CDBB20137A9549E4203D0F0
:1069C0000232EC54D2B2F0E7320029000548FFF75A
:1069D000AFFF441EA041C4B2280000F005FE200015
:1069E000F8BDC046DC060020F0B50024012685B0C5
:1069F000184B0F0069461E7005000094FFF71FFC3E
:106A0000154B01A90B806A3BFF3BCB715A330B72CC
:106A1000009B8C7109334B800E4B4E7108711C70BA
:106A20003A00092F0FD00D4F09223E700C4E28005E
:106A300000943480FFF77CFF69462800FFF7FFFBD6
:106A4000328808493C702800FFF772FF012005B02A
:106A5000F0BDC046880A002009020000890B002012
:106A60008A0B0020890A002070B5CE7892B005000C
:106A70000C00022E0BD18B79C9792E4809021943DB
:106A8000FFF7B2FF411E8841C0B212B070BDFFF7E0
:106A90005FF92100FFF7F0F8002803D0C117081AAA
:106AA000C00FF2E7012E0ED1E279A37912021A4348
:106AB0002149112A3CD8D2B2002A39D02800FFF748
:106AC00037FF0120E1E7032EDFD1A378002B28D088
:106AD000022B08D1E279A379120218491A4328003F
:106AE000FFF750FFD1E7012B05D1E279A37912021C
:106AF0001A431349F3E7032BC7D10100412201A830
:106B000000F085FDFFF724F901A9FFF7C5F800287B
:106B100005D0E279A37912021A4301A9DFE70378CD
:106B2000FFDEE279A37912021A430649032AC2D989
:106B30000A78C3E7DC060020B87E0000A07E0000D3
:106B4000B07E0000AC7E0000CBB204495B01C918E6
:106B50008B699B0B9B038B617047C046940B002095
:106B600037B5050048780C000B2810D800F084FBDE
:106B7000061B0F2B0F404561494C5A5D097801AA4D
:106B8000002906D1022311802800FFF7ADFE012065
:106B90003EBD00231380284B1B78012B00D11370BE
:106BA00002230021F0E78A780023012A03D101AAF9
:106BB0001380224BF0E7204A1370214A93699B0B04
:106BC0009B039361E3E78C78012C06D100211B4BDA
:106BD00001AA1C7011702300D6E70120002CD7D128
:106BE000154B174A187093699B0B9B039361CFE772
:106BF00089782800FFF708FCC9E72800FFF734FF71
:106C0000C6E701230F4ACCE70B780020DB06BFD193
:106C10002800FFF7BFFCA2780A4B0B481A60FEF76A
:106C2000F3FFCAE70123094ABBE78A78074B1A60DA
:106C3000C3E70020ACE7C046FE06002006070020A0
:106C4000940B00208C0B002074060020900B002079
:106C50004B4BF7B51E780500002E00D07EE0494C66
:106C600023689A8B12070DD5082231009A833000D1
:106C7000FFF788F810222368FF33997A0A439A7243
:106C8000414B1E6023689A8B52071FD504229A83BA
:106C90003E4A1378002B0AD01378013BDBB2137005
:106CA0001378002B03D101211F20FEF78BFA384AFD
:106CB0001378002B0AD01378013BDBB213701378E2
:106CC000002B03D101211E20FEF77CFA2368FF333D
:106CD0001A7A920603D52022597A0A435A721A7AEE
:106CE000D20623D5694608002A4AC0CAC0C0A26895
:106CF000920B9203A2604022587902435A7160239A
:106D00000A7828001A422AD1FFF72AFF2368FF33A6
:106D1000002827D08022997952420A439A711A7A20
:106D2000520603D54022597A0A435A727F2601251A
:106D30002368FF331E722F00236808377F01DB1999
:106D4000DB79002B07D0144BAA00D05800280DD0B7
:106D500003681B6898470135082DECD1F7BDFFF794
:106D600077FBD3E720210D4A9171D8E7FEF7F0FFBA
:106D70002900FEF7B4FF2368DF19FE71EBE7C04678
:106D8000890B0020940B00208C0B0020FD060020B6
:106D9000FC060020C8080020E0060020FF5000414B
:106DA00010B50248FFF754FF10BDC046DC060020B6
:106DB000014B024A1A607047940B002000500041BA
:106DC0000120704710B50368014A1B6A984710BD3F
:106DD000130400000300FC33D9699A69914203D07F
:106DE000DB69C018007D704701204042FBE710B509
:106DF00004000069FEF746FB22000023FC32936189
:106E0000D36186229200A4186360A36010BDF020B5
:106E100001403039484248417047F0231B01194076
:106E2000802306209B0099420AD00133FF330130B2
:106E3000994205D0802302385B00994200D000209F
:106E400070470F2001400020012903D00239481E5D
:106E50008141481C704700008923F0B5182685B091
:106E600002919B000400C05C330008214343324D73
:106E70001700EB185956FEF7E9F9304B0821E05C92
:106E800033004343EB185956FEF7E0F92C4BE25C14
:106E90000393022A09D11133E05CFF2805D00821B1
:106EA0004643AE197156FEF7D1F98A26B600A05DA9
:106EB000FF2819D00121FEF739F91822A35D2149D5
:106EC0005A43AB56AD18DB0158188B21890060502E
:106ED0001D4901225B188C218900635069688A4032
:106EE0008D21890062501A600122029B11002069E5
:106EF000FEF774FB39002000FFF78FFF3900050013
:106F00002000FFF79EFF390006002000FFF77FFFFB
:106F100033000090290020690122FEF783FA0B4B11
:106F20002069E25C039BE15CFEF799FA2069FEF7B9
:106F3000B6FA05B0F0BDC0467C790000250200001D
:106F400027020000184400411444004126020000BA
:106F5000802210B504005200002100F058FB2300ED
:106F60000022FC335A6020009A6010BDF7B51D0066
:106F700008AB1B780400009309AB1B781600019343
:106F800000234360FA239B008360114B0F000833FA
:106F900003601430FFF7DCFF20001D30FF30FFF7E7
:106FA000D7FF89236A469B002761E654094B127874
:106FB000E554094B2000E2546A46084B1279E2542A
:106FC0008A22293BFF3B9200A3541032A354FEBDFA
:106FD000CC7E0000250200002602000027020000EF
:106FE0000300FC3358689B68C01A01D50130FF309C
:106FF000704710B5040020001D30FF30FFF7F0FF90
:107000000028F8D12069FEF754FA10BD10B51430ED
:10701000FFF7E6FF10BD0300FC3359689A68914200
:1070200004DB5A689868801AFF30704798685B687C
:10703000C01A0138F9E710B51D30FF30FFF7EBFF3C
:1070400010BD10B504000069FEF74FFA002805D006
:107050002069FEF75AFA2069FEF74CFA2069FEF71C
:1070600034FA002820D02069FEF74FFA2200FC32C3
:107070009369D1690133DBB28B4203D09169611806
:10708000087593618A239B00E35CFF2B0CD02000E2
:107090001430FFF7C0FF092806DC8B238D229B00EC
:1070A0009200E358A2581A602069FEF729FA0028D6
:1070B0001AD020001D30FF30FFF792FF002822D0A9
:1070C00086239B00E31899685A68914218D08E2154
:1070D0009A684900A218515C9A680132D2B29A604B
:1070E000C9B22069FEF715FA2069FEF7F3F9002806
:1070F00005D02069FEF7F2F92069FEF7E2F910BD2C
:1071000001214942ECE72069FEF70FFAECE70000A5
:1071100070B5040000690D00FEF7F2F900283ED1B9
:10712000FF2686239B00E3185A6899680132324093
:107130008A4223D1EFF31083DB0710D41E4B5B6828
:10714000DB05DB0DEDD0103B5BB2002B10DA0F221C
:107150001340083B9B08194A9B009B181B68206939
:10716000FEF7CEF90028DCD02000FFF76AFFD8E751
:107170009B08C033124A9B009B58F0E75A680132C3
:1071800016409A68964205D08E215A684900A21886
:1071900055545E602069FEF7C4F9012070BD2000DF
:1071A0001D30FF30FFF71CFF0028B9D129002069EE
:1071B000FEF7AFF9F1E7C04600ED00E01CED00E09E
:1071C00000E100E0030070B5FC33D9699A6904005E
:1071D00091421AD0DA698218157DDA690132D2B289
:1071E000DA618A239B00E35CFF2B0CD02000143073
:1071F000FFF711FF0A2806DD8C238D229B009200E9
:10720000E358A2581A60280070BD01256D42E8E7D6
:1072100010B51C00431A0298511A001B584300F085
:10722000C9F8001910BD704710B5FDF775FD00F0E5
:10723000ADF9FFF7F8FF0120FDF796FC084C2000A0
:10724000FFF70EF82000FFF7C5F8FCF7DBFFFDF7AE
:107250001FF8044B002BFAD000E000BFF7E7C04650
:10726000DC0600200000000010B500F0B3F910BDEE
:1072700010B500F0B9F910BD02B4714649084900D3
:10728000095C49008E4402BC7047C04603B4714695
:10729000490840004900095A49008E4403BC704720
:1072A000002243088B4274D303098B425FD3030A45
:1072B0008B4244D3030B8B4228D3030C8B420DD358
:1072C000FF22090212BA030C8B4202D312120902E6
:1072D00065D0030B8B4219D300E0090AC30B8B4224
:1072E00001D3CB03C01A5241830B8B4201D38B03D2
:1072F000C01A5241430B8B4201D34B03C01A524177
:10730000030B8B4201D30B03C01A5241C30A8B42B9
:1073100001D3CB02C01A5241830A8B4201D38B02A4
:10732000C01A5241430A8B4201D34B02C01A524148
:10733000030A8B4201D30B02C01A5241CDD2C309BA
:107340008B4201D3CB01C01A524183098B4201D336
:107350008B01C01A524143098B4201D34B01C01A21
:10736000524103098B4201D30B01C01A5241C30899
:107370008B4201D3CB00C01A524183088B4201D308
:107380008B00C01A524143088B4201D34B00C01AF4
:107390005241411A00D20146524110467047FFE760
:1073A00001B5002000F0F0F802BDC0460029F7D07A
:1073B00076E7704703460B437FD4002243088B4295
:1073C00074D303098B425FD3030A8B4244D3030B6C
:1073D0008B4228D3030C8B420DD3FF22090212BA31
:1073E000030C8B4202D31212090265D0030B8B42AD
:1073F00019D300E0090AC30B8B4201D3CB03C01A97
:107400005241830B8B4201D38B03C01A5241430B71
:107410008B4201D34B03C01A5241030B8B4201D361
:107420000B03C01A5241C30A8B4201D3CB02C01ACC
:107430005241830A8B4201D38B02C01A5241430A44
:107440008B4201D34B02C01A5241030A8B4201D333
:107450000B02C01A5241CDD2C3098B4201D3CB01DA
:10746000C01A524183098B4201D38B01C01A524189
:1074700043098B4201D34B01C01A524103098B428D
:1074800001D30B01C01A5241C3088B4201D3CB0078
:10749000C01A524183088B4201D38B00C01A52415B
:1074A00043088B4201D34B00C01A5241411A00D20B
:1074B00001465241104670475DE0CA0F00D0494274
:1074C000031000D34042534000229C4603098B42E4
:1074D0002DD3030A8B4212D3FC22890112BA030A6C
:1074E0008B420CD3890192118B4208D389019211EE
:1074F0008B4204D389013AD0921100E08909C30973
:107500008B4201D3CB01C01A524183098B4201D374
:107510008B01C01A524143098B4201D34B01C01A5F
:10752000524103098B4201D30B01C01A5241C308D7
:107530008B4201D3CB00C01A524183088B4201D346
:107540008B00C01A5241D9D243088B4201D34B0061
:10755000C01A5241411A00D20146634652415B10A3
:10756000104601D34042002B00D549427047634684
:107570005B1000D3404201B5002000F005F802BDC9
:107580000029F8D016E770477047C04670B500264E
:107590000C4D0D4C641BA410A64209D1002600F02E
:1075A00011F90A4D0A4C641BA410A64205D170BD06
:1075B000B300EB5898470136EEE7B300EB58984715
:1075C0000136F2E7AC000020AC000020AC00002047
:1075D000C000002010B5034B0100186800F06AF8E5
:1075E00010BDC0464800002010B5034B01001868CC
:1075F00000F016F810BDC04648000020002310B56A
:107600009A4200D110BDCC5CC4540133F8E70300AA
:107610001218934200D1704719700133F9E7000046
:1076200070B50500002910D00C1F2368002B00DA6C
:10763000E418280000F0B5F81D4A1368002B05D1A6
:1076400063601460280000F0ADF870BDA34209D952
:10765000216860188342F3D118685B684118216083
:10766000EEE713005A68002A01D0A242F9D919683E
:107670005818A0420BD12068091858181960824286
:10768000E0D110685268411819605A60DAE7A042E8
:1076900002D90C232B60D5E721686018824203D100
:1076A000106852684118216062605C60CAE7C04699
:1076B000980C0020032370B5CD1C9D4308350600AF
:1076C0000C2D1ED20C25A9421DD8300000F069F8FF
:1076D000254A14682100002919D1244C2368002B65
:1076E00003D1300000F044F820602900300000F0A1
:1076F0003FF8431C2BD10C233000336000F052F8CC
:1077000003E0002DDFDA0C233360002070BD0B682E
:107710005B1B19D40B2B03D90B60CC18256003E03D
:107720004B688C420DD11360300000F03BF8200014
:1077300007220B30231D9043C31AE7D05A42E25070
:10774000E4E763600C00EFE70C004968C3E703233C
:10775000C41C9C43A042E1D0211A300000F008F87C
:10776000431CDBD1C7E7C046980C00209C0C0020CE
:10777000002370B5064C05000800236000F014F8E3
:10778000431C03D12368002B00D02B6070BDC04682
:10779000A40C00200023C25C0133002AFBD1581E38
:1077A0007047704770470000044A1368002B00D1EF
:1077B000034B1818106018007047C046A00C00203A
:1077C000A80C0020F8B5C046F8BC08BC9E4670471F
:1077D000F8B5C046F8BC08BC9E46704700000000E3
:1077E0000000000000000000000000004242000015
:1077F00000000000000000000000000042530000F4
:107800000000000000000000000000000000000078
:107810000000000000000000000000000000000068
:1078200000000000000000000000000042420000D4
:107830000000000000000000000000004253530060
:107840000000000000000000000000004253530050
:107850000000000000000000000000004253530040
:107860000000000000000000000000004242000094
:107870000000000000000000000000000000000008
:1078800000000000000000000000000042000000B6
:1078900000000000000000000000000042000000A6
:1078A0000000000000000000000000004200000096
:1078B00000000000000000000000000000000000C8
:1078C0000000000000000000000000004200000076
:1078D0000000000000000000000000004200000066
:1078E0000000000000000000000000004200000056
:1078F0000000000000000000000000004242000004
:1079000000000000000000000000000042420000F3
:107910000000000000000000000000000000000067
:107920000000000000000000000000000000000057
:107930000000000000000000000000000000000047
:107940000000000000000000000000000000000037
:107950000000000000000000000000000101000124
:107960000100FFFFFF0101FF5043206D6F64653A86
:10797000204B6F6F76312E300000000000000000B9
:107980000B0000000200000004000000FF00FFFFE9
:10799000FFFF0B00000000000A00000002000000D2
:1079A00004000000FF00FFFFFFFF0A0000000000CE
:1079B00008000000040000001C000000FF000000A0
:1079C0000000FF00000000000900000004000000AB
:1079D0001C000000FF000100010009000000000081
:1079E0000E000000040000001C000000FF00000367
:1079F00000030E00000000000F0000000400000063
:107A00001C000000FF00010301030F000000000044
:107A100014000000050000002C000000FF00020020
:107A20000200040000000000150000000500000036
:107A30002C000000FF000300030005000000000010
:107A400006000000040000001C000000FF00000110
:107A50000001060000000000070000000400000014
:107A60001C000000FF0001010101070000000000F0
:107A700012000000040000001C000000FF000003D2
:107A800000030200000000001000000004000000DD
:107A90001C000000FF0000020002000000000000C7
:107AA00013000000040000001C000000FF000103A0
:107AB00001030300000000001100000004000000AA
:107AC0001C000000FF00010201020100FF00000095
:107AD00000000000FF00000000000000FF00FFFFAA
:107AE000FFFFFF0000000000030000000100000095
:107AF00002000000FF00FFFFFFFFFF00000000008A
:107B0000160000000200000004000000FF00FFFF5C
:107B1000FFFF060000000000170000000200000048
:107B200004000000FF00FFFFFFFF0700000000004F
:107B30000C0000000300000004000000FF00FFFF35
:107B4000FFFF0C00FF00000000000000FF0000002D
:107B500000000000FF00FFFFFFFFFF00010000002A
:107B60000B0000000300000004000000FF00FFFF06
:107B7000FFFF0B00010000000A00000003000000EE
:107B800004000000FF00FFFFFFFF0A00FF000000ED
:107B900000000000FF00000000000000FF00FFFFE9
:107BA000FFFFFF00FF00000000000000FF000000DA
:107BB00000000000FF00FFFFFFFFFF0000000000CB
:107BC0000200000001000000020000000000FFFFB2
:107BD000FFFF02000100000008000000010000009B
:107BE000020000000200FFFFFFFF0800010000008C
:107BF0000900000001000000020000000300FFFF78
:107C0000FFFF090000000000040000000100000068
:107C1000020000000400FFFFFFFF0400000000005E
:107C20000500000001000000020000000500FFFF49
:107C3000FFFF05000100000002000000010000003D
:107C4000020000000A00FFFFFFFF02000100000029
:107C5000030000000B00000004000000FF00FFFF15
:107C6000FFFFFF00000000001B0000000B000000F1
:107C700004000000FF00FFFFFFFFFF000000000006
:107C80001C0000000600000000000000FF00FFFFD5
:107C9000FFFFFF00000000001800000006000000C9
:107CA00000000000FF00FFFFFFFFFF0000000000DA
:107CB000190000000600000000000000FF00FFFFA8
:107CC000FFFFFF000100000016000000030000009D
:107CD00000000000FF00FFFFFFFFFF0001000000A9
:107CE000170000000300000000000000FF00FFFF7D
:107CF000FFFFFF000000000016000000020000006F
:107D000000000000FF00FFFFFFFFFF000000000079
:107D1000170000000200000000000000FF00FFFF4D
:107D2000FFFFFF0000000000130000000200000041
:107D300000000000FF00FFFFFFFFFF000000000049
:107D4000100000000200000000000000FF00FFFF24
:107D5000FFFFFF0000000000120000000200000012
:107D600000000000FF00FFFFFFFFFF000000000019
:107D7000110000000200000000000000FF00FFFFF3
:107D8000FFFFFF00000000000D00000004000000E5
:107D90000C000000FF000100FFFF0D0000000000CC
:107DA00015000000050000000C000000FF000300AB
:107DB000FFFFFF00000000000600000004000000BC
:107DC0000C000000FF000001FFFFFF0000000000AA
:107DD00007000000040000000C000000FF0001018B
:107DE000FFFFFF0000000000020000000100000093
:107DF000020000001400FFFFFFFF02001A001A003B
:107E00001B001B001C001C001D001D000D0A0000B3
:107E1000000100020003000400000005000000064D
:107E20000000000700000000000000001B590000D7
:107E3000515B000017590000355B0000155B000026
:107E40008D5B0000715B0000435B00003159000056
:107E5000995800005D5A0000C158000015590000F3
:107E6000F0FFFFFF00000000055B00004D5A00001E
:107E7000B35B0000B15B000005590000000000008A
:107E800000000000115F0000CD610000B56100003E
:107E900093610000755D0000775D0000655E000085
:107EA00041726475696E6F204D300000040309044F
:107EB000556E6B6E6F776E0012010002EF0201408B
:107EC000032A4E80000101020301000000000000AF
:107ED00000000000117100000D5300003770000019
:107EE000F36F00000D700000C5710000D56D00003B
:107EF000C56D0000596E0000EF6D0000C16D0000FF
:047F0000000000007D
:107F04000400000000200042002400420028004237
:107F1400002C0042003000420034004240420F0076
:107F24000A0000000A00000008000000FFFFFFFF35
:107F3400FFFFFFFF00366E01FFFFFFFF00C20100DD
:107F440000000800FFFFFFFF4C00002000000000BD
:107F5400000000000000000000000000000000001D
:107F6400000000000000000000000000000000000D
:107F740000000000000000000000000000000000FD
:107F840000000000000000000000000000000000ED
:107F940000000000000000000000000000000000DD
:107FA400000000000000000000000000DD400000B0
:107FB400ED410000ED4900003D5C0000B16D0000A2
:047FC400B5400000C4
:0400000300004A9916
:00000001FF
