:1040000000800020555100003D5100003D5100004E
:1040100000000000000000000000000000000000A0
:104020000000000000000000000000003D51000002
:1040300000000000000000003D510000A9510000F8
:104040003D5100003D5100003D5100003D51000038
:10405000015100003D5100003D5100004151000060
:104060003D5100001D4F00003D5100003D5100003A
:104070003D5100003D5100002D4F00003D5100001A
:104080003D5100003D5100003D510000314800000D
:10409000F15E00003D5100003D5100003D51000027
:1040A0003D5100003D5100003D5100003D510000D8
:1040B0000000000010B5064C2378002B07D1054BFB
:1040C000002B02D0044800E000BF0123237010BD84
:1040D000C80000200000000024860000044B10B53A
:1040E000002B03D00349044800E000BF10BDC046C8
:1040F00000000000CC00002024860000012110B543
:104100004140002001F0C2FB10BD000010B50B4B78
:1041100004001A78824210D0187000210C2001F09F
:10412000B5FB00210A2001F0B1FB00210D2001F0B8
:10413000ADFB2100122001F0A9FB10BD0100002001
:104140000B00F7B505000E00FF3301DA114B19889B
:104150000BB2FF2B00DDFF216A460F4B01AF13802E
:104160000E4B0CB23B80012D02D12800FFF7CEFF91
:104170006B462100585D7D5D002E06DB01F050FA94
:104180000021280001F082FBF7BDFF3101F048FA61
:104190000121F6E7907E0000040C0000050A0000F3
:1041A00070B5094D46008CB271570120614309B2C8
:1041B000FFF7C6FF0121AD1969560020614309B21E
:1041C000FFF7BEFF70BDC04672800000F8B5050065
:1041D0000F0016000D2802D10120FFF797FF0324DE
:1041E0006C43094B1C19200000F064FC002802D02D
:1041F000200000F0F5FB32003900280001F0B0FD8E
:10420000300001F015F8F8BD22010020054B0649E9
:104210001B5C0433DBB2CA185278C85C120210432C
:1042200000B270474C010020E500002010B5074B9C
:1042300018220021064800F045FE00240548001918
:10424000033400F0FFFA2A2CF8D110BDFD40000025
:104250001A0100202201002010B50121002001F0E8
:10426000C9FA0121080001F0C5FA0121042001F07A
:10427000C1FA0121052001F0BDFA01210A2001F057
:10428000B9FA01210C2001F0B5FA01210D2001F04D
:10429000B1FA0121142001F0ADFA0121152001F03D
:1042A000A9FA0121122001F0A5FA0120FFF72EFF43
:1042B000E1210448490203F0E9F80349034801F009
:1042C000BBFB10BDE00100207E8000002C07002019
:1042D00070B505000A4CFF21200001F082FE552137
:1042E000200001F07EFE0221200001F07AFE012173
:1042F000200001F076FE2900200001F072FE70BD62
:104300002C07002010B5074CFF21200001F069FEAA
:104310005521200001F065FE0021200001F061FE22
:1043200010BDC0462C070020F0B5C24F85B0380044
:1043300001F054FF002800DCA0E0380001F08AFF03
:10434000BD4BBD491A78BD4C531CC0B2DBB2A05462
:104350000B70BB4A022B58D0032B59D0012B07D12D
:1043600003331370FF2800D181E00023B2490B70A2
:1043700013780293B04B029A1B78934277D3B14ED5
:1043800010220021300003F09CFCE5781D2D21D87F
:10439000AD4B2A01D3180393002301930093039B91
:1043A000019A9B5C002B15D06846A64A01990078BB
:1043B0008854462B35D02ED8422B35D0442B3BD0B9
:1043C000009B029A033393424EDA019B013301931F
:1043D000102BE4D10B2D00D1FBE051D8052D00D1DD
:1043E000C1E036D8022D00D19DE0032D00D1A5E01B
:1043F000012D39D17378E31819793378E4182079CD
:10440000FFF7CEFEFFF77EFF2EE05528ADD1AFE7D8
:1044100003301070ACE7532B0BD0732B0FD04C2B09
:10442000CED10098043001E00098013083B20093AF
:10443000C6E700980230F9E700980830F6E7009BDD
:10444000181D7E4B181803F0FFFC009B0133181851
:10445000ECE7072D00D1ACE000D2AAE0082D00D196
:10446000A7E0092D00D136E10023734A1370724B87
:104470001B78332B02D900236F4A137005B0F0BDAF
:10448000102D00D1F5E018D80D2D00D1E2E000D2BA
:10449000C0E00F2DE8D133780221E318187901F03C
:1044A000A9F93378E418207901F01CFA03000120FF
:1044B0005840C0B2FFF70CFFD6E7122D00D10AE139
:1044C00000D2E2E0132D00D112E1802DCCD1FF21EA
:1044D000380001F086FD5521380001F082FD0621EB
:1044E000380001F07EFD2900380001F07AFD574DBB
:1044F000280000F005FC2979380001F072FD002346
:10450000EC5E3800E1B201F06CFDA1B2090A38009E
:1045100001F067FD0223EC5E3800E1B201F061FDBD
:10452000A1B2090AD3E00120FFF770FE454B01005C
:104530001B78E4182079FFF703FE63E700210800E9
:10454000FFF72EFE00242B006343414EF618300087
:1045500000F0B0FA002802D0300000F041FA013437
:104560000E2CF0D14EE73749344B0A789A1815795A
:104570000D2D00D946E703244A786C439B181E7919
:10458000334B1C19200000F095FA002807D10121B7
:10459000280001F02FF92900200000F019FA0D2D54
:1045A00002D10120FFF7B2FD3100200000F060FAD7
:1045B00028E70120FFF72AFE05000220FFF726FE6C
:1045C000204B82B21B78A9B2E4182079FFF7FEFDD8
:1045D00018E71C4B1A78194B9B181C79002C15D026
:1045E0000020FFF793FD07214C40012521000A2000
:1045F000294001F04BF9611029400C2001F046F9E7
:104600000D20A110294001F041F9FBE60120FFF740
:104610007DFDF7E633780125E418217903244C4029
:1046200021001520294001F031F9611029401420A2
:10463000E9E7C0462C070020E4000020E500002048
:10464000000000204C010020927E00001A01002092
:104650002201002033780125E418217905244C40FB
:1046600021002800294001F011F9A1102940002063
:10467000C9E733780021E318187901F0BBF83378E3
:10468000E418207901F02EF913E733780021E318BC
:10469000187901F0AFF83378E418207900F054FF6E
:1046A0000400FF21380001F09CFC5521380001F086
:1046B00098FC0321380001F094FC0221380001F03D
:1046C00090FCE1B23800241201F08BFCE1B238001A
:1046D00001F087FCC8E633780121E318187901F06E
:1046E00089F87378E31819793378E41820798AE720
:1046F00033780121E318187901F07CF87378E31816
:1047000019793378E418207900F08AFF7AE6C046F8
:10471000F7B50C27404E0193335C04005BB20D00EB
:1047200000924743002B2EDA00230B82EB7BDB0940
:10473000FCD1335D394A01335BB23355335D1278B6
:104740005BB2DB19934203DA335D5BB20B2B34DDD2
:104750002F8ABFB2EB7BDB09FCD1314B31491868A2
:1047600003F0F8F8304B04375843009B00090C3332
:1047700087424DD280B25B005853EB7BDB09FCD102
:10478000FF33335540E0335C244A5BB21278DB19C7
:104790009342CEDA335C254A5BB2DB19DB009B5CCB
:1047A0005B06C6D5335C00215BB2DB19DB00985C8D
:1047B0008006800E01F06AF8BBE7335D1B4A5BB2EE
:1047C000DB19DB009B5C5B0609D5335D01215BB225
:1047D000DB19DB00985C8006800E01F057F82A8A0E
:1047E00092B2EB7BDB09FCD1335D5BB2DF190F4B7F
:1047F000FF00DF197B68D318009A9BB20C3252007D
:104800005353EB7BDB09FCD16B461B79AB73F7BDD4
:10481000BFB25B005F53B0E75D0100205C01002088
:104820001C00002040420F00204E000060010020CC
:10483000002210B5102302491000FFF769FF10BDD8
:104840000030004270B50C4B05001C780B2C10D8C2
:10485000621C1A70094B04701868094903F07AF851
:10486000084BE4005843084B00091C1960602800FD
:1048700070BDFF230370FAE75C0100201C000020DC
:1048800040420F00DC05000060010020F7B50193F5
:10489000037804000E0017000B2B00D986E03000CF
:1048A000012100F0A7FF3F2132002078404DC300D6
:1048B0005E5D0A408E4316435E558823032296218F
:1048C0009B00DB1BDF171740FF18019B0901C91A6A
:1048D000CB1713405B189B10BF10A37067700C219F
:1048E00003F038F80C23C0B243431A000C32D9004D
:1048F000695C490654D401339342F8D100284FD162
:104900002C4B2D4A5A805A78D209FCD12B4E0232B8
:10491000338893433380F37BDB09FCD1013333804D
:10492000F37BDB09FCD13388DB07FCD433889BB2F3
:104930003380402332881343338080233288DB0066
:10494000134333800123327913433371F37BDB0943
:10495000FCD11B4B1B49186802F0FCFF0300FA2036
:1049600080005843000980B23083F37BDB09FCD11F
:104970008021154B0903D967C023C420134A5B006B
:10498000D150800013581B021B0A135010231160D2
:10499000737332880E3B13433380F37BDB09FCD106
:1049A00040222378DB00E95C0A43EA542078FEBD0C
:1049B00060010020000C00401C400000003000425C
:1049C0001C00002040420F0004E100E000E100E094
:1049D0009623882210B51B019200FFF757FF10BDE8
:1049E0004021007810B50C4CC200135D8B43135569
:1049F000343902F0AFFFC3B20C20584303000C332C
:104A0000C200A25C520605D401309842F8D11022AF
:104A1000024B1A7310BDC0466001002000300042F6
:104A200070B505780B2D1BD801238824C356E41AD2
:104A3000A4008C4208DC96248078A40040B2241A9A
:104A4000A4008C4200DD0C00064B0749186802F0F8
:104A500081FF053C6043054BED0000095D1968606E
:104A600070BDC0461C00002040420F0060010020C5
:104A70000F4B13B50400994216DCB420B42902DCB4
:104A8000C843C017084001228823A25602219B1A5E
:104A9000962261569200521A9200009200219B00C9
:104AA000B42202F019FF01002000FFF7B9FF13BD87
:104AB0001F0200000378034ADB00985C4006C00F29
:104AC0007047C0466001002010B500F081FB764AB7
:104AD000764C11682300411AA14202D81368C31A08
:104AE0009BB2734C10602078C0B206281FD802F029
:104AF00027FF042A6D8F07438F000423237016E0DD
:104B00006C4A6D499A1892B28A4201D80123F5E79E
:104B1000AF216A4A49009B189BB200228B4205D8FC
:104B2000674B1A60674B1A700323E7E72270032272
:104B3000654B6649187823789A4292415242033273
:104B400000F046FA10BD0021614A62489A1892B2FC
:104B50002170824205D85A4B19605A4B19700523AF
:104B6000CCE75D4A9B185D4A9BB29342DFD800F0C8
:104B700029FB5B4B1860DAE70022A63B2270FF3B63
:104B80001B32FF329BB29342D1D84E4B1B781F2B66
:104B900001D80223B2E74A4A136811681B0A4B4046
:104BA00050490B408B42C2D113684F4A1B0CDBB2F9
:104BB000138000F007FB4A4B186001204B4B187024
:104BC0004B4B1B68002BB2D09847B0E705223C49FD
:104BD00022700A683B4852080A6002780132D2B259
:104BE0000270D320434A80009A1892B2824205D8BC
:104BF00080230A681B0613430B6098E78D22A63BAF
:104C0000FF3B9BB25200934200D890E7002375E728
:104C10001A00AF21AF3A92B249008A4217D8012355
:104C2000284A1178194204D12548016899400B435C
:104C3000036013780133DBB21370224B1B781D2BFA
:104C400012D82378062B00D16EE7062356E72A4AAE
:104C50009B189BB28B42D9D8194A13685B0013602A
:104C6000184A13780233E6E71549244A0B6810788E
:104C70005B04002802D19B0F1370C7E712789B0FCB
:104C80009342C3D10B68184A9BB2138000F09AFA82
:104C90000222134B1860154B1A70154B1B68002B22
:104CA000B4D001209847B1E7C0010020FFFF000009
:104CB000D0010020A9E5FFFF9211000095FCFFFF45
:104CC000D8010020DD010020DF010020C94A0000DA
:104CD000D5F2FFFFCA0800006BF9FFFF6604000071
:104CE000C4010020FF00FF00CC010020DC010020F7
:104CF000D401002010FBFFFFF3FDFFFFDE010020C9
:104D0000F7B5040072B60022674B1F781A70674B24
:104D1000FFB21D88664B1E6862B6964200D1A0E0C5
:104D2000022F2AD0634B1B88009300F04BFA009AA5
:104D3000861B2379964200D37FE0002B20D1ABB2B3
:104D4000002B1DD05C4B01271B68002B01D03800C5
:104D500098470023A3716371022F4FD16B075B0F3C
:104D6000603323712B06ED04DB0EED0E103B103D7E
:104D70001B012D012380658004E096235B00D3E7AF
:104D8000002FE6D1E679002E4BD0022F49D1002327
:104D9000E25E0223E55ED317D118E81759402B18BD
:104DA0004340C9188BB20193272B43D9D00F8018E9
:104DB00043100093009901238D4200DC0023E90F8A
:104DC0004819DBB24010824200DA02334919491017
:104DD00049428A4201DA0433DBB2009869428842D0
:104DE00001DA0833DBB23548C05C607171380528E0
:104DF0001DD802F0A5FD181C08071C1A2571638038
:104E00002380BFE7524292B2131CFF2A00D9FF232E
:104E1000A371022E05D123793700602B01D163796C
:104E200023713800FEBDAAB2EEE78AB2ECE7019B1F
:104E30005A08E9E700236371EAE7002BF1D000206C
:104E40001B4B208018601C4B60801B68A080A071E9
:104E5000834200D0984700F0B5F9194B012718603C
:104E6000DFE700F0AFF9164BADB21B68C01A002D9A
:104E700005D0104B1B88834201D20C4B1E80C00909
:104E8000CFD00F23184006D10B4B01301B68002BED
:104E9000C7D09847C5E70128C3D1074B1B68002B33
:104EA000BFD00020F5E7C046DC010020CC01002087
:104EB000C401002002000020D40100208F800000E7
:104EC000C801002070B5C1710E490F4D0B60040080
:104ED000002110002A7000F08DFC032228780B4975
:104EE00000F076F800230A4A13700A4A1380E27928
:104EF000094B002A03D16E3220001A8070BD962221
:104F00005200F9E7D4010020DF010020C94A000067
:104F1000D0010020CC0100200200002010B5024882
:104F200002F0F3FB10BDC0461C04002010B502487F
:104F300002F0EBFB10BDC046E0010020F7B50124F4
:104F40000326154F1549380000F0CEFD14491548C9
:104F500000F0CAFD1449154800F0C6FD1449154873
:104F600000F0C2FD1449154800F0BEFD144D15496E
:104F7000280000F0B9FD39000096230001940022BA
:104F8000114802F057FB00962900019423232422A4
:104F90000E4802F04FFBF7BD580600200008004203
:104FA000000C00425C060020001000426006002059
:104FB0000014004264060020001800426806002029
:104FC0006C060020001C00421C040020E0010020B0
:104FD000F7B501921822162442433F4B07009B1855
:104FE0001C570091631C6ED0102C6CD03B4B3C4E78
:104FF0001D68002D27D1290044223A4802F061FEA5
:1050000029004422384802F05CFE1022374B384910
:105010001D60CA67C021C120364B49005A5080002C
:105020001958FF35A94319501A60334B334A5A8037
:1050300002233278134333707378DB09012BFBD0E2
:105040000122264B1A600125A540736900212B43DC
:105050007361380000F05EFC009B002B31D000270C
:10506000224B20499C461B68BA00BB421DD16046BA
:10507000013303608D501C4B00999950072C19DDAA
:105080000123083CA4000721A140154A9B009B185E
:105090009A698A439A61019A042A12D81000996980
:1050A00002F04EFC0B12141618008858A842E1D0EA
:1050B0000137D9E7A4000023E5E70522A2400A430F
:1050C0009A61ADB2F560F7BD0422F7E70322F5E778
:1050D0000222F3E70122F1E7A0800000F806002099
:1050E00000180040B406002070060020FC060020D6
:1050F00004E100E000E100E0000C00400540000099
:10510000F8B50024094B1B68A34200D8F8BD084E2F
:10511000084FA5003369EA591A4204D0064BEB58F0
:105120009847EB5933610134ECE7C046FC06002098
:1051300000180040B406002070060020FEE70000C2
:10514000034B10B51B68002B00D0984710BDC0461C
:105150000007002070B50F490F4CA14204D100F0A8
:105160008FF802F0C5FBFEE70C4D00238D42F6D010
:10517000CA18E818A24205D3094B8242EFD0094968
:10518000002204E0006804331060F1E704C38B429E
:10519000FCD3E4E700000020C400002028860000C3
:1051A000C8000020600D002010B500F066F800284F
:1051B00001D100F057F810BD014B18607047C04690
:1051C00000070020014B18687047C0460407002004
:1051D000F7B51348012284461249134C8E68636860
:1051E00005689B0E1340019288686268019F920EC9
:1051F0003A4067463F6893420ED1BD420CD1864289
:105200000AD35B19FA254868AD00861B07486B4333
:105210007043000DC018FEBD3D0013000600E3E71B
:105220000407002010E000E000ED00E0555500000C
:1052300070B5041E10D0FFF7CBFF050000F01CF87E
:10524000FFF7C6FF054B401B9842F7D9FA23013CF4
:105250009B00ED18002CF3D170BDC046E7030000A1
:105260007047000010B5034A13680133136000F063
:10527000FFFB10BD040700207047002070470000AE
:105280001E2270B546484749436893431C3A13436E
:10529000436008238C6923438B61434C434B9C82BE
:1052A0009C8A14439C82DC681442FCD00124404A4E
:1052B00014701578254203D055786DB2002DF8DBB7
:1052C00001249460547864B2002CFBDB394C5460A8
:1052D000547864B2002CFBDB8224E40154805478BF
:1052E00064B2002CFBDB02249C840E34DD68254272
:1052F000FCD0314CDC621024DD682542FCD09D8C52
:105300002E4C2C439C841024DD682542FCD00224C2
:105310009D8C80262C439C844024DD683542FCD043
:10532000DD682542F9D01024DD682542FCD0002438
:105330009460547864B2002CFBDB214C54605478A8
:1053400064B2002CFBDB1C6A1E4D2C4080251C62C5
:105350001C6AAC431C62032393601B4B536053785D
:105360005BB2002BFBDB0023FF240B72174A4B724E
:105370008B72CB72164B1A60164B174A1B6811685A
:105380009A065B01C90E2340520F12020B431343CE
:10539000124A1385802342681343436070BDC046A0
:1053A00000400041000400400C06000000080040DE
:1053B000000C004001050100B905FF7D040A000052
:1053C00000070300FFFCFFFF03060100006CDC0286
:1053D0001C0000202460800020608000004000420B
:1053E000FA21314B10B51868890002F0B3FA2F4B3F
:1053F0000138984256D82E492E4A4860C020136A78
:1054000000061B021B0A03431362002407238C605F
:105410000B608021136A09061B021B0A0B431362EF
:10542000FC22254B196A0A431A62FC22196A92016E
:105430000A431A62A022196AD2020A431A622000A1
:105440000021013400F0D6F9132CF8D11B4B1C00BD
:105450005A7852B2002AFBDB194A5A80194B1A00BB
:10546000597EC9090129FBD0E421C90099803F2157
:10547000D970537EDB09012BFBD0C02300205B01D8
:105480001361907000F02EF863785BB2002BFBDBA9
:105490000D4B0E4A6380D379DB09012BFBD04123EE
:1054A000537010BDFEE7C0461C000020FFFFFF0048
:1054B00010E000E000ED00E000040040000C0040BF
:1054C0001E40000000400042214000000048004211
:1054D000914202D002D98A1AD0407047521A9040A5
:1054E000FBE70000164A00B51300517EC9090129E7
:1054F000FBD00138042816D81969124A0A400F2136
:105500001A615A788A4302F01BFA0308060B03005B
:10551000110001220A435A7000BD11000322F9E76D
:1055200011000222F6E7F02311691B050B430F213E
:10553000136153788B43190002230B435370EBE73D
:1055400000400042FFFFFFF010B50400172800D80C
:1055500018340121200000F0DDF9182310216343E5
:105560002A4CE4186156002901D014290DD1284B8A
:105570001800DA79D209012AFBD002241A78A24352
:105580001A70C379DB09012BFBD022480300427E4D
:10559000D209012AFBD01F2402692140A2430A43F9
:1055A00002615A7ED209012AFBD0022219780A43ED
:1055B0001A705A7ED209012AFBD00222197B0A43B3
:1055C0001A731A7ED207FCD501221A765A7ED209A6
:1055D000012AFBD00222197B0A431A731A7ED207D2
:1055E000FCD5588B80B25A7ED209012AFBD0022109
:1055F0001A788A431A705A7ED209012AFBD0064BC8
:105600001A68064B1968FFF763FF10BDA080000001
:1056100000480042004000422400002020000020FA
:1056200018234343F0B56A4A87B09B18DA6806002E
:105630000C000092920722D51B7C5BB2002B01D09C
:10564000142B1AD1634B0A2219682000FFF740FF80
:10565000614A1300D179C9090129FBD08005800D69
:105660001081DA79D209012AFBD0022219780A4383
:105670001A70DA79D209012AFBD007B0F0BD0827E9
:10568000009A544D3A40019200D191E012229B5E63
:105690002968200010220193FFF71AFF019B0500E3
:1056A0001F126B461C79009B0421DB0600D40521E8
:1056B000300000F02FF9494BBA00D658484BDA5D5C
:1056C000002A54D10132DA5546490F3202A802F0BD
:1056D000EFFA02AA7B009B5A8022D2011A43424B66
:1056E0005A805A78D209012AFBD0022297421BD94C
:1056F000338893433380F37BDB09FCD1328840331A
:1057000013433380F37BDB09FCD10C34ADB264006E
:10571000A553F37BDB09FCD132880233134333807A
:10572000F37BDB09FCD1A8E7336893432F4A33604E
:105730001300B1681142FCD10222F16B0A43F263FB
:10574000B2681A42FCD11034A40034196560B26802
:105750001A42FCD1264A3264B2681A42FCD10222B3
:1057600031680A433260B2681A42FCD185E7022FE1
:1057700007D90C34ADB26400A553F37BDB09FCD12F
:105780007BE70223727913437371184B1A00B168D7
:105790001942FCD11C34A400A551B3681342FCD1BA
:1057A000022331790B433371B3681342FCD164E7B0
:1057B000012100F01FF829683A002000FFF788FE59
:1057C00001997F2800D90121300000F05FF854E7EB
:1057D000A0800000280000200048004204000020B3
:1057E0000807002020850000000C0040FF0F7F000C
:1057F000FFFF0000182330B51D00040045430820BA
:10580000204A55192856013014D0032912D808000F
:105810006343D156D31802F093F802280E1B586840
:10582000CB010221184A9B181A184032117001222C
:1058300082405A6030BD5868CB010621124A9B183D
:105840001A1840321170012282405A609A61F1E7C1
:105850005868CB0106210C4A9B181A184032117067
:10586000012282405A605A61E4E75868CB01022164
:10587000054A9B181A1840321170012282409A6022
:10588000D8E7C046A0800000004400411823F0B5CE
:1058900008245843114A13181C5701341BD0012601
:1058A00035005F688356BD400D4ADB019A18906849
:1058B00005420BD10C00601E8441D2194032107891
:1058C00034400336A400B04320431070044A9B18B0
:1058D000002901D15D61F0BD9D61FCE7A080000061
:1058E00000440041182310B5082443430749002011
:1058F000CA181457013408D05B560549DB015B1800
:10590000186A5368D8400123184010BDA0800000D9
:105910000044004118224243F8B52C4E0300B2184F
:10592000127A52B2140001320ED0481C00240C2806
:105930000AD802F005F8071F1F1F1F1F1F1F1F0B8C
:105940000B0B0B00012464422000F8BD092905D18E
:1059500000211800FFF74EFF0024F5E70A2901D1C6
:105960000839F6E700240B29EED10A391800FFF7B1
:1059700041FFE9E718225343F218556801202C0033
:10598000F356134ADB016E089B18C9B204409E19F6
:10599000002C0DD00F2430363278090122401143FB
:1059A000C9B25B19317040331A7810431870D3E7CD
:1059B00032000F27303216785B19BE433143117025
:1059C00040331A7810431870BEE7C046A08000002C
:1059D00000440041F7B506000D000C008B18019340
:1059E000019B671B9C4207D0336821781B683000FD
:1059F000984701340028F3D13800FEBD70B504008B
:105A000008000D0002F020FA2368020029005B68FC
:105A10002000984770BD10B50B1E02D0FFF7EEFFB7
:105A20000300180010BD000010B50249FFF7E6FFA3
:105A300010BDC0463085000070B50400FFF7EBFFD5
:105A400005002000FFF7F0FF401970BD10B50400FD
:105A5000FFF706FC014B1C6010BDC0462C00002067
:105A60000122024B52421A607047C0462C000020AF
:105A7000164A10B51368591C26D0013B1360002B41
:105A800022D172B6124B134A0433934213D9124AED
:105A900001211000147D0C42FCD02021148BFF3119
:105AA0009B085B0021431183D3610C4B13800123BE
:105AB000027D1A42FCD0BFF34F8F094B094ADA60CE
:105AC000BFF34F8FC046FDE710BDC0462C0000203D
:105AD00000400000030200000040004102A5FFFF5B
:105AE00000ED00E00400FA05016070479446F0B54F
:105AF0009E1E721E96416246056892072F68360602
:105B00003A4332432A60072505AC24780068A40193
:105B10002940214342680024022B00D05C0311433A
:105B200021434160F0BD30B5C0250368AD031C685A
:105B300012052A402243C0240904A4022140114333
:105B4000196003685A6814435C6030BD0123026821
:105B500011680B43136003681A68D207FCD4DA6932
:105B6000D207F9D470470223026811680B4313600F
:105B70000268D3699B07FCD4704703681A7ED2077A
:105B800002D41A7E9207FCD57047002203685A831C
:105B900070470368187E4007C00F70470368187E7F
:105BA000C0097047802302685B42117E0B43137665
:105BB00070470368588B8007C00F70470223026844
:105BC000518B0B43538370470368187EC007C00F87
:105BD00070470368188DC0B2704703681A7ED207F9
:105BE000FCD589B2012019857047012203689A7596
:105BF0007047012203681A75704700000368214A44
:105C000030B593422FD0204A93422FD01F4A93425F
:105C10002FD01F4A93422FD01E4A93422FD01E4AA4
:105C200093421FD10E2319220121032599401B48BD
:105C3000C024016099082B40AB40FC359D40890091
:105C40000918A4000859A843C0259D402B00034310
:105C50000B518023DB011A43114B5A805A7852B200
:105C6000002AFBDB30BD09231422DDE70A231522BD
:105C7000DAE70B231622D7E70C231722D4E70D23EC
:105C80001822D1E700080042000C00420010004238
:105C90000014004200180042001C004200E100E035
:105CA000000C0040F8B504000F0016001D00FFF7BF
:105CB000A5FF2000FFF74AFF1C21BB000B40710726
:105CC0002268090C0B431360842322689375012F0B
:105CD0001AD11021012E00D008390C4B69431868E5
:105CE000C00001F037FE0722216802408B89520371
:105CF000DB04DB0C13438B81226803049089DB0CEB
:105D0000400B400318439081F8BDC0461C000020A2
:105D10000221084B1A888A431A80DA7BD209FCD107
:105D200001321A80DA7BD209FCD11A88D207FCD45E
:105D30007047C04600340042074B10B51B78040082
:105D4000002B08D0FFF7E4FF00212000FFF79EFDA5
:105D50000022024B1A7010BD0E07002028070020F9
:105D60008023F7B50192504A5B030091D367C022AC
:105D70004E4D5200AB504E4B06001A78002A0DD102
:105D800001321A70C522FF219200AB588B43AB50F1
:105D9000484B494A5A805A78D209FCD1474B1B7864
:105DA000002B05D0464B1868B04201D0FFF7C4FF66
:105DB000444B0099186801F0CDFD434A00239446F6
:105DC0000427441E64450FD9040019005A1CD4400E
:105DD000B943C9B2013C032902D0D2B2062A01D18B
:105DE0000233DAB21300EDE7013B0027092B02D89A
:105DF000364A5B009F5A019B002B51D0FA21580074
:105E0000009B89004343180001F0A4FD0023020019
:105E10002F490A604B60FFF77BFF20232D4A118832
:105E20000B431F4317801700FB7BDB09FCD1A4B297
:105E30003C83F97BC909FCD11820274C7043A44648
:105E4000264B274CC356DB019C4462462260254A00
:105E5000254C9B1823600124204B1A1853682200FC
:105E60009A40224B1A6010237A7B13437B73144BA6
:105E70001A68B24209D030001E60FFF707FD21000A
:105E80003000FFF7B7FC0D4B1C7002233A88134318
:105E90003B80FB7BDB09FCD180235B032B60F7BDE0
:105EA00001225242D317B3E704E100E000E100E031
:105EB0000E070020000C00401C40000028070020B6
:105EC0003000002034000020FFFF00003485000077
:105ED00020070020003400421C440041A080000044
:105EE0001807002014440041140700201007002068
:105EF000154B70B5186859680500144C0D4319D03E
:105F0000134A21681268116018685968002902DC78
:105F10000AD1002808D01868596801246442E5179E
:105F2000001969411860596010230A4A917B0B439C
:105F3000937370BDFFF7ECFE074B22681B681A6075
:105F4000064B1D70F5E7C046200700201007002013
:105F50001807002000340042140700202807002002
:105F60000020704770B50F26CB1D0139020032406A
:105F7000D5B22C0000093034092A00DD07341C702A
:105F8000013B8B42F2D170BD10B50C000B4B186871
:105F9000FFF7E8FF21000A4B08311868FFF7E2FF1E
:105FA0002100084B10311868FFF7DCFF2100064B79
:105FB00018311868FFF7D6FF202010BD0CA0800014
:105FC00040A0800044A0800048A0800008B4024B9C
:105FD0009C46103808BC6047895F000070473F202E
:105FE000704713B56B460268D971073354681900BE
:105FF0000122A04716BD000070B50A260B7892B0AA
:106000006E44023305000B703C220021300001F089
:1060100058FE394801AC06903848242107900620E4
:1060200020776846364AA1742281364A364BA281CF
:10603000FD3AFF3A8018C177684623390630C177A8
:1060400068460730C17702A8C1770720F277032698
:1060500008316944C87703A9CE7710212B366E44E6
:106060003170092621851F3169440E700CA9053E47
:106070000E7033212380022369440B7006360DA96C
:106080000E7022493536A1863B216E44307010A82F
:106090006274E27702703D3269446A440B70137097
:1060A00040210022E37023716371A37341336B4479
:1060B000218719705A702B7DC039A370A372637742
:1060C0000133DBB2A3776A7D0B200D0068441543D2
:1060D000C5773120684403703A23501C6B44187014
:1060E000412302320A436B441A70210042220848BD
:1060F00000F082FF12B070BD1001042402060524D6
:106100000904000001020000080B00000705000060
:106110009407002008B4024B9C46103808BC604726
:10612000F95F000070B5027D0B790C0000259A42E2
:106130000BD10B784E78A12B09D1212E05D1072246
:106140001F49204800F058FF0135280070BD212B61
:10615000FBD1202E2BD1072219491A4800F082FECC
:10616000174B1A785978090211439A78120411438F
:10617000DA7812060A439621C9008A421DD1DB79DA
:10618000DB071AD4FA20FFF761FC00210D4801F06B
:106190003FF80125232ED8D1E378A2781B021343C0
:1061A000094A00210748136001F032F8CDE7222E9A
:1061B000EFD18A78024BDA71D2E7FFF751FCE4E7BE
:1061C0003C000020940700203800002008B4024B57
:1061D0009C46103808BC60472561000010B5417D21
:1061E000006A013100F068FD034B1B6801335A1E41
:1061F0009341181810BDC0464400002010B5417DE1
:10620000006A023100F06EFD10BD10B5417D006ADC
:10621000023100F035FD10BD70B50D00417D040068
:10622000130002312A00006A00F030FE002801D17C
:106230000123636070BD000010B5054C23685A1C33
:1062400004D103685B69984703002060180010BD03
:1062500044000020074A0300106810B5411C03D019
:1062600001235B42136010BD597D186A013100F0B3
:10627000BDFDF8E744000020704700207047000093
:10628000FA239B0010B583600F4B0022C3820300EA
:10629000283383610D4B04004260C261180044330F
:1062A00023610830631D21622060DA778323A362B3
:1062B000813BE3628033236300F0AEF821001031AC
:1062C00000F07EF8200010BD0302000048850000A9
:1062D000022110B5094B1A68437D5B01D318FF33C7
:1062E0009C7A21439972437D0133DBB25B01D31861
:1062F0000122FF33997A0A439A7210BD4C0C002098
:106300007047000010B502490248FFF7B9FF10BD01
:10631000940700202C07002070B50E00002544686B
:10632000002C0BD0236831005B68200098470028C0
:1063300002DB2D18E468F3E701256D42280070BDEB
:1063400070B50D004468002C08D0236829009B68B4
:1063500020009847002802D1E468F4E7200070BDCF
:1063600070B50D0000264468002C09D02368290070
:1063700020001B69984736182D18F6B2E468F3E739
:1063800030002C7070BD70B50D004468002C08D032
:10639000236829001B6820009847002802D1E46880
:1063A000F4E7200070BD70B50D004468002C06D0E5
:1063B00023682000DB6829009847E468F6E770BD91
:1063C000F0B58C79457803002A190020072A1FDCD4
:1063D0005A68824216D159601A78C8790A7112181F
:1063E0004D711A7000220B4DD0B284420FD98F68C4
:1063F00058789600F759860001307751013258706D
:10640000F2E70200D0680028FBD1D160E4E7012068
:10641000F0BDC0466C0700200121064A10B5136884
:1064200005480B4004D1802464000480436011605F
:1064300010BDC0466007002064070020704710B5FB
:10644000040001F079FA200010BD0000F0B58229A7
:1064500019D1C3B2294D5A01AA189169284C80015B
:106460000C40C02189052143916126490833401819
:106470007021506128685B011A5C8A431100302248
:106480000A431A54F0BD0029FCD1C026C1B21B4CEE
:106490004B01E3189A681A4DB6052A4032439A60B8
:1064A000194A800182185A600A00072724680832B6
:1064B0005201115DB9430F000121394311559F6904
:1064C00010493D4040182E439E6158617020115D77
:1064D0008143080010210143115599680B48A21807
:1064E000084080214903014399609968890B890319
:1064F0009960402311790B431371C3E74C0C0020C2
:10650000FFFFFF8FC007002080090020FF3F00F041
:10651000EFF3108303600123436072B67047036892
:10652000002B02D162B6BFF36F8F7047F7B506003C
:10653000FC36B3690400002B18D1B2277F00C55D7B
:106540006846FFF7E5FF019BEDB2013B02D3E55D35
:10655000EDB2FAE768460193FFF7E1FF002D01D1A4
:106560000020FEBD706E336EC01AFAE76846FFF772
:10657000CFFFD8220025019B5200013B02D3A55C2E
:10658000EDB2FAE768460193FFF7C9FF002DE7D0A7
:10659000D6235B00E058043BE358E5E710B54468B8
:1065A000FC3043690B48DBB25A01A21891680833EA
:1065B0000840802149030143916091685B01890B88
:1065C000890391602268D318402219790A431A710D
:1065D00010BDC046FF3F00F0F7B50500FC356B6904
:1065E0004268DBB219000400083110684901411803
:1065F000C979C90711D55B01D21893689B049B0C1C
:106600000CD12000FFF7CAFF63681A686B69DBB220
:1066100008335B01D3187F22DA71F7BDE9690029DD
:1066200023D16B66230001266933FF33EE61684690
:106630005360B227FFF76CFF7F00B221019BFF314F
:10664000013B5A1C38D0D822E6555200A25C581E95
:10665000D2B26254625C8446002A04D120000193C5
:10666000FFF79CFFE9E76346EBE7D621490063505B
:106670000023EB6123001D33FF3353606846D826A7
:10668000FFF746FF01277600B221019BFF31013B56
:106690005A1C11D0B222A7555200A25C581ED2B289
:1066A0006254625C8446002A04D120000193FFF703
:1066B00075FFE9E76346EBE768460193FFF72FFFB5
:1066C000A2E7F7B5060068463400FFF721FF002770
:1066D000FF22019BFC34013B0DD3E0682169884215
:1066E00004DBE7682069D71B3F18F4E72769E168F6
:1066F0007F1A013FEFE768460193FFF710FFA36998
:106700006846002B52D1FFF703FFB221019B4900DD
:10671000013B5A1C0CD0755C5A1EEDB2002D05D100
:1067200068460193FFF7FBFE2800FEBD1300F0E76B
:10673000684601930025FFF7F2FEFF22236EBD425B
:1067400014D0616E994211D9591CF3182166FF3398
:10675000587FE36821690133C0B213408B4203D0F4
:10676000E16871180872E3600135E7E7626E9A42EA
:10677000DAD1002323660133A3616846B224FFF710
:10678000C7FE6400B2220021019BFF32013B581C6E
:10679000C6D03155B05C5F1E002805D0B154300022
:1067A0000193FFF7FBFEEDE73B00F0E7FFF7B0FEDC
:1067B000D821019B4900013B5A1C06D0755C5A1E2A
:1067C000EDB2002DACD01300F6E768460193FFF759
:1067D000A6FED623D4225B0000259C465200B35867
:1067E000BD4203D061467158994220D86246B258E2
:1067F0009A4299D1D42200235200B3506846A36133
:10680000D824FFF785FE6400B2220021019BFF32ED
:10681000013B581C00D183E73155B05C5F1E002856
:1068200019D0B15430000193FFF7B8FEECE7591CC2
:10683000B150FF21F3186933FF331878E368C0B211
:1068400001330B4021698B4203D0E1687118087253
:10685000E3600135C3E73B00DBE710B50400FFF759
:1068600030FF2300FC331969DA68914203D01B69B9
:10687000E418207A10BD01204042FBE710B5040067
:10688000FC34FFF71EFFE0682369C01A01D5013010
:10689000FF3010BDF0B585B0019200910500FFF703
:1068A00010FF02A8FFF734FE01200024FF26039BFF
:1068B00040425A1E531C1FD02B00FC3301998C42BE
:1068C00018D2D9681F69C91B01D50131FF310029D0
:1068D00010D01969DF688C460100BC4506D01969E3
:1068E0001F69691801373740097A1F61009F3955C0
:1068F0000134E3E7013ADDE702A80392FFF70FFE58
:10690000200005B0F0BD37B56B46DC1D00230D003F
:106910002370FFF781FD2100FFF7FEFC2B6818189C
:10692000286020783EBD0000F7B500244B4B0121C4
:1069300005001F201C70FEF75DFF01211F20FEF7E0
:10694000A5FF474B01211E201C70FEF753FF0121BC
:106950001E20FEF79BFF2023424A0F20D1690B43E4
:10696000D361012240490B7813430B703F4B1978D8
:106970008143197006211C78214319703C490C7819
:1069800022430A701A7802401A70602219780A436A
:106990001A70384B384A5A805F78FF09FCD1374863
:1069A000FEF70AFC0123364C364E2268300011787F
:1069B0000B43137080223900520001F082F92268E3
:1069C0009378DB07FCD456621F262F4B1B68590BAC
:1069D000980C9B01314030405B0FB14200D1052142
:1069E0001F2800D10238072B00D1043B3140890118
:1069F000178D0191254930400F4001993943118588
:106A0000118D0700B143080038431085118D18031C
:106A10001F4B0B407F21034313851378C1200B408C
:106A2000137004232268800011780B430C2113702B
:106A3000226813898B43174913810B581B021B0AC9
:106A40000B5080230B6011787E3B0B4313700123A6
:106A500000212B701048FFF753FCF7BDB50700204D
:106A6000B407002000040040584400413C44004169
:106A700059440041000C00400640000069740000C9
:106A80004C0C0020500C0020246080003FF8FFFFD9
:106A9000FF8FFFFF00E100E02C07002000780028B6
:106AA00010D00121084B1B681A898A431A810822D9
:106AB000198B0A431A830422198B0A431A83002272
:106AC000024B1A607047C0464C0C0020440C00205A
:106AD00010B50F4A93699B0B9B03936113680222C5
:106AE000FF331A729879823A02439A711A7A92079E
:106AF000FCD57F24074A2140937A0800A34319005C
:106B0000802301439172917A5B420B43937210BDD3
:106B10004C0C00200050004110B50C00FFF77CFC2D
:106B20002100FFF730FC002804D1034A93699B0B36
:106B30009B03936110BDC0464C0C0020F7B50D00BF
:106B4000832A19D1CBB2404C5A01A21891693F480F
:106B5000AD010840C0218905014391613C4920688D
:106B60006D187021083355615B011A5C8A4311006E
:106B700040220A431A54F7BD022A5FD1354B8A00DE
:106B8000D058002802D003685B699847DA2040009B
:106B900000F0CEFE802204002B4E2F4B4660036097
:106BA00052000021083001F08CF82200B2210023AD
:106BB000FC324900D3605561136113669361D36160
:106BC0005366635444316350043163500431635459
:106BD000B221FF316354FF202B0003405901019380
:106BE00071188F68194BAD003B40C027BF051F438C
:106BF0008F600727019B366808335B01995DB943B5
:106C00000F000321394399552300516966680140FB
:106C10001D334901FF3371184B60636852691B686B
:106C2000024052019B1801221B18997A20000A4346
:106C30009A72FFF7B3FC074BEC509CE71100280059
:106C4000FFF704FC97E7C0464C0C0020FFFFFF8FC6
:106C5000C007002098070020A885000070B5050037
:106C60000124064BA200D258002A06D02100280099
:106C70000134FFF763FF0A2CF3D170BD6C070020CD
:106C80000B4BCAB20B488901C9185301C31859618B
:106C900099690832890B89039961036852019A182E
:106CA0000223D3715179823B0B4353717047C04625
:106CB000C00700204C0C0020084B8A00D05810B5AB
:106CC000002803D003689B68984710BDC9B2044BE5
:106CD0004901591888688004800CF6E7980700205D
:106CE0004C0C002010B50C00FFF7E6FF00280CD07C
:106CF000064BE4B21B68083464011C1980236279D6
:106D00005B42134363710223E37110BD4C0C0020FE
:106D1000F0B51C00304B85B01B6807000D000292D7
:106D2000002B55D02D4E3178C9B2002902D11E203A
:106D3000FEF7ACFD64233370294BAA00D05800281D
:106D400008D0036822005B6802999847040020007D
:106D500005B0F0BD29003800FFF7AEFF844204D92A
:106D600029003800FFF7A8FF04000121EBB21D4EF7
:106D700003935B010193F21893689B0B9B03936051
:106D8000019A336802989B18FF335A7A0A435A7261
:106D9000154BA901C918220000F08AFF002CD6D09B
:106DA00029003800FFF788FF0028D0D14021039B3D
:106DB000326808335B01D318187901431971012136
:106DC000D971019BD318FF339A7A0A439A72BEE7AE
:106DD00001246442BBE7C046440C0020B4070020F5
:106DE000980700204C0C00208009002013B56B464A
:106DF000DC1D22000123FFF78BFF012801D1207841
:106E000016BD01204042FBE770B5CBB2124A1348D1
:106E10005C0189018918021951609168104D08338D
:106E20000D40802149032943402591609168890BD9
:106E30008903916001685A018A18167935431571E2
:106E400095796D06FCD55B01C918CB79DB07FCD5BC
:106E500000198068C0B270BD800900204C0C002071
:106E6000FF3F00F070B50D0000211400FFF7CCFFCC
:106E7000A04200D9200000230349A34203D0CA5CEA
:106E8000EA540133F9E770BD80090020F0B51E0017
:106E90003F4B85B01B680F000192002B3FD0802331
:106EA000DB019E423BD83B4C2178C9B2002902D17C
:106EB0001F20FEF7EBFC642300252370364BBA013C
:106EC000D3180293002E2CD0344B1B680393FF235E
:106ED0003B401C0000930834039B64011C19A379F8
:106EE000DB0921D02E4B2F49186800F033FD2E4BC3
:106EF0001721584300F02EFD2C4BE279920713D452
:106F0000DA5D002A01D10138F7D20122DA55009B5F
:106F10005A01224B9B189A69920B92039A610125A0
:106F20006D42280005B0F0BD0022204B3400DA5538
:106F30003F2E09D9009B40245A01184B9B188022F0
:106F4000996912060A439A6122000199029800F099
:106F5000AFFE009BA1045A01104B890C9B18029AAA
:106F60002D195A619A69361B920B92030A439A6152
:106F7000009B039A08335B01D3180222DA71597916
:106F8000823A0A435A71019B1B1901939AE7C04642
:106F9000440C0020B5070020C00700204C0C002046
:106FA0001C00002040420F0070110100B7070020B4
:106FB00070B50D001C000D4BAE01F618110030002D
:106FC000220000F075FEEDB209496D014D196E61A8
:106FD000AB69084A20001340AB61AB69A2049B0B6C
:106FE000920C9B031343AB6170BDC046C0070020E9
:106FF0004C0C0020FF3F00F0F7B5104B01901B78C0
:107000000F001500002B0CD10D4B16001C78002C26
:1070100009D00C4E0C4834882018641900F048FE42
:1070200034802800FEBD002EFBD03A193300002129
:107030000198FFF7BDFF2418361AF4E7400B002033
:10704000410C0020420C0020410B0020F8B50F003D
:1070500016000024012A26D9100000F015FE0500B4
:10706000380000F0F1FE03230222013040002870B6
:107070006B7096420DD9397800290AD0531CDBB2C7
:107080000137A9549E4203D00232EC54D2B2F0E749
:10709000320029000548FFF7AFFF441EA041C4B2EB
:1070A000280000F0FBFD2000F8BDC046940700203A
:1070B000F0B50024012685B0184B0F0069461E70FC
:1070C00005000094FFF71FFC154B01A90B806A3BDC
:1070D000FF3BCB715A330B72009B8C7109334B8091
:1070E0000E4B4E7108711C703A00092F0FD00D4FD6
:1070F00009223E700C4E280000943480FFF77CFF7C
:1071000069462800FFF7FFFB328808493C702800D9
:10711000FFF772FF012005B0F0BDC046400B002014
:1071200009020000410C0020420C0020410B00200D
:1071300070B5CE7892B005000C00022E0BD18B7981
:10714000C9792E4809021943FFF7B2FF411E884151
:10715000C0B212B070BDFFF75FF92100FFF7F0F881
:10716000002803D0C117081AC00FF2E7012E0ED174
:10717000E279A37912021A432149112A3CD8D2B2EA
:10718000002A39D02800FFF737FF0120E1E7032E5E
:10719000DFD1A378002B28D0022B08D1E279A37984
:1071A000120218491A432800FFF750FFD1E7012BBC
:1071B00005D1E279A37912021A431349F3E7032BAD
:1071C000C7D10100412201A800F07BFDFFF724F99F
:1071D00001A9FFF7C5F8002805D0E279A3791202CA
:1071E0001A4301A9DFE70378FFDEE279A3791202EF
:1071F0001A430649032AC2D90A78C3E79407002034
:10720000DC850000C4850000D4850000D085000026
:10721000CBB204495B01C9188B699B0B9B038B6143
:107220007047C0464C0C002037B5050048780C006C
:107230000B2810D800F084FB061B0F2B0F40456174
:10724000494C5A5D097801AA002906D10223118010
:107250002800FFF7ADFE01203EBD00231380284B20
:107260001B78012B00D1137002230021F0E78A78EC
:107270000023012A03D101AA1380224BF0E7204A00
:107280001370214A93699B0B9B039361E3E78C780E
:10729000012C06D100211B4B01AA1C701170230088
:1072A000D6E70120002CD7D1154B174A18709369E7
:1072B0009B0B9B039361CFE789782800FFF708FCBD
:1072C000C9E72800FFF734FFC6E701230F4ACCE7E0
:1072D0000B780020DB06BFD12800FFF7BFFCA278A7
:1072E0000A4B0B481A60FEF7F3FFCAE70123094A6D
:1072F000BBE78A78074B1A60C3E70020ACE7C046BB
:10730000B6070020BE0700204C0C0020440C0020D3
:107310002C070020480C00204B4BF7B51E780500C9
:10732000002E00D07EE0494C23689A8B12070DD5C1
:10733000082231009A833000FFF788F81022236872
:10734000FF33997A0A439A72414B1E6023689A8BE5
:1073500052071FD504229A833E4A1378002B0AD085
:107360001378013BDBB213701378002B03D101219A
:107370001F20FEF78BFA384A1378002B0AD01378B7
:10738000013BDBB213701378002B03D101211E20C7
:10739000FEF77CFA2368FF331A7A920603D520227F
:1073A000597A0A435A721A7AD20623D569460800D6
:1073B0002A4AC0CAC0C0A268920B9203A2604022AF
:1073C000587902435A7160230A7828001A422AD158
:1073D000FFF72AFF2368FF33002827D080229979FE
:1073E00052420A439A711A7A520603D54022597AB8
:1073F0000A435A727F2601252368FF331E722F002D
:10740000236808377F01DB19DB79002B07D0144B89
:10741000AA00D05800280DD003681B689847013592
:10742000082DECD1F7BDFFF777FBD3E720210D4AFC
:107430009171D8E7FEF7F0FF2900FEF7B4FF23684B
:10744000DF19FE71EBE7C046410C00204C0C002018
:10745000440C0020B5070020B4070020800900205C
:1074600098070020FF50004110B50248FFF754FF75
:1074700010BDC04694070020014B024A1A607047B5
:107480004C0C0020005000410120704710B50368EB
:10749000014A1B6A984710BD130400000300FC3327
:1074A000D9699A69914203D0DB69C018007D7047A1
:1074B00001204042FBE710B504000069FEF746FBDF
:1074C00022000023FC329361D36186229200A4182B
:1074D0006360A36010BDF02001403039484248414C
:1074E0007047F0231B011940802306209B0099421E
:1074F0000AD00133FF330130994205D0802302388E
:107500005B00994200D0002070470F20014000200E
:10751000012903D00239481E8141481C70470000F0
:107520008923F0B5182685B002919B000400C05C49
:10753000330008214343324D1700EB185956FEF72C
:10754000E9F9304B0821E05C33004343EB1859560E
:10755000FEF7E0F92C4BE25C0393022A09D11133C8
:10756000E05CFF2805D008214643AE197156FEF7AE
:10757000D1F98A26B600A05DFF2819D00121FEF7B7
:1075800039F91822A35D21495A43AB56AD18DB01E6
:1075900058188B21890060501D4901225B188C21ED
:1075A0008900635069688A408D21890062501A60A1
:1075B0000122029B11002069FEF774FB39002000B4
:1075C000FFF78FFF390005002000FFF79EFF39000D
:1075D00006002000FFF77FFF33000090290020699C
:1075E0000122FEF783FA0B4B2069E25C039BE15C0E
:1075F000FEF799FA2069FEF7B6FA05B0F0BDC0466D
:10760000A08000002502000027020000184400416D
:107610001444004126020000802210B504005200EC
:10762000002100F04EFB23000022FC335A602000B2
:107630009A6010BDF7B51D0008AB1B7804000093DD
:1076400009AB1B781600019300234360FA239B00CB
:107650008360114B0F00083303601430FFF7DCFF29
:1076600020001D30FF30FFF7D7FF89236A469B00BB
:107670002761E654094B1278E554094B2000E25487
:107680006A46084B1279E2548A22293BFF3B92005A
:10769000A3541032A354FEBDF08500002502000063
:1076A00026020000270200000300FC3358689B6894
:1076B000C01A01D50130FF30704710B5040020001A
:1076C0001D30FF30FFF7F0FF0028F8D12069FEF7EA
:1076D00054FA10BD10B51430FFF7E6FF10BD0300DB
:1076E000FC3359689A68914204DB5A689868801A9A
:1076F000FF30704798685B68C01A0138F9E710B529
:107700001D30FF30FFF7EBFF10BD10B5040000691E
:10771000FEF74FFA002805D02069FEF75AFA2069D3
:10772000FEF74CFA2069FEF734FA002820D02069D1
:10773000FEF74FFA2200FC329369D1690133DBB2C4
:107740008B4203D091696118087593618A239B006D
:10775000E35CFF2B0CD020001430FFF7C0FF09289A
:1077600006DC8B238D229B009200E358A2581A60FE
:107770002069FEF729FA00281AD020001D30FF30BA
:10778000FFF792FF002822D086239B00E318996818
:107790005A68914218D08E219A684900A218515C0B
:1077A0009A680132D2B29A60C9B22069FEF715FA1E
:1077B0002069FEF7F3F9002805D02069FEF7F2F9F9
:1077C0002069FEF7E2F910BD01214942ECE720698A
:1077D000FEF70FFAECE7000070B5040000690D0039
:1077E000FEF7F2F900283ED1FF2686239B00E3181E
:1077F0005A689968013232408A4223D1EFF31083EC
:10780000DB0710D41E4B5B68DB05DB0DEDD0103BB6
:107810005BB2002B10DA0F221340083B9B08194A79
:107820009B009B181B682069FEF7CEF90028DCD06E
:107830002000FFF76AFFD8E79B08C033124A9B007D
:107840009B58F0E75A68013216409A68964205D074
:107850008E215A684900A21855545E602069FEF7CF
:10786000C4F9012070BD20001D30FF30FFF71CFF60
:107870000028B9D129002069FEF7AFF9F1E7C04629
:1078800000ED00E01CED00E000E100E0030070B559
:10789000FC33D9699A69040091421AD0DA698218D6
:1078A000157DDA690132D2B2DA618A239B00E35C8A
:1078B000FF2B0CD020001430FFF711FF0A2806DD43
:1078C0008C238D229B009200E358A2581A60280056
:1078D00070BD01256D42E8E710B51C00431A0298FF
:1078E000511A001B584300F0BFF8001910BD704733
:1078F00010B5FDF775FD00F0A3F9FFF7F8FF0120C3
:10790000FDF796FC084C2000FFF70EF82000FFF76B
:10791000C5F8FCF7A1FCFCF707FD044B002BFAD0DF
:1079200000E000BFF7E7C046940700200000000019
:1079300010B500F0A9F910BD10B500F0AFF910BDF9
:1079400002B4714649084900095C49008E4402BCF2
:107950007047C046002243088B4274D303098B4210
:107960005FD3030A8B4244D3030B8B4228D3030C0F
:107970008B420DD3FF22090212BA030C8B4202D3B1
:107980001212090265D0030B8B4219D300E0090AD9
:10799000C30B8B4201D3CB03C01A5241830B8B42E2
:1079A00001D38B03C01A5241430B8B4201D34B03CB
:1079B000C01A5241030B8B4201D30B03C01A524130
:1079C000C30A8B4201D3CB02C01A5241830A8B42B5
:1079D00001D38B02C01A5241430A8B4201D34B029E
:1079E000C01A5241030A8B4201D30B02C01A524102
:1079F000CDD2C3098B4201D3CB01C01A52418309B6
:107A00008B4201D38B01C01A524143098B4201D3EF
:107A10004B01C01A524103098B4201D30B01C01A1A
:107A20005241C3088B4201D3CB00C01A5241830894
:107A30008B4201D38B00C01A524143088B4201D3C1
:107A40004B00C01A5241411A00D201465241104621
:107A50007047FFE701B5002000F0F0F802BDC04616
:107A60000029F7D076E7704703460B437FD4002206
:107A700043088B4274D303098B425FD3030A8B42C2
:107A800044D3030B8B4228D3030C8B420DD3FF222C
:107A9000090212BA030C8B4202D31212090265D0FA
:107AA000030B8B4219D300E0090AC30B8B4201D3AD
:107AB000CB03C01A5241830B8B4201D38B03C01AF4
:107AC0005241430B8B4201D34B03C01A5241030B6B
:107AD0008B4201D30B03C01A5241C30A8B4201D31C
:107AE000CB02C01A5241830A8B4201D38B02C01AC7
:107AF0005241430A8B4201D34B02C01A5241030A3E
:107B00008B4201D30B02C01A5241CDD2C3098B4222
:107B100001D3CB01C01A524183098B4201D38B019F
:107B2000C01A524143098B4201D34B01C01A524142
:107B300003098B4201D30B01C01A5241C3088B4287
:107B400001D3CB00C01A524183088B4201D38B0072
:107B5000C01A524143088B4201D34B00C01A524114
:107B6000411A00D201465241104670475DE0CA0FEB
:107B700000D04942031000D34042534000229C46AB
:107B800003098B422DD3030A8B4212D3FC228901B5
:107B900012BA030A8B420CD3890192118B4208D38B
:107BA000890192118B4204D389013AD0921100E0ED
:107BB0008909C3098B4201D3CB01C01A5241830901
:107BC0008B4201D38B01C01A524143098B4201D32E
:107BD0004B01C01A524103098B4201D30B01C01A59
:107BE0005241C3088B4201D3CB00C01A52418308D3
:107BF0008B4201D38B00C01A5241D9D243088B4229
:107C000001D34B00C01A5241411A00D201466346CB
:107C100052415B10104601D34042002B00D549422F
:107C2000704763465B1000D3404201B5002000F06E
:107C300005F802BD0029F8D016E770477047C04626
:107C400070B500260C4D0D4C641BA410A64209D142
:107C5000002600F011F90A4D0A4C641BA410A6423C
:107C600005D170BDB300EB5898470136EEE7B3007D
:107C7000EB5898470136F2E7AC000020AC0000203A
:107C8000AC000020C000002010B5034B01001868B4
:107C900000F06AF810BDC0464800002010B5034B44
:107CA0000100186800F016F810BDC046480000201A
:107CB000002310B59A4200D110BDCC5CC4540133EE
:107CC000F8E703001218934200D17047197001338E
:107CD000F9E7000070B50500002910D00C1F2368DB
:107CE000002B00DAE418280000F0B5F81D4A1368EC
:107CF000002B05D163601460280000F0ADF870BD62
:107D0000A34209D9216860188342F3D118685B68DF
:107D100041182160EEE713005A68002A01D0A24200
:107D2000F9D919685818A0420BD1206809185818B9
:107D300019608242E0D110685268411819605A6097
:107D4000DAE7A04202D90C232B60D5E7216860183E
:107D5000824203D1106852684118216062605C6001
:107D6000CAE7C046500D0020032370B5CD1C9D43CB
:107D7000083506000C2D1ED20C25A9421DD8300056
:107D800000F069F8254A14682100002919D1244C13
:107D90002368002B03D1300000F044F82060290054
:107DA000300000F03FF8431C2BD10C23300033602F
:107DB00000F052F803E0002DDFDA0C2333600020DE
:107DC00070BD0B685B1B19D40B2B03D90B60CC184F
:107DD000256003E04B688C420DD11360300000F049
:107DE0003BF8200007220B30231D9043C31AE7D035
:107DF0005A42E250E4E763600C00EFE70C00496888
:107E0000C3E70323C41C9C43A042E1D0211A3000E5
:107E100000F008F8431CDBD1C7E7C046500D002036
:107E2000540D0020002370B5064C050008002360A7
:107E300000F014F8431C03D12368002B00D02B6002
:107E400070BDC0465C0D00200023C25C0133002AD7
:107E5000FBD1581E7047704770470000044A1368F2
:107E6000002B00D1034B1818106018007047C04653
:107E7000580D0020600D0020F8B5C046F8BC08BCC5
:107E80009E467047F8B5C046F8BC08BC9E46704791
:107E900001FF0000000000000000000000000000E2
:107EA000000042420000000000000000000000004E
:107EB000000042530000000000000000000000002D
:107EC00000000000000000000000000000000000B2
:107ED00000000000000000000000000000000000A2
:107EE000000042420000000000000000000000000E
:107EF000000042535300000000000000000000009A
:107F00000000425353000000000000000000000089
:107F10000000425353000000000000000000000079
:107F200000004242000000000000000000000000CD
:107F30000000000000000000000000000000000041
:107F400000004200000000000000000000000000EF
:107F500000004200000000000000000000000000DF
:107F600000004200000000000000000000000000CF
:107F70000000000000000000000000000000000001
:107F800000004200000000000000000000000000AF
:107F9000000042000000000000000000000000009F
:107FA000000042000000000000000000000000008F
:107FB000000042420000000000000000000000003D
:107FC000000042420000000000000000000000002D
:107FD00000000000000000000000000000000000A1
:107FE0000000000000000000000000000000000091
:107FF0000000000000000000000000000000000081
:108000000000000000000000000000000000000070
:108010000000000000000000000000000000000060
:108020000000000000000000000000000000000050
:108030000000000000000000000000000000000040
:108040000000000000000000000000000000000030
:108050000000000000000000000000000000000020
:108060000000000000000000000000000000000010
:108070000000010100010100FFFFFF0101FF50436B
:10808000206D6F64653A204B6F6F76312E30007330
:1080900070007100000072750000007600777400B7
:1080A000000000000B0000000200000004000000BF
:1080B000FF00FFFFFFFF0B00000000000A000000B0
:1080C0000200000004000000FF00FFFFFFFF0A00A5
:1080D0000000000008000000040000001C00000078
:1080E000FF0000000000FF00000000000900000089
:1080F000040000001C000000FF0001000100090056
:10810000000000000E000000040000001C00000041
:10811000FF00000300030E00000000000F0000003D
:10812000040000001C000000FF00010301030F0019
:108130000000000014000000050000002C000000FA
:10814000FF00020002000400000000001500000013
:10815000050000002C000000FF00030003000500E4
:108160000000000006000000040000001C000000E9
:10817000FF000001000106000000000007000000F1
:10818000040000001C000000FF00010101010700C5
:108190000000000012000000040000001C000000AD
:1081A000FF000003000302000000000010000000B8
:1081B000040000001C000000FF000002000200009C
:1081C0000000000013000000040000001C0000007C
:1081D000FF00010301030300000000001100000084
:1081E000040000001C000000FF0001020102010069
:1081F000FF00000000000000FF0000000000000081
:10820000FF00FFFFFFFFFF00000000000300000071
:108210000100000002000000FF00FFFFFFFFFF0061
:108220000000000016000000020000000400000032
:10823000FF00FFFFFFFF0600000000001700000026
:108240000200000004000000FF00FFFFFFFF070026
:10825000000000000C00000003000000040000000B
:10826000FF00FFFFFFFF0C00FF0000000000000008
:10827000FF00000000000000FF00FFFFFFFFFF0005
:10828000010000000B0000000300000004000000DB
:10829000FF00FFFFFFFF0B00010000000A000000CD
:1082A0000300000004000000FF00FFFFFFFF0A00C2
:1082B000FF00000000000000FF00000000000000C0
:1082C000FF00FFFFFFFFFF00FF00000000000000B5
:1082D000FF00000000000000FF00FFFFFFFFFF00A5
:1082E0000000000002000000010000000200000089
:1082F0000000FFFFFFFF0200010000000800000077
:1083000001000000020000000200FFFFFFFF080064
:108310000100000009000000010000000200000050
:108320000300FFFFFFFF0900000000000400000041
:1083300001000000020000000400FFFFFFFF040036
:108340000000000005000000010000000200000025
:108350000500FFFFFFFF0500010000000200000014
:1083600001000000020000000A00FFFFFFFF020002
:1083700001000000030000000B00000004000000EA
:10838000FF00FFFFFFFFFF00000000001B000000D8
:108390000B00000004000000FF00FFFFFFFFFF00D4
:1083A000000000001C0000000600000000000000AB
:1083B000FF00FFFFFFFFFF000000000018000000AB
:1083C0000600000000000000FF00FFFFFFFFFF00AD
:1083D000000000001900000006000000000000007E
:1083E000FF00FFFFFFFFFF0001000000160000007C
:1083F0000300000000000000FF00FFFFFFFFFF0080
:108400000100000017000000030000000000000051
:10841000FF00FFFFFFFFFF0000000000160000004C
:108420000200000000000000FF00FFFFFFFFFF0050
:108430000000000017000000020000000000000023
:10844000FF00FFFFFFFFFF0000000000130000001F
:108450000200000000000000FF00FFFFFFFFFF0020
:1084600000000000100000000200000000000000FA
:10847000FF00FFFFFFFFFF000000000012000000F0
:108480000200000000000000FF00FFFFFFFFFF00F0
:1084900000000000110000000200000000000000C9
:1084A000FF00FFFFFFFFFF00000000000D000000C5
:1084B000040000000C000000FF000100FFFF0D00A1
:1084C0000000000015000000050000000C00000086
:1084D000FF000300FFFFFF00000000000600000097
:1084E000040000000C000000FF000001FFFFFF007F
:1084F0000000000007000000040000000C00000065
:10850000FF000101FFFFFF0000000000020000006B
:1085100001000000020000001400FFFFFFFF020046
:108520001A001A001B001B001C001C001D001D006F
:108530000D0A000000010002000300040000000515
:10854000000000060000000700000000000000001E
:10855000E35F000019620000DF5F0000FD610000C2
:10856000DD61000055620000396200000B6200000E
:10857000F95F0000615F000025610000895F000075
:10858000DD5F0000F0FFFFFF00000000CD61000094
:10859000156100007B62000079620000CD5F000081
:1085A0000000000000000000D96500009568000090
:1085B0007D6800005B6800003D6400003F640000CF
:1085C0002D65000041726475696E6F204D300000AA
:1085D00004030904556E6B6E6F776E001201000282
:1085E000EF020140032A4E80000101020301000056
:1085F0000000000000000000D9770000D5590000FD
:10860000FF760000BB760000D57600008D78000074
:108610009D7400008D74000021750000B774000087
:08862000897400000000000055
:1086280004FF6E000020004200240042002800429F
:10863800002C0042003000420034004240420F004B
:108648000A0000000A00000008000000FFFFFFFF0A
:10865800FFFFFFFF00366E01FFFFFFFF00C20100B2
:1086680000000800FFFFFFFF4C0000200000000092
:1086780000000000000000000000000000000000F2
:1086880000000000000000000000000000000000E2
:1086980000000000000000000000000000000000D2
:1086A80000000000000000000000000000000000C2
:1086B80000000000000000000000000000000000B2
:1086C800000000000000000000000000DD40000085
:1086D8002D4200003D4F0000056300007974000042
:0486E800B540000099
:040000030000515553
:00000001FF
