:100000000C945D000C9485000C9485000C94850084
:100010000C9485000C9485000C9485000C9485004C
:100020000C9485000C9485000C9485000C9485003C
:100030000C9485000C9485000C9485000C9485002C
:100040000C9488040C9485000C9456040C94300491
:100050000C9485000C9485000C9485000C9485000C
:100060000C94D2040C9485000000000800020100EA
:100070000003040700000000000000000000000072
:10008000250028002B0000000000240027002A0083
:10009000040404040404040402020202020203032E
:1000A0000303030301020408102040800102040836
:1000B0001020010204081020F10511241FBECFEF0B
:1000C000D8E0DEBFCDBF26E0AEE8B2E001C01D92B1
:1000D000A930B207E1F712E0A0E0B1E0EEE0FCE108
:1000E00002C005900D92AE38B107D9F710E0CDE50A
:1000F000D0E004C02197FE010E945F09CC35D107F2
:10010000C9F70E942A060C94050E0C940000982F43
:1001100020915B0581E0213208F043C080913705D2
:100120008111FCCF80915A0532E0309337059093CE
:1001300036059FEF909335051092340520933305D3
:10014000AAE3B5E0E3E1F5E090E0291331C01092B5
:10015000120590911205880F892B809312058091CA
:100160001105813049F51092110580911205809397
:10017000BB008091BC0083FDF8CF85EC8093BC0070
:10018000809137058230E1F3809135058F3FB1F0E2
:10019000809135058032A1F080913505803391F052
:1001A00084E01092390510925B051092380508958D
:1001B0003D9131939F5FC9CF85EEE0CF80E0F1CFD5
:1001C00082E0EFCF83E0EDCF91E09093380580930C
:1001D0005A051092390510925B05089590913705E4
:1001E0009111FCCF91E090933705909336052FEF56
:1001F0002093350510923405260F209333059093F4
:10020000120590911205880F892B80931205809119
:1002100011058130F9F41092110580911205809337
:10022000BB008091BC0083FDF8CF85EC8093BC00BF
:10023000809137058130E1F380913405861710F401
:1002400060913405A3E1B5E0E1EFF4E080E08613CE
:1002500003C0089585EEEACF9D9191938F5FF7CF0C
:100260008091DE029091DF02891B990B0895089519
:100270000895AF92BF92CF92DF92EF92FF920F93C9
:100280001F93CF93DF936C017B018B01040F151F2C
:10029000EB015E01AE18BF08C017D10759F0699194
:1002A000D601ED91FC910190F081E02DC6010995F8
:1002B000892B79F7C501DF91CF911F910F91FF90A5
:1002C000EF90DF90CF90BF90AF900895FC01538DD9
:1002D000448D252F30E0842F90E0821B930B541720
:1002E00010F0CF96089501970895FC01918D828DAD
:1002F000981761F0A28DAE0FBF2FB11D5D968C9146
:10030000928D9F5F9F73928F90E008958FEF9FEF84
:100310000895FC01918D828D981731F0828DE80F40
:10032000F11D858D90E008958FEF9FEF0895FC01FA
:10033000918D228D892F90E0805C9F4F821B9109C7
:100340008F73992708958CE595E00E94970121E02D
:10035000892B09F420E0822F089580E090E0892B1A
:1003600029F00E94A30181110C9400000895FC0162
:10037000A48DA80FB92FB11DA35ABF4F2C91848D06
:1003800090E001968F739927848FA689B7892C9363
:10039000A089B1898C91837080648C93938D848DB6
:1003A000981306C00288F389E02D80818F7D8083B9
:1003B0000895EF92FF920F931F93CF93DF93EC0179
:1003C00081E0888F9B8D8C8D98131AC0E889F989FC
:1003D000808185FF15C09FB7F894EE89FF896083FF
:1003E000E889F98980818370806480839FBF81E080
:1003F00090E0DF91CF911F910F91FF90EF900895C2
:10040000F62E0B8D10E00F5F1F4F0F731127E02E9C
:100410008C8D8E110CC00FB607FCFACFE889F989D4
:10042000808185FFF5CFCE010E94B701F1CFEB8D22
:10043000EC0FFD2FF11DE35AFF4FF0829FB7F894A8
:100440000B8FEA89FB8980818062CFCF682F8CE592
:1004500095E00C94D901CF93DF93EC01888D88232C
:10046000B9F0AA89BB89E889F9898C9185FD03C017
:10047000808186FD0DC00FB607FCF7CF8C9185FFFC
:10048000F2CF808185FFEDCFCE010E94B701E9CF89
:10049000DF91CF91089590E0FC01E859FF4F24913E
:1004A000FC01EC55FF4F3491FC01E057FF4FE49104
:1004B000EE23C9F0222339F0233001F1A8F42130D2
:1004C00019F1223029F1F0E0EE0FFF1FE458FF4F41
:1004D000A591B4918FB7F894EC91611126C0309535
:1004E0003E233C938FBF08952730A9F02830C9F0F0
:1004F000243049F7809180008F7D03C08091800077
:100500008F7780938000DFCF84B58F7784BDDBCF7A
:1005100084B58F7DFBCF8091B0008F778093B00042
:10052000D2CF8091B0008F7DF9CF3E2BDACF3FB78D
:10053000F8948091D6029091D702A091D802B09100
:10054000D90226B5A89B05C02F3F19F00196A11D21
:10055000B11D3FBFBA2FA92F982F8827BC01CD010D
:10056000620F711D811D911D42E0660F771F881F6C
:10057000991F4A95D1F708958F929F92AF92BF929B
:10058000CF92DF92EF92FF920E9497024B015C01A3
:100590008AE0C82ED12CE12CF12C0E949702681918
:1005A00079098A099B09683E734081059105A8F382
:1005B00021E0C21AD108E108F10888EE880E83E034
:1005C000981EA11CB11CC114D104E104F10429F747
:1005D000FF90EF90DF90CF90BF90AF909F908F9063
:1005E000089585ED8093BC008091BC0084FDFCCF14
:1005F0001092370508952091AE02260F3327331F3E
:1006000021323105ECF420913705FC0190E080E0C7
:10061000243069F082E00895A091AE022191AC01EE
:1006200042575D4FA40FB52FB11D2C93019686172D
:1006300098F38091AE02680F6093AE0280E0089557
:1006400081E008950895E091DF028091DE02E817CD
:1006500030F4F0E0EF50FB4F808190E008958FEF91
:100660009FEF08959091DF028091DE022FEF3FEF20
:10067000981748F4E92FF0E0EF50FB4F208130E06D
:100680009F5F9093DF02C9010895CF92DF92EF92AE
:10069000FF920F931F93CF93DF937C01CB018A01CD
:1006A00020913805222389F0EB016B01C40ED51E81
:1006B000CC15DD0569F06991D701ED91FC910190B0
:1006C000F081E02DC7010995F3CF642F0E94FB0252
:1006D000C801DF91CF911F910F91FF90EF90DF90B4
:1006E000CF900895CF93DF931F92CDB7DEB7698384
:1006F000209138052223F9F020915B05203258F033
:1007000021E030E0FC013383228390E080E00F9011
:10071000DF91CF91089580913905E82FF0E0E65CF4
:10072000FA4F998190838F5F8093390580935B05A1
:1007300081E090E0ECCF61E0CE0101960E94FB02E7
:10074000F7CF682F89EF95E00C94720390E080E07A
:1007500008958FEF90E00E94260285E590E00E94C8
:10076000260260E08CE595E00C94D901CF93DF93ED
:1007700049E150E06BE672E08CE595E00E943901BA
:10078000EC0142E050E065E872E08CE595E00E9403
:1007900039018C0F9D1FDF91CF910895EF92FF9249
:1007A0000F931F93CF93DF938C01EB01E0EEF2E008
:1007B00080E091E0DF019C011D9221503040E1F783
:1007C000AB01B801CF010E94470B22967E013CEF9E
:1007D000E32282E50E94E40089E290E00E94A10306
:1007E00060E089EF95E00E947203BE0176956795FF
:1007F0007695679589EF95E00E94720381E00E94EB
:100800008700D0E0C0E082E5CE15DF05D0F40E947D
:10081000E40089E390E00E94A1034E2D4C1B4D3073
:1008200008F04CE050E0B8016C0F7D1F89EF95E0B7
:100830000E94450381E00E9487000E94BC022C9622
:10084000E2CF0E94E40089E590E00E94A10381E0EC
:10085000DF91CF911F910F91FF90EF900C94870043
:100860001F920F920FB60F9211242F933F934F9325
:100870005F936F937F938F939F93AF93BF93EF9308
:10088000FF938CE595E00E94B701FF91EF91BF9136
:10089000AF919F918F917F916F915F914F913F9118
:1008A0002F910F900FBE0F901F9018951F920F92CF
:1008B0000FB60F9211242F938F939F93EF93FF9373
:1008C000E0916C05F0916D058081E0917205F091E9
:1008D000730582FD1BC09081809175058F5F8F73BA
:1008E00020917605821741F0E0917505F0E0E45A19
:1008F000FA4F958F80937505FF91EF919F918F919E
:100900002F910F900FBE0F901F9018958081F4CFFC
:100910001F920F920FB60F9211242F933F938F9334
:100920009F93AF93BF938091D2029091D302A091F5
:10093000D402B091D5023091D10223E0230F2D379C
:1009400058F50196A11DB11D2093D1028093D202CA
:100950009093D302A093D402B093D5028091D60293
:100960009091D702A091D802B091D9020196A11D11
:10097000B11D8093D6029093D702A093D802B09372
:10098000D902BF91AF919F918F913F912F910F907D
:100990000FBE0F901F90189526E8230F0296A11DF9
:1009A000B11DD2CF1F920F920FB60F9211242F9329
:1009B0003F934F935F936F937F938F939F93AF93E7
:1009C000BF93EF93FF938091B900887F803609F43D
:1009D0004AC0F0F5883209F4A7C018F5803109F44F
:1009E0009BC0B8F4882309F4F9C0883009F494C096
:1009F000FF91EF91BF91AF919F918F917F916F91F7
:100A00005F914F913F912F910F900FBE0F901F90CC
:100A10001895883109F488C0803251F780933505E4
:100A200014C0803409F49DC040F48033B9F3883396
:100A3000F9F68093350585ECB0C0803509F485C0A2
:100A4000883509F496C0883499F60E94F102D0CF17
:100A5000883909F48CC038F5883729F050F4883685
:100A600011F0803729F683E0809337051092D00289
:100A700057C0883809F47BC0803919F0803809F0F4
:100A8000B7CF8091D002803208F071C0E091D002DF
:100A900081E08E0F8093D0028091BB00F0E0E055A2
:100AA000FD4F80833DC0803B39F0E0F4803A09F48B
:100AB00079C0883A09F09CCF84E080933705109282
:100AC000AF021092AE02E091DC02F091DD020995D6
:100AD0008091AE0281110FC081E08093AE0210922E
:100AE0008E0209C0803C09F4A6CF883C09F4A3CF4C
:100AF000883B09F07DCFE091AF0281E08E0F8093BB
:100B0000AF02F0E0E257FD4F80818093BB009091EF
:100B1000AF028091AE0229C0809112058093BB0084
:100B200085EC8093BC0064CF9091340580913305AF
:100B3000981758F5E091340581E08E0F80933405C5
:100B4000F0E0ED5EFA4F8081E9CFE091340581E07D
:100B50008E0F809334058091BB00F0E0ED5EFA4F7C
:100B6000808390913405809133059817C8F285E809
:100B7000D8CFE091340581E08E0F809334058091C9
:100B8000BB00F0E0ED5EFA4F808380913605811165
:100B90005CCF81E08093110584EA8093BC001092C1
:100BA000370526CF85EC8093BC00109237058091E5
:100BB000D002803230F4E091D002F0E0E055FD4FF9
:100BC00010826091D00270E0E091DA02F091DB02D5
:100BD00080EB92E009951092D0020ACF1092350571
:100BE00034CFECE5F5E01382128288EE93E0A0E0CA
:100BF000B0E084839583A683B7832BE432E031830E
:100C0000208325EC30E03587248724EC30E03787DB
:100C1000268720EC30E0318B208B21EC30E0338BC9
:100C2000228B22EC30E0358B248B26EC30E0378BA6
:100C3000268B118E128E138E148EE9EFF5E013823F
:100C4000128284839583A683B7838DE592E0918396
:100C500080830895CF93DF9300D01F92CDB7DEB786
:100C6000789484B5826084BD84B5816084BD85B587
:100C7000826085BD85B5816085BD80916E00816093
:100C800080936E0010928100809181008260809339
:100C9000810080918100816080938100809180003B
:100CA0008160809380008091B10084608093B10066
:100CB0008091B00081608093B00080917A00846060
:100CC00080937A0080917A00826080937A0080918C
:100CD0007A00816080937A0080917A0080688093A6
:100CE0007A001092C10014BE0FB6F894A8958091B6
:100CF0006000886180936000109260000FBEE091F8
:100D00006C05F0916D0582E08083E0916805F091BB
:100D100069051082E0916A05F0916B0580E180839E
:100D200010927405E0917005F091710586E0808362
:100D3000E0916E05F0916F05808180618083E09184
:100D40006E05F0916F05808188608083E0916E056B
:100D5000F0916F05808180688083E0916E05F0914D
:100D60006F0580818F7D80831092DF021092DE02FA
:100D70001092390510925B051092370581E080933F
:100D800036051092110561E082E10E944B0261E09C
:100D900083E10E944B028091B9008E7F8093B9005D
:100DA0008091B9008D7F8093B90088E48093B8006A
:100DB00085E48093BC0087E391E09093DD0280930B
:100DC000DC0288E391E09093DB028093DA020E94D8
:100DD000B60370EE472E73E0572EE0EE6E2EE2E083
:100DE0007E2EF8E8CF2EF2E0DF2EA0E08A2EA0E0E3
:100DF0009A2E8CE595E00E949701181619060CF0C2
:100E00006DC08CE595E00E947501E091F00491E0E1
:100E10009E0F9093F004F0E0E051FC4F80839230FD
:100E200009F468C0933009F469C0913041F494E04A
:100E3000909300018F3F09F451C01092F00420916B
:100E400000018091F004821708F448C0D201E0E16B
:100E50001D92EA95E9F71091F303143158F560E11A
:100E6000169FF0011124E95FFE4F60EEE62E63E06D
:100E7000F62EAF01405F5F4F90E080E030E061917F
:100E80006623C1F0D7018D937D016C3409F442C013
:100E9000CCF5643409F440C06634E1F1623409F4FD
:100EA0000196BC016C5F7F4F26173707A8F04E17DD
:100EB0005F0729F71B3009F450C008F05BC01530FC
:100EC00009F44BC008F041C0133009F4ACC008F07D
:100ED000CCC0113009F46DC01092F004811491045B
:100EE00009F487CF0E94A301882309F482CF0E94CE
:100EF00000007FCF853509F0A0CFA1CF8D5F809313
:100F000000019DCF6236B9F0633741F0633549F691
:100F10000296C7CF0496C5CF0896C3CFBC016C50CC
:100F20007C4F5B01DB010D900020E9F78A199B09DA
:100F30008A0F9B1FB6CFBC0160517C4FDB0114961A
:100F40006C910196860F911DACCF173031F028F0CF
:100F5000183019F0193009F0BFCF8091E00390E00C
:100F6000FC01EC50FC4F608170E08B509C4F0E9464
:100F7000CE0356C0113189F340F41D3071F368F38C
:100F80001E3059F31F3049F3A7CF133131F328F343
:100F90001E3F09F45AC11F3F09F09ECF88E198E037
:100FA0000FB6F894A895809360000FBE90936000F0
:100FB000FFCFE091E003F0E0E051FC4FB481BF5F70
:100FC000B98361E08B2F0E944B02E9818E2F90E064
:100FD000FC01EC55FF4F2491FC01E057FF4FE491D9
:100FE000EE23A1F08E2F90E0880F991FFC01EA57A5
:100FF000FF4FA591B491FC01E458FF4F8591949166
:101000008FB7F894EC912E2B2C938FBF60E08981E1
:101010000E944B020E94BC0261E089810E944B0247
:101020000E94A90359CFE091E003F0E0E051FC4FAA
:1010300024812150298382E50E94E40089E190E027
:101040000E94A103698189EF95E00E94720381E00B
:101050000E94870082E50E94E40089E490E00E94FB
:10106000A10381E00E948700DBCFE091E003F0E084
:10107000E051FC4F648161506983D301E0E0F1E00D
:101080001D923197E9F782E50E94E40085E190E046
:101090000E94A103698189EF95E00E94720381E0BB
:1010A0000E94870082E50E94E40085E290E00E94B1
:1010B000A10380E00E94870063E082E50E94EE00C9
:1010C0001092DF028093DE02833008F462C089EF61
:1010D00095E00E94320389EF95E00E943203382E9A
:1010E000212C89EF95E00E943203820D931D880F19
:1010F000991F880F991F01979B838A8310E000E056
:101100006A817B810617170708F08DC0B62EB01ACA
:1011100070E17B1510F430E1B32E82E50E94E4000B
:1011200085E390E00E94A10380E00E9487006B2D80
:1011300082E50E94EE001092DF028093DE028B15A2
:1011400040F1F12CE12CEB14F8F489EF95E00E94CA
:1011500032039F938F93DF92CF921F9283E08F93FE
:10116000C8018E0D9F1D880F991F80529D4F9F9320
:101170008F930E94570B9FEFE91AF90A0FB6F89464
:10118000DEBF0FBECDBFDFCF0E94BC02005F1F4F8E
:10119000B7CF90EEE92E92E0F92EF70101900020F2
:1011A000E9F73197EE19FF09FB83EA83BF016F5F0F
:1011B0007F4F90E080E00E948A0A8C010097C1F185
:1011C000DC011C92B7010E94500BBA81B9838FEFEA
:1011D00090E00E94260285E590E00E9426028A8126
:1011E0009B81992701960E94260286E090E00E944A
:1011F0002602F12CE12CE981EE16F8F46A817B815C
:10120000E616F706C0F401151105A9F0F801EE0D78
:10121000FF1D8081082E000C990B0E9426027FEF93
:10122000E71AF70AE8CF82EEE82E82E0F82EB5CF73
:101230001B821A82CACF80E0EDCF0115110509F497
:101240004BCEC8010E94010A47CE0E94B60344CE8D
:101250002F923F924F925F926F927F928F929F92C6
:10126000AF92BF92CF92DF92EF92FF920F931F93B4
:10127000CF93DF93CDB7DEB7CA1BDB0B0FB6F89465
:10128000DEBF0FBECDBF09942A88398848885F84A5
:101290006E847D848C849B84AA84B984C884DF8016
:1012A000EE80FD800C811B81AA81B981CE0FD11DFA
:1012B0000FB6F894DEBF0FBECDBFED010895EE0F5F
:1012C000FF1F0590F491E02D09940F931F93CF9386
:1012D000DF938230910510F482E090E0E091070600
:1012E000F091080630E020E0B0E0A0E0309799F4FB
:1012F0002115310509F44AC0281B390B243031056A
:10130000D8F58A819B816115710589F1FB01938371
:101310008283FE0111C040815181028113814817EF
:101320005907E0F04817590799F4109761F01296A1
:101330000C93129713961C933296CF01DF91CF91A5
:101340001F910F9108950093070610930806F4CF9C
:101350002115310551F04217530738F0A901DB017F
:101360009A01BD01DF01F801C1CFEF01F9CF9093E0
:10137000080680930706CDCFFE01E20FF31F81938D
:1013800091932250310939832883D7CF20910506C4
:1013900030910606232B41F4209103013091040182
:1013A0003093060620930506209101013091020139
:1013B0002115310541F42DB73EB7409105015091FB
:1013C0000601241B350BE0910506F0910606E21795
:1013D000F307A0F42E1B3F0B2817390778F0AC0158
:1013E0004E5F5F4F2417350748F04E0F5F1F509335
:1013F000060640930506819391939FCFF0E0E0E0CD
:101400009CCFCF93DF930097E9F0FC0132971382D2
:101410001282A0910706B0910806ED0130E020E0AD
:101420001097A1F420813181820F931F209105062E
:10143000309106062817390709F061C0F0930606B7
:10144000E0930506DF91CF910895EA01CE17DF07FB
:10145000E8F54A815B819E0141155105B1F7E9012B
:10146000FB83EA8349915991C40FD51FEC17FD07FF
:1014700061F4808191810296840F951FE90199831F
:101480008883828193819B838A83F0E0E0E01296D7
:101490008D919C9113970097B9F52D913C911197DF
:1014A000CD010296820F931F20910506309106060A
:1014B0002817390739F6309751F51092080610921F
:1014C0000706B0930606A0930506BCCFD383C2835C
:1014D00040815181840F951FC817D90761F44E5F71
:1014E0005F4F88819981480F591F518340838A81BA
:1014F0009B81938382832115310509F0B0CFF0934E
:101500000806E09307069ECFFD01DC01C0CF1382E1
:101510001282D7CFB0E0A0E0E0E9FAE00C942A090B
:101520008C01009751F4CB010E9465098C01C80120
:10153000CDB7DEB7E0E10C944609FC01E60FF71FDA
:101540009C0122503109E217F30708F49DC0D9012C
:10155000CD91DC911197C617D70798F0C530D1050A
:1015600030F3CE0104978617970708F3C61BD70BF5
:101570002297C193D1936D937C93CF010E94010A6E
:10158000D6CF5B01AC1ABD0A4C018C0E9D1EA091FA
:101590000706B0910806512C412CF12CE12C109734
:1015A00031F580910506909106068815990509F098
:1015B0005CC04616570608F058C080910101909112
:1015C0000201009741F48DB79EB7409105015091FB
:1015D0000601841B950BE817F90708F055C0F09336
:1015E0000606E0930506F90171836083A0CF8D9113
:1015F0009C91119712966C90129713967C9013976A
:10160000A815B90559F56C0142E0C40ED11CCA14E5
:10161000DB0420F1AC014A195B09DA011296159737
:1016200080F06282738251834083D9016D937C93F1
:10163000E114F10471F0D7011396FC93EE93129725
:1016400076CF22968C0F9D1FF90191838083F30141
:10165000EFCFF0930806E093070669CF48165906C6
:1016600008F42C017D01D3019ACFCB010E946509BA
:101670007C01009749F0AE01B8010E94470BC801F8
:101680000E94010A870153CF10E000E050CFFB0118
:10169000DC0102C001900D9241505040D8F70895EE
:1016A000FB01DC0101900D920020E1F70895AEE00E
:1016B000B0E0EDE5FBE00C9436090D891E898F89B9
:1016C000988D26E02C831A83098397FF02C080E05F
:1016D00090E801979E838D83AE01455E5F4F698DD3
:1016E0007A8DCE0101960E94870B4D815E8157FD58
:1016F0000AC02F813885421753070CF49A01020F54
:10170000131FF80110822E96E4E00C945209ABE00E
:10171000B0E0EDE8FBE00C9428097C013B018A0174
:10172000FC0117821682838181FFC8C1CE01019618
:101730005C01F7019381F30193FD859193FF819102
:101740003F01882309F453C1853239F493FD859113
:1017500093FF81913F01853229F4B70190E00E9407
:10176000770DE7CF912C212C312CFFE1F31538F0C8
:101770008B3211F190F4803209F1833229F137FC78
:101780003CC020ED280F2A3050F536FE20C08AE0FC
:10179000989E200D1124922E06C08D3291F0803338
:1017A00071F7689430F8F30193FD859193FF81916F
:1017B0003F018111DACF21C0689431F8689432F882
:1017C000F2CF689433F8EFCF689434F8ECCFEAE0C6
:1017D0002E9E200D1124222E689435F8E4CF8E32EF
:1017E00029F436FC04C1689436F8DDCF8C3619F440
:1017F000689437F8D8CF8836B1F2982F9F7D9554EA
:101800009330E0F08336A1F18337C1F1833509F0DD
:1018100063C02801F2E04F0E511CF801C080D18056
:10182000692D70E036FC02C06FEF7FEFC6010E94A9
:10183000610D4C01689437F882010AC00C5F1F4F9C
:10184000FFE3F98388248394912C6501E89437F8A9
:1018500033FE2DC0522C8114910471F5552009F4EA
:1018600068CFB70180E290E00E94770D5A94F6CFDE
:10187000F801808189830E5F1F4FE4CF2801F2E0D9
:101880004F0E511CF801C080D180692D70E036FCEC
:1018900002C06FEF7FEFC6010E946C0D4C01820108
:1018A000D5CFB70180E290E00E94770D2A942814EA
:1018B000190409F0B0F7CECFF60137FC859137FE59
:1018C00081916F01B70190E00E94770D51105A94F9
:1018D000F1E08F1A9108BFCF843619F0893609F0EC
:1018E00077C0F80137FE6BC060817181828193817E
:1018F0000C5F1F4FF32DFF763F2E97FF09C0909589
:101900008095709561957F4F8F4F9F4F689437F802
:101910002AE030E0A5010E94A70DC82ECA188C2C21
:10192000432C36FE0CC0E89440F8C91440F434FE51
:1019300005C032FC03C0F32DFE7E4F2E892C44FEE1
:1019400095C0FE01EC0DF11D8081803309F087C048
:10195000242D297E422E842D8870582E43FC95C05C
:1019600040FE8FC09C2C821418F42C0C922C9818DA
:1019700044FE91C0B70180E390E00E94770D42FEE3
:1019800009C088E790E041FE02C088E590E0B70119
:101990000E94770DC91408F48AC0CA94D12C9FEF15
:1019A000C91AD90ACA0CDB1CF60182916F01B70172
:1019B00090E00E94770DAC14BD04B1F74FCF608169
:1019C0007181072E000C880B990B0E5F1F4F92CF71
:1019D000D32CE894D4F82AE030E0853739F1232D70
:1019E000297FD22E8F3601F148F48835A9F0F7010E
:1019F000868197812B96E2E10C944409803749F067
:101A00008837A9F7D4FE02C06894D2F820E130E00C
:101A10000DC06894D4F8F6CF34FE03C0822F8660E0
:101A2000D82E20E132E002C028E030E0F801D7FEF5
:101A30000FC060817181828193810C5F1F4FA5016E
:101A40000E94A70DC82ECA183D2CE89437F867CF1E
:101A50006081718190E080E00E5F1F4FF0CF42FC0B
:101A600002C0839478CF8394839475CF842D867835
:101A700009F471CFF6CFB70180E290E00E94770DB4
:101A800083948214C0F3512C73CF522C58188214B3
:101A900008F46ECFF8CF842D867809F47BCF8BE2E3
:101AA00041FE80E247FC8DE2B70190E071CFB701C3
:101AB00080E390E00E94770D9A946CCF8FEF9FEFB8
:101AC00099CFFC010590615070400110D8F78095C6
:101AD00090958E0F9F1F0895FC01615070400190FA
:101AE0000110D8F7809590958E0F9F1F08950F9342
:101AF0001F93CF93DF93182F092FEB018B8181FD6B
:101B000009C01FEF0FEF812F902FDF91CF911F9111
:101B10000F91089582FF14C02E813F818C819D8199
:101B2000281739073CF4E881F981CF0101969983A0
:101B3000888310838E819F8101969F838E83E3CF5C
:101B4000E885F985812F0995892BA1F3DACFFA0170
:101B5000AA27283051F1203181F1E8946F936E7FEC
:101B60006E5F7F4F8F4F9F4FAF4FB1E03ED0B4E0DD
:101B70003CD0670F781F891F9A1FA11D680F791F1E
:101B80008A1F911DA11D6A0F711D811D911DA11D2F
:101B900020D009F468943F912AE0269F112430193F
:101BA000305D3193DEF6CF010895462F4770405DDA
:101BB0004193B3E00FD0C9F7F6CF462F4F70405D89
:101BC0004A3318F0495D31FD4052419302D0A9F7E4
:101BD000EACFB4E0A6959795879577956795BA95DE
:101BE000C9F700976105710508959B01AC010A2EA4
:101BF00006945795479537952795BA95C9F7620F7B
:0E1C0000731F841F951FA01D0895F894FFCF39
:101C0E000400000906800000000000000000000033
:101C1E000000000000000042000000000000000074
:101C2E0000000000000000000000000000000000A6
:101C3E000000000000000042000000000000000054
:101C4E000000000000000042000000000000000044
:101C5E000000000000000062000000000000000014
:101C6E000000000000000062000000000000000004
:101C7E0000000000000000620000000000000000F4
:101C8E0000000000000000620000000000000000E4
:101C9E0000000000000000620000000000000000D4
:101CAE000000000000000000000000000000000026
:101CBE0000000000000000620000000000000000B4
:101CCE0000000000000000620000000000000000A4
:101CDE000000000000000062000000000000000094
:101CEE000000000000000062000000000000000084
:101CFE000000000000000062000000000000000074
:101D0E0000000000000000000000000000000000C5
:101D1E000000000000000062000000000000000053
:101D2E000000000000000062000000000000000043
:101D3E000000000000000062000000000000000033
:101D4E000000000000000000000000D9013901660B
:101D5E00012B0297017501890100000000720345F5
:101D6E0003A60322033001320323035043206D6F79
:101D7E0064653A2042544F5F41726475696E6F49D3
:0E1D8E0052312E30000D0A0025303278000050
:00000001FF
