:100000000C945E000C9426090C94FF080C94860056
:100010000C9486000C9486000C9486000C94DB07EC
:100020000C9486000C9486000C9486000C94860038
:100030000C9486000C9486000C9486000C94860028
:100040000C94B5080C9486000C9483080C945D08FD
:100050000C9486000C9486000C9486000C94860008
:100060000C9486000C9486000000000024002700F9
:100070002A0000000000250028002B0004040404CE
:100080000404040402020202020203030303030342
:10009000010204081020408001020408102001021F
:1000A00004081020000000080002010000030407FB
:1000B000000000000000000002004D0911241FBED6
:1000C000CFEFD8E0DEBFCDBF11E0A0E0B1E0ECE7BC
:1000D000FBE102C005900D92A836B107D9F722E0E6
:1000E000A8E6B1E001C01D92A234B207E1F710E02A
:1000F000CEE5D0E004C02197FE010E948D0DCD35E4
:10010000D107C9F70E94B7090C94BC0D0C940000EC
:100110008230F8F4E82FF0E0EE0FFF1FED5FFE4FA6
:1001200029EF32E031832083813041F080916900F2
:100130008C7F682B60936900E89A0895809169002C
:10014000837F660F771F660F771F682B60936900A8
:10015000E99A0895AF92BF92CF92DF92EF92FF9209
:100160000F931F93CF93DF936C017B018B01040FDF
:10017000151FEB015E01AE18BF08C017D10759F07B
:100180006991D601ED91FC910190F081E02DC601BD
:100190000995892B79F7C501DF91CF911F910F91B7
:1001A000FF90EF90DF90CF90BF90AF900895FC014B
:1001B000538D448D252F30E0842F90E0821B930BCC
:1001C000541710F0CF96089501970895FC01918D72
:1001D000828D981761F0A28DAE0FBF2FB11D5D9675
:1001E0008C91928D9F5F9F73928F90E008958FEF17
:1001F0009FEF0895FC01918D828D981731F0828DCB
:10020000E80FF11D858D90E008958FEF9FEF089521
:10021000FC01918D228D892F90E0805C9F4F821B85
:1002200091098F739927089587E991E00E94080149
:1002300021E0892B09F420E0822F089580E090E0EE
:10024000892B29F00E94140181110C94000008955B
:10025000FC01A48DA80FB92FB11DA35ABF4F2C913B
:10026000848D90E001968F739927848FA689B78932
:100270002C93A089B1898C91837080648C93938D29
:10028000848D981306C00288F389E02D80818F7DCC
:1002900080830895EF92FF920F931F93CF93DF9384
:1002A000EC0181E0888F9B8D8C8D98131AC0E889B2
:1002B000F989808185FF15C09FB7F894EE89FF8981
:1002C0006083E889F98980818370806480839FBF1F
:1002D00081E090E0DF91CF911F910F91FF90EF901F
:1002E0000895F62E0B8D10E00F5F1F4F0F7311272F
:1002F000E02E8C8D8E110CC00FB607FCFACFE8896A
:10030000F989808185FFF5CFCE010E942801F1CFC8
:10031000EB8DEC0FFD2FF11DE35AFF4FF0829FB7DD
:10032000F8940B8FEA89FB8980818062CFCFCF93CD
:10033000DF93EC01888D8823B9F0AA89BB89E8890D
:10034000F9898C9185FD03C0808186FD0DC00FB6B3
:1003500007FCF7CF8C9185FFF2CF808185FFEDCF31
:10036000CE010E942801E9CFDF91CF91089590E05E
:10037000FC01EC55FF4F2491FC01E057FF4F3491F5
:10038000FC01E458FF4FE491EE23C9F0222339F039
:10039000233001F1A8F4213019F1223029F1F0E0E5
:1003A000EE0FFF1FEE58FF4FA591B4918FB7F89451
:1003B000EC91611126C030953E233C938FBF089588
:1003C0002730A9F02830C9F0243049F78091800007
:1003D0008F7D03C0809180008F7780938000DFCF76
:1003E00084B58F7784BDDBCF84B58F7DFBCF8091C3
:1003F000B0008F778093B000D2CF8091B0008F7D16
:10040000F9CF3E2BDACF682F8DE00C94B701CF9354
:10041000DF9390E0FC01E057FF4F249184589F4FF9
:10042000FC0184918823D1F090E0880F991FFC0192
:10043000E859FF4FA591B491FC01EE58FF4FC591CB
:10044000D49161110EC09FB7F8948C91E22FE09582
:100450008E238C932881E223E8839FBFDF91CF9185
:1004600008958FB7F894EC91E22BEC938FBFF6CF01
:100470001F93CF93DF93182FEB0161E00E940702D7
:10048000209739F460E0812FDF91CF911F910C9478
:10049000B701CF3FD10511F461E0F5CFE12FF0E0D6
:1004A000EC55FF4FE491E33031F140F4E130B1F02D
:1004B000E230E1F0C038D1057CF7E4CFE73029F134
:1004C000E83059F1E430B1F7809180008062809388
:1004D0008000D0938B00C0938A0004C084B58068EC
:1004E00084BDC7BDDF91CF911F91089584B580620F
:1004F00084BDC8BDF7CF8091800080688093800064
:10050000D0938900C0938800EDCF8091B0008068BF
:100510008093B000C093B300E5CF8091B0008062BB
:100520008093B000C093B400DDCF3FB7F8948091C2
:10053000810190918201A0918301B091840126B53F
:10054000A89B05C02F3F19F00196A11DB11D3FBF0B
:10055000BA2FA92F982F8827BC01CD01620F711DDA
:10056000811D911D42E0660F771F881F991F4A95D4
:10057000D1F708958F929F92AF92BF92CF92DF9260
:10058000EF92FF926B017C010E9495024B015C018E
:10059000C114D104E104F104B9F00E949502681974
:1005A00079098A099B09683E73408105910580F3AA
:1005B00021E0C21AD108E108F10888EE880E83E034
:1005C000981EA11CB11CE4CFFF90EF90DF90CF905C
:1005D000BF90AF909F908F9008952FB7F89460913F
:1005E0007D0170917E0180917F01909180012FBFEC
:1005F00008950F931F930E949502AB01BC01809157
:10060000780190917901A0917A01B0917B018A01E2
:100610009B01081B190B2A0B3B0BD901C801009742
:10062000A140B10520F58091780190917901A091C8
:100630007A01B0917B019A01281B390BC9014093C3
:1006400078015093790160937A0170937B01E09176
:100650003602E73090F4F0E0E05DFC4F0C948D0D35
:100660003A036C03E30320045203910320048FEF49
:100670009FEFE5CF84E0809336028091360262E0FE
:1006800070E0843010F063E070E0809139028230D5
:1006900009F45BC1833009F45AC18FEF1F910F91A8
:1006A0000C9488009C0127553A412339314110F4BC
:1006B00081E0E1CF8B5693408F35914008F0BDC06B
:1006C00010927401109275011092760110927701C8
:1006D0001092730183E0CFCF109236029C012B520F
:1006E0003D402B3C384060F410927401109275012B
:1006F00010927601109277011092730185E0BBCFC2
:10070000855996408736944008F0B7CF0E94ED0295
:100710006093900170939101809392019093930163
:10072000ACCF10923602855A91408B31914008F03F
:10073000A4CF80917301803210F482E09CCF80912D
:10074000740190917501A0917601B091770140916B
:100750007401509175016091760170917701892F34
:100760009A2FAB2FBB2784279527A627B727992732
:10077000BB278F3F9105AF4FB10509F07ECF809128
:10078000740190917501A0917601B09177018A2F43
:1007900090E090933502809334020E94ED026093C2
:1007A000900170939101809392019093930181E065
:1007B00080939401E0913702F0913802309709F468
:1007C0005CCF09955ACF25E0209336024091740101
:1007D00050917501609176017091770176956795DA
:1007E0005795479540937401509375016093760136
:1007F00070937701209173012F5F209373019C0107
:10080000205F34402D34334090F4809174019091F6
:100810007501A0917601B0917701B0688093740161
:1008200090937501A0937601B093770126CF855AF6
:1008300091408B31914008F420CF109236021DCFA9
:100840009C012F5A31092F35314048F580917301B1
:1008500080FD15C08091740190917501A091760181
:10086000B0917701880F991FAA1FBB1F81608093E9
:10087000740190937501A0937601B09377018091F4
:1008800073018F5F80937301809173018E3120F526
:1008900080913602863009F41DCF86E0ECCE8D5073
:1008A00092408F35914048F6809174019091750186
:1008B000A0917601B0917701880F991FAA1FBB1FE5
:1008C0008093740190937501A0937601B0937701A2
:1008D000809173018E5FD6CF8091740190917501E4
:1008E000A0917601B09177019C01306890917201DE
:1008F000832F829586958770911104C083708093B1
:1009000072019BCF40917201837050E084171506ED
:1009100009F093CF30933502209334020E94ED0208
:100920006093900170939101809392019093930151
:1009300082E080939401E0913702F0913802309781
:1009400009F47BCF81E0099578CF80E0A7CE81E0E4
:10095000A5CE08950F931F93CF93DF93EB018C01E6
:10096000000F111F6F3F710509F0B4F461308FEF74
:100970007807ACF077FD15C00B5D1E4F61E0F80104
:1009800081810E94B701BE01F8018081DF91CF9182
:100990001F910F910C943802CFEFD0E0EDCFC1E062
:1009A000DFEF0B5D1E4F60E0F80181810E94B7010F
:1009B000662777276C1B7D0BE7CFCF93DF93EC0186
:1009C000FB01809195019091960197FD29C080913E
:1009D000950190919601092E000CAA0BBB0B20E00B
:1009E00031E040E050E0281B390B4A0B5B0BDB0188
:1009F0000E949A0D672F782F892F992787FD9A9546
:100A0000FB01BF0190E080E00E94AA0466277727DF
:100A10006C1B7D0B81E090E0DF91CF910C94AA04D8
:100A20002091950130919601032E000C440B550B3B
:100A30003F5F4F4F5F4FDE010E949A0D672F782F67
:100A4000892F992787FD9A95EB01DBCF9B01880FB2
:100A5000991F880F991FFC01E75FFE4F82819381E8
:100A6000289FB001299F700D389F700D112480813F
:100A70009181AC01249FC001259F900D349F900D62
:100A800011240C94DD042F923F924F925F926F924B
:100A90007F928F929F92AF92BF92CF92DF92EF920E
:100AA000FF920F931F93CF93DF9300D000D01F923C
:100AB000CDB7DEB79B01072E000C440B550B2983E5
:100AC0003A834B835C83009749F01B018C01809132
:100AD0000001883001F18F3F09F497C069817A8164
:100AE0008B819C810F900F900F900F900F90DF9152
:100AF000CF911F910F91FF90EF90DF90CF90BF901B
:100B0000AF909F908F907F906F905F904F903F90AD
:100B10002F900C94BA02E8EBF0E034913D8337FD5E
:100B2000DDCF61E088E00E9407025D81552321F05E
:100B30008D81823009F083C14801B12CA12C60E085
:100B400072E18AE790E0A50198010E946E0D2901EB
:100B50003A017A01690191E0C91AD108E108F10866
:100B60002FEFC216D104E104F10409F00CF439C1ED
:100B700060E472E48FE090E0A50198010E946E0DA0
:100B800069017A0181E0C81AD108E108F1089D8164
:100B9000923009F0ABC082E02FEFC216D104E1041D
:100BA000F10409F00CF4EFC060E970ED83E090E02F
:100BB000A50198010E946E0D69017A0181E0C81AB1
:100BC000D108E108F10883E09FEFC916D104E104E0
:100BD000F10409F00CF4D7C068E478EE81E090E00D
:100BE000A50198010E946E0D69017A0191E0C91A70
:100BF000D108E108F1082FEFC216D104E104F10495
:100C000011F00CF0C7C084E0BEC088E08093000102
:100C1000E8EBF0E044914D834F3F09F45FCF413062
:100C200029F158F0423009F43FC03D8137FD56CFDD
:100C300061E088E00E9407027BCF14BC15BC84B53C
:100C4000826084BD85B5816085BDE4E8F0E0E49113
:100C5000F0E0EE0FFF1FEE58FF4F85919491E8E909
:100C6000F0E0E491E09369011D825BCF1092800077
:100C70001092810080918100886080938100809132
:100C80008100816080938100E4E8F0E0E491F0E08D
:100C9000EE0FFF1FEE58FF4F85919491E8E9F0E0C9
:100CA000E491E09368013DCF1092B0001092B10042
:100CB0008091B00082608093B0008091B10081602B
:100CC0008093B100E4E8F0E0E491F0E0EE0FFF1F64
:100CD000EE58FF4F85919491909386018093850102
:100CE000E8E9F0E0E491E09387011BCF2FEFC21613
:100CF000D104E104F10409F00CF49FC068E478EE3B
:100D000081E090E0A50198010E946E0D69017A01D1
:100D100081E0C81AD108E108F1089D81992309F4FE
:100D2000FDC03FEFC316D104E104F10409F00CF457
:100D30006ACF62E17AE780E090E0A50194010E9429
:100D40006E0D69017A0181E0C81AD108E108F10845
:100D50009D81992309F4C9C086E05FEFC516D104CF
:100D6000E104F10481F078F0730162012AE0F59466
:100D7000E794D794C7942A95D1F741E0C41AD108D3
:100D8000E108F10887E09091B100987F892B80936A
:100D9000B1002FC064E274EF80E090E0A5019401FF
:100DA0000E946E0D69017A0181E0C81AD108E1083C
:100DB000F10885E09FEFC916D104E104F10419F3AD
:100DC00010F362E17AE780E090E0A50194010E94CF
:100DD0006E0D69017A0181E0C81AD108E108F108B5
:100DE000BBCF81E02D812111CECF95B5987F892B86
:100DF00085BD9801220F331FD1010E94930D28EE6B
:100E000033E040E050E00E944C0D8D81813009F4C8
:100E10004AC0823009F459C0811160CEC7BC20930A
:100E20006E0130936F014093700150937101809176
:100E30006E00826080936E0051CE82E0D3CFB12CE1
:100E4000A12C60E072E18AE790E0A50198010E9480
:100E50006E0D69017A0181E0C81AD108E108F10834
:100E6000C114D10491E0E906F10464F491E02D810C
:100E7000213009F0BECF80918100887F892B80933B
:100E80008100B7CF68E478EE81E090E0A501980199
:100E90000E946E0D69017A0181E0C81AD108E1084B
:100EA000F10893E0E4CFD0928900C09288002093AB
:100EB0006A0130936B0140936C0150936D018091F6
:100EC0006F00826080936F0009CEC092B3002093C0
:100ED00088013093890140938A0150938B0180915E
:100EE0007000826080937000F9CD84E09FEFC91696
:100EF000D104E104F10409F008F477CF7301620131
:100F00009AE0F594E794D794C7949A95D1F781E045
:100F1000C81AD108E108F10885E067CF83E04FEFF8
:100F2000C416D104E104F10409F00CF45ECF01CF42
:100F30006CE271E00C944305FF920F931F93CF93E3
:100F4000DF93909396018093950180919501909104
:100F50009601D0E0C0E08038910544F08FE790E042
:100F60009093960180939501CFEFDFEF80919501EB
:100F70009091960180389F4F44F480E89FEF9093C2
:100F8000960180939501CFEFDFEF009195011091CD
:100F9000960190E080E00E94360D081729F0602F3E
:100FA00090E080E00E943E0DCE01DF91CF911F9135
:100FB0000F91FF9008951F920F920FB60F92112478
:100FC0002F933F934F935F936F937F938F939F9351
:100FD000AF93BF93EF93FF93809188019091890124
:100FE000A0918A01B0918B01892B8A2B8B2BD1F197
:100FF00090918701E0918501F09186018081892798
:1010000080838091880190918901A0918A01B0919B
:101010008B01181619061A061B069CF4809188018C
:1010200090918901A0918A01B0918B010197A1094A
:10103000B1098093880190938901A0938A01B093AC
:101040008B01FF91EF91BF91AF919F918F917F9114
:101050006F915F914F913F912F910F900FBE0F9025
:101060001F90189580910001E8EBF0E0E4919FEF6C
:1010700090930001E13051F030F0E23069F060E02F
:101080000E94B701DECF10926E00F9CF90916F00F1
:101090009D7F90936F00F3CF909170009D7F909310
:1010A000700091E09093B0009091B100987F9460AF
:1010B0009093B1001092B300E2CF1F920F920FB63F
:1010C0000F9211242F933F934F935F936F937F93CE
:1010D0008F939F93AF93BF93EF93FF9387E991E033
:1010E0000E942801FF91EF91BF91AF919F918F9145
:1010F0007F916F915F914F913F912F910F900FBE14
:101100000F901F9018951F920F920FB60F921124F7
:101110002F938F939F93EF93FF93E091A701F0910B
:10112000A8018081E091AD01F091AE0182FD1BC06C
:1011300090818091B0018F5F8F732091B1018217F0
:1011400041F0E091B001F0E0E956FE4F958F8093B9
:10115000B001FF91EF919F918F912F910F900FBE52
:101160000F901F9018958081F4CF1F920F920FB6A9
:101170000F9211242F933F938F939F93AF93BF931D
:1011800080917D0190917E01A0917F01B0918001BD
:1011900030917C0123E0230F2D3758F50196A11DD6
:1011A000B11D20937C0180937D0190937E01A093DB
:1011B0007F01B09380018091810190918201A09183
:1011C0008301B09184010196A11DB11D809381011D
:1011D00090938201A0938301B0938401BF91AF915A
:1011E0009F918F913F912F910F900FBE0F901F9065
:1011F000189526E8230F0296A11DB11DD2CF1F928C
:101200000F920FB60F9211242F933F934F935F933A
:101210006F937F938F939F93AF93BF93EF93FF93BE
:10122000E0910501F09106010995FF91EF91BF91C1
:10123000AF919F918F917F916F915F914F913F916E
:101240002F910F900FBE0F901F9018951F920F9225
:101250000FB60F9211242F933F934F935F936F9389
:101260007F938F939F93AF93BF93EF93FF93E091FF
:101270000301F09104010995FF91EF91BF91AF91A6
:101280009F918F917F916F915F914F913F912F919E
:101290000F900FBE0F901F90189510929A01109208
:1012A000990188EE93E0A0E0B0E080939B019093D9
:1012B0009C01A0939D01B0939E018FE391E09093D8
:1012C00098018093970185EC90E09093A40180931E
:1012D000A30184EC90E09093A6018093A50180EC9B
:1012E00090E09093A8018093A70181EC90E0909307
:1012F000AA018093A90182EC90E09093AC018093C5
:10130000AB0186EC90E09093AE018093AD0110921A
:10131000B0011092B1011092B2011092B30110927B
:10132000410282E08093390283E092E09093380298
:101330008093370260E082E00E94070262E070E082
:1013400080E00E94880010923602109235021092BE
:10135000340280914102811107C08EE690E09093A3
:1013600008018093070108958CE291E0F8CF78940A
:1013700084B5826084BD84B5816084BD85B582609A
:1013800085BD85B5816085BD80916E00816080934B
:101390006E001092810080918100826080938100B4
:1013A00080918100816080938100809180008160C4
:1013B000809380008091B10084608093B10080911F
:1013C000B00081608093B00080917A008460809347
:1013D0007A0080917A00826080937A0080917A000E
:1013E000816080937A0080917A00806880937A008F
:1013F0001092C10061E08DE00E94070260E08DE084
:101400000E94B70161E084E00E94070261E087E08A
:101410000E94070261E08CE00E94070261E088E020
:101420000E94070283E084BD85BD91E09093800017
:101430009BE0909381008093B00084E08093B100A2
:1014400090E080E00E94360D90E0909396018093AA
:1014500095018091950190919601803891054CF00D
:1014600080919501909196019A9590939601809321
:101470009501E091A701F091A80182E08083E091BD
:10148000A301F091A4011082E091A501F091A601C1
:1014900080E180831092AF01E091AB01F091AC014B
:1014A00086E08083E091A901F091AA0180818061AA
:1014B0008083E091A901F091AA01808188608083F6
:1014C000E091A901F091AA01808180688083E09178
:1014D000A901F091AA0180818F7D808346E150E0CF
:1014E0006DE471E087E991E00E94AA0042E050E0DB
:1014F00064E671E087E991E00E94AA0086E091E04D
:101500000E94980786E291E00E9498078AE491E0A1
:101510000E9498076EE5862E912C0CE810E077E487
:10152000A72EB12CF8943090940110929401C091A0
:101530003402D0913502409090015090910160901A
:1015400092017090930178944114510461047104E4
:1015500009F44BC15CE2C52EDD24D394E12CF12CBF
:10156000D7FD06C0C0900701D0900801F12CE12CF6
:101570000E94ED02641975098609970920913E02BF
:101580006C157D058E059F0508F001C1211139C03C
:10159000209709F459C242E0342ED7FD02C033240B
:1015A0003394E0913702F0913802309711F081E0E6
:1015B00009951092400210923F02D7FF4CC28C2F27
:1015C0008770805A80933E028C2F869586958695EB
:1015D0008051990B24E0880F991F2A95E1F7909389
:1015E0003B0280933A028D2F8F718051990B34E02A
:1015F000880F991F3A95E1F790933D0280933C0242
:1016000002C03110D6CFF0904102FF2009F474C01F
:10161000D7FF72C040913A0250913B0220913C02A8
:1016200030913D02BA0157FF04C066277727641B3B
:10163000750BC90137FF04C088279927821B930BBC
:10164000860F971F883291050CF49CC0DA0157FD74
:101650001196B595A795E1E0A217B3070CF0E0E06D
:10166000B90137FF02C06F5F7F4F759567954617C9
:1016700057070CF4EE5FB90137FF02C06F5F7F4F71
:1016800075956795719561957109461757070CF423
:10169000EC5F66277727621B730BA617B7070CF45E
:1016A000E85FF0E0E55DFE4FE081E0933F02E33765
:1016B00071F030F4E13709F463C09695879508C05E
:1016C000E43709F458C0E637C1F7CB0101C0CA01BD
:1016D0008F3F910519F010F08FEF90E0809340025A
:1016E00092E0F91209C080913E02803629F480917F
:1016F0003F02811180933E02C32DD0E080913E02D3
:10170000853409F4C0C018F0883408F4D9C0209793
:1017100009F4FAC0C230D10579F420913C0230912D
:101720003D0280913A0290913B02B901681B790B0E
:10173000820F931F0E94DD0480913E028C3109F4D8
:1017400067C108F0F5C08D3009F43EC108F0CDC086
:10175000883009F454C108F0B9C0873009F41FC1BA
:10176000229731F070E060E090E080E00E94DD04BC
:1017700070E060E0F1C088279927841B950BA8CF03
:10178000C901A6CF10923F0210924002A9CF222396
:1017900009F4B2CF1092400210923F0210923D0223
:1017A00010923C0210923B0210923A0210923E02BA
:1017B0001092900110929101109292011092930157
:1017C000E0913702F0913802309711F080E00995EE
:1017D0000E94ED0260938C0170938D0180938E01C5
:1017E00090938F013324339487CF0E94ED02C090F1
:1017F0008C01D0908D01E0908E01F0908F01DC0182
:10180000CB018C199D09AE09BF09CD2B81F0209128
:10181000070130910801A90170E060E048175907FD
:101820006A077B0720F4109235021092340227E0F9
:10183000B695A795979587952A95D1F70097A10515
:10184000B10509F459CF8F709927AA27BB270097B4
:10185000A105B10551F4E0913702F091380281E021
:10186000309709F449CF099547CF0197A105B105F4
:1018700009F042CFE0913702F0913802309709F435
:101880003BCF80E0F0CF8091950190919601019738
:101890009093960180939501809195019091960186
:1018A0000E949C07892B09F032CF8091950190917D
:1018B000960166E970E08A5F9E4F0E94430527CF3C
:1018C00080919501909196010196E2CF893009F4BB
:1018D0006DC08C3009F044CF86E091E00E949807FB
:1018E000B0920201A09201010FC0863109F465C0D7
:1018F00090F4853109F034CF6091010170910201BB
:1019000090E080E00E94260562E370E080E090E0D5
:101910000E94BA0207CE883109F45DC0893109F00E
:101920001FCF609101017091020183E090E0EACF46
:101930008A3409F482C0A8F4823409F470C018F41F
:101940008034D1F20DCF833411F1843409F008CF03
:10195000609101017091020182E090E00E94AA046E
:10196000D3CF8E3509F440C068F4823509F45EC0E7
:101970008A3509F0F5CE88EB91E00E9498078AEB52
:1019800090E038C0833621F3843609F0E9CE6091C7
:10199000010170910201719561957109DDCF60912E
:1019A00001017091020181E090E0ACCF60910101F2
:1019B0007091020182E090E0A5CF609101017091E9
:1019C000020184E090E09ECF6091010170910201DC
:1019D00085E090E097CF86E291E00E949807909290
:1019E00002018092010190CF8AE491E00E94980761
:1019F00085E790E0909302018093010185CF8DE50A
:101A000091E00E94980710930201009301017CCF9E
:101A100088E891E00E94980783EA90E0EBCF8EEE91
:101A200091E00E94980781ED90E0E4CF8BE092E096
:101A30000E94980788EE90E0DDCF8BE492E00E9450
:101A400098078FEF90E0D6CF332009F4DCCD1092C9
:101A5000400210923F02C0933E0210923D0210924B
:101A60003C0210923B0210923A02CDCDF999FECF82
:101A700092BD81BDF89A992780B50895262FF999CE
:101A8000FECF1FBA92BD81BD20BD0FB6F894FA9A61
:101A9000F99A0FBE01960895A1E21A2EAA1BBB1B4C
:101AA000FD010DC0AA1FBB1FEE1FFF1FA217B3072A
:101AB000E407F50720F0A21BB30BE40BF50B661F40
:101AC000771F881F991F1A9469F760957095809504
:101AD00090959B01AC01BD01CF010895052E97FBA8
:101AE0001EF400940E94850D57FD07D00E944C0DF6
:101AF00007FC03D04EF40C94850D5095409530951D
:101B000021953F4F4F4F5F4F089590958095709569
:101B100061957F4F8F4F9F4F0895EE0FFF1F0590E8
:101B2000F491E02D09940E94A20DB7FF0895821B45
:101B3000930B0895B7FF0C94B10D0E94B10D821B59
:101B4000930B0895A29FB001B39FC001A39F700D96
:101B5000811D1124911DB29F700D811D1124911DB5
:101B600008950E94A20DA59F900DB49F900DA49F73
:0C1B7000800D911D11240895F894FFCF02
:101B7C00FFFF00A904A9046E000100010000000190
:101B8C000001000000FFFFFFFFFFFF01000100FF4D
:101B9C00FF00000000050406070B0C7370007100B9
:101BAC000000727500000076007774000000004A97
:101BBC0001AA00D70097010801E600FA004E6F72E7
:101BCC006D616C3A2052656D6F636F6E526F626F10
:081BDC00312E31000D0A00005A
:00000001FF
