:100000000C94D5010C9436130C940F130C94FD0131
:100010000C94FD010C94FD010C94FD010C94EB116A
:100020000C94FD010C94FD010C94FD010C94FD0158
:100030000C94FD010C94FD010C94FD010C94FD0148
:100040000C94C5120C94FD010C9493120C946D1237
:100050000C94FD010C94FD010C94FD010C94FD0128
:100060000C945D130C94FD01000000002400270097
:100070002A000000000023002600290000000008DC
:10008000000201000003040700000000000000005F
:10009000696E69742063616C6962005043206D6F02
:1000A00064653A2051756164437261776C657231A1
:1000B0002E360002000000000000000000000000DA
:1000C0000000000000000000000000000000000030
:1000D000000000007373000000000000000000003A
:1000E0000000000000000000000000000000000010
:1000F0000000000000000000000000000000000000
:10010000000000004242000000000000000000006B
:10011000000000004262000000000000000000003B
:1001200000000000426242000000000000000000E9
:10013000000000004242000000000000000000003B
:1001400000000000000000000000000000000000AF
:10015000000000006200000000000000000000003D
:10016000000000004200000000000000000000004D
:1001700000000000425300000000000000000000EA
:100180000000000042535300000000000000000087
:1001900000000000620000000000000000000000FD
:1001A000000000000000000000000000000000004F
:1001B00000000000424200000000000000000000BB
:1001C0000000000053426200000000000000000038
:1001D000000000000000000000000000000000001F
:1001E000000000004253000000000000000000007A
:1001F0000000000053530000000000000000000059
:100200000000000053530000000000000000000048
:100210000000000053530000000000000000000038
:100220000000000053530000000000000000000028
:1002300000000000000000000000000000000000BE
:10024000000000004242000000000000000000002A
:10025000000000004242000000000000000000001A
:10026000000000004200000000000000000000004C
:10027000000000004200000000000000000000003C
:10028000000000005300000000000000000000001B
:10029000000000000000000000000000000000005E
:1002A000000000004200000000000000000000000C
:1002B000000000000000000000000000000000003E
:1002C000000000000000000000000000000000002E
:1002D000000000000000000000000000000000001E
:1002E000000000000000000000000000000000000E
:1002F00000000000000000000000000000000000FE
:1003000000000000000000000000000000000000ED
:1003100000000000000000000000000000000000DD
:10032000000000004200000000000000000000008B
:1003300000000000000000000000000000000000BD
:1003400000000000000000000000000000000000AD
:10035000000000000000000000000000000000009D
:10036000000000000000000000000000000000008D
:10037000000000000102040810204080010204086F
:1003800010200102040810200000000025002800B1
:100390002B00040404040404040402020202020206
:1003A000030303030303C114D12211241FBECFEFA3
:1003B000D8E0DEBFCDBF12E0A0E0B1E0E4E3FEE4B0
:1003C00002C005900D92A834B107D9F725E0A8E442
:1003D000B2E001C01D92AE37B207E1F711E0C4ED03
:1003E000D1E004C02197FE010E948A25C33DD107B8
:1003F000C9F70E9490150C940D270C9400008F9261
:100400009F92AF92BF92CF92DF92EF92FF92CF93E3
:10041000209154053091550582179307E8F54B015B
:10042000AA24BB24C82DC52ED62EE72EFF24BC2D12
:10043000A42F20915A05222361F0829E40011124AD
:10044000C92D2C9D60011124BD2D249FF001112484
:10045000AF2FE0916005E0905B05F0905C05309176
:100460005D05E31323C09C01220F331F820F931FEE
:100470008E0D9F1DE0915D05E80FF92FF11DC083E2
:10048000E0915E05E80FF92FF11DB08320915F0523
:10049000820F911DFC01A083CF91FF90EF90DF9020
:1004A000CF90BF90AF909F908F900895880F991F25
:1004B000880F991F8E0D9F1D472F55276627772779
:1004C000222349F030E0249F7001259FF00C349FD7
:1004D000F00C11244F2DE80FF92FF11D4083CACFE6
:1004E0008230F8F4E82FF0E0EE0FFF1FE25FFE4FDE
:1004F00029E136E031832083813041F08091690029
:100500008C7F682B60936900E89A08958091690058
:10051000837F660F771F660F771F682B60936900D4
:10052000E99A089508950895AF92BF92CF92DF920D
:10053000EF92FF920F931F93CF93DF936C017B0198
:100540008B01040F151FEB015E01AE18BF08C01729
:10055000D10759F06991D601ED91FC910190F0819C
:10056000E02DC6010995892B79F7C501DF91CF915F
:100570001F910F91FF90EF90DF90CF90BF90AF90C1
:100580000895FC01538D448D252F30E0842F90E099
:10059000821B930B541710F0CF960895019708957E
:1005A000FC01918D828D981761F0A28DAE0FBF2F47
:1005B000B11D5D968C91928D9F5F9F73928F90E09D
:1005C00008958FEF9FEF0895FC01918D828D98170C
:1005D00031F0828DE80FF11D858D90E008958FEF49
:1005E0009FEF0895FC01918D228D892F90E0805C12
:1005F0009F4F821B91098F739927089589EA94E090
:100600000E94F20221E0892B09F420E0822F089554
:1006100080E090E0892B29F00E94FE0281110C9469
:1006200000000895FC01A48DA80FB92FB11DA35A95
:10063000BF4F2C91848D90E001968F739927848F02
:10064000A689B7892C93A089B1898C918370806425
:100650008C93938D848D981306C00288F389E02DC6
:1006600080818F7D80830895EF92FF920F931F9377
:10067000CF93DF93EC0181E0888F9B8D8C8D981355
:100680001AC0E889F989808185FF15C09FB7F89461
:10069000EE89FF896083E889F989808183708064AD
:1006A00080839FBF81E090E0DF91CF911F910F91F8
:1006B000FF90EF900895F62E0B8D10E00F5F1F4F07
:1006C0000F731127E02E8C8D8E110CC00FB607FC16
:1006D000FACFE889F989808185FFF5CFCE010E94A4
:1006E0001203F1CFEB8DEC0FFD2FF11DE35AFF4FFD
:1006F000F0829FB7F8940B8FEA89FB898081806232
:10070000CFCF0F931F93CF93DF938C01D0E0C0E046
:10071000F801EC0FFD1F6491662341F089EA94E033
:100720000E943403892B11F02196F2CF42E050E071
:1007300065E472E089EA94E00E9494028C0F9D1FA8
:10074000DF91CF911F910F910895CF93DF93EC012B
:10075000888D8823B9F0AA89BB89E889F9898C91A9
:1007600085FD03C0808186FD0DC00FB607FCF7CF65
:100770008C9185FFF2CF808185FFEDCFCE010E9465
:100780001203E9CFDF91CF910895833081F028F4EF
:10079000813099F08230A9F008958730A9F088302F
:1007A000C9F08430B1F4809180008F7D03C08091C6
:1007B00080008F7780938000089584B58F7784BD03
:1007C000089584B58F7DFBCF8091B0008F778093A3
:1007D000B00008958091B0008F7DF9CFCF93DF9363
:1007E000282F30E0F901E458FF4F8491F901EC58CB
:1007F000FC4FD491F901EE56FC4FC491CC23A1F0EB
:1008000081110E94C503EC2FF0E0EE0FFF1FEE58A0
:10081000FF4FA591B491EC91ED2381E090E009F4B4
:1008200080E0DF91CF91089580E090E0FACF1F93B0
:10083000CF93DF93282F30E0F901E458FF4F8491E4
:10084000F901EC58FC4FD491F901EE56FC4FC491DC
:10085000CC23A9F0162F81110E94C503EC2FF0E0E4
:10086000EE0FFF1FE857FC4FA591B4918FB7F89496
:10087000EC91111108C0D095DE23DC938FBFDF917E
:10088000CF911F910895DE2BF8CF682F8DE00C9447
:100890001704CF93DF9390E0FC01EC58FC4F2491B8
:1008A0008E569C4FFC0184918823C9F090E0880FFC
:1008B000991FFC01E859FF4FA591B491FC01E8573D
:1008C000FC4FC591D49161110DC09FB7F8948C91E4
:1008D000209582238C938881282328839FBFDF91D2
:1008E000CF910895623051F49FB7F8943C91822FD4
:1008F000809583238C93E8812E2BEFCF8FB7F894CC
:10090000EC912E2B2C938FBFEACF1F93CF93DF93C5
:10091000182FEB0161E00E944904209739F460E050
:10092000812FDF91CF911F910C941704CF3FD105F8
:1009300011F461E0F5CFE12FF0E0E458FF4FE491CE
:10094000E33031F140F4E130B1F0E230E1F0C038B1
:10095000D1057CF7E4CFE73029F1E83059F1E430F4
:10096000B1F780918000806280938000D0938B00EB
:10097000C0938A0004C084B5806884BDC7BDDF9180
:10098000CF911F91089584B5806284BDC8BDF7CF13
:1009900080918000806880938000D0938900C0930C
:1009A0008800EDCF8091B00080688093B000C09344
:1009B000B300E5CF8091B00080628093B000C09317
:1009C000B400DDCF3FB7F89480919F029091A002D0
:1009D000A091A102B091A20226B5A89B05C02F3F0D
:1009E00019F00196A11DB11D3FBFBA2FA92F982F55
:1009F0008827BC01CD01620F711D811D911D42E050
:100A0000660F771F881F991F4A95D1F708950F9396
:100A10001F93CF93DF93CDB7DEB729970FB6F89426
:100A2000DEBF0FBECDBF80915B0590915C05892B29
:100A300009F47CC00E94E2040091610510916205F6
:100A40002091630530916405601771078207930751
:100A500040F4609361057093620580936305909301
:100A60006405009161051091620520916305309144
:100A70006405601B710B820B930B6C327140810516
:100A80009105C0F2F89480915605909157059A838C
:100A90008983E0915B05F0915C05DF01119680810F
:100AA000898790915205E0916505F09166058091E6
:100AB0006705992309F445C09081982B9887908108
:100AC000809589238F838F818C8388E08B835885E1
:100AD0006F8149853B812C8189819A81508347FDB3
:100AE000252F3A952083262F39F0441F00C000009F
:100AF0006083000000C0F2CF38E04D9160830000B9
:100B0000019761F7F0936605E093650549873B839C
:100B10002C839A83898378940E94E2046093610510
:100B200070936205809363059093640529960FB6D0
:100B3000F894DEBF0FBECDBFDF91CF911F910F9113
:100B400008959081982B98879081809589238F8331
:100B50008F818E8388E08D8358856F8149853D81A3
:100B60002E8189819A81508347FD252F00C000C0C6
:100B7000208300C000C000C000C000C0608300002F
:100B8000262F3A9541F0441F000000C000C000C06D
:100B900000C000C0E8CF38E04D9100C0608300C0C5
:100BA000019709F7F0936605E093650549873D8352
:100BB0002E83AFCF8F929F92AF92BF92CF92DF9250
:100BC000EF92FF926B017C010E94E2044B015C01F9
:100BD000C114D104E104F104B9F00E94E2046819DF
:100BE00079098A099B09683E73408105910580F364
:100BF00021E0C21AD108E108F10888EE880E83E0EE
:100C0000981EA11CB11CE4CFFF90EF90DF90CF9015
:100C1000BF90AF909F908F9008952FB7F8946091F8
:100C200022037091230380912403909125032FBF09
:100C300008950F931F930E94E204AB01BC018091C1
:100C4000560290915702A0915802B09159028A0120
:100C50009B01081B190B2A0B3B0BD901C8010097FC
:100C6000A140B10520F58091560290915702A091C4
:100C70005802B09159029A01281B390BC9014093BF
:100C80005602509357026093580270935902E091B4
:100C9000AB02E73090F4F0E0E05BF94F0C948A256A
:100CA0005A068C06030740077206B10640078FEF0D
:100CB0009FEFE5CF84E08093AB028091AB0262E0CE
:100CC00070E0843010F063E070E080917105823054
:100CD00009F45BC1833009F45AC18FEF1F910F9162
:100CE0000C9470029C0127553A412339314110F48C
:100CF00081E0E1CF8B5693408F35914008F0BDC025
:100D00001092520210925302109254021092550205
:100D10001092510283E0CFCF1092AB029C012B5274
:100D20003D402B3C384060F4109252021092530226
:100D300010925402109255021092510285E0BBCFDE
:100D4000855996408736944008F0B7CF0E940D062B
:100D50006093300470933104809332049093330491
:100D6000ACCF1092AB02855A91408B31914008F084
:100D7000A4CF80915102803210F482E09CCF809108
:100D8000520290915302A0915402B09155024091A9
:100D90005202509153026091540270915502892F72
:100DA0009A2FAB2FBB2784279527A627B7279927EC
:100DB000BB278F3F9105AF4FB10509F07ECF8091E2
:100DC000520290915302A0915402B09155028A2F81
:100DD00090E090933504809334040E940D06609354
:100DE000300470933104809332049093330481E093
:100DF00080933604E0916F05F0917005309709F407
:100E00005CCF09955ACF25E02093AB024091520266
:100E100050915302609154027091550276956795F6
:100E20005795479540935202509353026093540252
:100E300070935502209151022F5F209351029C0123
:100E4000205F34402D34334090F4809152029091D1
:100E50005302A0915402B0915502B068809352029F
:100E600090935302A0935402B093550226CF855A13
:100E700091408B31914008F420CF1092AB021DCFEE
:100E80009C012F5A31092F35314048F5809151028C
:100E900080FD15C08091520290915302A09154029E
:100EA000B0915502880F991FAA1FBB1F81608093C4
:100EB000520290935302A0935402B0935502809132
:100EC00051028F5F80935102809151028E3120F543
:100ED0008091AB02863009F41DCF86E0ECCE8D50B8
:100EE00092408F35914048F6809152029091530282
:100EF000A0915402B0915502880F991FAA1FBB1FE1
:100F00008093520290935302A0935402B0935502DF
:100F1000809151028E5FD6CF809152029091530200
:100F2000A0915402B09155029C01306890915002FA
:100F3000832F829586958770911104C0837080936A
:100F400050029BCF40915002837050E084171506E9
:100F500009F093CF30933504209334040E940D069A
:100F6000609330047093310480933204909333047F
:100F700082E080933604E0916F05F0917005309720
:100F800009F47BCF81E0099578CF80E0A7CE81E09E
:100F9000A5CE8F929F92AF92BF92CF92DF92EF92A7
:100FA000FF920F931F93CF93DF93F8941091360421
:100FB00010923604C0913404D091350480903004EE
:100FC00090903104A0903204B0903304789481144E
:100FD0009104A104B10409F413C13CE2C32EDD2441
:100FE000D394E12CF12CD7FD06C0C0901201D09013
:100FF0001301F12CE12C0E940D06681979098A0968
:101000009B09209176056C157D058E059F0508F0DE
:10101000CBC0211136C0209709F43FC112E0D7FFA1
:1010200011E0E0916F05F0917005309711F081E0CB
:1010300009951092780510927705D7FF35C18C2F4E
:101040008770805A809376058C2F86958695869535
:101050008051990B04E0880F991F0A95E1F790934E
:101060007305809372058D2F8F718051990B24E049
:10107000880F991F2A95E1F7909375058093740561
:1010800002C01111D6CF00917905002309F471C077
:10109000D7FF6FC0809172059091730540917405E0
:1010A00050917505BC0197FF04C066277727681B20
:1010B000790B9A0157FF04C022273327241B350BD5
:1010C000260F371F283231050CF469C0DC0197FD6B
:1010D0001196B595A795E1E0A417B5070CF0E0E0EF
:1010E000BA0157FF02C06F5F7F4F759567958617EE
:1010F00097070CF4EE5FBA0157FF02C06F5F7F4F96
:1011000075956795719561957109861797070CF428
:10111000EC5FCC27DD27C41BD50BAC17BD070CF447
:10112000E85FF0E0E650FE4F60816093770563373B
:1011300061F028F4613789F13695279507C0643747
:1011400039F16637C9F79E0101C09C012F3F310577
:1011500019F010F02FEF30E020937805023049F4B9
:1011600080917605803629F48091770581118093EE
:101170007605812F90E0DF91CF911F910F91FF9025
:10118000EF90DF90CF90BF90AF909F908F90089599
:1011900022273327281B390BD9CF9A01D7CF10929A
:1011A000770510927805DACF222319F3109278058B
:1011B00010927705109275051092740510927305C0
:1011C000109272051092760510923004109231043C
:1011D0001092320410923304E0916F05F091700583
:1011E000309711F080E009950E940D0660932C0461
:1011F00070932D0480932E0490932F0411E0B9CFA7
:101200000E940D06C0902C04D0902D04E0902E0476
:10121000F0902F04DC01CB018C199D09AE09BF09A8
:10122000CD2B79F0409112015091130170E060E0F4
:10123000481759076A077B0720F41092350410926B
:10124000340427E0B695A795979587952A95D1F709
:101250000097A105B10509F48CCF8F709927AA27B3
:10126000BB270097A105B10551F4E0916F05F091FE
:10127000700581E0309709F47CCF09957ACF01970A
:10128000A105B10509F075CFE0916F05F0917005EA
:10129000309709F46ECF80E0F0CF112309F4F3CE3C
:1012A0001092780510927705C09376051092750517
:1012B000109274051092730510927205E4CE089591
:1012C000DC01ED91FC910190F081E02D09942091D9
:1012D0007B02260F3327331F21323105ECF4209196
:1012E0007F04FC0190E080E0243069F082E0089502
:1012F000A0917B022191AC01455A5D4FA40FB52FFF
:10130000B11D2C930196861798F380917B02680F8C
:1013100060937B0280E0089581E0089510927F043D
:1013200081E080937E041092590461E082E10E9482
:10133000170461E083E10E941704E9EBF0E080818B
:101340008E7F808380818D7F808388E48093B80046
:1013500085E48093BC000895CF93DF9391E0909350
:101360005A028823B9F0C091B800D091BA00809198
:10137000BC008A7B8093BC0060E082E10E9417047D
:1013800060E083E10E9417040E948E09D093BA00A6
:10139000C093B800DF91CF9108958F929F92AF9242
:1013A000BF92CF92DF92EF92FF920F931F93CF9352
:1013B000DF93D091A804D13208F0D7C0182FC09184
:1013C000A7040E94E2046B017C0180917F048111DB
:1013D0006BC082E080937F0410937E048FEF809334
:1013E0007D0410927C04D0937B04A7E8B4E0EBE585
:1013F000F4E080E0D81391C010925A0480915A040E
:10140000CC0FC82BC0935A0480915904813009F045
:1014100088C0109259040E94E2046B017C01809103
:101420005A048093BB008091810490918204A09122
:101430008304B0918404892B8A2B8B2BA1F00E940A
:10144000E204009181041091820420918304309180
:1014500084046C197D098E099F0906171707280750
:10146000390708F442C08091BC0083FDD8CF85ECD9
:101470008093BC000E94E2046B017C0180917F0498
:10148000823009F450C080917D048F3F09F46FC011
:1014900080917D04803209F46CC080917D0480339A
:1014A00009F469C084E026C080918104909182048F
:1014B000A0918304B0918404892B8A2B8B2B09F48F
:1014C00084CF0E94E2048090810490908204A090D6
:1014D0008304B09084046C197D098E099F098616D7
:1014E0009706A806B90608F070CF809180040E9484
:1014F000AC0985E0109286041092A804109285042D
:10150000DF91CF911F910F91FF90EF90DF90CF90DF
:10151000BF90AF909F908F9008959D9191938F5F12
:1015200069CF85EEA5CF8091810490918204A0912E
:101530008304B0918404892B8A2B8B2B09F49ECFD2
:101540000E94E2040091810410918204209183049E
:10155000309184046C197D098E099F0906171707BD
:101560002807390708F08ACFC0CF81E0C3CF80E0D9
:10157000C1CF82E0BFCF83E0BDCFEF92FF920F9348
:101580001F93CF93DF93E62E072FF42E152FC8E677
:10159000D5E0A981BA81988121E0209385049093B8
:1015A000A704109286041092A80494E0899FB001C9
:1015B00011246A5F7F4FED91FC9111970190F081AA
:1015C000E02DCD0109956E2D702F89819A810E94A1
:1015D0006009602F70E089819A810E9460096F2DF7
:1015E000712F89819A810E946009612F70E0898141
:1015F0009A810E94600981E0DF91CF911F910F9144
:10160000FF90EF900C94CD091F93CF93DF93162F8B
:10161000C8E6D5E0A981BA81988121E020938504AC
:101620009093A704109286041092A804ED91FC9167
:1016300011970190F081E02D682FCD0109958981E6
:101640009A81DC01ED91FC910190F081E02D612FF8
:10165000099581E0DF91CF911F910C94CD09CF9234
:10166000DF92EF92FF920F931F93CF93DF93D82FC8
:10167000C62F613208F098C00E94E2046B017C0121
:1016800080917F0481116BC081E080937F048093FF
:101690007E049FEF90937D0410927C049C0F9093A6
:1016A0007B0480935A0480915A04DD0FD82BD09389
:1016B0005A0480915904813009F078C0109259047D
:1016C0000E94E2046B017C0180915A048093BB006C
:1016D0008091810490918204A0918304B09184044C
:1016E000892B8A2B8B2BA1F00E94E20400918104AC
:1016F0001091820420918304309184046C197D0937
:101700008E099F09061717072807390708F448C0EC
:101710008091BC0083FDD8CF85EC8093BC000E94F3
:10172000E2046B017C0180917F04813009F440C0A8
:1017300080917C048C1710F4C0917C04EBE5F4E0FC
:10174000A9E3B4E080E08C1355C08C2FDF91CF91DA
:101750001F910F91FF90EF90DF90CF9008958091AF
:10176000810490918204A0918304B0918404892B18
:101770008A2B8B2B09F484CF0E94E2040091810410
:101780001091820420918304309184046C197D09A6
:101790008E099F09061717072807390708F070CF29
:1017A000809180040E94AC09C0E0CFCF85EEB5CF18
:1017B0008091810490918204A0918304B09184046B
:1017C000892B8A2B8B2B09F4AECF0E94E204009167
:1017D00081041091820420918304309184046C1957
:1017E0007D098E099F09061717072807390708F092
:1017F0009ACFD6CF91919D938F5FA5CF0895E09119
:10180000380480913704E81730F4F0E0E75CFB4FD0
:10181000808190E008958FEF9FEF089590913804B4
:10182000809137042FEF3FEF981748F4E92FF0E04D
:10183000E75CFB4F208130E09F5F90933804C90143
:1018400008958091370490913804891B990B08956D
:10185000CF92DF92EF92FF920F931F93CF93DF937C
:101860007C01CB018A0120918504222389F0EB01C0
:101870006B01C40ED51ECC15DD0569F06991D70149
:10188000ED91FC910190F081E02DC7010995F3CF16
:10189000642F0E946709C801DF91CF911F910F91BA
:1018A000FF90EF90DF90CF900895CF93DF931F923A
:1018B000CDB7DEB76983209185042223F9F020910A
:1018C000A804203258F021E030E0FC013383228369
:1018D00090E080E00F90DF91CF9108958091860491
:1018E000E82FF0E0E957FB4F998190838F5F809359
:1018F00086048093A80481E090E0ECCF61E0CE0103
:1019000001960E946709F7CF90E080E00895EF927A
:10191000FF920F931F93CF93DF937C01D0E0C0E041
:101920000BE316E0CE15DF0584F461E088E00E9449
:101930001704C8010197F1F760E088E00E941704DE
:10194000C8010197F1F72196EDCFDF91CF911F915B
:101950000F91FF90EF9008952F923F924F925F92D8
:101960006F927F928F929F92AF92BF92CF92DF92AF
:10197000EF92FF920F931F93CF93DF93D0E010E08D
:10198000F12CE12C882E912CB12CA12C00E0C0E090
:10199000D12CC12C2E2C209433243A94310E3EEFBE
:1019A000732E710E662463946D0E42E0542E5D0E0C
:1019B0005DEF452E410E8091540590915505C81656
:1019C000D90698F5822D800F8535A0F4452D4C0F52
:1019D00050E070E060E0BA0155274427842D8C1B4D
:1019E000482BC6010E94FF018FEFC81AD80ACD5FAD
:1019F0000150E1CF8A3A60F4472D4C1B50E070E073
:101A000060E0762F652F542F4427862D8C0FE8CF6A
:101A10004C2F4D0F50E070E060E0762F652F542F73
:101A20004427832D8C1B682BDCCF0E940705C50142
:101A3000B4010E94DA058FEFE81AF80A1350DD5F4F
:101A4000E11481E0F80609F0A1CFDF91CF911F9159
:101A50000F91FF90EF90DF90CF90BF90AF909F904D
:101A60008F907F906F905F904F903F902F90089550
:101A7000CF92DF92EF92FF92CF936B017C01C0E097
:101A80008C2F90E0209154053091550582179307D3
:101A900070F4B701A6010E94FF010E9407056AE0E9
:101AA00070E080E090E00E94DA05CF5FE9CFCF914F
:101AB000FF90EF90DF90CF900895CF93DF93C82FE2
:101AC00060E070E0CB010E94380DD0E0CC0FDD1F4C
:101AD00040E050E06FEF70E0CE010E94FF010E94F5
:101AE00007056AE070E080E090E00E94DA0540E0DF
:101AF00050E06FEF70E0CE0101960E94FF010E945E
:101B000007056AE070E080E090E0DF91CF910C94EF
:101B1000DA05873078F5E82FF0E0EF56F24F0C94B5
:101B20008A25980D9D0DA20DA70DAC0DB10DB50D1B
:101B300060E070E0CB010C94380D60E070E08FEF56
:101B400090E0F9CF60E07FEF80E090E0F4CF6FEFBE
:101B500070E080E090E0EFCF60E070E880E890E037
:101B6000EACF60E870E0CB01E6CF60E870E880E0A3
:101B700090E0E1CF08959093DC028093DB0286E051
:101B800080931D030E940D066093190370931A033E
:101B900080931B0390931C0381E08093DE020895E1
:101BA000CF93C0E050E040E070E060E08C2F0E94F6
:101BB000BD0ACF5FC830B1F710921D031092D10259
:101BC000CF910895FF920F931F93CF93DF93F62E3B
:101BD0008A01C82FD0E00E940D06FE01EE0FFF1F04
:101BE000EE0FFF1FE951FD4F608371838283938362
:101BF000FE01EE0FFF1FE95FFC4F11830083FE0122
:101C0000E152FD4FDE01A85BBD4F8C918083CE5F1A
:101C1000DE4FF882DF91CF911F910F91FF900895D1
:101C2000EF92FF920F931F93CF93DF937B01D42FFB
:101C30008C01C0E0F80161918F016F3739F0062EF9
:101C4000000C770BA7018C2F0E94E20DCF5FC830EC
:101C500089F7D0931D030E940D06609319037093BA
:101C60001A0380931B0390931C03DF91CF911F9164
:101C70000F91FF90EF90089590930B0180930A01CC
:101C800028E0EAEEF1E0A3EDB2E001900D922A9592
:101C9000E1F72091D102261709F473C06093D102B5
:101CA000613108F06EC0E62FF0E0E75AF14F0C9476
:101CB0008A256A0E7B0E8B0E880E7F0E850E820E95
:101CC000930E980E9D0EA20EA70EAC0EB10EBB0E7B
:101CD000BE0E8E0E80911D039CEF980F923008F47B
:101CE00050C0882309F44DC044E068EC70E086E4FD
:101CF00091E00C94100E8EED91E00C94BB0D86EDEE
:101D000091E0FBCF8EEC91E0F8CF86EC91E0F5CF3F
:101D10008EEB91E0F2CF86EB91E0EFCF41E0BC019A
:101D20008EEA91E0E6CF41E0BC0186EA91E0E1CFA6
:101D300041E0BC018EE991E0DCCF41E0BC0186E9E5
:101D400091E0D7CF41E0BC018EE891E0D2CF41E0F5
:101D5000BC0186E891E0CDCF41E0BC018EE791E087
:101D6000C8CF2EE631E0309318032093170342E0EA
:101D7000BC01C901BECF2EE531E0F5CF2EE431E044
:101D8000F2CF08950F931F93CF93DF93C82FD0E026
:101D9000FE01E85BFD4F60838C3008F063C0FE01FC
:101DA000E25CFE4F8081082E000C990B8617970786
:101DB0005CF0FE01EA5CFE4F8081082E000C990B5E
:101DC000861797070CF4CB01FE01ED55FD4F2081DE
:101DD000820F911D27FD9A95FE01E25DFE4F408125
:101DE000BC0146039001479F300D1124FE01EA5DBE
:101DF000FE4F8081280F311D87FD3A952B3F7FEFE5
:101E0000370714F42BEF3FEF8E01102F0027110F2F
:101E10002A3B310514F029EB30E0032E000C440B73
:101E2000550B2B5F3F4F4F4F5F4FA7ECB1E00E9428
:101E300097252EEB30E040E050E00E946B25C80172
:101E4000865A9F4FAC01420F531F5F70B80166273F
:101E50007E70C65EDE4F8881DF91CF911F910F911A
:101E60000C94BD0ADF91CF911F910F910895CF93EC
:101E7000DF93C82FD62F0E94C20EEC2FF0E0EE5F4A
:101E8000FE4FD08381E080931D030E940D06609376
:101E9000190370931A0380931B0390931C03DF9123
:101EA000CF910895CF93DF93C42FD82FDD0F062E47
:101EB000000C770B8D2F0E94370F6C2FCC0F770BF8
:101EC00081E08D0F0E94370F81E18093D102DF9175
:101ED000CF910895ECE2F3E02FEF208325E52183F5
:101EE00023E0228322E023838483958346E050E02D
:101EF000BF0189EA94E00C949402ECE2F3E09FEFD6
:101F0000908395E5918392E0928391E0938384831B
:101F100045E050E0BF0189EA94E00C949402ECE2C1
:101F2000F3E08FEF808385E58183128243E050E008
:101F3000BF0189EA94E00C949402E82FF0E0EF539B
:101F4000FD4FE081EC5FF0E0E45DFC4F918180812A
:101F5000089586E00E94EE03382F809100018317D8
:101F600039F081E090E0311180E030930001089574
:101F700080E090E0FACF8F929F92AF92BF92CF9283
:101F8000DF92EF92FF92CF936B017C0120E030E073
:101F900040E85FE30E94642387FDA5C020E030ECA9
:101FA0004AE555E4C701B6010E94C32418163CF463
:101FB000C12C30ECD32E3AE5E32E35E4F32E6091BC
:101FC0006B0570916C0580916D0590916E050E9476
:101FD00011244B015C0120E030E040E855E4C701EA
:101FE000B6010E94C8249B01AC01C501B4010E9446
:101FF000692320E030E040E05FE30E94F82220E027
:1020000030E040E85FE30E94F7226B017C0120E0B2
:1020100030E040E450E40E94642387FD6BC020E080
:1020200030E04FE753E4C701B6010E94C3241816FD
:1020300034F4C12CD12C9FE7E92E93E4F92E809142
:10204000690590916A052091680531E03093850417
:102050002093A704109286041092A804DC01ED914D
:10206000FC910190F081E02D60E0099581E00E94F3
:10207000CD0961E0809168050E942F0B1092380411
:10208000809337048091690590916A05DC01ED9198
:10209000FC910284F385E02D0995C82F682F6F7697
:1020A000606180E00E94040BC701B6010E94E22338
:1020B0008EEF0E94040B6C2F80E00E94040B65E001
:1020C00070E080E090E00E94DA056C2F606A80E0AA
:1020D000CF91FF90EF90DF90CF90BF90AF909F9007
:1020E0008F900C94040BC12CD12C20E8E22E2FE30E
:1020F000F22E65CFC12CD12C80E4E82EFE2C9FCF90
:102100001F93CF93DF93182FC82FD0E0AE016CE25E
:1021100073E081E393E00E94F226ECE2F3E08FEFBC
:10212000808385E5818382E0810F828387E08383DA
:102130001483AE014B5F5F4FBF0189EA94E0DF91EA
:10214000CF911F910C949402EF92FF920F931F93E3
:10215000CF93DF93EB01613208F060E20E942F0B16
:1021600010923804809337048C171D068CF00CE213
:1021700013E0CE01845D9C4F7C01E016F10681F0F6
:1021800086E495E00E940E0CF80181938F01F5CF53
:10219000DF91CF911F910F91FF90EF900C948F0FD3
:1021A0008C2FDF91CF911F910F91FF90EF900C94A6
:1021B0008010EF92FF920F931F93CF93DF9389309C
:1021C00048F090E080E0DF91CF911F910F91FF9058
:1021D000EF900895623009F445C0C82F633018F5B8
:1021E000E82FF0E0662309F446C0613009F44CC0E2
:1021F0000C2F10E0C8018D559D4F7C01DC01DC9156
:10220000C8010E94E122D81721F06D2FC8010E9459
:10221000E92270E060E08C2F0E94370F81E180930B
:10222000D102F70123C06330B9F1643009F7E3EA62
:10223000F2E088E0DF011D928A95E9F78F01D0E096
:10224000C0E0F801F1908F01CE010E94E122F81662
:1022500021F06F2DCE010E94E9222196C830D105D0
:1022600081F7AFCFE82FF0E0ED55FD4F8081082ECC
:10227000000C990BA8CFED55FD4F80818F3709F4E5
:10228000B7CF8F5F8083B4CFED55FD4F808180380D
:1022900009F4AECF8150F6CFE82FF0E0ED55FD4FB9
:1022A0001082A6CF85ED8093BC008091810490912F
:1022B0008204A0918304B09184040796A11DB11DEE
:1022C00023E0B695A795979587952A95D1F7209104
:1022D000BC0024FD03C010927F0408954091810446
:1022E000509182046091830470918404452B462BA5
:1022F000472B69F30097A105B10541F025E32A9525
:10230000F1F700000197A109B109E1CF80918004A4
:102310000C94AC09CF92DF92EF92FF920F931F9330
:102320008EE00E94EE03019709F44CC060E08FE05C
:102330000E94170483E090E00197F1F761E08FE0DD
:102340000E94170483E290E00197F1F760E08FE0CC
:102350000E941704E2E8F3E06491E0EAF3E0E4911C
:10236000F0E0EE0FFF1FEE58FF4F8591949100E4CF
:1023700012E42FE030E0462F0E947C1461157105B5
:102380008105910529F06F5F7F4F8F4F9F4F9F70A1
:102390000E9411246B017C0120E030E0A9010E9421
:1023A000C3241816A4F426E933E44BE85CE3C70120
:1023B000B6010E94C8241F910F91FF90EF90DF900B
:1023C000CF90089560E070E088EC92E4F4CF60E094
:1023D00070E0CB01F0CF1F920F920FB60F92112435
:1023E0002F933F934F935F936F937F938F939F931D
:1023F000AF93BF93EF93FF938091B5029091B60294
:10240000A091B702B091B802892B8A2B8B2BD1F106
:102410009091B002E091B102F091B20280818927DF
:1024200080838091B5029091B602A091B702B091DD
:10243000B802181619061A061B069CF48091B502FC
:102440009091B602A091B702B091B8020197A1098C
:10245000B1098093B5029093B602A093B702B093EE
:10246000B802FF91EF91BF91AF919F918F917F91B2
:102470006F915F914F913F912F910F900FBE0F90F1
:102480001F90189580910101E3EBF0E0E4919FEF3C
:1024900090930101E13051F030F0E23069F060E0FA
:1024A0000E941704DECF10926E00F9CF90916F005A
:1024B0009D7F90936F00F3CF909170009D7F9093DC
:1024C000700091E09093B0009091B100987F94607B
:1024D0009093B1001092B300E2CF1F920F920FB60B
:1024E0000F9211242F933F934F935F936F937F939A
:1024F0008F939F93AF93BF93EF93FF9389EA94E0F9
:102500000E941203FF91EF91BF91AF919F918F9124
:102510007F916F915F914F913F912F910F900FBEDF
:102520000F901F9018951F920F920FB60F921124C3
:102530002F938F939F93EF93FF93E091B904F091C2
:10254000BA048081E091BF04F091C00482FD1BC0F9
:1025500090818091C2048F5F8F732091C304821792
:1025600041F0E091C204F0E0E755FB4F958F809376
:10257000C204FF91EF919F918F912F910F900FBE09
:102580000F901F9018958081F4CF1F920F920FB675
:102590000F9211242F933F938F939F93AF93BF93E9
:1025A0008091220390912303A0912403B0912503ED
:1025B00030919E0223E0230F2D3758F50196A11D7F
:1025C000B11D20939E028093220390932303A09336
:1025D0002403B093250380919F029091A002A091C3
:1025E000A102B091A2020196A11DB11D80939F028C
:1025F0009093A002A093A102B093A202BF91AF91C9
:102600009F918F913F912F910F900FBE0F901F9030
:10261000189526E8230F0296A11DB11DD2CF1F9257
:102620000F920FB60F9211242F933F934F935F9306
:102630006F937F938F939F93AF93BF93EF93FF938A
:10264000E0911001F09111010995FF91EF91BF9177
:10265000AF919F918F917F916F915F914F913F913A
:102660002F910F900FBE0F901F9018951F920F92F1
:102670000FB60F9211242F933F934F935F936F9355
:102680007F938F939F93AF93BF93EF93FF93E091CB
:102690000E01F0910F010995FF91EF91BF91AF915C
:1026A0009F918F917F916F915F914F913F912F916A
:1026B0000F900FBE0F901F9018951F920F920FB69C
:1026C0000F9211242F933F934F935F936F937F93B8
:1026D0008F939F93AF93BF93EF93FF938091B90034
:1026E000887F803609F44AC0F0F5883209F4A7C023
:1026F00018F5803109F49BC0B8F4882309F4F9C0B7
:10270000883009F494C0FF91EF91BF91AF919F91F0
:102710008F917F916F915F914F913F912F910F908A
:102720000FBE0F901F901895883109F488C0803231
:1027300051F780937D0414C0803409F49DC040F4A7
:102740008033B9F38833F9F680937D0485ECB0C00B
:10275000803509F485C0883509F496C0883499F627
:102760000E945211D0CF883909F48CC038F58837CF
:1027700029F050F4883611F0803729F683E08093F1
:102780007F0410929D0257C0883809F47BC08039BD
:1027900019F0803809F0B7CF80919D02803208F09F
:1027A00071C0E0919D0281E08E0F80939D02809127
:1027B000BB00F0E0E358FD4F80833DC0803B39F023
:1027C000E0F4803A09F479C0883A09F09CCF84E0BB
:1027D00080937F0410927C0210927B02E091AE0203
:1027E000F091AF02099580917B0281110FC081E0C9
:1027F00080937B0210925B0209C0803C09F4A6CF53
:10280000883C09F4A3CF883B09F07DCFE0917C029E
:1028100081E08E0F80937C02F0E0E55AFD4F8081CD
:102820008093BB0090917C0280917B0229C08091B3
:102830005A048093BB0085EC8093BC0064CF9091D8
:102840007C0480917B04981758F5E0917C0481E02A
:102850008E0F80937C04F0E0E55AFB4F8081E9CF36
:10286000E0917C0481E08E0F80937C048091BB001A
:10287000F0E0E55AFB4F808390917C0480917B04CB
:102880009817C8F285E8D8CFE0917C0481E08E0FDC
:1028900080937C048091BB00F0E0E55AFB4F80837D
:1028A00080917E0481115CCF81E08093590484EA99
:1028B0008093BC0010927F0426CF85EC8093BC00EF
:1028C00010927F0480919D02803230F4E0919D024D
:1028D000F0E0E358FD4F108260919D0270E0E091BE
:1028E000AC02F091AD028DE792E0099510929D0245
:1028F0000ACF10927D0434CFCF92DF92EF92FF92F5
:102900000F931F93E82FF92F05C0015011092109DA
:10291000310961F1908196239417B9F305C00150F4
:1029200011092109310911F1908196239413F7CFF0
:10293000C12CD12CE12CF12C0AC08FEFC81AD80A77
:10294000E80AF80A0C151D052E053F0579F080816F
:102950008623841791F36C2D7D2D8E2D9F2D1F9135
:102960000F91FF90EF90DF90CF90089560E070E0BE
:1029700080E090E01F910F91FF90EF90DF90CF905B
:1029800008951092AC041092AB0488EE93E0A0E09E
:10299000B0E08093AD049093AE04A093AF04B093E5
:1029A000B0042EE032E03093AA042093A90425EC71
:1029B00030E03093B6042093B50424EC30E030933B
:1029C000B8042093B70420EC30E03093BA0420938D
:1029D000B90421EC30E03093BC042093BB0422EC1A
:1029E00030E03093BE042093BD0426EC30E03093F9
:1029F000C0042093BF041092C2041092C30410922A
:102A0000C4041092C50410924905109248058093A1
:102A10004A0590934B05A0934C05B0934D0580E279
:102A200092E0909347058093460580E48093680583
:102A300086E495E090936A058093690510925305AA
:102A400010925A051092610510926205109263056A
:102A50001092640581E08093600580935D0510927B
:102A60005E0592E090935F058093520588E190E0C7
:102A700090935705809356050E94CD2590935C0551
:102A800080935B05009709F442C028E1FC01119294
:102A90002A95E9F788E090E09093550580935405D6
:102AA00080E190E0909359058093580580915305FB
:102AB000882341F061E080E10E94490460E080E108
:102AC0000E941704E2EAF3E0E491F0E0EE0FFF1F4A
:102AD000E857FC4F85919491909366058093650526
:102AE000E4E8F3E0E491E093670582E08093790500
:102AF0008093710585E494E09093700580936F0551
:102B00008CE291E09093130180931201089510924A
:102B10005705109256051092550510925405C0CFD6
:102B2000CF93DF9300D000D000D0CDB7DEB778943C
:102B300084B5826084BD84B5816084BD85B58260C2
:102B400085BD85B5816085BD80916E008160809373
:102B50006E001092810080918100826080938100DC
:102B600080918100816080938100809180008160EC
:102B7000809380008091B10084608093B100809147
:102B8000B00081608093B00080917A00846080936F
:102B90007A0080917A00826080937A0080917A0036
:102BA000816080937A0080917A00806880937A00B7
:102BB0001092C10014BE0FB6F894A89580916000E1
:102BC000886180936000109260000FBEE091B904AC
:102BD000F091BA0482E08083E091B504F091B604EC
:102BE0001082E091B704F091B80480E180831092E4
:102BF000C104E091BD04F091BE0486E08083E091C1
:102C0000BB04F091BC04808180618083E091BB04AF
:102C1000F091BC04808188608083E091BB04F091D6
:102C2000BC04808180688083E091BB04F091BC0487
:102C300080818F7D808361E08DE00E94490460E0A7
:102C40008DE00E94170464E670E080E090E00E944E
:102C5000DA0561E081E10E94490461E081E10E94BE
:102C6000170462E08EE00E94490461E08FE00E9458
:102C7000490461E088E00E94490462E083E00E9428
:102C8000490462E084E00E94490462E085E00E9419
:102C9000490462E086E00E944904809158059091C1
:102CA000590597FD08C061E00E94490460E08091E9
:102CB00058050E94170481E0809353050E94070580
:102CC00013EAE12E12E0F12E670110E000E021E0AE
:102CD0002983C8010E94E122D6018D936D018F3FA7
:102CE00009F019820F5F1F4F0830110591F7B98164
:102CF000B111D0C01092380410923704109286049B
:102D00001092A8040E948E0982E992E09093AF028B
:102D10008093AE0283E992E09093AD028093AC027F
:102D200060E880E00E94040B6AE070E080E090E0E0
:102D30000E94DA0560E070E08AE794E40E94BB0F2D
:102D400080E498E7ADE7B1E080936B0590936C0564
:102D5000A0936D05B0936E0560E070E088E492E4A6
:102D60000E94BB0F60E081E10E941704198270E0AD
:102D700060E089810E94C20E68E270E080E090E02D
:102D80000E94DA0589818F5F8983883081F764E644
:102D900070E080E090E00E94DA050E94D00D9091F2
:102DA0007105998360E0892F0E944904A98180E020
:102DB000A23021F081E0A33009F08FEF62E070E0F3
:102DC0000E9470021092AB021092350410923404EB
:102DD00085E00E94890D84E690E00E94870C8BE9D3
:102DE00090E00E94810389EA94E00E94F2021816A2
:102DF00019060CF03EC681E08093290389EA94E02D
:102E00000E94D00297FD35C640912A0350912B03B2
:102E10009A012F5F3F4F30932B0320932A03445D89
:102E20005C4FFA0180832230310509F479C008F043
:102E300052C02130310509F464C060910C017091D9
:102E40000D0180912A0390912B038617970708F4B0
:102E5000DBC280912D03843509F072C0F0913003FC
:102E6000FD83BD81B53109F46CC208F029C1B730CA
:102E700009F41AC208F0EEC0B33009F4F4C108F046
:102E8000DFC0B13009F4D6C1B23009F4DFC10E940D
:102E90008F0FB6C280E990E00E948103E3EAF2E07E
:102EA00088E0DF011D928A95E9F710E000E0F70164
:102EB00021917F012983C8010E94E12239813817BD
:102EC00021F0632FC8010E94E9220F5F1F4F0830D5
:102ED000110569F70FCF2330310539F12430310561
:102EE00009F0ABCF20912D03243509F0A6CF209116
:102EF0002E0330E02C5F3F4F982F8827820F931FBF
:102F00001AC024E030E030930D0120930C018F3F74
:102F1000910509F479C210922B0310922A038DCFE8
:102F2000845591090297B8F788CF20912D03039615
:102F3000253509F082CF90930D0180930C017DCF50
:102F4000853509F08ECF20912F032D832A31B0F5DE
:102F500080E1289F900111242C523E4FE1ECF2E0D9
:102F600080E1DF011D928A95E9F72115310509F409
:102F700078CF7F0150E040E090E080E0F901E40F7D
:102F8000F51FE491EE2309F46CCFD7018D937D01F9
:102F9000EC34F1F1A8F5E434E9F1E634C9F1E234B6
:102FA00009F40196FC0134966E177F0708F428C2D5
:102FB0004F5F5F4F4031510509F753CF8D818158E5
:102FC0008D3060F4AD81A158BB0B9D01A4E0220FB0
:102FD000331FAA95E1F72C5F3E4FC0CFBD8130E093
:102FE00020E0BB3F08F4BACFEB2FEB5FFF0B9F0154
:102FF000F4E0220F331FFA95E1F72C543F4FAECF88
:10300000E236B1F0E33741F0E33561F60296CACF1C
:103010000496C8CF0896C6CFFC01E05DFC4FDF01E7
:103020000D900020E9F78E1B9F0B8A0F9B1FBACFD4
:10303000FC01E45DFC4FE48101968E0F911DB2CF3F
:10304000ED81E53009F425C108F418C160E088EC91
:1030500090E0F9C0FD81FA3009F449C178F4F83004
:1030600009F435C1F93009F012CFE091C102F0E066
:10307000E45DFC4F84810E94890D09CF2D812C30A5
:1030800009F444C108F43CC12D3009F000CFE091AF
:10309000C102F0E0E45DFC4FE4818FEF8E0F21E090
:1030A000843050F4F0E0EB51FE4F80810E94EE033B
:1030B00021E0892B09F020E0822F0E947D0FA0C122
:1030C0003D81363809F4B1C108F04AC0323809F4FC
:1030D00046C1E8F4303809F4A7C4313809F0D7CE36
:1030E0001092380410923704109286041092A804AB
:1030F0000E948E09E2E9F2E0F093AF02E093AE02A3
:1031000023E932E03093AD022093AC02C0CE8D8132
:10311000843809F487C108F443C1198210E000E043
:10312000FF24F394F092850439813093A704109220
:1031300086041092A80481E00E94CD09811107C085
:10314000F801E45DFC4F898180830F5F1F4F9981F7
:103150009F5F99839F3731F7802F0E94801050C165
:103160009D819A3809F401C450F5A091C102A98348
:10317000983809F490C108F47CC182E00E949D0F48
:103180001C0181E00E949D0F8C01B981EB2FF0E0C2
:10319000E45DFC4F84812101032C000C6608770854
:1031A000909101019813CAC1E3EBF0E0F491FE8322
:1031B000F7FFFAC1C301B2010E94DA0568CEBD81F2
:1031C000BE3F09F41DC408F024C4BD3809F05FCE29
:1031D0000091C30210E0F801E05DFC4FA080B12C2B
:1031E000E091C202F0E0E45DFC4F2481298380E09D
:1031F0000E949D0F6C010F5C1C4F7801C701801B62
:10320000910B8A159B050CF0D3C3D70112966C91D4
:10321000129711968C911197762F682F84E07595EF
:1032200067958A95E1F78C910E948504B3E0EB0ED7
:10323000F11CE4CF81E00E949D0FE091C102F0E01B
:10324000E45DFC4F64810E943C0E21CE81E00E942F
:103250009D0F898380E00E949D0F4981682F80E047
:103260000E94520F14CE81E00E949D0F898380E05E
:103270000E949D0F4981682F82E0F2CF81E00E9479
:103280009D0F898380E00E949D0F4981682F81E016
:10329000E7CF81E00E949D0F898380E00E949D0F0F
:1032A0004981682F83E0DCCFE091C202F0E0E45D69
:1032B000FC4FA091C102B0E0A45DBC4F14968C916C
:1032C0006481880F0E94D9100E946A0F99C0E09112
:1032D000C202F0E0E45DFC4FA091C102B0E0A45D49
:1032E000BC4F14968C91880F64818F5FEBCFE09177
:1032F000C102F0E0E45DFC4F84810E94AC0CC7CDBC
:1033000080E00E949D0F0E94870CC1CD0E948A110F
:103310002FEF20932C0325E520932D0325E0209308
:103320002E0324E020932F03609330037093310326
:10333000809332039093330348E050E06CE273E0F3
:1033400063C361E08DE00E944904E091C102F0E0B6
:10335000E45DFC4F64818DE00E94170498CDE091FC
:10336000C102F0E0E45DFC4F848191E0909385041C
:103370008093A704109286041092A8046091C20260
:1033800070E0FB01E05DFC4F408150E06F5C7C4FE2
:1033900086E495E00E94280C81E00E94CD098DCE44
:1033A000E091C102F0E0E45DFC4F848191E09093F4
:1033B00085048093A704109286041092A80460915B
:1033C000C20270E0FB01E05DFC4F408150E06F5CA9
:1033D0007C4F86E495E00E94280C80E00E94CD0995
:1033E000E091C302F0E0E45DFC4F648170E0E091A5
:1033F000C102F0E0E45DFC4F848190E00E94A410E3
:1034000010922B0310922A0380912A0390912B0390
:103410008F3F910509F008F4E6CC10922B0310922F
:103420002A03E1CCE091C202DDCFC090C1028C2D15
:1034300090E0FC01E05DFC4FE080F12CDC01AF5C32
:10344000BC4F6D018D01C8018C199D098E159F051A
:103450000CF01DCD61E0F80180810E944904D80183
:1034600011966C9111978C910E9417040E5F1F4F5B
:10347000EACFB981EB2FF0E0E45DFC4F60E084819E
:103480000E944904E091C102F0E0E45DFC4F8481B8
:103490000E94EE0312CE81E00E949D0F8C012981D3
:1034A000E22FF0E0E45DFC4F3481398360E0832F4C
:1034B0000E9449040115110511F401E010E0898111
:1034C0008E5099819E3008F08983A981A770EA2FD8
:1034D000E06460E070E0CB0130E020E0E0937C004D
:1034E00040917A00406440937A0040917A0046FD12
:1034F000FCCF5091780040917900D42EC52E0D2C30
:10350000000CEE08FF086C0D7D1D8E1D9F1D2F5FAA
:103510003F4F2017310711F750E040E00E94492546
:10352000A1E7B2E00E949725DC01CB01E7E0B69568
:10353000A79597958795EA95D1F7C6CE9F3F09F055
:1035400039CE80930101E3EBF0E0F491FE83FF3F7D
:1035500009F430CEF13009F4F2C050F0F23009F441
:1035600010C12E8127FD26CE61E00E94490422C0B1
:1035700014BC15BC94B5926094BD95B5916095BD91
:10358000282F30E0F901EE56FC4FE491F0E0EE0F09
:10359000FF1FE857FC4F45915491F901EC58FC4F3F
:1035A000E491E093B4021E8261E00E9449042E81FE
:1035B0002223A9F0B12CA12C60E072E18AE790E00F
:1035C000A50198010E946B2569017A0181E0C81A62
:1035D000D108E108F1089E81923009F06FC14801DD
:1035E000B12CA12C60E072E18AE790E0A50198017E
:1035F0000E946B2529833A834B835C8369017A019E
:10360000A1E0CA1AD108E108F108BFEFCB16D10436
:10361000E104F10409F00CF426C160E472E48FE0E7
:1036200090E0A50198010E946B2569017A01E1E013
:10363000CE1AD108E108F108FE81F23009F0C7C0C6
:1036400082E02FEFC216D104E104F10409F00CF47A
:103650006FC060E970ED83E090E0A50198010E94E1
:103660006B2569017A0181E0C81AD108E108F108E7
:1036700083E09FEFC916D104E104F10409F00CF4D2
:1036800057C068E478EE81E090E0A50198010E94BF
:103690006B2569017A0191E0C91AD108E108F108A6
:1036A00084E0AFEFCA16D104E104F10409F00CF490
:1036B0003FC064E274EF80E090E0A50194010E94B5
:1036C0006B2569017A01F1E0CF1AD108E108F10810
:1036D00085E09FEFC916D104E104F10449F140F1FE
:1036E00062E17AE780E090E0A50194010E946B25F9
:1036F00069017A01B1E0CB1AD108E108F10886E04E
:10370000EFEFCE16D104E104F10491F088F0C98006
:10371000DA80EB80FC809AE0F594E794D794C79424
:103720009A95D1F731E0C31AD108E108F10887E092
:103730009091B100987F892B8093B1009CC010922A
:103740008000109281009091810098609093810098
:1037500090918100916090938100282F30E0F901D1
:10376000EE56FC4FE491F0E0EE0FFF1FE857FC4FE0
:1037700045915491F901EC58FC4FE491E093B30268
:1037800013CF1092B0001092B1009091B0009260EF
:103790009093B0009091B10091609093B100282F68
:1037A00030E0F901EE56FC4FE491F0E0EE0FFF1F20
:1037B000E857FC4F459154915093B2024093B102A7
:1037C000F901EC58FC4FE491E093B002EDCEAFEF7D
:1037D000CA16D104E104F10409F00CF46DC068E4E8
:1037E00078EE81E090E0A50198010E946B256901C7
:1037F0007A01B1E0CB1AD108E108F108EE8184E04A
:10380000E11167CF83E03FEFC316D104E104F10477
:1038100071F16CF162E17AE780E090E0A50194013A
:103820000E946B2569017A01F1E0CF1AD108E10805
:10383000F10884E02FEFC216D104E104F104B9F0DD
:10384000B0F0C980DA80EB80FC808AE0F594E794E0
:10385000D794C7948A95D1F781E0C81AD108E108B6
:10386000F10885E004C081E02E81211161CF95B57A
:10387000987F892B85BD2FEF3FEFA901411451049B
:103880006104710409F042C0BE81B13009F44BC03B
:10389000B23009F45AC0B1118DCCC7BC2093BD021F
:1038A0003093BE024093BF025093C00280916E00DD
:1038B000826080936E007ECC82E0D6CF91E0C1140E
:1038C000D10431E0E306F10484F068E478EE81E0AD
:1038D00090E0A50198010E946B2569017A0181E0C1
:1038E000C81AD108E108F10893E0AE81A13019F6B9
:1038F00080918100887F892B809381002FEF3FEF9B
:10390000A901411451046104710469F09801220F66
:10391000331FD1010E94902528EE33E040E050E0B3
:103920000E944925B1CFD0928900C092880020938F
:10393000B9023093BA024093BB025093BC0280910B
:103940006F00826080936F0035CCC092B3002093EB
:10395000B5023093B6024093B7025093B8028091FB
:10396000700082608093700025CC0091C10210E04D
:10397000F801E05DFC4FE080F12C0F5C1C4F68010A
:10398000C601801B910B8E159F050CF080CAF601B5
:1039900062818181762F682F94E0759567959A955D
:1039A000E1F780810E948504F3E0CF0ED11CE8CFBF
:1039B000C114D10409F46BCAB601DD0C880B990B54
:1039C0000E94DA05E98190E080E0E13011F483E3C0
:1039D00091E06C01F4E0D694C794FA95E1F7780190
:1039E000C701801B910B8A159B050CF050CAB601CC
:1039F000D7018C910E948504B3E0EB0EF11CF0CF4F
:103A000049E150E06EE272E089EA94E00E9494029B
:103A1000F7CC88E198E00FB6F894A8958093600001
:103A20000FBE90936000FFCF8FEF80932C0385E54E
:103A300080932D0386E080932E03ED81E0932F0386
:103A40000E94C9078091760580933003909172059A
:103A500080917305909331038093320390917405A4
:103A600080917505909333038093340349E050E0CF
:103A700065CC80912903811106C280912803882397
:103A800009F496C00E94A90F892BB9F085E00E9425
:103A9000890D60E088EC90E00E943C0E10922803B3
:103AA00080E090E0892B09F49EC90E94FE028823E1
:103AB00009F499C90E94000096C980911D038111E3
:103AC00008C085E00E94890D84EF91E00E94870C78
:103AD000E5CF0E94C907F0917605F983809127030D
:103AE000F817F1F2F0932703FC3011F1B8F4F83035
:103AF00059F180912603882399F23981353109F4EF
:103B00004AC038F53730D1F1880F60E08150393044
:103B100039F60E94D9104E97CCF129C0298128315D
:103B200071F02E3531F781E00E945D0D82E004C016
:103B300080E00E945D0D81E080932603DACF83E070
:103B40000E945D0D83E0F8CF82E00E945D0D84E06D
:103B5000F3CF9981993171F0903409F0A1CF815858
:103B600061E0880F0E94D910833E9F4F7CF488EE5D
:103B700093E00EC0815860E0880FCBCF880F61E0E2
:103B800081500E94D910833E9F4F8CF382E390E0D6
:103B90000E94870C85CF815863E0880F0E94D9105E
:103BA00080912603880F63E081500E94D910DFCFF7
:103BB0000E94A90F892BA1F081E00E94890D198232
:103BC00040E060E089810E94520FE981EF5FE98364
:103BD000E430B1F781E0809328031092260360CF90
:103BE0000E94C907F0917605F983F03621F1F53688
:103BF00031F1809127039981891709F4CEC0909300
:103C00002703923509F48CC008F063C0993109F498
:103C1000DAC1C0F59C3009F4DBC1E0F4983009F456
:103C2000A7C0993009F4CAC19730E1F486E00E9438
:103C3000890D66E0BEC1209177052983DACF3091E6
:103C40007705305F398364E170E080E090E00E94A6
:103C5000DA05CFCFA981A53109F49FC040F4AD307A
:103C600009F49BC085E00E94890D60E0A2C1B98182
:103C7000B63109F486C1B831A9F786E00E94890DF2
:103C800068E097C1E981E43409F456C0A8F4E0344F
:103C900009F48BC138F4EC3129F786E00E94890DD4
:103CA0006BE087C1F981F23479F1F334D9F682E01F
:103CB0000E94890D62E07DC12981273409F469C021
:103CC00008F46BC02A3471F686E00E94890D6FE01B
:103CD00070C13981333709F471C198F53336A1F3D6
:103CE000C0F43E3509F450C040F43A3509F0BACF7B
:103CF00086E00E94890D6CE05CC18981813609F4FF
:103D0000BCCF823609F0AECF86E00E94890D6DE00F
:103D100050C19981903759F240F4943609F0A2CFFE
:103D200086E00E94890D6EE044C1A981A13709F4A3
:103D30003CC1A23709F096CF82E00E94890D63E072
:103D400038C1B981B03809F443C158F4B537A1F38B
:103D500008F46CCFB63709F436C1B73709F4A7CFEA
:103D600081CFE981E33821F240F4E13809F07ACFDC
:103D700086E00E94890D6AE01CC1F981F43809F4DB
:103D80008CCFF63809F06ECF86E00E94890D69E08D
:103D900010C188EB9BE00E94870C609178056A3027
:103DA00050F12091740530917505009172051091C4
:103DB000730570E088EA91E60E94352570930B0147
:103DC00060930A0188E0EAEEF1E0A3EDB2E0019031
:103DD0000D928A95E1F70115110569F0211531055C
:103DE00051F08091D102843009F420C108F0F5C06F
:103DF000813009F41EC18091220390912303A09188
:103E00002403B091250320911E0330911F03821BD0
:103E1000930B84369105B8F180912203909123038E
:103E2000A0912403B091250380931E0390931F0358
:103E3000A0932003B09321030E948A116B017C019F
:103E400020E030E040E051E40E94642387FF1BC083
:103E500020E030E040E251E4C701B6010E94C824EE
:103E60000E94DB23CB010E94870C809127038137BE
:103E700011F0803441F485E00E94890D60E088EC07
:103E800090E00E943C0E80911D03882309F408CE27
:103E900040912203509123036091240370912503E4
:103EA0000091190310911A0320911B0330911C03F8
:103EB000401B510B620B730B6A017B01E894F7F80E
:103EC000833009F43BC308F001C1813009F408C311
:103ED000823009F41DC34090220350902303609068
:103EE00024037090250367E0862E63E0962E77EE1C
:103EF000A72E72E0B72E10E000E0D4012D913D9185
:103F00004D012115310599F1F50180819181B201B1
:103F1000681B790B2617370750F1F801E152FD4F66
:103F2000E080F801EE5FFE4FC0800C2C000CDD0835
:103F30000E2C000CFF08CE18DF08072E000C880B93
:103F4000990B982F872F762F662750E040E00E942C
:103F50006B25D6010E94A225672F782F892F9927DC
:103F600087FD9A956E0D7F1D802F0E94C20E0F5FF8
:103F70001F4FF4E0AF0EB11C0830110509F0BDCFA2
:103F80008FCD82E390E00E94870C85E00E94AC0C0C
:103F900085E00E94AC0C85E00E94AC0C85E00E949C
:103FA000AC0C85E00E94AC0CF8CE83E00E94890D39
:103FB00061E088EC90E00E943C0EEFCE86E00E942B
:103FC000890D65E0F6CF81E00E94890D64E0F1CFB4
:103FD00086E00E94890D67E0ECCF853009F460C06F
:103FE000863009F008CFB901330F880B990B59E0DF
:103FF000660F771F881F991F5A95D1F79801110FE7
:10400000440B550B0E946B252130A1E03A070CF0C0
:104010004BC02115BFEF3B070CF455C037FF46C01E
:1040200033953093D4022093D30223C01195019588
:104030001109B801110F880B990BE9E0660F771F82
:10404000881F991FEA95D1F7032E000C440B550BDE
:104050000E946B25213081E0380784F421159FEF01
:104060003907DCF037FF0CC033953093DA02209328
:10407000D9023093D6022093D502BDCE20E031E0A4
:1040800080E091E0821B930B9093D8028093D7023B
:104090009093D4028093D302AECE20E03FEFE4CFE2
:1040A0003195219531099FCF20E031E080E091E00A
:1040B000821B930B9093D8028093D7029093DA02DD
:1040C0008093D90298CE20E03FEFAACF853009F443
:1040D00059C208F446C2863009F0FDCE8601E09050
:1040E0000A01F0900B01E2E3EE0EF11CEE0CFF1C56
:1040F000EE0CFF1C8091DE02882309F417C181E0D9
:104100000035110528F082E0083C110508F083E035
:104110009091DD029817C1F08093DD02823009F49E
:104120008AC0833009F4B2C0813071F440E550E0B8
:1041300067EE7FEF84E00E94E20D40E550E067EE1D
:104140007FEF82E00E94E20D0831114008F4C3CEF7
:104150001092DE020E940D066093190370931A03F9
:1041600080931B0390931C031092D20210E000E096
:1041700081E09091D2029817C1F08093D2028230F0
:1041800009F4DFC0833009F4F3C0813071F440E5F5
:1041900050E067EE7FEF80E00E94E20D40E550E0E6
:1041A00067EE7FEF86E00E94E20D97013695279536
:1041B000200F311FC901B0E0A0E0A70170E060E06E
:1041C0002E153F0520F0841B950BA60BB70B8035F1
:1041D000910508F41BC1883C910508F019C182E0E3
:1041E0009091DD029817C1F08093DD02823009F4CE
:1041F00011C1833009F426C1813071F440E550E0EB
:1042000067EE7FEF84E00E94E20D40E550E067EE4C
:104210007FEF82E00E94E20D0E151F0508F45BCED1
:104220000E940D066093190370931A0380931B0379
:1042300090931C0350CEC090DB02D090DC02D601DC
:1042400015968C9187FD8F5F8595F6016181062E0D
:10425000000C770B680F711D87FD7A9548E750E0D9
:1042600085E00E94E20DD60116968C9187FD8F5F46
:104270008595F6016281062E000C770B680F711D83
:1042800087FD7A9548E750E083E05CCF40E550E059
:104290006BEF7FEF84E00E94E20D40E550E06BEFB2
:1042A0007FEF82E00E94E20D6701D694C794F0E5AB
:1042B000CF0ED11CA090DB02B090DC02D501159688
:1042C0004C912091D5023091D6024203B001439F18
:1042D000700D112477FF02C061507F4F672F770F59
:1042E000770BF5018181680F711D87FD7A95A60115
:1042F00085E00E94E20DD50116964C912091D702DF
:104300003091D8024203B001439F700D112477FF12
:1043100002C061507F4F672F770F770BF5018281C5
:10432000680F711D87FD7A95A601AECF0035110586
:1043300008F41ECF82E0083C110508F41ACF83E090
:1043400018CFC090DB02D090DC02D6016C91062E13
:10435000000C770B48E750E081E00E94E20DF60187
:104360006381062E000C770B48E750E087E01BCFF7
:1043700040E550E06BEF7FEF80E00E94E20D40E50A
:1043800050E06BEF7FEF86E00E94E20D5701F8EC02
:10439000AF1AB108C090DB02D090DC02D6011496AF
:1043A0004C912091D3023091D4024203B001439F3B
:1043B000700D112477FF02C061507F4F672F770F78
:1043C000770BF6018081680F711D87FD7A95A50135
:1043D00081E00E94E20DD60117964C912091D902FE
:1043E0003091DA024203B001439F700D112477FF30
:1043F00002C061507F4F672F770F770BF6018381E3
:10440000680F711D87FD7A95A501B0CF81E0E8CED8
:1044100083E0E6CEC090DB02D090DC02D60111969C
:104420006C91062E000C770B48E750E085E00E9467
:10443000E20DF6016281062E000C770B48E750E092
:1044400083E0E8CE40E550E06BEF7FEF84E00E9430
:10445000E20D40E550E06BEF7FEF82E00E94E20D5D
:104460005701F8ECAF1AB108C090DB02D090DC0223
:10447000D60115964C912091D5023091D602420377
:10448000B001439F700D112477FF02C061507F4F30
:10449000672F770F770BF6018181680F711D87FDFC
:1044A0007A95A50185E00E94E20DD60116964C9101
:1044B0002091D7023091D8024203B001439F700D82
:1044C000112477FF02C061507F4F672F770F770B62
:1044D000F6018281680F711D87FD7A95A501B0CF25
:1044E00050FF14C061E08DE00E941704F0E2CF1687
:1044F000FFEBDF06F2E0EF06F1040CF4ECCC0E94D7
:10450000D00D60E08DE00E941704CACA60E0EBCFD6
:1045100060910A0170910B01CB01B0E0A0E0C816D8
:10452000D906EA06FB060CF4D6CC809117039091CD
:10453000180343E008960E94100ECDCC60910A014A
:1045400070910B01CB01B0E0A0E0C816D906EA06D5
:10455000FB060CF4C0CC42E0809117039091180345
:10456000EACF60910A0170910B01CB01B0E0A0E0AD
:10457000C816D906EA06FB060CF4ADCC45E082EF7E
:1045800091E0D9CF80910A0190910B01B0E0A0E0B9
:10459000C816D906EA06FB060CF49DCC0E94D00D85
:1045A0007FCA80915B0590915C050E94692680918D
:1045B00058059091590597FD03C060E00C9449049B
:1045C0000895F999FECF92BD81BDF89A992780B5DB
:1045D0000895262FF999FECF1FBA92BD81BD20BD47
:1045E0000FB6F894FA9AF99A0FBE019608955058AA
:1045F000BB27AA270E940F230C9489240E947B24A6
:1046000038F00E94822420F039F49F3F19F426F4F8
:104610000C9478240EF4E095E7FB0C947224E92FB7
:104620000E949A2458F3BA17620773078407950704
:1046300020F079F4A6F50C94BC240EF4E0950B2E32
:10464000BA2FA02D0B01B90190010C01CA01A001E4
:104650001124FF27591B99F0593F50F4503E68F13F
:104660001A16F040A22F232F342F4427585FF3CF80
:10467000469537952795A795F0405395C9F77EF451
:104680001F16BA0B620B730B840BBAF09150A1F09A
:10469000FF0FBB1F661F771F881FC2F70EC0BA0F20
:1046A000621F731F841F48F4879577956795B795A8
:1046B000F7959E3F08F0B0CF9395880F08F09927A3
:1046C000EE0F9795879508950E944E2408F481E097
:1046D00008950E947D230C9489240E94822458F01E
:1046E0000E947B2440F029F45F3F29F00C9472244F
:1046F00051110C94BD240C9478240E949A2468F3E0
:104700009923B1F3552391F3951B550BBB27AA278A
:1047100062177307840738F09F5F5F4F220F331FC4
:10472000441FAA1FA9F335D00E2E3AF0E0E832D08C
:1047300091505040E695001CCAF72BD0FE2F29D08F
:10474000660F771F881FBB1F261737074807AB0761
:10475000B0E809F0BB0B802DBF01FF2793585F4FD6
:104760003AF09E3F510578F00C9472240C94BD24CD
:104770005F3FE4F3983ED4F3869577956795B795B8
:10478000F7959F5FC9F7880F911D9695879597F9C3
:104790000895E1E0660F771F881FBB1F621773073C
:1047A0008407BA0720F0621B730B840BBA0BEE1F51
:1047B00088F7E09508950E94E2236894B1110C9463
:1047C000BD2408950E94A22488F09F5798F0B92F25
:1047D0009927B751B0F0E1F0660F771F881F991F36
:1047E0001AF0BA95C9F714C0B13091F00E94BC24F8
:1047F000B1E008950C94BC24672F782F8827B85F08
:1048000039F0B93FCCF3869577956795B395D9F78D
:104810003EF490958095709561957F4F8F4F9F4F97
:104820000895E89409C097FB3EF4909580957095A3
:1048300061957F4F8F4F9F4F9923A9F0F92F96E9EC
:10484000BB279395F695879577956795B795F11161
:10485000F8CFFAF4BB0F11F460FF1BC06F5F7F4FFE
:104860008F4F9F4F16C0882311F096E911C0772310
:1048700021F09EE8872F762F05C0662371F096E819
:10488000862F70E060E02AF09A95660F771F881FE8
:10489000DAF7880F9695879597F90895990F00088C
:1048A000550FAA0BE0E8FEEF16161706E807F90702
:1048B000C0F012161306E407F50798F0621B730B9D
:1048C000840B950B39F40A2661F0232B242B252B1E
:1048D00021F408950A2609F4A140A6958FEF811DC1
:1048E000811D089597F99F6780E870E060E0089562
:1048F0009FEF80EC089500240A94161617061806F8
:104900000906089500240A941216130614060506D3
:104910000895092E0394000C11F4882352F0BB0F64
:1049200040F4BF2B11F460FF04C06F5F7F4F8F4FC7
:104930009F4F089557FD9058440F551F59F05F3F02
:1049400071F04795880F97FB991F61F09F3F79F0B1
:1049500087950895121613061406551FF2CF469533
:10496000F1DF08C0161617061806991FF1CF8695B5
:104970007105610508940895E894BB276627772799
:10498000CB0197F908950E944E2408F48FEF089503
:104990000E94DB240C9489240E947B2438F00E941E
:1049A000822420F0952311F00C9472240C94782426
:1049B00011240C94BD240E949A2470F3959FC1F396
:1049C000950F50E0551F629FF001729FBB27F00DBD
:1049D000B11D639FAA27F00DB11DAA1F649F662712
:1049E000B00DA11D661F829F2227B00DA11D621F61
:1049F000739FB00DA11D621F839FA00D611D221F1B
:104A0000749F3327A00D611D231F849F600D211DFE
:104A1000822F762F6A2F11249F5750409AF0F1F081
:104A200088234AF0EE0FFF1FBB1F661F771F881FEA
:104A300091505040A9F79E3F510580F00C9472248C
:104A40000C94BD245F3FE4F3983ED4F386957795AC
:104A50006795B795F795E7959F5FC1F7FE2B880F90
:104A6000911D9695879597F9089597FB072E16F453
:104A7000009407D077FD09D00E94AA2507FC05D035
:104A80003EF4909581959F4F0895709561957F4F65
:104A90000895A1E21A2EAA1BBB1BFD010DC0AA1F7F
:104AA000BB1FEE1FFF1FA217B307E407F50720F097
:104AB000A21BB30BE40BF50B661F771F881F991F12
:104AC0001A9469F760957095809590959B01AC015B
:104AD000BD01CF010895052E97FB1EF400940E949E
:104AE000822557FD07D00E94492507FC03D04EF4CC
:104AF0000C94822550954095309521953F4F4F4F0E
:104B00005F4F089590958095709561957F4F8F4F79
:104B10009F4F0895EE0FFF1F0590F491E02D09942B
:104B20000E94BE25B7FF0895821B930B08950E9433
:104B3000BE25A59F900DB49F900DA49F800D911D43
:104B400011240895B7FF0C9497250E949725821B86
:104B5000930B0895AA1BBB1B51E107C0AA1FBB1FE3
:104B6000A617B70710F0A61BB70B881F991F5A95F9
:104B7000A9F780959095BC01CD010895A29FB00141
:104B8000B39FC001A39F700D811D1124911DB29F81
:104B9000700D811D1124911D08950F931F93CF93C4
:104BA000DF938230910510F482E090E0E0917C0583
:104BB000F0917D0530E020E0B0E0A0E0309799F47E
:104BC0002115310509F44AC0281B390B2430310561
:104BD000D8F58A819B816115710589F1FB01938369
:104BE0008283FE0111C040815181028113814817E7
:104BF0005907E0F04817590799F4109761F0129699
:104C00000C93129713961C933296CF01DF91CF919C
:104C10001F910F91089500937C0510937D05F4CFAB
:104C20002115310551F04217530738F0A901DB0176
:104C30009A01BD01DF01F801C1CFEF01F9CF9093D7
:104C40007D0580937C05CDCFFE01E20FF31F81939C
:104C500091932250310939832883D7CF20917A0547
:104C600030917B05232B41F42091160130911701DF
:104C700030937B0520937A05209114013091150122
:104C80002115310541F42DB73EB7409118015091DF
:104C90001901241B350BE0917A05F0917B05E21791
:104CA000F307A0F42E1B3F0B2817390778F0AC014F
:104CB0004E5F5F4F2417350748F04E0F5F1F50932C
:104CC0007B0540937A05819391939FCFF0E0E0E0DC
:104CD0009CCFCF93DF930097E9F0FC0132971382CA
:104CE0001282A0917C05B0917D05ED0130E020E0BD
:104CF0001097A1F420813181820F931F20917A05B2
:104D000030917B052817390709F061C0F0937B05C6
:104D1000E0937A05DF91CF910895EA01CE17DF077E
:104D2000E8F54A815B819E0141155105B1F7E90122
:104D3000FB83EA8349915991C40FD51FEC17FD07F6
:104D400061F4808191810296840F951FE901998316
:104D50008883828193819B838A83F0E0E0E01296CE
:104D60008D919C9113970097B9F52D913C911197D6
:104D7000CD010296820F931F20917A0530917B0519
:104D80002817390739F6309751F510927D051092A2
:104D90007C05B0937B05A0937A05BCCFD383C283F7
:104DA00040815181840F951FC817D90761F44E5F68
:104DB0005F4F88819981480F591F518340838A81B1
:104DC0009B81938382832115310509F0B0CFF09345
:104DD0007D05E0937C059ECFFD01DC01C0CF1382F1
:104DE0001282D7CF6817790768F4FB01DC01E40F62
:104DF000F51FA40FB51F02C002900E924150504003
:104E0000D8F708950C940427FB01DC0102C001903F
:104E10000D9241505040D8F7089511E0C4EDD1E013
:104E200004C0FE010E948A252196C53DD107C9F71D
:044E3000F894FFCF24
:104E340001FFFFFFFFFFFFFFFFFFC80004005F0942
:104E44005F096E0000007E05800001000504030276
:104E5400070608090A0B4F5A4D5E5E5E5E5E01FF4F
:104E640001FFFF01FF01DDC9DDA6DDC9DDA6643C4C
:104E7400642D643C642D7F7F000000007F7FFB7FF6
:104E8400FB7FFB7FFB7F3C7F3C7F3C7F3C7F3C7F09
:104E94003C7FFB7FFB7FFB7FFB7F3C7F3C7FFB7F7B
:104EA400FB7FFB7FFB7FFB7F3C7FFB7F3C7F3C7F6B
:104EB4003C7FFB7FFB7FFB7FFB7F3C7F3C7F3C7F1A
:104EC400FB7F3C7FFB7FFB7F3C7FFB7F3C7F3C7F0A
:104ED4003C7F3C7F3C7FE77FE77FE77FE77F000005
:104EE40000000000000019E719E7CE32CE32E719BE
:104EF400E71932CE32CE00D3002DD32D2DD3D300DB
:104F04002D002DD3D32D37370000C9C9C9C90000DE
:104F1400C9C937373737030405060001000100010A
:104F2400000100007F7F7F7F00007370007100002C
:104F340000727500000076007774000000003403EE
:104F44009402C102A503F202D002E40200000000B0
:104F5400550C280C840CFE0B210C0E0CFF0B50433B
:104F6400206D6F64653A2051756164437261776C9A
:084F74006572312E360D0A00B2
:00000001FF
