:100000000C9462000C94F0030C94C9030C948A00C5
:100010000C948A000C948A000C948A000C948A0038
:100020000C948A000C948A000C948A000C948A0028
:100030000C948A000C948A000C948A000C948A0018
:100040000C947F030C948A000C944D030C942703AA
:100050000C948A000C948A000C948A000C948A00F8
:100060000C948A000C948A000000000024002700F1
:100070002A000000000023002600290000000000E4
:10008000250028002B0004040404040404040202D4
:100090000202020203030303030301020408102007
:1000A0004080010204081020010204081020000012
:1000B0000008000201000003040700000000000027
:1000C0000000CD0511241FBECFEFD8E0DEBFCDBFAD
:1000D00011E0A0E0B1E0E4E0FCE002C005900D9288
:1000E000AE35B107D9F723E0AEE5B1E001C01D920E
:1000F000A232B207E1F710E0C2E6D0E004C02197D7
:10010000FE010E94FA05C136D107C9F70E94170403
:100110000C9400060C940000AF92BF92CF92DF9235
:10012000EF92FF920F931F93CF93DF936C017B01AC
:100130008B01040F151FEB015E01AE18BF08C0173D
:10014000D10759F06991D601ED91FC910190F081B0
:10015000E02DC6010995892B79F7C501DF91CF9173
:100160001F910F91FF90EF90DF90CF90BF90AF90D5
:100170000895FC01538D448D252F30E0842F90E0AD
:10018000821B930B541710F0CF9608950197089592
:10019000FC01918D828D981761F0A28DAE0FBF2F5B
:1001A000B11D5D968C91928D9F5F9F73928F90E0B1
:1001B00008958FEF9FEF0895FC01918D828D981720
:1001C00031F0828DE80FF11D858D90E008958FEF5D
:1001D0009FEF0895FC01918D228D892F90E0805C26
:1001E0009F4F821B91098F739927089585E892E0AC
:1001F0000E94EA0021E0892B09F420E0822F089573
:1002000080E090E0892B29F00E94F60081110C9487
:1002100000000895FC01A48DA80FB92FB11DA35AA9
:10022000BF4F2C91848D90E001968F739927848F16
:10023000A689B7892C93A089B1898C918370806439
:100240008C93938D848D981306C00288F389E02DDA
:1002500080818F7D80830895EF92FF920F931F938B
:10026000CF93DF93EC0181E0888F9B8D8C8D981369
:100270001AC0E889F989808185FF15C09FB7F89475
:10028000EE89FF896083E889F989808183708064C1
:1002900080839FBF81E090E0DF91CF911F910F910C
:1002A000FF90EF900895F62E0B8D10E00F5F1F4F1B
:1002B0000F731127E02E8C8D8E110CC00FB607FC2A
:1002C000FACFE889F989808185FFF5CFCE010E94B8
:1002D0000A01F1CFEB8DEC0FFD2FF11DE35AFF4F1B
:1002E000F0829FB7F8940B8FEA89FB898081806246
:1002F000CFCFCF93DF93EC01888D8823B9F0AA8903
:10030000BB89E889F9898C9185FD03C0808186FDD0
:100310000DC00FB607FCF7CF8C9185FFF2CF80811F
:1003200085FFEDCFCE010E940A01E9CFDF91CF9189
:100330000895833081F028F4813099F08230A9F05B
:1003400008958730A9F08830C9F08430B1F48091E5
:1003500080008F7D03C0809180008F778093800024
:10036000089584B58F7784BD089584B58F7DFBCFC4
:100370008091B0008F778093B00008958091B00095
:100380008F7DF9CF1F93CF93DF93EBEBF0E0949148
:10039000E7EAF0E0D491E3E9F0E0C491CC23B9F0CE
:1003A000182F992319F0892F0E949901EC2FF0E062
:1003B000EE0FFF1FE458FF4FA591B4918FB7F8944B
:1003C000EC91111108C0D095DE23DC938FBFDF9133
:1003D000CF911F910895DE2BF8CFCF93DF93282F75
:1003E00030E0F901E255FF4F8491F901E656FF4FE5
:1003F000D491F901EA57FF4FC491CC23A1F08111A8
:100400000E949901EC2FF0E0EE0FFF1FEE58FF4F16
:10041000A591B491EC91ED2381E090E009F480E0A6
:10042000DF91CF91089580E090E0FACFCF93DF93F2
:1004300090E0FC01E656FF4F24918A579F4FFC0144
:1004400084918823D1F090E0880F991FFC01E8592E
:10045000FF4FA591B491FC01E458FF4FC591D49191
:1004600061110EC09FB7F8948C91E22FE0958E2316
:100470008C932881E223E8839FBFDF91CF91089579
:100480008FB7F894EC91E22BEC938FBFF6CF3FB788
:10049000F89480916B0190916C01A0916D01B091E5
:1004A0006E0126B5A89B05C02F3F19F00196A11D2E
:1004B000B11D3FBFBA2FA92F982F8827BC01CD01AE
:1004C000620F711D811D911D42E0660F771F881F0D
:1004D000991F4A95D1F7089508958F929F92AF92F0
:1004E000BF92CF92DF92EF92FF920E9447024B01A0
:1004F0005C018091620190916301A0916401B091CF
:10050000650175016401C81AD90AEA0AFB0AC11417
:1005100080E8D806E104F10418F0C12CD12C760152
:1005200085E00E94ED01892B19F4D194C194D10882
:10053000D0927301C0927201809262019092630125
:10054000A0926401B09265018DE692E09093030160
:100550008093020180916900837F886080936900A5
:10056000E99AFF90EF90DF90CF90BF90AF909F906F
:100570008F900895CF93DF9343E150E067E471E0FB
:1005800085E892E00E948C00EC0142E050E06BE5CF
:1005900071E085E892E00E948C008C0F9D1FDF9136
:1005A000CF9108958F929F92AF92BF92CF92DF9298
:1005B000EF92FF920E9447024B015C0180915E0125
:1005C00090915F01A0916001B0916101750164019A
:1005D000C81AD90AEA0AFB0AC11480E8D806E1045D
:1005E000F10418F0C12CD12C760184E00E94ED01B9
:1005F000892B19F4D194C194D108D0927101C09281
:10060000700180925E0190925F01A0926001B092B1
:10061000610180916F0191E0892780936F010E94B1
:10062000C20182ED92E090930101809300018091DC
:1006300069008C7F826080936900E89AFF90EF9058
:10064000DF90CF90BF90AF909F908F9008951F92B2
:100650000F920FB60F9211242F933F934F935F93F6
:100660006F937F938F939F93AF93BF93EF93FF937A
:1006700085E892E00E940A01FF91EF91BF91AF914E
:100680009F918F917F916F915F914F913F912F91AA
:100690000F900FBE0F901F9018951F920F920FB6DC
:1006A0000F9211242F938F939F93EF93FF93E091D9
:1006B0009502F09196028081E0919B02F0919C025C
:1006C00082FD1BC0908180919E028F5F8F7320916D
:1006D0009F02821741F0E0919E02F0E0EB57FD4F40
:1006E000958F80939E02FF91EF919F918F912F9113
:1006F0000F900FBE0F901F9018958081F4CF1F921E
:100700000F920FB60F9211242F933F938F939F93C5
:10071000AF93BF938091670190916801A0916901A7
:10072000B0916A013091660123E0230F2D3758F50F
:100730000196A11DB11D20936601809367019093DE
:100740006801A0936901B0936A0180916B01909157
:100750006C01A0916D01B0916E010196A11DB11DBA
:1007600080936B0190936C01A0936D01B0936E0127
:10077000BF91AF919F918F913F912F910F900FBE9D
:100780000F901F90189526E8230F0296A11DB11D0A
:10079000D2CF1F920F920FB60F9211242F933F9337
:1007A0004F935F936F937F938F939F93AF93BF9379
:1007B000EF93FF93E0910201F09103010995FF91FE
:1007C000EF91BF91AF919F918F917F916F915F91C9
:1007D0004F913F912F910F900FBE0F901F90189542
:1007E0001F920F920FB60F9211242F933F934F93A6
:1007F0005F936F937F938F939F93AF93BF93EF9389
:10080000FF93E0910001F09101010995FF91EF91B3
:10081000BF91AF919F918F917F916F915F914F9118
:100820003F912F910F900FBE0F901F9018957894C5
:1008300084B5826084BD84B5816084BD85B58260E5
:1008400085BD85B5816085BD80916E008160809396
:100850006E001092810080918100826080938100FF
:10086000809181008160809381008091800081600F
:10087000809380008091B10084608093B10080916A
:10088000B00081608093B00080917A008460809392
:100890007A0080917A00826080937A0080917A0059
:1008A000816080937A0080917A00806880937A00DA
:1008B0001092C10014BE0FB6F894A8958091600004
:1008C000886180936000109260000FBE61E08DE04F
:1008D0000E94160280916F010E94C20183E084BDD4
:1008E00085BDE0919502F091960282E08083E091CF
:1008F0009102F09192021082E0919302F0919402A1
:1009000080E1808310929D02E0919902F0919A0219
:1009100086E08083E0919702F09198028081806167
:100920008083E0919702F0919802808188608083B3
:10093000E0919702F0919802808180688083E09135
:100940009702F091980280818F7D808360E082E041
:100950000E94160260E084E00E94160282ED92E09E
:100960009093010180930001809169008C7F8260E7
:1009700080936900E89A60E083E00E94160260E0DC
:1009800085E00E9416028DE692E090930301809329
:10099000020180916900837F886080936900E99AF1
:1009A0000E94BA0204E711E020E1822E33E0A32E78
:1009B00040E0E42E40E0F42E99249A94D5E554E0EA
:1009C000B52E85E892E00E94EA00181619060CF090
:1009D000D8C085E892E00E94C80097FDD2C0E0919F
:1009E000840221E02E0F20938402F0E0EC57FE4FAA
:1009F0008083223009F44EC0233009F450C02130E6
:100A000039F4B09204018F3F9105D9F2109284021B
:100A10002091040180918402821798F2D801E82D78
:100A20001D92EA95E9F7C0918701C33048F580E14E
:100A3000C89FF0011124E95EFE4F94E7692E91E012
:100A4000792EBF01605F7F4F90E080E030E0419100
:100A50004423B1F0D3018D933D014C3461F11CF579
:100A6000443459F1463439F1423409F40196AC0169
:100A70004C5F5F4F2417350750F06E177F0739F72B
:100A8000C23009F45DC088F5C13009F43EC010924F
:100A9000840297CF8535910509F0B8CFB9CF8D5F26
:100AA00080930401B5CF4236B1F0433741F043356E
:100AB000F1F60296DCCF0496DACF0896D8CFAC01D7
:100AC00048575E4FDA010D900020E9F7841B950B23
:100AD0008A0F9B1FCCCFAC014C575E4FDA011496A6
:100AE0004C910196840F911DC2CFCE3F09F446C0B0
:100AF000CF3F69F688E198E00FB6F894A895809307
:100B000060000FBE90936000FFCF61E08DE00E9417
:100B10001602E0917401F0E0EC57FE4F84810E94D0
:100B2000C20190928401D09385011092860143E026
:100B300050E064E871E085E892E00E948C00A7CF65
:100B4000E0917401F0E0EC57FE4FE481F0E0EE0F2D
:100B5000FF1FE059FE4F9081818111821082909297
:100B60008401D0938501A0928601C0938701909360
:100B700088018093890146E050E0DBCF0E94BA02F1
:100B800086CFE114F10409F41CCF0E94F6008823FB
:100B900009F417CF0E94000014CFE5E8F2E01382B9
:100BA000128288EE93E0A0E0B0E084839583A68370
:100BB000B78389E091E09183808385EC90E095870D
:100BC000848784EC90E09787868780EC90E0918B17
:100BD000808B81EC90E0938B828B82EC90E0958B04
:100BE000848B86EC90E0978B868B118E128E138E01
:100BF000148E0895EE0FFF1F0590F491E02D0994D7
:040C0000F894FFCF96
:100C04006C026C0204000000002C018C00B9007915
:100C140001EA00C800DC0000000000000000000041
:100C2400000000000000004200000000000000007E
:100C3400000000000000004200000000000000006E
:100C4400000000000000005043206D6F64653A20EE
:0E0C5400456E636F646572312E30000D0A002C
:107E0000112484B714BE81FFF0D085E080938100F7
:107E100082E08093C00088E18093C10086E0809377
:107E2000C20080E18093C4008EE0C9D0259A86E02C
:107E300020E33CEF91E0309385002093840096BBD3
:107E4000B09BFECF1D9AA8958150A9F7CC24DD24C4
:107E500088248394B5E0AB2EA1E19A2EF3E0BF2EE7
:107E6000A2D0813461F49FD0082FAFD0023811F036
:107E7000013811F484E001C083E08DD089C08234E0
:107E800011F484E103C0853419F485E0A6D080C0E4
:107E9000853579F488D0E82EFF2485D0082F10E0AE
:107EA000102F00270E291F29000F111F8ED06801E7
:107EB0006FC0863521F484E090D080E0DECF843638
:107EC00009F040C070D06FD0082F6DD080E0C81688
:107ED00080E7D80618F4F601B7BEE895C0E0D1E017
:107EE00062D089930C17E1F7F0E0CF16F0E7DF06D8
:107EF00018F0F601B7BEE89568D007B600FCFDCFD4
:107F0000A601A0E0B1E02C9130E011968C91119780
:107F100090E0982F8827822B932B1296FA010C0160
:107F200087BEE89511244E5F5F4FF1E0A038BF0790
:107F300051F7F601A7BEE89507B600FCFDCF97BE46
:107F4000E89526C08437B1F42ED02DD0F82E2BD052
:107F50003CD0F601EF2C8F010F5F1F4F84911BD097
:107F6000EA94F801C1F70894C11CD11CFA94CF0C13
:107F7000D11C0EC0853739F428D08EE10CD085E9AC
:107F80000AD08FE07ACF813511F488E018D01DD067
:107F900080E101D065CF982F8091C00085FFFCCF94
:107FA0009093C60008958091C00087FFFCCF809118
:107FB000C00084FD01C0A8958091C6000895E0E648
:107FC000F0E098E1908380830895EDDF803219F02E
:107FD00088E0F5DFFFCF84E1DECF1F93182FE3DFCA
:107FE0001150E9F7F2DF1F91089580E0E8DFEE27F6
:047FF000FF270994CA
:027FFE00040479
:0400000300007E007B
:00000001FF
