:100000000C9463000C94630B0C943C0B0C948B00CD
:100010000C948B000C948B000C948B000C948B0034
:100020000C948B000C948B000C948B000C948B0024
:100030000C948B000C948B000C948B000C948B0014
:100040000C94F20A0C948B000C94C00A0C949A0A3B
:100050000C948B000C948B000C948B000C948B00F4
:100060000C948A0B0C948B000000000024002700E5
:100070002A0000000008000201000003040700003D
:1000800000000000000000000000230026002900FE
:10009000010204081020408001020408102001021F
:1000A0000408102000000000250028002B00040494
:1000B0000404040404040202020202020303030310
:1000C0000303EE0C871411241FBECFEFD8E0DEBF70
:1000D000CDBF15E0A0E0B1E0EAE1F1E302C0059098
:1000E0000D92A630B107D9F727E0A6E0B5E001C030
:1000F0001D92A93CB207E1F710E0C2E6D0E004C0CF
:100100002197FE010E941117C136D107C9F70E943D
:10011000D30D0C9480180C9400008230F8F4E82F72
:10012000F0E0EE0FFF1FE95EFE4F29EB34E0318374
:100130002083813041F0809169008C7F682B60932F
:100140006900E89A089580916900837F660F771FA0
:10015000660F771F682B60936900E99A08958F9264
:100160009F92AF92BF92CF92DF92EF92FF92CF9386
:100170004B01AA24BB24C82DC52ED62EE72EFF2462
:10018000BC2DA42F2091A207222361F0829E400162
:100190001124C92D2C9D60011124BD2D249FF00137
:1001A0001124AF2FE091A807E090A307F090A407D7
:1001B0003091A507E31323C09C01220F331F820F48
:1001C000931F8E0D9F1DE091A507E80FF92FF11DDC
:1001D000C083E091A607E80FF92FF11DB0832091AD
:1001E000A707820F911DFC01A083CF91FF90EF9094
:1001F000DF90CF90BF90AF909F908F900895880F21
:10020000991F880F991F8E0D9F1D472F5527662711
:100210007727222349F030E0249F7001259FF00CBE
:10022000349FF00C11244F2DE80FF92FF11D40835E
:10023000CACF982F2091F00681E0213208F043C008
:100240008091CC068111FCCF8091EF0632E0309393
:10025000CC069093CB069FEF9093CA061092C906E6
:100260002093C806AFECB6E0E8EAF6E090E0291388
:1002700031C01092A7069091A706880F892B809312
:10028000A7068091A606813049F51092A6068091B6
:10029000A7068093BB008091BC0083FDF8CF85EC5E
:1002A0008093BC008091CC068230E1F38091CA0635
:1002B0008F3FB1F08091CA068032A1F08091CA06CA
:1002C000803391F084E01092CE061092F0061092E6
:1002D000CD0608953D9131939F5FC9CF85EEE0CF64
:1002E00080E0F1CF82E0EFCF83E0EDCF1F93CF939B
:1002F000DF93162FC0EBD7E0A981BA81988121E066
:100300002093CD069093EF061092CE061092F00641
:10031000ED91FC9111970190F081E02D682FCD01B6
:10032000099589819A81DC01ED91FC910190F08120
:10033000E02D612F099581E0DF91CF911F910C9401
:10034000190108950895AF92BF92CF92DF92EF9274
:10035000FF920F931F93CF93DF936C017B018B016F
:10036000040F151FEB015E01AE18BF08C017D107BF
:1003700059F06991D601ED91FC910190F081E02D49
:10038000C6010995892B79F7C501DF91CF911F919E
:100390000F91FF90EF90DF90CF90BF90AF900895B6
:1003A000FC01538D448D252F30E0842F90E0821B7B
:1003B000930B541710F0CF96089501970895FC0100
:1003C000918D828D981761F0A28DAE0FBF2FB11D58
:1003D0005D968C91928D9F5F9F73928F90E00895B0
:1003E0008FEF9FEF0895FC01918D828D981731F06A
:1003F000828DE80FF11D858D90E008958FEF9FEFBE
:100400000895FC01918D228D892F90E0805C9F4F93
:10041000821B91098F739927089581EF96E00E94BE
:10042000010221E0892B09F420E0822F089580E069
:1004300090E0892B29F00E940D0281110C9400009C
:100440000895FC01A48DA80FB92FB11DA35ABF4F69
:100450002C91848D90E001968F739927848FA689C3
:10046000B7892C93A089B1898C91837080648C9317
:10047000938D848D981306C00288F389E02D8081C6
:100480008F7D80830895EF92FF920F931F93CF93F8
:10049000DF93EC0181E0888F9B8D8C8D98131AC0BF
:1004A000E889F989808185FF15C09FB7F894EE89A6
:1004B000FF896083E889F989808183708064808303
:1004C0009FBF81E090E0DF91CF911F910F91FF904E
:1004D000EF900895F62E0B8D10E00F5F1F4F0F73F6
:1004E0001127E02E8C8D8E110CC00FB607FCFACFB1
:1004F000E889F989808185FFF5CFCE010E9421022C
:10050000F1CFEB8DEC0FFD2FF11DE35AFF4FF08281
:100510009FB7F8940B8FEA89FB8980818062CFCFE7
:10052000CF93DF93EC01888D8823B9F0AA89BB892A
:10053000E889F9898C9185FD03C0808186FD0DC015
:100540000FB607FCF7CF8C9185FFF2CF808185FF36
:10055000EDCFCE010E942102E9CFDF91CF91089526
:10056000833081F028F4813099F08230A9F0089529
:100570008730A9F08830C9F08430B1F480918000D0
:100580008F7D03C0809180008F77809380000895D5
:1005900084B58F7784BD089584B58F7DFBCF80911E
:1005A000B0008F778093B00008958091B0008F7D68
:1005B000F9CFCF93DF93282F30E0F901EE58FF4FAA
:1005C0008491F901E057FF4FD491F901E255FF4FB3
:1005D000C491CC23A1F081110E94B002EC2FF0E075
:1005E000EE0FFF1FEA57FF4FA591B491EC91ED2359
:1005F00081E090E009F480E0DF91CF91089580E000
:1006000090E0FACF1F93CF93DF93282F30E0F901CA
:10061000EE58FF4F8491F901E057FF4FD491F90153
:10062000E255FF4FC491CC23A9F0162F81110E94EF
:10063000B002EC2FF0E0EE0FFF1FEC55FF4FA5913D
:10064000B4918FB7F894EC91111108C0D095DE23C6
:10065000DC938FBFDF91CF911F910895DE2BF8CFF0
:10066000682F8DE00C940203CF93DF9390E0FC01A0
:10067000E057FF4F249182559F4FFC0184918823BE
:10068000C9F090E0880F991FFC01E859FF4FA59130
:10069000B491FC01EC55FF4FC591D49161110DC08F
:1006A0009FB7F8948C91209582238C93888128237E
:1006B00028839FBFDF91CF910895623051F49FB797
:1006C000F8943C91822F809583238C93E8812E2B84
:1006D000EFCF8FB7F894EC912E2B2C938FBFEACFEE
:1006E0003FB7F8948091540590915505A091560517
:1006F000B091570526B5A89B05C02F3F19F001966C
:10070000A11DB11D3FBFBA2FA92F982F8827BC016B
:10071000CD01620F711D811D911D42E0660F771F93
:10072000881F991F4A95D1F708950F931F93CF9370
:10073000DF93CDB7DEB729970FB6F894DEBF0FBEB3
:10074000CDBF8091A3079091A407892B09F467C0BE
:100750000E9470030091A9071091AA072091AB078E
:100760003091AC07601B710B820B930B6C327140A4
:100770008105910568F3F89480919E0790919F07F9
:100780009A838983E091A307F091A407DF01119672
:100790008081898790919A07E091AD07F091AE072B
:1007A0008091AF07992309F445C09081982B9887D1
:1007B0009081809589238F838F818C8388E08B83C0
:1007C00058856F8149853B812C8189819A8150832D
:1007D00047FD252F3A952083262F39F0441F00C06E
:1007E00000006083000000C0F2CF38E04D916083CC
:1007F0000000019761F7F093AE07E093AD074987DA
:100800003B832C839A83898378940E94700360933E
:10081000A9077093AA078093AB079093AC0729961A
:100820000FB6F894DEBF0FBECDBFDF91CF911F9101
:100830000F9108959081982B9887908180958923B6
:100840008F838F818E8388E08D8358856F81498562
:100850003D812E8189819A81508347FD252F00C0DB
:1008600000C0208300C000C000C000C000C0608382
:100870000000262F3A9541F0441F000000C000C040
:1008800000C000C000C0E8CF38E04D9100C06083D8
:1008900000C0019709F7F093AE07E093AD074987D1
:1008A0003D832E83AFCF8F929F92AF92BF92CF9214
:1008B000DF92EF92FF926B017C010E9470034B016B
:1008C0005C01C114D104E104F104B9F00E94700389
:1008D000681979098A099B09683E73408105910569
:1008E00080F321E0C21AD108E108F10888EE880EF1
:1008F00083E0981EA11CB11CE4CFFF90EF90DF9025
:10090000CF90BF90AF909F908F900895CF92DF923D
:10091000EF92FF92CF93DF936B017C01D0E0C0E0B8
:1009200080919C0790919D07C817D90778F4B7016B
:10093000A601CE010E94AF000E9495036AE070E01C
:1009400080E090E00E9453042196EACFDF91CF919E
:10095000FF90EF90DF90CF9008952FB7F8946091BB
:100960007F067091800680918106909182062FBF4C
:1009700008950F931F930E947003AB01BC018091F7
:100980000C0590910D05A0910E05B0910F058A01FF
:100990009B01081B190B2A0B3B0BD901C8010097BF
:1009A000A140B10520F580910C0590910D05A09115
:1009B0000E05B0910F059A01281B390BC901409310
:1009C0000C0550930D0560930E0570930F05E09193
:1009D000B907E73090F4F0E0E051FB4F0C941117A9
:1009E000FA042C05A305E00512055105E0058FEF7B
:1009F0009FEFE5CF84E08093B9078091B90762E06B
:100A000070E0843010F063E070E08091BC078230C9
:100A100009F461C1833009F460C18FEF1F910F9118
:100A20000C948D009C0127553A412339314110F433
:100A300081E0E1CF8B5693408F35914008F0BDC0E7
:100A4000109208051092090510920A0510920B05E4
:100A50001092070583E0CFCF1092B9079C012B526B
:100A60003D402B3C384060F4109208051092090577
:100A700010920A0510920B051092070585E0BBCF76
:100A8000855996408736944008F0B7CF0E94AD0450
:100A90006093600570936105809362059093630590
:100AA000ACCF1092B907855A91408B31914008F034
:100AB000A4CF80910705803210F482E09CCF809112
:100AC000080590910905A0910A05B0910B05409188
:100AD00008055091090560910A0570910B05892F51
:100AE0009A2FAB2FBB2784279527A627B7279927AF
:100AF000BB278F3F9105AF4FB10509F07ECF8091A5
:100B0000080590910905A0910A05B0910B058A2F5F
:100B100090E09093B8078093B7070E94AD0460936C
:100B2000600570936105809362059093630581E091
:100B300080936405E091BA07F091BB07309709F400
:100B40005CCF09955ACF25E02093B907409108055D
:100B50005091090560910A0570910B05769567958E
:100B600057954795409308055093090560930A05EA
:100B700070930B05209107052F5F209307059C01BB
:100B8000205F34402D34334090F4809108059091DB
:100B90000905A0910A05B0910B05B068809308057E
:100BA00090930905A0930A05B0930B0526CF855AAB
:100BB00091408B31914008F420CF1092B9071DCF9E
:100BC0009C012F5A31092F35314048F58091070596
:100BD00080FD15C08091080590910905A0910A0536
:100BE000B0910B05880F991FAA1FBB1F81608093CE
:100BF000080590930905A0930A05B0930B05809111
:100C000007058F5F80930705809107058E3120F5DA
:100C10008091B907863009F41DCF86E0ECCE8D5067
:100C200092408F35914048F68091080590910905D2
:100C3000A0910A05B0910B05880F991FAA1FBB1F31
:100C40008093080590930905A0930A05B0930B05BE
:100C5000809107058E5FD6CF409108055091090518
:100C600060910A0570910B0590910605852F82957C
:100C700086958770911104C08370809306059DCF7F
:100C800020910605837030E08217130609F095CF96
:100C90008091080590910905A0910A05B0910B0576
:100CA0009093B8078093B7070E94AD0460936005E6
:100CB00070936105809362059093630582E0809351
:100CC0006405E091BA07F091BB07309709F475CF3E
:100CD00081E0099572CF80E0A1CE81E09FCE08959A
:100CE00085ED8093BC008091BC0084FDFCCF109208
:100CF000CC06089520913005260F3327331F21326B
:100D00003105ECF42091CC06FC0190E080E0243029
:100D100069F082E00895A09130052191AC01405F17
:100D20005A4FA40FB52FB11D2C930196861798F337
:100D300080913005680F6093300580E0089581E070
:100D400008950895E091850680918406E81730F4AF
:100D5000F0E0EA57F94F808190E008958FEF9FEF20
:100D6000089590918506809184062FEF3FEF9817A4
:100D700048F4E92FF0E0EA57F94F208130E09F5F17
:100D800090938506C9010895809184069091850607
:100D9000891B990B0895CF92DF92EF92FF920F93E8
:100DA0001F93CF93DF937C01CB018A012091CD0665
:100DB000222389F0EB016B01C40ED51ECC15DD0595
:100DC00069F06991D701ED91FC910190F081E02DDE
:100DD000C7010995F3CF642F0E947A06C801DF91FD
:100DE000CF911F910F91FF90EF90DF90CF900895DA
:100DF000CF93DF931F92CDB7DEB769832091CD06E5
:100E00002223F9F02091F006203258F021E030E062
:100E1000FC013383228390E080E00F90DF91CF913B
:100E200008958091CE06E82FF0E0E153F94F9981C3
:100E300090838F5F8093CE068093F00681E090E0F0
:100E4000ECCF61E0CE0101960E947A06F7CF90E0E8
:100E500080E00895DC01ED91FC910190F081E02D9E
:100E600009940F931F93CF93DF938B01C0EBD7E0CF
:100E7000A981BA81988121E02093CD069093EF0655
:100E80001092CE061092F00694E0899FB0011124D2
:100E90006A5F7F4FED91FC9111970190F081E02DF9
:100EA000CD01099570E060E089819A810E942A074E
:100EB00070E060E089819A810E942A07B8018981E7
:100EC0009A810E942A07612F70E089819A810E948D
:100ED0002A0781E0DF91CF911F910F910C941901A6
:100EE000CF93C0E070E060E08C2F0E943107CF5FAD
:100EF000C830C1F71092830680917F0690918006DA
:100F0000A0918106B091820680937B0690937C0627
:100F1000A0937D06B0937E0610927A06CF91089535
:100F2000EF92FF920F931F93CF93DF937C01D0E05A
:100F3000C0E00BE316E0CE15DF0584F461E088E045
:100F40000E940203C8010197F1F760E088E00E9467
:100F50000203C8010197F1F72196EDCFDF91CF9100
:100F60001F910F91FF90EF900895CF93DF93CDB72E
:100F7000DEB728970FB6F894DEBF0FBECDBF282F7F
:100F800088E0E3E2F1E0DE01119601900D928A958E
:100F9000E1F738EC369FC001379F900D1124805A3D
:100FA0009F406EE670E00E94DE1668537F4F613905
:100FB00081E0780788F4E1E0F0E0EC0FFD1FE20F3C
:100FC000F11D808128960FB6F894DEBF0FBECDBF0D
:100FD000DF91CF910C94310728960FB6F894DEBFBD
:100FE0000FBECDBFDF91CF910895CF92DF92EF92E8
:100FF000FF920F931F93CF93DF9300D01F92CDB733
:10100000DEB7062F28E031E03B832A837C0180E0B5
:10101000C82E81E0D82E10E03DEF360F398389814C
:10102000843018F0013009F040C0EA81FB81608112
:1010300070E0812F0E94B507EA81FB818081F60173
:101040008083F70180818F3F19F0EA81FB818083E3
:101050001F5F2A813B812F5F3F4F3B832A833FEFF6
:10106000E31AF30A8FEFC81AD80A1830C1F60093B2
:10107000830680917F0690918006A0918106B091B1
:10108000820680937B0690937C06A0937D06B093A6
:101090007E060F900F900F90DF91CF911F910F91CF
:1010A000FF90EF90DF90CF900895F70160816F3F40
:1010B00079F270E0812F0E94B507F7018081C5CFDA
:1010C00090937605809375050C94F507CF93DF9385
:1010D000CDB7DEB728970FB6F894DEBF0FBECDBFF1
:1010E00098E0EBE2F1E0DE01119601900D929A9505
:1010F000E1F790E0880F991FA1E0B0E0AC0FBD1FB1
:10110000A80FB91F28E0629FF0011124E557FD4F99
:10111000E80FF91F20812C930196E1E0F0E0EC0F3D
:10112000FD1FE80FF91FA8E04A9FA00111244557B1
:101130005D4F840F951FDC018C91808367E0CE01A9
:1011400001960E94600880E180937A0628960FB687
:10115000F894DEBF0FBECDBFDF91CF910895EF921F
:10116000FF921F93CF93DF93CDB7DEB728970FB6CB
:10117000F894DEBF0FBECDBF7C01162F90931501F2
:1011800080931401BC0190E080E00E94AA152AE936
:1011900039E949E15FE30E9461160E947B15709373
:1011A0007805609377059701DB010E94171760931C
:1011B000100170931101809312019093130180919B
:1011C0007A06811799F010937A0611111BC088E0F6
:1011D000E3E3F1E0DE01119601900D928A95E1F7CB
:1011E0008091830661E0823008F050C028960FB6E7
:1011F000F894DEBF0FBECDBFDF91CF911F91FF905E
:10120000EF90089563E08BE692E0113009F440C05E
:1012100063E08BE492E01430D9F163E08BE292E07A
:101220001230B1F163E08BE092E0133089F163E0BA
:101230008BEE91E0153061F163E08BEC91E01630BC
:1012400039F188E0EBE3F1E01730C9F088E0E3E43E
:10125000F1E01830A1F088E0EBE4F1E0193079F02A
:1012600088E0E3E5F1E01A3051F088E0EBE5F1E0E9
:101270001B3029F01C3079F488E0E3E6F1E0DE0170
:10128000119601900D928A95E1F762E0CE010196E8
:101290000E946008ABCF63E08BEA91E01D30C1F3A0
:1012A00063E08BE891E01E3099F31F3009F09ECF88
:1012B00063E08BE691E0ECCFE9E7F5E09FEF908308
:1012C00095E5918392E0928391E09383848345E056
:1012D00050E0BF0181EF96E00C94A301E9E7F5E04F
:1012E0008FEF808385E58183128243E050E0BF0168
:1012F00081EF96E00C94A3018F929F92AF92BF92E0
:10130000CF92DF92EF92FF92CF936B017C0120E0AE
:1013100030E040E85FE30E94041587FDE0C020E074
:1013200030EC4AE555E4C701B6010E945C16181678
:101330003CF4C12C30ECD32E3AE5E32E35E4F32E09
:101340006091B3077091B4078091B5079091B6078B
:101350000E94AA154B015C0120E030E040E855E412
:10136000C701B6010E9461169B01AC01C501B40121
:101370000E94091520E030E040E05FE30E949814ED
:1013800020E030E040E85FE30E9497146B017C01AD
:1013900020E030E040E450E40E94041587FDA6C040
:1013A00020E030E04FE753E4C701B6010E945C162D
:1013B000181634F4C12CD12C9FE7E92E93E4F92EB2
:1013C000C701B6010E947B15F62E8091B10790915E
:1013D000B2072091B00731E03093CD062093EF069D
:1013E0001092CE061092F006DC01ED91FC91019076
:1013F000F081E02D60E0099581E00E941901809163
:10140000B0079091CC069111FCCF91E09093CC065F
:101410009093CB062FEF2093CA061092C906109224
:10142000C8069093A7069091A706880F892B8093F2
:10143000A7068091A606813009F05EC01092A6062C
:101440008091A7068093BB008091BC0083FDF8CFFC
:1014500085EC8093BC008091CC068130E1F38091D3
:10146000C90691E0811102C09091C906A8EAB6E0D0
:10147000E6E8F6E080E0891341C01092850680938B
:1014800084068091B1079091B207DC01ED91FC9147
:101490000284F385E02D0995C82F682F6F7660616F
:1014A00080E00E9476016F2D8EEF0E9476016C2FF6
:1014B00080E00E94760165E070E080E090E00E94AC
:1014C00053046C2F606A80E0CF91FF90EF90DF9023
:1014D000CF90BF90AF909F908F900C947601C12CCD
:1014E000D12C20E8E22E2FE3F22E2ACFC12CD12CD2
:1014F00080E4E82EFE2C64CF85EEABCF2D912193B6
:101500008F5FB9CFCF93DF9347E150E06BEE74E08C
:1015100081EF96E00E94A301EC0142E050E063E01D
:1015200075E081EF96E00E94A3018C0F9D1FDF9173
:10153000CF9108951F920F920FB60F9211242F93FF
:101540003F934F935F936F937F938F939F93AF934B
:10155000BF93EF93FF9381EF96E00E942102FF91EA
:10156000EF91BF91AF919F918F917F916F915F911B
:101570004F913F912F910F900FBE0F901F90189594
:101580001F920F920FB60F9211242F938F939F9358
:10159000EF93FF93E0910107F09102078081E091C2
:1015A0000707F091080782FD1BC0908180910A0710
:1015B0008F5F8F7320910B07821741F0E0910A072C
:1015C000F0E0EF50F94F958F80930A07FF91EF916C
:1015D0009F918F912F910F900FBE0F901F90189594
:1015E0008081F4CF1F920F920FB60F9211242F9388
:1015F0003F938F939F93AF93BF9380917F0690917A
:101600008006A0918106B09182063091530523E0B7
:10161000230F2D3758F50196A11DB11D20935305B9
:1016200080937F0690938006A0938106B0938206F4
:101630008091540590915505A0915605B09157059C
:101640000196A11DB11D8093540590935505A0935B
:101650005605B0935705BF91AF919F918F913F91E0
:101660002F910F900FBE0F901F90189526E8230F13
:101670000296A11DB11DD2CF1F920F920FB60F92ED
:1016800011242F933F934F935F936F937F938F9387
:101690009F93AF93BF93EF93FF93E0911901F09164
:1016A0001A010995FF91EF91BF91AF919F918F9191
:1016B0007F916F915F914F913F912F910F900FBE4E
:1016C0000F901F9018951F920F920FB60F92112432
:1016D0002F933F934F935F936F937F938F939F933A
:1016E000AF93BF93EF93FF93E0911701F09118012F
:1016F0000995FF91EF91BF91AF919F918F917F914C
:101700006F915F914F913F912F910F900FBE0F906E
:101710001F9018951F920F920FB60F9211242F93BE
:101720003F934F935F936F937F938F939F93AF9369
:10173000BF93EF93FF938091B900887F803609F4BF
:101740004AC0F0F5883209F4A7C018F5803109F4D1
:101750009BC0B8F4882309F4F9C0883009F494C018
:10176000FF91EF91BF91AF919F918F917F916F9179
:101770005F914F913F912F910F900FBE0F901F904F
:101780001895883109F488C0803251F78093CA06D1
:1017900014C0803409F49DC040F48033B9F3883319
:1017A000F9F68093CA0685ECB0C0803509F485C08F
:1017B000883509F496C0883499F60E947006D0CF17
:1017C000883909F48CC038F5883729F050F4883608
:1017D00011F0803729F683E08093CC0610925205F1
:1017E00057C0883809F47BC0803919F0803809F077
:1017F000B7CF80915205803208F071C0E091520558
:1018000081E08E0F809352058091BB00F0E0EE5C8A
:10181000FA4F80833DC0803B39F0E0F4803A09F410
:1018200079C0883A09F09CCF84E08093CC0610926E
:10183000310510923005E0915A05F0915B0509954C
:101840008091300581110FC081E0809330051092A6
:10185000100509C0803C09F4A6CF883C09F4A3CF49
:10186000883B09F07DCFE091310581E08E0F8093B8
:101870003105F0E0E05FFA4F80818093BB009091EA
:1018800031058091300529C08091A7068093BB0067
:1018900085EC8093BC0064CF9091C9068091C80606
:1018A000981758F5E091C90681E08E0F8093C9061C
:1018B000F0E0E855F94F8081E9CFE091C90681E079
:1018C0008E0F8093C9068091BB00F0E0E855F94F78
:1018D00080839091C9068091C8069817C8F285E860
:1018E000D8CFE091C90681E08E0F8093C906809120
:1018F000BB00F0E0E855F94F80838091CB06811161
:101900005CCF81E08093A60684EA8093BC001092AD
:10191000CC0626CF85EC8093BC001092CC0680913B
:101920005205803230F4E0915205F0E0EE5CFA4F5F
:1019300010826091520570E0E0915805F0915905D0
:1019400082E395E00995109252050ACF1092CA06DB
:1019500034CFCF92DF92EF92FF920F931F93E82F35
:10196000F92F05C0015011092109310961F1908158
:1019700096239417B9F305C00150110921093109C3
:1019800011F1908196239413F7CFC12CD12CE12C27
:10199000F12C0AC08FEFC81AD80AE80AF80A0C1509
:1019A0001D052E053F0579F080818623841791F36C
:1019B0006C2D7D2D8E2D9F2D1F910F91FF90EF90FF
:1019C000DF90CF90089560E070E080E090E01F919C
:1019D0000F91FF90EF90DF90CF9008951092F40652
:1019E0001092F30688EE93E0A0E0B0E08093F50655
:1019F0009093F606A093F706B093F8062BEC34E02C
:101A00003093F2062093F10625EC30E03093FE0689
:101A10002093FD0624EC30E0309300072093FF066E
:101A200020EC30E0309302072093010721EC30E0F6
:101A3000309304072093030722EC30E0309306072D
:101A40002093050726EC30E0309308072093070722
:101A500010920A0710920B0710920C0710920D07B4
:101A6000109291071092900780939207909393079A
:101A7000A0939407B09395078DED94E090938F0712
:101A800080938E0780E48093B0078EE897E0909370
:101A9000B2078093B10710929B071092A207109291
:101AA000A9071092AA071092AB071092AC0781E029
:101AB0008093A8078093A5071092A60792E09093C1
:101AC000A70780939A0788E190E090939F078093FF
:101AD0009E070E945B179093A4078093A30700972B
:101AE00009F455C028E1FC0111922A95E9F788E034
:101AF00090E090939D0780939C0780E190E0909305
:101B0000A1078093A00780919B07882341F061E0A3
:101B100080E10E94340360E080E10E940203EEEB6A
:101B2000F0E0E491F0E0EE0FFF1FEC55FF4F8591E0
:101B300094919093AE078093AD07E0EAF0E0E491D2
:101B4000E093AF0782E08093C4078093BC0780E3F3
:101B500093E09093BB078093BA0760E082E00E9415
:101B6000340362E070E080E00E948D001092B907BB
:101B70001092B8071092B7078091C407811110C066
:101B80008EE690E090931C0180931B0108951092C3
:101B90009F0710929E0710929D0710929C07ADCF51
:101BA0008CE291E0EFCFCF93DF93CDB7DEB72D97E7
:101BB0000FB6F894DEBF0FBECDBF789484B58260B7
:101BC00084BD84B5816084BD85B5826085BD85B5E1
:101BD000816085BD80916E00816080936E0010925F
:101BE00081008091810082608093810080918100DA
:101BF000816080938100809180008160809380006B
:101C00008091B10084608093B1008091B0008160C8
:101C10008093B00080917A00846080937A008091F4
:101C20007A00826080937A0080917A00816080934C
:101C30007A0080917A00806880937A001092C100C7
:101C400014BE0FB6F894A8958091600088618093C7
:101C50006000109260000FBE61E08DE00E943403CE
:101C600060E08DE00E94020361E081E10E943403A4
:101C700061E081E10E94020362E08EE00E94340391
:101C800061E08FE00E94340361E088E00E94340349
:101C900062E083E00E94340362E084E00E94340347
:101CA00062E085E00E94340362E086E00E94340333
:101CB0008091A0079091A10797FD08C061E00E9464
:101CC000340360E08091A0070E94020311E01093AA
:101CD0009B070E949503109285061092840610922D
:101CE000CE061092F0061092CC061093CB061092FE
:101CF000A60661E082E10E94020361E083E10E94A6
:101D000002038091B9008E7F8093B9008091B90061
:101D10008D7F8093B90088E48093B80085E4809338
:101D2000BC0081EA91E090935B0580935A0582EABA
:101D300091E0909359058093580560E880E00E94F7
:101D400076016AE070E080E090E00E94530460E079
:101D500070E08AE794E40E947C0980E498E7ADE7AC
:101D6000B1E08093B3079093B407A093B507B09305
:101D7000B60760E070E088E492E40E947C0960E0CD
:101D800081E10E94020388E0E3E3F1E0DE011196C5
:101D900001900D928A95E1F761E0CE0101960E94D3
:101DA000600860E870E0CB010E94860484E690E061
:101DB0000E949007E0910107F091020782E0808382
:101DC000E091FD06F091FE061082E091FF06F09191
:101DD000000780E1808310920907E0910507F091E8
:101DE000060786E08083E0910307F0910407808175
:101DF00080618083E0910307F0910407808188600F
:101E00008083E0910307F0910407808180688083DC
:101E1000E0910307F091040780818F7D80830E9409
:101E2000820A44E0242EEE24EA9455E5952E81EFB3
:101E300096E00E940102181619060CF090C481EF7A
:101E400096E00E94DF0197FD8AC4E091790621E0C7
:101E50002E0F20937906F0E0E758FA4F8083223066
:101E600009F459C0233009F45BC0213039F42092C1
:101E700016018F3F9105D9F2109279062091160133
:101E800080917906821798F2A5E6B5E0E0E11D920F
:101E9000EA95E9F710917C05103248F580E1189F2A
:101EA000F0011124E953FD4F35E6A32E35E0B32EA2
:101EB000BF01605F7F4F90E080E030E041914423BC
:101EC000B1F0D5018D935D014C34B1F16CF5443422
:101ED000A9F1463489F1423409F40196AC014C5F12
:101EE0005F4F24173507A0F06E177F0739F71A30B8
:101EF00009F4E4C108F064C0153009F42CC108F0FD
:101F000049C0123009F405C188F5113009F4EFC059
:101F1000109279068CCF8535910509F0ADCFAECF03
:101F20008D5F80931601AACF4236B1F0433741F05E
:101F30004335A1F60296D2CF0496D0CF0896CECFE5
:101F4000AC0143585A4FDA010D900020E9F7841B89
:101F5000950B8A0F9B1FC2CFAC0147585A4FDA012D
:101F600014964C910196840F911DB8CF133009F44B
:101F7000E3C0143069F6A0916605B0E0A758BA4FE7
:101F8000E0916505F0E0E758FA4F14964C916481B2
:101F900082E0CDC0173009F4F1C008F4EBC018306E
:101FA00009F41DC1193009F0B3CFE0916505EC5F6C
:101FB000F0E0E758FA4F918180810E949007B9C004
:101FC000163109F40FC208F03FC0133109F4E5C11E
:101FD000E0F41B3009F09CCFE0916505F0E0E75894
:101FE000FA4FE4818FEF8E0F21E0843050F4F0E05F
:101FF000EE53FD4F80810E94D90221E0892B09F028
:1020000020E0822F0E945C0983CF143109F4D3C1F0
:10201000153109F07DCFE0916505F0E0E758FA4F02
:10202000848161E0825F0E943403E0916605F0E004
:10203000E758FA4FA0916505B0E0A758BA4F14963B
:102040008C916481825FB4C1103809F4F2C1F0F55B
:10205000173109F4D9C1183109F05ACFE09165055B
:10206000F0E0E758FA4F848160E0825F0E94340319
:10207000E0916505F0E0E758FA4F84819EE0980F03
:102080009E3008F4892F8770806480937C00809153
:102090007A00806480937A0080917A0086FDFCCF7C
:1020A0009091780080917900892798278927E0927C
:1020B000790590927A0523E020937B0522E0209316
:1020C0007C0580937D0590937E0522CF1E3F09F409
:1020D000ADC11F3F09F01CCF88E198E00FB6F8941E
:1020E000A895809360000FBE90936000FFCFE091B1
:1020F0006605EC5FF0E0A0916505B0E0A758BA4F27
:10210000E758FA4F9181808114966C910E94AF0834
:1021100010C0A0916605B0E0A758BA4FE0916505E0
:10212000F0E0E758FA4F14964C91648180E00E94E9
:1021300066080E946E09ECCEA0916605B0E0A75833
:10214000BA4FE0916505F0E0E758FA4F14964C91CC
:10215000648181E0ECCFA0916605B0E0A758BA4F4A
:10216000E0916505F0E0E758FA4F14964C916481D0
:1021700083E0DDCF60E088EC90E0C8CFE0916505BA
:10218000F0E0E758FA4F84818330D9F048F4813089
:1021900089F0823071F660E07FEF80E090E00EC061
:1021A0008530C9F098F0863021F660E870E880E06C
:1021B00090E004C060E070E08FEF90E00E94860441
:1021C000B8CF6FEF70E080E090E0F8CF60E070E8AB
:1021D00080E890E0F3CF60E870E0CB01EFCFE091D2
:1021E0006505F0E0E758FA4F448000E0F12CD12C6F
:1021F000C12C512C712C612C812C10E0B12CA12C04
:10220000BC2DB095B987EFEFEF0DEA87FEEFFF0D1C
:10221000FB8721E0200F2C8722E0322E300E8DEF3D
:102220008F0D8D8780919C0790919D07A816B90608
:1022300098F58985880D8535A0F4432D410F50E030
:1022400070E060E0BA01552744278D85811B482B3B
:10225000C5010E94AF00AFEFAA1ABA0A1D5F8A94A7
:10226000E1CF8A3A60F44B85411B50E070E060E0BA
:10227000762F652F542F44278C85810FE8CF402F70
:10228000410F50E070E060E0762F652F542F442717
:102290008A85811B682BDCCF0E949503C301B201A4
:1022A0000E945304BFEFCB1ADB0AEDEFFE0E0D5F69
:1022B000C114F1E0DF0609F09FCF3BCF8EE00E9412
:1022C000D90260E0019709F45FC08FE00E94020329
:1022D00083E090E00197F1F761E08FE00E94020354
:1022E00083E290E00197F1F760E08FE00E94020343
:1022F000EEE9F0E06491ECEBF0E08491E82FF0E09F
:10230000EE0FFF1FEA57FF4F8591949100E412E40E
:102310002FE030E0462F0E94A90C61157105810560
:10232000910529F06F5F7F4F8F4F9F4F9F700E94E5
:10233000AA152B013C0120E030E0A9010E945C16A7
:10234000181634F526E933E44BE85CE3C301B20127
:102350000E946116E092790590927A0525E020931B
:102360007B0520927C0560937D0570937E058093AC
:102370007F059093800548E050E069E775E081EFC4
:1023800096E00E94A301C4CD70E088EC92E4E2CF15
:1023900060E070E080E090E0DDCF61E08DE00E94E1
:1023A0003403E0916505F0E0E758FA4F64818DE071
:1023B0000E940203BECEE0916505F0E0E758FA4FB7
:1023C00061E084810E943403A0916605B0E0A758C3
:1023D000BA4FE0916505F0E0E758FA4F14966C911A
:1023E0008481E6CFE0916505F0E0E758FA4F60E0C0
:1023F00084810E943403E0916505F0E0E758FA4FCC
:1024000084810E94D902FECDE0916505F0E0E75895
:10241000FA4F848160E0825F0E943403E091650599
:10242000F0E0E758FA4F8481825FEBCF0E94820A86
:102430006FCDE092790590927A0586E080937B05D6
:1024400010937C05F894F090640510926405009157
:10245000B7071091B807A0906005B0906105C090D3
:102460006205D09063057894A114B104C104D1042D
:1024700009F428C1F2E0FF1621F140901B015090B1
:102480001C01712C612C0E94AD046A197B098C0916
:102490009D092091C107641575058605970508F00B
:1024A000E6C0211115C00115110591F0E091BA07A0
:1024B000F091BB07309711F081E00995FF24F39468
:1024C00009C0FCE24F2E55245394612C712CDBCFB4
:1024D000FF2041F11092C3071092C20722E0F212CE
:1024E0007FC0802F8770805A8093C107802F869588
:1024F000869586958051990B74E0880F991F7A957F
:10250000E1F79093BE078093BD07812F8F718051B3
:10251000990BE4E0880F991FEA95E1F79093C007C3
:102520008093BF071091C4074091BD075091BE072B
:102530002091BF073091C007112309F475C082E0D4
:10254000F81272C0BA0157FF04C066277727641BD0
:10255000750BC90137FF04C088279927821B930B8D
:10256000860F971F883291050CF47CC0DA0157FD65
:102570001196B595A795E1E0A217B3070CF0E0E03E
:10258000B90137FF02C06F5F7F4F7595679546179A
:1025900057070CF4EE5FB90137FF02C06F5F7F4F42
:1025A00075956795719561957109461757070CF4F4
:1025B000EC5F66277727621B730BA617B7070CF42F
:1025C000E85FF0E0ED54FD4FE081E093C207E337B0
:1025D000C1F088F4E13709F443C09695879512C09D
:1025E0000093C1071092C0071092BF071092BE0758
:1025F0001092BD0797CFE43771F1E63771F7CB0141
:1026000001C0CA018F3F910519F010F08FEF90E0E3
:102610008093C3078091C107123031F4803621F4D2
:102620008091C2078093C1078091C10780937D0587
:102630009091BD078091BE0790937E0580937F05A2
:102640009091BF078091C00790938005809381058A
:1026500049E050E092CE88279927841B950BD2CF72
:10266000C901D0CF1092C2071092C307D3CF222343
:10267000D9F21092C3071092C2071092C0071092AD
:10268000BF071092BE071092BD071092C1071092AB
:102690006005109261051092620510926305E09149
:1026A000BA07F091BB07309711F080E009950E94BE
:1026B000AD0460935C0570935D0580935E05909317
:1026C0005F05B2CF0E94AD0440905C0550905D055F
:1026D00060905E0570905F05DC01CB01841995095F
:1026E000A609B709012B79F040911B0150911C01FB
:1026F00070E060E0481759076A077B0720F41092E2
:10270000B8071092B70717E0B695A79597958795E4
:102710001A95D1F70097A105B10509F485CF8F70FF
:102720009927AA27BB270097A105B10551F4E0918D
:10273000BA07F091BB0781E0309709F475CF09958E
:1027400073CF0197A105B10509F06ECFE091BA07EB
:10275000F091BB07309709F467CF80E0F0CF80910C
:102760007F0690918006A0918106B09182064091EB
:102770007B0650917C0660917D0670917E06841BDD
:10278000950BA60BB70B6C017D01E894F7F86091EF
:102790008306623089F0673079F0611120C080E0F3
:1027A00090E0892B09F43DCB0E940D02882309F4A7
:1027B00038CB0E94000035CBE0E2CE16EFEBDE0610
:1027C000E2E0EE06F10424F00E94700760E003C02E
:1027D00090FFFCCF61E08DE00E940203E0CF2091EA
:1027E000770530917805F901F695E795A0911401E8
:1027F000B09115014F018A0E9B1EB12CA12CC8145B
:10280000D904EA04FB040CF055C0A90170E060E0B3
:10281000C416D506E606F7060CF040C0A7019601DF
:10282000C701B6010E94CE16E7E0660F771F881F2A
:10283000991FEA95D1F72091100130911101409133
:102840001201509113010E94F21649015A0138E019
:10285000C32E31E0D32E40E0E42E41E0F42E10E010
:10286000F601A1916F01F70181917F01A81791F005
:10287000B0E0E82FF0E0AE1BBF0BA50194010E9471
:102880003117672F782F892F99276E0F7F1F812F80
:102890000E94B5071F5F183019F781CFCE1ADF0AE3
:1028A000E108F1089E2D8D2D7C2D66279D0150E0BD
:1028B00040E0C9CF6430D1F070F4613029F1633069
:1028C00009F06DCF809175059091760564E00896CA
:1028D0000E94F50764CF653081F0663009F05FCF64
:1028E00063E08091750590917605F2CF8091750532
:1028F0009091760565E04096EBCF809175059091BB
:10290000760566E04896E4CF0E94700748CF809134
:10291000A3079091A4070E94F7178091A0079091B8
:10292000A10797FD03C060E00C943403089550584C
:10293000BB27AA270E94AF140C9422160E941416DB
:1029400038F00E941B1620F039F49F3F19F426F44A
:102950000C9411160EF4E095E7FB0C940B16E92F7E
:102960000E94331658F3BA17620773078407950756
:1029700020F079F4A6F50C9455160EF4E0950B2E84
:10298000BA2FA02D0B01B90190010C01CA01A001C1
:102990001124FF27591B99F0593F50F4503E68F11C
:1029A0001A16F040A22F232F342F4427585FF3CF5D
:1029B000469537952795A795F0405395C9F77EF42E
:1029C0001F16BA0B620B730B840BBAF09150A1F077
:1029D000FF0FBB1F661F771F881FC2F70EC0BA0FFD
:1029E000621F731F841F48F4879577956795B79585
:1029F000F7959E3F08F0B0CF9395880F08F0992780
:102A0000EE0F9795879508950E94E71508F481E0E9
:102A100008950E941D150C9422160E941B1658F052
:102A20000E94141640F029F45F3F29F00C940B1615
:102A300051110C9456160C9411160E94331668F31B
:102A40009923B1F3552391F3951B550BBB27AA2767
:102A500062177307840738F09F5F5F4F220F331FA1
:102A6000441FAA1FA9F335D00E2E3AF0E0E832D069
:102A700091505040E695001CCAF72BD0FE2F29D06C
:102A8000660F771F881FBB1F261737074807AB073E
:102A9000B0E809F0BB0B802DBF01FF2793585F4FB3
:102AA0003AF09E3F510578F00C940B160C94561694
:102AB0005F3FE4F3983ED4F3869577956795B79595
:102AC000F7959F5FC9F7880F911D9695879597F9A0
:102AD0000895E1E0660F771F881FBB1F6217730719
:102AE0008407BA0720F0621B730B840BBA0BEE1F2E
:102AF00088F7E09508950E943B1688F09F5798F05C
:102B0000B92F9927B751B0F0E1F0660F771F881FF2
:102B1000991F1AF0BA95C9F714C0B13091F00E940C
:102B20005516B1E008950C945516672F782F882715
:102B3000B85F39F0B93FCCF3869577956795B39533
:102B4000D9F73EF490958095709561957F4F8F4FA2
:102B50009F4F0895E89409C097FB3EF490958095A7
:102B6000709561957F4F8F4F9F4F9923A9F0F92F53
:102B700096E9BB279395F695879577956795B795D1
:102B8000F111F8CFFAF4BB0F11F460FF1BC06F5FB7
:102B90007F4F8F4F9F4F16C0882311F096E911C0C9
:102BA000772321F09EE8872F762F05C0662371F0EA
:102BB00096E8862F70E060E02AF09A95660F771FFE
:102BC000881FDAF7880F9695879597F90895990FDA
:102BD0000008550FAA0BE0E8FEEF16161706E807E7
:102BE000F907C0F012161306E407F50798F0621B08
:102BF000730B840B950B39F40A2661F0232B242BDD
:102C0000252B21F408950A2609F4A140A6958FEFFB
:102C1000811D811D089597F99F6780E870E060E04D
:102C200008959FEF80EC089500240A941616170665
:102C300018060906089500240A94121613061406AD
:102C400005060895092E0394000C11F4882352F010
:102C5000BB0F40F4BF2B11F460FF04C06F5F7F4FC8
:102C60008F4F9F4F089557FD9058440F551F59F0AF
:102C70005F3F71F04795880F97FB991F61F09F3F69
:102C800079F087950895121613061406551FF2CF92
:102C90004695F1DF08C0161617061806991FF1CFE2
:102CA00086957105610508940895E894BB27662709
:102CB0007727CB0197F908950E94E71508F48FEF65
:102CC00008950E9474160C9422160E94141638F06F
:102CD0000E941B1620F0952311F00C940B160C94F7
:102CE000111611240C9456160E94331670F3959FFA
:102CF000C1F3950F50E0551F629FF001729FBB27F3
:102D0000F00DB11D639FAA27F00DB11DAA1F649F8E
:102D10006627B00DA11D661F829F2227B00DA11D41
:102D2000621F739FB00DA11D621F839FA00D611DC7
:102D3000221F749F3327A00D611D231F849F600DE8
:102D4000211D822F762F6A2F11249F5750409AF011
:102D5000F1F088234AF0EE0FFF1FBB1F661F771F9D
:102D6000881F91505040A9F79E3F510580F00C9468
:102D70000B160C9456165F3FE4F3983ED4F38695F9
:102D800077956795B795F795E7959F5FC1F7FE2B08
:102D9000880F911D9695879597F90895DB018F937C
:102DA0009F930E942617BF91AF91A29F800D911D06
:102DB000A39F900DB29F900D11240895AA1BBB1BD9
:102DC00051E107C0AA1FBB1FA617B70710F0A61B2B
:102DD000B70B881F991F5A95A9F780959095BC014C
:102DE000CD010895052E97FB1EF400940E9409174B
:102DF00057FD07D00E94391707FC03D04EF40C94FE
:102E0000091750954095309521953F4F4F4F5F4F93
:102E1000089590958095709561957F4F8F4F9F4F46
:102E20000895EE0FFF1F0590F491E02D0994A29FE5
:102E3000B001B39FC001A39F700D811D1124911D8E
:102E4000B29F700D811D1124911D08950E941717C6
:102E5000A59F900DB49F900DA49F800D911D1124EE
:102E60000895B7FF0C9426170E942617821B930B18
:102E70000895A1E21A2EAA1BBB1BFD010DC0AA1FBB
:102E8000BB1FEE1FFF1FA217B307E407F50720F0D3
:102E9000A21BB30BE40BF50B661F771F881F991F4E
:102EA0001A9469F760957095809590959B01AC0197
:102EB000BD01CF0108950F931F93CF93DF9382300D
:102EC000910510F482E090E0E091C707F091C80707
:102ED00030E020E0B0E0A0E0309799F42115310512
:102EE00009F44AC0281B390B24303105D8F58A81F2
:102EF0009B816115710589F1FB0193838283FE013A
:102F000011C0408151810281138148175907E0F0B7
:102F10004817590799F4109761F012960C9312977D
:102F200013961C933296CF01DF91CF911F910F9191
:102F300008950093C7071093C807F4CF21153105F2
:102F400051F04217530738F0A901DB019A01BD0186
:102F5000DF01F801C1CFEF01F9CF9093C80780934B
:102F6000C707CDCFFE01E20FF31F8193919322504B
:102F7000310939832883D7CF2091C5073091C607FF
:102F8000232B41F420911F01309120013093C6077B
:102F90002093C50720911D0130911E012115310597
:102FA00041F42DB73EB74091210150912201241BDD
:102FB000350BE091C507F091C607E217F307A0F4BF
:102FC0002E1B3F0B2817390778F0AC014E5F5F4F7F
:102FD0002417350748F04E0F5F1F5093C6074093E4
:102FE000C507819391939FCFF0E0E0E09CCFCF9312
:102FF000DF930097E9F0FC01329713821282A091CF
:10300000C707B091C807ED0130E020E01097A1F4A8
:1030100020813181820F931F2091C5073091C6070F
:103020002817390709F061C0F093C607E093C50778
:10303000DF91CF910895EA01CE17DF07E8F54A81C5
:103040005B819E0141155105B1F7E901FB83EA83DC
:1030500049915991C40FD51FEC17FD0761F4808188
:1030600091810296840F951FE9019983888382815B
:1030700093819B838A83F0E0E0E012968D919C918E
:1030800013970097B9F52D913C911197CD010296B8
:10309000820F931F2091C5073091C6072817390763
:1030A00039F6309751F51092C8071092C707B093C0
:1030B000C607A093C507BCCFD383C283408151818B
:1030C000840F951FC817D90761F44E5F5F4F888141
:1030D0009981480F591F518340838A819B81938333
:1030E00082832115310509F0B0CFF093C807E09332
:1030F000C7079ECFFD01DC01C0CF13821282D7CF5C
:1031000010E0C2E6D0E004C0FE010E941117219633
:0A311000C336D107C9F7F894FFCFCA
:10311A004655445A5A5A5A5A4655445A5A5A5A5A63
:10312A0001000000C800046F066F066E000000C9A7
:10313A000780000100050403020706FFFFFFFFFFE7
:10314A00FFFFFF4655445A5A5A5A5A3AFF37FF69FF
:10315A00FF67FF82FF82FF14FF14FF3AFF82FF69B5
:10316A00FF14FF82FF37FF14FF67FF3AFF37FF1490
:10317A00FF14FF82FF82FF69FF67FF3AFF37FF698B
:10318A00FF67FF82FF82FF14FF14FF3AFF37FF69D0
:10319A00FF67FF82FF82FF14FF14FF82FF82FF692D
:1031AA00FF67FF3AFF37FF14FF14FF82FF82FF69B0
:1031BA00FF67FF3AFF37FF14FF14FF3AFF37FF6933
:1031CA00FF67FF3AFF82FF69FF14FF3AFF37FF6983
:1031DA00FF67FF3AFF82FF69FF14FFFF5AFF6EFF86
:1031EA0050FF3C50FF37FF69FF50FFFF3CFF50FF85
:1031FA006EFF5A3AFF4BFF50FF67FFFF5AFF6EFF01
:10320A0050FF3C3AFF4BFF50FF67FFFF3CFF50FF68
:10321A006EFF5A50FF37FF69FF50FFFF5AFF50FFFA
:10322A0050FF5A50FF37FF69FF50FFFF3CFF6EFF08
:10323A006EFF3C3AFF4BFF50FF67FFFF5AFF50FFFC
:10324A0050FF5A3AFF4BFF50FF67FFFF3CFF6EFFEC
:10325A006EFF3C50FF37FF69FF50FFFF5AFF50FFD8
:10326A006EFF3C3AFF4BFF50FF67FFFF3CFF6EFFCC
:10327A0050FF5A50FF37FF69FF50FFFF5AFF50FFB8
:10328A006EFF3C50FF37FF69FF50FFFF3CFF6EFFA8
:10329A0050FF5A3AFF4BFF50FF67FFFFFFFFFFFF48
:1032AA00FFFFFF4655445A5A5A5A5A3A3C37506910
:1032BA006E675A505A4B6E5050503C8255825A147F
:1032CA005A145A737000710000007275000000767B
:1032DA0000777403040506000000000000000000E7
:1032EA00000000000000004253000000000000003F
:1032FA000000000000000042420000000000000040
:10330A00000000000000004242000000000000002F
:10331A00000000000000004242000000000000001F
:10332A00000000000000004242000000000000000F
:10333A000000000000000000000000000000000083
:10334A000000000000000042000000000000000031
:10335A000000000000000042000000000000000021
:10336A000000000000000053000000000000000000
:10337A000000000000000000000000000000000043
:10338A0000000000000000420000000000000000F1
:10339A000000000000000000000000000000000023
:1033AA000000000000000000000000000000000013
:1033BA000000000000000000000000000000000003
:1033CA0000000000000000000000000000000000F3
:1033DA0000000000000000000000000000000000E3
:1033EA0000000000000000000000000000000000D3
:1033FA0000000000000000000000000000000000C3
:10340A000000000000000042000000000000000070
:10341A00000000000000004242000000000000001E
:10342A00000000000000004242000000000000000E
:10343A000000000000000042000000000000000040
:10344A000000000000000042000000000000000030
:10345A000000000000000042000000000000000020
:10346A000000000000000000000000000000000052
:10347A000000000000000000000000000000000042
:10348A000000000000000000000000000000000032
:10349A000000000000000000000000000000000022
:1034AA000000000000000000000000000000000012
:1034BA000000000000000000000000000000000002
:1034CA0000000000000000000000000000000000F2
:1034DA0000000000000000000000004302A301D029
:1034EA000190020102DF01F30100000000F806CB9F
:1034FA00062707A106C406B106A2065043206D6F2F
:10350A0064653A2051756164437261776C65723102
:06351A002E32000D0A0034
:00000001FF
