:100000000C9464000C945F0D0C94380D0C948C00CF
:100010000C948C000C948C000C948C000C94140C9C
:100020000C948C000C948C000C948C000C948C0020
:100030000C948C000C948C000C948C000C948C0010
:100040000C94EE0C0C948C000C94BC0C0C94960C40
:100050000C948C000C948C000C948C000C948C00F0
:100060000C94860D0C948C000000000024002700E6
:100070002A0000000008000201000003040700003D
:1000800000000000000000000000230026002900FE
:10009000020102040810204080010204081020011F
:1000A000020408102000000000250028002B000496
:1000B000040404040404040202020202020303030F
:1000C00003030300EA0E931C11241FBECFEFD8E0F8
:1000D000DEBFCDBF15E0A0E0B1E0EAE5F1E402C08B
:1000E00005900D92AA32B107D9F728E0AAE2B5E04F
:1000F00001C01D92A135B207E1F710E0C3E6D0E0E0
:1001000004C02197FE010E94311FC236D107C9F7F2
:100110000E94CF0F0C94A0200C9400008230F8F4C1
:10012000E82FF0E0EE0FFF1FE35FFE4F2EE435E017
:1001300031832083813041F0809169008C7F682B6E
:1001400060936900E89A089580916900837F660F43
:10015000771F660F771F682B60936900E99A0895EF
:100160008F929F92AF92BF92CF92DF92EF92FF92C7
:10017000CF934B01AA24BB24C82DC52ED62EE72E23
:10018000FF24BC2DA42F20912A08222361F0829EF7
:1001900040011124C92D2C9D60011124BD2D249FE7
:1001A000F0011124AF2FE0913008E0902B08F0907F
:1001B0002C0830912D08E31323C09C01220F331F1C
:1001C000820F931F8E0D9F1DE0912D08E80FF92FD0
:1001D000F11DC083E0912E08E80FF92FF11DB083C7
:1001E00020912F08820F911DFC01A083CF91FF90D9
:1001F000EF90DF90CF90BF90AF909F908F90089539
:10020000880F991F880F991F8E0D9F1D472F552707
:1002100066277727222349F030E0249F7001259F2D
:10022000F00C349FF00C11244F2DE80FF92FF11D25
:100230004083CACF982F2091780781E0213208F0BF
:1002400043C0809154078111FCCF8091770732E041
:1002500030935407909353079FEF90935207109257
:10026000510720935007A7E5B7E0E0E3F7E090E0FF
:10027000291331C010922F0790912F07880F892BD7
:1002800080932F0780912E07813049F510922E0719
:1002900080912F078093BB008091BC0083FDF8CF35
:1002A00085EC8093BC00809154078230E1F380910B
:1002B00052078F3FB1F0809152078032A1F08091B8
:1002C0005207803391F084E010925607109278071D
:1002D0001092550708953D9131939F5FC9CF85EEE8
:1002E000E0CF80E0F1CF82E0EFCF83E0EDCF9091DF
:1002F00054079111FCCF91E09093540790935307CA
:100300002FEF2093520710925107260F209350078A
:1003100090932F0790912F07880F892B80932F0799
:1003200080912E078130F9F410922E0780912F07CB
:100330008093BB008091BC0083FDF8CF85EC809357
:10034000BC00809154078130E1F3809151078617FA
:1003500010F460915107A0E3B7E0EEE0F7E080E031
:10036000861303C0089585EEEACF9D9191938F5F28
:10037000F7CF08950895AF92BF92CF92DF92EF9298
:10038000FF920F931F93CF93DF936C017B018B013F
:10039000040F151FEB015E01AE18BF08C017D1078F
:1003A00059F06991D601ED91FC910190F081E02D19
:1003B000C6010995892B79F7C501DF91CF911F916E
:1003C0000F91FF90EF90DF90CF90BF90AF90089586
:1003D000FC01538D448D252F30E0842F90E0821B4B
:1003E000930B541710F0CF96089501970895FC01D0
:1003F000918D828D981761F0A28DAE0FBF2FB11D28
:100400005D968C91928D9F5F9F73928F90E008957F
:100410008FEF9FEF0895FC01918D828D981731F039
:10042000828DE80FF11D858D90E008958FEF9FEF8D
:100430000895FC01918D228D892F90E0805C9F4F63
:10044000821B91098F739927089589E797E00E948D
:10045000190221E0892B09F420E0822F089580E021
:1004600090E0892B29F00E94250281110C94000054
:100470000895FC01A48DA80FB92FB11DA35ABF4F39
:100480002C91848D90E001968F739927848FA68993
:10049000B7892C93A089B1898C91837080648C93E7
:1004A000938D848D981306C00288F389E02D808196
:1004B0008F7D80830895EF92FF920F931F93CF93C8
:1004C000DF93EC0181E0888F9B8D8C8D98131AC08F
:1004D000E889F989808185FF15C09FB7F894EE8976
:1004E000FF896083E889F9898081837080648083D3
:1004F0009FBF81E090E0DF91CF911F910F91FF901E
:10050000EF900895F62E0B8D10E00F5F1F4F0F73C5
:100510001127E02E8C8D8E110CC00FB607FCFACF80
:10052000E889F989808185FFF5CFCE010E943902E3
:10053000F1CFEB8DEC0FFD2FF11DE35AFF4FF08251
:100540009FB7F8940B8FEA89FB8980818062CFCFB7
:10055000CF93DF93EC01888D8823B9F0AA89BB89FA
:10056000E889F9898C9185FD03C0808186FD0DC0E5
:100570000FB607FCF7CF8C9185FFF2CF808185FF06
:10058000EDCFCE010E943902E9CFDF91CF910895DE
:10059000833081F028F4813099F08230A9F00895F9
:1005A0008730A9F08830C9F08430B1F480918000A0
:1005B0008F7D03C0809180008F77809380000895A5
:1005C00084B58F7784BD089584B58F7DFBCF8091EE
:1005D000B0008F778093B00008958091B0008F7D38
:1005E000F9CFCF93DF93282F30E0F901EE58FF4F7A
:1005F0008491F901EF56FF4FD491F901E155FF4F76
:10060000C491CC23A1F081110E94C802EC2FF0E02C
:10061000EE0FFF1FEA57FF4FA591B491EC91ED2328
:1006200081E090E009F480E0DF91CF91089580E0CF
:1006300090E0FACF1F93CF93DF93282F30E0F9019A
:10064000EE58FF4F8491F901EF56FF4FD491F90115
:10065000E155FF4FC491CC23A9F0162F81110E94C0
:10066000C802EC2FF0E0EE0FFF1FEB55FF4FA591F6
:10067000B4918FB7F894EC91111108C0D095DE2396
:10068000DC938FBFDF91CF911F910895DE2BF8CFC0
:10069000682F8DE00C941A0310920D0710920C072E
:1006A00010925607109278071092540781E08093B9
:1006B000530710922E0761E082E10E941A0361E065
:1006C00083E10E941A03E9EBF0E080818E7F808352
:1006D00080818D7F808388E48093B80085E4809357
:1006E000BC0089EB91E090930B0780930A078AEB9B
:1006F00091E090930907809308070895CF93DF93C3
:1007000090E0FC01EF56FF4F249181559F4FFC0173
:1007100084918823C9F090E0880F991FFC01E85963
:10072000FF4FA591B491FC01EB55FF4FC591D491BA
:1007300061110DC09FB7F8948C91209582238C9302
:100740008881282328839FBFDF91CF91089562304D
:1007500051F49FB7F8943C91822F809583238C931A
:10076000E8812E2BEFCF8FB7F894EC912E2B2C93A2
:100770008FBFEACF1F93CF93DF93182FEB0161E078
:100780000E947E03209739F460E0812FDF91CF91A2
:100790001F910C941A03CF3FD10511F461E0F5CFFE
:1007A000E12FF0E0EE58FF4FE491E33031F140F4F7
:1007B000E130B1F0E230E1F0C038D1057CF7E4CFB0
:1007C000E73029F1E83059F1E430B1F78091800049
:1007D000806280938000D0938B00C0938A0004C015
:1007E00084B5806884BDC7BDDF91CF911F91089506
:1007F00084B5806284BDC8BDF7CF809180008068D9
:1008000080938000D0938900C0938800EDCF8091C1
:10081000B00080688093B000C093B300E5CF8091B2
:10082000B00080628093B000C093B400DDCF3FB7CA
:10083000F8948091800590918105A0918205B091F6
:10084000830526B5A89B05C02F3F19F00196A11D71
:10085000B11D3FBFBA2FA92F982F8827BC01CD010A
:10086000620F711D811D911D42E0660F771F881F69
:10087000991F4A95D1F708950F931F93CF93DF9354
:10088000CDB7DEB729970FB6F894DEBF0FBECDBF48
:1008900080912B0890912C08892B09F47CC00E9430
:1008A00017040091310810913208209133083091DB
:1008B0003408601771078207930740F4609331088A
:1008C0007093320880933308909334080091310874
:1008D000109132082091330830913408601B710B5D
:1008E000820B930B6C32714081059105C0F2F89434
:1008F00080912608909127089A838983E0912B089C
:10090000F0912C08DF01119680818987909122084F
:10091000E0913508F091360880913708992309F461
:1009200045C09081982B98879081809589238F83EB
:100930008F818C8388E08B8358856F8149853B81CB
:100940002C8189819A81508347FD252F3A952083F8
:10095000262F39F0441F00C000006083000000C053
:10096000F2CF38E04D9160830000019761F7F0937A
:100970003608E093350849873B832C839A83898323
:1009800078940E9417046093310870933208809322
:1009900033089093340829960FB6F894DEBF0FBE43
:1009A000CDBFDF91CF911F910F9108959081982B2A
:1009B00098879081809589238F838F818E8388E0AB
:1009C0008D8358856F8149853D812E8189819A81EA
:1009D000508347FD252F00C000C0208300C000C009
:1009E00000C000C000C060830000262F3A9541F08F
:1009F000441F000000C000C000C000C000C0E8CF1D
:100A000038E04D9100C0608300C0019709F7F09372
:100A10003608E093350849873D832E83AFCF8F9208
:100A20009F92AF92BF92CF92DF92EF92FF926B01B3
:100A30007C010E9417044B015C01C114D104E10444
:100A4000F104B9F00E941704681979098A099B0911
:100A5000683E73408105910580F321E0C21AD108F8
:100A6000E108F10888EE880E83E0981EA11CB11CF5
:100A7000E4CFFF90EF90DF90CF90BF90AF909F902A
:100A80008F9008952FB7F894609102067091030635
:100A900080910406909105062FBF08950F931F9330
:100AA0000E941704AB01BC01809138059091390573
:100AB000A0913A05B0913B058A019B01081B190BD7
:100AC0002A0B3B0BD901C8010097A140B10520F5C5
:100AD0008091380590913905A0913A05B0913B0578
:100AE0009A01281B390BC9014093380550933905E9
:100AF00060933A0570933B05E0914108E73090F42C
:100B0000F0E0EB57FA4F0C94311F8F05C105380602
:100B10007506A705E60575068FEF9FEFE5CF84E024
:100B2000809341088091410862E070E0843010F0C9
:100B300063E070E080914408823009F461C1833041
:100B400009F460C18FEF1F910F910C948E009C01EE
:100B500027553A412339314110F481E0E1CF8B56DA
:100B600093408F35914008F0BDC01092340510922B
:100B7000350510923605109237051092330583E043
:100B8000CFCF109241089C012B523D402B3C384066
:100B900060F41092340510923505109236051092CB
:100BA00037051092330585E0BBCF855996408736CF
:100BB000944008F0B7CF0E9442056093A20570935D
:100BC000A3058093A4059093A505ACCF109241088E
:100BD000855A91408B31914008F0A4CF8091330524
:100BE000803210F482E09CCF8091340590913505DD
:100BF000A0913605B09137054091340550913505E7
:100C00006091360570913705892F9A2FAB2FBB273E
:100C100084279527A627B7279927BB278F3F9105BC
:100C2000AF4FB10509F07ECF809134059091350525
:100C3000A0913605B09137058A2F90E09093400837
:100C400080933F080E9442056093A2057093A3051C
:100C50008093A4059093A50581E08093A605E0917B
:100C60004208F0914308309709F45CCF09955ACFB8
:100C700025E020934108409134055091350560915D
:100C8000360570913705769567955795479540934A
:100C900034055093350560933605709337052091E0
:100CA00033052F5F209333059C01205F34402D34A2
:100CB000334090F48091340590913505A09136052C
:100CC000B0913705B0688093340590933505A093B3
:100CD0003605B093370526CF855A91408B31914028
:100CE00008F420CF109241081DCF9C012F5A3109E2
:100CF0002F35314048F58091330580FD15C0809136
:100D0000340590913505A0913605B0913705880FCF
:100D1000991FAA1FBB1F81608093340590933505EE
:100D2000A0933605B0933705809133058F5F80938C
:100D30003305809133058E3120F58091410886304E
:100D400009F41DCF86E0ECCE8D5092408F35914056
:100D500048F68091340590913505A0913605B09103
:100D60003705880F991FAA1FBB1F809334059093E6
:100D70003505A0933605B0933705809133058E5F16
:100D8000D6CF40913405509135056091360570916C
:100D9000370590913205852F829586958770911140
:100DA00004C08370809332059DCF209132058370FB
:100DB00030E08217130609F095CF809134059091A9
:100DC0003505A0913605B091370590934008809382
:100DD0003F080E9442056093A2057093A30580938B
:100DE000A4059093A50582E08093A605E0914208B2
:100DF000F0914308309709F475CF81E0099572CFDF
:100E000080E0A1CE81E09FCE0895DC01ED91FC91C0
:100E10000190F081E02D099485ED8093BC008091D4
:100E2000BC0084FDFCCF10925407089520915C050E
:100E3000260F3327331F21323105ECF4209154075C
:100E4000FC0190E080E0243069F082E00895A091F8
:100E50005C052191AC01445C5A4FA40FB52FB11D24
:100E60002C930196861798F380915C05680F609328
:100E70005C0580E0089581E008950895E0910D07F4
:100E800080910C07E81730F4F0E0E25FF84F8081C2
:100E900090E008958FEF9FEF089590910D07809156
:100EA0000C072FEF3FEF981748F4E92FF0E0E25FCF
:100EB000F84F208130E09F5F90930D07C90108959E
:100EC00080910C0790910D07891B990B0895CF9283
:100ED000DF92EF92FF920F931F93CF93DF937C01EA
:100EE000CB018A0120915507222389F0EB016B0188
:100EF000C40ED51ECC15DD0569F06991D701ED91C1
:100F0000FC910190F081E02DC7010995F3CF642F8A
:100F10000E941607C801DF91CF911F910F91FF909A
:100F2000EF90DF90CF900895CF93DF931F92CDB7CE
:100F3000DEB76983209155072223F9F020917807C5
:100F4000203258F021E030E0FC013383228390E02E
:100F500080E00F90DF91CF91089580915607E82FA0
:100F6000F0E0E95AF84F998190838F5F809356079C
:100F70008093780781E090E0ECCF61E0CE010196AC
:100F80000E941607F7CF81E00C941A01EF92FF92AE
:100F90000F931F93CF93DF93E62E072FF42E152F79
:100FA000C8E3D8E0A981BA81988121E02093550750
:100FB00090937707109256071092780794E0899FD4
:100FC000B00111246A5F7F4FED91FC911197019060
:100FD000F081E02DCD0109956E2D702F89819A81C8
:100FE0000E940507602F70E089819A810E940507A1
:100FF0006F2D712F89819A810E940507612F70E002
:1010000089819A810E94050789819A81DF91CF9118
:101010001F910F91FF90EF900C94C3071F93CF93F4
:10102000DF93162FC8E3D8E0A981BA81988121E027
:1010300020935507909377071092560710927807E0
:10104000ED91FC9111970190F081E02D682FCD0179
:10105000099589819A81DC01ED91FC910190F081E3
:10106000E02D612F099589819A81DF91CF911F91A0
:101070000C94C30790E080E00895EF92FF920F93E5
:101080001F93CF93DF937C01D0E0C0E00BE316E029
:10109000CE15DF0584F461E088E00E941A03C801E0
:1010A0000197F1F760E088E00E941A03C8010197F8
:1010B000F1F72196EDCFDF91CF911F910F91FF9026
:1010C000EF900895CF92DF92EF92FF92CF936B0152
:1010D0007C01C0E08C2F90E02091240830912508FD
:1010E0008217930770F4B701A6010E94B0000E9416
:1010F0003C046AE070E080E090E00E940F05CF5F62
:10110000E9CFCF91FF90EF90DF90CF90089590932B
:10111000C1058093C00586E0809306060E944205C3
:101120006093FE057093FF0580930006909301067F
:1011300081E08093C3050895CF93C0E050E040E084
:1011400070E060E08C2F0E94C607CF5FC830B1F717
:101150001092060610928C05CF910895FF920F937E
:101160001F93CF93DF93F62E8A01C82FD0E00E9401
:101170004205FE01EE0FFF1FEE0FFF1FE453FA4F73
:101180006083718382839383FE01EE0FFF1FE4511E
:10119000FA4F11830083FE01EC53FA4FDE01A65D86
:1011A000BA4F8C918083CF5FDE4FF882DF91CF9171
:1011B0001F910F91FF900895EF92FF920F931F934D
:1011C000CF93DF937B01D42F8C01C0E0F8016191B4
:1011D0008F016F3739F0062E000C770BA7018C2F8B
:1011E0000E94AE08CF5FC83089F7D09306060E94F0
:1011F00042056093FE057093FF058093000690936F
:101200000106DF91CF911F910F91FF90EF9008950C
:1012100090930A018093090128E0E5E4F1E0A8EB4E
:10122000B5E001900D922A95E1F720918C052617E3
:1012300009F473C060938C05613108F06EC0E62F2D
:10124000F0E0EB5DF64F0C94311F36094709570962
:1012500054094B0951094E095F09640969096E096E
:10126000730978097D0987098A095A098091060658
:101270009CEF980F923008F450C0882309F44DC0B9
:1012800044E068EC70E08DE491E00C94DC0885EEBD
:1012900091E00C9487088DED91E0FBCF85ED91E016
:1012A000F8CF8DEC91E0F5CF85EC91E0F2CF8DEBAE
:1012B00091E0EFCF41E0BC0185EB91E0E6CF41E06A
:1012C000BC018DEA91E0E1CF41E0BC0185EA91E00B
:1012D000DCCF41E0BC018DE991E0D7CF41E0BC011A
:1012E00085E991E0D2CF41E0BC018DE891E0CDCF1E
:1012F00041E0BC0185E891E0C8CF25E731E03093BB
:10130000FD052093FC0542E0BC01C901BECF25E6E6
:1013100031E0F5CF25E531E0F2CF08950F931F932B
:10132000CF93DF93C82FD0E0FE01E65DFA4F6083D4
:101330008C3008F063C0FE01E35CFE4F8081082E14
:10134000000C990B861797075CF0FE01EB5CFE4FD3
:101350008081082E000C990B861797070CF4CB019F
:10136000FE01EC57FA4F2081820F911D27FD9A95BF
:10137000FE01E35DFE4F4081BC0146039001479FA3
:10138000300D1124FE01EB5DFE4F8081280F311DD1
:1013900087FD3A952B3F7FEF370714F42BEF3FEF94
:1013A0008E01102F0027110F2A3B310514F029EB75
:1013B00030E0032E000C440B550B2B5F3F4F4F4F7B
:1013C0005F4FA7ECB1E00E943E1F2EEB30E040E003
:1013D00050E00E94121FC801865A9F4FAC01420F75
:1013E000531F5F70B80166277E70C75EDE4F88812D
:1013F000DF91CF911F910F910C94C607DF91CF9190
:101400001F910F910895CF93DF93C82FD62F0E947D
:101410008E09EC2FF0E0EF5FFE4FD08381E08093E8
:1014200006060E9442056093FE057093FF058093B7
:10143000000690930106DF91CF910895E8E0F6E071
:101440002FEF208325E5218323E0228322E02383DD
:101450008483958346E050E0BF0189E797E00C94D0
:10146000BB01E8E0F6E09FEF908395E5918392E081
:10147000928391E09383848345E050E0BF0189E744
:1014800097E00C94BB01E8E0F6E08FEF808385E500
:101490008183128243E050E0BF0189E797E00C941A
:1014A000BB01E82FF0E0E955FA4FE081EC5FF0E096
:1014B000E85FF94F9181808108958F929F92AF925A
:1014C000BF92CF92DF92EF92FF92CF936B017C019C
:1014D00020E030E040E85FE30E94261D87FDA8C0C1
:1014E00020E030EC4AE555E4C701B6010E947E1EBB
:1014F00018163CF4C12C30ECD32E3AE5E32E35E43B
:10150000F32E60913B0870913C0880913D089091CA
:101510003E080E94CC1D4B015C0120E030E040E819
:1015200055E4C701B6010E94831E9B01AC01C501B1
:10153000B4010E942B1D20E030E040E05FE30E94F8
:10154000BA1C20E030E040E85FE30E94B91C6B0168
:101550007C0120E030E040E450E40E94261D87FD3D
:101560006EC020E030E04FE753E4C701B6010E94AF
:101570007E1E181634F4C12CD12C9FE7E92E93E47B
:10158000F92E8091390890913A082091380831E07D
:1015900030935507209377071092560710927807DB
:1015A000DC01ED91FC910190F081E02D60E0099566
:1015B0008091390890913A080E94C30761E08091B8
:1015C00038080E94770110920D0780930C078091D4
:1015D000390890913A08DC01ED91FC910284F38581
:1015E000E02D0995C82F682F6F76606180E00E941A
:1015F0000E08C701B6010E949D1D8EEF0E940E08C5
:101600006C2F80E00E940E0865E070E080E090E0C2
:101610000E940F056C2F606A80E0CF91FF90EF90E1
:10162000DF90CF90BF90AF909F908F900C940E085A
:10163000C12CD12C20E8E22E2FE3F22E62CFC12C58
:10164000D12C80E4E82EFE2C9CCFCF93DF93FC01BD
:1016500001900020E9F73197AF01481B590BBC01FD
:1016600089E797E00E94BB01EC0142E050E067E2AD
:1016700075E089E797E00E94BB018C0F9D1FDF9109
:10168000CF9108951F93CF93DF93182FC82FD0E0E9
:10169000AE0168E076E08DE096E00E948520E8E00B
:1016A000F6E08FEF808385E5818382E0810F82837E
:1016B00087E083831483AE014B5F5F4FBF0189E7EF
:1016C00097E0DF91CF911F910C94BB01EF92FF92B5
:1016D0000F931F93CF93DF93EB01613208F060E229
:1016E0000E94770110920D0780930C078C171D063E
:1016F0008CF008E016E0CE01885F994F7C010E1552
:101700001F0581F086E198E00E944D07F801819362
:101710008F01F5CFDF91CF911F910F91FF90EF9047
:101720000C94430A8C2FDF91CF911F910F91FF9062
:10173000EF900C94420BEF92FF920F931F93CF9375
:10174000DF93893048F090E080E0DF91CF911F91E6
:101750000F91FF90EF900895623009F445C0C82FB3
:10176000633018F5E82FF0E0662309F446C06130D5
:1017700009F44CC00C2F10E0C8018C579A4F7C0123
:10178000DC01DC91C8010E94A31CD81721F06D2F49
:10179000C8010E94AB1C70E060E08C2F0E94030A1D
:1017A00081E180938C05F70123C06330B9F1643087
:1017B00009F7E4E8F5E088E0DF011D928A95E9F792
:1017C0008F01D0E0C0E0F801F1908F01CE010E94BE
:1017D000A31CF81621F06F2DCE010E94AB1C2196A0
:1017E000C830D10581F7AFCFE82FF0E0EC57FA4FC2
:1017F0008081082E000C990BA8CFEC57FA4F8081FE
:101800008F3709F4B7CF8F5F8083B4CFEC57FA4F8F
:101810008081803809F4AECF8150F6CFE82FF0E018
:10182000EC57FA4F1082A6CF1F920F920FB60F926D
:1018300011242F933F934F935F936F937F938F93D5
:101840009F93AF93BF93EF93FF93809192059091F5
:101850009305A0919405B0919505892B8A2B8B2B2C
:10186000D1F190918D05E0918E05F0918F058081E9
:10187000892780838091920590919305A09194058A
:10188000B0919505181619061A061B069CF480914E
:10189000920590919305A0919405B09195050197BB
:1018A000A109B1098093920590939305A0939405A3
:1018B000B0939505FF91EF91BF91AF919F918F915B
:1018C0007F916F915F914F913F912F910F900FBE3C
:1018D0000F901F90189580910001E0E9F0E0E491ED
:1018E0009FEF90930001E13051F030F0E23069F069
:1018F00060E00E941A03DECF10926E00F9CF909143
:101900006F009D7F90936F00F3CF909170009D7F4B
:101910009093700091E09093B0009091B100987F07
:1019200094609093B1001092B300E2CF1F920F9297
:101930000FB60F9211242F933F934F935F936F93A2
:101940007F938F939F93AF93BF93EF93FF9389E719
:1019500097E00E943902FF91EF91BF91AF919F9163
:101960008F917F916F915F914F913F912F910F9048
:101970000FBE0F901F9018951F920F920FB60F92E7
:1019800011242F938F939F93EF93FF93E0918907F7
:10199000F0918A078081E0918F07F091900782FD96
:1019A0001BC09081809192078F5F8F732091930766
:1019B000821741F0E0919207F0E0E758F84F958FD9
:1019C00080939207FF91EF919F918F912F910F90AC
:1019D0000FBE0F901F9018958081F4CF1F920F9229
:1019E0000FB60F9211242F933F938F939F93AF9332
:1019F000BF938091020690910306A0910406B091D6
:101A0000050630917F0523E0230F2D3758F5019609
:101A1000A11DB11D20937F058093020690930306BC
:101A2000A0930406B09305068091800590918105EE
:101A3000A0918205B09183050196A11DB11D8093EF
:101A4000800590938105A0938205B0938305BF9193
:101A5000AF919F918F913F912F910F900FBE0F905B
:101A60001F90189526E8230F0296A11DB11DD2CF15
:101A70001F920F920FB60F9211242F933F934F9303
:101A80005F936F937F938F939F93AF93BF93EF93E6
:101A9000FF93E0910F01F09110010995FF91EF91F3
:101AA000BF91AF919F918F917F916F915F914F9176
:101AB0003F912F910F900FBE0F901F9018951F927E
:101AC0000F920FB60F9211242F933F934F935F9372
:101AD0006F937F938F939F93AF93BF93EF93FF93F6
:101AE000E0910D01F0910E010995FF91EF91BF91E9
:101AF000AF919F918F917F916F915F914F913F91A6
:101B00002F910F900FBE0F901F9018951F920F925C
:101B10000FB60F9211242F933F934F935F936F93C0
:101B20007F938F939F93AF93BF93EF93FF93809196
:101B3000B900887F803609F44AC0F0F5883209F48C
:101B4000A7C018F5803109F49BC0B8F4882309F4C4
:101B5000F9C0883009F494C0FF91EF91BF91AF9123
:101B60009F918F917F916F915F914F913F912F91B5
:101B70000F900FBE0F901F901895883109F488C000
:101B8000803251F78093520714C0803409F49DC00D
:101B900040F48033B9F38833F9F68093520785EC2B
:101BA000B0C0803509F485C0883509F496C0883402
:101BB00099F60E940C07D0CF883909F48CC038F50B
:101BC000883729F050F4883611F0803729F683E001
:101BD0008093540710927E0557C0883809F47BC063
:101BE000803919F0803809F0B7CF80917E058032B6
:101BF00008F071C0E0917E0581E08E0F80937E0534
:101C00008091BB00F0E0E25AFA4F80833DC0803BF8
:101C100039F0E0F4803A09F479C0883A09F09CCFB1
:101C200084E08093540710925D0510925C05E0916A
:101C30000A07F0910B07099580915C0581110FC08F
:101C400081E080935C0510923C0509C0803C09F45A
:101C5000A6CF883C09F4A3CF883B09F07DCFE09163
:101C60005D0581E08E0F80935D05F0E0E45CFA4F46
:101C700080818093BB0090915D0580915C0529C0B7
:101C800080912F078093BB0085EC8093BC0064CFCC
:101C90009091510780915007981758F5E09151079E
:101CA00081E08E0F80935107F0E0E05DF84F808176
:101CB000E9CFE091510781E08E0F80935107809129
:101CC000BB00F0E0E05DF84F808390915107809178
:101CD00050079817C8F285E8D8CFE091510781E006
:101CE0008E0F809351078091BB00F0E0E05DF84FCC
:101CF00080838091530781115CCF81E080932E0710
:101D000084EA8093BC001092540726CF85EC809320
:101D1000BC001092540780917E05803230F4E0912F
:101D20007E05F0E0E25AFA4F108260917E0570E085
:101D3000E0910807F09109078EE595E0099510926A
:101D40007E050ACF1092520734CFCF92DF92EF92E6
:101D5000FF920F931F93E82FF92F05C0015011092F
:101D60002109310961F1908196239417B9F305C0D7
:101D7000015011092109310911F190819623941321
:101D8000F7CFC12CD12CE12CF12C0AC08FEFC81A4F
:101D9000D80AE80AF80A0C151D052E053F0579F04A
:101DA00080818623841791F36C2D7D2D8E2D9F2DA0
:101DB0001F910F91FF90EF90DF90CF90089560E01A
:101DC00070E080E090E01F910F91FF90EF90DF9026
:101DD000CF90089510927C0710927B0788EE93E0D5
:101DE000A0E0B0E080937D0790937E07A0937F07EB
:101DF000B09380072DEC34E030937A072093790775
:101E000025EC30E0309386072093850724EC30E002
:101E1000309388072093870720EC30E030938A07BF
:101E20002093890721EC30E030938C0720938B07B7
:101E300022EC30E030938E0720938D0726EC30E0C3
:101E40003093900720938F07109292071092930778
:101E50001092940710929507109219081092180882
:101E600080931A0890931B08A0931C08B0931D0838
:101E70008FED94E0909317088093160880E4809388
:101E8000380886E198E090933A08809339081092D8
:101E9000230810922A0810923108109232081092EA
:101EA00033081092340881E08093300880932D0825
:101EB00010922E0892E090932F088093220888E1D8
:101EC00090E090932708809326080E94601F9093CB
:101ED0002C0880932B08009709F455C028E1FC01D9
:101EE00011922A95E9F788E090E090932508809375
:101EF000240880E190E0909329088093280880913D
:101F00002308882341F061E080E10E947E0360E0C5
:101F100080E10E941A03EFEBF0E0E491F0E0EE0FB5
:101F2000FF1FEB55FF4F8591949190933608809356
:101F30003508E1EAF0E0E491E093370882E080932D
:101F40004C088093440888E493E09093430880937E
:101F5000420860E082E00E947E0362E070E080E080
:101F60000E948E00109241081092400810923F0883
:101F700080914C08811110C08EE690E09093120180
:101F8000809311010895109227081092260810924C
:101F9000250810922408ADCF8CE291E0EFCFCF93CB
:101FA000DF9300D000D01F92CDB7DEB7789484B510
:101FB000826084BD84B5816084BD85B5826085BD45
:101FC00085B5816085BD80916E00816080936E00D3
:101FD00010928100809181008260809381008091C5
:101FE0008100816080938100809180008160809376
:101FF00080008091B10084608093B1008091B00036
:1020000081608093B00080917A00846080937A0030
:1020100080917A00826080937A0080917A0081605A
:1020200080937A0080917A00806880937A00109281
:10203000C10014BE0FB6F894A89580916000886125
:1020400080936000109260000FBEE0918907F091CC
:102050008A0782E08083E0918507F09186071082ED
:10206000E0918707F091880780E1808310929107C3
:10207000E0918D07F0918E0786E08083E0918B07D9
:10208000F0918C07808180618083E0918B07F091D3
:102090008C07808188608083E0918B07F0918C07AA
:1020A000808180688083E0918B07F0918C0780812C
:1020B0008F7D808361E08DE00E947E0360E08DE093
:1020C0000E941A0364E670E080E090E00E940F0531
:1020D00061E081E10E947E0361E081E10E941A03D8
:1020E00062E08EE00E947E0361E08FE00E947E034A
:1020F00061E088E00E947E0362E083E00E947E034C
:1021000062E084E00E947E0362E085E00E947E033C
:1021100062E086E00E947E03809128089091290861
:1021200097FD08C061E00E947E0360E0809128086E
:102130000E941A0381E0809323080E943C0404E873
:1021400015E068011A821982FF24F39489819A812B
:102150000E94A31CD6018D936D018F3F09F0F12CD5
:10216000E981FA813196FA83E983389779F7F1109A
:10217000B2C00E944C0360E880E00E940E086AE052
:1021800070E080E090E00E940F0560E070E08AE778
:1021900094E40E945D0A80E498E7ADE7B1E08093A3
:1021A0003B0890933C08A0933D08B0933E0860E044
:1021B00070E088E492E40E945D0A60E081E10E94A0
:1021C0001A03198270E060E089810E948E0968E23A
:1021D00070E080E090E00E940F0509810F5F0983A5
:1021E000083081F764E670E080E090E00E940F051F
:1021F0000E949C0860E870E0CB010E94620884E6BF
:1022000090E00E943D0888EF94E00E94250B89E74A
:1022100097E00E9419021816190614F00C948D19F3
:1022200089E797E00E94F70197FF02C00C948D198F
:10223000E091070621E02E0F20930706F0E0E85F0B
:10224000F94F8083223009F46BC0233009F46DC04C
:10225000213059F424E030E030930C0120930B013D
:102260008F3F9105A1F21092070640910B0150910A
:102270000C01809107068417150648F280910B0621
:102280008A3108F058C030E1839FF0011124EF5DDE
:10229000FC4F27EA35E090E1D9011D929A95E9F7C4
:1022A000309709F055C1853109F42FC308F0ADC04E
:1022B000873009F4FDC108F068C0833009F4BFC15C
:1022C00008F05AC0813009F496C1823009F49FC1E8
:1022D0000E94430A7AC38DEE94E00E94250BE4E845
:1022E000F5E088E0DF011D928A95E9F71A821982EC
:1022F000F801F1908F0189819A810E94A31CF81640
:1023000029F06F2D89819A810E94AB1C29813A8125
:102310002F5F3F4F3A8329832830310549F729CF72
:102320008535910509F09FCFA0CF039690930C01BE
:1023300080930B019ACF9FE7980F9D3060F4A82FF0
:10234000A158BB0BFD0134E0EE0FFF1F3A95E1F7FA
:10235000EF5AFD4F9ECFF0E0E0E08B3F08F499CFBD
:10236000082F0B5F110BF80124E0EE0FFF1F2A95D9
:10237000E1F7EF5FFD4F8DCF853009F486C108F49A
:1023800071C160E088EC90E03FC18A3009F4D6C1A9
:10239000D8F4883009F49FC1893009F099CFE091D1
:1023A000A705F0E0E85FF94FE481E73008F090CF4F
:1023B000F0E0E352FE4E0C94311F7B138113861321
:1023C0008B139013951399138C3009F431C208F4D0
:1023D00029C28D3009F07CCFE091A705F0E0E85FDD
:1023E000F94FE4818FEF8E0F21E0843050F4F0E05C
:1023F000E450FE4F80810E94F10221E0892B09F018
:1024000020E0822F0E94310AE0C2863809F4E3C23C
:10241000A8F5823809F487C248F4803809F4E4C585
:10242000813809F055CF0E944C0352CF843809F40B
:10243000CFC208F49AC2198210E000E031E0309374
:102440005507898180937707109256071092780775
:1024500086E198E00E94C307811107C0F801E85F98
:10246000F94F998190830F5F1F4FA981AF5FA983B7
:10247000AF3721F7802F0E94420BA7C28A3809F498
:102480004EC558F50091A7050983883809F4DDC2C7
:1024900008F4C7C282E00E94510A1C0181E00E9438
:1024A000510A8C01B981AB2FB0E0A85FB94F1496E7
:1024B0008C912101032C000C660877089091000193
:1024C000981316C3E0E9F0E024912D8327FF46C35B
:1024D000C301B2010E940F05FBCE8E3F09F470C507
:1024E00008F077C58D3809F0F3CEF091A9050F2FCC
:1024F00010E0F801E45FF94FC080D12CE091A8050D
:10250000F0E0E85FF94FB48080E00E94510A7C015E
:10251000035F194F1A830983C80129813A81821BFD
:10252000930B8C159D050CF021C5D80112968C914A
:10253000129711966C911197782FF4E07595679525
:10254000FA95E1F78C910E94BA030D5F1F4FE4CF1B
:1025500097EAE92E95E0F92EBF01605F7F4F30E0EA
:1025600020E09191992309F49ECED7012D937D010E
:102570006F01B1E0CB1AD108D6019C919C34E9F0EF
:102580009CF49434E9F09634C1F0923411F42F5F46
:102590003F4F89010C5F1F4F4017510708F415C2C8
:1025A000E617F707F1F67FCE9236D1F0933759F060
:1025B000933579F72E5F3F4FECCF2C5F3F4FE9CF3C
:1025C000285F3F4FE6CF8901045F194F6801D801AA
:1025D0000D900020E9F72C193D092A0F3B1FD9CF98
:1025E0008901085F194FD80114969C912F5F3F4FC6
:1025F000290F311DCECF81E00E94510AE091A7053D
:10260000F0E0E85FF94F64810E94080961CE81E043
:102610000E94510A898380E00E94510A682F880F26
:10262000770B80E00E94030A0981602F000F770B6F
:1026300081E00E94030A81E180938C0549CE81E00C
:102640000E94510A898380E00E94510A682F880FF6
:10265000770B84E00E94030A1981612F110F770B19
:1026600085E0E7CF81E00E94510A898380E00E94E3
:10267000510A682F880F770B82E00E94030A0981B4
:10268000602F000F770B83E0D4CF81E00E94510AC6
:10269000898380E00E94510A682F880F770B86E0BB
:1026A0000E94030A1981612F110F770B87E0C1CFB8
:1026B000E091A805F0E0E85FF94FA091A705B0E030
:1026C000A85FB94F14968C916481880F0E949B0B70
:1026D0000E941E0A7AC1E091A805F0E0E85FF94F78
:1026E000A091A705B0E0A85FB94F14968C91880F10
:1026F00064818F5FEBCF60E070E0CB010E946208E5
:10270000E7CD60E070E08FEF90E0F8CF60E07FEF22
:1027100080E090E0F3CF6FEF70E080E090E0EECFEC
:1027200060E070E880E890E0E9CF60E870E0CB011D
:10273000E5CF60E870E880E090E0E0CFE091A705A9
:10274000F0E0E85FF94F24801D8210E0F12CE12CCD
:10275000312C512C412C00E01982D12CC12CBE2CE3
:10276000B094AA24AA94A10EBEEF9B2E910E8D8048
:1027700083947D80739473948DEF682E610E8091A5
:10278000240890912508C816D906C8F58B2D800F0E
:102790008535B8F44981470D50E070E060E0BA013A
:1027A00055274427862D2981821B482BC6010E946C
:1027B000B000AFEFCA1ADA0AB981BD5FB983015020
:1027C000DECF8A3A68F4492D3981431B50E070E02E
:1027D00060E0762F652F542F4427832F880DE5CF97
:1027E00049818D81480F50E070E060E0762F652FC1
:1027F000542F44278A2D9981891B682BD7CF0E949B
:102800003C04C201B1010E940F05EFEFEE1AFE0A6F
:1028100013500D810D5F0D83E11421E0F20609F0E4
:102820009ACF56CD80E00E94510A0E943D0850CDBB
:102830008EE00E94F10260E0019709F45DC08FE034
:102840000E941A0383E090E00197F1F761E08FE0C6
:102850000E941A0383E290E00197F1F760E08FE0B5
:102860000E941A03EFE9F0E06491EDEBF0E0E491EF
:10287000F0E0EE0FFF1FEA57FF4F8591949100E4BF
:1028800012E42FE030E0462F0E94A50E611571057D
:102890008105910529F06F5F7F4F8F4F9F4F9F708C
:1028A0000E94CC1D6B017C0120E030E0A9010E9458
:1028B0007E1E18162CF526E933E44BE85CE3C701CD
:1028C000B6010E94831E2FEF2093080625E5209372
:1028D000090625E020930A0624E020930B06609366
:1028E0000C0670930D0680930E0690930F0648E039
:1028F00050E068E076E068C370E088EC92E4E3CFF3
:1029000060E070E080E090E0DECF61E08DE00E946A
:102910007E03E091A705F0E0E85FF94F64818DE068
:102920000E941A03D5CCE091A705F0E0E85FF94FCB
:10293000848191E090935507809377071092560712
:10294000109278076091A80570E0FB01E45FF94FF1
:10295000408150E0635F794F86E198E00E9467070D
:1029600086E198E00E94C3074DCDE091A705F0E015
:10297000E85FF94F848191E0909355078093770742
:1029800010925607109278076091A80570E0FB013D
:10299000E45FF94F408150E0635F794F86E198E052
:1029A0000E94670780E00E941A01E091A905F0E00B
:1029B000E85FF94F648170E0E091A705F0E0E85F1F
:1029C000F94F848190E00E94660B109207061FCC9D
:1029D000E091A805ECCFB091A705EB2FF0E0FA83CA
:1029E000E983E45FF94FE080F12C09811A81035FEC
:1029F000194F1A830983C80129813A81821B930BDD
:102A00008E159F050CF064CC61E0D8018C910E947A
:102A10007E03F801618180810E941A030E5F1F4FBF
:102A2000EACF1981012F10E0085F194F60E0D8014B
:102A300014968C910E947E03E091A705F0E0E85F78
:102A4000F94F84810E94F102DDCC81E00E94510A9D
:102A50008C01F981EF2FF0E0E85FF94F24812983A1
:102A600060E0822F0E947E030115110511F401E040
:102A700010E089818E5039813E3008F08983898148
:102A80008770E82FE06460E070E0CB0130E020E088
:102A9000E0937C0040917A00406440937A0040913A
:102AA0007A0046FDFCCF5091780040917900D42EF9
:102AB000C52E0D2C000CEE08FF086C0D7D1D8E1D23
:102AC0009F1D2F5F3F4F2017310711F750E040E067
:102AD0000E94F01EA1E7B2E00E943E1FDC01CB0184
:102AE00067E0B695A795979587956A95D1F7F0CD4C
:102AF0009F3F09F0EDCC80930001E0E9F0E03491D4
:102B00003D833F3F09F4E4CC313009F4F2C050F08A
:102B1000323009F410C12D8127FDDACC61E00E942A
:102B20007E0322C014BC15BC94B5926094BD95B5CB
:102B3000916095BD282F30E0F901E155FF4FE491F8
:102B4000F0E0EE0FFF1FEB55FF4F45915491F90157
:102B5000EF56FF4FE491E09391051D8261E00E94E2
:102B60007E038D818823A9F0B12CA12C60E072E155
:102B70008AE790E0A50198010E94121F69017A017D
:102B800091E0C91AD108E108F108AD81A23009F03D
:102B90006FC14801B12CA12C60E072E18AE790E09E
:102BA000A50198010E94121F29833A834B835C83FD
:102BB00069017A01B1E0CB1AD108E108F108EFEF21
:102BC000CE16D104E104F10409F00CF426C160E44E
:102BD00072E48FE090E0A50198010E94121F690144
:102BE0007A01F1E0CF1AD108E108F1082D812230F5
:102BF00009F0C7C082E03FEFC316D104E104F1043D
:102C000009F00CF46FC060E970ED83E090E0A5017D
:102C100098010E94121F69017A0181E0C81AD10847
:102C2000E108F10883E09FEFC916D104E104F10443
:102C300009F00CF457C068E478EE81E090E0A5015B
:102C400098010E94121F69017A0191E0C91AD10806
:102C5000E108F10884E0AFEFCA16D104E104F10401
:102C600009F00CF43FC064E274EF80E090E0A5014D
:102C700094010E94121F69017A01F1E0CF1AD10874
:102C8000E108F10885E0AFEFCA16D104E104F104D0
:102C900049F140F162E17AE780E090E0A50194011A
:102CA0000E94121F69017A0181E0C81AD108E10867
:102CB000F10886E09FEFC916D104E104F10491F018
:102CC00088F0C980DA80EB80FC809AE0F594E79484
:102CD000D794C7949A95D1F731E0C31AD108E10887
:102CE000F10887E09091B100987F892B8093B10023
:102CF0009CC0109280001092810090918100986099
:102D00009093810090918100916090938100282F91
:102D100030E0F901E155FF4FE491F0E0EE0FFF1FC5
:102D2000EB55FF4F45915491F901EF56FF4FE49158
:102D3000E093900513CF1092B0001092B1009091E3
:102D4000B00092609093B0009091B1009160909328
:102D5000B100282F30E0F901E155FF4FE491F0E098
:102D6000EE0FFF1FEB55FF4F4591549150938F0588
:102D700040938E05F901EF56FF4FE491E0938D05E6
:102D8000EDCEAFEFCA16D104E104F10409F00CF462
:102D90006DC068E478EE81E090E0A50198010E94A2
:102DA000121F69017A01B1E0CB1AD108E108F108DC
:102DB000ED8184E0E11167CF83E0FFEFCF16D1040E
:102DC000E104F10471F16CF162E17AE780E090E0F6
:102DD000A50194010E94121F69017A01B1E0CB1A8A
:102DE000D108E108F10884E0EFEFCE16D104E10448
:102DF000F104B9F0B0F0C980DA80EB80FC808AE0A1
:102E0000F594E794D794C7948A95D1F781E0C81ACE
:102E1000D108E108F10885E004C081E02D8121118D
:102E200061CF95B5987F892B85BD2FEF3FEFA90125
:102E3000411451046104710409F042C00D81013054
:102E400009F44BC0023009F45AC0011141CBC7BC90
:102E500020939A0530939B0540939C0550939D05C4
:102E600080916E00826080936E0032CB82E0D6CF7C
:102E700091E0C114D10431E0E306F10484F068E488
:102E800078EE81E090E0A50198010E94121F69018F
:102E90007A0181E0C81AD108E108F10893E0AD8118
:102EA000A13019F680918100887F892B8093810061
:102EB0002FEF3FEFA901411451046104710469F03F
:102EC0009801220F331FD1010E94371F28EE33E0F3
:102ED00040E050E00E94F01EB1CFD0928900C09235
:102EE000880020939605309397054093980550935A
:102EF000990580916F00826080936F00E9CAC0924B
:102F0000B30020939205309393054093940550931A
:102F1000950580917000826080937000D9CA1091ED
:102F2000A705212F30E0F901E45FF94FE080F12C93
:102F3000235F394F3A8329838901C801A981BA8166
:102F40008A1B9B0B8E159F050CF0C2C9F80162818C
:102F50008181762F682FA4E075956795AA95E1F792
:102F600080810E94BA030D5F1F4FE7CFE114F10487
:102F700009F4AEC9B701FF0C880B990B0E940F052D
:102F8000B1E090E080E0BB1202C083E391E07C01FD
:102F9000E4E0F694E794EA95E1F709811A81C80123
:102FA000E981FA818E1B9F0B8C159D050CF090C951
:102FB000B701D8018C910E94BA030D5F1F4FEFCF6C
:102FC00049E150E060E175E089E797E00E94BB01CC
:102FD000FCCC88E198E00FB6F894A8958093600047
:102FE0000FBE90936000FFCF9FEF9093080695E58A
:102FF0009093090696E090930A0680930B06F89446
:103000001091A6051092A605E0913F08F0914008A6
:10301000FA83E9838090A2059090A305A090A4056F
:10302000B090A505789481149104A104B10409F429
:1030300025C17CE2C72EDD24D394E12CF12C123083
:1030400031F0C0901101D0901201F12CE12C0E94BE
:103050004205681979098A099B09209149086C156C
:103060007D058E059F0508F0DEC021110EC0298167
:103070003A81232B51F0E0914208F09143083097B8
:1030800011F081E0099511E002C0112341F1109285
:103090004B0810924A08123009F07CC08981877071
:1030A000805A8093490889818695869586958051B6
:1030B000990B54E0880F991F5A95E1F790934608B1
:1030C000809345088A818F718051990B64E0880F45
:1030D000991F6A95E1F790934808809347085091AB
:1030E0004C0860914508709146082091470830913E
:1030F0004808552309F474C0123009F071C0FB016F
:1031000077FF04C0EE27FF27E61BF70BC90137FF47
:1031100004C088279927821B930B8E0F9F1F88322C
:1031200091050CF47BC0DB0177FD1196B595A79551
:1031300041E0A217B3070CF040E0F90137FD3196EA
:10314000F595E7956E177F070CF44E5FF90137FD93
:103150003196F595E795F195E195F1096E177F07A1
:103160000CF44C5FEE27FF27E21BF30BAE17BF07F3
:103170000CF4485FA42FB0E0A351BE4F4C91409394
:103180004A084337C9F090F4413709F445C0969591
:10319000879513C0398130934908109248081092DE
:1031A0004708109246081092450899CF443779F1A4
:1031B000463769F7CF0101C0CB018F3F910519F068
:1031C00010F08FEF90E080934B08809149085230C7
:1031D00039F4803629F480914A0881118093490896
:1031E0008091490880930C0690914508809146088B
:1031F00090930D0680930E069091470880914808A1
:1032000090930F068093100649E050E072CB882718
:103210009927861B970BD1CFC901CFCF10924A08AF
:1032200010924B08D2CF2223D9F210924B08109261
:103230004A081092480810924708109246081092C7
:103240004508109249081092A2051092A305109209
:10325000A4051092A505E0914208F091430830972B
:1032600011F080E009950E94420560939E057093DD
:103270009F058093A0059093A105B2CF0E944205BF
:1032800000919E0510919F052091A0053091A10508
:10329000DC01CB01801B910BA20BB30B09811A81BE
:1032A000012B79F0409111015091120170E060E022
:1032B000481759076A077B0720F4109240081092BC
:1032C0003F0857E0B695A795979587955A95D1F7FA
:1032D0000097A105B10509F483CF8F709927AA271C
:1032E000BB270097A105B10551F4E0914208F09188
:1032F000430881E0309709F473CF099571CF0197A6
:10330000A105B10509F06CCFE0914208F0914308A6
:10331000309709F465CF80E0F0CF809106068823CE
:1033200009F4A6C24091020650910306609104067A
:10333000709105060091FE051091FF052091000691
:1033400030910106401B510B620B730B6A017B012C
:10335000E894F7F8833009F4B3C208F064C0813010
:1033600009F471C2823009F495C24090020650906F
:10337000030660900406709005066CEEA62E65E0CC
:10338000B62E7CECC72E75E0D72E1A821982D50195
:103390002D913D915D0121153105A9F1F601808145
:1033A0009181B201681B790B2617370760F1E9811B
:1033B000FA81EC53FA4F0081E981FA81EF5FFE4F09
:1033C000E0800E2C000CFF08002E000C110BE01A00
:1033D000F10A072E000C880B990B982F872F762F58
:1033E000662750E040E00E94121FD7010E94491F4B
:1033F000672F782F892F992787FD9A95600F711F66
:1034000089810E948E0909811A810F5F1F4F1A83DB
:10341000098314E0C10ED11C09811A8108301105FD
:1034200009F0B5CF25C2853009F46EC208F45BC23D
:10343000863009F09ACFDA82C98200910901109191
:103440000A010E5C1F4F000F111F000F111F80910A
:10345000C305882309F41BC1960181E0203531059D
:1034600028F082E0283C310508F083E09091C20505
:103470009817C1F08093C205823009F48DC0833063
:1034800009F4B5C0813071F440E550E067EE7FEF9C
:1034900084E00E94AE0840E550E067EE7FEF82E0F6
:1034A0000E94AE0829813A812831314008F45DCF6D
:1034B0001092C3050E9442056093FE057093FF05BC
:1034C00080930006909301061092B7051A82198224
:1034D00081E09091B7059817C1F08093B7058230CD
:1034E00009F4E2C0833009F4F7C0813071F440E59B
:1034F00050E067EE7FEF80E00E94AE0840E550E0CC
:1035000067EE7FEF86E00E94AE089801369527951A
:10351000E981FA812E0F3F1FC901B0E0A0E020171A
:10352000310720F0801B910BA109B109803591056D
:1035300008F41FC1883C910508F01DC182E09091FC
:10354000C2059817C1F08093C205823009F415C1F5
:10355000833009F42AC1813071F440E550E067EE10
:103560007FEF84E00E94AE0840E550E067EE7FEF19
:1035700082E00E94AE0829813A812017310708F4C1
:10358000F4CE0E9442056093FE057093FF05809380
:10359000000690930106E9CEE090C005F090C105C9
:1035A000D70115968C9187FD8F5F8595F701618115
:1035B000062E000C770B680F711D87FD7A9548E782
:1035C00050E085E00E94AE08D70116968C9187FDE9
:1035D0008F5F8595F7016281062E000C770B680FCF
:1035E000711D87FD7A9548E750E083E059CF40E5AB
:1035F00050E06BEF7FEF84E00E94AE0840E550E0C2
:103600006BEF7FEF82E00E94AE087801F694E794BA
:10361000F0E5EF0EF11CC090C005D090C105D601B9
:1036200015964C912091BA053091BB054203B0012B
:10363000439F700D112477FF02C061507F4F672FA9
:10364000770F770BF6018181680F711D87FD7A95E1
:10365000A70185E00E94AE08D60116964C912091F4
:10366000BC053091BD054203B001439F700D11248C
:1036700077FF02C061507F4F672F770F770BF601FE
:103680008281680F711D87FD7A95A701AECFA98150
:10369000BA81A035B10508F41BCF82E0A83CB10582
:1036A00008F417CF83E015CFE090C005F090C10576
:1036B000F7016081062E000C770B48E750E081E0AF
:1036C0000E94AE08D70113966C91062E000C770B62
:1036D00048E750E087E017CF40E550E06BEF7FEF21
:1036E00080E00E94AE0840E550E06BEF7FEF86E09F
:1036F0000E94AE086801B8ECCB1AD108E090C00572
:10370000F090C105F70144812091B8053091B905C9
:103710004203B001439F700D112477FF02C0615036
:103720007F4F672F770F770BD7018C91680F711D33
:1037300087FD7A95A60181E00E94AE08F7014781D6
:103740002091BE053091BF054203B001439F700D2B
:10375000112477FF02C061507F4F672F770F770BDF
:10376000D70113968C91680F711D87FD7A95A6017C
:10377000B1CF81E0E4CE83E0E2CEE090C005F090EE
:10378000C105D70111966C91062E000C770B48E706
:1037900050E085E00E94AE08F7016281062E000C21
:1037A000770B48E750E083E0E4CE40E550E06BEF74
:1037B0007FEF84E00E94AE0840E550E06BEF7FEFC2
:1037C00082E00E94AE086801F8ECCF1AD108E090C0
:1037D000C005F090C105D70115964C912091BA050E
:1037E0003091BB054203B001439F700D112477FF58
:1037F00002C061507F4F672F770F770BF7018181F0
:10380000680F711D87FD7A95A60185E00E94AE08BC
:10381000D70116964C912091BC053091BD0542030D
:10382000B001439F700D112477FF02C061507F4F9C
:10383000672F770F770BF7018281680F711D87FD66
:103840007A95A601B0CF50FF23C061E08DE00E94C1
:103850001A0330E2C3163FEBD30632E0E306F1046D
:103860000CF483CD0E949C0860E08DE00E941A0356
:1038700080E090E0892B11F40C9407110E9425023E
:10388000882311F40C9407110E9400000C94071176
:1038900060E0DCCF6091090170910A01CB01B0E0DA
:1038A000A0E0C816D906EA06FB060CF45ECD8091AE
:1038B000FC059091FD0543E008960E94DC0855CD7B
:1038C0006091090170910A01CB01B0E0A0E0C81637
:1038D000D906EA06FB060CF448CD42E08091FC05CF
:1038E0009091FD05EACF6091090170910A01CB0129
:1038F000B0E0A0E0C816D906EA06FB060CF435CD08
:1039000045E081EC94E0D9CF8091090190910A01C2
:10391000B0E0A0E0C816D906EA06FB060CF425CDF7
:103920000E949C08A5CF80912B0890912C080E94A2
:10393000FC1F809128089091290897FD03C060E042
:103940000C947E030895F999FECF92BD81BDF89A3B
:10395000992780B50895262FF999FECF1FBA92BDF9
:1039600081BD20BD0FB6F894FA9AF99A0FBE019660
:1039700008955058BB27AA270E94D11C0C94441EBE
:103980000E94361E38F00E943D1E20F039F49F3F01
:1039900019F426F40C94331E0EF4E095E7FB0C9416
:1039A0002D1EE92F0E94551E58F3BA1762077307A0
:1039B0008407950720F079F4A6F50C94771E0EF491
:1039C000E0950B2EBA2FA02D0B01B90190010C012F
:1039D000CA01A0011124FF27591B99F0593F50F447
:1039E000503E68F11A16F040A22F232F342F44279F
:1039F000585FF3CF469537952795A795F040539597
:103A0000C9F77EF41F16BA0B620B730B840BBAF066
:103A10009150A1F0FF0FBB1F661F771F881FC2F7D1
:103A20000EC0BA0F621F731F841F48F487957795E5
:103A30006795B795F7959E3F08F0B0CF9395880F9F
:103A400008F09927EE0F9795879508950E94091E13
:103A500008F481E008950E943F1D0C94441E0E94CA
:103A60003D1E58F00E94361E40F029F45F3F29F0B9
:103A70000C942D1E51110C94781E0C94331E0E9430
:103A8000551E68F39923B1F3552391F3951B550BFC
:103A9000BB27AA2762177307840738F09F5F5F4F21
:103AA000220F331F441FAA1FA9F335D00E2E3AF060
:103AB000E0E832D091505040E695001CCAF72BD078
:103AC000FE2F29D0660F771F881FBB1F26173707C9
:103AD0004807AB07B0E809F0BB0B802DBF01FF27FB
:103AE00093585F4F3AF09E3F510578F00C942D1E8D
:103AF0000C94781E5F3FE4F3983ED4F38695779557
:103B00006795B795F7959F5FC9F7880F911D9695B3
:103B1000879597F90895E1E0660F771F881FBB1F0F
:103B2000621773078407BA0720F0621B730B840BBC
:103B3000BA0BEE1F88F7E09508950E945D1E88F08D
:103B40009F5798F0B92F9927B751B0F0E1F0660F61
:103B5000771F881F991F1AF0BA95C9F714C0B130A2
:103B600091F00E94771EB1E008950C94771E672FA4
:103B7000782F8827B85F39F0B93FCCF386957795D1
:103B80006795B395D9F73EF49095809570956195BA
:103B90007F4F8F4F9F4F0895E89409C097FB3EF4E5
:103BA00090958095709561957F4F8F4F9F4F99238A
:103BB000A9F0F92F96E9BB279395F6958795779508
:103BC0006795B795F111F8CFFAF4BB0F11F460FFC8
:103BD0001BC06F5F7F4F8F4F9F4F16C0882311F020
:103BE00096E911C0772321F09EE8872F762F05C034
:103BF000662371F096E8862F70E060E02AF09A95CF
:103C0000660F771F881FDAF7880F9695879597F9C3
:103C10000895990F0008550FAA0BE0E8FEEF16165D
:103C20001706E807F907C0F012161306E407F507B0
:103C300098F0621B730B840B950B39F40A2661F024
:103C4000232B242B252B21F408950A2609F4A140C7
:103C5000A6958FEF811D811D089597F99F6780E8D4
:103C600070E060E008959FEF80EC089500240A94CE
:103C70001616170618060906089500240A94121647
:103C80001306140605060895092E0394000C11F47A
:103C9000882352F0BB0F40F4BF2B11F460FF04C027
:103CA0006F5F7F4F8F4F9F4F089557FD9058440F80
:103CB000551F59F05F3F71F04795880F97FB991F8B
:103CC00061F09F3F79F08795089512161306140648
:103CD000551FF2CF4695F1DF08C0161617061806D5
:103CE000991FF1CF86957105610508940895E894B0
:103CF000BB2766277727CB0197F908950E94091EF5
:103D000008F48FEF08950E94961E0C94441E0E94A2
:103D1000361E38F00E943D1E20F0952311F00C94C1
:103D20002D1E0C94331E11240C94781E0E94551ED7
:103D300070F3959FC1F3950F50E0551F629FF001FE
:103D4000729FBB27F00DB11D639FAA27F00DB11D17
:103D5000AA1F649F6627B00DA11D661F829F2227A0
:103D6000B00DA11D621F739FB00DA11D621F839F27
:103D7000A00D611D221F749F3327A00D611D231FFD
:103D8000849F600D211D822F762F6A2F11249F574B
:103D900050409AF0F1F088234AF0EE0FFF1FBB1F4E
:103DA000661F771F881F91505040A9F79E3F51050D
:103DB00080F00C942D1E0C94781E5F3FE4F3983E27
:103DC000D4F3869577956795B795F795E7959F5FB7
:103DD000C1F7FE2B880F911D9695879597F9089549
:103DE000A1E21A2EAA1BBB1BFD010DC0AA1FBB1FFF
:103DF000EE1FFF1FA217B307E407F50720F0A21B71
:103E0000B30BE40BF50B661F771F881F991F1A94DD
:103E100069F760957095809590959B01AC01BD0107
:103E2000CF010895052E97FB1EF400940E94291FD0
:103E300057FD07D00E94F01E07FC03D04EF40C94EF
:103E4000291F50954095309521953F4F4F4F5F4F1B
:103E5000089590958095709561957F4F8F4F9F4FF6
:103E60000895EE0FFF1F0590F491E02D09940E9434
:103E7000511FB7FF0895821B930B08950E94511F95
:103E8000A59F900DB49F900DA49F800D911D1124AE
:103E90000895B7FF0C943E1F0E943E1F821B930B98
:103EA0000895A29FB001B39FC001A39F700D811D13
:103EB0001124911DB29F700D811D1124911D089533
:103EC0000F931F93CF93DF938230910510F482E01C
:103ED00090E0E0914F08F091500830E020E0B0E031
:103EE000A0E0309799F42115310509F44AC0281B48
:103EF000390B24303105D8F58A819B816115710514
:103F000089F1FB0193838283FE0111C040815181BD
:103F10000281138148175907E0F04817590799F4AF
:103F2000109761F012960C93129713961C93329689
:103F3000CF01DF91CF911F910F91089500934F080A
:103F400010935008F4CF2115310551F04217530753
:103F500038F0A901DB019A01BD01DF01F801C1CFF1
:103F6000EF01F9CF9093500880934F08CDCFFE0119
:103F7000E20FF31F819391932250310939832883F3
:103F8000D7CF20914D0830914E08232B41F420913A
:103F900015013091160130934E0820934D08209161
:103FA0001301309114012115310541F42DB73EB7AD
:103FB0004091170150911801241B350BE0914D08D9
:103FC000F0914E08E217F307A0F42E1B3F0B2817C1
:103FD000390778F0AC014E5F5F4F2417350748F082
:103FE0004E0F5F1F50934E0840934D08819391935D
:103FF0009FCFF0E0E0E09CCFCF93DF930097E9F014
:10400000FC01329713821282A0914F08B0915008A0
:10401000ED0130E020E01097A1F420813181820F82
:10402000931F20914D0830914E082817390709F049
:1040300061C0F0934E08E0934D08DF91CF91089551
:10404000EA01CE17DF07E8F54A815B819E01411541
:104050005105B1F7E901FB83EA8349915991C40FF6
:10406000D51FEC17FD0761F4808191810296840FC2
:10407000951FE90199838883828193819B838A8339
:10408000F0E0E0E012968D919C9113970097B9F5BE
:104090002D913C911197CD010296820F931F209193
:1040A0004D0830914E082817390739F6309751F5E9
:1040B0001092500810924F08B0934E08A0934D08EC
:1040C000BCCFD383C28340815181840F951FC81711
:1040D000D90761F44E5F5F4F88819981480F591F5E
:1040E000518340838A819B8193838283211531058B
:1040F00009F0B0CFF0935008E0934F089ECFFD0138
:10410000DC01C0CF13821282D7CF6817790768F419
:10411000FB01DC01E40FF51FA40FB51F02C00290E4
:104120000E9241505040D8F708950C949720FB010F
:10413000DC0102C001900D9241505040D8F7089523
:1041400010E0C3E6D0E004C0FE010E94311F2196BA
:0A415000C436D107C9F7F894FFCF79
:10415A00FFFFFFFFFFFFFFFFFFC800040004070483
:10416A00076E0000005108800001000504030207E1
:10417A000608090A0B4F5A4D5E5E5E5E5E01FF013C
:10418A00FFFF01FF01DDC9DDA6DDC9DDA6643C64D0
:10419A002D643C642D00010001000100017F7F00B5
:1041AA000000007F7FFB7FFB7FFB7FFB7F3C7F3C28
:1041BA007F3C7F3C7F3C7F3C7FFB7FFB7FFB7FFB21
:1041CA007F3C7F3C7FFB7FFB7FFB7FFB7FFB7F3C52
:1041DA007FFB7F3C7F3C7F3C7FFB7FFB7FFB7FFB42
:1041EA007F3C7F3C7F3C7FFB7F3C7FFB7FFB7F3CB0
:1041FA007FFB7F3C7F3C7F3C7F3C7F3C7FE77FE7C8
:10420A007FE77FE77F000000000000000019E71940
:10421A00E7CE32CE32E719E71932CE32CE00D300DA
:10422A002DD32D2DD3D3002D002DD3D32D373700E9
:10423A0000C9C9C9C90000C9C937373737737000FF
:10424A00710000007275000000760077740304059F
:10425A00060000000000000000000000000000004E
:10426A000000000000000000000000000000000044
:10427A00007373000000000000000000000000004E
:10428A000000000000000000000000000000000024
:10429A000000000000000000000000000000000014
:1042AA000042420000000000000000000000000080
:1042BA000042620000000000000000000000000050
:1042CA0000426242000000000000000000000000FE
:1042DA000042420000000000000000000000000050
:1042EA0000000000000000000000000000000000C4
:1042FA000062000000000000000000000000000052
:10430A000042000000000000000000000000000061
:10431A0000425300000000000000000000000000FE
:10432A00004253530000000000000000000000009B
:10433A000062000000000000000000000000000011
:10434A000000000000000000000000000000000063
:10435A0000424200000000000000000000000000CF
:10436A00005342620000000000000000000000004C
:10437A000000000000000000000000000000000033
:10438A00004253000000000000000000000000008E
:10439A00005353000000000000000000000000006D
:1043AA00005353000000000000000000000000005D
:1043BA00005353000000000000000000000000004D
:1043CA00005353000000000000000000000000003D
:1043DA0000000000000000000000000000000000D3
:1043EA00004242000000000000000000000000003F
:1043FA00004242000000000000000000000000002F
:10440A000042000000000000000000000000000060
:10441A000042000000000000000000000000000050
:10442A00005300000000000000000000000000002F
:10443A000000000000000000000000000000000072
:10444A000042000000000000000000000000000020
:10445A000000000000000000000000000000000052
:10446A000000000000000000000000000000000042
:10447A000000000000000000000000000000000032
:10448A000000000000000000000000000000000022
:10449A000000000000000000000000000000000012
:1044AA000000000000000000000000000000000002
:1044BA0000000000000000000000000000000000F2
:1044CA0000420000000000000000000000000000A0
:1044DA0000000000000000000000000000000000D2
:1044EA0000000000000000000000000000000000C2
:1044FA0000000000000000000000000000000000B2
:10450A0000000000000000000000000000000000A1
:10451A000000007F7F7F7F0000000000005B02BB7D
:10452A0001E801A8021902F7010B02000000009439
:10453A000767073A083D0760074D073E07696E6936
:10454A00742063616C6962005043206D6F64653A40
:10455A002051756164437261776C6572312E340043
:10456A005043206D6F64653A2051756164437261EE
:0A457A00776C6572312E340D0A00D3
:00000001FF
