:100000000C9463000C94130C0C94EC0B0C948B006C
:100010000C948B000C948B000C948B000C948B0034
:100020000C948B000C948B000C948B000C948B0024
:100030000C948B000C948B000C948B000C948B0014
:100040000C94A20B0C948B000C94700B0C944A0B28
:100050000C948B000C948B000C948B000C948B00F4
:100060000C943A0C0C948B00000000002400270034
:100070002A0000000008000201000003040700003D
:1000800000000000000000000000230026002900FE
:10009000010204081020408001020408102001021F
:1000A0000408102000000000250028002B00040494
:1000B0000404040404040202020202020303030310
:1000C00003039E0D281611241FBECFEFD8E0DEBF1C
:1000D000CDBF13E0A0E0B1E0E6E7F4E302C0059095
:1000E0000D92A63FB107D9F726E0A6EFB3E001C015
:1000F0001D92A23DB207E1F710E0C2E6D0E004C0D5
:100100002197FE010E94B818C136D107C9F70E9495
:10011000830E0C942E1A0C9400008230F8F4E82F11
:10012000F0E0EE0FFF1FE55FFE4F27EB34E0318379
:100130002083813041F0809169008C7F682B60932F
:100140006900E89A089580916900837F660F771FA0
:10015000660F771F682B60936900E99A08958F9264
:100160009F92AF92BF92CF92DF92EF92FF92CF9386
:100170004B01AA24BB24C82DC52ED62EE72EFF2462
:10018000BC2DA42F2091AB06222361F0829E40015A
:100190001124C92D2C9D60011124BD2D249FF00137
:1001A0001124AF2FE091B106E090AC06F090AD06BF
:1001B0003091AE06E31323C09C01220F331F820F40
:1001C000931F8E0D9F1DE091AE06E80FF92FF11DD4
:1001D000C083E091AF06E80FF92FF11DB0832091A5
:1001E000B006820F911DFC01A083CF91FF90EF908C
:1001F000DF90CF90BF90AF909F908F900895880F21
:10020000991F880F991F8E0D9F1D472F5527662711
:100210007727222349F030E0249F7001259FF00CBE
:10022000349FF00C11244F2DE80FF92FF11D40835E
:10023000CACF982F2091F90581E0213208F043C000
:100240008091D5058111FCCF8091F80532E0309383
:10025000D5059093D4059FEF9093D3051092D205C6
:100260002093D105A8EDB5E0E1EBF5E090E029138E
:1002700031C01092B0059091B005880F892B809302
:10028000B0058091AF05813049F51092AF0580919E
:10029000B0058093BB008091BC0083FDF8CF85EC56
:1002A0008093BC008091D5058230E1F38091D30525
:1002B0008F3FB1F08091D3058032A1F08091D305BA
:1002C000803391F084E01092D7051092F9051092D6
:1002D000D60508953D9131939F5FC9CF85EEE0CF5C
:1002E00080E0F1CF82E0EFCF83E0EDCF1F93CF939B
:1002F000DF93162FC9EBD6E0A981BA81988121E05E
:100300002093D6059093F8051092D7051092F90521
:10031000ED91FC9111970190F081E02D682FCD01B6
:10032000099589819A81DC01ED91FC910190F08120
:10033000E02D612F099581E0DF91CF911F910C9401
:10034000190108950895AF92BF92CF92DF92EF9274
:10035000FF920F931F93CF93DF936C017B018B016F
:10036000040F151FEB015E01AE18BF08C017D107BF
:1003700059F06991D601ED91FC910190F081E02D49
:10038000C6010995892B79F7C501DF91CF911F919E
:100390000F91FF90EF90DF90CF90BF90AF900895B6
:1003A000FC01538D448D252F30E0842F90E0821B7B
:1003B000930B541710F0CF96089501970895FC0100
:1003C000918D828D981761F0A28DAE0FBF2FB11D58
:1003D0005D968C91928D9F5F9F73928F90E00895B0
:1003E0008FEF9FEF0895FC01918D828D981731F06A
:1003F000828DE80FF11D858D90E008958FEF9FEFBE
:100400000895FC01918D228D892F90E0805C9F4F93
:10041000821B91098F73992708958AEF95E00E94B6
:10042000010221E0892B09F420E0822F089580E069
:1004300090E0892B29F00E940D0281110C9400009C
:100440000895FC01A48DA80FB92FB11DA35ABF4F69
:100450002C91848D90E001968F739927848FA689C3
:10046000B7892C93A089B1898C91837080648C9317
:10047000938D848D981306C00288F389E02D8081C6
:100480008F7D80830895EF92FF920F931F93CF93F8
:10049000DF93EC0181E0888F9B8D8C8D98131AC0BF
:1004A000E889F989808185FF15C09FB7F894EE89A6
:1004B000FF896083E889F989808183708064808303
:1004C0009FBF81E090E0DF91CF911F910F91FF904E
:1004D000EF900895F62E0B8D10E00F5F1F4F0F73F6
:1004E0001127E02E8C8D8E110CC00FB607FCFACFB1
:1004F000E889F989808185FFF5CFCE010E9421022C
:10050000F1CFEB8DEC0FFD2FF11DE35AFF4FF08281
:100510009FB7F8940B8FEA89FB8980818062CFCFE7
:10052000CF93DF93EC01888D8823B9F0AA89BB892A
:10053000E889F9898C9185FD03C0808186FD0DC015
:100540000FB607FCF7CF8C9185FFF2CF808185FF36
:10055000EDCFCE010E942102E9CFDF91CF91089526
:10056000833081F028F4813099F08230A9F0089529
:100570008730A9F08830C9F08430B1F480918000D0
:100580008F7D03C0809180008F77809380000895D5
:1005900084B58F7784BD089584B58F7DFBCF80911E
:1005A000B0008F778093B00008958091B0008F7D68
:1005B000F9CFCF93DF93282F30E0F901EE58FF4FAA
:1005C0008491F901E057FF4FD491F901E255FF4FB3
:1005D000C491CC23A1F081110E94B002EC2FF0E075
:1005E000EE0FFF1FEA57FF4FA591B491EC91ED2359
:1005F00081E090E009F480E0DF91CF91089580E000
:1006000090E0FACF1F93CF93DF93282F30E0F901CA
:10061000EE58FF4F8491F901E057FF4FD491F90153
:10062000E255FF4FC491CC23A9F0162F81110E94EF
:10063000B002EC2FF0E0EE0FFF1FEC55FF4FA5913D
:10064000B4918FB7F894EC91111108C0D095DE23C6
:10065000DC938FBFDF91CF911F910895DE2BF8CFF0
:10066000682F8DE00C940203CF93DF9390E0FC01A0
:10067000E057FF4F249182559F4FFC0184918823BE
:10068000C9F090E0880F991FFC01E859FF4FA59130
:10069000B491FC01EC55FF4FC591D49161110DC08F
:1006A0009FB7F8948C91209582238C93888128237E
:1006B00028839FBFDF91CF910895623051F49FB797
:1006C000F8943C91822F809583238C93E8812E2B84
:1006D000EFCF8FB7F894EC912E2B2C938FBFEACFEE
:1006E0003FB7F89480914D0490914E04A0914F042F
:1006F000B091500426B5A89B05C02F3F19F0019674
:10070000A11DB11D3FBFBA2FA92F982F8827BC016B
:10071000CD01620F711D811D911D42E0660F771F93
:10072000881F991F4A95D1F708950F931F93CF9370
:10073000DF93CDB7DEB729970FB6F894DEBF0FBEB3
:10074000CDBF8091AC069091AD06892B09F467C0AE
:100750000E9470030091B2061091B3062091B40676
:100760003091B506601B710B820B930B6C3271409C
:100770008105910568F3F8948091A7069091A806E9
:100780009A838983E091AC06F091AD06DF01119662
:10079000808189879091A306E091B606F091B70613
:1007A0008091B806992309F445C09081982B9887C9
:1007B0009081809589238F838F818C8388E08B83C0
:1007C00058856F8149853B812C8189819A8150832D
:1007D00047FD252F3A952083262F39F0441F00C06E
:1007E00000006083000000C0F2CF38E04D916083CC
:1007F0000000019761F7F093B706E093B6064987CA
:100800003B832C839A83898378940E94700360933E
:10081000B2067093B3068093B4069093B5062996FA
:100820000FB6F894DEBF0FBECDBFDF91CF911F9101
:100830000F9108959081982B9887908180958923B6
:100840008F838F818E8388E08D8358856F81498562
:100850003D812E8189819A81508347FD252F00C0DB
:1008600000C0208300C000C000C000C000C0608382
:100870000000262F3A9541F0441F000000C000C040
:1008800000C000C000C0E8CF38E04D9100C06083D8
:1008900000C0019709F7F093B706E093B6064987C1
:1008A0003D832E83AFCF8F929F92AF92BF92CF9214
:1008B000DF92EF92FF926B017C010E9470034B016B
:1008C0005C01C114D104E104F104B9F00E94700389
:1008D000681979098A099B09683E73408105910569
:1008E00080F321E0C21AD108E108F10888EE880EF1
:1008F00083E0981EA11CB11CE4CFFF90EF90DF9025
:10090000CF90BF90AF909F908F900895CF92DF923D
:10091000EF92FF92CF936B017C01C0E08C2F90E0AF
:100920002091A5063091A6068217930770F4B701AF
:10093000A6010E94AF000E9495036AE070E080E08B
:1009400090E00E945304CF5FE9CFCF91FF90EF90EA
:10095000DF90CF9008952FB7F8946091880470913C
:10096000890480918A0490918B042FBF08950F937E
:100970001F930E947003AB01BC018091050490910C
:100980000604A0910704B09108048A019B01081B8A
:10099000190B2A0B3B0BD901C8010097A140B105E7
:1009A00020F58091050490910604A0910704B09170
:1009B00008049A01281B390BC90140930504509380
:1009C00006046093070470930804E091C206E730C0
:1009D00090F4F0E0E251FB4F0C94B818F8042A05AB
:1009E000A105DE0510054F05DE058FEF9FEFE5CF72
:1009F00084E08093C2068091C20662E070E0843099
:100A000010F063E070E08091C506823009F461C1A6
:100A1000833009F460C18FEF1F910F910C948D000A
:100A20009C0127553A412339314110F481E0E1CF4F
:100A30008B5693408F35914008F0BDC01092010451
:100A40001092020410920304109204041092000405
:100A500083E0CFCF1092C2069C012B523D402B3C2D
:100A6000384060F4109201041092020410920304C2
:100A7000109204041092000485E0BBCF8559964083
:100A80008736944008F0B7CF0E94AB0460936104AE
:100A9000709362048093630490936404ACCF1092CB
:100AA000C206855A91408B31914008F0A4CF8091C5
:100AB0000004803210F482E09CCF80910104909178
:100AC0000204A0910304B0910404409101045091E8
:100AD00002046091030470910404892F9A2FAB2FB4
:100AE000BB2784279527A627B7279927BB278F3FA2
:100AF0009105AF4FB10509F07ECF8091010490912F
:100B00000204A0910304B09104048A2F90E0909312
:100B1000C1068093C0060E94AB0460936104709389
:100B20006204809363049093640481E0809365047D
:100B3000E091C306F091C406309709F45CCF0995A3
:100B40005ACF25E02093C20640910104509102043F
:100B500060910304709104047695679557954795C5
:100B600040930104509302046093030470930404BF
:100B7000209100042F5F209300049C01205F3440EB
:100B80002D34334090F48091010490910204A0919F
:100B90000304B0910404B0688093010490930204AC
:100BA000A0930304B093040426CF855A91408B315F
:100BB000914008F420CF1092C2061DCF9C012F5AFD
:100BC00031092F35314048F58091000480FD15C072
:100BD0008091010490910204A0910304B091040457
:100BE000880F991FAA1FBB1F8160809301049093F7
:100BF0000204A0930304B0930404809100048F5F67
:100C000080930004809100048E3120F58091C2060B
:100C1000863009F41DCF86E0ECCE8D5092408F35A2
:100C2000914048F68091010490910204A091030440
:100C3000B0910404880F991FAA1FBB1F8093010461
:100C400090930204A0930304B093040480910004E1
:100C50008E5FD6CF4091010450910204609103044D
:100C6000709104049091FF03852F8295869587707B
:100C7000911104C083708093FF039DCF2091FF03E7
:100C8000837030E08217130609F095CF809101043C
:100C900090910204A0910304B09104049093C106C2
:100CA0008093C0060E94AB04609361047093620459
:100CB000809363049093640482E080936504E091E0
:100CC000C306F091C406309709F475CF81E0099509
:100CD00072CF80E0A1CE81E09FCE089585ED809314
:100CE000BC008091BC0084FDFCCF1092D505089516
:100CF00020912904260F3327331F21323105ECF4CC
:100D00002091D505FC0190E080E0243069F082E07C
:100D10000895A09129042191AC01475F5B4FA40F76
:100D2000B52FB11D2C930196861798F38091290455
:100D3000680F6093290480E0089581E00895089584
:100D4000E0918E0580918D05E81730F4F0E0E157D1
:100D5000FA4F808190E008958FEF9FEF0895909172
:100D60008E0580918D052FEF3FEF981748F4E92FFE
:100D7000F0E0E157FA4F208130E09F5F90938E05BD
:100D8000C901089580918D0590918E05891B990B5D
:100D90000895CF92DF92EF92FF920F931F93CF931C
:100DA000DF937C01CB018A012091D605222389F0B3
:100DB000EB016B01C40ED51ECC15DD0569F0699100
:100DC000D701ED91FC910190F081E02DC7010995CB
:100DD000F3CF642F0E947806C801DF91CF911F9155
:100DE0000F91FF90EF90DF90CF900895CF93DF9316
:100DF0001F92CDB7DEB769832091D6052223F9F083
:100E00002091F905203258F021E030E0FC013383D5
:100E1000228390E080E00F90DF91CF910895809140
:100E2000D705E82FF0E0E852FA4F998190838F5F61
:100E30008093D7058093F90581E090E0ECCF61E0E5
:100E4000CE0101960E947806F7CF90E080E00895E9
:100E5000DC01ED91FC910190F081E02D09940F935C
:100E60001F93CF93DF938B01C9EBD6E0A981BA81A1
:100E7000988121E02093D6059093F8051092D7052C
:100E80001092F90594E0899FB00111246A5F7F4FA9
:100E9000ED91FC9111970190F081E02DCD01099524
:100EA00070E060E089819A810E94280770E060E02C
:100EB00089819A810E942807B80189819A810E94BC
:100EC0002807612F70E089819A810E94280781E0BC
:100ED000DF91CF911F910F910C941901CF93DF9364
:100EE000C82FD0E0FE01E952FE4F8081082E000C91
:100EF000990B861797075CF0FE01E153FE4F808146
:100F0000082E000C990B861797070CF4CB01FE01F5
:100F1000EB5AFB4F2081820F911D27FD9A95FE0110
:100F2000E953FE4F4081BC0146039001479F300DBD
:100F30001124FE01E154FE4F8081280F311D87FDF1
:100F40003A952B3F7FEF370714F42BEF3FEF2A3B07
:100F5000310514F029EB30E0032E000C440B550B47
:100F60002B5F3F4F4F4F5F4FA7ECB1E00E94C5187A
:100F70002EEB30E040E050E00E949918B901665A2B
:100F80007F4FC954DE4F8881DF91CF910C942F079A
:100F9000EF92FF920F931F93CF93DF937C01D0E0EA
:100FA000C0E00BE316E0CE15DF0584F461E088E0D5
:100FB0000E940203C8010197F1F760E088E00E94F7
:100FC0000203C8010197F1F72196EDCFDF91CF9190
:100FD0001F910F91FF90EF9008959093800480935C
:100FE0007F0482E080938304809188049091890437
:100FF000A0918A04B0918B0480938404909385041B
:10100000A0938604B093870481E0809376040895CA
:10101000DF92EF92FF920F931F93CF93DF9320E025
:10102000982F6091080170910901822F0E94851804
:101030007B01C0E0D1E006EF13E0D12CA991F801CB
:1010400041918F01A417B1F00A2E000CBB0B042EA6
:10105000000C550BA41BB50B97010E94BE18672FFF
:10106000782F892F992787FD9A95640F751F8D2DED
:101070000E946E07D394F8E0DF12E0CFDF91CF91AA
:101080001F910F91FF90EF90DF900895CF93DF9322
:10109000E0E0F1E0A6EFB3E0AC01485F5F4F2191E3
:1010A0002D93EC012991CE012F3719F0EF012197F3
:1010B00028838417950799F76093830480918804A7
:1010C00090918904A0918A04B0918B048093840448
:1010D00090938504A0938604B0938704DF91CF9109
:1010E0000895CF93C0E070E060E08C2F0E942F073E
:1010F000CF5FC830C1F7109283041092FE03CF91E6
:101100000895CF93DF93C82FD62F883010F40E9414
:101110006E07EC2FF0E0E050FF4FD083DF91CF91CE
:101120000895CF93DF93C42FD82FDD0F062E000C28
:10113000770B8D2F0E9481086C2FCC0F770B81E0ED
:101140008D0F0E94810881E0809383048091880440
:1011500090918904A0918A04B0918B0480938404B7
:1011600090938504A0938604B093870481E18093D3
:10117000FE03DF91CF9108950F931F93CF938C01BE
:10118000C0E0F80161918F016F3731F0062E000C3D
:10119000770B8C2F0E948108CF5FC83091F781E0D8
:1011A000809383048091880490918904A0918A049B
:1011B000B0918B048093840490938504A09386045B
:1011C000B0938704CF911F910F91089590930901D7
:1011D0008093080188E0E7E1F1E0A7E7B4E001903F
:1011E0000D928A95E1F78091FE03861709F45EC09F
:1011F0006093FE03613108F059C0E62FF0E0ED5F27
:10120000F64F0C94B81814091F092F092C0923094B
:1012100029092609360939093C093F0942094509C6
:101220004809500953093209809183048330F1F150
:101230008823E1F163E08FED91E00C9446088FEA9A
:1012400091E00C94ED0787EA91E0FBCF8FE991E004
:10125000F8CF87E991E0F5CF8FE891E0F2CF87E80A
:1012600091E0EFCF8FE791E00C94BC0887E791E025
:10127000FBCF8FE691E0F8CF87E691E0F5CF8FE5E1
:1012800091E0F2CF87E591E0EFCF8FE491E0ECCFF2
:101290008FE391E0909382048093810464E0CDCF4A
:1012A0008FE291E0F7CF8FE191E0F4CF0895ECE881
:1012B000F4E02FEF208325E5218323E0228322E041
:1012C00023838483958346E050E0BF018AEF95E055
:1012D0000C94A301ECE8F4E08FEF808385E5818333
:1012E000128243E050E0BF018AEF95E00C94A30125
:1012F000E82FF0E0EA59FB4FE081EC5FF0E0E457C3
:10130000FB4F9181808108958F929F92AF92BF92FF
:10131000CF92DF92EF92FF92CF936B017C0120E09E
:1013200030E040E85FE30E94BB1687FDE0C020E0AC
:1013300030EC4AE555E4C701B6010E9413181816AF
:101340003CF4C12C30ECD32E3AE5E32E35E4F32EF9
:101350006091BC067091BD068091BE069091BF065B
:101360000E9461174B015C0120E030E040E855E449
:10137000C701B6010E9418189B01AC01C501B40158
:101380000E94C01620E030E040E05FE30E944F166C
:1013900020E030E040E85FE30E944E166B017C01E4
:1013A00020E030E040E450E40E94BB1687FDA6C078
:1013B00020E030E04FE753E4C701B6010E94131864
:1013C000181634F4C12CD12C9FE7E92E93E4F92EA2
:1013D000C701B6010E943217F62E8091BA0690918D
:1013E000BB062091B90631E03093D6052093F8056D
:1013F0001092D7051092F905DC01ED91FC91019056
:10140000F081E02D60E0099581E00E941901809152
:10141000B9069091D5059111FCCF91E09093D50537
:101420009093D4052FEF2093D3051092D2051092FC
:10143000D1059093B0059091B005880F892B8093CA
:10144000B0058091AF05813009F05EC01092AF0504
:101450008091B0058093BB008091BC0083FDF8CFE4
:1014600085EC8093BC008091D5058130E1F38091BB
:10147000D20591E0811102C09091D205A1EBB5E0B7
:10148000EFE8F5E080E0891341C010928E0580936B
:101490008D058091BA069091BB06DC01ED91FC911F
:1014A0000284F385E02D0995C82F682F6F7660615F
:1014B00080E00E9476016F2D8EEF0E9476016C2FE6
:1014C00080E00E94760165E070E080E090E00E949C
:1014D00053046C2F606A80E0CF91FF90EF90DF9013
:1014E000CF90BF90AF909F908F900C947601C12CBD
:1014F000D12C20E8E22E2FE3F22E2ACFC12CD12CC2
:1015000080E4E82EFE2C64CF85EEABCF2D912193A5
:101510008F5FB9CFCF93DF93FC0101900020E9F7F3
:101520003197AF01481B590BBC018AEF95E00E942F
:10153000A301EC0142E050E06FEC73E08AEF95E02C
:101540000E94A3018C0F9D1FDF91CF910895FF9200
:101550000F931F93CF93DF93EC01F62E088119812F
:10156000C8010E943816F81621F06F2DC8010E949C
:101570004016CE01DF91CF911F910F91FF900895FA
:10158000EF92FF920F931F93CF93DF9300D0CDB7CD
:10159000DEB7623009F456C0182F633098F5E82F93
:1015A000F0E0662309F45FC0613009F465C0812F63
:1015B00090E09C012B5A3B4F7901D9016C919A83A1
:1015C0008983CE0101960E94A70A70E060E0812F16
:1015D0000E94810881E08093830480918804909127
:1015E0008904A0918A04B0918B0480938404909321
:1015F0008504A0938604B093870481E18093FE0361
:10160000F70124C0633009F43FC0643081F6E5E59A
:10161000F4E088E0DF011D928A95E9F77F0110E090
:1016200000E0F70161917F011A830983CE010196E1
:101630000E94A70A0F5F1F4F0830110591F790E035
:1016400080E008C0E82FF0E0EB5AFB4F8081082EC5
:10165000000C990B0F900F90DF91CF911F910F917C
:10166000FF90EF900895EB5AFB4F80818F3709F47C
:101670009ECF8F5F80839BCFEB5AFB4F808180385A
:1016800009F495CF8150F6CFE82FF0E0EB5AFB4FED
:1016900010828DCF1F920F920FB60F9211242F93AD
:1016A0003F934F935F936F937F938F939F93AF93EA
:1016B000BF93EF93FF938AEF95E00E942102FF9181
:1016C000EF91BF91AF919F918F917F916F915F91BA
:1016D0004F913F912F910F900FBE0F901F90189533
:1016E0001F920F920FB60F9211242F938F939F93F7
:1016F000EF93FF93E0910A06F0910B068081E09151
:101700001006F091110682FD1BC090818091130696
:101710008F5F8F7320911406821741F0E0911306BA
:10172000F0E0E650FA4F958F80931306FF91EF910A
:101730009F918F912F910F900FBE0F901F90189532
:101740008081F4CF1F920F920FB60F9211242F9326
:101750003F938F939F93AF93BF9380918804909111
:101760008904A0918A04B0918B0430914C0423E049
:10177000230F2D3758F50196A11DB11D20934C0460
:101780008093880490938904A0938A04B0938B0477
:1017900080914D0490914E04A0914F04B09150045B
:1017A0000196A11DB11D80934D0490934E04A0930A
:1017B0004F04B0935004BF91AF919F918F913F918F
:1017C0002F910F900FBE0F901F90189526E8230FB2
:1017D0000296A11DB11DD2CF1F920F920FB60F928C
:1017E00011242F933F934F935F936F937F938F9326
:1017F0009F93AF93BF93EF93FF93E0910D01F0910F
:101800000E010995FF91EF91BF91AF919F918F913B
:101810007F916F915F914F913F912F910F900FBEEC
:101820000F901F9018951F920F920FB60F921124D0
:101830002F933F934F935F936F937F938F939F93D8
:10184000AF93BF93EF93FF93E0910B01F0910C01E5
:101850000995FF91EF91BF91AF919F918F917F91EA
:101860006F915F914F913F912F910F900FBE0F900D
:101870001F9018951F920F920FB60F9211242F935D
:101880003F934F935F936F937F938F939F93AF9308
:10189000BF93EF93FF938091B900887F803609F45E
:1018A0004AC0F0F5883209F4A7C018F5803109F470
:1018B0009BC0B8F4882309F4F9C0883009F494C0B7
:1018C000FF91EF91BF91AF919F918F917F916F9118
:1018D0005F914F913F912F910F900FBE0F901F90EE
:1018E0001895883109F488C0803251F78093D30568
:1018F00014C0803409F49DC040F48033B9F38833B8
:10190000F9F68093D30585ECB0C0803509F485C025
:10191000883509F496C0883499F60E946E06D0CFB7
:10192000883909F48CC038F5883729F050F48836A6
:1019300011F0803729F683E08093D50510924B048F
:1019400057C0883809F47BC0803919F0803809F015
:10195000B7CF80914B04803208F071C0E0914B0406
:1019600081E08E0F80934B048091BB00F0E0E55D39
:10197000FB4F80833DC0803B39F0E0F4803A09F4AE
:1019800079C0883A09F09CCF84E08093D505109205
:101990002A0410922904E0915304F091540409950B
:1019A0008091290481110FC081E080932904109255
:1019B000090409C0803C09F4A6CF883C09F4A3CFF0
:1019C000883B09F07DCFE0912A0481E08E0F80935F
:1019D0002A04F0E0E75FFB4F80818093BB00909189
:1019E0002A048091290429C08091B0058093BB000E
:1019F00085EC8093BC0064CF9091D2058091D10595
:101A0000981758F5E091D20581E08E0F8093D205AA
:101A1000F0E0EF54FA4F8081E9CFE091D20581E008
:101A20008E0F8093D2058091BB00F0E0EF54FA4F07
:101A300080839091D2058091D1059817C8F285E8EE
:101A4000D8CFE091D20581E08E0F8093D2058091AE
:101A5000BB00F0E0EF54FA4F80838091D4058111F0
:101A60005CCF81E08093AF0584EA8093BC00109244
:101A7000D50526CF85EC8093BC001092D5058091CA
:101A80004B04803230F4E0914B04F0E0E55DFB4F15
:101A9000108260914B0470E0E0915104F091520487
:101AA0008BE294E0099510924B040ACF1092D30573
:101AB00034CFCF92DF92EF92FF920F931F93E82FD4
:101AC000F92F05C0015011092109310961F19081F7
:101AD00096239417B9F305C0015011092109310962
:101AE00011F1908196239413F7CFC12CD12CE12CC6
:101AF000F12C0AC08FEFC81AD80AE80AF80A0C15A8
:101B00001D052E053F0579F080818623841791F30A
:101B10006C2D7D2D8E2D9F2D1F910F91FF90EF909D
:101B2000DF90CF90089560E070E080E090E01F913A
:101B30000F91FF90EF90DF90CF9008951092FD05E8
:101B40001092FC0588EE93E0A0E0B0E08093FE05E3
:101B50009093FF05A0930006B09301062FEA33E0AF
:101B60003093FB052093FA0525EC30E0309307060F
:101B70002093060624EC30E03093090620930806F3
:101B800020EC30E030930B0620930A0621EC30E085
:101B900030930D0620930C0622EC30E030930F06B4
:101BA00020930E0626EC30E03093110620931006A9
:101BB0001092130610921406109215061092160633
:101BC00010929A061092990680939B0690939C0619
:101BD000A0939D06B0939E0681EC93E090939806A7
:101BE0008093970680E48093B90687E996E0909306
:101BF000BB068093BA061092A4061092AB06109210
:101C0000B2061092B3061092B4061092B50681E0A7
:101C10008093B1068093AE061092AF0692E0909347
:101C2000B0068093A30688E190E09093A806809385
:101C3000A7060E9409199093AD068093AC06009701
:101C400009F455C028E1FC0111922A95E9F788E0D2
:101C500090E09093A6068093A50680E190E0909393
:101C6000AA068093A9068091A406882341F061E02A
:101C700080E10E94340360E080E10E940203EEEB09
:101C8000F0E0E491F0E0EE0FFF1FEC55FF4F85917F
:101C900094919093B7068093B606E0EAF0E0E49161
:101CA000E093B80682E08093CD068093C50680E37A
:101CB00093E09093C4068093C30660E082E00E94A4
:101CC000340362E070E080E00E948D001092C20652
:101CD0001092C1061092C0068091CD06811110C0ED
:101CE0008EE690E09093100180930F01089510927A
:101CF000A8061092A7061092A6061092A506ADCFD0
:101D00008CE291E0EFCFCF93DF9300D000D000D0F2
:101D10001F92CDB7DEB7789484B5826084BD84B558
:101D2000816084BD85B5826085BD85B5816085BDD6
:101D300080916E00816080936E001092810080918E
:101D40008100826080938100809181008160809316
:101D50008100809180008160809380008091B1003B
:101D600084608093B1008091B00081608093B00066
:101D700080917A00846080937A0080917A008260FA
:101D800080937A0080917A00816080937A008091BC
:101D90007A00806880937A001092C10014BE0FB65A
:101DA000F894A895809160008861809360001092FB
:101DB00060000FBE61E08DE00E94340360E08DE0C2
:101DC0000E94020361E081E10E94340361E081E14D
:101DD0000E94020362E08EE00E94340361E08FE023
:101DE0000E94340361E088E00E94340362E083E0F3
:101DF0000E94340362E084E00E94340362E085E0E4
:101E00000E94340362E086E00E9434038091A906B8
:101E10009091AA0697FD08C061E00E94340360E03B
:101E20008091A9060E94020381E08093A4060E948B
:101E3000950365E5E62E64E0F62E570110E000E01C
:101E4000DD24D394C8010E943816D5018D935D011D
:101E50008F3F09F0D12C0F5F1F4F0830110591F70C
:101E6000DD20D9F082ED93E00E948A0AE5E5F4E0F6
:101E700088E0DF011D928A95E9F710E000E0F701A4
:101E800061917F011A830983CE0101960E94A70AFE
:101E90000F5F1F4F0830110591F710928E051092B9
:101EA0008D051092D7051092F9051092D50581E0A5
:101EB0008093D4051092AF0561E082E10E94020395
:101EC00061E083E10E9402038091B9008E7F8093DC
:101ED000B9008091B9008D7F8093B90088E4809328
:101EE000B80085E48093BC0081EA91E090935404AB
:101EF0008093530482EA91E09093520480935104BA
:101F000060E880E00E9476016AE070E080E090E0A6
:101F10000E94530460E070E08AE794E40E94840920
:101F200080E498E7ADE7B1E08093BC069093BD06EE
:101F3000A093BE06B093BF0660E070E088E492E430
:101F40000E94840960E081E10E94020363E08FED5A
:101F500091E00E94460860E870E0CB010E94860490
:101F600084E690E00E94C807E0910A06F0910B0613
:101F700082E08083E0910606F09107061082E091EE
:101F80000806F091090680E1808310921206E09124
:101F90000E06F0910F0686E08083E0910C06F0912A
:101FA0000D06808180618083E0910C06F0910D0622
:101FB000808188608083E0910C06F0910D0680811D
:101FC00080688083E0910C06F0910D0680818F7D02
:101FD00080838DED93E00E948A0A44E0242EEE2453
:101FE000EA9455E5952E8AEF95E00E9401021816B5
:101FF00019060CF014C48AEF95E00E94DF0197FDEA
:102000000EC4E0918C0521E02E0F20938C05F0E0AA
:10201000E457FB4F8083223009F459C0233009F480
:102020005BC0213039F420920A018F3F9105D9F22B
:1020300010928C0520910A0180918C05821798F2EC
:10204000A6E6B4E0E0E11D92EA95E9F710918F046D
:102050001B3148F580E1189FF0011124E550FE4F37
:1020600036E6A32E34E0B32EBF01605F7F4F90E0D1
:1020700080E030E041914423B1F0D5018D935D01C2
:102080004C34B1F16CF54434A9F1463489F1423451
:1020900009F40196AC014C5F5F4F24173507A0F09F
:1020A0006E177F0739F7193009F443C108F053C0A0
:1020B000143009F40DC1B0F5123009F4EFC008F086
:1020C000FCC0113009F4DEC010928C058CCF853530
:1020D000910509F0ADCFAECF8D5F80930A01AACFF5
:1020E0004236B1F0433741F04335A1F60296D2CFE4
:1020F0000496D0CF0896CECFAC0140575B4FDA01A3
:102100000D900020E9F7841B950B8A0F9B1FC2CF0F
:10211000AC0144575B4FDA0114964C910196840F41
:10212000911DB8CF163009F4E9C008F4DCC01730AF
:1021300009F4E8C0183041F6E0916704F0E0E45794
:10214000FB4F6481E0916604F0E0E457FB4F84812B
:10215000880F8F5FE4C01D3009F4A1C108F06CC086
:102160001B3009F48DC108F41CC18EE00E94D90215
:1021700060E0019709F48AC18FE00E94020383E0C6
:1021800090E00197F1F761E08FE00E94020383E2A3
:1021900090E00197F1F760E08FE00E940203EEE922
:1021A000F0E06491ECEBF0E08491E82FF0E0EE0FCA
:1021B000FF1FEA57FF4F8591949100E412E42FE04E
:1021C00030E0462F0E94590D61157105810591057A
:1021D00029F06F5F7F4F8F4F9F4F9F700E94611755
:1021E0002B013C0120E030E0A9010E9413181816D1
:1021F0000CF050C126E933E44BE85CE3C301B201C3
:102200000E941818E0928C0490928D0425E020938F
:102210008E0420928F0460939004709391048093B5
:1022200092049093930448E050E06CE874E08AEFE5
:1022300095E00E94A30148CF103809F459C188F4F1
:10224000153109F041CF61E08DE00E943403E09147
:102250006604F0E0E457FB4F64818DE00E940203C6
:1022600029C01E3F09F43FC11F3F09F02DCF88E16F
:1022700098E00FB6F894A895809360000FBE9093F5
:102280006000FFCF81E00E947809E0916604F0E0F1
:10229000E457FB4F64810E94E6080CC081E00E9475
:1022A0007809182F80E00E947809412F682F80E07C
:1022B0000E9491080E946A0907CF81E00E94780974
:1022C000182F80E00E947809412F682F82E0F0CF1C
:1022D00081E00E947809182F80E00E947809412F40
:1022E000682F81E0E5CF81E00E947809182F80E017
:1022F0000E947809412F682F83E0DACF60E088ECF4
:1023000090E0C9CFE0916704F0E0E457FB4F6481AF
:10231000E0916604F0E0E457FB4F8481880F893038
:1023200028F40E94C00A0E945709CECE90E080E0B7
:10233000FACFE0916604F0E0E457FB4FE481E73028
:1023400008F0B8CFF0E0E955FE4E0C94B818AE1185
:10235000B411B911BE11C311C811CC1160E070E005
:10236000CB010E948604A6CF60E070E08FEF90E082
:10237000F8CF60E07FEF80E090E0F3CF6FEF70E0A8
:1023800080E090E0EECF60E070E880E890E0E9CF98
:1023900060E870E0CB01E5CF60E870E880E090E0B5
:1023A000E0CFE0916604F0E0E457FB4F448000E0AA
:1023B000F12CD12CC12C512C712C612C812C10E0D2
:1023C000B12CA12CBC2DB095BB83EFEFEF0DEC83AE
:1023D000FEEFFF0DFD8381E0800F8E8322E0322E21
:1023E000300EADEFAF0DAF838091A5069091A6069C
:1023F000A816B90698F58B81880D8535A0F4432D74
:10240000410F50E070E060E0BA01552744278F810A
:10241000811B482BC5010E94AF00BFEFAB1ABB0A5E
:102420001D5F8A94E1CF8A3A60F44D81411B50E0F0
:1024300070E060E0762F652F542F44278E81810F46
:10244000E8CF402F410F50E070E060E0762F652F1D
:10245000542F44278C81811B682BDCCF0E9495036D
:10246000C301B2010E945304EFEFCE1ADE0AFDEF62
:10247000FF0E0D5FC11481E0D80609F09FCF1ACF7F
:1024800080E00E9478090E94C80714CF70E088ECB1
:1024900092E4B8CE60E070E080E090E0B3CEE091EE
:1024A0006604F0E0E457FB4FE4818FEF8E0F21E0EC
:1024B000843050F4F0E0EA50FE4F80810E94D9024F
:1024C00021E0892B09F020E0E0928C0490928D04A9
:1024D00082E080938E0481E080938F0420939004A7
:1024E00045E050E0A2CE8DED93E00E948A0AECCD4B
:1024F000E0928C0490928D0486E080938E04109379
:102500008F04F894F0906504109265040091C00661
:102510001091C106A0906104B0906204C090630461
:10252000D09064047894A114B104C104D10409F4D6
:1025300029C1F2E0FF1621F140900F0150901001E7
:10254000712C612C0E94AB046A197B098C099D09CE
:102550002091CA06641575058605970508F0E7C041
:10256000211115C00115110591F0E091C306F091FC
:10257000C406309711F081E00995FF24F39409C057
:10258000FCE24F2E55245394612C712CDBCFFF209D
:1025900041F11092CC061092CB0682E0F8127FC077
:1025A000802F8770805A8093CA06802F86958695E3
:1025B00086958051990B74E0880F991F7A95E1F701
:1025C0009093C7068093C606812F8F718051990B17
:1025D000E4E0880F991FEA95E1F79093C90680938C
:1025E000C8061091CD064091C6065091C7062091AD
:1025F000C8063091C906112309F476C0A2E0FA1288
:1026000073C0BA0157FF04C066277727641B750B98
:10261000C90137FF04C088279927821B930B860FB7
:10262000971F883291050CF47DC0DA0157FD119691
:10263000B595A795E1E0A217B3070CF0E0E0B9016A
:1026400037FF02C06F5F7F4F759567954617570735
:102650000CF4EE5FB90137FF02C06F5F7F4F7595D5
:102660006795719561957109461757070CF4EC5FF2
:1026700066277727621B730BA617B7070CF4E85F72
:10268000F0E0E951FE4FE081E093CB06E337C1F083
:1026900088F4E13709F444C09695879512C00093F9
:1026A000CA061092C9061092C8061092C706109268
:1026B000C60697CFE43779F1E63771F7CB0101C051
:1026C000CA018F3F910519F010F08FEF90E08093D1
:1026D000CC068091CA06123039F4803629F48091F4
:1026E000CB0681118093CA068091CA06809390041C
:1026F0009091C6068091C7069093910480939204AE
:102700009091C8068091C906909393048093940495
:1027100049E050E08ACD88279927841B950BD1CFBB
:10272000C901CFCF1092CB061092CC06D2CF222374
:10273000D9F21092CC061092CB061092C9061092D4
:10274000C8061092C7061092C6061092CA061092CA
:102750006104109262041092630410926404E09188
:10276000C306F091C406309711F080E009950E94ED
:10277000AB0460935D0470935E0480935F04909358
:102780006004B2CF0E94AB0440905D0450905E04A0
:1027900060905F0470906004DC01CB01841995099E
:1027A000A609B709012B79F040910F015091100152
:1027B00070E060E0481759076A077B0720F4109221
:1027C000C1061092C00617E0B695A7959795879514
:1027D0001A95D1F70097A105B10509F485CF8F703F
:1027E0009927AA27BB270097A105B10551F4E091CD
:1027F000C306F091C40681E0309709F475CF0995BE
:1028000073CF0197A105B10509F06ECFE091C30622
:10281000F091C406309709F467CF80E0F0CF409183
:1028200088045091890460918A0470918B0480918E
:10283000840490918504A0918604B0918704481B7C
:10284000590B6A0B7B0B6A017B01E894F7F88091C6
:102850008304833009F4EEC188F4813031F1823091
:10286000B9F180E090E0892B09F4B7CB0E940D020A
:10287000882309F4B2CB0E940000AFCB843009F466
:10288000C1C1853071F78091080190910901B0E0D4
:10289000A0E0C816D906EA06FB060CF4BEC164E047
:1028A0008091810490918204C2C1B0E2CB16BFEB4B
:1028B000DB06B2E0EB06F10424F00E94710860E050
:1028C00003C050FFFCCF61E08DE00E940203C9CF3E
:1028D00046010D2C000CAA08BB08EEE18E169104EF
:1028E000A104B10414F56CEE7FEF80E00E94810832
:1028F0006CEE7FEF86E00E9481088601809176046D
:10290000882309F4E3C0BEE18B169104A104B1044D
:102910000CF091C06CEE7FEF84E00E9481086CEEB9
:102920007FEF82E00E948108B3C0F4E68F16910425
:10293000A104B104ACF4E0917F04F09180046081C3
:10294000062E000C770B81E00E948108E0917F0445
:10295000F09180046381062E000C770B87E0CBCFCB
:10296000C501B4016456710981099109982F872F17
:10297000762F66272091080130910901220F331F1D
:10298000220F331F50E040E00E94991829013A01BC
:102990006AE070E080E00E9481086AE070E086E012
:1029A0000E94810800917F0410918004F801A481A5
:1029B0000A2E000CBB0BA30192010E94D0189B01B0
:1029C000AC01A0917704B09178040E94D01820E067
:1029D00030E041E050E00E949918D8016C91062E39
:1029E000000C770B620F731F81E00E948108009139
:1029F0007F0410918004F801A7810A2E000CBB0B04
:102A0000A30192010E94D0189B01AC01A0917D040A
:102A1000B0917E040E94D01820E030E041E050E008
:102A20000E949918D80113966C91062E000C770B12
:102A3000620F731F93CFE4E68E169104A104B104D4
:102A40002CF5E0917F04F0918004858187FD8F5FF4
:102A500085956181062E000C770B680F711D87FD2F
:102A60007A9585E00E948108E0917F04F0918004CE
:102A7000868187FD8F5F85956281062E000C770B1E
:102A8000680F711D87FD7A9583E04CCF1092760414
:102A900080910801909109014996880F991F880F2C
:102AA000991F0817190708F4DCCE809188049091CB
:102AB0008904A0918A04B0918B048093840490933C
:102AC0008504A0938604B0938704CBCE209108019F
:102AD00030910901275E3F4F220F331F220F331F12
:102AE000C90196958795C80ED91EC601B0E0A0E031
:102AF000C216D30620F0821B930BA109B1098E31B7
:102B00009105A105B1050CF405CF84369105A10509
:102B1000B105A4F4E0917F04F09180046181062E58
:102B2000000C770B85E00E948108E0917F04F09112
:102B300080046281062E000C770BA6CF8456910983
:102B4000A109B1096627782F892F9A2F24563109B8
:102B500050E040E00E94991829013A016AE070E0D3
:102B600084E00E9481086AE070E082E00E948108AF
:102B7000E0907F04F0908004F701A5810A2E000CFC
:102B8000BB0BA30192010E94D0189B01AC01A09144
:102B90007904B0917A040E94D018812C912C5401B0
:102BA000A394A50194010E949918D70111966C91E4
:102BB000062E000C770B620F731F85E00E948108C0
:102BC000E0907F04F0908004F701A6810A2E000CAB
:102BD000BB0BA30192010E94D0189B01AC01A091F4
:102BE0007B04B0917C040E94D018A50194010E943E
:102BF0009918D70112966C91062E000C770B620F74
:102C0000731F42CF8091080190910901B0E0A0E0CC
:102C1000C816D906EA06FB0624F4C6010E94080875
:102C200020CE809181049091820465E008960E94F4
:102C3000460817CE8091080190910901B0E0A0E00C
:102C4000C816D906EA06FB0644F30E94710809CEAD
:102C50008091AC069091AD060E94A5198091A906BD
:102C60009091AA0697FD03C060E00C943403089588
:102C7000F999FECF92BD81BDF89A992780B5089544
:102C8000262FF999FECF1FBA92BD81BD20BD0FB688
:102C9000F894FA9AF99A0FBE019608955058BB27F6
:102CA000AA270E9466160C94D9170E94CB1738F0F9
:102CB0000E94D21720F039F49F3F19F426F40C94A7
:102CC000C8170EF4E095E7FB0C94C217E92F0E9499
:102CD000EA1758F3BA17620773078407950720F0BD
:102CE00079F4A6F50C940C180EF4E0950B2EBA2F7F
:102CF000A02D0B01B90190010C01CA01A001112402
:102D0000FF27591B99F0593F50F4503E68F11A16AD
:102D1000F040A22F232F342F4427585FF3CF46953E
:102D200037952795A795F0405395C9F77EF41F1660
:102D3000BA0B620B730B840BBAF09150A1F0FF0F2A
:102D4000BB1F661F771F881FC2F70EC0BA0F621F16
:102D5000731F841F48F4879577956795B795F79506
:102D60009E3F08F0B0CF9395880F08F09927EE0F9B
:102D70009795879508950E949E1708F481E008951D
:102D80000E94D4160C94D9170E94D21758F00E94B2
:102D9000CB1740F029F45F3F29F00C94C217511172
:102DA0000C940D180C94C8170E94EA1768F3992325
:102DB000B1F3552391F3951B550BBB27AA27621737
:102DC0007307840738F09F5F5F4F220F331F441F44
:102DD000AA1FA9F335D00E2E3AF0E0E832D0915078
:102DE0005040E695001CCAF72BD0FE2F29D0660F65
:102DF000771F881FBB1F261737074807AB07B0E8A8
:102E000009F0BB0B802DBF01FF2793585F4F3AF0AD
:102E10009E3F510578F00C94C2170C940D185F3F3B
:102E2000E4F3983ED4F3869577956795B795F79533
:102E30009F5FC9F7880F911D9695879597F908951B
:102E4000E1E0660F771F881FBB1F621773078407B7
:102E5000BA0720F0621B730B840BBA0BEE1F88F7C6
:102E6000E09508950E94F21788F09F5798F0B92FC7
:102E70009927B751B0F0E1F0660F771F881F991FAF
:102E80001AF0BA95C9F714C0B13091F00E940C182D
:102E9000B1E008950C940C18672F782F8827B85F3D
:102EA00039F0B93FCCF3869577956795B395D9F707
:102EB0003EF490958095709561957F4F8F4F9F4F11
:102EC0000895E89409C097FB3EF49095809570951D
:102ED00061957F4F8F4F9F4F9923A9F0F92F96E966
:102EE000BB279395F695879577956795B795F111DB
:102EF000F8CFFAF4BB0F11F460FF1BC06F5F7F4F78
:102F00008F4F9F4F16C0882311F096E911C0772389
:102F100021F09EE8872F762F05C0662371F096E892
:102F2000862F70E060E02AF09A95660F771F881F61
:102F3000DAF7880F9695879597F90895990F000805
:102F4000550FAA0BE0E8FEEF16161706E807F9077B
:102F5000C0F012161306E407F50798F0621B730B16
:102F6000840B950B39F40A2661F0232B242B252B97
:102F700021F408950A2609F4A140A6958FEF811D3A
:102F8000811D089597F99F6780E870E060E00895DB
:102F90009FEF80EC089500240A9416161706180671
:102FA0000906089500240A9412161306140605064D
:102FB0000895092E0394000C11F4882352F0BB0FDE
:102FC00040F4BF2B11F460FF04C06F5F7F4F8F4F41
:102FD0009F4F089557FD9058440F551F59F05F3F7C
:102FE00071F04795880F97FB991F61F09F3F79F02B
:102FF00087950895121613061406551FF2CF4695AD
:10300000F1DF08C0161617061806991FF1CF86952E
:103010007105610508940895E894BB276627772712
:10302000CB0197F908950E949E1708F48FEF089539
:103030000E942B180C94D9170E94CB1738F00E94CD
:10304000D21720F0952311F00C94C2170C94C817D6
:1030500011240C940D180E94EA1770F3959FC1F388
:10306000950F50E0551F629FF001729FBB27F00D36
:10307000B11D639FAA27F00DB11DAA1F649F66278B
:10308000B00DA11D661F829F2227B00DA11D621FDA
:10309000739FB00DA11D621F839FA00D611D221F94
:1030A000749F3327A00D611D231F849F600D211D78
:1030B000822F762F6A2F11249F5750409AF0F1F0FB
:1030C00088234AF0EE0FFF1FBB1F661F771F881F64
:1030D00091505040A9F79E3F510580F00C94C217C3
:1030E0000C940D185F3FE4F3983ED4F386957795E2
:1030F0006795B795F795E7959F5FC1F7FE2B880F0A
:10310000911D9695879597F90895AA1BBB1B51E1D0
:1031100007C0AA1FBB1FA617B70710F0A61BB70B47
:10312000881F991F5A95A9F780959095BC01CD01EC
:103130000895052E97FB1EF400940E94B01857FDC9
:1031400007D00E94D81807FC03D04EF40C94B01896
:1031500050954095309521953F4F4F4F5F4F0895C3
:1031600090958095709561957F4F8F4F9F4F0895F3
:10317000EE0FFF1F0590F491E02D09940E94FA18BC
:10318000B7FF0895821B930B08950E94FA18A59F1C
:10319000900DB49F900DA49F800D911D1124089552
:1031A000B7FF0C94C5180E94C518821B930B089595
:1031B000A1E21A2EAA1BBB1BFD010DC0AA1FBB1F3B
:1031C000EE1FFF1FA217B307E407F50720F0A21BAD
:1031D000B30BE40BF50B661F771F881F991F1A941A
:1031E00069F760957095809590959B01AC01BD0144
:1031F000CF010895A29FB001B39FC001A39F700D9E
:10320000811D1124911DB29F700D811D1124911DEE
:1032100008950F931F93CF93DF938230910510F49D
:1032200082E090E0E091D006F091D10630E020E01D
:10323000B0E0A0E0309799F42115310509F44AC0B7
:10324000281B390B24303105D8F58A819B81611503
:10325000710589F1FB0193838283FE0111C04081D6
:1032600051810281138148175907E0F04817590727
:1032700099F4109761F012960C93129713961C9381
:103280003296CF01DF91CF911F910F910895009356
:10329000D0061093D106F4CF2115310551F0421715
:1032A000530738F0A901DB019A01BD01DF01F801E4
:1032B000C1CFEF01F9CF9093D1068093D006CDCF47
:1032C000FE01E20FF31F819391932250310939835C
:1032D0002883D7CF2091CE063091CF06232B41F4FF
:1032E00020911301309114013093CF062093CE0624
:1032F00020911101309112012115310541F42DB7B2
:103300003EB74091150150911601241B350BE091F9
:10331000CE06F091CF06E217F307A0F42E1B3F0B69
:103320002817390778F0AC014E5F5F4F2417350737
:1033300048F04E0F5F1F5093CF064093CE06819307
:1033400091939FCFF0E0E0E09CCFCF93DF93009785
:10335000E9F0FC01329713821282A091D006B0915D
:10336000D106ED0130E020E01097A1F420813181F9
:10337000820F931F2091CE063091CF062817390770
:1033800009F061C0F093CF06E093CE06DF91CF91B4
:103390000895EA01CE17DF07E8F54A815B819E01B7
:1033A00041155105B1F7E901FB83EA834991599130
:1033B000C40FD51FEC17FD0761F48081918102963F
:1033C000840F951FE90199838883828193819B8370
:1033D0008A83F0E0E0E012968D919C91139700971C
:1033E000B9F52D913C911197CD010296820F931F53
:1033F0002091CE063091CF062817390739F630973D
:1034000051F51092D1061092D006B093CF06A0933A
:10341000CE06BCCFD383C28340815181840F951FD8
:10342000C817D90761F44E5F5F4F88819981480FB3
:10343000591F518340838A819B8193838283211505
:10344000310509F0B0CFF093D106E093D0069ECFBE
:10345000FD01DC01C0CF13821282D7CF10E0C2E69B
:10346000D0E004C0FE010E94B8182196C336D107EF
:06347000C9F7F894FFCF3C
:10347600FFFFFFFFFFFFFFFFC800046D066D066E2E
:10348600000000D20680000001000100010001ECEE
:103496007FEC7FEC7FEC7F3C7F3C7F3C7F3C7F3C3E
:1034A6007F3C7FEC7FEC7FEC7FEC7F3C7F3C7FECCE
:1034B6007FEC7FEC7FEC7FEC7F3C7FEC7F3C7F3CBE
:1034C6007F3C7FEC7FEC7FEC7FEC7F3C7F3C7F3C5E
:1034D6007FEC7F3C7FEC7FEC7F3C7FEC7F3C7F3C4E
:1034E6007F3C7F3C7F3C7FEC7FEC7FEC7FEC7F007A
:1034F6000000000000000019E719E7CE32CE32E7DF
:1035060019E71932CE32CE00D3002DD32D2DD3D3C9
:10351600002D002DD3D32D37370000C9C9C9C900E6
:1035260000C9C93737373701000504030207064FBC
:103536005A4D5E5E5E5E5E01FF01FFFF01FF01EC1C
:10354600C9ECA6ECC9ECA6643C642D643C642D0071
:10355600000000000000007370007100000072752A
:1035660000000076007774030405060000000000E2
:1035760000000000000000000000004253000000B0
:10358600000000000000000000000053530000008F
:10359600000000000000000000000053530000007F
:1035A600000000000000000000000053530000006F
:1035B600000000000000000000000053530000005F
:1035C60000000000000000000000000000000000F5
:1035D6000000000000000000000000424200000061
:1035E6000000000000000000000000424200000051
:1035F6000000000000000000000000420000000083
:103606000000000000000000000000420000000072
:103616000000000000000000000000530000000051
:103626000000000000000000000000000000000094
:103636000000000000000000000000420000000042
:103646000000000000000000000000000000000074
:103656000000000000000000000000000000000064
:103666000000000000000000000000000000000054
:103676000000000000000000000000000000000044
:103686000000000000000000000000000000000034
:103696000000000000000000000000000000000024
:1036A6000000000000000000000000000000000014
:1036B60000000000000000000000004200000000C2
:1036C60000000000000000000000000000000000F4
:1036D60000000000000000000000000000000000E4
:1036E60000000000000000000000000000000000D4
:1036F60000000000000000000000000000000000C4
:1037060000000000000000000000000000000000B3
:103716000000000000000000000000000000004360
:1037260002A301D00190020102DF01F301000000B3
:1037360000F606C90625079F06C206AF06A0060DB7
:103746000A00696E69742063616C696200504320E7
:103756006D6F64653A2051756164437261776C657B
:0637660072312E3200005A
:00000001FF
