:100000000C9463000C945D0B0C94360B0C948B00D9
:100010000C948B000C948B000C948B000C948B0034
:100020000C948B000C948B000C948B000C948B0024
:100030000C948B000C948B000C948B000C948B0014
:100040000C94EC0A0C948B000C94BA0A0C94940A4D
:100050000C948B000C948B000C948B000C948B00F4
:100060000C94840B0C948B000000000024002700EB
:100070002A0000000008000201000003040700003D
:1000800000000000000000000000230026002900FE
:10009000010204081020408001020408102001021F
:1000A0000408102000000000250028002B00040494
:1000B0000404040404040202020202020303030310
:1000C0000303E80C8D1411241FBECFEFD8E0DEBF70
:1000D000CDBF15E0A0E0B1E0E6E2F1E302C005909B
:1000E0000D92A630B107D9F726E0A6E0B5E001C031
:1000F0001D92AE3FB207E1F710E0C2E6D0E004C0C7
:100100002197FE010E941717C136D107C9F70E9437
:10011000CD0D0C9486180C9400008230F8F4E82F72
:10012000F0E0EE0FFF1FE95EFE4F23EC34E0318379
:100130002083813041F0809169008C7F682B60932F
:100140006900E89A089580916900837F660F771FA0
:10015000660F771F682B60936900E99A08958F9264
:100160009F92AF92BF92CF92DF92EF92FF92CF9386
:100170004B01AA24BB24C82DC52ED62EE72EFF2462
:10018000BC2DA42F2091D706222361F0829E40012E
:100190001124C92D2C9D60011124BD2D249FF00137
:1001A0001124AF2FE091DD06E090D806F090D9063B
:1001B0003091DA06E31323C09C01220F331F820F14
:1001C000931F8E0D9F1DE091DA06E80FF92FF11DA8
:1001D000C083E091DB06E80FF92FF11DB083209179
:1001E000DC06820F911DFC01A083CF91FF90EF9060
:1001F000DF90CF90BF90AF909F908F900895880F21
:10020000991F880F991F8E0D9F1D472F5527662711
:100210007727222349F030E0249F7001259FF00CBE
:10022000349FF00C11244F2DE80FF92FF11D40835E
:10023000CACF982F2091250681E0213208F043C0D3
:10024000809101068111FCCF8091240632E0309329
:100250000106909300069FEF9093FF051092FE0514
:100260002093FD05A4E0B6E0EDEDF5E090E0291364
:1002700031C01092DC059091DC05880F892B8093AA
:10028000DC058091DB05813049F51092DB0580911A
:10029000DC058093BB008091BC0083FDF8CF85EC2A
:1002A0008093BC00809101068230E1F38091FF05CC
:1002B0008F3FB1F08091FF058032A1F08091FF0562
:1002C000803391F084E0109203061092250610927C
:1002D000020608953D9131939F5FC9CF85EEE0CF2F
:1002E00080E0F1CF82E0EFCF83E0EDCF1F93CF939B
:1002F000DF93162FC5EED6E0A981BA81988121E05F
:10030000209302069093240610920306109225066D
:10031000ED91FC9111970190F081E02D682FCD01B6
:10032000099589819A81DC01ED91FC910190F08120
:10033000E02D612F099581E0DF91CF911F910C9401
:10034000190108950895AF92BF92CF92DF92EF9274
:10035000FF920F931F93CF93DF936C017B018B016F
:10036000040F151FEB015E01AE18BF08C017D107BF
:1003700059F06991D601ED91FC910190F081E02D49
:10038000C6010995892B79F7C501DF91CF911F919E
:100390000F91FF90EF90DF90CF90BF90AF900895B6
:1003A000FC01538D448D252F30E0842F90E0821B7B
:1003B000930B541710F0CF96089501970895FC0100
:1003C000918D828D981761F0A28DAE0FBF2FB11D58
:1003D0005D968C91928D9F5F9F73928F90E00895B0
:1003E0008FEF9FEF0895FC01918D828D981731F06A
:1003F000828DE80FF11D858D90E008958FEF9FEFBE
:100400000895FC01918D228D892F90E0805C9F4F93
:10041000821B91098F739927089586E296E00E94C6
:10042000010221E0892B09F420E0822F089580E069
:1004300090E0892B29F00E940D0281110C9400009C
:100440000895FC01A48DA80FB92FB11DA35ABF4F69
:100450002C91848D90E001968F739927848FA689C3
:10046000B7892C93A089B1898C91837080648C9317
:10047000938D848D981306C00288F389E02D8081C6
:100480008F7D80830895EF92FF920F931F93CF93F8
:10049000DF93EC0181E0888F9B8D8C8D98131AC0BF
:1004A000E889F989808185FF15C09FB7F894EE89A6
:1004B000FF896083E889F989808183708064808303
:1004C0009FBF81E090E0DF91CF911F910F91FF904E
:1004D000EF900895F62E0B8D10E00F5F1F4F0F73F6
:1004E0001127E02E8C8D8E110CC00FB607FCFACFB1
:1004F000E889F989808185FFF5CFCE010E9421022C
:10050000F1CFEB8DEC0FFD2FF11DE35AFF4FF08281
:100510009FB7F8940B8FEA89FB8980818062CFCFE7
:10052000682F86E296E00C944302682F86E296E0FC
:100530000C944302CF93DF93EC01888D8823B9F0AC
:10054000AA89BB89E889F9898C9185FD03C08081DE
:1005500086FD0DC00FB607FCF7CF8C9185FFF2CF5B
:10056000808185FFEDCFCE010E942102E9CFDF918E
:10057000CF910895833081F028F4813099F0823052
:10058000A9F008958730A9F08830C9F08430B1F41B
:10059000809180008F7D03C0809180008F77809351
:1005A0008000089584B58F7784BD089584B58F7DCC
:1005B000FBCF8091B0008F778093B0000895809139
:1005C000B0008F7DF9CFCF93DF93282F30E0F90172
:1005D000EE58FF4F8491F901E057FF4FD491F90194
:1005E000E255FF4FC491CC23A1F081110E94BA02C1
:1005F000EC2FF0E0EE0FFF1FEA57FF4FA591B491EB
:10060000EC91ED2381E090E009F480E0DF91CF915F
:10061000089580E090E0FACF1F93CF93DF93282FC7
:1006200030E0F901EE58FF4F8491F901E057FF4F98
:10063000D491F901E255FF4FC491CC23A9F0162FB4
:1006400081110E94BA02EC2FF0E0EE0FFF1FEC5573
:10065000FF4FA591B4918FB7F894EC91111108C098
:10066000D095DE23DC938FBFDF91CF911F9108954A
:10067000DE2BF8CF682F8DE00C940C03CF93DF9323
:1006800090E0FC01E057FF4F249182559F4FFC0101
:1006900084918823C9F090E0880F991FFC01E859E4
:1006A000FF4FA591B491FC01EC55FF4FC591D4913A
:1006B00061110DC09FB7F8948C91209582238C9383
:1006C0008881282328839FBFDF91CF9108956230CE
:1006D00051F49FB7F8943C91822F809583238C939B
:1006E000E8812E2BEFCF8FB7F894EC912E2B2C9323
:1006F0008FBFEACF3FB7F89480915405909155058C
:10070000A0915605B091570526B5A89B05C02F3F6F
:1007100019F00196A11DB11D3FBFBA2FA92F982F27
:100720008827BC01CD01620F711D811D911D42E022
:10073000660F771F881F991F4A95D1F708950F9369
:100740001F93CF93DF93CDB7DEB729970FB6F894F9
:10075000DEBF0FBECDBF8091D8069091D906892B00
:1007600009F467C00E947A030091DE061091DF064B
:100770002091E0063091E106601B710B820B930B18
:100780006C3271408105910568F3F8948091D3062D
:100790009091D4069A838983E091D806F091D90686
:1007A000DF011196808189879091CF06E091E20662
:1007B000F091E3068091E406992309F445C0908105
:1007C000982B98879081809589238F838F818C8344
:1007D00088E08B8358856F8149853B812C81898195
:1007E0009A81508347FD252F3A952083262F39F093
:1007F000441F00C000006083000000C0F2CF38E05A
:100800004D9160830000019761F7F093E306E09358
:10081000E20649873B832C839A83898378940E94DC
:100820007A036093DE067093DF068093E006909370
:10083000E10629960FB6F894DEBF0FBECDBFDF915B
:10084000CF911F910F9108959081982B9887908157
:10085000809589238F838F818E8388E08D8358854F
:100860006F8149853D812E8189819A81508347FD21
:10087000252F00C000C0208300C000C000C000C001
:1008800000C060830000262F3A9541F0441F00000D
:1008900000C000C000C000C000C0E8CF38E04D91EB
:1008A00000C0608300C0019709F7F093E306E0936E
:1008B000E20649873D832E83AFCF8F929F92AF92FE
:1008C000BF92CF92DF92EF92FF926B017C010E9468
:1008D0007A034B015C01C114D104E104F104B9F0C5
:1008E0000E947A03681979098A099B09683E734056
:1008F0008105910580F321E0C21AD108E108F108D1
:1009000088EE880E83E0981EA11CB11CE4CFFF90F6
:10091000EF90DF90CF90BF90AF909F908F90089511
:10092000CF92DF92EF92FF92CF93DF936B017C0126
:10093000D0E0C0E08091D1069091D206C817D907C7
:1009400078F4B701A601CE010E94AF000E949F0378
:100950006AE070E080E090E00E945D042196EACFBA
:10096000DF91CF91FF90EF90DF90CF9008952FB758
:10097000F8946091B4057091B5058091B605909199
:10098000B7052FBF08950F931F930E947A03AB0101
:10099000BC0180910C0590910D05A0910E05B091C0
:1009A0000F058A019B01081B190B2A0B3B0BD90170
:1009B000C8010097A140B10520F580910C059091E8
:1009C0000D05A0910E05B0910F059A01281B390B5A
:1009D000C90140930C0550930D0560930E0570936B
:1009E0000F05E091EE06E73090F4F0E0E650FB4FA3
:1009F0000C94171704053605AD05EA051C057005AE
:100A0000EA058FEF9FEFE5CF84E08093EE068091BB
:100A1000EE0662E070E0843010F063E070E08091F8
:100A2000F106823009F464C1833009F463C18FEFA9
:100A30001F910F910C948D009C0127553A41233949
:100A4000314110F481E0E1CF8B5693408F359140D6
:100A500008F0BDC0109208051092090510920A0511
:100A600010920B051092070583E0CFCF1092EE068F
:100A70009C012B523D402B3C384060F410920805FD
:100A80001092090510920A0510920B0510920705A5
:100A900085E0BBCF855996408736944008F0B7CFA4
:100AA0008091EC069091ED06892B09F4B0CF0E945D
:100AB000B704609362057093630580936405909317
:100AC000650581E090E09093610580936005E09179
:100AD000EF06F091F006309709F499CF099597CF7A
:100AE0001092EE06855A91408B31914008F08FCFDD
:100AF00080910705803210F482E087CF809108054D
:100B000090910905A0910A05B0910B054091080547
:100B10005091090560910A0570910B05892F9A2F54
:100B2000AB2FBB2784279527A627B7279927BB2755
:100B30008F3F9105AF4FB10509F069CF809108054E
:100B400090910905A0910A05B0910B058A2F90E0BC
:100B50009093ED068093EC06AACF25E02093EE0655
:100B6000409108055091090560910A0570910B05A7
:100B700076956795579547954093080550930905D5
:100B800060930A0570930B05209107052F5F209352
:100B900007059C01205F34402D34334090F4809150
:100BA000080590910905A0910A05B0910B05B06860
:100BB0008093080590930905A0930A05B0930B054F
:100BC00026CF855A91408B31914008F420CF109266
:100BD000EE061DCF9C012F5A31092F35314048F5C3
:100BE0008091070580FD15C0809108059091090549
:100BF000A0910A05B0910B05880F991FAA1FBB1F72
:100C000081608093080590930905A0930A05B0932D
:100C10000B05809107058F5F80930705809107057D
:100C20008E3120F58091EE06863009F41DCF86E0E6
:100C3000ECCE8D5092408F35914048F6809108055A
:100C400090910905A0910A05B0910B05880F991F95
:100C5000AA1FBB1F8093080590930905A0930A055E
:100C6000B0930B05809107058E5FD6CF40910805A4
:100C70005091090560910A0570910B059091060548
:100C8000852F829586958770911104C0837080931B
:100C900006059DCF20910605837030E0821713066C
:100CA00009F095CF8091080590910905A0910A055A
:100CB000B0910B059093ED068093EC060E94B7046B
:100CC0006093620570936305809364059093650556
:100CD00082E090E09093610580936005E091EF06DB
:100CE000F091F006309709F472CF81E009956FCF4B
:100CF00080E09ECE81E09CCE089585ED8093BC007F
:100D00008091BC0084FDFCCF1092010608952091D3
:100D10003005260F3327331F21323105ECF42091A3
:100D20000106FC0190E080E0243069F082E0089543
:100D3000A09130052191AC01405F5A4FA40FB52F0F
:100D4000B11D2C930196861798F380913005680F9A
:100D50006093300580E0089581E008950895E09162
:100D6000BA058091B905E81730F4F0E0E554FA4F80
:100D7000808190E008958FEF9FEF08959091BA05DC
:100D80008091B9052FEF3FEF981748F4E92FF0E075
:100D9000E554FA4F208130E09F5F9093BA05C90176
:100DA00008958091B9059091BA05891B990B089512
:100DB000CF92DF92EF92FF920F931F93CF93DF9327
:100DC0007C01CB018A0120910206222389F0EB01EC
:100DD0006B01C40ED51ECC15DD0569F06991D701F4
:100DE000ED91FC910190F081E02DC7010995F3CFC1
:100DF000642F0E948706C801DF91CF911F910F9148
:100E0000FF90EF90DF90CF900895CF93DF931F92E4
:100E1000CDB7DEB76983209102062223F9F0209135
:100E20002506203258F021E030E0FC013383228394
:100E300090E080E00F90DF91CF91089580910306BC
:100E4000E82FF0E0EC5FF94F998190838F5F8093FA
:100E500003068093250681E090E0ECCF61E0CE01AF
:100E600001960E948706F7CF90E080E00895DC01AC
:100E7000ED91FC910190F081E02D09940F931F9367
:100E8000CF93DF938B01C5EED6E0A981BA8198811B
:100E900021E02093020690932406109203061092FC
:100EA000250694E0899FB00111246A5F7F4FED9180
:100EB000FC9111970190F081E02DCD01099570E032
:100EC00060E089819A810E94370770E060E0898143
:100ED0009A810E943707B80189819A810E94370759
:100EE000612F70E089819A810E94370781E0DF914C
:100EF000CF911F910F910C941901CF93C0E070E036
:100F000060E08C2F0E943E07CF5FC830C1F710927F
:100F1000B8058091B4059091B505A091B605B09142
:100F2000B7058093B0059093B105A093B205B09337
:100F3000B3051092AF05CF910895EF92FF920F93F2
:100F40001F93CF93DF937C01D0E0C0E00BE316E06A
:100F5000CE15DF0584F461E088E00E940C03C8012F
:100F60000197F1F760E088E00E940C03C801019747
:100F7000F1F72196EDCFDF91CF911F910F91FF9067
:100F8000EF900895CF93DF93CDB7DEB728970FB6D4
:100F9000F894DEBF0FBECDBF282F88E0E3E2F1E07A
:100FA000DE01119601900D928A95E1F738EC369F9B
:100FB000C001379F900D1124805A9F406EE670E06B
:100FC0000E94E41668537F4F613981E0780788F406
:100FD000E1E0F0E0EC0FFD1FE20FF11D80812896AB
:100FE0000FB6F894DEBF0FBECDBFDF91CF910C944A
:100FF0003E0728960FB6F894DEBF0FBECDBFDF9137
:10100000CF910895CF92DF92EF92FF920F931F93AB
:10101000CF93DF9300D01F92CDB7DEB7062F28E025
:1010200031E03B832A837C0180E0C82E81E0D82E0A
:1010300010E03DEF360F39838981843018F001309C
:1010400009F040C0EA81FB81608170E0812F0E943D
:10105000C207EA81FB818081F6018083F7018081EC
:101060008F3F19F0EA81FB8180831F5F2A813B81DA
:101070002F5F3F4F3B832A833FEFE31AF30A8FEF43
:10108000C81AD80A1830C1F60093B8058091B40583
:101090009091B505A091B605B091B7058093B005C4
:1010A0009093B105A093B205B093B3050F900F9044
:1010B0000F90DF91CF911F910F91FF90EF90DF90F4
:1010C000CF900895F70160816F3F79F270E0812F32
:1010D0000E94C207F7018081C5CF90937705809366
:1010E00076050C940208CF93DF93CDB7DEB728972F
:1010F0000FB6F894DEBF0FBECDBF98E0EBE2F1E093
:10110000DE01119601900D929A95E1F790E0880F1B
:10111000991FA1E0B0E0AC0FBD1FA80FB91F28E0D8
:10112000629FF0011124E557FD4FE80FF91F208160
:101130002C930196E1E0F0E0EC0FFD1FE80FF91FA2
:10114000A8E04A9FA001112445575D4F840F951FC9
:10115000DC018C91808367E0CE0101960E946D08CE
:1011600080E18093AF0528960FB6F894DEBF0FBEDE
:10117000CDBFDF91CF910895EF92FF921F93CF9350
:10118000DF93CDB7DEB728970FB6F894DEBF0FBE5A
:10119000CDBF7C01162F9093150180931401BC01E3
:1011A00090E080E00E94B0152AE939E949E15FE367
:1011B0000E9467160E9481157093790560937805E7
:1011C0009701DB010E941D176093100170931101BC
:1011D00080931201909313018091AF05811799F0CC
:1011E0001093AF0511111BC088E0E3E3F1E0DE01CD
:1011F000119601900D928A95E1F78091B80561E012
:10120000823008F050C028960FB6F894DEBF0FBEAB
:10121000CDBFDF91CF911F91FF90EF90089563E0D4
:101220008BE692E0113009F440C063E08BE492E079
:101230001430D9F163E08BE292E01230B1F163E057
:101240008BE092E0133089F163E08BEE91E0153092
:1012500061F163E08BEC91E0163039F188E0EBE36B
:10126000F1E01730C9F088E0E3E4F1E01830A1F0D4
:1012700088E0EBE4F1E0193079F088E0E3E5F1E0B3
:101280001A3051F088E0EBE5F1E01B3029F01C301A
:1012900079F488E0E3E6F1E0DE01119601900D9229
:1012A0008A95E1F762E0CE0101960E946D08ABCF0E
:1012B00063E08BEA91E01D30C1F363E08BE891E0DD
:1012C0001E3099F31F3009F09ECF63E08BE691E06A
:1012D000ECCFCF93C82F8FEF90E00E94950285E569
:1012E00090E00E94950282E090E00E94900281E0EE
:1012F00090E00E9495026C2F86E296E0CF910C94CC
:1013000043028FEF90E00E94950285E590E00E94F5
:10131000950260E086E296E00C9443028F929F92E1
:10132000AF92BF92CF92DF92EF92FF92CF936B0179
:101330007C0120E030E040E85FE30E940A1587FD71
:10134000E0C020E030EC4AE555E4C701B6010E9458
:10135000621618163CF4C12C30ECD32E3AE5E32E7D
:1013600035E4F32E6091E8067091E9068091EA0673
:101370009091EB060E94B0154B015C0120E030E03B
:1013800040E855E4C701B6010E9467169B01AC0115
:10139000C501B4010E940F1520E030E040E05FE39A
:1013A0000E949E1420E030E040E85FE30E949D141C
:1013B0006B017C0120E030E040E450E40E940A151B
:1013C00087FDA6C020E030E04FE753E4C701B60137
:1013D0000E946216181634F4C12CD12C9FE7E92E16
:1013E00093E4F92EC701B6010E948115F62E809173
:1013F000E6069091E7062091E50631E0309302067B
:10140000209324061092030610922506DC01ED912C
:10141000FC910190F081E02D60E0099581E00E944F
:1014200019018091E506909101069111FCCF91E0A0
:1014300090930106909300062FEF2093FF051092E2
:10144000FE051092FD059093DC059091DC05880F58
:10145000892B8093DC058091DB05813009F05EC02B
:101460001092DB058091DC058093BB008091BC006D
:1014700083FDF8CF85EC8093BC008091010681301C
:10148000E1F38091FE0591E0811102C09091FE058B
:10149000ADEDB5E0EBEBF5E080E0891341C01092D3
:1014A000BA058093B9058091E6069091E706DC01C4
:1014B000ED91FC910284F385E02D0995C82F682FEA
:1014C0006F76606180E00E9476016F2D8EEF0E9442
:1014D00076016C2F80E00E94760165E070E080E08C
:1014E00090E00E945D046C2F606A80E0CF91FF90D5
:1014F000EF90DF90CF90BF90AF909F908F900C9423
:101500007601C12CD12C20E8E22E2FE3F22E2ACF37
:10151000C12CD12C80E4E82EFE2C64CF85EEABCF1D
:101520002D9121938F5FB9CF1F920F920FB60F921B
:1015300011242F933F934F935F936F937F938F93D8
:101540009F93AF93BF93EF93FF9386E296E00E9441
:101550002102FF91EF91BF91AF919F918F917F9168
:101560006F915F914F913F912F910F900FBE0F9010
:101570001F9018951F920F920FB60F9211242F9360
:101580008F939F93EF93FF93E0913606F091370688
:101590008081E0913C06F0913D0682FD1BC0908168
:1015A00080913F068F5F8F7320914006821741F034
:1015B000E0913F06F0E0EA5DF94F958F80933F069A
:1015C000FF91EF919F918F912F910F900FBE0F90F0
:1015D0001F9018958081F4CF1F920F920FB60F9233
:1015E00011242F933F938F939F93AF93BF93809139
:1015F000B4059091B505A091B605B091B7053091AD
:10160000530523E0230F2D3758F50196A11DB11D79
:10161000209353058093B4059093B505A093B60528
:10162000B093B7058091540590915505A09156054A
:10163000B09157050196A11DB11D8093540590935B
:101640005505A0935605B0935705BF91AF919F9153
:101650008F913F912F910F900FBE0F901F90189573
:1016600026E8230F0296A11DB11DD2CF1F920F9223
:101670000FB60F9211242F933F934F935F936F9365
:101680007F938F939F93AF93BF93EF93FF93E091DB
:101690001901F0911A010995FF91EF91BF91AF9156
:1016A0009F918F917F916F915F914F913F912F917A
:1016B0000F900FBE0F901F9018951F920F920FB6AC
:1016C0000F9211242F933F934F935F936F937F93C8
:1016D0008F939F93AF93BF93EF93FF93E091170185
:1016E000F09118010995FF91EF91BF91AF919F91F2
:1016F0008F917F916F915F914F913F912F910F90BB
:101700000FBE0F901F9018951F920F920FB60F9259
:1017100011242F933F934F935F936F937F938F93F6
:101720009F93AF93BF93EF93FF938091B900887F0E
:10173000803609F44AC0F0F5883209F4A7C018F5DC
:10174000803109F49BC0B8F4882309F4F9C08830CB
:1017500009F494C0FF91EF91BF91AF919F918F9148
:101760007F916F915F914F913F912F910F900FBE9D
:101770000F901F901895883109F488C0803251F776
:101780008093FF0514C0803409F49DC040F4803379
:10179000B9F38833F9F68093FF0585ECB0C0803546
:1017A00009F485C0883509F496C0883499F60E94FA
:1017B0007D06D0CF883909F48CC038F5883729F0F8
:1017C00050F4883611F0803729F683E080930106C3
:1017D0001092520557C0883809F47BC0803919F03F
:1017E000803809F0B7CF80915205803208F071C07F
:1017F000E091520581E08E0F809352058091BB00ED
:10180000F0E0EE5CFA4F80833DC0803B39F0E0F4BD
:10181000803A09F479C0883A09F09CCF84E080933B
:1018200001061092310510923005E0915A05F091B1
:101830005B0509958091300581110FC081E080938F
:1018400030051092100509C0803C09F4A6CF883CF1
:1018500009F4A3CF883B09F07DCFE091310581E009
:101860008E0F80933105F0E0E05FFA4F8081809326
:10187000BB00909131058091300529C08091DC0535
:101880008093BB0085EC8093BC0064CF9091FE05F3
:101890008091FD05981758F5E091FE0581E08E0FC7
:1018A0008093FE05F0E0E352FA4F8081E9CFE091AA
:1018B000FE0581E08E0F8093FE058091BB00F0E075
:1018C000E352FA4F80839091FE058091FD059817B1
:1018D000C8F285E8D8CFE091FE0581E08E0F8093B5
:1018E000FE058091BB00F0E0E352FA4F80838091C7
:1018F000000681115CCF81E08093DB0584EA809350
:10190000BC001092010626CF85EC8093BC0010929B
:10191000010680915205803230F4E0915205F0E0EA
:10192000EE5CFA4F10826091520570E0E09158052C
:10193000F091590582E395E00995109252050ACF7E
:101940001092FF0534CFCF92DF92EF92FF920F9368
:101950001F93E82FF92F05C0015011092109310902
:1019600061F1908196239417B9F305C001501109D4
:101970002109310911F1908196239413F7CFC12CDD
:10198000D12CE12CF12C0AC08FEFC81AD80AE80A32
:10199000F80A0C151D052E053F0579F08081862378
:1019A000841791F36C2D7D2D8E2D9F2D1F910F91FE
:1019B000FF90EF90DF90CF90089560E070E080E0BE
:1019C00090E01F910F91FF90EF90DF90CF900895DE
:1019D000109229061092280688EE93E0A0E0B0E06D
:1019E00080932A0690932B06A0932C06B0932D0685
:1019F0002BEC34E0309327062093260625EC30E0CC
:101A0000309333062093320624EC30E030933506D1
:101A10002093340620EC30E03093370620933606CE
:101A200021EC30E0309339062093380622EC30E088
:101A300030933B0620933A0626EC30E030933D0687
:101A400020933C0610923F061092400610924106E9
:101A5000109242061092C6061092C5068093C706E1
:101A60009093C806A093C906B093CA068DED94E082
:101A70009093C4068093C30680E48093E50683ECCC
:101A800096E09093E7068093E6061092D0061092B7
:101A9000D7061092DE061092DF061092E006109232
:101AA000E10681E08093DD068093DA061092DB0682
:101AB00092E09093DC068093CF0688E190E09093CB
:101AC000D4068093D3060E9461179093D906809321
:101AD000D806009709F455C028E1FC0111922A9517
:101AE000E9F788E090E09093D2068093D10680E1F8
:101AF00090E09093D6068093D5068091D0068823F7
:101B000041F061E080E10E943E0360E080E10E94DC
:101B10000C03EEEBF0E0E491F0E0EE0FFF1FEC556C
:101B2000FF4F859194919093E3068093E206E0EA5B
:101B3000F0E0E491E093E40682E08093F90680937C
:101B4000F1068AE393E09093F0068093EF0660E05D
:101B500082E00E943E0362E070E080E00E948D001F
:101B60001092EE061092ED061092EC068091F906A6
:101B7000811110C08EE690E090931C0180931B01B0
:101B800008951092D4061092D3061092D2061092A5
:101B9000D106ADCF8CE291E0EFCFCF93DF93CDB7FD
:101BA000DEB72A970FB6F894DEBF0FBECDBF78948C
:101BB00084B5826084BD84B5816084BD85B5826052
:101BC00085BD85B5816085BD80916E008160809303
:101BD0006E0010928100809181008260809381006C
:101BE000809181008160809381008091800081607C
:101BF000809380008091B10084608093B1008091D7
:101C0000B00081608093B00080917A0084608093FE
:101C10007A0080917A00826080937A0080917A00C5
:101C2000816080937A0080917A00806880937A0046
:101C30001092C10061E08DE00E943E0360E08DE003
:101C40000E940C0361E081E10E943E0361E081E1BA
:101C50000E940C0362E08EE00E943E0361E08FE090
:101C60000E943E0361E088E00E943E0362E083E060
:101C70000E943E0362E084E00E943E0362E085E051
:101C80000E943E0362E086E00E943E038091D506FA
:101C90009091D60697FD08C061E00E943E0360E087
:101CA0008091D5060E940C0311E01093D0060E948B
:101CB0009F031092BA051092B90510920306109274
:101CC000250610920106109300061092DB0561E0D4
:101CD00082E10E940C0361E083E10E940C03809189
:101CE000B9008E7F8093B9008091B9008D7F809379
:101CF000B90088E48093B80085E48093BC0081EA51
:101D000091E090935B0580935A0582EA91E090936D
:101D100059058093580560E880E00E9476016AE0EA
:101D200070E080E090E00E945D0460E070E08AE78F
:101D300094E40E948E0980E498E7ADE7B1E08093D7
:101D4000E8069093E906A093EA06B093EB0660E0FC
:101D500070E088E492E40E948E0960E081E10E94D4
:101D60000C0388E0E3E3F1E0DE01119601900D92AF
:101D70008A95E1F761E0CE0101960E946D0860E866
:101D800070E0CB010E94900484E690E00E949D07E1
:101D9000E0913606F091370682E08083E0913206CA
:101DA000F09133061082E0913406F091350680E11F
:101DB000808310923E06E0913A06F0913B0686E061
:101DC0008083E0913806F0913906808180618083BC
:101DD000E0913806F0913906808188608083E09137
:101DE0003806F0913906808180688083E09138065A
:101DF000F091390680818F7D808347E150E06BEE62
:101E000074E086E296E00E94A30142E050E063E0C5
:101E100075E086E296E00E94A30186E296E00E94C9
:101E20000102181619060CF071C086E296E00E94B5
:101E3000DF01E091AE0591E09E0F9093AE05F0E0DA
:101E4000E658FA4F8083923009F48FC0933009F43A
:101E500090C0913041F424E0209316018F3F09F4A3
:101E60004FC01092AE05209116018091AE058217E9
:101E700008F446C0A6E6B5E0E0E11D92EA95E9F770
:101E800000917D05003240F530E1039FF0011124FF
:101E9000E953FD4F46E655E0BF01605F7F4F90E09C
:101EA00080E0A22EB12C11911123B1F0DA018D93B3
:101EB000AD01163409F470C00CF05FC0123409F49F
:101EC00067C0143409F46AC0DC011496AA16BB0674
:101ED000A8F06E177F0739F7093009F478C208F0C7
:101EE000B9C0043009F4F1C108F066C0023009F449
:101EF000CAC108F0DBC1013009F4B3C11092AE05CC
:101F00008091AE05843310F01092AE058091B40537
:101F10009091B505A091B605B091B7054091B00577
:101F20005091B1056091B2057091B305841B950B7A
:101F3000A60BB70B6C017D01E894F7F86091B8052A
:101F4000623009F440C4673009F43DC461114EC4E5
:101F500020E030E0232B09F460CF0E940D0288239B
:101F600009F45BCF0E94000058CF853509F079CF86
:101F70007ACF8D5F8093160176CF133559F0DC014F
:101F80001496133769F01C3409F09ECFCD019CCF15
:101F900001969ACF029698CF049696CF089694CF42
:101FA0009D0126583A4FD9010D900020E9F7821B78
:101FB000930B8A0F9B1F88CF063009F4A4C108F445
:101FC00093C1073009F4A3C1083009F097CFE0911D
:101FD0006605F0E0E658FA4F448000E0F12CD12C81
:101FE000C12C512C712C612CE12C10E0B12CA12CB6
:101FF0002C2C2094BFEFBF0DB987BEEF9B2E9F0CFA
:1020000088248394800E82E0382E300EEDEFEF0DA1
:10201000EA878091D1069091D206A816B90608F0F9
:10202000C4C1822D8E0D853508F0A4C1432D410F0A
:1020300050E070E060E0BA01552744278A85811B93
:10204000482BC5010E94AF00FFEFAF1ABF0A1D5F0A
:10205000EA94DFCF053109F469C210F50B3009F4B9
:102060003EC208F4BFC1033109F452C2043109F081
:1020700045CFE0916605F0E0E658FA4F61E08481D3
:102080000E943E03A0916705B0E0A658BA4FE091C8
:102090006605F0E0E658FA4F14966C91848143C2CD
:1020A000073109F46EC208F45AC2083109F47BC240
:1020B000003809F023CF8FEF90E00E94950285E56C
:1020C00090E00E94950286E090E00E94950280E8F0
:1020D00090E00E9495028091620590916305A09125
:1020E0006405B0916505892B8A2B8B2B09F41AC3E3
:1020F000E0906005F09061054CE2842E9924939461
:10210000A12CB12CF2E0EF16F10431F080901B010C
:1021100090901C01B12CA12C0E94B7040091620583
:10212000109163052091640530916505601B710B6A
:10213000820B930B681579058A059B0508F0BFC2D1
:10214000E114F10461F11092F8061092F706809103
:10215000EC0622E0E216F10409F066C2982F9770AF
:10216000905A9093F6068695869586958051990BA0
:1021700024E0880F991F2A95E1F79093F306809346
:10218000F2068091ED068F718051990B34E0880F33
:10219000991F3A95E1F79093F5068093F406109114
:1021A000F906112309F465C232E0E316F10409F0DF
:1021B00060C24091F2065091F3062091F4063091EE
:1021C000F506BA0157FF04C066277727641B750B15
:1021D000C90137FF04C088279927821B930B860FFC
:1021E000971F883291050CF465C2DA0157FD1196EC
:1021F000B595A795E1E0A217B3070CF0E0E0B901AF
:1022000037FF02C06F5F7F4F759567954617570779
:102210000CF4EE5FB90137FF02C06F5F7F4F759519
:102220006795719561957109461757070CF4EC5F36
:1022300066277727621B730BA617B7070CF4E85FB6
:10224000F0E0ED54FD4FE081E093F706E33709F449
:10225000FDC108F0F4C1E13709F42AC296958795CB
:10226000F6C1E0916705EC5FF0E0A0916605B0E093
:10227000A658BA4FE658FA4F9181808114966C9116
:102280000E94BC0810C0A0916705B0E0A658BA4FE4
:10229000E0916605F0E0E658FA4F14964C9164819F
:1022A00080E00E9473080E94810928CEA0916705F2
:1022B000B0E0A658BA4FE0916605F0E0E658FA4F54
:1022C00014964C91648181E0ECCFA0916705B0E059
:1022D000A658BA4FE0916605F0E0E658FA4F14961A
:1022E0004C91648182E0DDCFA0916705B0E0A658F3
:1022F000BA4FE0916605F0E0E658FA4F14964C911B
:10230000648183E0CECF60E088EC90E0B9CFE091CB
:102310006605F0E0E658FA4F84818330E9F050F426
:10232000813099F0823009F0BECF60E07FEF80E02D
:1023300090E00FC08530D1F0A0F0863009F0B3CF27
:1023400060E870E880E090E004C060E070E08FEF4B
:1023500090E00E949004A7CF6FEF70E080E090E0E3
:10236000F8CF60E070E880E890E0F3CF60E870E0DC
:10237000CB01EFCF8A3A60F4492D411B50E070E069
:1023800060E0762F652F542F4427882D810F58CE7B
:10239000412F400F50E070E060E0762F652F542F02
:1023A00044278985811B682B4CCE0E949F03C30163
:1023B000B2010E945D042FEFC21AD20A3DEFF30E64
:1023C0000D5FC11481E0D80609F00ECE6CCFE0910C
:1023D0006605EC5FF0E0E658FA4F918180810E943B
:1023E0009D0761CF8EE00E94E302019709F46DC062
:1023F00060E08FE00E940C0383E090E00197F1F72A
:1024000061E08FE00E940C0383E290E00197F1F716
:1024100060E08FE00E940C03EEE9F0E06491ECEBE9
:10242000F0E08491E82FF0E0EE0FFF1FEA57FF4F36
:102430008591949100E412E42FE030E0462F0E9451
:10244000A30C611571058105910529F06F5F7F4F20
:102450008F4F9F4F9F700E94B0156B017C0120E051
:1024600030E0A9010E9462161816A4F526E933E4AB
:102470004BE85CE3C701B6010E9467167B018C0143
:102480008FEF90E00E94950285E590E00E94950212
:1024900085E090E00E94900284E090E00E94950226
:1024A0006E2D86E296E00E9443026F2D86E296E052
:1024B0000E944302602F86E296E00E944302612F51
:1024C00086E296E00E94430219CDE12CF12C08EC43
:1024D00012E4D6CFE12CF12C00E010E0D1CFE09156
:1024E0006605F0E0E658FA4FE4818FEF8E0F21E0A9
:1024F000843050F4F0E0EE53FD4F80810E94E302FF
:1025000021E0892B09F020E0822F0E946909F6CC96
:1025100061E08DE00E943E03E0916605F0E0E65840
:10252000FA4F64818DE00E940C03BDCEE0916605F8
:10253000F0E0E658FA4F848161E0825F0E943E033A
:10254000E0916705F0E0E658FA4FA0916605B0E02B
:10255000A658BA4F14968C916481825FE4CFE091C3
:102560006605F0E0E658FA4F60E084810E943E0381
:10257000E0916605F0E0E658FA4F84810E94E3029C
:10258000C4CFE0916605F0E0E658FA4F848160E040
:10259000825F0E943E03E0916605F0E0E658FA4F44
:1025A0008481825FEBCFE0916605F0E0E658FA4F58
:1025B000848160E0825F0E943E03E0916605F0E066
:1025C000E658FA4F84819EE0980F9E3008F4892FD8
:1025D0008770806480937C0080917A00806480930F
:1025E0007A0080917A0086FDFCCF8091780000917E
:1025F0007900102F082F8FEF90E00E94950285E55B
:1026000090E00E94950283E090E00E94900282E0B8
:1026100090E00E949502C80199270E949002812FA4
:1026200090E00E9490026ACC8093F6061092F50624
:102630001092F4061092F3061092F206B0CDE43731
:1026400091F1E63709F00ACECB0101C0CA018F3FF4
:10265000910519F010F08FEF90E08093F80612309A
:1026600041F48091F606803621F48091F70680933C
:10267000F60610926105109260058091F60690E0D2
:102680000E9495020091F2061091F306C801992765
:102690000E949002812F90E00E9490020091F40627
:1026A0001091F506B8CF88279927841B950BCFCFBB
:1026B000C901CDCF1092F7061092F806D0CF8091C5
:1026C000F6068823B1F21092F8061092F7061092DF
:1026D000F5061092F4061092F3061092F20610928C
:1026E000F60681E090E09093610580936005E091AB
:1026F000EF06F091F006309711F080E00995109206
:1027000062051092630510926405109265050E949F
:10271000B70460935C0570935D0580935E059093AC
:102720005F05A7CF0E94B70400915C0510915D057D
:1027300020915E0530915F05DC01CB01801B910B80
:10274000A20BB30B2091EC063091ED06232B79F010
:1027500040911B0150911C0170E060E0481759073F
:102760006A077B0720F41092ED061092EC06E7E072
:10277000B695A79597958795EA95D1F70097A10506
:10278000B10509F476CF8F709927AA27BB27009748
:10279000A105B10551F4E091EF06F091F00681E05A
:1027A000309709F466CF099564CF0197A105B1056B
:1027B00009F05FCFE091EF06F091F006309709F451
:1027C00058CF80E0F0CFE0E2CE16EFEBDE06E2E09D
:1027D000EE06F10424F00E947D0760E003C090FF44
:1027E000FCCF61E08DE00E940C03B2CB2091780514
:1027F00030917905F901F695E795A0911401B09112
:1028000015014F018A0E9B1EB12CA12CC814D904AE
:10281000EA04FB040CF054C0A90170E060E0C416A7
:10282000D506E606F7060CF03FC0A7019601C701E2
:10283000B6010E94D41657E0660F771F881F991FB4
:102840005A95D1F720911001309111014091120158
:10285000509113010E94F81649015A0138E0E32E05
:1028600031E0F32E00E011E0D12CF701A1917F01BE
:10287000F80181918F01A81791F0B0E0E82FF0E006
:10288000AE1BBF0BA50194010E943717672F782F4D
:10289000892F99276E0F7F1F8D2D0E94C207D39419
:1028A000F8E0DF12E2CF54CBCE1ADF0AE108F108DC
:1028B0009E2D8D2D7C2D66279D0150E040E0CACFD6
:1028C0006430D1F070F4613029F1633009F040CB0D
:1028D000809176059091770564E008960E94020841
:1028E00037CB653081F0663009F032CB63E0809100
:1028F000760590917705F2CF8091760590917705D6
:1029000065E04096EBCF809176059091770566E083
:102910004896E4CF0E947D071BCB8091D80690910A
:10292000D9060E94FD178091D5069091D60697FD95
:1029300003C060E00C943E0308955058BB27AA27BB
:102940000E94B5140C9428160E941A1638F00E94A2
:10295000211620F039F49F3F19F426F40C94171631
:102960000EF4E095E7FB0C941116E92F0E9439163E
:1029700058F3BA17620773078407950720F079F4B4
:10298000A6F50C945B160EF4E0950B2EBA2FA02D35
:102990000B01B90190010C01CA01A0011124FF270C
:1029A000591B99F0593F50F4503E68F11A16F04007
:1029B000A22F232F342F4427585FF3CF4695379506
:1029C0002795A795F0405395C9F77EF41F16BA0BCB
:1029D000620B730B840BBAF09150A1F0FF0FBB1F79
:1029E000661F771F881FC2F70EC0BA0F621F731FC2
:1029F000841F48F4879577956795B795F7959E3F1F
:102A000008F0B0CF9395880F08F09927EE0F9795AF
:102A1000879508950E94ED1508F481E008950E94BD
:102A200023150C9428160E94211658F00E941A169D
:102A300040F029F45F3F29F00C94111651110C94C9
:102A40005C160C9417160E94391668F39923B1F39B
:102A5000552391F3951B550BBB27AA2762177307C4
:102A6000840738F09F5F5F4F220F331F441FAA1F58
:102A7000A9F335D00E2E3AF0E0E832D09150504014
:102A8000E695001CCAF72BD0FE2F29D0660F771FC2
:102A9000881FBB1F261737074807AB07B0E809F0A8
:102AA000BB0B802DBF01FF2793585F4F3AF09E3F2D
:102AB000510578F00C9411160C945C165F3FE4F30A
:102AC000983ED4F3869577956795B795F7959F5F70
:102AD000C9F7880F911D9695879597F90895E1E0BC
:102AE000660F771F881FBB1F621773078407BA071B
:102AF00020F0621B730B840BBA0BEE1F88F7E09576
:102B000008950E94411688F09F5798F0B92F992791
:102B1000B751B0F0E1F0660F771F881F991F1AF0C8
:102B2000BA95C9F714C0B13091F00E945B16B1E0BC
:102B300008950C945B16672F782F8827B85F39F0BB
:102B4000B93FCCF3869577956795B395D9F73EF461
:102B500090958095709561957F4F8F4F9F4F089509
:102B6000E89409C097FB3EF4909580957095619527
:102B70007F4F8F4F9F4F9923A9F0F92F96E9BB27DD
:102B80009395F695879577956795B795F111F8CF59
:102B9000FAF4BB0F11F460FF1BC06F5F7F4F8F4FC4
:102BA0009F4F16C0882311F096E911C0772321F0BA
:102BB0009EE8872F762F05C0662371F096E8862F52
:102BC00070E060E02AF09A95660F771F881FDAF7A9
:102BD000880F9695879597F90895990F0008550FD6
:102BE000AA0BE0E8FEEF16161706E807F907C0F093
:102BF00012161306E407F50798F0621B730B840B9B
:102C0000950B39F40A2661F0232B242B252B21F474
:102C100008950A2609F4A140A6958FEF811D811D14
:102C2000089597F99F6780E870E060E008959FEF4E
:102C300080EC089500240A94161617061806090653
:102C4000089500240A941216130614060506089522
:102C5000092E0394000C11F4882352F0BB0F40F4AA
:102C6000BF2B11F460FF04C06F5F7F4F8F4F9F4FEA
:102C7000089557FD9058440F551F59F05F3F71F06C
:102C80004795880F97FB991F61F09F3F79F08795D3
:102C90000895121613061406551FF2CF4695F1DF5C
:102CA00008C0161617061806991FF1CF86957105EC
:102CB000610508940895E894BB2766277727CB0120
:102CC00097F908950E94ED1508F48FEF08950E947A
:102CD0007A160C9428160E941A1638F00E942116B3
:102CE00020F0952311F00C9411160C941716112452
:102CF0000C945C160E94391670F3959FC1F3950FE2
:102D000050E0551F629FF001729FBB27F00DB11D6F
:102D1000639FAA27F00DB11DAA1F649F6627B00DFF
:102D2000A11D661F829F2227B00DA11D621F739FE8
:102D3000B00DA11D621F839FA00D611D221F749FF6
:102D40003327A00D611D231F849F600D211D822F3D
:102D5000762F6A2F11249F5750409AF0F1F0882364
:102D60004AF0EE0FFF1FBB1F661F771F881F915091
:102D70005040A9F79E3F510580F00C9411160C9419
:102D80005C165F3FE4F3983ED4F38695779567959C
:102D9000B795F795E7959F5FC1F7FE2B880F911DBB
:102DA0009695879597F90895DB018F939F930E94DD
:102DB0002C17BF91AF91A29F800D911DA39F900DE5
:102DC000B29F900D11240895AA1BBB1B51E107C0AF
:102DD000AA1FBB1FA617B70710F0A61BB70B881FAB
:102DE000991F5A95A9F780959095BC01CD0108953A
:102DF000052E97FB1EF400940E940F1757FD07D075
:102E00000E943F1707FC03D04EF40C940F17509507
:102E10004095309521953F4F4F4F5F4F08959095C6
:102E20008095709561957F4F8F4F9F4F0895EE0F5E
:102E3000FF1F0590F491E02D0994A29FB001B39F6C
:102E4000C001A39F700D811D1124911DB29F700DB3
:102E5000811D1124911D08950E941D17A59F900D9D
:102E6000B49F900DA49F800D911D11240895B7FF6C
:102E70000C942C170E942C17821B930B0895A1E22F
:102E80001A2EAA1BBB1BFD010DC0AA1FBB1FEE1FE4
:102E9000FF1FA217B307E407F50720F0A21BB30B2F
:102EA000E40BF50B661F771F881F991F1A9469F7AB
:102EB00060957095809590959B01AC01BD01CF0107
:102EC00008950F931F93CF93DF938230910510F4F1
:102ED00082E090E0E091FC06F091FD0630E020E019
:102EE000B0E0A0E0309799F42115310509F44AC00B
:102EF000281B390B24303105D8F58A819B81611557
:102F0000710589F1FB0193838283FE0111C0408129
:102F100051810281138148175907E0F0481759077A
:102F200099F4109761F012960C93129713961C93D4
:102F30003296CF01DF91CF911F910F9108950093A9
:102F4000FC061093FD06F4CF2115310551F0421710
:102F5000530738F0A901DB019A01BD01DF01F80137
:102F6000C1CFEF01F9CF9093FD068093FC06CDCF42
:102F7000FE01E20FF31F81939193225031093983AF
:102F80002883D7CF2091FA063091FB06232B41F4FA
:102F900020911F01309120013093FB062093FA0607
:102FA00020911D0130911E012115310541F42DB7ED
:102FB0003EB74091210150912201241B350BE09135
:102FC000FA06F091FB06E217F307A0F42E1B3F0B65
:102FD0002817390778F0AC014E5F5F4F241735078B
:102FE00048F04E0F5F1F5093FB064093FA06819303
:102FF00091939FCFF0E0E0E09CCFCF93DF930097D9
:10300000E9F0FC01329713821282A091FC06B09184
:10301000FD06ED0130E020E01097A1F42081318120
:10302000820F931F2091FA063091FB06281739076B
:1030300009F061C0F093FB06E093FA06DF91CF91AF
:103040000895EA01CE17DF07E8F54A815B819E010A
:1030500041155105B1F7E901FB83EA834991599183
:10306000C40FD51FEC17FD0761F480819181029692
:10307000840F951FE90199838883828193819B83C3
:103080008A83F0E0E0E012968D919C91139700976F
:10309000B9F52D913C911197CD010296820F931FA6
:1030A0002091FA063091FB062817390739F6309738
:1030B00051F51092FD061092FC06B093FB06A0930A
:1030C000FA06BCCFD383C28340815181840F951F00
:1030D000C817D90761F44E5F5F4F88819981480F07
:1030E000591F518340838A819B8193838283211559
:1030F000310509F0B0CFF093FD06E093FC069ECFBA
:10310000FD01DC01C0CF13821282D7CF10E0C2E6EE
:10311000D0E004C0FE010E9417172196C336D107E4
:06312000C9F7F894FFCF8F
:103126004655445A5A5A5A5A4655445A5A5A5A5A57
:1031360001000000C800047C067C066E000000FE4C
:103146000680000100050403020706FFFFFFFFFFDC
:10315600FFFFFF4655445A5A5A5A5A3AFF37FF69F3
:10316600FF67FF82FF82FF14FF14FF3AFF82FF69A9
:10317600FF14FF82FF37FF14FF67FF3AFF37FF1484
:10318600FF14FF82FF82FF69FF67FF3AFF37FF697F
:10319600FF67FF82FF82FF14FF14FF3AFF37FF69C4
:1031A600FF67FF82FF82FF14FF14FF82FF82FF6921
:1031B600FF67FF3AFF37FF14FF14FF82FF82FF69A4
:1031C600FF67FF3AFF37FF14FF14FF3AFF37FF6927
:1031D600FF67FF3AFF82FF69FF14FF3AFF37FF6977
:1031E600FF67FF3AFF82FF69FF14FFFF5AFF6EFF7A
:1031F60050FF3C50FF37FF69FF50FFFF3CFF50FF79
:103206006EFF5A3AFF4BFF50FF67FFFF5AFF6EFFF4
:1032160050FF3C3AFF4BFF50FF67FFFF3CFF50FF5C
:103226006EFF5A50FF37FF69FF50FFFF5AFF50FFEE
:1032360050FF5A50FF37FF69FF50FFFF3CFF6EFFFC
:103246006EFF3C3AFF4BFF50FF67FFFF5AFF50FFF0
:1032560050FF5A3AFF4BFF50FF67FFFF3CFF6EFFE0
:103266006EFF3C50FF37FF69FF50FFFF5AFF50FFCC
:103276006EFF3C3AFF4BFF50FF67FFFF3CFF6EFFC0
:1032860050FF5A50FF37FF69FF50FFFF5AFF50FFAC
:103296006EFF3C50FF37FF69FF50FFFF3CFF6EFF9C
:1032A60050FF5A3AFF4BFF50FF67FFFFFFFFFFFF3C
:1032B600FFFFFF4655445A5A5A5A5A3A3C37506904
:1032C6006E675A505A4B6E5050503C8255825A1473
:1032D6005A145A737000710000007275000000766F
:1032E60000777403040506000000000000000000DB
:1032F6000000000000000042530000000000000033
:103306000000000000000042420000000000000033
:103316000000000000000042420000000000000023
:103326000000000000000042420000000000000013
:103336000000000000000042420000000000000003
:103346000000000000000000000000000000000077
:103356000000000000000042000000000000000025
:103366000000000000000042000000000000000015
:1033760000000000000000530000000000000000F4
:103386000000000000000000000000000000000037
:1033960000000000000000420000000000000000E5
:1033A6000000000000000000000000000000000017
:1033B6000000000000000000000000000000000007
:1033C60000000000000000000000000000000000F7
:1033D60000000000000000000000000000000000E7
:1033E60000000000000000000000000000000000D7
:1033F60000000000000000000000000000000000C7
:1034060000000000000000000000000000000000B6
:103416000000000000000042000000000000000064
:103426000000000000000042420000000000000012
:103436000000000000000042420000000000000002
:103446000000000000000042000000000000000034
:103456000000000000000042000000000000000024
:103466000000000000000042000000000000000014
:103476000000000000000000000000000000000046
:103486000000000000000000000000000000000036
:103496000000000000000000000000000000000026
:1034A6000000000000000000000000000000000016
:1034B6000000000000000000000000000000000006
:1034C60000000000000000000000000000000000F6
:1034D60000000000000000000000000000000000E6
:1034E60000000000000000000000004302A301D01D
:1034F600019A020102DF01F301000000000507D86E
:10350600063407AE06D106BE06AF065043206D6FE1
:1035160064653A2051756164437261776C657231F6
:063526002E31000D0A0029
:00000001FF
