:100000000C9424010C944C010C944C010C944C0164
:100010000C944C010C944C010C944C010C947A0AF5
:100020000C944C010C944C010C944C010C944C011C
:100030000C944C010C944C010C944C010C944C010C
:100040000C94540B0C944C010C94220B0C94FC0A51
:100050000C944C010C944C010C944C010C944C01EC
:100060000C949E0B0C944C0100000000240027000F
:100070002A000000000023002600290000000008DC
:10008000000201000003040700000000000000005F
:10009000025043206D6F64653A20756E6F20312EDB
:1000A00030000102040810204080010204081020E2
:1000B00001020408102000000000250028002B0089
:1000C00004040404040404040202020202020303FE
:1000D0000303030300000000000000000000000014
:1000E0000000000000000000000000000000000010
:1000F000000000007373000000000000000000001A
:1001000000000000000000000000000000000000EF
:1001100000000000000000000000000000000000DF
:10012000000000004242000000000000000000004B
:10013000000000004262000000000000000000001B
:1001400000000000426242000000000000000000C9
:10015000000000004242000000000000000000001B
:10016000000000000000000000000000000000008F
:10017000000000006200000000000000000000001D
:10018000000000004200000000000000000000002D
:1001900000000000425300000000000000000000CA
:1001A0000000000042535300000000000000000067
:1001B00000000000620000000000000000000000DD
:1001C000000000004262000000000000000000008B
:1001D0000000000053426200000000000000000028
:1001E000000000000000000000000000000000000F
:1001F000000000004242000000000000000000007B
:100200000000000053530000000000000000000048
:100210000000000042534200000000000000000007
:10022000000000004200000000000000000000008C
:10023000000000004C420000000000000000000030
:1002400000000000BD0CAE1211241FBECFEFD8E09D
:10025000DEBFCDBF11E0A0E0B1E0E4E4F9E202C00E
:1002600005900D92A635B107D9F724E0A6E5B1E0D7
:1002700001C01D92A230B207E1F711E0C3E2D1E064
:1002800004C02197FE010E943913C232D107C9F779
:100290000E940F0D0C9495140C940000089508957D
:1002A000AF92BF92CF92DF92EF92FF920F931F9384
:1002B000CF93DF936C017B018B01040F151FEB01C2
:1002C0005E01AE18BF08C017D10759F06991D60179
:1002D000ED91FC910190F081E02DC6010995892BEB
:1002E00079F7C501DF91CF911F910F91FF90EF90AA
:1002F000DF90CF90BF90AF900895FC01538D448D57
:10030000252F30E0842F90E0821B930B541710F0C0
:10031000CF96089501970895FC01918D828D9817CD
:1003200061F0A28DAE0FBF2FB11D5D968C91928DA5
:100330009F5F9F73928F90E008958FEF9FEF0895D6
:10034000FC01918D828D981731F0828DE80FF11D9F
:10035000858D90E008958FEF9FEF0895FC01918DBA
:10036000228D892F90E0805C9F4F821B91098F73B3
:10037000992708958FE393E00E94AE0121E0892B35
:1003800009F420E0822F089580E090E0892B29F085
:100390000E94BA0181110C9400000895FC01A48D03
:1003A000A80FB92FB11DA35ABF4F2C91848D90E097
:1003B00001968F739927848FA689B7892C93A0897A
:1003C000B1898C91837080648C93938D848D981304
:1003D00006C00288F389E02D80818F7D8083089597
:1003E000EF92FF920F931F93CF93DF93EC0181E085
:1003F000888F9B8D8C8D98131AC0E889F98980812C
:1004000085FF15C09FB7F894EE89FF896083E8895E
:10041000F98980818370806480839FBF81E090E050
:10042000DF91CF911F910F91FF90EF900895F62EDD
:100430000B8D10E00F5F1F4F0F731127E02E8C8D77
:100440008E110CC00FB607FCFACFE889F9898081BC
:1004500085FFF5CFCE010E94CE01F1CFEB8DEC0FE1
:10046000FD2FF11DE35AFF4FF0829FB7F8940B8FD9
:10047000EA89FB8980818062CFCFCF93DF93EC0143
:10048000888D8823B9F0AA89BB89E889F9898C917C
:1004900085FD03C0808186FD0DC00FB607FCF7CF38
:1004A0008C9185FFF2CF808185FFEDCFCE010E9438
:1004B000CE01E9CFDF91CF910895833081F028F408
:1004C000813099F08230A9F008958730A9F0883002
:1004D000C9F08430B1F4809180008F7D03C0809199
:1004E00080008F7780938000089584B58F7784BDD6
:1004F000089584B58F7DFBCF8091B0008F77809376
:10050000B00008958091B0008F7DF9CFCF93DF9335
:10051000282F30E0F901E458FF4F8491F901EE559E
:10052000FF4FD491F901E054FF4FC491CC23A1F0C7
:1005300081110E945D02EC2FF0E0EE0FFF1FEE58DC
:10054000FF4FA591B491EC91ED2381E090E009F487
:1005500080E0DF91CF91089580E090E0FACF1F9383
:10056000CF93DF93282F30E0F901E458FF4F8491B7
:10057000F901EE55FF4FD491F901E054FF4FC491BA
:10058000CC23A9F0162F81110E945D02EC2FF0E020
:10059000EE0FFF1FEA54FF4FA591B4918FB7F89467
:1005A000EC91111108C0D095DE23DC938FBFDF9151
:1005B000CF911F910895DE2BF8CFCF93DF9390E07A
:1005C000FC01EE55FF4F249180549F4FFC01849114
:1005D0008823C9F090E0880F991FFC01E859FF4F6C
:1005E000A591B491FC01EA54FF4FC591D4916111DA
:1005F0000DC09FB7F8948C91209582238C938881AD
:10060000282328839FBFDF91CF910895623051F452
:100610009FB7F8943C91822F809583238C93E88137
:100620002E2BEFCF8FB7F894EC912E2B2C938FBFFE
:10063000EACF1F93CF93DF93182FEB0161E00E9465
:10064000DD02209739F460E0812FDF91CF911F9177
:100650000C94AF02CF3FD10511F461E0F5CFE12F4B
:10066000F0E0E458FF4FE491E33031F140F4E13041
:10067000B1F0E230E1F0C038D1057CF7E4CFE730EB
:1006800029F1E83059F1E430B1F7809180008062BF
:1006900080938000D0938B00C0938A0004C084B5FF
:1006A000806884BDC7BDDF91CF911F91089584B547
:1006B000806284BDC8BDF7CF809180008068809340
:1006C0008000D0938900C0938800EDCF8091B00066
:1006D00080688093B000C093B300E5CF8091B000F4
:1006E00080628093B000C093B400DDCF3FB7F89430
:1006F0008091C9019091CA01A091CB01B091CC0128
:1007000026B5A89B05C02F3F19F00196A11DB11D6C
:100710003FBFBA2FA92F982F8827BC01CD01620FA8
:10072000711D811D911D42E0660F771F881F991F63
:100730004A95D1F708958F929F92AF92BF92CF9230
:10074000DF92EF92FF926B017C010E9476034B01D6
:100750005C01C114D104E104F104B9F00E947603F4
:10076000681979098A099B09683E734081059105DA
:1007700080F321E0C21AD108E108F10888EE880E62
:1007800083E0981EA11CB11CE4CFFF90EF90DF9096
:10079000CF90BF90AF909F908F9008952091A1012E
:1007A000260F3327331F21323105ECF42091150237
:1007B000FC0190E080E0243069F082E00895A0918F
:1007C000A1012191AC014F575E4FA40FB52FB11D70
:1007D0002C930196861798F38091A101680F60937E
:1007E000A10180E0089581E008951092150281E052
:1007F000809314021092EF0161E082E10E94AF0247
:1008000061E083E10E94AF02E9EBF0E080818E7F3E
:10081000808380818D7F808388E48093B80085E425
:100820008093BC000895CF93DF9391E09093800173
:100830008823B9F0C091B800D091BA008091BC0073
:100840008A7B8093BC0060E082E10E94AF0260E09E
:1008500083E10E94AF020E94F503D093BA00C093D7
:10086000B800DF91CF9108958F929F92AF92BF927F
:10087000CF92DF92EF92FF920F931F93CF93DF936C
:10088000D0913E02D13208F0D7C0182FC0913D025E
:100890000E9476036B017C018091150281116BC06F
:1008A00082E080931502109314028FEF809313025D
:1008B00010921202D0931102ADE1B2E0E1EFF1E04B
:1008C00080E0D81391C01092F0018091F001CC0F1C
:1008D000C82BC093F0018091EF01813009F088C0EE
:1008E0001092EF010E9476036B017C018091F00170
:1008F0008093BB008091170290911802A091190279
:10090000B0911A02892B8A2B8B2BA1F00E947603BF
:1009100000911702109118022091190230911A02C9
:100920006C197D098E099F090617170728073907D3
:1009300008F442C08091BC0083FDD8CF85EC809341
:10094000BC000E9476036B017C018091150282300D
:1009500009F450C0809113028F3F09F46FC0809159
:100960001302803209F46CC080911302803309F4C1
:1009700069C084E026C08091170290911802A0916E
:100980001902B0911A02892B8A2B8B2B09F484CF80
:100990000E9476038090170290901802A09019028E
:1009A000B0901A026C197D098E099F098616970668
:1009B000A806B90608F070CF809116020E941304B1
:1009C00085E010921C0210923E0210921B02DF91F1
:1009D000CF911F910F91FF90EF90DF90CF90BF903C
:1009E000AF909F908F9008959D9191938F5F69CF65
:1009F00085EEA5CF8091170290911802A09119025F
:100A0000B0911A02892B8A2B8B2B09F49ECF0E945E
:100A1000760300911702109118022091190230916B
:100A20001A026C197D098E099F09061717072807F6
:100A3000390708F08ACFC0CF81E0C3CF80E0C1CFB3
:100A400082E0BFCF83E0BDCF0895E091DA018091CD
:100A5000D901E81730F4F0E0E05AFE4F808190E0D1
:100A600008958FEF9FEF08959091DA018091D90159
:100A70002FEF3FEF981748F4E92FF0E0E05AFE4FD0
:100A8000208130E09F5F9093DA01C9010895809141
:100A9000D9019091DA01891B990B0895CF92DF92C9
:100AA000EF92FF920F931F93CF93DF937C01CB01C3
:100AB0008A0120911B02222389F0EB016B01C40EF5
:100AC000D51ECC15DD0569F06991D701ED91FC913A
:100AD0000190F081E02DC7010995F3CF642F0E94AA
:100AE000CE03C801DF91CF911F910F91FF90EF903E
:100AF000DF90CF900895CF93DF931F92CDB7DEB7ED
:100B0000698320911B022223F9F020913E022032BA
:100B100058F021E030E0FC013383228390E080E054
:100B20000F90DF91CF91089580911C02E82FF0E0A3
:100B3000E35EFD4F998190838F5F80931C028093C9
:100B40003E0281E090E0ECCF61E0CE0101960E9490
:100B5000CE03F7CF90E080E00895E82FF0E0E35275
:100B6000FE4FE081EC5FF0E0E15CFD4F9181808120
:100B700008952F923F924F925F926F927F928F9241
:100B80009F92AF92BF92CF92DF92EF92FF920F931C
:100B90001F93CF93DF9300D000D01F92CDB7DEB765
:100BA0008B011A012A01550F660877089091000100
:100BB0008917F1F09F3F09F483C0C301B2010F9080
:100BC0000F900F900F900F90DF91CF911F910F9189
:100BD000FF90EF90DF90CF90BF90AF909F908F905D
:100BE0007F906F905F904F903F902F900C949B035D
:100BF000E0E9F0E094919D8397FDDFCF61E00E94F2
:100C0000DD028D81882321F09D81923009F04AC157
:100C10004801B12CA12C60E072E18AE790E0A501C7
:100C200098010E94F41229833A834B835C83690103
:100C30007A0181E0C81AD108E108F1089FEFC916CE
:100C4000D104E104F10409F00CF401C160E472E4A0
:100C50008FE090E0A50198010E94F41269017A01E9
:100C600081E0C81AD108E108F1089D81923009F0AD
:100C7000A2C08FEFC816D104E104F10409F00CF40E
:100C8000E5C160E970ED83E090E0A50198010E9464
:100C9000F41269017A0191E0C91AD108E108F1085A
:100CA0008FEFC816D104E104F10411F00CF07EC1FD
:100CB00083E09091B100987F892B8093B100CFC0E1
:100CC00080930001E0E9F0E094919D839F3F09F457
:100CD00074CF913041F150F0923009F446C09D81BB
:100CE00097FD6BCF61E00E94DD028ECF14BC15BC76
:100CF00094B5926094BD95B5916095BD282F30E074
:100D0000F901E054FF4FE491F0E0EE0FFF1FEA54C9
:100D1000FF4F45915491F901EE55FF4FE491E09357
:100D200057011D826BCF109280001092810090912C
:100D300081009860909381009091810091609093E0
:100D40008100282F30E0F901E054FF4FE491F0E0FA
:100D5000EE0FFF1FEA54FF4F45915491F901EE55F4
:100D6000FF4FE491E093560149CF1092B0001092EA
:100D7000B1009091B00092609093B0009091B1005A
:100D800091609093B100282F30E0F901E054FF4FBB
:100D9000E491F0E0EE0FFF1FEA54FF4F45915491AC
:100DA0005093CE014093CD01F901EE55FF4FE491F0
:100DB000E093CF0123CF9FEFC916D104E104F104E2
:100DC00009F00CF46DC068E478EE81E090E0A501D4
:100DD00098010E94F41269017A0181E0C81AD108D1
:100DE000E108F1089D81992309F4F9C08FEFC81635
:100DF000D104E104F10411F00CF0FAC0EEC064E299
:100E000074EF80E090E0A50194010E94F412690162
:100E10007A0181E0C81AD108E108F10885E09FEF66
:100E2000C916D104E104F10409F008F442CF62E1EB
:100E30007AE780E090E0A50194010E94F412690134
:100E40007A0181E0C81AD108E108F108E4C081E024
:100E50009D8191112ECF95B5987F892B85BD2FEF60
:100E60003FEFA901411451046104710409F043C02A
:100E70009D81913009F45DC0923009F46CC09111EC
:100E80009CCEC7BC20935C0130935D0140935E0112
:100E900050935F0180916E00826080936E008DCED2
:100EA00082E0D6CFB12CA12C60E072E18AE790E01D
:100EB000A50198010E94F41269017A0181E0C81A23
:100EC000D108E108F108C114D10491E0E906F10468
:100ED000FCF491E08D81813011F680918100887F52
:100EE000892B809381002FEF3FEFA901411451041A
:100EF00061047104F1F09801220F331FD1010E94A7
:100F0000131328EE33E040E050E00E94D212B0CF3D
:100F100068E478EE81E090E0A50198010E94F41267
:100F200069017A0181E0C81AD108E108F10893E06B
:100F3000D1CFD0928900C09288002093580130937D
:100F4000590140935A0150935B0180916F00826078
:100F500080936F0032CEC092B3002093D0013093C3
:100F6000D1014093D2015093D301809170008260EF
:100F70008093700022CE84E09FEFC916D104E10473
:100F8000F10409F008F467CFC980DA80EB80FC80B7
:100F90008AE0F594E794D794C7948A95D1F781E0D5
:100FA000C81AD108E108F10885E055CF68E478EE69
:100FB00081E090E0A50198010E94F41269017A0194
:100FC00081E0C81AD108E108F1089FEFC916D104E1
:100FD000E104F10411F00CF012CF84E06ACE83E05A
:100FE0009FEFC916D104E104F10409F00CF433CFEA
:100FF00062E17AE780E090E0A50194010E94F4129A
:1010000069017A0181E0C81AD108E108F1089D81DF
:10101000992309F4B0CF86E09FEFC916D104E1040B
:10102000F10409F008F445CEC980DA80EB80FC8039
:101030009AE0F594E794D794C7949A95D1F781E014
:10104000C81AD108E108F10887E033CE82E031CE3A
:10105000CF92DF92EF92FF920F931F93CF93C82FFF
:101060008B0160E00E94DD020115110511F401E021
:1010700010E082EF8C0FCE3008F48C2F8770482F51
:10108000406460E070E0CB0130E020E040937C0001
:1010900050917A00506450937A0050917A0056FD36
:1010A000FCCFC0907800D09079000D2C000CEE0899
:1010B000FF086C0D7D1D8E1D9F1D2F5F3F4F20175C
:1010C000310721F750E040E00E94D212A1E7B2E0E0
:1010D0000E941A13DC01CB0127E0B695A7959795DE
:1010E00087952A95D1F7CF911F910F91FF90EF909F
:1010F000DF90CF900895AB012091D401213029F4E5
:10110000BC018FE393E00C9450010895EFE3F2E00B
:101110002FEF208325E5218323E0228322E0238310
:101120008483958366E070E0CF010C947B08EFE345
:10113000F2E09FEF908395E5918392E0928391E0B6
:101140009383848365E070E0CF010C947B08EFE328
:10115000F2E08FEF808385E58183128263E070E0A7
:10116000CF010C947B080F931F93CF93DF93815093
:101170008630F8F4162FC82FD0E0CC0FDD1FC75FE4
:10118000DE4F088161E0802F0E94DD02612F802FF9
:101190000E94AF02C981CC2361F061E08C2F0E94D4
:1011A000DD0260E08C2FDF91CF911F910F910C94A5
:1011B000AF02DF91CF911F910F9108951F93CF93AD
:1011C000DF93182FC82FD0E0AE016FE372E084E404
:1011D00092E00E947314EFE3F2E08FEF808385E5E5
:1011E000818382E0810F828387E083831483BE0141
:1011F0006B5F7F4FCF01DF91CF911F910C947B08E4
:10120000EF92FF920F931F93CF93DF93EC017B013B
:1012100089859A850E94EA139E858B85981701F12E
:1012200084E090E08E9D80018F9D100D9E9D100D9D
:1012300011241D830C83C8010E944E139A8789874D
:10124000009789F0A80170E060E00E948514FB829D
:10125000EA82DF91CF911F910F91FF90EF90089557
:1012600083E090E0DFCF1D821C821B821A82F1CFC7
:1012700085ED8093BC008091170290911802A09197
:101280001902B0911A020796A11DB11D23E0B6956F
:10129000A795979587952A95D1F72091BC0024FDB5
:1012A00003C0109215020895409117025091180240
:1012B0006091190270911A02452B462B472B69F356
:1012C0000097A105B10541F02AE22A95F1F700C087
:1012D0000197A109B109E1CF809116020C94130482
:1012E0004F925F926F927F928F929F92AF92BF9236
:1012F000CF92DF92EF92FF920F931F93CF93DF93E2
:101300007C018B01D62F0E9476034B015C018091FA
:10131000150281116AC0C02FD13208F0C0E281E00D
:1013200080931502809314029FEF90931302109202
:1013300012029C0F909311028093F0018091F001B2
:10134000EE0CFF1C8E298093F0018091EF0181301B
:1013500009F087C01092EF010E9476036B017C01B7
:101360008091F0018093BB00809117029091180248
:10137000A0911902B0911A02892B8A2B8B2BA1F014
:101380000E9476038090170290901802A090190294
:10139000B0901A026C197D098E099F09861697066E
:1013A000A806B90608F442C08091BC0083FDD8CFDE
:1013B00085EC8093BC000E9476036B017C018091D8
:1013C0001502813009F44FC0809112028C1710F47D
:1013D000C0911202A1EFB1E0E0E6F1E080E08C17ED
:1013E00051F19D9191938F5FFACF80911702909167
:1013F0001802A0911902B0911A02892B8A2B8B2B0B
:1014000009F485CF0E94760340901702509018028D
:101410006090190270901A02681979098A099B096B
:10142000461657066806790608F071CF80911602B5
:101430000E941304C0E01092DA01C093D901C017D2
:1014400011069CF1CFE3D2E0C801815C9D4F7C0185
:10145000CE15DF05E1F18CED93E00E943405899310
:10146000F7CF85EEA6CF8091170290911802A09138
:101470001902B0911A02892B8A2B8B2B09F49FCF6A
:101480000E9476038090170290901802A090190293
:10149000B0901A026C197D098E099F09861697066D
:1014A000A806B90608F08BCFC1CFDF91CF911F916D
:1014B0000F91FF90EF90DF90CF90BF90AF909F90F3
:1014C0008F907F906F905F904F900C94A708802F23
:1014D000DF91CF911F910F91FF90EF90DF90CF9010
:1014E000BF90AF909F908F907F906F905F904F9044
:1014F0000C94DE081F920F920FB60F9211242F93B7
:101500003F934F935F936F937F938F939F93AF938B
:10151000BF93EF93FF938091D0019091D101A0915F
:10152000D201B091D301892B8A2B8B2BD1F19091D1
:10153000CF01E091CD01F091CE0180818927808398
:101540008091D0019091D101A091D201B091D301AD
:10155000181619061A061B069CF48091D00190916A
:10156000D101A091D201B091D3010197A109B10994
:101570008093D0019093D101A093D201B093D30175
:10158000FF91EF91BF91AF919F918F917F916F915B
:101590005F914F913F912F910F900FBE0F901F9031
:1015A000189580910001E0E9F0E0E4919FEF9093BD
:1015B0000001E13051F030F0E23069F060E00E946B
:1015C000AF02DECF10926E00F9CF90916F009D7F39
:1015D00090936F00F3CF909170009D7F9093700077
:1015E00091E09093B0009091B100987F94609093B7
:1015F000B1001092B300E2CF1F920F920FB60F927C
:1016000011242F933F934F935F936F937F938F9307
:101610009F93AF93BF93EF93FF938FE393E00E9469
:10162000CE01FF91EF91BF91AF919F918F917F91EB
:101630006F915F914F913F912F910F900FBE0F903F
:101640001F9018951F920F920FB60F9211242F938F
:101650008F939F93EF93FF93E0914F03F09150038B
:101660008081E0915503F091560382FD1BC090816B
:10167000809158038F5F8F7320915903821741F037
:10168000E0915803F0E0E15CFC4F958F80935803A4
:10169000FF91EF919F918F912F910F900FBE0F901F
:1016A0001F9018958081F4CF1F920F920FB60F9262
:1016B00011242F933F938F939F93AF93BF93809168
:1016C000C5019091C601A091C701B091C8013091A8
:1016D000C40123E0230F2D3758F50196A11DB11D3C
:1016E0002093C4018093C5019093C601A093C701C4
:1016F000B093C8018091C9019091CA01A091CB011A
:10170000B091CC010196A11DB11D8093C9019093A8
:10171000CA01A093CB01B093CC01BF91AF919F912F
:101720008F913F912F910F900FBE0F901F901895A2
:1017300026E8230F0296A11DB11DD2CF1F920F9252
:101740000FB60F9211242F933F934F935F936F9394
:101750007F938F939F93AF93BF93EF93FF9380916A
:10176000B900887F803609F44AC0F0F5883209F460
:10177000A7C018F5803109F49BC0B8F4882309F498
:10178000F9C0883009F494C0FF91EF91BF91AF91F7
:101790009F918F917F916F915F914F913F912F9189
:1017A0000F900FBE0F901F901895883109F488C0D4
:1017B000803251F78093130214C0803409F49DC025
:1017C00040F48033B9F38833F9F68093130285EC43
:1017D000B0C0803509F485C0883509F496C08834D6
:1017E00099F60E943809D0CF883909F48CC038F5B1
:1017F000883729F050F4883611F0803729F683E0D5
:10180000809315021092C30157C0883809F47BC039
:10181000803919F0803809F0B7CF8091C301803248
:1018200008F071C0E091C30181E08E0F8093C30185
:101830008091BB00F0E0ED55FE4F80833DC0803BC2
:1018400039F0E0F4803A09F479C0883A09F09CCF85
:1018500084E0809315021092A2011092A101E09100
:10186000D701F091D80109958091A10181110FC094
:1018700081E08093A1011092810109C0803C09F4AC
:10188000A6CF883C09F4A3CF883B09F07DCFE09137
:10189000A20181E08E0F8093A201F0E0EF57FE4F8E
:1018A00080818093BB009091A2018091A10129C009
:1018B0008091F0018093BB0085EC8093BC0064CFE5
:1018C0009091120280911102981758F5E09112023E
:1018D00081E08E0F80931202F0E0EF50FE4F808186
:1018E000E9CFE091120281E08E0F80931202809185
:1018F000BB00F0E0EF50FE4F808390911202809188
:1019000011029817C8F285E8D8CFE091120281E061
:101910008E0F809312028091BB00F0E0EF50FE4FDB
:1019200080838091140281115CCF81E08093EF016C
:1019300084EA8093BC001092150226CF85EC809338
:10194000BC00109215028091C301803230F4E09106
:10195000C301F0E0ED55FE4F10826091C30170E0CD
:10196000E091D501F091D60183EA91E009951092BA
:10197000C3010ACF1092130234CFEFE3F3E01382D6
:10198000128288EE93E0A0E0B0E084839583A68382
:10199000B78323E231E03183208325EC30E03587C3
:1019A000248724EC30E03787268720EC30E0318B29
:1019B000208B21EC30E0338B228B22EC30E0358B16
:1019C000248B26EC30E0378B268B118E128E138EF3
:1019D000148EECEDF3E01382128284839583A68348
:1019E000B78385E391E091838083E8EEF3E081E0C3
:1019F0008083118213821282158214822FEF3FEFAF
:101A0000378326831086128611868387148692E098
:101A1000958786871786108A118A128A0895CF9330
:101A2000DF93CDB7DEB729970FB6F894DEBF0FBEB0
:101A3000CDBF789484B5826084BD84B5816084BD57
:101A400085B5826085BD85B5816085BD80916E005C
:101A5000816080936E00109281008091810082608D
:101A600080938100809181008160809381008091CA
:101A700080008160809380008091B10084608093B9
:101A8000B1008091B00081608093B00080917A00B5
:101A9000846080937A0080917A00826080937A00DB
:101AA00080917A00816080937A0080917A008068CA
:101AB00080937A001092C10014BE0FB6F894A895D6
:101AC00080916000886180936000109260000FBE7A
:101AD000E0914F03F091500382E08083E0914B034B
:101AE000F0914C031082E0914D03F0914E0380E1A0
:101AF000808310925703E0915303F091540386E0E2
:101B00008083E0915103F091520380818061808352
:101B1000E0915103F0915203808188608083E091CD
:101B20005103F0915203808180688083E0915103DA
:101B3000F091520380818F7D808360E081E00E947C
:101B4000B30861E08FE00E94DD0260E08FE00E9458
:101B5000AF0261E08CE00E94DD0244E650E06BE001
:101B600072E08CE00E94B905A1E9EA2EA0E0FA2E0D
:101B7000F7016491662349F08FE393E00E94F0013E
:101B8000FFEFEF1AFF0A892B99F742E050E063E577
:101B900071E08FE393E00E945001F3E04F2E512C4F
:101BA00001E078E0772EE0E16E2E8FE393E00E9473
:101BB000AE01181619060CF0C4C40093D4018FE3CB
:101BC00093E00E948C0197FDBCC44091ED015091BF
:101BD000EE019A012F5F3F4F3093EE012093ED010C
:101BE000415C5D4FDA018C932230310509F44FC01E
:101BF00058F521303105E1F1609101017091020148
:101C00008091ED019091EE018617970708F403C1CA
:101C100080914002843509F04AC010914302153882
:101C200009F4E3C208F005C1143009F46EC208F0EB
:101C3000BAC0123009F420C208F02BC2113009F4E6
:101C40000BC20E94A708E3C02330310529F12430DC
:101C5000310591F620914002243571F62091410220
:101C600030E02C5F3F4F982F8827820F931F1AC0B8
:101C7000E4E0F0E0F0930201E09301018F3F910571
:101C800009F4C9C01092EE011092ED01B5CF845550
:101C900091090297B8F7B0CF2091400203962535FD
:101CA00009F0AACF9093020180930101A5CF853559
:101CB00009F0B5CF109142021630A0F5F0E11F9F58
:101CC000900111242C513E4FEDEDF1E0862D119243
:101CD0008A95E9F72115310509F4A1CFADEDB1E001
:101CE00050E040E090E080E0F901E40FF51FE4915E
:101CF000EE2309F494CF8D93EC34E9F1A0F5E434AC
:101D0000E1F1E634C1F1E23409F40196FC013496C4
:101D10006E177F0708F47BC04F5F5F4F403151055E
:101D200019F77DCF8FE7810F8C3060F4812F8158B8
:101D3000990B9C0154E0220F331F5A95E1F72C5D5B
:101D40003E4FC2CF30E020E01B3F08F4BDCFA12FB3
:101D5000AB5FBB0B9D0144E0220F331F4A95E1F7B7
:101D60002C523F4FB1CFE236B1F0E33741F0E335CB
:101D700069F60296CBCF0496C9CF0896C7CFFC016F
:101D8000ED5BFD4F6F0101900020E9F78C199D0973
:101D90008E0F9F1FBBCFFC01E15CFD4FE4810196DC
:101DA0008E0F911DB3CF123809F4DDC1D0F4113874
:101DB00009F047CF1092DA011092D90110921C025B
:101DC00010923E020E94F5032EE431E03093D801D8
:101DD0002093D7018FE491E09093D6018093D501B1
:101DE00030CF133809F4DFC1E091DE01143809F077
:101DF00028CFF0E0E15CFD4F648170E0E091DD010F
:101E0000F0E0E15CFD4F848190E00E947009109247
:101E1000EE011092ED018091ED019091EE018F3F66
:101E2000910509F008F4C1CE1092EE011092ED0177
:101E3000B7CE1A3809F438C2D8F4173809F417C2E3
:101E400008F4F2C1183809F424C2193809F0F9CE9F
:101E500082E00E94AD057C0181E00E94AD05E09129
:101E6000DD01F0E0E15CFD4FA701BC0184810EC102
:101E70001D3809F405C308F0DEC01B3809F0E1CEB7
:101E80008091DE0190E0FC01EC5BFD4F1F018D5B5A
:101E90009D4FDC018C9190E0B2010E94BE126B015B
:101EA0008091DB019091DC01892B09F074C0E091F5
:101EB000DD01F0E0E15CFD4FB480E8EEF3E0F0938B
:101EC000DC01E093DB019091F6038091F303009332
:101ED000F6030093F3031092F403F2E0F093F5039A
:101EE0000093E8032091F1033091F203232B51F08A
:101EF000981741F06091EA037091EB0388EE93E04C
:101F00000E940009B60188EE93E00E940009EB2CC4
:101F1000F12C8091E903882349F08091EE039091A0
:101F2000EF0397FD03C060E00E94DD02F092EF0333
:101F3000E092EE038091E903882341F061E08B2D6C
:101F40000E94DD0260E08B2D0E94AF02F701E05499
:101F5000FF4FE491F0E0EE0FFF1FEA54FF4F859131
:101F600094919093FC038093FB03F701EE55FF4F90
:101F7000E491E093FD038091EE039091EF0397FDD0
:101F800008C061E00E94DD0260E08091EE030E94E3
:101F9000AF020093E903E090DB01F090DC01F10176
:101FA00030E020E0C216D30609F4B4C1D70112967E
:101FB0008D919C91139728173907C8F54F01821806
:101FC0009308B2806181708118968C91882361F0AA
:101FD000789FA0011124752F869FA0011124652FE1
:101FE0008B9DC0011124B92ED7011E96AC901E976F
:101FF00019968D919C911A971B964C91A4127EC1B3
:10200000880D991DD7011B964C91DC01A40FB11DC1
:102010007C93D7011C964C91DC01A40FB11D6C93ED
:10202000D7011D964C91840F911DDC01BC922F5F4E
:102030003F4F3396B7CF1E3F09F47CC21F3F09F0D4
:1020400000CE88E198E00FB6F894A89580936000E0
:102050000FBE90936000FFCFA091DE01B0E0A15CC5
:10206000BD4FE091DD01F0E0E15CFD4F14966C9115
:1020700084810E94B308E5CD81E00E94AD057C011A
:1020800080E00E94AD05A701BC018CE00E94B9056B
:10209000D8CDE091DF01F0E0E15CFD4FC48081E04C
:1020A0000E94AD057C01E091DD01F0E0E15CFD4FB7
:1020B000E4818FEF8E0F843018F5F0E0EC5EFE4F78
:1020C000D080CC20C1F061E08D2D0E94DD0260E067
:1020D0008D2D0E94AF0261E070E080E090E00E94F0
:1020E0009B0360E08D2D0E94DD026C2D70E090E07E
:1020F00080E00E949B03B7018D2D0E94280802C03A
:1021000090E080E00E94860882CEE091DD01F0E060
:10211000E15CFD4FE480EA94F2E0FE15F8F0F12C6A
:10212000EE0CFF1C9701275E3E4F7901D901DC9030
:1021300062E08D2D0E94DD02F701F180FF2041F069
:1021400061E08F2D0E94DD0260E08F2D0E94AF02C2
:102150008D2D0E94860221E0892B09F020E0822F3C
:102160000E94970854CEE091DD01F0E0E15CFD4F64
:10217000848100931B0280933D0210921C021092F6
:102180003E026091DE0170E0FB01ED5BFD4F40819E
:1021900050E06C5B7D4F8CED93E00E944E0581E03A
:1021A0000E943404DDCFE091DD01F0E0E15CFD4F01
:1021B000848100931B0280933D0210921C021092B6
:1021C0003E026091DE0170E0FB01ED5BFD4F40815E
:1021D00050E06C5B7D4F8CED93E00E944E0580E0FB
:1021E0000E943404E091DF0104CED12CF12CE12CCB
:1021F00000931B02D0923D0210921C0210923E02EC
:1022000081E00E943404811107C0F701E15CFD4FB9
:10221000D082D70111967D01D394BFE7DB12E8CFBE
:102220008E2D0E94DE08F3CDA090DD018A2D90E076
:10223000FC01ED5BFD4FC080D12CFC01EC5BFD4F40
:102240005F017F01C7018A199B098C159D050CF060
:10225000F8CC61E0D7018C910E94DD02F701618129
:1022600080810E94AF02F2E0EF0EF11CEBCFE09113
:10227000DD01F0E0E15CFD4F60E084810E94DD0261
:10228000E091DD01F0E0E15CFD4F84810E94860277
:1022900067CF81E00E94AD05E091DD01F0E0E15CF7
:1022A000FD4FBC01848129CFE090DD018E2D90E0AF
:1022B000FC01ED5BFD4FC080D12C9C012C5B3D4FA0
:1022C00079015901C5018E199F098C159D050CF0E6
:1022D000B8CCD50112966C91129711968C911197EA
:1022E000762F682F84E0759567958A95E1F78C9134
:1022F0000E941903B3E0AB0EB11CE4CFA901440F57
:10230000551F440F551F840F951FDC01AA0DB11DE9
:102310001C9278CEF70181859285892B09F491CCA6
:102320000E947603D7011F968D909D90AD90BC9032
:102330005297681579058A059B0528F4F701678788
:10234000708B818B928BD7011F968D909D90AD9055
:10235000BC905297681979098A099B096C327140BF
:1023600081059105E8F2F894F701848195819A83BB
:1023700089830184F285E02D6F012FEFC21AD20A02
:1023800080818987D7019C915396ED91FC91549758
:1023900055968C91992309F439C09081982B988790
:1023A0009081809589238F838F818C837B82388570
:1023B0004F8169855B812C8189819A81D601308327
:1023C00067FD232F5A952083242F39F0661F00C004
:1023D00000004083000000C0F2CF58E06D914083C0
:1023E0000000019761F7D7015496FC93EE93539741
:1023F00069875B832C839A83898378940E94760310
:10240000F7016787708B818B928B1BCC9081982B07
:1024100098879081809589238F838F818E837D8299
:1024200038854F8169855D812E8189819A81D601A8
:10243000308367FD232F00C000C0208300C000C090
:1024400000C000C000C040830000242F5A9541F016
:10245000661F000000C000C000C000C000C0E8CF80
:1024600058E06D9100C0408300C0019709F7D70183
:102470005496FC93EE93539769875D832E83BBCF6D
:10248000E090DF01F12CF701ED5BFD4FA080B12C56
:10249000E091DE01F0E0E15CFD4F348080E00E94DD
:1024A000AD054C0197012C5B3D4F79016901C601D7
:1024B0008E199F098A159B05ACF4D60112966C9172
:1024C000129711968C911197762F682F94E075953D
:1024D00067959A95E1F78C910E941903B3E0CB0EB2
:1024E000D11CE5CF8114910409F4ABCBB401990C54
:1024F000880B990B0E949B03E1E090E080E03E1284
:1025000002C083E391E04C0184E0969487948A951D
:10251000E1F76701C6018E199F098A159B050CF02A
:1025200090CBB401D6018C910E941903B3E0CB0E7D
:10253000D11CF0CF62E170E083E491E00E947B085F
:1025400066CC80E090E0892B09F42ACB0E94BA0186
:10255000882309F425CB0E94000022CB8091F1034F
:102560009091F2030E94EA138091EE039091EF03A1
:1025700097FD03C060E00C94DD02089597FB072EE1
:1025800016F4009407D077FD09D00E94251307FCAC
:1025900005D03EF4909581959F4F08957095619573
:1025A0007F4F0895A1E21A2EAA1BBB1BFD010DC08F
:1025B000AA1FBB1FEE1FFF1FA217B307E407F507F3
:1025C00020F0A21BB30BE40BF50B661F771F881FCF
:1025D000991F1A9469F760957095809590959B0165
:1025E000AC01BD01CF010895052E97FB1EF40094A8
:1025F0000E940B1357FD07D00E94D21207FC03D094
:102600004EF40C940B1350954095309521953F4F07
:102610004F4F5F4F089590958095709561957F4FCE
:102620008F4F9F4F08950E943F13B7FF0895821B5D
:10263000930B08950E943F13A59F900DB49F900D9A
:10264000A49F800D911D11240895AA1BBB1B51E16D
:1026500007C0AA1FBB1FA617B70710F0A61BB70B12
:10266000881F991F5A95A9F780959095BC01CD01B7
:102670000895EE0FFF1F0590F491E02D0994A29F9D
:10268000B001B39FC001A39F700D811D1124911D46
:10269000B29F700D811D1124911D08950F931F93FA
:1026A000CF93DF938230910510F482E090E0E091C7
:1026B0000004F091010430E020E0B0E0A0E03097A9
:1026C00099F42115310509F44AC0281B390B24302F
:1026D0003105D8F58A819B816115710589F1FB016E
:1026E00093838283FE0111C0408151810281138155
:1026F00048175907E0F04817590799F4109761F007
:1027000012960C93129713961C933296CF01DF9179
:10271000CF911F910F91089500930004109301042D
:10272000F4CF2115310551F04217530738F0A901B4
:10273000DB019A01BD01DF01F801C1CFEF01F9CF43
:102740009093010480930004CDCFFE01E20FF31FAC
:10275000819391932250310939832883D7CF2091D7
:10276000FE033091FF03232B41F4209105013091AA
:1027700006013093FF032093FE0320910301309163
:1027800004012115310541F42DB73EB740910701F1
:1027900050910801241B350BE091FE03F091FF03DB
:1027A000E217F307A0F42E1B3F0B2817390778F028
:1027B000AC014E5F5F4F2417350748F04E0F5F1F87
:1027C0005093FF034093FE03819391939FCFF0E0DA
:1027D000E0E09CCFCF93DF930097E9F0FC013297C4
:1027E00013821282A0910004B0910104ED0130E047
:1027F00020E01097A1F420813181820F931F209156
:10280000FE033091FF032817390709F061C0F093E8
:10281000FF03E093FE03DF91CF910895EA01CE1705
:10282000DF07E8F54A815B819E0141155105B1F74B
:10283000E901FB83EA8349915991C40FD51FEC1735
:10284000FD0761F4808191810296840F951FE90153
:1028500099838883828193819B838A83F0E0E0E07F
:1028600012968D919C9113970097B9F52D913C91FB
:102870001197CD010296820F931F2091FE03309194
:10288000FF032817390739F6309751F510920104E4
:1028900010920004B093FF03A093FE03BCCFD38338
:1028A000C28340815181840F951FC817D90761F4F5
:1028B0004E5F5F4F88819981480F591F5183408334
:1028C0008A819B81938382832115310509F0B0CFE2
:1028D000F0930104E09300049ECFFD01DC01C0CF22
:1028E00013821282D7CF6817790768F4FB01DC01E5
:1028F000E40FF51FA40FB51F02C002900E924150C5
:102900005040D8F708950C948C14DC0101C06D93ED
:1029100041505040E0F70895FB01DC0102C00190F6
:102920000D9241505040D8F7089511E0C3E2D1E034
:1029300004C0FE010E9439132196C432D107C9F7A1
:04294000F894FFCF39
:10294400FF04000000020480000D000203040506D9
:102954000708090A0B1011121302040507080A00DC
:10296400000000F00150017D013D02AE018C01A088
:1029740001000000007B054E05AA05240547053427
:102984000525055043206D6F64653A20756E6F20F0
:06299400312E300D0A0097
:00000001FF
